{
	"data": {
		"bytecode": {
			"linkReferences": {},
			"object": "608060405234801561000f575f80fd5b50338061003557604051631e4fbdf760e01b81525f600482015260240160405180910390fd5b61003e81610389565b506040518060c0016040528062aa36a7815260200161008a6040518060400160405280601081526020016f657468657265756d2d7365706f6c696160801b8152506103d860201b60201c565b81526127b1602080830191909152619ce160408084019190915273c2216fcdf9bb3a40d20ed2e17632fe5adfd4ab63606080850191909152732f6f07cdcf3588944bf4c42ac74ff24bf56e759060809485015262aa36a75f526001835284517fd0ca2b9e48613413ba8bd488b2bc9928edc96f8f17ec2af94a885da5292afebb55848301517fd0ca2b9e48613413ba8bd488b2bc9928edc96f8f17ec2af94a885da5292afebc55848201517fd0ca2b9e48613413ba8bd488b2bc9928edc96f8f17ec2af94a885da5292afebd8054928701519587015161ffff90921665ffffffffffff19909316929092176201000063ffffffff9096169590950294909417600160301b600160d01b03191666010000000000006001600160a01b039586160217905560a0909301517fd0ca2b9e48613413ba8bd488b2bc9928edc96f8f17ec2af94a885da5292afebe80546001600160a01b0319169190931617909155815160c08101835262aa37dc81528251808401909352601083526f6f7074696d69736d2d7365706f6c696160801b838301529190820190610228906103d8565b81526127f8602080830191909152619d28604080840191909152732b798e5a0ce8018edd5532ff4899e2f241271ab060608085019190915273488327236b65c61a6c083e8d811a4e0d3d1d426860809485015262aa37dc5f526001835284517f6d09c67303814678cfc65ff246f203a38d994ed1aa4deb4318c71dffd348fb9855918401517f6d09c67303814678cfc65ff246f203a38d994ed1aa4deb4318c71dffd348fb99558301517f6d09c67303814678cfc65ff246f203a38d994ed1aa4deb4318c71dffd348fb9a8054928501519385015161ffff90921665ffffffffffff19909316929092176201000063ffffffff9094169390930292909217600160301b600160d01b03191666010000000000006001600160a01b039384160217905560a0909101517f6d09c67303814678cfc65ff246f203a38d994ed1aa4deb4318c71dffd348fb9b80546001600160a01b03191691909216179055610448565b5f80546001600160a01b038381166001600160a01b0319831681178455604051919092169283917f8be0079c531659141344cd1fd0a4f28419497f9722a3daafe3b4186f6b6457e09190a35050565b80515f90829015806103eb5750601f8151115b1561040957604051638dc6ac0160e01b815260040160405180910390fd5b5f61041382610422565b915160ff169091179392505050565b80516020808301519190811015610442575f198160200360031b1b821691505b50919050565b61058d806104555f395ff3fe608060405234801561000f575f80fd5b5060043610610060575f3560e01c8063550325b514610064578063715018a614610109578063804ea33414610113578063876fba09146102235780638da5cb5b14610236578063f2fde38b14610250575b5f80fd5b6100bf610072366004610444565b600160208190525f91825260409091208054918101546002820154600390920154909161ffff81169163ffffffff62010000830416916001600160a01b03600160301b9091048116911686565b60408051968752602087019590955261ffff9093169385019390935263ffffffff1660608401526001600160a01b0391821660808401521660a082015260c0015b60405180910390f35b610111610263565b005b6101c3610121366004610444565b6040805160c0810182525f80825260208201819052918101829052606081018290526080810182905260a0810191909152505f90815260016020818152604092839020835160c081018552815481529281015491830191909152600281015461ffff81169383019390935263ffffffff6201000084041660608301526001600160a01b03600160301b909304831660808301526003015490911660a082015290565b6040516101009190815181526020808301519082015260408083015161ffff169082015260608083015163ffffffff16908201526080808301516001600160a01b039081169183019190915260a092830151169181019190915260c00190565b61011161023136600461049a565b610276565b5f546040516001600160a01b039091168152602001610100565b61011161025e366004610537565b61038c565b61026b6103c9565b6102745f6103f5565b565b61027e6103c9565b80515f90815260016020526040902054156102ec5760405162461bcd60e51b815260206004820152602360248201527f436861696e496e666f3a20436861696e20616c726561647920726567697374656044820152621c995960ea1b60648201526084015b60405180910390fd5b80515f90815260016020818152604092839020845181559084015191810191909155908201516002820180546060850151608086015161ffff90941665ffffffffffff19909216919091176201000063ffffffff90921691909102176601000000000000600160d01b031916600160301b6001600160a01b039384160217905560a090920151600390910180546001600160a01b03191691909216179055565b6103946103c9565b6001600160a01b0381166103bd57604051631e4fbdf760e01b81525f60048201526024016102e3565b6103c6816103f5565b50565b5f546001600160a01b031633146102745760405163118cdaa760e01b81523360048201526024016102e3565b5f80546001600160a01b038381166001600160a01b0319831681178455604051919092169283917f8be0079c531659141344cd1fd0a4f28419497f9722a3daafe3b4186f6b6457e09190a35050565b5f60208284031215610454575f80fd5b5035919050565b803561ffff8116811461046c575f80fd5b919050565b803563ffffffff8116811461046c575f80fd5b80356001600160a01b038116811461046c575f80fd5b5f60c082840312156104aa575f80fd5b60405160c0810181811067ffffffffffffffff821117156104d957634e487b7160e01b5f52604160045260245ffd5b806040525082358152602083013560208201526104f86040840161045b565b604082015261050960608401610471565b606082015261051a60808401610484565b608082015261052b60a08401610484565b60a08201529392505050565b5f60208284031215610547575f80fd5b61055082610484565b939250505056fea264697066735822122040924f9487ed2e6fa8522c2553c594f5b0aa604d6a3c2abd946b28948230e30a64736f6c63430008190033",
			"opcodes": "PUSH1 0x80 PUSH1 0x40 MSTORE CALLVALUE DUP1 ISZERO PUSH2 0xF JUMPI PUSH0 DUP1 REVERT JUMPDEST POP CALLER DUP1 PUSH2 0x35 JUMPI PUSH1 0x40 MLOAD PUSH4 0x1E4FBDF7 PUSH1 0xE0 SHL DUP2 MSTORE PUSH0 PUSH1 0x4 DUP3 ADD MSTORE PUSH1 0x24 ADD PUSH1 0x40 MLOAD DUP1 SWAP2 SUB SWAP1 REVERT JUMPDEST PUSH2 0x3E DUP2 PUSH2 0x389 JUMP JUMPDEST POP PUSH1 0x40 MLOAD DUP1 PUSH1 0xC0 ADD PUSH1 0x40 MSTORE DUP1 PUSH3 0xAA36A7 DUP2 MSTORE PUSH1 0x20 ADD PUSH2 0x8A PUSH1 0x40 MLOAD DUP1 PUSH1 0x40 ADD PUSH1 0x40 MSTORE DUP1 PUSH1 0x10 DUP2 MSTORE PUSH1 0x20 ADD PUSH16 0x657468657265756D2D7365706F6C6961 PUSH1 0x80 SHL DUP2 MSTORE POP PUSH2 0x3D8 PUSH1 0x20 SHL PUSH1 0x20 SHR JUMP JUMPDEST DUP2 MSTORE PUSH2 0x27B1 PUSH1 0x20 DUP1 DUP4 ADD SWAP2 SWAP1 SWAP2 MSTORE PUSH2 0x9CE1 PUSH1 0x40 DUP1 DUP5 ADD SWAP2 SWAP1 SWAP2 MSTORE PUSH20 0xC2216FCDF9BB3A40D20ED2E17632FE5ADFD4AB63 PUSH1 0x60 DUP1 DUP6 ADD SWAP2 SWAP1 SWAP2 MSTORE PUSH20 0x2F6F07CDCF3588944BF4C42AC74FF24BF56E7590 PUSH1 0x80 SWAP5 DUP6 ADD MSTORE PUSH3 0xAA36A7 PUSH0 MSTORE PUSH1 0x1 DUP4 MSTORE DUP5 MLOAD PUSH32 0xD0CA2B9E48613413BA8BD488B2BC9928EDC96F8F17EC2AF94A885DA5292AFEBB SSTORE DUP5 DUP4 ADD MLOAD PUSH32 0xD0CA2B9E48613413BA8BD488B2BC9928EDC96F8F17EC2AF94A885DA5292AFEBC SSTORE DUP5 DUP3 ADD MLOAD PUSH32 0xD0CA2B9E48613413BA8BD488B2BC9928EDC96F8F17EC2AF94A885DA5292AFEBD DUP1 SLOAD SWAP3 DUP8 ADD MLOAD SWAP6 DUP8 ADD MLOAD PUSH2 0xFFFF SWAP1 SWAP3 AND PUSH6 0xFFFFFFFFFFFF NOT SWAP1 SWAP4 AND SWAP3 SWAP1 SWAP3 OR PUSH3 0x10000 PUSH4 0xFFFFFFFF SWAP1 SWAP7 AND SWAP6 SWAP1 SWAP6 MUL SWAP5 SWAP1 SWAP5 OR PUSH1 0x1 PUSH1 0x30 SHL PUSH1 0x1 PUSH1 0xD0 SHL SUB NOT AND PUSH7 0x1000000000000 PUSH1 0x1 PUSH1 0x1 PUSH1 0xA0 SHL SUB SWAP6 DUP7 AND MUL OR SWAP1 SSTORE PUSH1 0xA0 SWAP1 SWAP4 ADD MLOAD PUSH32 0xD0CA2B9E48613413BA8BD488B2BC9928EDC96F8F17EC2AF94A885DA5292AFEBE DUP1 SLOAD PUSH1 0x1 PUSH1 0x1 PUSH1 0xA0 SHL SUB NOT AND SWAP2 SWAP1 SWAP4 AND OR SWAP1 SWAP2 SSTORE DUP2 MLOAD PUSH1 0xC0 DUP2 ADD DUP4 MSTORE PUSH3 0xAA37DC DUP2 MSTORE DUP3 MLOAD DUP1 DUP5 ADD SWAP1 SWAP4 MSTORE PUSH1 0x10 DUP4 MSTORE PUSH16 0x6F7074696D69736D2D7365706F6C6961 PUSH1 0x80 SHL DUP4 DUP4 ADD MSTORE SWAP2 SWAP1 DUP3 ADD SWAP1 PUSH2 0x228 SWAP1 PUSH2 0x3D8 JUMP JUMPDEST DUP2 MSTORE PUSH2 0x27F8 PUSH1 0x20 DUP1 DUP4 ADD SWAP2 SWAP1 SWAP2 MSTORE PUSH2 0x9D28 PUSH1 0x40 DUP1 DUP5 ADD SWAP2 SWAP1 SWAP2 MSTORE PUSH20 0x2B798E5A0CE8018EDD5532FF4899E2F241271AB0 PUSH1 0x60 DUP1 DUP6 ADD SWAP2 SWAP1 SWAP2 MSTORE PUSH20 0x488327236B65C61A6C083E8D811A4E0D3D1D4268 PUSH1 0x80 SWAP5 DUP6 ADD MSTORE PUSH3 0xAA37DC PUSH0 MSTORE PUSH1 0x1 DUP4 MSTORE DUP5 MLOAD PUSH32 0x6D09C67303814678CFC65FF246F203A38D994ED1AA4DEB4318C71DFFD348FB98 SSTORE SWAP2 DUP5 ADD MLOAD PUSH32 0x6D09C67303814678CFC65FF246F203A38D994ED1AA4DEB4318C71DFFD348FB99 SSTORE DUP4 ADD MLOAD PUSH32 0x6D09C67303814678CFC65FF246F203A38D994ED1AA4DEB4318C71DFFD348FB9A DUP1 SLOAD SWAP3 DUP6 ADD MLOAD SWAP4 DUP6 ADD MLOAD PUSH2 0xFFFF SWAP1 SWAP3 AND PUSH6 0xFFFFFFFFFFFF NOT SWAP1 SWAP4 AND SWAP3 SWAP1 SWAP3 OR PUSH3 0x10000 PUSH4 0xFFFFFFFF SWAP1 SWAP5 AND SWAP4 SWAP1 SWAP4 MUL SWAP3 SWAP1 SWAP3 OR PUSH1 0x1 PUSH1 0x30 SHL PUSH1 0x1 PUSH1 0xD0 SHL SUB NOT AND PUSH7 0x1000000000000 PUSH1 0x1 PUSH1 0x1 PUSH1 0xA0 SHL SUB SWAP4 DUP5 AND MUL OR SWAP1 SSTORE PUSH1 0xA0 SWAP1 SWAP2 ADD MLOAD PUSH32 0x6D09C67303814678CFC65FF246F203A38D994ED1AA4DEB4318C71DFFD348FB9B DUP1 SLOAD PUSH1 0x1 PUSH1 0x1 PUSH1 0xA0 SHL SUB NOT AND SWAP2 SWAP1 SWAP3 AND OR SWAP1 SSTORE PUSH2 0x448 JUMP JUMPDEST PUSH0 DUP1 SLOAD PUSH1 0x1 PUSH1 0x1 PUSH1 0xA0 SHL SUB DUP4 DUP2 AND PUSH1 0x1 PUSH1 0x1 PUSH1 0xA0 SHL SUB NOT DUP4 AND DUP2 OR DUP5 SSTORE PUSH1 0x40 MLOAD SWAP2 SWAP1 SWAP3 AND SWAP3 DUP4 SWAP2 PUSH32 0x8BE0079C531659141344CD1FD0A4F28419497F9722A3DAAFE3B4186F6B6457E0 SWAP2 SWAP1 LOG3 POP POP JUMP JUMPDEST DUP1 MLOAD PUSH0 SWAP1 DUP3 SWAP1 ISZERO DUP1 PUSH2 0x3EB JUMPI POP PUSH1 0x1F DUP2 MLOAD GT JUMPDEST ISZERO PUSH2 0x409 JUMPI PUSH1 0x40 MLOAD PUSH4 0x8DC6AC01 PUSH1 0xE0 SHL DUP2 MSTORE PUSH1 0x4 ADD PUSH1 0x40 MLOAD DUP1 SWAP2 SUB SWAP1 REVERT JUMPDEST PUSH0 PUSH2 0x413 DUP3 PUSH2 0x422 JUMP JUMPDEST SWAP2 MLOAD PUSH1 0xFF AND SWAP1 SWAP2 OR SWAP4 SWAP3 POP POP POP JUMP JUMPDEST DUP1 MLOAD PUSH1 0x20 DUP1 DUP4 ADD MLOAD SWAP2 SWAP1 DUP2 LT ISZERO PUSH2 0x442 JUMPI PUSH0 NOT DUP2 PUSH1 0x20 SUB PUSH1 0x3 SHL SHL DUP3 AND SWAP2 POP JUMPDEST POP SWAP2 SWAP1 POP JUMP JUMPDEST PUSH2 0x58D DUP1 PUSH2 0x455 PUSH0 CODECOPY PUSH0 RETURN INVALID PUSH1 0x80 PUSH1 0x40 MSTORE CALLVALUE DUP1 ISZERO PUSH2 0xF JUMPI PUSH0 DUP1 REVERT JUMPDEST POP PUSH1 0x4 CALLDATASIZE LT PUSH2 0x60 JUMPI PUSH0 CALLDATALOAD PUSH1 0xE0 SHR DUP1 PUSH4 0x550325B5 EQ PUSH2 0x64 JUMPI DUP1 PUSH4 0x715018A6 EQ PUSH2 0x109 JUMPI DUP1 PUSH4 0x804EA334 EQ PUSH2 0x113 JUMPI DUP1 PUSH4 0x876FBA09 EQ PUSH2 0x223 JUMPI DUP1 PUSH4 0x8DA5CB5B EQ PUSH2 0x236 JUMPI DUP1 PUSH4 0xF2FDE38B EQ PUSH2 0x250 JUMPI JUMPDEST PUSH0 DUP1 REVERT JUMPDEST PUSH2 0xBF PUSH2 0x72 CALLDATASIZE PUSH1 0x4 PUSH2 0x444 JUMP JUMPDEST PUSH1 0x1 PUSH1 0x20 DUP2 SWAP1 MSTORE PUSH0 SWAP2 DUP3 MSTORE PUSH1 0x40 SWAP1 SWAP2 KECCAK256 DUP1 SLOAD SWAP2 DUP2 ADD SLOAD PUSH1 0x2 DUP3 ADD SLOAD PUSH1 0x3 SWAP1 SWAP3 ADD SLOAD SWAP1 SWAP2 PUSH2 0xFFFF DUP2 AND SWAP2 PUSH4 0xFFFFFFFF PUSH3 0x10000 DUP4 DIV AND SWAP2 PUSH1 0x1 PUSH1 0x1 PUSH1 0xA0 SHL SUB PUSH1 0x1 PUSH1 0x30 SHL SWAP1 SWAP2 DIV DUP2 AND SWAP2 AND DUP7 JUMP JUMPDEST PUSH1 0x40 DUP1 MLOAD SWAP7 DUP8 MSTORE PUSH1 0x20 DUP8 ADD SWAP6 SWAP1 SWAP6 MSTORE PUSH2 0xFFFF SWAP1 SWAP4 AND SWAP4 DUP6 ADD SWAP4 SWAP1 SWAP4 MSTORE PUSH4 0xFFFFFFFF AND PUSH1 0x60 DUP5 ADD MSTORE PUSH1 0x1 PUSH1 0x1 PUSH1 0xA0 SHL SUB SWAP2 DUP3 AND PUSH1 0x80 DUP5 ADD MSTORE AND PUSH1 0xA0 DUP3 ADD MSTORE PUSH1 0xC0 ADD JUMPDEST PUSH1 0x40 MLOAD DUP1 SWAP2 SUB SWAP1 RETURN JUMPDEST PUSH2 0x111 PUSH2 0x263 JUMP JUMPDEST STOP JUMPDEST PUSH2 0x1C3 PUSH2 0x121 CALLDATASIZE PUSH1 0x4 PUSH2 0x444 JUMP JUMPDEST PUSH1 0x40 DUP1 MLOAD PUSH1 0xC0 DUP2 ADD DUP3 MSTORE PUSH0 DUP1 DUP3 MSTORE PUSH1 0x20 DUP3 ADD DUP2 SWAP1 MSTORE SWAP2 DUP2 ADD DUP3 SWAP1 MSTORE PUSH1 0x60 DUP2 ADD DUP3 SWAP1 MSTORE PUSH1 0x80 DUP2 ADD DUP3 SWAP1 MSTORE PUSH1 0xA0 DUP2 ADD SWAP2 SWAP1 SWAP2 MSTORE POP PUSH0 SWAP1 DUP2 MSTORE PUSH1 0x1 PUSH1 0x20 DUP2 DUP2 MSTORE PUSH1 0x40 SWAP3 DUP4 SWAP1 KECCAK256 DUP4 MLOAD PUSH1 0xC0 DUP2 ADD DUP6 MSTORE DUP2 SLOAD DUP2 MSTORE SWAP3 DUP2 ADD SLOAD SWAP2 DUP4 ADD SWAP2 SWAP1 SWAP2 MSTORE PUSH1 0x2 DUP2 ADD SLOAD PUSH2 0xFFFF DUP2 AND SWAP4 DUP4 ADD SWAP4 SWAP1 SWAP4 MSTORE PUSH4 0xFFFFFFFF PUSH3 0x10000 DUP5 DIV AND PUSH1 0x60 DUP4 ADD MSTORE PUSH1 0x1 PUSH1 0x1 PUSH1 0xA0 SHL SUB PUSH1 0x1 PUSH1 0x30 SHL SWAP1 SWAP4 DIV DUP4 AND PUSH1 0x80 DUP4 ADD MSTORE PUSH1 0x3 ADD SLOAD SWAP1 SWAP2 AND PUSH1 0xA0 DUP3 ADD MSTORE SWAP1 JUMP JUMPDEST PUSH1 0x40 MLOAD PUSH2 0x100 SWAP2 SWAP1 DUP2 MLOAD DUP2 MSTORE PUSH1 0x20 DUP1 DUP4 ADD MLOAD SWAP1 DUP3 ADD MSTORE PUSH1 0x40 DUP1 DUP4 ADD MLOAD PUSH2 0xFFFF AND SWAP1 DUP3 ADD MSTORE PUSH1 0x60 DUP1 DUP4 ADD MLOAD PUSH4 0xFFFFFFFF AND SWAP1 DUP3 ADD MSTORE PUSH1 0x80 DUP1 DUP4 ADD MLOAD PUSH1 0x1 PUSH1 0x1 PUSH1 0xA0 SHL SUB SWAP1 DUP2 AND SWAP2 DUP4 ADD SWAP2 SWAP1 SWAP2 MSTORE PUSH1 0xA0 SWAP3 DUP4 ADD MLOAD AND SWAP2 DUP2 ADD SWAP2 SWAP1 SWAP2 MSTORE PUSH1 0xC0 ADD SWAP1 JUMP JUMPDEST PUSH2 0x111 PUSH2 0x231 CALLDATASIZE PUSH1 0x4 PUSH2 0x49A JUMP JUMPDEST PUSH2 0x276 JUMP JUMPDEST PUSH0 SLOAD PUSH1 0x40 MLOAD PUSH1 0x1 PUSH1 0x1 PUSH1 0xA0 SHL SUB SWAP1 SWAP2 AND DUP2 MSTORE PUSH1 0x20 ADD PUSH2 0x100 JUMP JUMPDEST PUSH2 0x111 PUSH2 0x25E CALLDATASIZE PUSH1 0x4 PUSH2 0x537 JUMP JUMPDEST PUSH2 0x38C JUMP JUMPDEST PUSH2 0x26B PUSH2 0x3C9 JUMP JUMPDEST PUSH2 0x274 PUSH0 PUSH2 0x3F5 JUMP JUMPDEST JUMP JUMPDEST PUSH2 0x27E PUSH2 0x3C9 JUMP JUMPDEST DUP1 MLOAD PUSH0 SWAP1 DUP2 MSTORE PUSH1 0x1 PUSH1 0x20 MSTORE PUSH1 0x40 SWAP1 KECCAK256 SLOAD ISZERO PUSH2 0x2EC JUMPI PUSH1 0x40 MLOAD PUSH3 0x461BCD PUSH1 0xE5 SHL DUP2 MSTORE PUSH1 0x20 PUSH1 0x4 DUP3 ADD MSTORE PUSH1 0x23 PUSH1 0x24 DUP3 ADD MSTORE PUSH32 0x436861696E496E666F3A20436861696E20616C72656164792072656769737465 PUSH1 0x44 DUP3 ADD MSTORE PUSH3 0x1C9959 PUSH1 0xEA SHL PUSH1 0x64 DUP3 ADD MSTORE PUSH1 0x84 ADD JUMPDEST PUSH1 0x40 MLOAD DUP1 SWAP2 SUB SWAP1 REVERT JUMPDEST DUP1 MLOAD PUSH0 SWAP1 DUP2 MSTORE PUSH1 0x1 PUSH1 0x20 DUP2 DUP2 MSTORE PUSH1 0x40 SWAP3 DUP4 SWAP1 KECCAK256 DUP5 MLOAD DUP2 SSTORE SWAP1 DUP5 ADD MLOAD SWAP2 DUP2 ADD SWAP2 SWAP1 SWAP2 SSTORE SWAP1 DUP3 ADD MLOAD PUSH1 0x2 DUP3 ADD DUP1 SLOAD PUSH1 0x60 DUP6 ADD MLOAD PUSH1 0x80 DUP7 ADD MLOAD PUSH2 0xFFFF SWAP1 SWAP5 AND PUSH6 0xFFFFFFFFFFFF NOT SWAP1 SWAP3 AND SWAP2 SWAP1 SWAP2 OR PUSH3 0x10000 PUSH4 0xFFFFFFFF SWAP1 SWAP3 AND SWAP2 SWAP1 SWAP2 MUL OR PUSH7 0x1000000000000 PUSH1 0x1 PUSH1 0xD0 SHL SUB NOT AND PUSH1 0x1 PUSH1 0x30 SHL PUSH1 0x1 PUSH1 0x1 PUSH1 0xA0 SHL SUB SWAP4 DUP5 AND MUL OR SWAP1 SSTORE PUSH1 0xA0 SWAP1 SWAP3 ADD MLOAD PUSH1 0x3 SWAP1 SWAP2 ADD DUP1 SLOAD PUSH1 0x1 PUSH1 0x1 PUSH1 0xA0 SHL SUB NOT AND SWAP2 SWAP1 SWAP3 AND OR SWAP1 SSTORE JUMP JUMPDEST PUSH2 0x394 PUSH2 0x3C9 JUMP JUMPDEST PUSH1 0x1 PUSH1 0x1 PUSH1 0xA0 SHL SUB DUP2 AND PUSH2 0x3BD JUMPI PUSH1 0x40 MLOAD PUSH4 0x1E4FBDF7 PUSH1 0xE0 SHL DUP2 MSTORE PUSH0 PUSH1 0x4 DUP3 ADD MSTORE PUSH1 0x24 ADD PUSH2 0x2E3 JUMP JUMPDEST PUSH2 0x3C6 DUP2 PUSH2 0x3F5 JUMP JUMPDEST POP JUMP JUMPDEST PUSH0 SLOAD PUSH1 0x1 PUSH1 0x1 PUSH1 0xA0 SHL SUB AND CALLER EQ PUSH2 0x274 JUMPI PUSH1 0x40 MLOAD PUSH4 0x118CDAA7 PUSH1 0xE0 SHL DUP2 MSTORE CALLER PUSH1 0x4 DUP3 ADD MSTORE PUSH1 0x24 ADD PUSH2 0x2E3 JUMP JUMPDEST PUSH0 DUP1 SLOAD PUSH1 0x1 PUSH1 0x1 PUSH1 0xA0 SHL SUB DUP4 DUP2 AND PUSH1 0x1 PUSH1 0x1 PUSH1 0xA0 SHL SUB NOT DUP4 AND DUP2 OR DUP5 SSTORE PUSH1 0x40 MLOAD SWAP2 SWAP1 SWAP3 AND SWAP3 DUP4 SWAP2 PUSH32 0x8BE0079C531659141344CD1FD0A4F28419497F9722A3DAAFE3B4186F6B6457E0 SWAP2 SWAP1 LOG3 POP POP JUMP JUMPDEST PUSH0 PUSH1 0x20 DUP3 DUP5 SUB SLT ISZERO PUSH2 0x454 JUMPI PUSH0 DUP1 REVERT JUMPDEST POP CALLDATALOAD SWAP2 SWAP1 POP JUMP JUMPDEST DUP1 CALLDATALOAD PUSH2 0xFFFF DUP2 AND DUP2 EQ PUSH2 0x46C JUMPI PUSH0 DUP1 REVERT JUMPDEST SWAP2 SWAP1 POP JUMP JUMPDEST DUP1 CALLDATALOAD PUSH4 0xFFFFFFFF DUP2 AND DUP2 EQ PUSH2 0x46C JUMPI PUSH0 DUP1 REVERT JUMPDEST DUP1 CALLDATALOAD PUSH1 0x1 PUSH1 0x1 PUSH1 0xA0 SHL SUB DUP2 AND DUP2 EQ PUSH2 0x46C JUMPI PUSH0 DUP1 REVERT JUMPDEST PUSH0 PUSH1 0xC0 DUP3 DUP5 SUB SLT ISZERO PUSH2 0x4AA JUMPI PUSH0 DUP1 REVERT JUMPDEST PUSH1 0x40 MLOAD PUSH1 0xC0 DUP2 ADD DUP2 DUP2 LT PUSH8 0xFFFFFFFFFFFFFFFF DUP3 GT OR ISZERO PUSH2 0x4D9 JUMPI PUSH4 0x4E487B71 PUSH1 0xE0 SHL PUSH0 MSTORE PUSH1 0x41 PUSH1 0x4 MSTORE PUSH1 0x24 PUSH0 REVERT JUMPDEST DUP1 PUSH1 0x40 MSTORE POP DUP3 CALLDATALOAD DUP2 MSTORE PUSH1 0x20 DUP4 ADD CALLDATALOAD PUSH1 0x20 DUP3 ADD MSTORE PUSH2 0x4F8 PUSH1 0x40 DUP5 ADD PUSH2 0x45B JUMP JUMPDEST PUSH1 0x40 DUP3 ADD MSTORE PUSH2 0x509 PUSH1 0x60 DUP5 ADD PUSH2 0x471 JUMP JUMPDEST PUSH1 0x60 DUP3 ADD MSTORE PUSH2 0x51A PUSH1 0x80 DUP5 ADD PUSH2 0x484 JUMP JUMPDEST PUSH1 0x80 DUP3 ADD MSTORE PUSH2 0x52B PUSH1 0xA0 DUP5 ADD PUSH2 0x484 JUMP JUMPDEST PUSH1 0xA0 DUP3 ADD MSTORE SWAP4 SWAP3 POP POP POP JUMP JUMPDEST PUSH0 PUSH1 0x20 DUP3 DUP5 SUB SLT ISZERO PUSH2 0x547 JUMPI PUSH0 DUP1 REVERT JUMPDEST PUSH2 0x550 DUP3 PUSH2 0x484 JUMP JUMPDEST SWAP4 SWAP3 POP POP POP JUMP INVALID LOG2 PUSH5 0x6970667358 0x22 SLT KECCAK256 BLOCKHASH SWAP3 0x4F SWAP5 DUP8 0xED 0x2E PUSH16 0xA8522C2553C594F5B0AA604D6A3C2ABD SWAP5 PUSH12 0x28948230E30A64736F6C6343 STOP ADDMOD NOT STOP CALLER "
		},
		"gasEstimates": {
			"creation": {
				"codeDepositCost": "284200",
				"executionCost": "infinite",
				"totalCost": "infinite"
			},
			"external": {
				"addChain((uint256,bytes32,uint16,uint32,address,address))": "infinite",
				"chains(uint256)": "8970",
				"getChainInfo(uint256)": "9362",
				"owner()": "2365",
				"renounceOwnership()": "infinite",
				"transferOwnership(address)": "28417"
			}
		},
		"methodIdentifiers": {
			"addChain((uint256,bytes32,uint16,uint32,address,address))": "876fba09",
			"chains(uint256)": "550325b5",
			"getChainInfo(uint256)": "804ea334",
			"owner()": "8da5cb5b",
			"renounceOwnership()": "715018a6",
			"transferOwnership(address)": "f2fde38b"
		}
	},
	"abi": [
		{
			"inputs": [],
			"stateMutability": "nonpayable",
			"type": "constructor"
		},
		{
			"inputs": [],
			"name": "InvalidStringLength",
			"type": "error"
		},
		{
			"inputs": [
				{
					"internalType": "address",
					"name": "owner",
					"type": "address"
				}
			],
			"name": "OwnableInvalidOwner",
			"type": "error"
		},
		{
			"inputs": [
				{
					"internalType": "address",
					"name": "account",
					"type": "address"
				}
			],
			"name": "OwnableUnauthorizedAccount",
			"type": "error"
		},
		{
			"anonymous": false,
			"inputs": [
				{
					"indexed": true,
					"internalType": "address",
					"name": "previousOwner",
					"type": "address"
				},
				{
					"indexed": true,
					"internalType": "address",
					"name": "newOwner",
					"type": "address"
				}
			],
			"name": "OwnershipTransferred",
			"type": "event"
		},
		{
			"inputs": [
				{
					"components": [
						{
							"internalType": "uint256",
							"name": "chainId",
							"type": "uint256"
						},
						{
							"internalType": "bytes32",
							"name": "axelarChainId",
							"type": "bytes32"
						},
						{
							"internalType": "uint16",
							"name": "stargateChainId",
							"type": "uint16"
						},
						{
							"internalType": "uint32",
							"name": "lzEndpointId",
							"type": "uint32"
						},
						{
							"internalType": "address",
							"name": "stargateAdapter",
							"type": "address"
						},
						{
							"internalType": "address",
							"name": "paymentToken",
							"type": "address"
						}
					],
					"internalType": "struct Chain",
					"name": "_chain",
					"type": "tuple"
				}
			],
			"name": "addChain",
			"outputs": [],
			"stateMutability": "nonpayable",
			"type": "function"
		},
		{
			"inputs": [
				{
					"internalType": "uint256",
					"name": "",
					"type": "uint256"
				}
			],
			"name": "chains",
			"outputs": [
				{
					"internalType": "uint256",
					"name": "chainId",
					"type": "uint256"
				},
				{
					"internalType": "bytes32",
					"name": "axelarChainId",
					"type": "bytes32"
				},
				{
					"internalType": "uint16",
					"name": "stargateChainId",
					"type": "uint16"
				},
				{
					"internalType": "uint32",
					"name": "lzEndpointId",
					"type": "uint32"
				},
				{
					"internalType": "address",
					"name": "stargateAdapter",
					"type": "address"
				},
				{
					"internalType": "address",
					"name": "paymentToken",
					"type": "address"
				}
			],
			"stateMutability": "view",
			"type": "function"
		},
		{
			"inputs": [
				{
					"internalType": "uint256",
					"name": "_chainId",
					"type": "uint256"
				}
			],
			"name": "getChainInfo",
			"outputs": [
				{
					"components": [
						{
							"internalType": "uint256",
							"name": "chainId",
							"type": "uint256"
						},
						{
							"internalType": "bytes32",
							"name": "axelarChainId",
							"type": "bytes32"
						},
						{
							"internalType": "uint16",
							"name": "stargateChainId",
							"type": "uint16"
						},
						{
							"internalType": "uint32",
							"name": "lzEndpointId",
							"type": "uint32"
						},
						{
							"internalType": "address",
							"name": "stargateAdapter",
							"type": "address"
						},
						{
							"internalType": "address",
							"name": "paymentToken",
							"type": "address"
						}
					],
					"internalType": "struct Chain",
					"name": "",
					"type": "tuple"
				}
			],
			"stateMutability": "view",
			"type": "function"
		},
		{
			"inputs": [],
			"name": "owner",
			"outputs": [
				{
					"internalType": "address",
					"name": "",
					"type": "address"
				}
			],
			"stateMutability": "view",
			"type": "function"
		},
		{
			"inputs": [],
			"name": "renounceOwnership",
			"outputs": [],
			"stateMutability": "nonpayable",
			"type": "function"
		},
		{
			"inputs": [
				{
					"internalType": "address",
					"name": "newOwner",
					"type": "address"
				}
			],
			"name": "transferOwnership",
			"outputs": [],
			"stateMutability": "nonpayable",
			"type": "function"
		}
	]
}