{
	"data": {
		"bytecode": {
			"linkReferences": {},
			"object": "608060405234801561000f575f80fd5b50338061003557604051631e4fbdf760e01b81525f600482015260240160405180910390fd5b61003e8161024b565b50604051806080016040528062aa36a7815260200161008a6040518060400160405280601081526020016f657468657265756d2d7365706f6c696160801b81525061029a60201b60201c565b81526127b1602080830191909152619ce160409283015262aa36a75f526001815282517fd0ca2b9e48613413ba8bd488b2bc9928edc96f8f17ec2af94a885da5292afebb55828101517fd0ca2b9e48613413ba8bd488b2bc9928edc96f8f17ec2af94a885da5292afebc55828201517fd0ca2b9e48613413ba8bd488b2bc9928edc96f8f17ec2af94a885da5292afebd805460609095015163ffffffff16620100000265ffffffffffff1990951661ffff929092169190911793909317909255805160808101825262aa37dc81528151808301909252601082526f6f7074696d69736d2d7365706f6c696160801b82840152918201906101899061029a565b81526127f8602080830191909152619d2860409283015262aa37dc5f526001815282517f6d09c67303814678cfc65ff246f203a38d994ed1aa4deb4318c71dffd348fb98558201517f6d09c67303814678cfc65ff246f203a38d994ed1aa4deb4318c71dffd348fb99558101517f6d09c67303814678cfc65ff246f203a38d994ed1aa4deb4318c71dffd348fb9a805460609093015163ffffffff16620100000265ffffffffffff1990931661ffff929092169190911791909117905561030a565b5f80546001600160a01b038381166001600160a01b0319831681178455604051919092169283917f8be0079c531659141344cd1fd0a4f28419497f9722a3daafe3b4186f6b6457e09190a35050565b80515f90829015806102ad5750601f8151115b156102cb57604051638dc6ac0160e01b815260040160405180910390fd5b5f6102d5826102e4565b915160ff169091179392505050565b80516020808301519190811015610304575f198160200360031b1b821691505b50919050565b610493806103175f395ff3fe608060405234801561000f575f80fd5b5060043610610060575f3560e01c8063550325b514610064578063715018a6146100dc578063804ea334146100e65780638da5cb5b146101a2578063deaa66b0146101bc578063f2fde38b146101cf575b5f80fd5b6100a361007236600461037e565b600160208190525f918252604090912080549181015460029091015461ffff81169062010000900463ffffffff1684565b6040516100d39493929190938452602084019290925261ffff16604083015263ffffffff16606082015260800190565b60405180910390f35b6100e46101e2565b005b6101656100f436600461037e565b604080516080810182525f808252602082018190529181018290526060810191909152505f9081526001602081815260409283902083516080810185528154815292810154918301919091526002015461ffff8116928201929092526201000090910463ffffffff16606082015290565b6040516100d39190815181526020808301519082015260408083015161ffff169082015260609182015163ffffffff169181019190915260800190565b5f546040516001600160a01b0390911681526020016100d3565b6100e46101ca3660046103ad565b6101f5565b6100e46101dd366004610430565b6102c6565b6101ea610303565b6101f35f61032f565b565b6101fd610303565b80515f908152600160205260409020541561026b5760405162461bcd60e51b815260206004820152602360248201527f436861696e496e666f3a20436861696e20616c726561647920726567697374656044820152621c995960ea1b60648201526084015b60405180910390fd5b80515f90815260016020818152604092839020845181559084015191810191909155908201516002909101805460609093015163ffffffff16620100000265ffffffffffff1990931661ffff90921691909117919091179055565b6102ce610303565b6001600160a01b0381166102f757604051631e4fbdf760e01b81525f6004820152602401610262565b6103008161032f565b50565b5f546001600160a01b031633146101f35760405163118cdaa760e01b8152336004820152602401610262565b5f80546001600160a01b038381166001600160a01b0319831681178455604051919092169283917f8be0079c531659141344cd1fd0a4f28419497f9722a3daafe3b4186f6b6457e09190a35050565b5f6020828403121561038e575f80fd5b5035919050565b803563ffffffff811681146103a8575f80fd5b919050565b5f608082840312156103bd575f80fd5b6040516080810181811067ffffffffffffffff821117156103ec57634e487b7160e01b5f52604160045260245ffd5b80604052508235815260208301356020820152604083013561ffff81168114610413575f80fd5b604082015261042460608401610395565b60608201529392505050565b5f60208284031215610440575f80fd5b81356001600160a01b0381168114610456575f80fd5b939250505056fea26469706673582212201f3874236a85d27ea6d4a9265947b71171b0c2631c094f6075d567a39d339d6864736f6c63430008190033",
			"opcodes": "PUSH1 0x80 PUSH1 0x40 MSTORE CALLVALUE DUP1 ISZERO PUSH2 0xF JUMPI PUSH0 DUP1 REVERT JUMPDEST POP CALLER DUP1 PUSH2 0x35 JUMPI PUSH1 0x40 MLOAD PUSH4 0x1E4FBDF7 PUSH1 0xE0 SHL DUP2 MSTORE PUSH0 PUSH1 0x4 DUP3 ADD MSTORE PUSH1 0x24 ADD PUSH1 0x40 MLOAD DUP1 SWAP2 SUB SWAP1 REVERT JUMPDEST PUSH2 0x3E DUP2 PUSH2 0x24B JUMP JUMPDEST POP PUSH1 0x40 MLOAD DUP1 PUSH1 0x80 ADD PUSH1 0x40 MSTORE DUP1 PUSH3 0xAA36A7 DUP2 MSTORE PUSH1 0x20 ADD PUSH2 0x8A PUSH1 0x40 MLOAD DUP1 PUSH1 0x40 ADD PUSH1 0x40 MSTORE DUP1 PUSH1 0x10 DUP2 MSTORE PUSH1 0x20 ADD PUSH16 0x657468657265756D2D7365706F6C6961 PUSH1 0x80 SHL DUP2 MSTORE POP PUSH2 0x29A PUSH1 0x20 SHL PUSH1 0x20 SHR JUMP JUMPDEST DUP2 MSTORE PUSH2 0x27B1 PUSH1 0x20 DUP1 DUP4 ADD SWAP2 SWAP1 SWAP2 MSTORE PUSH2 0x9CE1 PUSH1 0x40 SWAP3 DUP4 ADD MSTORE PUSH3 0xAA36A7 PUSH0 MSTORE PUSH1 0x1 DUP2 MSTORE DUP3 MLOAD PUSH32 0xD0CA2B9E48613413BA8BD488B2BC9928EDC96F8F17EC2AF94A885DA5292AFEBB SSTORE DUP3 DUP2 ADD MLOAD PUSH32 0xD0CA2B9E48613413BA8BD488B2BC9928EDC96F8F17EC2AF94A885DA5292AFEBC SSTORE DUP3 DUP3 ADD MLOAD PUSH32 0xD0CA2B9E48613413BA8BD488B2BC9928EDC96F8F17EC2AF94A885DA5292AFEBD DUP1 SLOAD PUSH1 0x60 SWAP1 SWAP6 ADD MLOAD PUSH4 0xFFFFFFFF AND PUSH3 0x10000 MUL PUSH6 0xFFFFFFFFFFFF NOT SWAP1 SWAP6 AND PUSH2 0xFFFF SWAP3 SWAP1 SWAP3 AND SWAP2 SWAP1 SWAP2 OR SWAP4 SWAP1 SWAP4 OR SWAP1 SWAP3 SSTORE DUP1 MLOAD PUSH1 0x80 DUP2 ADD DUP3 MSTORE PUSH3 0xAA37DC DUP2 MSTORE DUP2 MLOAD DUP1 DUP4 ADD SWAP1 SWAP3 MSTORE PUSH1 0x10 DUP3 MSTORE PUSH16 0x6F7074696D69736D2D7365706F6C6961 PUSH1 0x80 SHL DUP3 DUP5 ADD MSTORE SWAP2 DUP3 ADD SWAP1 PUSH2 0x189 SWAP1 PUSH2 0x29A JUMP JUMPDEST DUP2 MSTORE PUSH2 0x27F8 PUSH1 0x20 DUP1 DUP4 ADD SWAP2 SWAP1 SWAP2 MSTORE PUSH2 0x9D28 PUSH1 0x40 SWAP3 DUP4 ADD MSTORE PUSH3 0xAA37DC PUSH0 MSTORE PUSH1 0x1 DUP2 MSTORE DUP3 MLOAD PUSH32 0x6D09C67303814678CFC65FF246F203A38D994ED1AA4DEB4318C71DFFD348FB98 SSTORE DUP3 ADD MLOAD PUSH32 0x6D09C67303814678CFC65FF246F203A38D994ED1AA4DEB4318C71DFFD348FB99 SSTORE DUP2 ADD MLOAD PUSH32 0x6D09C67303814678CFC65FF246F203A38D994ED1AA4DEB4318C71DFFD348FB9A DUP1 SLOAD PUSH1 0x60 SWAP1 SWAP4 ADD MLOAD PUSH4 0xFFFFFFFF AND PUSH3 0x10000 MUL PUSH6 0xFFFFFFFFFFFF NOT SWAP1 SWAP4 AND PUSH2 0xFFFF SWAP3 SWAP1 SWAP3 AND SWAP2 SWAP1 SWAP2 OR SWAP2 SWAP1 SWAP2 OR SWAP1 SSTORE PUSH2 0x30A JUMP JUMPDEST PUSH0 DUP1 SLOAD PUSH1 0x1 PUSH1 0x1 PUSH1 0xA0 SHL SUB DUP4 DUP2 AND PUSH1 0x1 PUSH1 0x1 PUSH1 0xA0 SHL SUB NOT DUP4 AND DUP2 OR DUP5 SSTORE PUSH1 0x40 MLOAD SWAP2 SWAP1 SWAP3 AND SWAP3 DUP4 SWAP2 PUSH32 0x8BE0079C531659141344CD1FD0A4F28419497F9722A3DAAFE3B4186F6B6457E0 SWAP2 SWAP1 LOG3 POP POP JUMP JUMPDEST DUP1 MLOAD PUSH0 SWAP1 DUP3 SWAP1 ISZERO DUP1 PUSH2 0x2AD JUMPI POP PUSH1 0x1F DUP2 MLOAD GT JUMPDEST ISZERO PUSH2 0x2CB JUMPI PUSH1 0x40 MLOAD PUSH4 0x8DC6AC01 PUSH1 0xE0 SHL DUP2 MSTORE PUSH1 0x4 ADD PUSH1 0x40 MLOAD DUP1 SWAP2 SUB SWAP1 REVERT JUMPDEST PUSH0 PUSH2 0x2D5 DUP3 PUSH2 0x2E4 JUMP JUMPDEST SWAP2 MLOAD PUSH1 0xFF AND SWAP1 SWAP2 OR SWAP4 SWAP3 POP POP POP JUMP JUMPDEST DUP1 MLOAD PUSH1 0x20 DUP1 DUP4 ADD MLOAD SWAP2 SWAP1 DUP2 LT ISZERO PUSH2 0x304 JUMPI PUSH0 NOT DUP2 PUSH1 0x20 SUB PUSH1 0x3 SHL SHL DUP3 AND SWAP2 POP JUMPDEST POP SWAP2 SWAP1 POP JUMP JUMPDEST PUSH2 0x493 DUP1 PUSH2 0x317 PUSH0 CODECOPY PUSH0 RETURN INVALID PUSH1 0x80 PUSH1 0x40 MSTORE CALLVALUE DUP1 ISZERO PUSH2 0xF JUMPI PUSH0 DUP1 REVERT JUMPDEST POP PUSH1 0x4 CALLDATASIZE LT PUSH2 0x60 JUMPI PUSH0 CALLDATALOAD PUSH1 0xE0 SHR DUP1 PUSH4 0x550325B5 EQ PUSH2 0x64 JUMPI DUP1 PUSH4 0x715018A6 EQ PUSH2 0xDC JUMPI DUP1 PUSH4 0x804EA334 EQ PUSH2 0xE6 JUMPI DUP1 PUSH4 0x8DA5CB5B EQ PUSH2 0x1A2 JUMPI DUP1 PUSH4 0xDEAA66B0 EQ PUSH2 0x1BC JUMPI DUP1 PUSH4 0xF2FDE38B EQ PUSH2 0x1CF JUMPI JUMPDEST PUSH0 DUP1 REVERT JUMPDEST PUSH2 0xA3 PUSH2 0x72 CALLDATASIZE PUSH1 0x4 PUSH2 0x37E JUMP JUMPDEST PUSH1 0x1 PUSH1 0x20 DUP2 SWAP1 MSTORE PUSH0 SWAP2 DUP3 MSTORE PUSH1 0x40 SWAP1 SWAP2 KECCAK256 DUP1 SLOAD SWAP2 DUP2 ADD SLOAD PUSH1 0x2 SWAP1 SWAP2 ADD SLOAD PUSH2 0xFFFF DUP2 AND SWAP1 PUSH3 0x10000 SWAP1 DIV PUSH4 0xFFFFFFFF AND DUP5 JUMP JUMPDEST PUSH1 0x40 MLOAD PUSH2 0xD3 SWAP5 SWAP4 SWAP3 SWAP2 SWAP1 SWAP4 DUP5 MSTORE PUSH1 0x20 DUP5 ADD SWAP3 SWAP1 SWAP3 MSTORE PUSH2 0xFFFF AND PUSH1 0x40 DUP4 ADD MSTORE PUSH4 0xFFFFFFFF AND PUSH1 0x60 DUP3 ADD MSTORE PUSH1 0x80 ADD SWAP1 JUMP JUMPDEST PUSH1 0x40 MLOAD DUP1 SWAP2 SUB SWAP1 RETURN JUMPDEST PUSH2 0xE4 PUSH2 0x1E2 JUMP JUMPDEST STOP JUMPDEST PUSH2 0x165 PUSH2 0xF4 CALLDATASIZE PUSH1 0x4 PUSH2 0x37E JUMP JUMPDEST PUSH1 0x40 DUP1 MLOAD PUSH1 0x80 DUP2 ADD DUP3 MSTORE PUSH0 DUP1 DUP3 MSTORE PUSH1 0x20 DUP3 ADD DUP2 SWAP1 MSTORE SWAP2 DUP2 ADD DUP3 SWAP1 MSTORE PUSH1 0x60 DUP2 ADD SWAP2 SWAP1 SWAP2 MSTORE POP PUSH0 SWAP1 DUP2 MSTORE PUSH1 0x1 PUSH1 0x20 DUP2 DUP2 MSTORE PUSH1 0x40 SWAP3 DUP4 SWAP1 KECCAK256 DUP4 MLOAD PUSH1 0x80 DUP2 ADD DUP6 MSTORE DUP2 SLOAD DUP2 MSTORE SWAP3 DUP2 ADD SLOAD SWAP2 DUP4 ADD SWAP2 SWAP1 SWAP2 MSTORE PUSH1 0x2 ADD SLOAD PUSH2 0xFFFF DUP2 AND SWAP3 DUP3 ADD SWAP3 SWAP1 SWAP3 MSTORE PUSH3 0x10000 SWAP1 SWAP2 DIV PUSH4 0xFFFFFFFF AND PUSH1 0x60 DUP3 ADD MSTORE SWAP1 JUMP JUMPDEST PUSH1 0x40 MLOAD PUSH2 0xD3 SWAP2 SWAP1 DUP2 MLOAD DUP2 MSTORE PUSH1 0x20 DUP1 DUP4 ADD MLOAD SWAP1 DUP3 ADD MSTORE PUSH1 0x40 DUP1 DUP4 ADD MLOAD PUSH2 0xFFFF AND SWAP1 DUP3 ADD MSTORE PUSH1 0x60 SWAP2 DUP3 ADD MLOAD PUSH4 0xFFFFFFFF AND SWAP2 DUP2 ADD SWAP2 SWAP1 SWAP2 MSTORE PUSH1 0x80 ADD SWAP1 JUMP JUMPDEST PUSH0 SLOAD PUSH1 0x40 MLOAD PUSH1 0x1 PUSH1 0x1 PUSH1 0xA0 SHL SUB SWAP1 SWAP2 AND DUP2 MSTORE PUSH1 0x20 ADD PUSH2 0xD3 JUMP JUMPDEST PUSH2 0xE4 PUSH2 0x1CA CALLDATASIZE PUSH1 0x4 PUSH2 0x3AD JUMP JUMPDEST PUSH2 0x1F5 JUMP JUMPDEST PUSH2 0xE4 PUSH2 0x1DD CALLDATASIZE PUSH1 0x4 PUSH2 0x430 JUMP JUMPDEST PUSH2 0x2C6 JUMP JUMPDEST PUSH2 0x1EA PUSH2 0x303 JUMP JUMPDEST PUSH2 0x1F3 PUSH0 PUSH2 0x32F JUMP JUMPDEST JUMP JUMPDEST PUSH2 0x1FD PUSH2 0x303 JUMP JUMPDEST DUP1 MLOAD PUSH0 SWAP1 DUP2 MSTORE PUSH1 0x1 PUSH1 0x20 MSTORE PUSH1 0x40 SWAP1 KECCAK256 SLOAD ISZERO PUSH2 0x26B JUMPI PUSH1 0x40 MLOAD PUSH3 0x461BCD PUSH1 0xE5 SHL DUP2 MSTORE PUSH1 0x20 PUSH1 0x4 DUP3 ADD MSTORE PUSH1 0x23 PUSH1 0x24 DUP3 ADD MSTORE PUSH32 0x436861696E496E666F3A20436861696E20616C72656164792072656769737465 PUSH1 0x44 DUP3 ADD MSTORE PUSH3 0x1C9959 PUSH1 0xEA SHL PUSH1 0x64 DUP3 ADD MSTORE PUSH1 0x84 ADD JUMPDEST PUSH1 0x40 MLOAD DUP1 SWAP2 SUB SWAP1 REVERT JUMPDEST DUP1 MLOAD PUSH0 SWAP1 DUP2 MSTORE PUSH1 0x1 PUSH1 0x20 DUP2 DUP2 MSTORE PUSH1 0x40 SWAP3 DUP4 SWAP1 KECCAK256 DUP5 MLOAD DUP2 SSTORE SWAP1 DUP5 ADD MLOAD SWAP2 DUP2 ADD SWAP2 SWAP1 SWAP2 SSTORE SWAP1 DUP3 ADD MLOAD PUSH1 0x2 SWAP1 SWAP2 ADD DUP1 SLOAD PUSH1 0x60 SWAP1 SWAP4 ADD MLOAD PUSH4 0xFFFFFFFF AND PUSH3 0x10000 MUL PUSH6 0xFFFFFFFFFFFF NOT SWAP1 SWAP4 AND PUSH2 0xFFFF SWAP1 SWAP3 AND SWAP2 SWAP1 SWAP2 OR SWAP2 SWAP1 SWAP2 OR SWAP1 SSTORE JUMP JUMPDEST PUSH2 0x2CE PUSH2 0x303 JUMP JUMPDEST PUSH1 0x1 PUSH1 0x1 PUSH1 0xA0 SHL SUB DUP2 AND PUSH2 0x2F7 JUMPI PUSH1 0x40 MLOAD PUSH4 0x1E4FBDF7 PUSH1 0xE0 SHL DUP2 MSTORE PUSH0 PUSH1 0x4 DUP3 ADD MSTORE PUSH1 0x24 ADD PUSH2 0x262 JUMP JUMPDEST PUSH2 0x300 DUP2 PUSH2 0x32F JUMP JUMPDEST POP JUMP JUMPDEST PUSH0 SLOAD PUSH1 0x1 PUSH1 0x1 PUSH1 0xA0 SHL SUB AND CALLER EQ PUSH2 0x1F3 JUMPI PUSH1 0x40 MLOAD PUSH4 0x118CDAA7 PUSH1 0xE0 SHL DUP2 MSTORE CALLER PUSH1 0x4 DUP3 ADD MSTORE PUSH1 0x24 ADD PUSH2 0x262 JUMP JUMPDEST PUSH0 DUP1 SLOAD PUSH1 0x1 PUSH1 0x1 PUSH1 0xA0 SHL SUB DUP4 DUP2 AND PUSH1 0x1 PUSH1 0x1 PUSH1 0xA0 SHL SUB NOT DUP4 AND DUP2 OR DUP5 SSTORE PUSH1 0x40 MLOAD SWAP2 SWAP1 SWAP3 AND SWAP3 DUP4 SWAP2 PUSH32 0x8BE0079C531659141344CD1FD0A4F28419497F9722A3DAAFE3B4186F6B6457E0 SWAP2 SWAP1 LOG3 POP POP JUMP JUMPDEST PUSH0 PUSH1 0x20 DUP3 DUP5 SUB SLT ISZERO PUSH2 0x38E JUMPI PUSH0 DUP1 REVERT JUMPDEST POP CALLDATALOAD SWAP2 SWAP1 POP JUMP JUMPDEST DUP1 CALLDATALOAD PUSH4 0xFFFFFFFF DUP2 AND DUP2 EQ PUSH2 0x3A8 JUMPI PUSH0 DUP1 REVERT JUMPDEST SWAP2 SWAP1 POP JUMP JUMPDEST PUSH0 PUSH1 0x80 DUP3 DUP5 SUB SLT ISZERO PUSH2 0x3BD JUMPI PUSH0 DUP1 REVERT JUMPDEST PUSH1 0x40 MLOAD PUSH1 0x80 DUP2 ADD DUP2 DUP2 LT PUSH8 0xFFFFFFFFFFFFFFFF DUP3 GT OR ISZERO PUSH2 0x3EC JUMPI PUSH4 0x4E487B71 PUSH1 0xE0 SHL PUSH0 MSTORE PUSH1 0x41 PUSH1 0x4 MSTORE PUSH1 0x24 PUSH0 REVERT JUMPDEST DUP1 PUSH1 0x40 MSTORE POP DUP3 CALLDATALOAD DUP2 MSTORE PUSH1 0x20 DUP4 ADD CALLDATALOAD PUSH1 0x20 DUP3 ADD MSTORE PUSH1 0x40 DUP4 ADD CALLDATALOAD PUSH2 0xFFFF DUP2 AND DUP2 EQ PUSH2 0x413 JUMPI PUSH0 DUP1 REVERT JUMPDEST PUSH1 0x40 DUP3 ADD MSTORE PUSH2 0x424 PUSH1 0x60 DUP5 ADD PUSH2 0x395 JUMP JUMPDEST PUSH1 0x60 DUP3 ADD MSTORE SWAP4 SWAP3 POP POP POP JUMP JUMPDEST PUSH0 PUSH1 0x20 DUP3 DUP5 SUB SLT ISZERO PUSH2 0x440 JUMPI PUSH0 DUP1 REVERT JUMPDEST DUP2 CALLDATALOAD PUSH1 0x1 PUSH1 0x1 PUSH1 0xA0 SHL SUB DUP2 AND DUP2 EQ PUSH2 0x456 JUMPI PUSH0 DUP1 REVERT JUMPDEST SWAP4 SWAP3 POP POP POP JUMP INVALID LOG2 PUSH5 0x6970667358 0x22 SLT KECCAK256 0x1F CODESIZE PUSH21 0x236A85D27EA6D4A9265947B71171B0C2631C094F60 PUSH22 0xD567A39D339D6864736F6C6343000819003300000000 "
		},
		"gasEstimates": {
			"creation": {
				"codeDepositCost": "234200",
				"executionCost": "infinite",
				"totalCost": "infinite"
			},
			"external": {
				"addChain((uint256,bytes32,uint16,uint32))": "73529",
				"chains(uint256)": "6759",
				"getChainInfo(uint256)": "7038",
				"owner()": "2343",
				"renounceOwnership()": "infinite",
				"transferOwnership(address)": "28382"
			}
		},
		"methodIdentifiers": {
			"addChain((uint256,bytes32,uint16,uint32))": "deaa66b0",
			"chains(uint256)": "550325b5",
			"getChainInfo(uint256)": "804ea334",
			"owner()": "8da5cb5b",
			"renounceOwnership()": "715018a6",
			"transferOwnership(address)": "f2fde38b"
		}
	},
	"abi": [
		{
			"inputs": [],
			"stateMutability": "nonpayable",
			"type": "constructor"
		},
		{
			"inputs": [],
			"name": "InvalidStringLength",
			"type": "error"
		},
		{
			"inputs": [
				{
					"internalType": "address",
					"name": "owner",
					"type": "address"
				}
			],
			"name": "OwnableInvalidOwner",
			"type": "error"
		},
		{
			"inputs": [
				{
					"internalType": "address",
					"name": "account",
					"type": "address"
				}
			],
			"name": "OwnableUnauthorizedAccount",
			"type": "error"
		},
		{
			"anonymous": false,
			"inputs": [
				{
					"indexed": true,
					"internalType": "address",
					"name": "previousOwner",
					"type": "address"
				},
				{
					"indexed": true,
					"internalType": "address",
					"name": "newOwner",
					"type": "address"
				}
			],
			"name": "OwnershipTransferred",
			"type": "event"
		},
		{
			"inputs": [
				{
					"components": [
						{
							"internalType": "uint256",
							"name": "chainId",
							"type": "uint256"
						},
						{
							"internalType": "bytes32",
							"name": "axelarChainId",
							"type": "bytes32"
						},
						{
							"internalType": "uint16",
							"name": "stargateChainId",
							"type": "uint16"
						},
						{
							"internalType": "uint32",
							"name": "lzEndpointId",
							"type": "uint32"
						}
					],
					"internalType": "struct Chain",
					"name": "_chain",
					"type": "tuple"
				}
			],
			"name": "addChain",
			"outputs": [],
			"stateMutability": "nonpayable",
			"type": "function"
		},
		{
			"inputs": [
				{
					"internalType": "uint256",
					"name": "",
					"type": "uint256"
				}
			],
			"name": "chains",
			"outputs": [
				{
					"internalType": "uint256",
					"name": "chainId",
					"type": "uint256"
				},
				{
					"internalType": "bytes32",
					"name": "axelarChainId",
					"type": "bytes32"
				},
				{
					"internalType": "uint16",
					"name": "stargateChainId",
					"type": "uint16"
				},
				{
					"internalType": "uint32",
					"name": "lzEndpointId",
					"type": "uint32"
				}
			],
			"stateMutability": "view",
			"type": "function"
		},
		{
			"inputs": [
				{
					"internalType": "uint256",
					"name": "_chainId",
					"type": "uint256"
				}
			],
			"name": "getChainInfo",
			"outputs": [
				{
					"components": [
						{
							"internalType": "uint256",
							"name": "chainId",
							"type": "uint256"
						},
						{
							"internalType": "bytes32",
							"name": "axelarChainId",
							"type": "bytes32"
						},
						{
							"internalType": "uint16",
							"name": "stargateChainId",
							"type": "uint16"
						},
						{
							"internalType": "uint32",
							"name": "lzEndpointId",
							"type": "uint32"
						}
					],
					"internalType": "struct Chain",
					"name": "",
					"type": "tuple"
				}
			],
			"stateMutability": "view",
			"type": "function"
		},
		{
			"inputs": [],
			"name": "owner",
			"outputs": [
				{
					"internalType": "address",
					"name": "",
					"type": "address"
				}
			],
			"stateMutability": "view",
			"type": "function"
		},
		{
			"inputs": [],
			"name": "renounceOwnership",
			"outputs": [],
			"stateMutability": "nonpayable",
			"type": "function"
		},
		{
			"inputs": [
				{
					"internalType": "address",
					"name": "newOwner",
					"type": "address"
				}
			],
			"name": "transferOwnership",
			"outputs": [],
			"stateMutability": "nonpayable",
			"type": "function"
		}
	]
}