{
	"data": {
		"bytecode": {
			"linkReferences": {},
			"object": "610c31610034600b8282823980515f1a607314602857634e487b7160e01b5f525f60045260245ffd5b305f52607381538281f3fe730000000000000000000000000000000000000000301460806040526004361061006b575f3560e01c80631aaaac121461006f57806383569e3314610095578063a4bc8812146100b5578063ab0a5e53146100c8578063f2d49b49146100db578063f504b9f7146100ee575b5f80fd5b61008261007d366004610585565b610101565b6040519081526020015b60405180910390f35b6100a86100a336600461070c565b61012a565b60405161008c91906107b2565b6100a86100c33660046107da565b6101a2565b6100826100d636600461080b565b6101dd565b6100a86100e936600461088e565b610286565b6100a86100fc366004610903565b610323565b5f80670de0b6b3a764000061011685856109ae565b61012091906109c5565b9150505b92915050565b60606040518060c001604052808760a001516001600160a01b031681526020015f8152602001866001600160a01b03168152602001858152602001846001600160a01b031681526020018381525060405160200161018891906109e4565b604051602081830303815290604052905095945050505050565b60606101d683836101cf60408051600360f01b602082015281516002818303018152602290910190915290565b91906103bd565b9392505050565b5f80856001600160a01b0316636ce4fe0388600189620864705f8b8b8b60405160200161020c93929190610a46565b6040516020818303038152906040526040518763ffffffff1660e01b815260040161023c96959493929190610a7b565b6040805180830381865afa158015610256573d5f803e3d5ffd5b505050506040513d601f19601f8201168201806040525081019061027a9190610ac6565b50979650505050505050565b60606040518060600160405280856001600160a01b031681526020018481526020016040518060a001604052804681526020018a8152602001896001600160a01b03168152602001888152602001858152506040516020016102e89190610ae8565b60408051601f198184030181529181529152516103089190602001610b32565b60405160208183030381529060405290509695505050505050565b6040808301518282015183516080808701516060878101516020808a0151895161ffff909916918901919091526001600160a01b039687169888019890985260018783018190529387019390935260a08601939093525f60c0860181905260e0860152831661010085015291909116610120830152610140820192909252610160015b604051602081830303815290604052905092915050565b60608360036103cc825f610427565b61ffff1614610404576103df815f610427565b604051633a51740d60e01b815261ffff90911660048201526024015b60405180910390fd5b5f61040f8585610483565b905061041d866001836104ea565b9695505050505050565b5f610433826002610b68565b8351101561047a5760405162461bcd60e51b8152602060048201526014602482015273746f55696e7431365f6f75744f66426f756e647360601b60448201526064016103fb565b50016002015190565b60606001600160801b038216156104cb57604080516001600160801b0319608086811b8216602084015285901b166030820152016040516020818303038152906040526101d6565b6040516001600160801b0319608085901b1660208201526030016103a6565b60608360036104f9825f610427565b61ffff161461050c576103df815f610427565b8460016105198551610553565b610524906001610b7b565b868660405160200161053a959493929190610bb4565b6040516020818303038152906040529150509392505050565b5f61ffff821115610581576040516306dfcc6560e41b815260106004820152602481018390526044016103fb565b5090565b5f8060408385031215610596575f80fd5b50508035926020909101359150565b634e487b7160e01b5f52604160045260245ffd5b803561ffff811681146105ca575f80fd5b919050565b80356001600160a01b03811681146105ca575f80fd5b5f60c082840312156105f5575f80fd5b60405160c0810181811067ffffffffffffffff82111715610618576106186105a5565b8060405250809150823581526020830135602082015261063a604084016105b9565b6040820152606083013563ffffffff81168114610655575f80fd5b6060820152610666608084016105cf565b608082015261067760a084016105cf565b60a08201525092915050565b5f82601f830112610692575f80fd5b813567ffffffffffffffff808211156106ad576106ad6105a5565b604051601f8301601f19908116603f011681019082821181831017156106d5576106d56105a5565b816040528381528660208588010111156106ed575f80fd5b836020870160208301375f602085830101528094505050505092915050565b5f805f805f6101408688031215610721575f80fd5b61072b87876105e5565b945061073960c087016105cf565b935060e0860135925061074f61010087016105cf565b915061012086013567ffffffffffffffff81111561076b575f80fd5b61077788828901610683565b9150509295509295909350565b5f81518084528060208401602086015e5f602082860101526020601f19601f83011685010191505092915050565b602081525f6101d66020830184610784565b80356001600160801b03811681146105ca575f80fd5b5f80604083850312156107eb575f80fd5b6107f4836107c4565b9150610802602084016107c4565b90509250929050565b5f805f805f60a0868803121561081f575f80fd5b610828866105b9565b9450610836602087016105cf565b9350610844604087016105cf565b9250606086013567ffffffffffffffff80821115610860575f80fd5b61086c89838a01610683565b93506080880135915080821115610881575f80fd5b5061077788828901610683565b5f805f805f8060c087890312156108a3575f80fd5b863595506108b3602088016105cf565b9450604087013593506108c8606088016105cf565b92506080870135915060a087013567ffffffffffffffff8111156108ea575f80fd5b6108f689828a01610683565b9150509295509295509295565b5f80828403610140811215610916575f80fd5b61092085856105e5565b9250608060bf1982011215610933575f80fd5b506040516080810181811067ffffffffffffffff82111715610957576109576105a5565b60405260c0840135815260e0840135602082015261097861010085016105cf565b604082015261098a61012085016105cf565b6060820152809150509250929050565b634e487b7160e01b5f52601160045260245ffd5b80820281158282048414176101245761012461099a565b5f826109df57634e487b7160e01b5f52601260045260245ffd5b500490565b602081525f60018060a01b0380845116602084015260208401516040840152806040850151166060840152606084015160808401528060808501511660a08401525060a083015160c080840152610a3e60e0840182610784565b949350505050565b6001600160a01b03841681526060602082018190525f90610a6990830185610784565b828103604084015261041d8185610784565b61ffff8716815260ff8616602082015260018060a01b038516604082015283606082015282608082015260c060a08201525f610aba60c0830184610784565b98975050505050505050565b5f8060408385031215610ad7575f80fd5b505080516020909101519092909150565b60208152815160208201526020820151604082015260018060a01b036040830151166060820152606082015160808201525f608083015160a080840152610a3e60c0840182610784565b6020815260018060a01b038251166020820152602082015160408201525f6040830151606080840152610a3e6080840182610784565b808201808211156101245761012461099a565b61ffff818116838216019080821115610b9657610b9661099a565b5092915050565b5f81518060208401855e5f93019283525090919050565b5f610bbf8288610b9d565b6001600160f81b031960f888811b821683526001600160f01b031960f089901b16600184015286901b166003820152610aba6004820185610b9d56fea26469706673582212200b664d954f800303e3ab60adedbf3439f1c60d66d6b9b9babdfbf59d6c64ac9d64736f6c63430008190033",
			"opcodes": "PUSH2 0xC31 PUSH2 0x34 PUSH1 0xB DUP3 DUP3 DUP3 CODECOPY DUP1 MLOAD PUSH0 BYTE PUSH1 0x73 EQ PUSH1 0x28 JUMPI PUSH4 0x4E487B71 PUSH1 0xE0 SHL PUSH0 MSTORE PUSH0 PUSH1 0x4 MSTORE PUSH1 0x24 PUSH0 REVERT JUMPDEST ADDRESS PUSH0 MSTORE PUSH1 0x73 DUP2 MSTORE8 DUP3 DUP2 RETURN INVALID PUSH20 0x0 ADDRESS EQ PUSH1 0x80 PUSH1 0x40 MSTORE PUSH1 0x4 CALLDATASIZE LT PUSH2 0x6B JUMPI PUSH0 CALLDATALOAD PUSH1 0xE0 SHR DUP1 PUSH4 0x1AAAAC12 EQ PUSH2 0x6F JUMPI DUP1 PUSH4 0x83569E33 EQ PUSH2 0x95 JUMPI DUP1 PUSH4 0xA4BC8812 EQ PUSH2 0xB5 JUMPI DUP1 PUSH4 0xAB0A5E53 EQ PUSH2 0xC8 JUMPI DUP1 PUSH4 0xF2D49B49 EQ PUSH2 0xDB JUMPI DUP1 PUSH4 0xF504B9F7 EQ PUSH2 0xEE JUMPI JUMPDEST PUSH0 DUP1 REVERT JUMPDEST PUSH2 0x82 PUSH2 0x7D CALLDATASIZE PUSH1 0x4 PUSH2 0x585 JUMP JUMPDEST PUSH2 0x101 JUMP JUMPDEST PUSH1 0x40 MLOAD SWAP1 DUP2 MSTORE PUSH1 0x20 ADD JUMPDEST PUSH1 0x40 MLOAD DUP1 SWAP2 SUB SWAP1 RETURN JUMPDEST PUSH2 0xA8 PUSH2 0xA3 CALLDATASIZE PUSH1 0x4 PUSH2 0x70C JUMP JUMPDEST PUSH2 0x12A JUMP JUMPDEST PUSH1 0x40 MLOAD PUSH2 0x8C SWAP2 SWAP1 PUSH2 0x7B2 JUMP JUMPDEST PUSH2 0xA8 PUSH2 0xC3 CALLDATASIZE PUSH1 0x4 PUSH2 0x7DA JUMP JUMPDEST PUSH2 0x1A2 JUMP JUMPDEST PUSH2 0x82 PUSH2 0xD6 CALLDATASIZE PUSH1 0x4 PUSH2 0x80B JUMP JUMPDEST PUSH2 0x1DD JUMP JUMPDEST PUSH2 0xA8 PUSH2 0xE9 CALLDATASIZE PUSH1 0x4 PUSH2 0x88E JUMP JUMPDEST PUSH2 0x286 JUMP JUMPDEST PUSH2 0xA8 PUSH2 0xFC CALLDATASIZE PUSH1 0x4 PUSH2 0x903 JUMP JUMPDEST PUSH2 0x323 JUMP JUMPDEST PUSH0 DUP1 PUSH8 0xDE0B6B3A7640000 PUSH2 0x116 DUP6 DUP6 PUSH2 0x9AE JUMP JUMPDEST PUSH2 0x120 SWAP2 SWAP1 PUSH2 0x9C5 JUMP JUMPDEST SWAP2 POP POP JUMPDEST SWAP3 SWAP2 POP POP JUMP JUMPDEST PUSH1 0x60 PUSH1 0x40 MLOAD DUP1 PUSH1 0xC0 ADD PUSH1 0x40 MSTORE DUP1 DUP8 PUSH1 0xA0 ADD MLOAD PUSH1 0x1 PUSH1 0x1 PUSH1 0xA0 SHL SUB AND DUP2 MSTORE PUSH1 0x20 ADD PUSH0 DUP2 MSTORE PUSH1 0x20 ADD DUP7 PUSH1 0x1 PUSH1 0x1 PUSH1 0xA0 SHL SUB AND DUP2 MSTORE PUSH1 0x20 ADD DUP6 DUP2 MSTORE PUSH1 0x20 ADD DUP5 PUSH1 0x1 PUSH1 0x1 PUSH1 0xA0 SHL SUB AND DUP2 MSTORE PUSH1 0x20 ADD DUP4 DUP2 MSTORE POP PUSH1 0x40 MLOAD PUSH1 0x20 ADD PUSH2 0x188 SWAP2 SWAP1 PUSH2 0x9E4 JUMP JUMPDEST PUSH1 0x40 MLOAD PUSH1 0x20 DUP2 DUP4 SUB SUB DUP2 MSTORE SWAP1 PUSH1 0x40 MSTORE SWAP1 POP SWAP6 SWAP5 POP POP POP POP POP JUMP JUMPDEST PUSH1 0x60 PUSH2 0x1D6 DUP4 DUP4 PUSH2 0x1CF PUSH1 0x40 DUP1 MLOAD PUSH1 0x3 PUSH1 0xF0 SHL PUSH1 0x20 DUP3 ADD MSTORE DUP2 MLOAD PUSH1 0x2 DUP2 DUP4 SUB ADD DUP2 MSTORE PUSH1 0x22 SWAP1 SWAP2 ADD SWAP1 SWAP2 MSTORE SWAP1 JUMP JUMPDEST SWAP2 SWAP1 PUSH2 0x3BD JUMP JUMPDEST SWAP4 SWAP3 POP POP POP JUMP JUMPDEST PUSH0 DUP1 DUP6 PUSH1 0x1 PUSH1 0x1 PUSH1 0xA0 SHL SUB AND PUSH4 0x6CE4FE03 DUP9 PUSH1 0x1 DUP10 PUSH3 0x86470 PUSH0 DUP12 DUP12 DUP12 PUSH1 0x40 MLOAD PUSH1 0x20 ADD PUSH2 0x20C SWAP4 SWAP3 SWAP2 SWAP1 PUSH2 0xA46 JUMP JUMPDEST PUSH1 0x40 MLOAD PUSH1 0x20 DUP2 DUP4 SUB SUB DUP2 MSTORE SWAP1 PUSH1 0x40 MSTORE PUSH1 0x40 MLOAD DUP8 PUSH4 0xFFFFFFFF AND PUSH1 0xE0 SHL DUP2 MSTORE PUSH1 0x4 ADD PUSH2 0x23C SWAP7 SWAP6 SWAP5 SWAP4 SWAP3 SWAP2 SWAP1 PUSH2 0xA7B JUMP JUMPDEST PUSH1 0x40 DUP1 MLOAD DUP1 DUP4 SUB DUP2 DUP7 GAS STATICCALL ISZERO DUP1 ISZERO PUSH2 0x256 JUMPI RETURNDATASIZE PUSH0 DUP1 RETURNDATACOPY RETURNDATASIZE PUSH0 REVERT JUMPDEST POP POP POP POP PUSH1 0x40 MLOAD RETURNDATASIZE PUSH1 0x1F NOT PUSH1 0x1F DUP3 ADD AND DUP3 ADD DUP1 PUSH1 0x40 MSTORE POP DUP2 ADD SWAP1 PUSH2 0x27A SWAP2 SWAP1 PUSH2 0xAC6 JUMP JUMPDEST POP SWAP8 SWAP7 POP POP POP POP POP POP POP JUMP JUMPDEST PUSH1 0x60 PUSH1 0x40 MLOAD DUP1 PUSH1 0x60 ADD PUSH1 0x40 MSTORE DUP1 DUP6 PUSH1 0x1 PUSH1 0x1 PUSH1 0xA0 SHL SUB AND DUP2 MSTORE PUSH1 0x20 ADD DUP5 DUP2 MSTORE PUSH1 0x20 ADD PUSH1 0x40 MLOAD DUP1 PUSH1 0xA0 ADD PUSH1 0x40 MSTORE DUP1 CHAINID DUP2 MSTORE PUSH1 0x20 ADD DUP11 DUP2 MSTORE PUSH1 0x20 ADD DUP10 PUSH1 0x1 PUSH1 0x1 PUSH1 0xA0 SHL SUB AND DUP2 MSTORE PUSH1 0x20 ADD DUP9 DUP2 MSTORE PUSH1 0x20 ADD DUP6 DUP2 MSTORE POP PUSH1 0x40 MLOAD PUSH1 0x20 ADD PUSH2 0x2E8 SWAP2 SWAP1 PUSH2 0xAE8 JUMP JUMPDEST PUSH1 0x40 DUP1 MLOAD PUSH1 0x1F NOT DUP2 DUP5 SUB ADD DUP2 MSTORE SWAP2 DUP2 MSTORE SWAP2 MSTORE MLOAD PUSH2 0x308 SWAP2 SWAP1 PUSH1 0x20 ADD PUSH2 0xB32 JUMP JUMPDEST PUSH1 0x40 MLOAD PUSH1 0x20 DUP2 DUP4 SUB SUB DUP2 MSTORE SWAP1 PUSH1 0x40 MSTORE SWAP1 POP SWAP7 SWAP6 POP POP POP POP POP POP JUMP JUMPDEST PUSH1 0x40 DUP1 DUP4 ADD MLOAD DUP3 DUP3 ADD MLOAD DUP4 MLOAD PUSH1 0x80 DUP1 DUP8 ADD MLOAD PUSH1 0x60 DUP8 DUP2 ADD MLOAD PUSH1 0x20 DUP1 DUP11 ADD MLOAD DUP10 MLOAD PUSH2 0xFFFF SWAP1 SWAP10 AND SWAP2 DUP10 ADD SWAP2 SWAP1 SWAP2 MSTORE PUSH1 0x1 PUSH1 0x1 PUSH1 0xA0 SHL SUB SWAP7 DUP8 AND SWAP9 DUP9 ADD SWAP9 SWAP1 SWAP9 MSTORE PUSH1 0x1 DUP8 DUP4 ADD DUP2 SWAP1 MSTORE SWAP4 DUP8 ADD SWAP4 SWAP1 SWAP4 MSTORE PUSH1 0xA0 DUP7 ADD SWAP4 SWAP1 SWAP4 MSTORE PUSH0 PUSH1 0xC0 DUP7 ADD DUP2 SWAP1 MSTORE PUSH1 0xE0 DUP7 ADD MSTORE DUP4 AND PUSH2 0x100 DUP6 ADD MSTORE SWAP2 SWAP1 SWAP2 AND PUSH2 0x120 DUP4 ADD MSTORE PUSH2 0x140 DUP3 ADD SWAP3 SWAP1 SWAP3 MSTORE PUSH2 0x160 ADD JUMPDEST PUSH1 0x40 MLOAD PUSH1 0x20 DUP2 DUP4 SUB SUB DUP2 MSTORE SWAP1 PUSH1 0x40 MSTORE SWAP1 POP SWAP3 SWAP2 POP POP JUMP JUMPDEST PUSH1 0x60 DUP4 PUSH1 0x3 PUSH2 0x3CC DUP3 PUSH0 PUSH2 0x427 JUMP JUMPDEST PUSH2 0xFFFF AND EQ PUSH2 0x404 JUMPI PUSH2 0x3DF DUP2 PUSH0 PUSH2 0x427 JUMP JUMPDEST PUSH1 0x40 MLOAD PUSH4 0x3A51740D PUSH1 0xE0 SHL DUP2 MSTORE PUSH2 0xFFFF SWAP1 SWAP2 AND PUSH1 0x4 DUP3 ADD MSTORE PUSH1 0x24 ADD JUMPDEST PUSH1 0x40 MLOAD DUP1 SWAP2 SUB SWAP1 REVERT JUMPDEST PUSH0 PUSH2 0x40F DUP6 DUP6 PUSH2 0x483 JUMP JUMPDEST SWAP1 POP PUSH2 0x41D DUP7 PUSH1 0x1 DUP4 PUSH2 0x4EA JUMP JUMPDEST SWAP7 SWAP6 POP POP POP POP POP POP JUMP JUMPDEST PUSH0 PUSH2 0x433 DUP3 PUSH1 0x2 PUSH2 0xB68 JUMP JUMPDEST DUP4 MLOAD LT ISZERO PUSH2 0x47A JUMPI PUSH1 0x40 MLOAD PUSH3 0x461BCD PUSH1 0xE5 SHL DUP2 MSTORE PUSH1 0x20 PUSH1 0x4 DUP3 ADD MSTORE PUSH1 0x14 PUSH1 0x24 DUP3 ADD MSTORE PUSH20 0x746F55696E7431365F6F75744F66426F756E6473 PUSH1 0x60 SHL PUSH1 0x44 DUP3 ADD MSTORE PUSH1 0x64 ADD PUSH2 0x3FB JUMP JUMPDEST POP ADD PUSH1 0x2 ADD MLOAD SWAP1 JUMP JUMPDEST PUSH1 0x60 PUSH1 0x1 PUSH1 0x1 PUSH1 0x80 SHL SUB DUP3 AND ISZERO PUSH2 0x4CB JUMPI PUSH1 0x40 DUP1 MLOAD PUSH1 0x1 PUSH1 0x1 PUSH1 0x80 SHL SUB NOT PUSH1 0x80 DUP7 DUP2 SHL DUP3 AND PUSH1 0x20 DUP5 ADD MSTORE DUP6 SWAP1 SHL AND PUSH1 0x30 DUP3 ADD MSTORE ADD PUSH1 0x40 MLOAD PUSH1 0x20 DUP2 DUP4 SUB SUB DUP2 MSTORE SWAP1 PUSH1 0x40 MSTORE PUSH2 0x1D6 JUMP JUMPDEST PUSH1 0x40 MLOAD PUSH1 0x1 PUSH1 0x1 PUSH1 0x80 SHL SUB NOT PUSH1 0x80 DUP6 SWAP1 SHL AND PUSH1 0x20 DUP3 ADD MSTORE PUSH1 0x30 ADD PUSH2 0x3A6 JUMP JUMPDEST PUSH1 0x60 DUP4 PUSH1 0x3 PUSH2 0x4F9 DUP3 PUSH0 PUSH2 0x427 JUMP JUMPDEST PUSH2 0xFFFF AND EQ PUSH2 0x50C JUMPI PUSH2 0x3DF DUP2 PUSH0 PUSH2 0x427 JUMP JUMPDEST DUP5 PUSH1 0x1 PUSH2 0x519 DUP6 MLOAD PUSH2 0x553 JUMP JUMPDEST PUSH2 0x524 SWAP1 PUSH1 0x1 PUSH2 0xB7B JUMP JUMPDEST DUP7 DUP7 PUSH1 0x40 MLOAD PUSH1 0x20 ADD PUSH2 0x53A SWAP6 SWAP5 SWAP4 SWAP3 SWAP2 SWAP1 PUSH2 0xBB4 JUMP JUMPDEST PUSH1 0x40 MLOAD PUSH1 0x20 DUP2 DUP4 SUB SUB DUP2 MSTORE SWAP1 PUSH1 0x40 MSTORE SWAP2 POP POP SWAP4 SWAP3 POP POP POP JUMP JUMPDEST PUSH0 PUSH2 0xFFFF DUP3 GT ISZERO PUSH2 0x581 JUMPI PUSH1 0x40 MLOAD PUSH4 0x6DFCC65 PUSH1 0xE4 SHL DUP2 MSTORE PUSH1 0x10 PUSH1 0x4 DUP3 ADD MSTORE PUSH1 0x24 DUP2 ADD DUP4 SWAP1 MSTORE PUSH1 0x44 ADD PUSH2 0x3FB JUMP JUMPDEST POP SWAP1 JUMP JUMPDEST PUSH0 DUP1 PUSH1 0x40 DUP4 DUP6 SUB SLT ISZERO PUSH2 0x596 JUMPI PUSH0 DUP1 REVERT JUMPDEST POP POP DUP1 CALLDATALOAD SWAP3 PUSH1 0x20 SWAP1 SWAP2 ADD CALLDATALOAD SWAP2 POP JUMP JUMPDEST PUSH4 0x4E487B71 PUSH1 0xE0 SHL PUSH0 MSTORE PUSH1 0x41 PUSH1 0x4 MSTORE PUSH1 0x24 PUSH0 REVERT JUMPDEST DUP1 CALLDATALOAD PUSH2 0xFFFF DUP2 AND DUP2 EQ PUSH2 0x5CA JUMPI PUSH0 DUP1 REVERT JUMPDEST SWAP2 SWAP1 POP JUMP JUMPDEST DUP1 CALLDATALOAD PUSH1 0x1 PUSH1 0x1 PUSH1 0xA0 SHL SUB DUP2 AND DUP2 EQ PUSH2 0x5CA JUMPI PUSH0 DUP1 REVERT JUMPDEST PUSH0 PUSH1 0xC0 DUP3 DUP5 SUB SLT ISZERO PUSH2 0x5F5 JUMPI PUSH0 DUP1 REVERT JUMPDEST PUSH1 0x40 MLOAD PUSH1 0xC0 DUP2 ADD DUP2 DUP2 LT PUSH8 0xFFFFFFFFFFFFFFFF DUP3 GT OR ISZERO PUSH2 0x618 JUMPI PUSH2 0x618 PUSH2 0x5A5 JUMP JUMPDEST DUP1 PUSH1 0x40 MSTORE POP DUP1 SWAP2 POP DUP3 CALLDATALOAD DUP2 MSTORE PUSH1 0x20 DUP4 ADD CALLDATALOAD PUSH1 0x20 DUP3 ADD MSTORE PUSH2 0x63A PUSH1 0x40 DUP5 ADD PUSH2 0x5B9 JUMP JUMPDEST PUSH1 0x40 DUP3 ADD MSTORE PUSH1 0x60 DUP4 ADD CALLDATALOAD PUSH4 0xFFFFFFFF DUP2 AND DUP2 EQ PUSH2 0x655 JUMPI PUSH0 DUP1 REVERT JUMPDEST PUSH1 0x60 DUP3 ADD MSTORE PUSH2 0x666 PUSH1 0x80 DUP5 ADD PUSH2 0x5CF JUMP JUMPDEST PUSH1 0x80 DUP3 ADD MSTORE PUSH2 0x677 PUSH1 0xA0 DUP5 ADD PUSH2 0x5CF JUMP JUMPDEST PUSH1 0xA0 DUP3 ADD MSTORE POP SWAP3 SWAP2 POP POP JUMP JUMPDEST PUSH0 DUP3 PUSH1 0x1F DUP4 ADD SLT PUSH2 0x692 JUMPI PUSH0 DUP1 REVERT JUMPDEST DUP2 CALLDATALOAD PUSH8 0xFFFFFFFFFFFFFFFF DUP1 DUP3 GT ISZERO PUSH2 0x6AD JUMPI PUSH2 0x6AD PUSH2 0x5A5 JUMP JUMPDEST PUSH1 0x40 MLOAD PUSH1 0x1F DUP4 ADD PUSH1 0x1F NOT SWAP1 DUP2 AND PUSH1 0x3F ADD AND DUP2 ADD SWAP1 DUP3 DUP3 GT DUP2 DUP4 LT OR ISZERO PUSH2 0x6D5 JUMPI PUSH2 0x6D5 PUSH2 0x5A5 JUMP JUMPDEST DUP2 PUSH1 0x40 MSTORE DUP4 DUP2 MSTORE DUP7 PUSH1 0x20 DUP6 DUP9 ADD ADD GT ISZERO PUSH2 0x6ED JUMPI PUSH0 DUP1 REVERT JUMPDEST DUP4 PUSH1 0x20 DUP8 ADD PUSH1 0x20 DUP4 ADD CALLDATACOPY PUSH0 PUSH1 0x20 DUP6 DUP4 ADD ADD MSTORE DUP1 SWAP5 POP POP POP POP POP SWAP3 SWAP2 POP POP JUMP JUMPDEST PUSH0 DUP1 PUSH0 DUP1 PUSH0 PUSH2 0x140 DUP7 DUP9 SUB SLT ISZERO PUSH2 0x721 JUMPI PUSH0 DUP1 REVERT JUMPDEST PUSH2 0x72B DUP8 DUP8 PUSH2 0x5E5 JUMP JUMPDEST SWAP5 POP PUSH2 0x739 PUSH1 0xC0 DUP8 ADD PUSH2 0x5CF JUMP JUMPDEST SWAP4 POP PUSH1 0xE0 DUP7 ADD CALLDATALOAD SWAP3 POP PUSH2 0x74F PUSH2 0x100 DUP8 ADD PUSH2 0x5CF JUMP JUMPDEST SWAP2 POP PUSH2 0x120 DUP7 ADD CALLDATALOAD PUSH8 0xFFFFFFFFFFFFFFFF DUP2 GT ISZERO PUSH2 0x76B JUMPI PUSH0 DUP1 REVERT JUMPDEST PUSH2 0x777 DUP9 DUP3 DUP10 ADD PUSH2 0x683 JUMP JUMPDEST SWAP2 POP POP SWAP3 SWAP6 POP SWAP3 SWAP6 SWAP1 SWAP4 POP JUMP JUMPDEST PUSH0 DUP2 MLOAD DUP1 DUP5 MSTORE DUP1 PUSH1 0x20 DUP5 ADD PUSH1 0x20 DUP7 ADD MCOPY PUSH0 PUSH1 0x20 DUP3 DUP7 ADD ADD MSTORE PUSH1 0x20 PUSH1 0x1F NOT PUSH1 0x1F DUP4 ADD AND DUP6 ADD ADD SWAP2 POP POP SWAP3 SWAP2 POP POP JUMP JUMPDEST PUSH1 0x20 DUP2 MSTORE PUSH0 PUSH2 0x1D6 PUSH1 0x20 DUP4 ADD DUP5 PUSH2 0x784 JUMP JUMPDEST DUP1 CALLDATALOAD PUSH1 0x1 PUSH1 0x1 PUSH1 0x80 SHL SUB DUP2 AND DUP2 EQ PUSH2 0x5CA JUMPI PUSH0 DUP1 REVERT JUMPDEST PUSH0 DUP1 PUSH1 0x40 DUP4 DUP6 SUB SLT ISZERO PUSH2 0x7EB JUMPI PUSH0 DUP1 REVERT JUMPDEST PUSH2 0x7F4 DUP4 PUSH2 0x7C4 JUMP JUMPDEST SWAP2 POP PUSH2 0x802 PUSH1 0x20 DUP5 ADD PUSH2 0x7C4 JUMP JUMPDEST SWAP1 POP SWAP3 POP SWAP3 SWAP1 POP JUMP JUMPDEST PUSH0 DUP1 PUSH0 DUP1 PUSH0 PUSH1 0xA0 DUP7 DUP9 SUB SLT ISZERO PUSH2 0x81F JUMPI PUSH0 DUP1 REVERT JUMPDEST PUSH2 0x828 DUP7 PUSH2 0x5B9 JUMP JUMPDEST SWAP5 POP PUSH2 0x836 PUSH1 0x20 DUP8 ADD PUSH2 0x5CF JUMP JUMPDEST SWAP4 POP PUSH2 0x844 PUSH1 0x40 DUP8 ADD PUSH2 0x5CF JUMP JUMPDEST SWAP3 POP PUSH1 0x60 DUP7 ADD CALLDATALOAD PUSH8 0xFFFFFFFFFFFFFFFF DUP1 DUP3 GT ISZERO PUSH2 0x860 JUMPI PUSH0 DUP1 REVERT JUMPDEST PUSH2 0x86C DUP10 DUP4 DUP11 ADD PUSH2 0x683 JUMP JUMPDEST SWAP4 POP PUSH1 0x80 DUP9 ADD CALLDATALOAD SWAP2 POP DUP1 DUP3 GT ISZERO PUSH2 0x881 JUMPI PUSH0 DUP1 REVERT JUMPDEST POP PUSH2 0x777 DUP9 DUP3 DUP10 ADD PUSH2 0x683 JUMP JUMPDEST PUSH0 DUP1 PUSH0 DUP1 PUSH0 DUP1 PUSH1 0xC0 DUP8 DUP10 SUB SLT ISZERO PUSH2 0x8A3 JUMPI PUSH0 DUP1 REVERT JUMPDEST DUP7 CALLDATALOAD SWAP6 POP PUSH2 0x8B3 PUSH1 0x20 DUP9 ADD PUSH2 0x5CF JUMP JUMPDEST SWAP5 POP PUSH1 0x40 DUP8 ADD CALLDATALOAD SWAP4 POP PUSH2 0x8C8 PUSH1 0x60 DUP9 ADD PUSH2 0x5CF JUMP JUMPDEST SWAP3 POP PUSH1 0x80 DUP8 ADD CALLDATALOAD SWAP2 POP PUSH1 0xA0 DUP8 ADD CALLDATALOAD PUSH8 0xFFFFFFFFFFFFFFFF DUP2 GT ISZERO PUSH2 0x8EA JUMPI PUSH0 DUP1 REVERT JUMPDEST PUSH2 0x8F6 DUP10 DUP3 DUP11 ADD PUSH2 0x683 JUMP JUMPDEST SWAP2 POP POP SWAP3 SWAP6 POP SWAP3 SWAP6 POP SWAP3 SWAP6 JUMP JUMPDEST PUSH0 DUP1 DUP3 DUP5 SUB PUSH2 0x140 DUP2 SLT ISZERO PUSH2 0x916 JUMPI PUSH0 DUP1 REVERT JUMPDEST PUSH2 0x920 DUP6 DUP6 PUSH2 0x5E5 JUMP JUMPDEST SWAP3 POP PUSH1 0x80 PUSH1 0xBF NOT DUP3 ADD SLT ISZERO PUSH2 0x933 JUMPI PUSH0 DUP1 REVERT JUMPDEST POP PUSH1 0x40 MLOAD PUSH1 0x80 DUP2 ADD DUP2 DUP2 LT PUSH8 0xFFFFFFFFFFFFFFFF DUP3 GT OR ISZERO PUSH2 0x957 JUMPI PUSH2 0x957 PUSH2 0x5A5 JUMP JUMPDEST PUSH1 0x40 MSTORE PUSH1 0xC0 DUP5 ADD CALLDATALOAD DUP2 MSTORE PUSH1 0xE0 DUP5 ADD CALLDATALOAD PUSH1 0x20 DUP3 ADD MSTORE PUSH2 0x978 PUSH2 0x100 DUP6 ADD PUSH2 0x5CF JUMP JUMPDEST PUSH1 0x40 DUP3 ADD MSTORE PUSH2 0x98A PUSH2 0x120 DUP6 ADD PUSH2 0x5CF JUMP JUMPDEST PUSH1 0x60 DUP3 ADD MSTORE DUP1 SWAP2 POP POP SWAP3 POP SWAP3 SWAP1 POP JUMP JUMPDEST PUSH4 0x4E487B71 PUSH1 0xE0 SHL PUSH0 MSTORE PUSH1 0x11 PUSH1 0x4 MSTORE PUSH1 0x24 PUSH0 REVERT JUMPDEST DUP1 DUP3 MUL DUP2 ISZERO DUP3 DUP3 DIV DUP5 EQ OR PUSH2 0x124 JUMPI PUSH2 0x124 PUSH2 0x99A JUMP JUMPDEST PUSH0 DUP3 PUSH2 0x9DF JUMPI PUSH4 0x4E487B71 PUSH1 0xE0 SHL PUSH0 MSTORE PUSH1 0x12 PUSH1 0x4 MSTORE PUSH1 0x24 PUSH0 REVERT JUMPDEST POP DIV SWAP1 JUMP JUMPDEST PUSH1 0x20 DUP2 MSTORE PUSH0 PUSH1 0x1 DUP1 PUSH1 0xA0 SHL SUB DUP1 DUP5 MLOAD AND PUSH1 0x20 DUP5 ADD MSTORE PUSH1 0x20 DUP5 ADD MLOAD PUSH1 0x40 DUP5 ADD MSTORE DUP1 PUSH1 0x40 DUP6 ADD MLOAD AND PUSH1 0x60 DUP5 ADD MSTORE PUSH1 0x60 DUP5 ADD MLOAD PUSH1 0x80 DUP5 ADD MSTORE DUP1 PUSH1 0x80 DUP6 ADD MLOAD AND PUSH1 0xA0 DUP5 ADD MSTORE POP PUSH1 0xA0 DUP4 ADD MLOAD PUSH1 0xC0 DUP1 DUP5 ADD MSTORE PUSH2 0xA3E PUSH1 0xE0 DUP5 ADD DUP3 PUSH2 0x784 JUMP JUMPDEST SWAP5 SWAP4 POP POP POP POP JUMP JUMPDEST PUSH1 0x1 PUSH1 0x1 PUSH1 0xA0 SHL SUB DUP5 AND DUP2 MSTORE PUSH1 0x60 PUSH1 0x20 DUP3 ADD DUP2 SWAP1 MSTORE PUSH0 SWAP1 PUSH2 0xA69 SWAP1 DUP4 ADD DUP6 PUSH2 0x784 JUMP JUMPDEST DUP3 DUP2 SUB PUSH1 0x40 DUP5 ADD MSTORE PUSH2 0x41D DUP2 DUP6 PUSH2 0x784 JUMP JUMPDEST PUSH2 0xFFFF DUP8 AND DUP2 MSTORE PUSH1 0xFF DUP7 AND PUSH1 0x20 DUP3 ADD MSTORE PUSH1 0x1 DUP1 PUSH1 0xA0 SHL SUB DUP6 AND PUSH1 0x40 DUP3 ADD MSTORE DUP4 PUSH1 0x60 DUP3 ADD MSTORE DUP3 PUSH1 0x80 DUP3 ADD MSTORE PUSH1 0xC0 PUSH1 0xA0 DUP3 ADD MSTORE PUSH0 PUSH2 0xABA PUSH1 0xC0 DUP4 ADD DUP5 PUSH2 0x784 JUMP JUMPDEST SWAP9 SWAP8 POP POP POP POP POP POP POP POP JUMP JUMPDEST PUSH0 DUP1 PUSH1 0x40 DUP4 DUP6 SUB SLT ISZERO PUSH2 0xAD7 JUMPI PUSH0 DUP1 REVERT JUMPDEST POP POP DUP1 MLOAD PUSH1 0x20 SWAP1 SWAP2 ADD MLOAD SWAP1 SWAP3 SWAP1 SWAP2 POP JUMP JUMPDEST PUSH1 0x20 DUP2 MSTORE DUP2 MLOAD PUSH1 0x20 DUP3 ADD MSTORE PUSH1 0x20 DUP3 ADD MLOAD PUSH1 0x40 DUP3 ADD MSTORE PUSH1 0x1 DUP1 PUSH1 0xA0 SHL SUB PUSH1 0x40 DUP4 ADD MLOAD AND PUSH1 0x60 DUP3 ADD MSTORE PUSH1 0x60 DUP3 ADD MLOAD PUSH1 0x80 DUP3 ADD MSTORE PUSH0 PUSH1 0x80 DUP4 ADD MLOAD PUSH1 0xA0 DUP1 DUP5 ADD MSTORE PUSH2 0xA3E PUSH1 0xC0 DUP5 ADD DUP3 PUSH2 0x784 JUMP JUMPDEST PUSH1 0x20 DUP2 MSTORE PUSH1 0x1 DUP1 PUSH1 0xA0 SHL SUB DUP3 MLOAD AND PUSH1 0x20 DUP3 ADD MSTORE PUSH1 0x20 DUP3 ADD MLOAD PUSH1 0x40 DUP3 ADD MSTORE PUSH0 PUSH1 0x40 DUP4 ADD MLOAD PUSH1 0x60 DUP1 DUP5 ADD MSTORE PUSH2 0xA3E PUSH1 0x80 DUP5 ADD DUP3 PUSH2 0x784 JUMP JUMPDEST DUP1 DUP3 ADD DUP1 DUP3 GT ISZERO PUSH2 0x124 JUMPI PUSH2 0x124 PUSH2 0x99A JUMP JUMPDEST PUSH2 0xFFFF DUP2 DUP2 AND DUP4 DUP3 AND ADD SWAP1 DUP1 DUP3 GT ISZERO PUSH2 0xB96 JUMPI PUSH2 0xB96 PUSH2 0x99A JUMP JUMPDEST POP SWAP3 SWAP2 POP POP JUMP JUMPDEST PUSH0 DUP2 MLOAD DUP1 PUSH1 0x20 DUP5 ADD DUP6 MCOPY PUSH0 SWAP4 ADD SWAP3 DUP4 MSTORE POP SWAP1 SWAP2 SWAP1 POP JUMP JUMPDEST PUSH0 PUSH2 0xBBF DUP3 DUP9 PUSH2 0xB9D JUMP JUMPDEST PUSH1 0x1 PUSH1 0x1 PUSH1 0xF8 SHL SUB NOT PUSH1 0xF8 DUP9 DUP2 SHL DUP3 AND DUP4 MSTORE PUSH1 0x1 PUSH1 0x1 PUSH1 0xF0 SHL SUB NOT PUSH1 0xF0 DUP10 SWAP1 SHL AND PUSH1 0x1 DUP5 ADD MSTORE DUP7 SWAP1 SHL AND PUSH1 0x3 DUP3 ADD MSTORE PUSH2 0xABA PUSH1 0x4 DUP3 ADD DUP6 PUSH2 0xB9D JUMP INVALID LOG2 PUSH5 0x6970667358 0x22 SLT KECCAK256 SIGNEXTEND PUSH7 0x4D954F800303E3 0xAB PUSH1 0xAD 0xED 0xBF CALLVALUE CODECOPY CALL 0xC6 0xD PUSH7 0xD6B9B9BABDFBF5 SWAP14 PUSH13 0x64AC9D64736F6C634300081900 CALLER "
		},
		"gasEstimates": {
			"creation": {
				"codeDepositCost": "624200",
				"executionCost": "684",
				"totalCost": "624884"
			},
			"external": {
				"calculateAmountOutMin(uint256,uint256)": "infinite",
				"createAdapterData(Chain,CrossChainData.AdapterDataCreateInput)": "infinite",
				"createLzSendOpts(uint128,uint128)": "infinite",
				"createPayloadDataEncoded(bytes32,address,uint256,address,uint256,bytes)": "infinite",
				"createRouteProcessorDataEncoded(Chain,address,uint256,address,bytes)": "infinite",
				"getGasNeeded(uint16,address,address,bytes,bytes)": "infinite"
			}
		},
		"methodIdentifiers": {
			"calculateAmountOutMin(uint256,uint256)": "1aaaac12",
			"createAdapterData(Chain,CrossChainData.AdapterDataCreateInput)": "f504b9f7",
			"createLzSendOpts(uint128,uint128)": "a4bc8812",
			"createPayloadDataEncoded(bytes32,address,uint256,address,uint256,bytes)": "f2d49b49",
			"createRouteProcessorDataEncoded(Chain,address,uint256,address,bytes)": "83569e33",
			"getGasNeeded(uint16,address,address,bytes,bytes)": "ab0a5e53"
		}
	},
	"abi": [
		{
			"inputs": [
				{
					"internalType": "uint16",
					"name": "optionType",
					"type": "uint16"
				}
			],
			"name": "InvalidOptionType",
			"type": "error"
		},
		{
			"inputs": [
				{
					"internalType": "uint8",
					"name": "bits",
					"type": "uint8"
				},
				{
					"internalType": "uint256",
					"name": "value",
					"type": "uint256"
				}
			],
			"name": "SafeCastOverflowedUintDowncast",
			"type": "error"
		},
		{
			"inputs": [
				{
					"internalType": "uint256",
					"name": "quantity",
					"type": "uint256"
				},
				{
					"internalType": "uint256",
					"name": "units",
					"type": "uint256"
				}
			],
			"name": "calculateAmountOutMin",
			"outputs": [
				{
					"internalType": "uint256",
					"name": "",
					"type": "uint256"
				}
			],
			"stateMutability": "pure",
			"type": "function"
		},
		{
			"inputs": [
				{
					"components": [
						{
							"internalType": "uint256",
							"name": "chainId",
							"type": "uint256"
						},
						{
							"internalType": "bytes32",
							"name": "axelarChainId",
							"type": "bytes32"
						},
						{
							"internalType": "uint16",
							"name": "stargateChainId",
							"type": "uint16"
						},
						{
							"internalType": "uint32",
							"name": "lzEndpointId",
							"type": "uint32"
						},
						{
							"internalType": "address",
							"name": "stargateAdapter",
							"type": "address"
						},
						{
							"internalType": "address",
							"name": "paymentToken",
							"type": "address"
						}
					],
					"internalType": "struct Chain",
					"name": "_dstChain",
					"type": "tuple"
				},
				{
					"components": [
						{
							"internalType": "uint256",
							"name": "maxEstimatedPrice",
							"type": "uint256"
						},
						{
							"internalType": "uint256",
							"name": "gasForSwap",
							"type": "uint256"
						},
						{
							"internalType": "address",
							"name": "paymentToken",
							"type": "address"
						},
						{
							"internalType": "address",
							"name": "partnerSliceCore",
							"type": "address"
						}
					],
					"internalType": "struct CrossChainData.AdapterDataCreateInput",
					"name": "_adapterDataInput",
					"type": "tuple"
				}
			],
			"name": "createAdapterData",
			"outputs": [
				{
					"internalType": "bytes",
					"name": "_adapterData",
					"type": "bytes"
				}
			],
			"stateMutability": "pure",
			"type": "function"
		},
		{
			"inputs": [
				{
					"internalType": "uint128",
					"name": "_gas",
					"type": "uint128"
				},
				{
					"internalType": "uint128",
					"name": "_value",
					"type": "uint128"
				}
			],
			"name": "createLzSendOpts",
			"outputs": [
				{
					"internalType": "bytes",
					"name": "",
					"type": "bytes"
				}
			],
			"stateMutability": "pure",
			"type": "function"
		},
		{
			"inputs": [
				{
					"internalType": "bytes32",
					"name": "_mintId",
					"type": "bytes32"
				},
				{
					"internalType": "address",
					"name": "_token",
					"type": "address"
				},
				{
					"internalType": "uint256",
					"name": "amountOutMin",
					"type": "uint256"
				},
				{
					"internalType": "address",
					"name": "_partnerSliceCore",
					"type": "address"
				},
				{
					"internalType": "uint256",
					"name": "_payloadGas",
					"type": "uint256"
				},
				{
					"internalType": "bytes",
					"name": "_data",
					"type": "bytes"
				}
			],
			"name": "createPayloadDataEncoded",
			"outputs": [
				{
					"internalType": "bytes",
					"name": "",
					"type": "bytes"
				}
			],
			"stateMutability": "view",
			"type": "function"
		},
		{
			"inputs": [
				{
					"components": [
						{
							"internalType": "uint256",
							"name": "chainId",
							"type": "uint256"
						},
						{
							"internalType": "bytes32",
							"name": "axelarChainId",
							"type": "bytes32"
						},
						{
							"internalType": "uint16",
							"name": "stargateChainId",
							"type": "uint16"
						},
						{
							"internalType": "uint32",
							"name": "lzEndpointId",
							"type": "uint32"
						},
						{
							"internalType": "address",
							"name": "stargateAdapter",
							"type": "address"
						},
						{
							"internalType": "address",
							"name": "paymentToken",
							"type": "address"
						}
					],
					"internalType": "struct Chain",
					"name": "_chainInfo",
					"type": "tuple"
				},
				{
					"internalType": "address",
					"name": "_token",
					"type": "address"
				},
				{
					"internalType": "uint256",
					"name": "amountOutMin",
					"type": "uint256"
				},
				{
					"internalType": "address",
					"name": "_partnerSliceCore",
					"type": "address"
				},
				{
					"internalType": "bytes",
					"name": "_route",
					"type": "bytes"
				}
			],
			"name": "createRouteProcessorDataEncoded",
			"outputs": [
				{
					"internalType": "bytes",
					"name": "",
					"type": "bytes"
				}
			],
			"stateMutability": "pure",
			"type": "function"
		},
		{
			"inputs": [
				{
					"internalType": "uint16",
					"name": "stargateChainId",
					"type": "uint16"
				},
				{
					"internalType": "address",
					"name": "stargateAdapter",
					"type": "address"
				},
				{
					"internalType": "address",
					"name": "partnerSliceCore",
					"type": "address"
				},
				{
					"internalType": "bytes",
					"name": "swapDataEncoded",
					"type": "bytes"
				},
				{
					"internalType": "bytes",
					"name": "payloadDataEncoded",
					"type": "bytes"
				}
			],
			"name": "getGasNeeded",
			"outputs": [
				{
					"internalType": "uint256",
					"name": "",
					"type": "uint256"
				}
			],
			"stateMutability": "view",
			"type": "function"
		}
	]
}