{
	"data": {
		"bytecode": {
			"linkReferences": {},
			"object": "60c06040526207a120600f556602b1b7f20e35d2601055348015610021575f80fd5b5060405161556c38038061556c833981016040819052610040916101e3565b81338181808061006957604051631e4fbdf760e01b81525f600482015260240160405180910390fd5b61007281610179565b506001600160a01b0380831660805281166100a057604051632d618d8160e21b815260040160405180910390fd5b60805160405163ca5eb5e160e01b81526001600160a01b0383811660048301529091169063ca5eb5e1906024015f604051808303815f87803b1580156100e4575f80fd5b505af11580156100f6573d5f803e3d5ffd5b5050600280546001600160a01b039e8f166001600160a01b031991821617909155600380549d8f169d82169d909d17909c55505060068054958c16958b169590951790945550506004805496891696881696909617909555506005805493871693861693909317909255600d80549186169190941617909255501660a052610264565b5f80546001600160a01b038381166001600160a01b0319831681178455604051919092169283917f8be0079c531659141344cd1fd0a4f28419497f9722a3daafe3b4186f6b6457e09190a35050565b80516001600160a01b03811681146101de575f80fd5b919050565b5f805f805f805f60e0888a0312156101f9575f80fd5b610202886101c8565b9650610210602089016101c8565b955061021e604089016101c8565b945061022c606089016101c8565b935061023a608089016101c8565b925061024860a089016101c8565b915061025660c089016101c8565b905092959891949750929550565b60805160a0516152c46102a85f395f8181610722015281816116f201526118d701525f8181610483015281816108ef015281816113dc015261158b01526152c45ff3fe608060405260043610610257575f3560e01c80637d25a05e1161013f578063bb0b6a53116100b3578063dbf0b01a11610078578063dbf0b01a146107fd578063ead4c47714610834578063ecf7a79d14610862578063f2fde38b14610890578063f476b41a146108af578063ff7bd03d146108ce575f80fd5b8063bb0b6a5314610756578063c06ac44714610781578063ca5eb5e1146107a0578063d1e90a7c146107bf578063d8078b8a146107de575f80fd5b8063982c26d411610104578063982c26d41461069f578063a16d5960146106c0578063a6ac3db6146106df578063a7dbb845146106f2578063b353aaa714610711578063b92d0eff14610744575f80fd5b80637d25a05e146105d857806382c325d21461060f5780638da5cb5b1461062d5780638fb84f31146106495780639231174e14610680575f80fd5b80633400288b116101d6578063628cda6d1161019b578063628cda6d146104a557806365c3cd58146104c45780636988b7c7146104e35780636e3f544714610586578063715018a6146105a55780637255f81b146105b9575f80fd5b80633400288b146104175780633a135554146104365780633a3e8443146104495780635609b29d1461045d5780635e280f1114610472575f80fd5b8063290dfdb21161021c578063290dfdb21461035657806329ef0dc71461038d5780632cdcd190146103b05780633013ce29146103d957806331263ae1146103f8575f80fd5b80630251e005146102625780630993035c146102e157806313137d651461030257806317442b7014610315578063272a58d214610335575f80fd5b3661025e57005b5f80fd5b34801561026d575f80fd5b506102ad61027c366004612334565b600c6020525f908152604090208054600182015460028301546003909301546001600160a01b039283169391921684565b604080516001600160a01b039586168152602081019490945283019190915290911660608201526080015b60405180910390f35b3480156102ec575f80fd5b506103006102fb366004612392565b505050565b005b61030061031036600461243a565b6108ed565b348015610320575f80fd5b506040805160018082526020820152016102d8565b348015610340575f80fd5b506103496109ad565b6040516102d89190612500565b348015610361575f80fd5b50610375610370366004612519565b610a39565b6040516001600160a01b0390911681526020016102d8565b348015610398575f80fd5b506103a2600f5481565b6040519081526020016102d8565b3480156103bb575f80fd5b506008546103c99060ff1681565b60405190151581526020016102d8565b3480156103e4575f80fd5b50600254610375906001600160a01b031681565b348015610403575f80fd5b50600354610375906001600160a01b031681565b348015610422575f80fd5b506103006104313660046125bc565b610c06565b6103006104443660046127aa565b610c62565b348015610454575f80fd5b50600b546103a2565b348015610468575f80fd5b506103a2600b5481565b34801561047d575f80fd5b506103757f000000000000000000000000000000000000000000000000000000000000000081565b3480156104b0575f80fd5b50600454610375906001600160a01b031681565b3480156104cf575f80fd5b50600d54610375906001600160a01b031681565b3480156104ee575f80fd5b50601154601254601354601454610539936001600160a01b031692919060ff808216916101008104821691620100008204811691630100000081048216916401000000009091041688565b604080516001600160a01b039099168952602089019790975295870194909452911515606086015215156080850152151560a0840152151560c0830152151560e0820152610100016102d8565b348015610591575f80fd5b506103006105a036600461287d565b6110eb565b3480156105b0575f80fd5b50610300611106565b3480156105c4575f80fd5b506103006105d3366004612898565b611119565b3480156105e3575f80fd5b506105f76105f23660046125bc565b61112e565b6040516001600160401b0390911681526020016102d8565b34801561061a575f80fd5b506103006106293660046128e2565b5050565b348015610638575f80fd5b505f546001600160a01b0316610375565b348015610654575f80fd5b506103c961066336600461298f565b6001600160a01b03165f9081526009602052604090205460ff1690565b34801561068b575f80fd5b5061030061069a366004612334565b611136565b3480156106aa575f80fd5b506106b3611143565b6040516102d891906129aa565b3480156106cb575f80fd5b506103006106da36600461298f565b6111a3565b6103006106ed3660046129f6565b6111cd565b3480156106fd575f80fd5b5061030061070c366004612a2f565b611532565b34801561071c575f80fd5b506103757f000000000000000000000000000000000000000000000000000000000000000081565b34801561074f575f80fd5b5030610375565b348015610761575f80fd5b506103a2610770366004612a66565b60016020525f908152604090205481565b34801561078c575f80fd5b50600554610375906001600160a01b031681565b3480156107ab575f80fd5b506103006107ba36600461298f565b611564565b3480156107ca575f80fd5b50600654610375906001600160a01b031681565b3480156107e9575f80fd5b506103756107f8366004612334565b6115e5565b348015610808575f80fd5b506103c961081736600461298f565b6001600160a01b03165f9081526007602052604090205460ff1690565b34801561083f575f80fd5b506103c961084e36600461298f565b60076020525f908152604090205460ff1681565b34801561086d575f80fd5b506103c961087c36600461298f565b60096020525f908152604090205460ff1681565b34801561089b575f80fd5b506103006108aa36600461298f565b61160d565b3480156108ba575f80fd5b506103756108c9366004612334565b61164a565b3480156108d9575f80fd5b506103c96108e8366004612a81565b611678565b7f00000000000000000000000000000000000000000000000000000000000000006001600160a01b0316331461093d576040516391ac5e4f60e01b81523360048201526024015b60405180910390fd5b6020870180359061095790610952908a612a66565b6116ac565b14610995576109696020880188612a66565b60405163309afaf360e21b815263ffffffff909116600482015260208801356024820152604401610934565b6109a4878787878787876116e7565b50505050505050565b600e80546109ba90612a9b565b80601f01602080910402602001604051908101604052809291908181526020018280546109e690612a9b565b8015610a315780601f10610a0857610100808354040283529160200191610a31565b820191905f5260205f20905b815481529060010190602001808311610a1457829003601f168201915b505050505081565b335f9081526007602052604081205460ff16610a975760405162461bcd60e51b815260206004820152601e60248201527f536c696365436f72653a20556e617574686f72697a65642063616c6c657200006044820152606401610934565b60085460ff16610afa5760405162461bcd60e51b815260206004820152602860248201527f536c696365436f72653a20536c69636520746f6b656e206372656174696f6e20604482015267191a5cd8589b195960c21b6064820152608401610934565b5f87878787878760025f9054906101000a90046001600160a01b031630604051610b2390612327565b610b34989796959493929190612af5565b604051809103905ff080158015610b4d573d5f803e3d5ffd5b506001600160a01b0381165f818152600960205260408120805460ff19166001908117909155600a8054918201815582527fc65a7bb8d6351c1cf70c95a316cc6a92839c986682d98bc35f958f4883f9d2a80180546001600160a01b031916909217909155600b805492935090610bc383612bc0565b90915550506040516001600160a01b038216907f0b857149a33d1d8f31a903329294f61770c4562939c36b9421c5867347c14bce905f90a2979650505050505050565b610c0e611bce565b63ffffffff82165f81815260016020908152604091829020849055815192835282018390527f238399d427b947898edb290f5ff0f9109849b1c3ba196a42e35f00c50a54b98b910160405180910390a15050565b335f9081526009602052604090205460ff16610cd85760405162461bcd60e51b815260206004820152602f60248201527f536c696365436f72653a204f6e6c79207265676973746572656420536c69636560448201526e081d1bdad95b8818d85b8818d85b1b608a1b6064820152608401610934565b610ce182611bfa565b6002546040516370a0823160e01b81523060048201526001600160a01b03909116906370a0823190602401602060405180830381865afa158015610d27573d5f803e3d5ffd5b505050506040513d601f19601f82011682018060405250810190610d4b9190612bd8565b1015610dbf5760405162461bcd60e51b815260206004820152603a60248201527f536c696365436f72653a204d617820657374696d61746564207072696365206e60448201527f6f74207472616e7366657272656420746f20636f6e74726163740000000000006064820152608401610934565b60405163a2ce9c1f60e01b8152600481018590525f90339063a2ce9c1f906024015f60405180830381865afa158015610dfa573d5f803e3d5ffd5b505050506040513d5f823e601f3d908101601f19168201604052610e219190810190612c4c565b80519091508514610e7e5760405162461bcd60e51b815260206004820152602160248201527f536c696365436f72653a204d696e7420494420646f6573206e6f7420657869736044820152601d60fa1b6064820152608401610934565b5f858152600c60205260408082208054336001600160a01b0319918216811783556002830189905585840151600390930180549092166001600160a01b0390931692909217905581516304013ac360e51b815291519091638027586091600480830192869291908290030181865afa158015610efc573d5f803e3d5ffd5b505050506040513d5f823e601f3d908101601f19168201604052610f239190810190612ced565b90505f5b815181101561104357610f53828281518110610f4557610f45612dac565b602002602001015151461490565b15610fe1575f610fb13388888581518110610f7057610f70612dac565b6020026020010151868681518110610f8a57610f8a612dac565b6020026020010151898781518110610fa457610fa4612dac565b6020026020010151611c3b565b90508015610fdb575f888152600c60205260408120600101805491610fd583612bc0565b91905055505b5061103b565b61103b873388888581518110610ff957610ff9612dac565b602002602001015186868151811061101357611013612dac565b6020026020010151888a888151811061102e5761102e612dac565b6020026020010151611dff565b600101610f27565b5061104d8661206e565b156110e35781604001516001600160a01b031685336001600160a01b03167f57906f264053df400decf287d5df71541ab514d475435b80e96a2588b4c4b39760405160405180910390a46040516205d48360ed1b815260048101879052339063ba906000906024015f604051808303815f87803b1580156110cc575f80fd5b505af11580156110de573d5f803e3d5ffd5b505050505b505050505050565b6110f3611bce565b6008805460ff1916911515919091179055565b61110e611bce565b6111175f61211e565b565b611121611bce565b600e6102fb828483612e04565b5f5b92915050565b61113e611bce565b600f55565b6060600a80548060200260200160405190810160405280929190818152602001828054801561119957602002820191905f5260205f20905b81546001600160a01b0316815260019091019060200180831161117b575b5050505050905090565b6111ab611bce565b600d80546001600160a01b0319166001600160a01b0392909216919091179055565b6004546001600160a01b031633146112395760405162461bcd60e51b815260206004820152602960248201527f536c696365436f72653a204f6e6c7920537461726761746520616461707465726044820152680818d85b8818d85b1b60ba1b6064820152608401610934565b5f8180602001905181019061124e9190612ebd565b60408082015190516370a0823160e01b81523060048201529192505f916001600160a01b03909116906370a0823190602401602060405180830381865afa15801561129b573d5f803e3d5ffd5b505050506040513d601f19601f820116820180604052508101906112bf9190612bd8565b905081606001518110156113265760405162461bcd60e51b815260206004820152602860248201527f536c696365436f72653a20496e636f727265637420616d6f756e74206f6620746044820152671bdad95b881bdd5d60c21b6064820152608401610934565b6006548251604051632013a8cd60e21b815260048101919091525f916001600160a01b03169063804ea3349060240160c060405180830381865afa158015611370573d5f803e3d5ffd5b505050506040513d601f19601f820116820180604052508101906113949190612f3a565b6040805180820182526020868101518083526001828401908152845192830191909152511515928101929092529192505f9060600160405160208183030381529060405290507f00000000000000000000000000000000000000000000000000000000000000006001600160a01b0316632637a4506010546040518060a00160405280876060015163ffffffff16815260200161143488606001516116ac565b8152602001858152602001600e805461144c90612a9b565b80601f016020809104026020016040519081016040528092919081815260200182805461147890612a9b565b80156114c35780601f1061149a576101008083540402835291602001916114c3565b820191905f5260205f20905b8154815290600101906020018083116114a657829003601f168201915b505050505081526020015f1515815250306040518463ffffffff1660e01b81526004016114f1929190612fd6565b60806040518083038185885af115801561150d573d5f803e3d5ffd5b50505050506040513d601f19601f820116820180604052508101906109a4919061304e565b61153a611bce565b6001600160a01b03919091165f908152600760205260409020805460ff1916911515919091179055565b61156c611bce565b60405163ca5eb5e160e01b81526001600160a01b0382811660048301527f0000000000000000000000000000000000000000000000000000000000000000169063ca5eb5e1906024015f604051808303815f87803b1580156115cc575f80fd5b505af11580156115de573d5f803e3d5ffd5b5050505050565b600a81815481106115f4575f80fd5b5f918252602090912001546001600160a01b0316905081565b611615611bce565b6001600160a01b03811661163e57604051631e4fbdf760e01b81525f6004820152602401610934565b6116478161211e565b50565b5f600a828154811061165e5761165e612dac565b5f918252602090912001546001600160a01b031692915050565b5f60208201803590600190839061168f9086612a66565b63ffffffff16815260208101919091526040015f20541492915050565b63ffffffff81165f90815260016020526040812054806111305760405163f6ff4fb760e01b815263ffffffff84166004820152602401610934565b336001600160a01b037f000000000000000000000000000000000000000000000000000000000000000016146117735760405162461bcd60e51b815260206004820152602b60248201527f536c696365436f72653a206c7a52656365697665206e6f742063616c6c65642060448201526a189e48195b991c1bda5b9d60aa1b6064820152608401610934565b600d5460208801356001600160a01b039081169116146117fb5760405162461bcd60e51b815260206004820152603860248201527f536c696365436f72653a206c7a53656e64206e6f7420696e697469617465642060448201527f62792063726f73732d636861696e20536c696365436f726500000000000000006064820152608401610934565b5f611808858701876130c4565b90505f600c5f835f015181526020019081526020015f206040518060800160405290815f82015f9054906101000a90046001600160a01b03166001600160a01b03166001600160a01b031681526020016001820154815260200160028201548152602001600382015f9054906101000a90046001600160a01b03166001600160a01b03166001600160a01b0316815250509050604051806101000160405280336001600160a01b031681526020018a602001358152602001835f015181526020018360200151151581526020017f00000000000000000000000000000000000000000000000000000000000000006001600160a01b0316336001600160a01b03161415158152602001600d5f9054906101000a90046001600160a01b03166001600160a01b03168b602001355f1c6001600160a01b0316141515815260200161196b835f01516001600160a01b03165f9081526009602052604090205460ff1690565b151581526020848101511515918101919091528151601180546001600160a01b0319166001600160a01b0392831617905582820151601255604080840151601355606084015160148054608087015160a088015160c089015160e09099015161ffff1990931694151561ff00191694909417610100911515919091021763ffff00001916620100009315159390930263ff0000001916929092176301000000961515969096029590951764ff00000000191664010000000091151591909102179093558351165f9081526009909152205460ff16611a8b5760405162461bcd60e51b815260206004820152601a60248201527f536c696365436f72653a20556e6b6e6f776e206d696e742049440000000000006044820152606401610934565b8160200151611ae75760405162461bcd60e51b815260206004820152602260248201527f536c696365436f72653a2043726f73732d636861696e2073776170206661696c604482015261195960f21b6064820152608401610934565b81515f908152600c60205260408120600101805491611b0583612bc0565b90915550508151611b159061206e565b15611bc35780606001516001600160a01b03168160400151336001600160a01b03167f57906f264053df400decf287d5df71541ab514d475435b80e96a2588b4c4b39760405160405180910390a4805182516040516205d48360ed1b81526001600160a01b039092169163ba90600091611b959160040190815260200190565b5f604051808303815f87803b158015611bac575f80fd5b505af1158015611bbe573d5f803e3d5ffd5b505050505b505050505050505050565b5f546001600160a01b031633146111175760405163118cdaa760e01b8152336004820152602401610934565b5f805b8251811015611c3557828181518110611c1857611c18612dac565b602002602001015182611c2b91906130fa565b9150600101611bfd565b50919050565b60025460035460405163095ea7b360e01b81526001600160a01b039182166004820152602481018690525f92919091169063095ea7b3906044016020604051808303815f875af1158015611c91573d5f803e3d5ffd5b505050506040513d601f19601f82011682018060405250810190611cb5919061310d565b50604080840151815160c0810183526002546001600160a01b03908116825260208083018990528088015182168386015260608301849052908a16608083015260a08201869052925187935f91611d0e91849101613128565b60408051601f198184030181529082905260035463313eeab560e11b83529092506001600160a01b03169063627dd56a90611d4d908490600401612500565b5f604051808303815f87803b158015611d64575f80fd5b505af1158015611d76573d5f803e3d5ffd5b5050505060208701516040516370a0823160e01b81526001600160a01b038c811660048301525f9216906370a0823190602401602060405180830381865afa158015611dc4573d5f803e3d5ffd5b505050506040513d601f19601f82011682018060405250810190611de89190612bd8565b604089015111159550505050505095945050505050565b60025460035460405163095ea7b360e01b81526001600160a01b0391821660048201526024810187905291169063095ea7b3906044016020604051808303815f875af1158015611e51573d5f803e3d5ffd5b505050506040513d601f19601f82011682018060405250810190611e75919061310d565b5060408381015160065485519251632013a8cd60e21b8152600481019390935290915f916001600160a01b03169063804ea3349060240160c060405180830381865afa158015611ec7573d5f803e3d5ffd5b505050506040513d601f19601f82011682018060405250810190611eeb9190612f3a565b90505f611efe828760200151858761216d565b90505f611f158b88602001518689608001516121da565b90505f611f2884604001518c8585612272565b6003546040805160c0810182525f81526004546001600160a01b039081166020830152600254811692820192909252606081018d9052600d5482166080820152929350169063bcc5332590839060a08101612009898f62086470604083810151600254608080870151600d54855161ffff90951660208601526001600160a01b0393841695850195909552600160608086018290529285015260a084018790525f60c0850181905260e08501528216610100840152921661012082015261014081018390526101600160405160208183030381529060405290509392505050565b8152508a6040015187876040518663ffffffff1660e01b81526004016120329493929190613182565b5f604051808303818588803b158015612049575f80fd5b505af115801561205b573d5f803e3d5ffd5b5050505050505050505050505050505050565b5f818152600c60209081526040808320815160808101835281546001600160a01b03908116808352600184015483870152600284015483860152600390930154166060820152825163e02b79f960e01b815292519093859363e02b79f992600480830193928290030181865afa1580156120ea573d5f803e3d5ffd5b505050506040513d601f19601f8201168201806040525081019061210e9190612bd8565b6020909201519091149392505050565b5f80546001600160a01b038381166001600160a01b0319831681178455604051919092169283917f8be0079c531659141344cd1fd0a4f28419497f9722a3daafe3b4186f6b6457e09190a35050565b6040805160c08101825260a0808701516001600160a01b0390811683525f602080850191909152878216848601526060848101889052600d54909216608085015291830185905292516121c1929101613128565b6040516020818303038152906040529050949350505050565b60606040518060600160405280600d5f9054906101000a90046001600160a01b03166001600160a01b03168152602001600f5481526020016040518060a00160405280468152602001888152602001876001600160a01b0316815260200186815260200185815250604051602001612252919061322b565b60408051601f198184030181529181529152516121c19190602001613275565b6004546040515f9182916001600160a01b0390911690636ce4fe039088906001908490620864709087906122ae908d908d908d906020016132ab565b6040516020818303038152906040526040518763ffffffff1660e01b81526004016122de969594939291906132ea565b6040805180830381865afa1580156122f8573d5f803e3d5ffd5b505050506040513d601f19601f8201168201806040525081019061231c9190613335565b509695505050505050565b611f378061335883390190565b5f60208284031215612344575f80fd5b5035919050565b5f8083601f84011261235b575f80fd5b5081356001600160401b03811115612371575f80fd5b60208301915083602060608302850101111561238b575f80fd5b9250929050565b5f805f604084860312156123a4575f80fd5b8335925060208401356001600160401b038111156123c0575f80fd5b6123cc8682870161234b565b9497909650939450505050565b5f60608284031215611c35575f80fd5b5f8083601f8401126123f9575f80fd5b5081356001600160401b0381111561240f575f80fd5b60208301915083602082850101111561238b575f80fd5b6001600160a01b0381168114611647575f80fd5b5f805f805f805f60e0888a031215612450575f80fd5b61245a89896123d9565b96506060880135955060808801356001600160401b038082111561247c575f80fd5b6124888b838c016123e9565b909750955060a08a0135915061249d82612426565b90935060c089013590808211156124b2575f80fd5b506124bf8a828b016123e9565b989b979a50959850939692959293505050565b5f81518084528060208401602086015e5f602082860101526020601f19601f83011685010191505092915050565b602081525f61251260208301846124d2565b9392505050565b5f805f805f806060878903121561252e575f80fd5b86356001600160401b0380821115612544575f80fd5b6125508a838b016123e9565b90985096506020890135915080821115612568575f80fd5b6125748a838b016123e9565b9096509450604089013591508082111561258c575f80fd5b5061259989828a0161234b565b979a9699509497509295939492505050565b63ffffffff81168114611647575f80fd5b5f80604083850312156125cd575f80fd5b82356125d8816125ab565b946020939093013593505050565b634e487b7160e01b5f52604160045260245ffd5b60405160a081016001600160401b038111828210171561261c5761261c6125e6565b60405290565b604051606081016001600160401b038111828210171561261c5761261c6125e6565b604080519081016001600160401b038111828210171561261c5761261c6125e6565b604051601f8201601f191681016001600160401b038111828210171561268e5761268e6125e6565b604052919050565b5f6001600160401b038211156126ae576126ae6125e6565b5060051b60200190565b5f6001600160401b038211156126d0576126d06125e6565b50601f01601f191660200190565b5f82601f8301126126ed575f80fd5b81356127006126fb826126b8565b612666565b818152846020838601011115612714575f80fd5b816020850160208301375f918101602001919091529392505050565b5f82601f83011261273f575f80fd5b8135602061274f6126fb83612696565b82815260059290921b8401810191818101908684111561276d575f80fd5b8286015b8481101561231c5780356001600160401b0381111561278e575f80fd5b61279c8986838b01016126de565b845250918301918301612771565b5f805f80608085870312156127bd575f80fd5b84359350602080860135935060408601356001600160401b03808211156127e2575f80fd5b818801915088601f8301126127f5575f80fd5b81356128036126fb82612696565b81815260059190911b8301840190848101908b831115612821575f80fd5b938501935b8285101561283f57843582529385019390850190612826565b965050506060880135925080831115612856575f80fd5b505061286487828801612730565b91505092959194509250565b8015158114611647575f80fd5b5f6020828403121561288d575f80fd5b813561251281612870565b5f80602083850312156128a9575f80fd5b82356001600160401b038111156128be575f80fd5b6128ca858286016123e9565b90969095509350505050565b60038110611647575f80fd5b5f80604083850312156128f3575f80fd5b8235915060208301356001600160401b0380821115612910575f80fd5b9084019060a08287031215612923575f80fd5b61292b6125fa565b8235815260208301356020820152604083013561294781612426565b6040820152606083013561295a816128d6565b6060820152608083013582811115612970575f80fd5b61297c888286016126de565b6080830152508093505050509250929050565b5f6020828403121561299f575f80fd5b813561251281612426565b602080825282518282018190525f9190848201906040850190845b818110156129ea5783516001600160a01b0316835292840192918401916001016129c5565b50909695505050505050565b5f60208284031215612a06575f80fd5b81356001600160401b03811115612a1b575f80fd5b612a27848285016126de565b949350505050565b5f8060408385031215612a40575f80fd5b8235612a4b81612426565b91506020830135612a5b81612870565b809150509250929050565b5f60208284031215612a76575f80fd5b8135612512816125ab565b5f60608284031215612a91575f80fd5b61251283836123d9565b600181811c90821680612aaf57607f821691505b602082108103611c3557634e487b7160e01b5f52602260045260245ffd5b81835281816020850137505f828201602090810191909152601f909101601f19169091010190565b60a081525f612b0860a083018a8c612acd565b60208382036020850152612b1d828a8c612acd565b848103604086810191909152888252899350906020015f5b89811015612b75578435825283850135612b4e81612426565b6001600160a01b031682850152848301358383015260609485019490910190600101612b35565b506001600160a01b03881660608701529350612b9092505050565b6001600160a01b03831660808301529998505050505050505050565b634e487b7160e01b5f52601160045260245ffd5b5f60018201612bd157612bd1612bac565b5060010190565b5f60208284031215612be8575f80fd5b5051919050565b8051612bfa81612426565b919050565b5f82601f830112612c0e575f80fd5b8151612c1c6126fb826126b8565b818152846020838601011115612c30575f80fd5b8160208501602083015e5f918101602001919091529392505050565b5f60208284031215612c5c575f80fd5b81516001600160401b0380821115612c72575f80fd5b9083019060a08286031215612c85575f80fd5b612c8d6125fa565b82518152602083015160208201526040830151612ca981612426565b60408201526060830151612cbc816128d6565b6060820152608083015182811115612cd2575f80fd5b612cde87828601612bff565b60808301525095945050505050565b5f6020808385031215612cfe575f80fd5b82516001600160401b03811115612d13575f80fd5b8301601f81018513612d23575f80fd5b8051612d316126fb82612696565b81815260609182028301840191848201919088841115612d4f575f80fd5b938501935b83851015612da05780858a031215612d6a575f80fd5b612d72612622565b8551815286860151612d8381612426565b818801526040868101519082015283529384019391850191612d54565b50979650505050505050565b634e487b7160e01b5f52603260045260245ffd5b601f8211156102fb57805f5260205f20601f840160051c81016020851015612de55750805b601f840160051c820191505b818110156115de575f8155600101612df1565b6001600160401b03831115612e1b57612e1b6125e6565b612e2f83612e298354612a9b565b83612dc0565b5f601f841160018114612e60575f8515612e495750838201355b5f19600387901b1c1916600186901b1783556115de565b5f83815260208120601f198716915b82811015612e8f5786850135825560209485019460019092019101612e6f565b5086821015612eab575f1960f88860031b161c19848701351681555b505060018560011b0183555050505050565b5f60208284031215612ecd575f80fd5b81516001600160401b0380821115612ee3575f80fd5b9083019060a08286031215612ef6575f80fd5b612efe6125fa565b82518152602083015160208201526040830151612f1a81612426565b604082015260608381015190820152608083015182811115612cd2575f80fd5b5f60c08284031215612f4a575f80fd5b60405160c081018181106001600160401b0382111715612f6c57612f6c6125e6565b80604052508251815260208301516020820152604083015161ffff81168114612f93575f80fd5b60408201526060830151612fa6816125ab565b60608201526080830151612fb981612426565b6080820152612fca60a08401612bef565b60a08201529392505050565b6040815263ffffffff8351166040820152602083015160608201525f604084015160a0608084015261300b60e08401826124d2565b90506060850151603f198483030160a085015261302882826124d2565b60809690960151151560c08501525050506001600160a01b039190911660209091015290565b5f818303608081121561305f575f80fd5b613067612622565b8351815260208401516001600160401b0381168114613084575f80fd5b60208201526040603f198301121561309a575f80fd5b6130a2612644565b6040858101518252606090950151602082015293810193909352509092915050565b5f604082840312156130d4575f80fd5b6130dc612644565b8235815260208301356130ee81612870565b60208201529392505050565b8082018082111561113057611130612bac565b5f6020828403121561311d575f80fd5b815161251281612870565b602081525f60018060a01b0380845116602084015260208401516040840152806040850151166060840152606084015160808401528060808501511660a08401525060a083015160c080840152612a2760e08401826124d2565b6080815261ffff60f01b85511660808201525f602086015160018060a01b0380821660a08501528060408901511660c0850152606088015160e085015280608089015116610100850152505060a086015160c06101208401526131e96101408401826124d2565b6001600160a01b03871660208501529050828103604084015261320c81866124d2565b9050828103606084015261322081856124d2565b979650505050505050565b60208152815160208201526020820151604082015260018060a01b036040830151166060820152606082015160808201525f608083015160a080840152612a2760c08401826124d2565b6020815260018060a01b038251166020820152602082015160408201525f6040830151606080840152612a2760808401826124d2565b6001600160a01b03841681526060602082018190525f906132ce908301856124d2565b82810360408401526132e081856124d2565b9695505050505050565b61ffff8716815260ff8616602082015260018060a01b038516604082015283606082015282608082015260c060a08201525f61332960c08301846124d2565b98975050505050505050565b5f8060408385031215613346575f80fd5b50508051602090910151909290915056fe608060405234801561000f575f80fd5b50604051611f37380380611f3783398101604081905261002e916101f4565b8484600361003c83826103b0565b50600461004982826103b0565b5050600580546001600160a01b038086166001600160a01b0319928316179092556006805492851692909116919091179055505f5b83518110156100f757600784828151811061009b5761009b61046f565b6020908102919091018101518254600180820185555f9485529383902082516003909202019081559181015182840180546001600160a01b0319166001600160a01b03909216919091179055604001516002909101550161007e565b505050505050610483565b634e487b7160e01b5f52604160045260245ffd5b604051606081016001600160401b038111828210171561013857610138610102565b60405290565b604051601f8201601f191681016001600160401b038111828210171561016657610166610102565b604052919050565b5f82601f83011261017d575f80fd5b81516001600160401b0381111561019657610196610102565b6101a9601f8201601f191660200161013e565b8181528460208386010111156101bd575f80fd5b8160208501602083015e5f918101602001919091529392505050565b80516001600160a01b03811681146101ef575f80fd5b919050565b5f805f805f60a08688031215610208575f80fd5b85516001600160401b038082111561021e575f80fd5b61022a89838a0161016e565b9650602091508188015181811115610240575f80fd5b61024c8a828b0161016e565b96505060408089015182811115610261575f80fd5b8901601f81018b13610271575f80fd5b80518381111561028357610283610102565b610291858260051b0161013e565b8181528581019450606091820283018601918d8311156102af575f80fd5b928601925b828410156102fc5780848f0312156102ca575f80fd5b6102d2610116565b845181526102e18886016101d9565b818901528486015186820152865294860194928301926102b4565b50809850505050505050610312606087016101d9565b9150610320608087016101d9565b90509295509295909350565b600181811c9082168061034057607f821691505b60208210810361035e57634e487b7160e01b5f52602260045260245ffd5b50919050565b601f8211156103ab57805f5260205f20601f840160051c810160208510156103895750805b601f840160051c820191505b818110156103a8575f8155600101610395565b50505b505050565b81516001600160401b038111156103c9576103c9610102565b6103dd816103d7845461032c565b84610364565b602080601f831160018114610410575f84156103f95750858301515b5f19600386901b1c1916600185901b178555610467565b5f85815260208120601f198616915b8281101561043e5788860151825594840194600190910190840161041f565b508582101561045b57878501515f19600388901b60f8161c191681555b505060018460011b0185555b505050505050565b634e487b7160e01b5f52603260045260245ffd5b611aa7806104905f395ff3fe60806040526004361061017b575f3560e01c806395d89b41116100cd578063db006a7511610087578063f01648f811610062578063f01648f8146104ba578063f4c76363146104d7578063fe206292146104f6578063fe74748e146104ba575f80fd5b8063db006a7514610443578063dd62ed3e14610462578063e02b79f9146104a6575f80fd5b806395d89b411461036f57806399fbab8814610383578063a2ce9c1f146103c5578063a9059cbb146103e4578063a9edf1f614610403578063ba90600014610422575f80fd5b806323b872dd1161013857806356dc63cb1161011357806356dc63cb146102cb5780636b9691a1146102fb57806370a082311461031a578063802758601461034e575f80fd5b806323b872dd1461025a5780633013ce2914610279578063313ce567146102b0575f80fd5b806306fdde031461017f578063095ea7b3146101a95780630b2b8e35146101d857806318160ddd146101f95780631ddc8f6d1461020d5780631fc5846b14610239575b5f80fd5b34801561018a575f80fd5b50610193610515565b6040516101a0919061139c565b60405180910390f35b3480156101b4575f80fd5b506101c86101c33660046113d0565b6105a5565b60405190151581526020016101a0565b6101eb6101e6366004611540565b6105be565b6040519081526020016101a0565b348015610204575f80fd5b506002546101eb565b348015610218575f80fd5b5061022c6102273660046115fd565b6108ae565b6040516101a09190611648565b348015610244575f80fd5b506101eb6102533660046116a3565b5f92915050565b348015610265575f80fd5b506101c8610274366004611712565b6109ee565b348015610284575f80fd5b50600554610298906001600160a01b031681565b6040516001600160a01b0390911681526020016101a0565b3480156102bb575f80fd5b50604051601281526020016101a0565b3480156102d6575f80fd5b506102ea6102e53660046115fd565b610a11565b6040516101a095949392919061174b565b348015610306575f80fd5b506102ea6103153660046115fd565b610ad7565b348015610325575f80fd5b506101eb610334366004611791565b6001600160a01b03165f9081526020819052604090205490565b348015610359575f80fd5b50610362610b1c565b6040516101a091906117aa565b34801561037a575f80fd5b50610193610b9c565b34801561038e575f80fd5b506103a261039d3660046115fd565b610bab565b604080519384526001600160a01b039092166020840152908201526060016101a0565b3480156103d0575f80fd5b5061022c6103df3660046115fd565b610be8565b3480156103ef575f80fd5b506101c86103fe3660046113d0565b610c7c565b34801561040e575f80fd5b506102ea61041d3660046115fd565b610c89565b34801561042d575f80fd5b5061044161043c3660046115fd565b610cce565b005b34801561044e575f80fd5b506101eb61045d3660046115fd565b505f90565b34801561046d575f80fd5b506101eb61047c36600461180b565b6001600160a01b039182165f90815260016020908152604080832093909416825291909152205490565b3480156104b1575f80fd5b506007546101eb565b3480156104c5575f80fd5b506104416104d43660046115fd565b50565b3480156104e2575f80fd5b50600654610298906001600160a01b031681565b348015610501575f80fd5b5061022c6105103660046115fd565b610f7f565b6060600380546105249061183c565b80601f01602080910402602001604051908101604052809291908181526020018280546105509061183c565b801561059b5780601f106105725761010080835404028352916020019161059b565b820191905f5260205f20905b81548152906001019060200180831161057e57829003601f168201915b5050505050905090565b5f336105b2818585611013565b60019150505b92915050565b5f80841161062a5760405162461bcd60e51b815260206004820152602e60248201527f536c696365546f6b656e3a20536c69636520746f6b656e207175616e7469747960448201526d2063616e2774206265207a65726f60901b60648201526084015b60405180910390fd5b8151835114801561063d57506007548351145b6106a35760405162461bcd60e51b815260206004820152603160248201527f536c696365546f6b656e3a20496e636f7272656374206c656e67746820666f7260448201527020707269636573206f7220726f7574657360781b6064820152608401610621565b5f6106ad84611025565b6005546006546040516323b872dd60e01b81523360048201526001600160a01b0391821660248201526044810184905292935016906323b872dd906064016020604051808303815f875af1158015610707573d5f803e3d5ffd5b505050506040513d601f19601f8201168201806040525081019061072b919061186e565b506040516bffffffffffffffffffffffff1933606090811b8216602084015230901b16603482015260488101869052606881018290524260888201525f9060a80160408051808303601f19018152828252805160209182012060a0840183528084528184018a815233858501908152600160608701818152865180870188525f80825260808a0191909152858152600890965295909420865181559151938201939093559151600280840180546001600160a01b031981166001600160a01b0390941693841782559551939750869590926001600160a81b03199091161790600160a01b90849081111561082157610821611614565b02179055506080820151600382019061083a90826118d8565b5050600654604051630e84d55560e21b81526001600160a01b039091169150633a1355549034906108759086908c908c908c90600401611998565b5f604051808303818588803b15801561088c575f80fd5b505af115801561089e573d5f803e3d5ffd5b50949a9950505050505050505050565b6108df6040805160a0810182525f808252602082018190529181018290529060608201908152602001606081525090565b5f82815260096020908152604091829020825160a081018452815481526001820154928101929092526002808201546001600160a01b03811694840194909452919290916060840191600160a01b900460ff169081111561094257610942611614565b600281111561095357610953611614565b81526020016003820180546109679061183c565b80601f01602080910402602001604051908101604052809291908181526020018280546109939061183c565b80156109de5780601f106109b5576101008083540402835291602001916109de565b820191905f5260205f20905b8154815290600101906020018083116109c157829003601f168201915b5050505050815250509050919050565b5f336109fb858285611066565b610a068585856110e1565b506001949350505050565b60086020525f90815260409020805460018201546002830154600384018054939492936001600160a01b03831693600160a01b90930460ff16929190610a569061183c565b80601f0160208091040260200160405190810160405280929190818152602001828054610a829061183c565b8015610acd5780601f10610aa457610100808354040283529160200191610acd565b820191905f5260205f20905b815481529060010190602001808311610ab057829003601f168201915b5050505050905085565b600a6020525f90815260409020805460018201546002830154600384018054939492936001600160a01b03831693600160a01b90930460ff16929190610a569061183c565b60606007805480602002602001604051908101604052809291908181526020015f905b82821015610b93575f8481526020908190206040805160608101825260038602909201805483526001808201546001600160a01b031684860152600290910154918301919091529083529092019101610b3f565b50505050905090565b6060600480546105249061183c565b60078181548110610bba575f80fd5b5f9182526020909120600390910201805460018201546002909201549092506001600160a01b039091169083565b610c196040805160a0810182525f808252602082018190529181018290529060608201908152602001606081525090565b5f82815260086020908152604091829020825160a081018452815481526001820154928101929092526002808201546001600160a01b03811694840194909452919290916060840191600160a01b900460ff169081111561094257610942611614565b5f336105b28185856110e1565b60096020525f90815260409020805460018201546002830154600384018054939492936001600160a01b03831693600160a01b90930460ff16929190610a569061183c565b6006546001600160a01b03163314610d345760405162461bcd60e51b8152602060048201526024808201527f536c696365546f6b656e3a204f6e6c7920536c69636520436f72652063616e2060448201526318d85b1b60e21b6064820152608401610621565b5f818152600860209081526040808320815160a081018352815481526001820154938101939093526002808201546001600160a01b0381169385019390935290916060840191600160a01b90910460ff1690811115610d9557610d95611614565b6002811115610da657610da6611614565b8152602001600382018054610dba9061183c565b80601f0160208091040260200160405190810160405280929190818152602001828054610de69061183c565b8015610e315780601f10610e0857610100808354040283529160200191610e31565b820191905f5260205f20905b815481529060010190602001808311610e1457829003601f168201915b5050509190925250508151919250610e8d90505760405162461bcd60e51b815260206004820152601b60248201527f536c696365546f6b656e3a20496e76616c6964206d696e7420494400000000006044820152606401610621565b600181606001516002811115610ea557610ea5611614565b14610f045760405162461bcd60e51b815260206004820152602960248201527f536c696365546f6b656e3a205472616e73616374696f6e207374617465206973604482015268103737ba1037b832b760b91b6064820152608401610621565b5f8281526008602052604090206002908101805460ff60a01b1916600160a01b830217905550610f3c8160400151826020015161113e565b806020015181604001516001600160a01b03167fa61fdfb9f0c74c4b68b88685011450e9d2d293083bf9209c523a5e0b50ed7fe460405160405180910390a35050565b610fb06040805160a0810182525f808252602082018190529181018290529060608201908152602001606081525090565b5f828152600a6020908152604091829020825160a081018452815481526001820154928101929092526002808201546001600160a01b03811694840194909452919290916060840191600160a01b900460ff169081111561094257610942611614565b6110208383836001611176565b505050565b5f805b82518110156110605782818151811061104357611043611a3e565b6020026020010151826110569190611a52565b9150600101611028565b50919050565b6001600160a01b038381165f908152600160209081526040808320938616835292905220545f1981146110db57818110156110cd57604051637dc7a0d960e11b81526001600160a01b03841660048201526024810182905260448101839052606401610621565b6110db84848484035f611176565b50505050565b6001600160a01b03831661110a57604051634b637e8f60e11b81525f6004820152602401610621565b6001600160a01b0382166111335760405163ec442f0560e01b81525f6004820152602401610621565b611020838383611248565b6001600160a01b0382166111675760405163ec442f0560e01b81525f6004820152602401610621565b6111725f8383611248565b5050565b6001600160a01b03841661119f5760405163e602df0560e01b81525f6004820152602401610621565b6001600160a01b0383166111c857604051634a1406b160e11b81525f6004820152602401610621565b6001600160a01b038085165f90815260016020908152604080832093871683529290522082905580156110db57826001600160a01b0316846001600160a01b03167f8c5be1e5ebec7d5bd14f71427d1e84f3dd0314c0f7b2291e5b200ac8c7c3b9258460405161123a91815260200190565b60405180910390a350505050565b6001600160a01b038316611272578060025f8282546112679190611a52565b909155506112e29050565b6001600160a01b0383165f90815260208190526040902054818110156112c45760405163391434e360e21b81526001600160a01b03851660048201526024810182905260448101839052606401610621565b6001600160a01b0384165f9081526020819052604090209082900390555b6001600160a01b0382166112fe5760028054829003905561131c565b6001600160a01b0382165f9081526020819052604090208054820190555b816001600160a01b0316836001600160a01b03167fddf252ad1be2c89b69c2b068fc378daa952ba7f163c4a11628f55a4df523b3ef8360405161136191815260200190565b60405180910390a3505050565b5f81518084528060208401602086015e5f602082860101526020601f19601f83011685010191505092915050565b602081525f6113ae602083018461136e565b9392505050565b80356001600160a01b03811681146113cb575f80fd5b919050565b5f80604083850312156113e1575f80fd5b6113ea836113b5565b946020939093013593505050565b634e487b7160e01b5f52604160045260245ffd5b604051601f8201601f1916810167ffffffffffffffff81118282101715611435576114356113f8565b604052919050565b5f67ffffffffffffffff821115611456576114566113f8565b5060051b60200190565b5f601f83601f840112611471575f80fd5b823560206114866114818361143d565b61140c565b82815260059290921b850181019181810190878411156114a4575f80fd5b8287015b8481101561153457803567ffffffffffffffff808211156114c7575f80fd5b818a0191508a603f8301126114da575f80fd5b858201356040828211156114f0576114f06113f8565b611501828b01601f1916890161140c565b92508183528c81838601011115611516575f80fd5b8181850189850137505f9082018701528452509183019183016114a8565b50979650505050505050565b5f805f60608486031215611552575f80fd5b8335925060208085013567ffffffffffffffff80821115611571575f80fd5b818701915087601f830112611584575f80fd5b81356115926114818261143d565b81815260059190911b8301840190848101908a8311156115b0575f80fd5b938501935b828510156115ce578435825293850193908501906115b5565b9650505060408701359250808311156115e5575f80fd5b50506115f386828701611460565b9150509250925092565b5f6020828403121561160d575f80fd5b5035919050565b634e487b7160e01b5f52602160045260245ffd5b6003811061164457634e487b7160e01b5f52602160045260245ffd5b9052565b60208152815160208201526020820151604082015260018060a01b0360408301511660608201525f60608301516116826080840182611628565b50608083015160a08084015261169b60c084018261136e565b949350505050565b5f80602083850312156116b4575f80fd5b823567ffffffffffffffff808211156116cb575f80fd5b818501915085601f8301126116de575f80fd5b8135818111156116ec575f80fd5b866020606083028501011115611700575f80fd5b60209290920196919550909350505050565b5f805f60608486031215611724575f80fd5b61172d846113b5565b925061173b602085016113b5565b9150604084013590509250925092565b858152602081018590526001600160a01b03841660408201526117716060820184611628565b60a060808201525f61178660a083018461136e565b979650505050505050565b5f602082840312156117a1575f80fd5b6113ae826113b5565b602080825282518282018190525f919060409081850190868401855b828110156117fe57815180518552868101516001600160a01b03168786015285015185850152606090930192908501906001016117c6565b5091979650505050505050565b5f806040838503121561181c575f80fd5b611825836113b5565b9150611833602084016113b5565b90509250929050565b600181811c9082168061185057607f821691505b60208210810361106057634e487b7160e01b5f52602260045260245ffd5b5f6020828403121561187e575f80fd5b815180151581146113ae575f80fd5b601f82111561102057805f5260205f20601f840160051c810160208510156118b25750805b601f840160051c820191505b818110156118d1575f81556001016118be565b5050505050565b815167ffffffffffffffff8111156118f2576118f26113f8565b61190681611900845461183c565b8461188d565b602080601f831160018114611939575f84156119225750858301515b5f19600386901b1c1916600185901b178555611990565b5f85815260208120601f198616915b8281101561196757888601518255948401946001909101908401611948565b508582101561198457878501515f19600388901b60f8161c191681555b505060018460011b0185555b505050505050565b5f60808201868352602086818501526080604085015281865180845260a08601915082880193505f5b818110156119dd578451835293830193918301916001016119c1565b5050848103606086015285518082528282019350600581901b820183018388015f5b83811015611a2d57601f19858403018752611a1b83835161136e565b968601969250908501906001016119ff565b50909b9a5050505050505050505050565b634e487b7160e01b5f52603260045260245ffd5b808201808211156105b857634e487b7160e01b5f52601160045260245ffdfea26469706673582212207956a78635694e743e5e09d71bc9930fde7d0cc90fcd8130aa3eff777afd25e564736f6c63430008190033a26469706673582212209daf13ffc05a4d3d45e834c6144efe1e9ad44920b2882f32bf8d979efc5387ce64736f6c63430008190033",
			"opcodes": "PUSH1 0xC0 PUSH1 0x40 MSTORE PUSH3 0x7A120 PUSH1 0xF SSTORE PUSH7 0x2B1B7F20E35D2 PUSH1 0x10 SSTORE CALLVALUE DUP1 ISZERO PUSH2 0x21 JUMPI PUSH0 DUP1 REVERT JUMPDEST POP PUSH1 0x40 MLOAD PUSH2 0x556C CODESIZE SUB DUP1 PUSH2 0x556C DUP4 CODECOPY DUP2 ADD PUSH1 0x40 DUP2 SWAP1 MSTORE PUSH2 0x40 SWAP2 PUSH2 0x1E3 JUMP JUMPDEST DUP2 CALLER DUP2 DUP2 DUP1 DUP1 PUSH2 0x69 JUMPI PUSH1 0x40 MLOAD PUSH4 0x1E4FBDF7 PUSH1 0xE0 SHL DUP2 MSTORE PUSH0 PUSH1 0x4 DUP3 ADD MSTORE PUSH1 0x24 ADD PUSH1 0x40 MLOAD DUP1 SWAP2 SUB SWAP1 REVERT JUMPDEST PUSH2 0x72 DUP2 PUSH2 0x179 JUMP JUMPDEST POP PUSH1 0x1 PUSH1 0x1 PUSH1 0xA0 SHL SUB DUP1 DUP4 AND PUSH1 0x80 MSTORE DUP2 AND PUSH2 0xA0 JUMPI PUSH1 0x40 MLOAD PUSH4 0x2D618D81 PUSH1 0xE2 SHL DUP2 MSTORE PUSH1 0x4 ADD PUSH1 0x40 MLOAD DUP1 SWAP2 SUB SWAP1 REVERT JUMPDEST PUSH1 0x80 MLOAD PUSH1 0x40 MLOAD PUSH4 0xCA5EB5E1 PUSH1 0xE0 SHL DUP2 MSTORE PUSH1 0x1 PUSH1 0x1 PUSH1 0xA0 SHL SUB DUP4 DUP2 AND PUSH1 0x4 DUP4 ADD MSTORE SWAP1 SWAP2 AND SWAP1 PUSH4 0xCA5EB5E1 SWAP1 PUSH1 0x24 ADD PUSH0 PUSH1 0x40 MLOAD DUP1 DUP4 SUB DUP2 PUSH0 DUP8 DUP1 EXTCODESIZE ISZERO DUP1 ISZERO PUSH2 0xE4 JUMPI PUSH0 DUP1 REVERT JUMPDEST POP GAS CALL ISZERO DUP1 ISZERO PUSH2 0xF6 JUMPI RETURNDATASIZE PUSH0 DUP1 RETURNDATACOPY RETURNDATASIZE PUSH0 REVERT JUMPDEST POP POP PUSH1 0x2 DUP1 SLOAD PUSH1 0x1 PUSH1 0x1 PUSH1 0xA0 SHL SUB SWAP15 DUP16 AND PUSH1 0x1 PUSH1 0x1 PUSH1 0xA0 SHL SUB NOT SWAP2 DUP3 AND OR SWAP1 SWAP2 SSTORE PUSH1 0x3 DUP1 SLOAD SWAP14 DUP16 AND SWAP14 DUP3 AND SWAP14 SWAP1 SWAP14 OR SWAP1 SWAP13 SSTORE POP POP PUSH1 0x6 DUP1 SLOAD SWAP6 DUP13 AND SWAP6 DUP12 AND SWAP6 SWAP1 SWAP6 OR SWAP1 SWAP5 SSTORE POP POP PUSH1 0x4 DUP1 SLOAD SWAP7 DUP10 AND SWAP7 DUP9 AND SWAP7 SWAP1 SWAP7 OR SWAP1 SWAP6 SSTORE POP PUSH1 0x5 DUP1 SLOAD SWAP4 DUP8 AND SWAP4 DUP7 AND SWAP4 SWAP1 SWAP4 OR SWAP1 SWAP3 SSTORE PUSH1 0xD DUP1 SLOAD SWAP2 DUP7 AND SWAP2 SWAP1 SWAP5 AND OR SWAP1 SWAP3 SSTORE POP AND PUSH1 0xA0 MSTORE PUSH2 0x264 JUMP JUMPDEST PUSH0 DUP1 SLOAD PUSH1 0x1 PUSH1 0x1 PUSH1 0xA0 SHL SUB DUP4 DUP2 AND PUSH1 0x1 PUSH1 0x1 PUSH1 0xA0 SHL SUB NOT DUP4 AND DUP2 OR DUP5 SSTORE PUSH1 0x40 MLOAD SWAP2 SWAP1 SWAP3 AND SWAP3 DUP4 SWAP2 PUSH32 0x8BE0079C531659141344CD1FD0A4F28419497F9722A3DAAFE3B4186F6B6457E0 SWAP2 SWAP1 LOG3 POP POP JUMP JUMPDEST DUP1 MLOAD PUSH1 0x1 PUSH1 0x1 PUSH1 0xA0 SHL SUB DUP2 AND DUP2 EQ PUSH2 0x1DE JUMPI PUSH0 DUP1 REVERT JUMPDEST SWAP2 SWAP1 POP JUMP JUMPDEST PUSH0 DUP1 PUSH0 DUP1 PUSH0 DUP1 PUSH0 PUSH1 0xE0 DUP9 DUP11 SUB SLT ISZERO PUSH2 0x1F9 JUMPI PUSH0 DUP1 REVERT JUMPDEST PUSH2 0x202 DUP9 PUSH2 0x1C8 JUMP JUMPDEST SWAP7 POP PUSH2 0x210 PUSH1 0x20 DUP10 ADD PUSH2 0x1C8 JUMP JUMPDEST SWAP6 POP PUSH2 0x21E PUSH1 0x40 DUP10 ADD PUSH2 0x1C8 JUMP JUMPDEST SWAP5 POP PUSH2 0x22C PUSH1 0x60 DUP10 ADD PUSH2 0x1C8 JUMP JUMPDEST SWAP4 POP PUSH2 0x23A PUSH1 0x80 DUP10 ADD PUSH2 0x1C8 JUMP JUMPDEST SWAP3 POP PUSH2 0x248 PUSH1 0xA0 DUP10 ADD PUSH2 0x1C8 JUMP JUMPDEST SWAP2 POP PUSH2 0x256 PUSH1 0xC0 DUP10 ADD PUSH2 0x1C8 JUMP JUMPDEST SWAP1 POP SWAP3 SWAP6 SWAP9 SWAP2 SWAP5 SWAP8 POP SWAP3 SWAP6 POP JUMP JUMPDEST PUSH1 0x80 MLOAD PUSH1 0xA0 MLOAD PUSH2 0x52C4 PUSH2 0x2A8 PUSH0 CODECOPY PUSH0 DUP2 DUP2 PUSH2 0x722 ADD MSTORE DUP2 DUP2 PUSH2 0x16F2 ADD MSTORE PUSH2 0x18D7 ADD MSTORE PUSH0 DUP2 DUP2 PUSH2 0x483 ADD MSTORE DUP2 DUP2 PUSH2 0x8EF ADD MSTORE DUP2 DUP2 PUSH2 0x13DC ADD MSTORE PUSH2 0x158B ADD MSTORE PUSH2 0x52C4 PUSH0 RETURN INVALID PUSH1 0x80 PUSH1 0x40 MSTORE PUSH1 0x4 CALLDATASIZE LT PUSH2 0x257 JUMPI PUSH0 CALLDATALOAD PUSH1 0xE0 SHR DUP1 PUSH4 0x7D25A05E GT PUSH2 0x13F JUMPI DUP1 PUSH4 0xBB0B6A53 GT PUSH2 0xB3 JUMPI DUP1 PUSH4 0xDBF0B01A GT PUSH2 0x78 JUMPI DUP1 PUSH4 0xDBF0B01A EQ PUSH2 0x7FD JUMPI DUP1 PUSH4 0xEAD4C477 EQ PUSH2 0x834 JUMPI DUP1 PUSH4 0xECF7A79D EQ PUSH2 0x862 JUMPI DUP1 PUSH4 0xF2FDE38B EQ PUSH2 0x890 JUMPI DUP1 PUSH4 0xF476B41A EQ PUSH2 0x8AF JUMPI DUP1 PUSH4 0xFF7BD03D EQ PUSH2 0x8CE JUMPI PUSH0 DUP1 REVERT JUMPDEST DUP1 PUSH4 0xBB0B6A53 EQ PUSH2 0x756 JUMPI DUP1 PUSH4 0xC06AC447 EQ PUSH2 0x781 JUMPI DUP1 PUSH4 0xCA5EB5E1 EQ PUSH2 0x7A0 JUMPI DUP1 PUSH4 0xD1E90A7C EQ PUSH2 0x7BF JUMPI DUP1 PUSH4 0xD8078B8A EQ PUSH2 0x7DE JUMPI PUSH0 DUP1 REVERT JUMPDEST DUP1 PUSH4 0x982C26D4 GT PUSH2 0x104 JUMPI DUP1 PUSH4 0x982C26D4 EQ PUSH2 0x69F JUMPI DUP1 PUSH4 0xA16D5960 EQ PUSH2 0x6C0 JUMPI DUP1 PUSH4 0xA6AC3DB6 EQ PUSH2 0x6DF JUMPI DUP1 PUSH4 0xA7DBB845 EQ PUSH2 0x6F2 JUMPI DUP1 PUSH4 0xB353AAA7 EQ PUSH2 0x711 JUMPI DUP1 PUSH4 0xB92D0EFF EQ PUSH2 0x744 JUMPI PUSH0 DUP1 REVERT JUMPDEST DUP1 PUSH4 0x7D25A05E EQ PUSH2 0x5D8 JUMPI DUP1 PUSH4 0x82C325D2 EQ PUSH2 0x60F JUMPI DUP1 PUSH4 0x8DA5CB5B EQ PUSH2 0x62D JUMPI DUP1 PUSH4 0x8FB84F31 EQ PUSH2 0x649 JUMPI DUP1 PUSH4 0x9231174E EQ PUSH2 0x680 JUMPI PUSH0 DUP1 REVERT JUMPDEST DUP1 PUSH4 0x3400288B GT PUSH2 0x1D6 JUMPI DUP1 PUSH4 0x628CDA6D GT PUSH2 0x19B JUMPI DUP1 PUSH4 0x628CDA6D EQ PUSH2 0x4A5 JUMPI DUP1 PUSH4 0x65C3CD58 EQ PUSH2 0x4C4 JUMPI DUP1 PUSH4 0x6988B7C7 EQ PUSH2 0x4E3 JUMPI DUP1 PUSH4 0x6E3F5447 EQ PUSH2 0x586 JUMPI DUP1 PUSH4 0x715018A6 EQ PUSH2 0x5A5 JUMPI DUP1 PUSH4 0x7255F81B EQ PUSH2 0x5B9 JUMPI PUSH0 DUP1 REVERT JUMPDEST DUP1 PUSH4 0x3400288B EQ PUSH2 0x417 JUMPI DUP1 PUSH4 0x3A135554 EQ PUSH2 0x436 JUMPI DUP1 PUSH4 0x3A3E8443 EQ PUSH2 0x449 JUMPI DUP1 PUSH4 0x5609B29D EQ PUSH2 0x45D JUMPI DUP1 PUSH4 0x5E280F11 EQ PUSH2 0x472 JUMPI PUSH0 DUP1 REVERT JUMPDEST DUP1 PUSH4 0x290DFDB2 GT PUSH2 0x21C JUMPI DUP1 PUSH4 0x290DFDB2 EQ PUSH2 0x356 JUMPI DUP1 PUSH4 0x29EF0DC7 EQ PUSH2 0x38D JUMPI DUP1 PUSH4 0x2CDCD190 EQ PUSH2 0x3B0 JUMPI DUP1 PUSH4 0x3013CE29 EQ PUSH2 0x3D9 JUMPI DUP1 PUSH4 0x31263AE1 EQ PUSH2 0x3F8 JUMPI PUSH0 DUP1 REVERT JUMPDEST DUP1 PUSH4 0x251E005 EQ PUSH2 0x262 JUMPI DUP1 PUSH4 0x993035C EQ PUSH2 0x2E1 JUMPI DUP1 PUSH4 0x13137D65 EQ PUSH2 0x302 JUMPI DUP1 PUSH4 0x17442B70 EQ PUSH2 0x315 JUMPI DUP1 PUSH4 0x272A58D2 EQ PUSH2 0x335 JUMPI PUSH0 DUP1 REVERT JUMPDEST CALLDATASIZE PUSH2 0x25E JUMPI STOP JUMPDEST PUSH0 DUP1 REVERT JUMPDEST CALLVALUE DUP1 ISZERO PUSH2 0x26D JUMPI PUSH0 DUP1 REVERT JUMPDEST POP PUSH2 0x2AD PUSH2 0x27C CALLDATASIZE PUSH1 0x4 PUSH2 0x2334 JUMP JUMPDEST PUSH1 0xC PUSH1 0x20 MSTORE PUSH0 SWAP1 DUP2 MSTORE PUSH1 0x40 SWAP1 KECCAK256 DUP1 SLOAD PUSH1 0x1 DUP3 ADD SLOAD PUSH1 0x2 DUP4 ADD SLOAD PUSH1 0x3 SWAP1 SWAP4 ADD SLOAD PUSH1 0x1 PUSH1 0x1 PUSH1 0xA0 SHL SUB SWAP3 DUP4 AND SWAP4 SWAP2 SWAP3 AND DUP5 JUMP JUMPDEST PUSH1 0x40 DUP1 MLOAD PUSH1 0x1 PUSH1 0x1 PUSH1 0xA0 SHL SUB SWAP6 DUP7 AND DUP2 MSTORE PUSH1 0x20 DUP2 ADD SWAP5 SWAP1 SWAP5 MSTORE DUP4 ADD SWAP2 SWAP1 SWAP2 MSTORE SWAP1 SWAP2 AND PUSH1 0x60 DUP3 ADD MSTORE PUSH1 0x80 ADD JUMPDEST PUSH1 0x40 MLOAD DUP1 SWAP2 SUB SWAP1 RETURN JUMPDEST CALLVALUE DUP1 ISZERO PUSH2 0x2EC JUMPI PUSH0 DUP1 REVERT JUMPDEST POP PUSH2 0x300 PUSH2 0x2FB CALLDATASIZE PUSH1 0x4 PUSH2 0x2392 JUMP JUMPDEST POP POP POP JUMP JUMPDEST STOP JUMPDEST PUSH2 0x300 PUSH2 0x310 CALLDATASIZE PUSH1 0x4 PUSH2 0x243A JUMP JUMPDEST PUSH2 0x8ED JUMP JUMPDEST CALLVALUE DUP1 ISZERO PUSH2 0x320 JUMPI PUSH0 DUP1 REVERT JUMPDEST POP PUSH1 0x40 DUP1 MLOAD PUSH1 0x1 DUP1 DUP3 MSTORE PUSH1 0x20 DUP3 ADD MSTORE ADD PUSH2 0x2D8 JUMP JUMPDEST CALLVALUE DUP1 ISZERO PUSH2 0x340 JUMPI PUSH0 DUP1 REVERT JUMPDEST POP PUSH2 0x349 PUSH2 0x9AD JUMP JUMPDEST PUSH1 0x40 MLOAD PUSH2 0x2D8 SWAP2 SWAP1 PUSH2 0x2500 JUMP JUMPDEST CALLVALUE DUP1 ISZERO PUSH2 0x361 JUMPI PUSH0 DUP1 REVERT JUMPDEST POP PUSH2 0x375 PUSH2 0x370 CALLDATASIZE PUSH1 0x4 PUSH2 0x2519 JUMP JUMPDEST PUSH2 0xA39 JUMP JUMPDEST PUSH1 0x40 MLOAD PUSH1 0x1 PUSH1 0x1 PUSH1 0xA0 SHL SUB SWAP1 SWAP2 AND DUP2 MSTORE PUSH1 0x20 ADD PUSH2 0x2D8 JUMP JUMPDEST CALLVALUE DUP1 ISZERO PUSH2 0x398 JUMPI PUSH0 DUP1 REVERT JUMPDEST POP PUSH2 0x3A2 PUSH1 0xF SLOAD DUP2 JUMP JUMPDEST PUSH1 0x40 MLOAD SWAP1 DUP2 MSTORE PUSH1 0x20 ADD PUSH2 0x2D8 JUMP JUMPDEST CALLVALUE DUP1 ISZERO PUSH2 0x3BB JUMPI PUSH0 DUP1 REVERT JUMPDEST POP PUSH1 0x8 SLOAD PUSH2 0x3C9 SWAP1 PUSH1 0xFF AND DUP2 JUMP JUMPDEST PUSH1 0x40 MLOAD SWAP1 ISZERO ISZERO DUP2 MSTORE PUSH1 0x20 ADD PUSH2 0x2D8 JUMP JUMPDEST CALLVALUE DUP1 ISZERO PUSH2 0x3E4 JUMPI PUSH0 DUP1 REVERT JUMPDEST POP PUSH1 0x2 SLOAD PUSH2 0x375 SWAP1 PUSH1 0x1 PUSH1 0x1 PUSH1 0xA0 SHL SUB AND DUP2 JUMP JUMPDEST CALLVALUE DUP1 ISZERO PUSH2 0x403 JUMPI PUSH0 DUP1 REVERT JUMPDEST POP PUSH1 0x3 SLOAD PUSH2 0x375 SWAP1 PUSH1 0x1 PUSH1 0x1 PUSH1 0xA0 SHL SUB AND DUP2 JUMP JUMPDEST CALLVALUE DUP1 ISZERO PUSH2 0x422 JUMPI PUSH0 DUP1 REVERT JUMPDEST POP PUSH2 0x300 PUSH2 0x431 CALLDATASIZE PUSH1 0x4 PUSH2 0x25BC JUMP JUMPDEST PUSH2 0xC06 JUMP JUMPDEST PUSH2 0x300 PUSH2 0x444 CALLDATASIZE PUSH1 0x4 PUSH2 0x27AA JUMP JUMPDEST PUSH2 0xC62 JUMP JUMPDEST CALLVALUE DUP1 ISZERO PUSH2 0x454 JUMPI PUSH0 DUP1 REVERT JUMPDEST POP PUSH1 0xB SLOAD PUSH2 0x3A2 JUMP JUMPDEST CALLVALUE DUP1 ISZERO PUSH2 0x468 JUMPI PUSH0 DUP1 REVERT JUMPDEST POP PUSH2 0x3A2 PUSH1 0xB SLOAD DUP2 JUMP JUMPDEST CALLVALUE DUP1 ISZERO PUSH2 0x47D JUMPI PUSH0 DUP1 REVERT JUMPDEST POP PUSH2 0x375 PUSH32 0x0 DUP2 JUMP JUMPDEST CALLVALUE DUP1 ISZERO PUSH2 0x4B0 JUMPI PUSH0 DUP1 REVERT JUMPDEST POP PUSH1 0x4 SLOAD PUSH2 0x375 SWAP1 PUSH1 0x1 PUSH1 0x1 PUSH1 0xA0 SHL SUB AND DUP2 JUMP JUMPDEST CALLVALUE DUP1 ISZERO PUSH2 0x4CF JUMPI PUSH0 DUP1 REVERT JUMPDEST POP PUSH1 0xD SLOAD PUSH2 0x375 SWAP1 PUSH1 0x1 PUSH1 0x1 PUSH1 0xA0 SHL SUB AND DUP2 JUMP JUMPDEST CALLVALUE DUP1 ISZERO PUSH2 0x4EE JUMPI PUSH0 DUP1 REVERT JUMPDEST POP PUSH1 0x11 SLOAD PUSH1 0x12 SLOAD PUSH1 0x13 SLOAD PUSH1 0x14 SLOAD PUSH2 0x539 SWAP4 PUSH1 0x1 PUSH1 0x1 PUSH1 0xA0 SHL SUB AND SWAP3 SWAP2 SWAP1 PUSH1 0xFF DUP1 DUP3 AND SWAP2 PUSH2 0x100 DUP2 DIV DUP3 AND SWAP2 PUSH3 0x10000 DUP3 DIV DUP2 AND SWAP2 PUSH4 0x1000000 DUP2 DIV DUP3 AND SWAP2 PUSH5 0x100000000 SWAP1 SWAP2 DIV AND DUP9 JUMP JUMPDEST PUSH1 0x40 DUP1 MLOAD PUSH1 0x1 PUSH1 0x1 PUSH1 0xA0 SHL SUB SWAP1 SWAP10 AND DUP10 MSTORE PUSH1 0x20 DUP10 ADD SWAP8 SWAP1 SWAP8 MSTORE SWAP6 DUP8 ADD SWAP5 SWAP1 SWAP5 MSTORE SWAP2 ISZERO ISZERO PUSH1 0x60 DUP7 ADD MSTORE ISZERO ISZERO PUSH1 0x80 DUP6 ADD MSTORE ISZERO ISZERO PUSH1 0xA0 DUP5 ADD MSTORE ISZERO ISZERO PUSH1 0xC0 DUP4 ADD MSTORE ISZERO ISZERO PUSH1 0xE0 DUP3 ADD MSTORE PUSH2 0x100 ADD PUSH2 0x2D8 JUMP JUMPDEST CALLVALUE DUP1 ISZERO PUSH2 0x591 JUMPI PUSH0 DUP1 REVERT JUMPDEST POP PUSH2 0x300 PUSH2 0x5A0 CALLDATASIZE PUSH1 0x4 PUSH2 0x287D JUMP JUMPDEST PUSH2 0x10EB JUMP JUMPDEST CALLVALUE DUP1 ISZERO PUSH2 0x5B0 JUMPI PUSH0 DUP1 REVERT JUMPDEST POP PUSH2 0x300 PUSH2 0x1106 JUMP JUMPDEST CALLVALUE DUP1 ISZERO PUSH2 0x5C4 JUMPI PUSH0 DUP1 REVERT JUMPDEST POP PUSH2 0x300 PUSH2 0x5D3 CALLDATASIZE PUSH1 0x4 PUSH2 0x2898 JUMP JUMPDEST PUSH2 0x1119 JUMP JUMPDEST CALLVALUE DUP1 ISZERO PUSH2 0x5E3 JUMPI PUSH0 DUP1 REVERT JUMPDEST POP PUSH2 0x5F7 PUSH2 0x5F2 CALLDATASIZE PUSH1 0x4 PUSH2 0x25BC JUMP JUMPDEST PUSH2 0x112E JUMP JUMPDEST PUSH1 0x40 MLOAD PUSH1 0x1 PUSH1 0x1 PUSH1 0x40 SHL SUB SWAP1 SWAP2 AND DUP2 MSTORE PUSH1 0x20 ADD PUSH2 0x2D8 JUMP JUMPDEST CALLVALUE DUP1 ISZERO PUSH2 0x61A JUMPI PUSH0 DUP1 REVERT JUMPDEST POP PUSH2 0x300 PUSH2 0x629 CALLDATASIZE PUSH1 0x4 PUSH2 0x28E2 JUMP JUMPDEST POP POP JUMP JUMPDEST CALLVALUE DUP1 ISZERO PUSH2 0x638 JUMPI PUSH0 DUP1 REVERT JUMPDEST POP PUSH0 SLOAD PUSH1 0x1 PUSH1 0x1 PUSH1 0xA0 SHL SUB AND PUSH2 0x375 JUMP JUMPDEST CALLVALUE DUP1 ISZERO PUSH2 0x654 JUMPI PUSH0 DUP1 REVERT JUMPDEST POP PUSH2 0x3C9 PUSH2 0x663 CALLDATASIZE PUSH1 0x4 PUSH2 0x298F JUMP JUMPDEST PUSH1 0x1 PUSH1 0x1 PUSH1 0xA0 SHL SUB AND PUSH0 SWAP1 DUP2 MSTORE PUSH1 0x9 PUSH1 0x20 MSTORE PUSH1 0x40 SWAP1 KECCAK256 SLOAD PUSH1 0xFF AND SWAP1 JUMP JUMPDEST CALLVALUE DUP1 ISZERO PUSH2 0x68B JUMPI PUSH0 DUP1 REVERT JUMPDEST POP PUSH2 0x300 PUSH2 0x69A CALLDATASIZE PUSH1 0x4 PUSH2 0x2334 JUMP JUMPDEST PUSH2 0x1136 JUMP JUMPDEST CALLVALUE DUP1 ISZERO PUSH2 0x6AA JUMPI PUSH0 DUP1 REVERT JUMPDEST POP PUSH2 0x6B3 PUSH2 0x1143 JUMP JUMPDEST PUSH1 0x40 MLOAD PUSH2 0x2D8 SWAP2 SWAP1 PUSH2 0x29AA JUMP JUMPDEST CALLVALUE DUP1 ISZERO PUSH2 0x6CB JUMPI PUSH0 DUP1 REVERT JUMPDEST POP PUSH2 0x300 PUSH2 0x6DA CALLDATASIZE PUSH1 0x4 PUSH2 0x298F JUMP JUMPDEST PUSH2 0x11A3 JUMP JUMPDEST PUSH2 0x300 PUSH2 0x6ED CALLDATASIZE PUSH1 0x4 PUSH2 0x29F6 JUMP JUMPDEST PUSH2 0x11CD JUMP JUMPDEST CALLVALUE DUP1 ISZERO PUSH2 0x6FD JUMPI PUSH0 DUP1 REVERT JUMPDEST POP PUSH2 0x300 PUSH2 0x70C CALLDATASIZE PUSH1 0x4 PUSH2 0x2A2F JUMP JUMPDEST PUSH2 0x1532 JUMP JUMPDEST CALLVALUE DUP1 ISZERO PUSH2 0x71C JUMPI PUSH0 DUP1 REVERT JUMPDEST POP PUSH2 0x375 PUSH32 0x0 DUP2 JUMP JUMPDEST CALLVALUE DUP1 ISZERO PUSH2 0x74F JUMPI PUSH0 DUP1 REVERT JUMPDEST POP ADDRESS PUSH2 0x375 JUMP JUMPDEST CALLVALUE DUP1 ISZERO PUSH2 0x761 JUMPI PUSH0 DUP1 REVERT JUMPDEST POP PUSH2 0x3A2 PUSH2 0x770 CALLDATASIZE PUSH1 0x4 PUSH2 0x2A66 JUMP JUMPDEST PUSH1 0x1 PUSH1 0x20 MSTORE PUSH0 SWAP1 DUP2 MSTORE PUSH1 0x40 SWAP1 KECCAK256 SLOAD DUP2 JUMP JUMPDEST CALLVALUE DUP1 ISZERO PUSH2 0x78C JUMPI PUSH0 DUP1 REVERT JUMPDEST POP PUSH1 0x5 SLOAD PUSH2 0x375 SWAP1 PUSH1 0x1 PUSH1 0x1 PUSH1 0xA0 SHL SUB AND DUP2 JUMP JUMPDEST CALLVALUE DUP1 ISZERO PUSH2 0x7AB JUMPI PUSH0 DUP1 REVERT JUMPDEST POP PUSH2 0x300 PUSH2 0x7BA CALLDATASIZE PUSH1 0x4 PUSH2 0x298F JUMP JUMPDEST PUSH2 0x1564 JUMP JUMPDEST CALLVALUE DUP1 ISZERO PUSH2 0x7CA JUMPI PUSH0 DUP1 REVERT JUMPDEST POP PUSH1 0x6 SLOAD PUSH2 0x375 SWAP1 PUSH1 0x1 PUSH1 0x1 PUSH1 0xA0 SHL SUB AND DUP2 JUMP JUMPDEST CALLVALUE DUP1 ISZERO PUSH2 0x7E9 JUMPI PUSH0 DUP1 REVERT JUMPDEST POP PUSH2 0x375 PUSH2 0x7F8 CALLDATASIZE PUSH1 0x4 PUSH2 0x2334 JUMP JUMPDEST PUSH2 0x15E5 JUMP JUMPDEST CALLVALUE DUP1 ISZERO PUSH2 0x808 JUMPI PUSH0 DUP1 REVERT JUMPDEST POP PUSH2 0x3C9 PUSH2 0x817 CALLDATASIZE PUSH1 0x4 PUSH2 0x298F JUMP JUMPDEST PUSH1 0x1 PUSH1 0x1 PUSH1 0xA0 SHL SUB AND PUSH0 SWAP1 DUP2 MSTORE PUSH1 0x7 PUSH1 0x20 MSTORE PUSH1 0x40 SWAP1 KECCAK256 SLOAD PUSH1 0xFF AND SWAP1 JUMP JUMPDEST CALLVALUE DUP1 ISZERO PUSH2 0x83F JUMPI PUSH0 DUP1 REVERT JUMPDEST POP PUSH2 0x3C9 PUSH2 0x84E CALLDATASIZE PUSH1 0x4 PUSH2 0x298F JUMP JUMPDEST PUSH1 0x7 PUSH1 0x20 MSTORE PUSH0 SWAP1 DUP2 MSTORE PUSH1 0x40 SWAP1 KECCAK256 SLOAD PUSH1 0xFF AND DUP2 JUMP JUMPDEST CALLVALUE DUP1 ISZERO PUSH2 0x86D JUMPI PUSH0 DUP1 REVERT JUMPDEST POP PUSH2 0x3C9 PUSH2 0x87C CALLDATASIZE PUSH1 0x4 PUSH2 0x298F JUMP JUMPDEST PUSH1 0x9 PUSH1 0x20 MSTORE PUSH0 SWAP1 DUP2 MSTORE PUSH1 0x40 SWAP1 KECCAK256 SLOAD PUSH1 0xFF AND DUP2 JUMP JUMPDEST CALLVALUE DUP1 ISZERO PUSH2 0x89B JUMPI PUSH0 DUP1 REVERT JUMPDEST POP PUSH2 0x300 PUSH2 0x8AA CALLDATASIZE PUSH1 0x4 PUSH2 0x298F JUMP JUMPDEST PUSH2 0x160D JUMP JUMPDEST CALLVALUE DUP1 ISZERO PUSH2 0x8BA JUMPI PUSH0 DUP1 REVERT JUMPDEST POP PUSH2 0x375 PUSH2 0x8C9 CALLDATASIZE PUSH1 0x4 PUSH2 0x2334 JUMP JUMPDEST PUSH2 0x164A JUMP JUMPDEST CALLVALUE DUP1 ISZERO PUSH2 0x8D9 JUMPI PUSH0 DUP1 REVERT JUMPDEST POP PUSH2 0x3C9 PUSH2 0x8E8 CALLDATASIZE PUSH1 0x4 PUSH2 0x2A81 JUMP JUMPDEST PUSH2 0x1678 JUMP JUMPDEST PUSH32 0x0 PUSH1 0x1 PUSH1 0x1 PUSH1 0xA0 SHL SUB AND CALLER EQ PUSH2 0x93D JUMPI PUSH1 0x40 MLOAD PUSH4 0x91AC5E4F PUSH1 0xE0 SHL DUP2 MSTORE CALLER PUSH1 0x4 DUP3 ADD MSTORE PUSH1 0x24 ADD JUMPDEST PUSH1 0x40 MLOAD DUP1 SWAP2 SUB SWAP1 REVERT JUMPDEST PUSH1 0x20 DUP8 ADD DUP1 CALLDATALOAD SWAP1 PUSH2 0x957 SWAP1 PUSH2 0x952 SWAP1 DUP11 PUSH2 0x2A66 JUMP JUMPDEST PUSH2 0x16AC JUMP JUMPDEST EQ PUSH2 0x995 JUMPI PUSH2 0x969 PUSH1 0x20 DUP9 ADD DUP9 PUSH2 0x2A66 JUMP JUMPDEST PUSH1 0x40 MLOAD PUSH4 0x309AFAF3 PUSH1 0xE2 SHL DUP2 MSTORE PUSH4 0xFFFFFFFF SWAP1 SWAP2 AND PUSH1 0x4 DUP3 ADD MSTORE PUSH1 0x20 DUP9 ADD CALLDATALOAD PUSH1 0x24 DUP3 ADD MSTORE PUSH1 0x44 ADD PUSH2 0x934 JUMP JUMPDEST PUSH2 0x9A4 DUP8 DUP8 DUP8 DUP8 DUP8 DUP8 DUP8 PUSH2 0x16E7 JUMP JUMPDEST POP POP POP POP POP POP POP JUMP JUMPDEST PUSH1 0xE DUP1 SLOAD PUSH2 0x9BA SWAP1 PUSH2 0x2A9B JUMP JUMPDEST DUP1 PUSH1 0x1F ADD PUSH1 0x20 DUP1 SWAP2 DIV MUL PUSH1 0x20 ADD PUSH1 0x40 MLOAD SWAP1 DUP2 ADD PUSH1 0x40 MSTORE DUP1 SWAP3 SWAP2 SWAP1 DUP2 DUP2 MSTORE PUSH1 0x20 ADD DUP3 DUP1 SLOAD PUSH2 0x9E6 SWAP1 PUSH2 0x2A9B JUMP JUMPDEST DUP1 ISZERO PUSH2 0xA31 JUMPI DUP1 PUSH1 0x1F LT PUSH2 0xA08 JUMPI PUSH2 0x100 DUP1 DUP4 SLOAD DIV MUL DUP4 MSTORE SWAP2 PUSH1 0x20 ADD SWAP2 PUSH2 0xA31 JUMP JUMPDEST DUP3 ADD SWAP2 SWAP1 PUSH0 MSTORE PUSH1 0x20 PUSH0 KECCAK256 SWAP1 JUMPDEST DUP2 SLOAD DUP2 MSTORE SWAP1 PUSH1 0x1 ADD SWAP1 PUSH1 0x20 ADD DUP1 DUP4 GT PUSH2 0xA14 JUMPI DUP3 SWAP1 SUB PUSH1 0x1F AND DUP3 ADD SWAP2 JUMPDEST POP POP POP POP POP DUP2 JUMP JUMPDEST CALLER PUSH0 SWAP1 DUP2 MSTORE PUSH1 0x7 PUSH1 0x20 MSTORE PUSH1 0x40 DUP2 KECCAK256 SLOAD PUSH1 0xFF AND PUSH2 0xA97 JUMPI PUSH1 0x40 MLOAD PUSH3 0x461BCD PUSH1 0xE5 SHL DUP2 MSTORE PUSH1 0x20 PUSH1 0x4 DUP3 ADD MSTORE PUSH1 0x1E PUSH1 0x24 DUP3 ADD MSTORE PUSH32 0x536C696365436F72653A20556E617574686F72697A65642063616C6C65720000 PUSH1 0x44 DUP3 ADD MSTORE PUSH1 0x64 ADD PUSH2 0x934 JUMP JUMPDEST PUSH1 0x8 SLOAD PUSH1 0xFF AND PUSH2 0xAFA JUMPI PUSH1 0x40 MLOAD PUSH3 0x461BCD PUSH1 0xE5 SHL DUP2 MSTORE PUSH1 0x20 PUSH1 0x4 DUP3 ADD MSTORE PUSH1 0x28 PUSH1 0x24 DUP3 ADD MSTORE PUSH32 0x536C696365436F72653A20536C69636520746F6B656E206372656174696F6E20 PUSH1 0x44 DUP3 ADD MSTORE PUSH8 0x191A5CD8589B1959 PUSH1 0xC2 SHL PUSH1 0x64 DUP3 ADD MSTORE PUSH1 0x84 ADD PUSH2 0x934 JUMP JUMPDEST PUSH0 DUP8 DUP8 DUP8 DUP8 DUP8 DUP8 PUSH1 0x2 PUSH0 SWAP1 SLOAD SWAP1 PUSH2 0x100 EXP SWAP1 DIV PUSH1 0x1 PUSH1 0x1 PUSH1 0xA0 SHL SUB AND ADDRESS PUSH1 0x40 MLOAD PUSH2 0xB23 SWAP1 PUSH2 0x2327 JUMP JUMPDEST PUSH2 0xB34 SWAP9 SWAP8 SWAP7 SWAP6 SWAP5 SWAP4 SWAP3 SWAP2 SWAP1 PUSH2 0x2AF5 JUMP JUMPDEST PUSH1 0x40 MLOAD DUP1 SWAP2 SUB SWAP1 PUSH0 CREATE DUP1 ISZERO DUP1 ISZERO PUSH2 0xB4D JUMPI RETURNDATASIZE PUSH0 DUP1 RETURNDATACOPY RETURNDATASIZE PUSH0 REVERT JUMPDEST POP PUSH1 0x1 PUSH1 0x1 PUSH1 0xA0 SHL SUB DUP2 AND PUSH0 DUP2 DUP2 MSTORE PUSH1 0x9 PUSH1 0x20 MSTORE PUSH1 0x40 DUP2 KECCAK256 DUP1 SLOAD PUSH1 0xFF NOT AND PUSH1 0x1 SWAP1 DUP2 OR SWAP1 SWAP2 SSTORE PUSH1 0xA DUP1 SLOAD SWAP2 DUP3 ADD DUP2 SSTORE DUP3 MSTORE PUSH32 0xC65A7BB8D6351C1CF70C95A316CC6A92839C986682D98BC35F958F4883F9D2A8 ADD DUP1 SLOAD PUSH1 0x1 PUSH1 0x1 PUSH1 0xA0 SHL SUB NOT AND SWAP1 SWAP3 OR SWAP1 SWAP2 SSTORE PUSH1 0xB DUP1 SLOAD SWAP3 SWAP4 POP SWAP1 PUSH2 0xBC3 DUP4 PUSH2 0x2BC0 JUMP JUMPDEST SWAP1 SWAP2 SSTORE POP POP PUSH1 0x40 MLOAD PUSH1 0x1 PUSH1 0x1 PUSH1 0xA0 SHL SUB DUP3 AND SWAP1 PUSH32 0xB857149A33D1D8F31A903329294F61770C4562939C36B9421C5867347C14BCE SWAP1 PUSH0 SWAP1 LOG2 SWAP8 SWAP7 POP POP POP POP POP POP POP JUMP JUMPDEST PUSH2 0xC0E PUSH2 0x1BCE JUMP JUMPDEST PUSH4 0xFFFFFFFF DUP3 AND PUSH0 DUP2 DUP2 MSTORE PUSH1 0x1 PUSH1 0x20 SWAP1 DUP2 MSTORE PUSH1 0x40 SWAP2 DUP3 SWAP1 KECCAK256 DUP5 SWAP1 SSTORE DUP2 MLOAD SWAP3 DUP4 MSTORE DUP3 ADD DUP4 SWAP1 MSTORE PUSH32 0x238399D427B947898EDB290F5FF0F9109849B1C3BA196A42E35F00C50A54B98B SWAP2 ADD PUSH1 0x40 MLOAD DUP1 SWAP2 SUB SWAP1 LOG1 POP POP JUMP JUMPDEST CALLER PUSH0 SWAP1 DUP2 MSTORE PUSH1 0x9 PUSH1 0x20 MSTORE PUSH1 0x40 SWAP1 KECCAK256 SLOAD PUSH1 0xFF AND PUSH2 0xCD8 JUMPI PUSH1 0x40 MLOAD PUSH3 0x461BCD PUSH1 0xE5 SHL DUP2 MSTORE PUSH1 0x20 PUSH1 0x4 DUP3 ADD MSTORE PUSH1 0x2F PUSH1 0x24 DUP3 ADD MSTORE PUSH32 0x536C696365436F72653A204F6E6C79207265676973746572656420536C696365 PUSH1 0x44 DUP3 ADD MSTORE PUSH15 0x81D1BDAD95B8818D85B8818D85B1B PUSH1 0x8A SHL PUSH1 0x64 DUP3 ADD MSTORE PUSH1 0x84 ADD PUSH2 0x934 JUMP JUMPDEST PUSH2 0xCE1 DUP3 PUSH2 0x1BFA JUMP JUMPDEST PUSH1 0x2 SLOAD PUSH1 0x40 MLOAD PUSH4 0x70A08231 PUSH1 0xE0 SHL DUP2 MSTORE ADDRESS PUSH1 0x4 DUP3 ADD MSTORE PUSH1 0x1 PUSH1 0x1 PUSH1 0xA0 SHL SUB SWAP1 SWAP2 AND SWAP1 PUSH4 0x70A08231 SWAP1 PUSH1 0x24 ADD PUSH1 0x20 PUSH1 0x40 MLOAD DUP1 DUP4 SUB DUP2 DUP7 GAS STATICCALL ISZERO DUP1 ISZERO PUSH2 0xD27 JUMPI RETURNDATASIZE PUSH0 DUP1 RETURNDATACOPY RETURNDATASIZE PUSH0 REVERT JUMPDEST POP POP POP POP PUSH1 0x40 MLOAD RETURNDATASIZE PUSH1 0x1F NOT PUSH1 0x1F DUP3 ADD AND DUP3 ADD DUP1 PUSH1 0x40 MSTORE POP DUP2 ADD SWAP1 PUSH2 0xD4B SWAP2 SWAP1 PUSH2 0x2BD8 JUMP JUMPDEST LT ISZERO PUSH2 0xDBF JUMPI PUSH1 0x40 MLOAD PUSH3 0x461BCD PUSH1 0xE5 SHL DUP2 MSTORE PUSH1 0x20 PUSH1 0x4 DUP3 ADD MSTORE PUSH1 0x3A PUSH1 0x24 DUP3 ADD MSTORE PUSH32 0x536C696365436F72653A204D617820657374696D61746564207072696365206E PUSH1 0x44 DUP3 ADD MSTORE PUSH32 0x6F74207472616E7366657272656420746F20636F6E7472616374000000000000 PUSH1 0x64 DUP3 ADD MSTORE PUSH1 0x84 ADD PUSH2 0x934 JUMP JUMPDEST PUSH1 0x40 MLOAD PUSH4 0xA2CE9C1F PUSH1 0xE0 SHL DUP2 MSTORE PUSH1 0x4 DUP2 ADD DUP6 SWAP1 MSTORE PUSH0 SWAP1 CALLER SWAP1 PUSH4 0xA2CE9C1F SWAP1 PUSH1 0x24 ADD PUSH0 PUSH1 0x40 MLOAD DUP1 DUP4 SUB DUP2 DUP7 GAS STATICCALL ISZERO DUP1 ISZERO PUSH2 0xDFA JUMPI RETURNDATASIZE PUSH0 DUP1 RETURNDATACOPY RETURNDATASIZE PUSH0 REVERT JUMPDEST POP POP POP POP PUSH1 0x40 MLOAD RETURNDATASIZE PUSH0 DUP3 RETURNDATACOPY PUSH1 0x1F RETURNDATASIZE SWAP1 DUP2 ADD PUSH1 0x1F NOT AND DUP3 ADD PUSH1 0x40 MSTORE PUSH2 0xE21 SWAP2 SWAP1 DUP2 ADD SWAP1 PUSH2 0x2C4C JUMP JUMPDEST DUP1 MLOAD SWAP1 SWAP2 POP DUP6 EQ PUSH2 0xE7E JUMPI PUSH1 0x40 MLOAD PUSH3 0x461BCD PUSH1 0xE5 SHL DUP2 MSTORE PUSH1 0x20 PUSH1 0x4 DUP3 ADD MSTORE PUSH1 0x21 PUSH1 0x24 DUP3 ADD MSTORE PUSH32 0x536C696365436F72653A204D696E7420494420646F6573206E6F742065786973 PUSH1 0x44 DUP3 ADD MSTORE PUSH1 0x1D PUSH1 0xFA SHL PUSH1 0x64 DUP3 ADD MSTORE PUSH1 0x84 ADD PUSH2 0x934 JUMP JUMPDEST PUSH0 DUP6 DUP2 MSTORE PUSH1 0xC PUSH1 0x20 MSTORE PUSH1 0x40 DUP1 DUP3 KECCAK256 DUP1 SLOAD CALLER PUSH1 0x1 PUSH1 0x1 PUSH1 0xA0 SHL SUB NOT SWAP2 DUP3 AND DUP2 OR DUP4 SSTORE PUSH1 0x2 DUP4 ADD DUP10 SWAP1 SSTORE DUP6 DUP5 ADD MLOAD PUSH1 0x3 SWAP1 SWAP4 ADD DUP1 SLOAD SWAP1 SWAP3 AND PUSH1 0x1 PUSH1 0x1 PUSH1 0xA0 SHL SUB SWAP1 SWAP4 AND SWAP3 SWAP1 SWAP3 OR SWAP1 SSTORE DUP2 MLOAD PUSH4 0x4013AC3 PUSH1 0xE5 SHL DUP2 MSTORE SWAP2 MLOAD SWAP1 SWAP2 PUSH4 0x80275860 SWAP2 PUSH1 0x4 DUP1 DUP4 ADD SWAP3 DUP7 SWAP3 SWAP2 SWAP1 DUP3 SWAP1 SUB ADD DUP2 DUP7 GAS STATICCALL ISZERO DUP1 ISZERO PUSH2 0xEFC JUMPI RETURNDATASIZE PUSH0 DUP1 RETURNDATACOPY RETURNDATASIZE PUSH0 REVERT JUMPDEST POP POP POP POP PUSH1 0x40 MLOAD RETURNDATASIZE PUSH0 DUP3 RETURNDATACOPY PUSH1 0x1F RETURNDATASIZE SWAP1 DUP2 ADD PUSH1 0x1F NOT AND DUP3 ADD PUSH1 0x40 MSTORE PUSH2 0xF23 SWAP2 SWAP1 DUP2 ADD SWAP1 PUSH2 0x2CED JUMP JUMPDEST SWAP1 POP PUSH0 JUMPDEST DUP2 MLOAD DUP2 LT ISZERO PUSH2 0x1043 JUMPI PUSH2 0xF53 DUP3 DUP3 DUP2 MLOAD DUP2 LT PUSH2 0xF45 JUMPI PUSH2 0xF45 PUSH2 0x2DAC JUMP JUMPDEST PUSH1 0x20 MUL PUSH1 0x20 ADD ADD MLOAD MLOAD CHAINID EQ SWAP1 JUMP JUMPDEST ISZERO PUSH2 0xFE1 JUMPI PUSH0 PUSH2 0xFB1 CALLER DUP9 DUP9 DUP6 DUP2 MLOAD DUP2 LT PUSH2 0xF70 JUMPI PUSH2 0xF70 PUSH2 0x2DAC JUMP JUMPDEST PUSH1 0x20 MUL PUSH1 0x20 ADD ADD MLOAD DUP7 DUP7 DUP2 MLOAD DUP2 LT PUSH2 0xF8A JUMPI PUSH2 0xF8A PUSH2 0x2DAC JUMP JUMPDEST PUSH1 0x20 MUL PUSH1 0x20 ADD ADD MLOAD DUP10 DUP8 DUP2 MLOAD DUP2 LT PUSH2 0xFA4 JUMPI PUSH2 0xFA4 PUSH2 0x2DAC JUMP JUMPDEST PUSH1 0x20 MUL PUSH1 0x20 ADD ADD MLOAD PUSH2 0x1C3B JUMP JUMPDEST SWAP1 POP DUP1 ISZERO PUSH2 0xFDB JUMPI PUSH0 DUP9 DUP2 MSTORE PUSH1 0xC PUSH1 0x20 MSTORE PUSH1 0x40 DUP2 KECCAK256 PUSH1 0x1 ADD DUP1 SLOAD SWAP2 PUSH2 0xFD5 DUP4 PUSH2 0x2BC0 JUMP JUMPDEST SWAP2 SWAP1 POP SSTORE POP JUMPDEST POP PUSH2 0x103B JUMP JUMPDEST PUSH2 0x103B DUP8 CALLER DUP9 DUP9 DUP6 DUP2 MLOAD DUP2 LT PUSH2 0xFF9 JUMPI PUSH2 0xFF9 PUSH2 0x2DAC JUMP JUMPDEST PUSH1 0x20 MUL PUSH1 0x20 ADD ADD MLOAD DUP7 DUP7 DUP2 MLOAD DUP2 LT PUSH2 0x1013 JUMPI PUSH2 0x1013 PUSH2 0x2DAC JUMP JUMPDEST PUSH1 0x20 MUL PUSH1 0x20 ADD ADD MLOAD DUP9 DUP11 DUP9 DUP2 MLOAD DUP2 LT PUSH2 0x102E JUMPI PUSH2 0x102E PUSH2 0x2DAC JUMP JUMPDEST PUSH1 0x20 MUL PUSH1 0x20 ADD ADD MLOAD PUSH2 0x1DFF JUMP JUMPDEST PUSH1 0x1 ADD PUSH2 0xF27 JUMP JUMPDEST POP PUSH2 0x104D DUP7 PUSH2 0x206E JUMP JUMPDEST ISZERO PUSH2 0x10E3 JUMPI DUP2 PUSH1 0x40 ADD MLOAD PUSH1 0x1 PUSH1 0x1 PUSH1 0xA0 SHL SUB AND DUP6 CALLER PUSH1 0x1 PUSH1 0x1 PUSH1 0xA0 SHL SUB AND PUSH32 0x57906F264053DF400DECF287D5DF71541AB514D475435B80E96A2588B4C4B397 PUSH1 0x40 MLOAD PUSH1 0x40 MLOAD DUP1 SWAP2 SUB SWAP1 LOG4 PUSH1 0x40 MLOAD PUSH3 0x5D483 PUSH1 0xED SHL DUP2 MSTORE PUSH1 0x4 DUP2 ADD DUP8 SWAP1 MSTORE CALLER SWAP1 PUSH4 0xBA906000 SWAP1 PUSH1 0x24 ADD PUSH0 PUSH1 0x40 MLOAD DUP1 DUP4 SUB DUP2 PUSH0 DUP8 DUP1 EXTCODESIZE ISZERO DUP1 ISZERO PUSH2 0x10CC JUMPI PUSH0 DUP1 REVERT JUMPDEST POP GAS CALL ISZERO DUP1 ISZERO PUSH2 0x10DE JUMPI RETURNDATASIZE PUSH0 DUP1 RETURNDATACOPY RETURNDATASIZE PUSH0 REVERT JUMPDEST POP POP POP POP JUMPDEST POP POP POP POP POP POP JUMP JUMPDEST PUSH2 0x10F3 PUSH2 0x1BCE JUMP JUMPDEST PUSH1 0x8 DUP1 SLOAD PUSH1 0xFF NOT AND SWAP2 ISZERO ISZERO SWAP2 SWAP1 SWAP2 OR SWAP1 SSTORE JUMP JUMPDEST PUSH2 0x110E PUSH2 0x1BCE JUMP JUMPDEST PUSH2 0x1117 PUSH0 PUSH2 0x211E JUMP JUMPDEST JUMP JUMPDEST PUSH2 0x1121 PUSH2 0x1BCE JUMP JUMPDEST PUSH1 0xE PUSH2 0x2FB DUP3 DUP5 DUP4 PUSH2 0x2E04 JUMP JUMPDEST PUSH0 JUMPDEST SWAP3 SWAP2 POP POP JUMP JUMPDEST PUSH2 0x113E PUSH2 0x1BCE JUMP JUMPDEST PUSH1 0xF SSTORE JUMP JUMPDEST PUSH1 0x60 PUSH1 0xA DUP1 SLOAD DUP1 PUSH1 0x20 MUL PUSH1 0x20 ADD PUSH1 0x40 MLOAD SWAP1 DUP2 ADD PUSH1 0x40 MSTORE DUP1 SWAP3 SWAP2 SWAP1 DUP2 DUP2 MSTORE PUSH1 0x20 ADD DUP3 DUP1 SLOAD DUP1 ISZERO PUSH2 0x1199 JUMPI PUSH1 0x20 MUL DUP3 ADD SWAP2 SWAP1 PUSH0 MSTORE PUSH1 0x20 PUSH0 KECCAK256 SWAP1 JUMPDEST DUP2 SLOAD PUSH1 0x1 PUSH1 0x1 PUSH1 0xA0 SHL SUB AND DUP2 MSTORE PUSH1 0x1 SWAP1 SWAP2 ADD SWAP1 PUSH1 0x20 ADD DUP1 DUP4 GT PUSH2 0x117B JUMPI JUMPDEST POP POP POP POP POP SWAP1 POP SWAP1 JUMP JUMPDEST PUSH2 0x11AB PUSH2 0x1BCE JUMP JUMPDEST PUSH1 0xD DUP1 SLOAD PUSH1 0x1 PUSH1 0x1 PUSH1 0xA0 SHL SUB NOT AND PUSH1 0x1 PUSH1 0x1 PUSH1 0xA0 SHL SUB SWAP3 SWAP1 SWAP3 AND SWAP2 SWAP1 SWAP2 OR SWAP1 SSTORE JUMP JUMPDEST PUSH1 0x4 SLOAD PUSH1 0x1 PUSH1 0x1 PUSH1 0xA0 SHL SUB AND CALLER EQ PUSH2 0x1239 JUMPI PUSH1 0x40 MLOAD PUSH3 0x461BCD PUSH1 0xE5 SHL DUP2 MSTORE PUSH1 0x20 PUSH1 0x4 DUP3 ADD MSTORE PUSH1 0x29 PUSH1 0x24 DUP3 ADD MSTORE PUSH32 0x536C696365436F72653A204F6E6C792053746172676174652061646170746572 PUSH1 0x44 DUP3 ADD MSTORE PUSH9 0x818D85B8818D85B1B PUSH1 0xBA SHL PUSH1 0x64 DUP3 ADD MSTORE PUSH1 0x84 ADD PUSH2 0x934 JUMP JUMPDEST PUSH0 DUP2 DUP1 PUSH1 0x20 ADD SWAP1 MLOAD DUP2 ADD SWAP1 PUSH2 0x124E SWAP2 SWAP1 PUSH2 0x2EBD JUMP JUMPDEST PUSH1 0x40 DUP1 DUP3 ADD MLOAD SWAP1 MLOAD PUSH4 0x70A08231 PUSH1 0xE0 SHL DUP2 MSTORE ADDRESS PUSH1 0x4 DUP3 ADD MSTORE SWAP2 SWAP3 POP PUSH0 SWAP2 PUSH1 0x1 PUSH1 0x1 PUSH1 0xA0 SHL SUB SWAP1 SWAP2 AND SWAP1 PUSH4 0x70A08231 SWAP1 PUSH1 0x24 ADD PUSH1 0x20 PUSH1 0x40 MLOAD DUP1 DUP4 SUB DUP2 DUP7 GAS STATICCALL ISZERO DUP1 ISZERO PUSH2 0x129B JUMPI RETURNDATASIZE PUSH0 DUP1 RETURNDATACOPY RETURNDATASIZE PUSH0 REVERT JUMPDEST POP POP POP POP PUSH1 0x40 MLOAD RETURNDATASIZE PUSH1 0x1F NOT PUSH1 0x1F DUP3 ADD AND DUP3 ADD DUP1 PUSH1 0x40 MSTORE POP DUP2 ADD SWAP1 PUSH2 0x12BF SWAP2 SWAP1 PUSH2 0x2BD8 JUMP JUMPDEST SWAP1 POP DUP2 PUSH1 0x60 ADD MLOAD DUP2 LT ISZERO PUSH2 0x1326 JUMPI PUSH1 0x40 MLOAD PUSH3 0x461BCD PUSH1 0xE5 SHL DUP2 MSTORE PUSH1 0x20 PUSH1 0x4 DUP3 ADD MSTORE PUSH1 0x28 PUSH1 0x24 DUP3 ADD MSTORE PUSH32 0x536C696365436F72653A20496E636F727265637420616D6F756E74206F662074 PUSH1 0x44 DUP3 ADD MSTORE PUSH8 0x1BDAD95B881BDD5D PUSH1 0xC2 SHL PUSH1 0x64 DUP3 ADD MSTORE PUSH1 0x84 ADD PUSH2 0x934 JUMP JUMPDEST PUSH1 0x6 SLOAD DUP3 MLOAD PUSH1 0x40 MLOAD PUSH4 0x2013A8CD PUSH1 0xE2 SHL DUP2 MSTORE PUSH1 0x4 DUP2 ADD SWAP2 SWAP1 SWAP2 MSTORE PUSH0 SWAP2 PUSH1 0x1 PUSH1 0x1 PUSH1 0xA0 SHL SUB AND SWAP1 PUSH4 0x804EA334 SWAP1 PUSH1 0x24 ADD PUSH1 0xC0 PUSH1 0x40 MLOAD DUP1 DUP4 SUB DUP2 DUP7 GAS STATICCALL ISZERO DUP1 ISZERO PUSH2 0x1370 JUMPI RETURNDATASIZE PUSH0 DUP1 RETURNDATACOPY RETURNDATASIZE PUSH0 REVERT JUMPDEST POP POP POP POP PUSH1 0x40 MLOAD RETURNDATASIZE PUSH1 0x1F NOT PUSH1 0x1F DUP3 ADD AND DUP3 ADD DUP1 PUSH1 0x40 MSTORE POP DUP2 ADD SWAP1 PUSH2 0x1394 SWAP2 SWAP1 PUSH2 0x2F3A JUMP JUMPDEST PUSH1 0x40 DUP1 MLOAD DUP1 DUP3 ADD DUP3 MSTORE PUSH1 0x20 DUP7 DUP2 ADD MLOAD DUP1 DUP4 MSTORE PUSH1 0x1 DUP3 DUP5 ADD SWAP1 DUP2 MSTORE DUP5 MLOAD SWAP3 DUP4 ADD SWAP2 SWAP1 SWAP2 MSTORE MLOAD ISZERO ISZERO SWAP3 DUP2 ADD SWAP3 SWAP1 SWAP3 MSTORE SWAP2 SWAP3 POP PUSH0 SWAP1 PUSH1 0x60 ADD PUSH1 0x40 MLOAD PUSH1 0x20 DUP2 DUP4 SUB SUB DUP2 MSTORE SWAP1 PUSH1 0x40 MSTORE SWAP1 POP PUSH32 0x0 PUSH1 0x1 PUSH1 0x1 PUSH1 0xA0 SHL SUB AND PUSH4 0x2637A450 PUSH1 0x10 SLOAD PUSH1 0x40 MLOAD DUP1 PUSH1 0xA0 ADD PUSH1 0x40 MSTORE DUP1 DUP8 PUSH1 0x60 ADD MLOAD PUSH4 0xFFFFFFFF AND DUP2 MSTORE PUSH1 0x20 ADD PUSH2 0x1434 DUP9 PUSH1 0x60 ADD MLOAD PUSH2 0x16AC JUMP JUMPDEST DUP2 MSTORE PUSH1 0x20 ADD DUP6 DUP2 MSTORE PUSH1 0x20 ADD PUSH1 0xE DUP1 SLOAD PUSH2 0x144C SWAP1 PUSH2 0x2A9B JUMP JUMPDEST DUP1 PUSH1 0x1F ADD PUSH1 0x20 DUP1 SWAP2 DIV MUL PUSH1 0x20 ADD PUSH1 0x40 MLOAD SWAP1 DUP2 ADD PUSH1 0x40 MSTORE DUP1 SWAP3 SWAP2 SWAP1 DUP2 DUP2 MSTORE PUSH1 0x20 ADD DUP3 DUP1 SLOAD PUSH2 0x1478 SWAP1 PUSH2 0x2A9B JUMP JUMPDEST DUP1 ISZERO PUSH2 0x14C3 JUMPI DUP1 PUSH1 0x1F LT PUSH2 0x149A JUMPI PUSH2 0x100 DUP1 DUP4 SLOAD DIV MUL DUP4 MSTORE SWAP2 PUSH1 0x20 ADD SWAP2 PUSH2 0x14C3 JUMP JUMPDEST DUP3 ADD SWAP2 SWAP1 PUSH0 MSTORE PUSH1 0x20 PUSH0 KECCAK256 SWAP1 JUMPDEST DUP2 SLOAD DUP2 MSTORE SWAP1 PUSH1 0x1 ADD SWAP1 PUSH1 0x20 ADD DUP1 DUP4 GT PUSH2 0x14A6 JUMPI DUP3 SWAP1 SUB PUSH1 0x1F AND DUP3 ADD SWAP2 JUMPDEST POP POP POP POP POP DUP2 MSTORE PUSH1 0x20 ADD PUSH0 ISZERO ISZERO DUP2 MSTORE POP ADDRESS PUSH1 0x40 MLOAD DUP5 PUSH4 0xFFFFFFFF AND PUSH1 0xE0 SHL DUP2 MSTORE PUSH1 0x4 ADD PUSH2 0x14F1 SWAP3 SWAP2 SWAP1 PUSH2 0x2FD6 JUMP JUMPDEST PUSH1 0x80 PUSH1 0x40 MLOAD DUP1 DUP4 SUB DUP2 DUP6 DUP9 GAS CALL ISZERO DUP1 ISZERO PUSH2 0x150D JUMPI RETURNDATASIZE PUSH0 DUP1 RETURNDATACOPY RETURNDATASIZE PUSH0 REVERT JUMPDEST POP POP POP POP POP PUSH1 0x40 MLOAD RETURNDATASIZE PUSH1 0x1F NOT PUSH1 0x1F DUP3 ADD AND DUP3 ADD DUP1 PUSH1 0x40 MSTORE POP DUP2 ADD SWAP1 PUSH2 0x9A4 SWAP2 SWAP1 PUSH2 0x304E JUMP JUMPDEST PUSH2 0x153A PUSH2 0x1BCE JUMP JUMPDEST PUSH1 0x1 PUSH1 0x1 PUSH1 0xA0 SHL SUB SWAP2 SWAP1 SWAP2 AND PUSH0 SWAP1 DUP2 MSTORE PUSH1 0x7 PUSH1 0x20 MSTORE PUSH1 0x40 SWAP1 KECCAK256 DUP1 SLOAD PUSH1 0xFF NOT AND SWAP2 ISZERO ISZERO SWAP2 SWAP1 SWAP2 OR SWAP1 SSTORE JUMP JUMPDEST PUSH2 0x156C PUSH2 0x1BCE JUMP JUMPDEST PUSH1 0x40 MLOAD PUSH4 0xCA5EB5E1 PUSH1 0xE0 SHL DUP2 MSTORE PUSH1 0x1 PUSH1 0x1 PUSH1 0xA0 SHL SUB DUP3 DUP2 AND PUSH1 0x4 DUP4 ADD MSTORE PUSH32 0x0 AND SWAP1 PUSH4 0xCA5EB5E1 SWAP1 PUSH1 0x24 ADD PUSH0 PUSH1 0x40 MLOAD DUP1 DUP4 SUB DUP2 PUSH0 DUP8 DUP1 EXTCODESIZE ISZERO DUP1 ISZERO PUSH2 0x15CC JUMPI PUSH0 DUP1 REVERT JUMPDEST POP GAS CALL ISZERO DUP1 ISZERO PUSH2 0x15DE JUMPI RETURNDATASIZE PUSH0 DUP1 RETURNDATACOPY RETURNDATASIZE PUSH0 REVERT JUMPDEST POP POP POP POP POP JUMP JUMPDEST PUSH1 0xA DUP2 DUP2 SLOAD DUP2 LT PUSH2 0x15F4 JUMPI PUSH0 DUP1 REVERT JUMPDEST PUSH0 SWAP2 DUP3 MSTORE PUSH1 0x20 SWAP1 SWAP2 KECCAK256 ADD SLOAD PUSH1 0x1 PUSH1 0x1 PUSH1 0xA0 SHL SUB AND SWAP1 POP DUP2 JUMP JUMPDEST PUSH2 0x1615 PUSH2 0x1BCE JUMP JUMPDEST PUSH1 0x1 PUSH1 0x1 PUSH1 0xA0 SHL SUB DUP2 AND PUSH2 0x163E JUMPI PUSH1 0x40 MLOAD PUSH4 0x1E4FBDF7 PUSH1 0xE0 SHL DUP2 MSTORE PUSH0 PUSH1 0x4 DUP3 ADD MSTORE PUSH1 0x24 ADD PUSH2 0x934 JUMP JUMPDEST PUSH2 0x1647 DUP2 PUSH2 0x211E JUMP JUMPDEST POP JUMP JUMPDEST PUSH0 PUSH1 0xA DUP3 DUP2 SLOAD DUP2 LT PUSH2 0x165E JUMPI PUSH2 0x165E PUSH2 0x2DAC JUMP JUMPDEST PUSH0 SWAP2 DUP3 MSTORE PUSH1 0x20 SWAP1 SWAP2 KECCAK256 ADD SLOAD PUSH1 0x1 PUSH1 0x1 PUSH1 0xA0 SHL SUB AND SWAP3 SWAP2 POP POP JUMP JUMPDEST PUSH0 PUSH1 0x20 DUP3 ADD DUP1 CALLDATALOAD SWAP1 PUSH1 0x1 SWAP1 DUP4 SWAP1 PUSH2 0x168F SWAP1 DUP7 PUSH2 0x2A66 JUMP JUMPDEST PUSH4 0xFFFFFFFF AND DUP2 MSTORE PUSH1 0x20 DUP2 ADD SWAP2 SWAP1 SWAP2 MSTORE PUSH1 0x40 ADD PUSH0 KECCAK256 SLOAD EQ SWAP3 SWAP2 POP POP JUMP JUMPDEST PUSH4 0xFFFFFFFF DUP2 AND PUSH0 SWAP1 DUP2 MSTORE PUSH1 0x1 PUSH1 0x20 MSTORE PUSH1 0x40 DUP2 KECCAK256 SLOAD DUP1 PUSH2 0x1130 JUMPI PUSH1 0x40 MLOAD PUSH4 0xF6FF4FB7 PUSH1 0xE0 SHL DUP2 MSTORE PUSH4 0xFFFFFFFF DUP5 AND PUSH1 0x4 DUP3 ADD MSTORE PUSH1 0x24 ADD PUSH2 0x934 JUMP JUMPDEST CALLER PUSH1 0x1 PUSH1 0x1 PUSH1 0xA0 SHL SUB PUSH32 0x0 AND EQ PUSH2 0x1773 JUMPI PUSH1 0x40 MLOAD PUSH3 0x461BCD PUSH1 0xE5 SHL DUP2 MSTORE PUSH1 0x20 PUSH1 0x4 DUP3 ADD MSTORE PUSH1 0x2B PUSH1 0x24 DUP3 ADD MSTORE PUSH32 0x536C696365436F72653A206C7A52656365697665206E6F742063616C6C656420 PUSH1 0x44 DUP3 ADD MSTORE PUSH11 0x189E48195B991C1BDA5B9D PUSH1 0xAA SHL PUSH1 0x64 DUP3 ADD MSTORE PUSH1 0x84 ADD PUSH2 0x934 JUMP JUMPDEST PUSH1 0xD SLOAD PUSH1 0x20 DUP9 ADD CALLDATALOAD PUSH1 0x1 PUSH1 0x1 PUSH1 0xA0 SHL SUB SWAP1 DUP2 AND SWAP2 AND EQ PUSH2 0x17FB JUMPI PUSH1 0x40 MLOAD PUSH3 0x461BCD PUSH1 0xE5 SHL DUP2 MSTORE PUSH1 0x20 PUSH1 0x4 DUP3 ADD MSTORE PUSH1 0x38 PUSH1 0x24 DUP3 ADD MSTORE PUSH32 0x536C696365436F72653A206C7A53656E64206E6F7420696E6974696174656420 PUSH1 0x44 DUP3 ADD MSTORE PUSH32 0x62792063726F73732D636861696E20536C696365436F72650000000000000000 PUSH1 0x64 DUP3 ADD MSTORE PUSH1 0x84 ADD PUSH2 0x934 JUMP JUMPDEST PUSH0 PUSH2 0x1808 DUP6 DUP8 ADD DUP8 PUSH2 0x30C4 JUMP JUMPDEST SWAP1 POP PUSH0 PUSH1 0xC PUSH0 DUP4 PUSH0 ADD MLOAD DUP2 MSTORE PUSH1 0x20 ADD SWAP1 DUP2 MSTORE PUSH1 0x20 ADD PUSH0 KECCAK256 PUSH1 0x40 MLOAD DUP1 PUSH1 0x80 ADD PUSH1 0x40 MSTORE SWAP1 DUP2 PUSH0 DUP3 ADD PUSH0 SWAP1 SLOAD SWAP1 PUSH2 0x100 EXP SWAP1 DIV PUSH1 0x1 PUSH1 0x1 PUSH1 0xA0 SHL SUB AND PUSH1 0x1 PUSH1 0x1 PUSH1 0xA0 SHL SUB AND PUSH1 0x1 PUSH1 0x1 PUSH1 0xA0 SHL SUB AND DUP2 MSTORE PUSH1 0x20 ADD PUSH1 0x1 DUP3 ADD SLOAD DUP2 MSTORE PUSH1 0x20 ADD PUSH1 0x2 DUP3 ADD SLOAD DUP2 MSTORE PUSH1 0x20 ADD PUSH1 0x3 DUP3 ADD PUSH0 SWAP1 SLOAD SWAP1 PUSH2 0x100 EXP SWAP1 DIV PUSH1 0x1 PUSH1 0x1 PUSH1 0xA0 SHL SUB AND PUSH1 0x1 PUSH1 0x1 PUSH1 0xA0 SHL SUB AND PUSH1 0x1 PUSH1 0x1 PUSH1 0xA0 SHL SUB AND DUP2 MSTORE POP POP SWAP1 POP PUSH1 0x40 MLOAD DUP1 PUSH2 0x100 ADD PUSH1 0x40 MSTORE DUP1 CALLER PUSH1 0x1 PUSH1 0x1 PUSH1 0xA0 SHL SUB AND DUP2 MSTORE PUSH1 0x20 ADD DUP11 PUSH1 0x20 ADD CALLDATALOAD DUP2 MSTORE PUSH1 0x20 ADD DUP4 PUSH0 ADD MLOAD DUP2 MSTORE PUSH1 0x20 ADD DUP4 PUSH1 0x20 ADD MLOAD ISZERO ISZERO DUP2 MSTORE PUSH1 0x20 ADD PUSH32 0x0 PUSH1 0x1 PUSH1 0x1 PUSH1 0xA0 SHL SUB AND CALLER PUSH1 0x1 PUSH1 0x1 PUSH1 0xA0 SHL SUB AND EQ ISZERO ISZERO DUP2 MSTORE PUSH1 0x20 ADD PUSH1 0xD PUSH0 SWAP1 SLOAD SWAP1 PUSH2 0x100 EXP SWAP1 DIV PUSH1 0x1 PUSH1 0x1 PUSH1 0xA0 SHL SUB AND PUSH1 0x1 PUSH1 0x1 PUSH1 0xA0 SHL SUB AND DUP12 PUSH1 0x20 ADD CALLDATALOAD PUSH0 SHR PUSH1 0x1 PUSH1 0x1 PUSH1 0xA0 SHL SUB AND EQ ISZERO ISZERO DUP2 MSTORE PUSH1 0x20 ADD PUSH2 0x196B DUP4 PUSH0 ADD MLOAD PUSH1 0x1 PUSH1 0x1 PUSH1 0xA0 SHL SUB AND PUSH0 SWAP1 DUP2 MSTORE PUSH1 0x9 PUSH1 0x20 MSTORE PUSH1 0x40 SWAP1 KECCAK256 SLOAD PUSH1 0xFF AND SWAP1 JUMP JUMPDEST ISZERO ISZERO DUP2 MSTORE PUSH1 0x20 DUP5 DUP2 ADD MLOAD ISZERO ISZERO SWAP2 DUP2 ADD SWAP2 SWAP1 SWAP2 MSTORE DUP2 MLOAD PUSH1 0x11 DUP1 SLOAD PUSH1 0x1 PUSH1 0x1 PUSH1 0xA0 SHL SUB NOT AND PUSH1 0x1 PUSH1 0x1 PUSH1 0xA0 SHL SUB SWAP3 DUP4 AND OR SWAP1 SSTORE DUP3 DUP3 ADD MLOAD PUSH1 0x12 SSTORE PUSH1 0x40 DUP1 DUP5 ADD MLOAD PUSH1 0x13 SSTORE PUSH1 0x60 DUP5 ADD MLOAD PUSH1 0x14 DUP1 SLOAD PUSH1 0x80 DUP8 ADD MLOAD PUSH1 0xA0 DUP9 ADD MLOAD PUSH1 0xC0 DUP10 ADD MLOAD PUSH1 0xE0 SWAP1 SWAP10 ADD MLOAD PUSH2 0xFFFF NOT SWAP1 SWAP4 AND SWAP5 ISZERO ISZERO PUSH2 0xFF00 NOT AND SWAP5 SWAP1 SWAP5 OR PUSH2 0x100 SWAP2 ISZERO ISZERO SWAP2 SWAP1 SWAP2 MUL OR PUSH4 0xFFFF0000 NOT AND PUSH3 0x10000 SWAP4 ISZERO ISZERO SWAP4 SWAP1 SWAP4 MUL PUSH4 0xFF000000 NOT AND SWAP3 SWAP1 SWAP3 OR PUSH4 0x1000000 SWAP7 ISZERO ISZERO SWAP7 SWAP1 SWAP7 MUL SWAP6 SWAP1 SWAP6 OR PUSH5 0xFF00000000 NOT AND PUSH5 0x100000000 SWAP2 ISZERO ISZERO SWAP2 SWAP1 SWAP2 MUL OR SWAP1 SWAP4 SSTORE DUP4 MLOAD AND PUSH0 SWAP1 DUP2 MSTORE PUSH1 0x9 SWAP1 SWAP2 MSTORE KECCAK256 SLOAD PUSH1 0xFF AND PUSH2 0x1A8B JUMPI PUSH1 0x40 MLOAD PUSH3 0x461BCD PUSH1 0xE5 SHL DUP2 MSTORE PUSH1 0x20 PUSH1 0x4 DUP3 ADD MSTORE PUSH1 0x1A PUSH1 0x24 DUP3 ADD MSTORE PUSH32 0x536C696365436F72653A20556E6B6E6F776E206D696E74204944000000000000 PUSH1 0x44 DUP3 ADD MSTORE PUSH1 0x64 ADD PUSH2 0x934 JUMP JUMPDEST DUP2 PUSH1 0x20 ADD MLOAD PUSH2 0x1AE7 JUMPI PUSH1 0x40 MLOAD PUSH3 0x461BCD PUSH1 0xE5 SHL DUP2 MSTORE PUSH1 0x20 PUSH1 0x4 DUP3 ADD MSTORE PUSH1 0x22 PUSH1 0x24 DUP3 ADD MSTORE PUSH32 0x536C696365436F72653A2043726F73732D636861696E2073776170206661696C PUSH1 0x44 DUP3 ADD MSTORE PUSH2 0x1959 PUSH1 0xF2 SHL PUSH1 0x64 DUP3 ADD MSTORE PUSH1 0x84 ADD PUSH2 0x934 JUMP JUMPDEST DUP2 MLOAD PUSH0 SWAP1 DUP2 MSTORE PUSH1 0xC PUSH1 0x20 MSTORE PUSH1 0x40 DUP2 KECCAK256 PUSH1 0x1 ADD DUP1 SLOAD SWAP2 PUSH2 0x1B05 DUP4 PUSH2 0x2BC0 JUMP JUMPDEST SWAP1 SWAP2 SSTORE POP POP DUP2 MLOAD PUSH2 0x1B15 SWAP1 PUSH2 0x206E JUMP JUMPDEST ISZERO PUSH2 0x1BC3 JUMPI DUP1 PUSH1 0x60 ADD MLOAD PUSH1 0x1 PUSH1 0x1 PUSH1 0xA0 SHL SUB AND DUP2 PUSH1 0x40 ADD MLOAD CALLER PUSH1 0x1 PUSH1 0x1 PUSH1 0xA0 SHL SUB AND PUSH32 0x57906F264053DF400DECF287D5DF71541AB514D475435B80E96A2588B4C4B397 PUSH1 0x40 MLOAD PUSH1 0x40 MLOAD DUP1 SWAP2 SUB SWAP1 LOG4 DUP1 MLOAD DUP3 MLOAD PUSH1 0x40 MLOAD PUSH3 0x5D483 PUSH1 0xED SHL DUP2 MSTORE PUSH1 0x1 PUSH1 0x1 PUSH1 0xA0 SHL SUB SWAP1 SWAP3 AND SWAP2 PUSH4 0xBA906000 SWAP2 PUSH2 0x1B95 SWAP2 PUSH1 0x4 ADD SWAP1 DUP2 MSTORE PUSH1 0x20 ADD SWAP1 JUMP JUMPDEST PUSH0 PUSH1 0x40 MLOAD DUP1 DUP4 SUB DUP2 PUSH0 DUP8 DUP1 EXTCODESIZE ISZERO DUP1 ISZERO PUSH2 0x1BAC JUMPI PUSH0 DUP1 REVERT JUMPDEST POP GAS CALL ISZERO DUP1 ISZERO PUSH2 0x1BBE JUMPI RETURNDATASIZE PUSH0 DUP1 RETURNDATACOPY RETURNDATASIZE PUSH0 REVERT JUMPDEST POP POP POP POP JUMPDEST POP POP POP POP POP POP POP POP POP JUMP JUMPDEST PUSH0 SLOAD PUSH1 0x1 PUSH1 0x1 PUSH1 0xA0 SHL SUB AND CALLER EQ PUSH2 0x1117 JUMPI PUSH1 0x40 MLOAD PUSH4 0x118CDAA7 PUSH1 0xE0 SHL DUP2 MSTORE CALLER PUSH1 0x4 DUP3 ADD MSTORE PUSH1 0x24 ADD PUSH2 0x934 JUMP JUMPDEST PUSH0 DUP1 JUMPDEST DUP3 MLOAD DUP2 LT ISZERO PUSH2 0x1C35 JUMPI DUP3 DUP2 DUP2 MLOAD DUP2 LT PUSH2 0x1C18 JUMPI PUSH2 0x1C18 PUSH2 0x2DAC JUMP JUMPDEST PUSH1 0x20 MUL PUSH1 0x20 ADD ADD MLOAD DUP3 PUSH2 0x1C2B SWAP2 SWAP1 PUSH2 0x30FA JUMP JUMPDEST SWAP2 POP PUSH1 0x1 ADD PUSH2 0x1BFD JUMP JUMPDEST POP SWAP2 SWAP1 POP JUMP JUMPDEST PUSH1 0x2 SLOAD PUSH1 0x3 SLOAD PUSH1 0x40 MLOAD PUSH4 0x95EA7B3 PUSH1 0xE0 SHL DUP2 MSTORE PUSH1 0x1 PUSH1 0x1 PUSH1 0xA0 SHL SUB SWAP2 DUP3 AND PUSH1 0x4 DUP3 ADD MSTORE PUSH1 0x24 DUP2 ADD DUP7 SWAP1 MSTORE PUSH0 SWAP3 SWAP2 SWAP1 SWAP2 AND SWAP1 PUSH4 0x95EA7B3 SWAP1 PUSH1 0x44 ADD PUSH1 0x20 PUSH1 0x40 MLOAD DUP1 DUP4 SUB DUP2 PUSH0 DUP8 GAS CALL ISZERO DUP1 ISZERO PUSH2 0x1C91 JUMPI RETURNDATASIZE PUSH0 DUP1 RETURNDATACOPY RETURNDATASIZE PUSH0 REVERT JUMPDEST POP POP POP POP PUSH1 0x40 MLOAD RETURNDATASIZE PUSH1 0x1F NOT PUSH1 0x1F DUP3 ADD AND DUP3 ADD DUP1 PUSH1 0x40 MSTORE POP DUP2 ADD SWAP1 PUSH2 0x1CB5 SWAP2 SWAP1 PUSH2 0x310D JUMP JUMPDEST POP PUSH1 0x40 DUP1 DUP5 ADD MLOAD DUP2 MLOAD PUSH1 0xC0 DUP2 ADD DUP4 MSTORE PUSH1 0x2 SLOAD PUSH1 0x1 PUSH1 0x1 PUSH1 0xA0 SHL SUB SWAP1 DUP2 AND DUP3 MSTORE PUSH1 0x20 DUP1 DUP4 ADD DUP10 SWAP1 MSTORE DUP1 DUP9 ADD MLOAD DUP3 AND DUP4 DUP7 ADD MSTORE PUSH1 0x60 DUP4 ADD DUP5 SWAP1 MSTORE SWAP1 DUP11 AND PUSH1 0x80 DUP4 ADD MSTORE PUSH1 0xA0 DUP3 ADD DUP7 SWAP1 MSTORE SWAP3 MLOAD DUP8 SWAP4 PUSH0 SWAP2 PUSH2 0x1D0E SWAP2 DUP5 SWAP2 ADD PUSH2 0x3128 JUMP JUMPDEST PUSH1 0x40 DUP1 MLOAD PUSH1 0x1F NOT DUP2 DUP5 SUB ADD DUP2 MSTORE SWAP1 DUP3 SWAP1 MSTORE PUSH1 0x3 SLOAD PUSH4 0x313EEAB5 PUSH1 0xE1 SHL DUP4 MSTORE SWAP1 SWAP3 POP PUSH1 0x1 PUSH1 0x1 PUSH1 0xA0 SHL SUB AND SWAP1 PUSH4 0x627DD56A SWAP1 PUSH2 0x1D4D SWAP1 DUP5 SWAP1 PUSH1 0x4 ADD PUSH2 0x2500 JUMP JUMPDEST PUSH0 PUSH1 0x40 MLOAD DUP1 DUP4 SUB DUP2 PUSH0 DUP8 DUP1 EXTCODESIZE ISZERO DUP1 ISZERO PUSH2 0x1D64 JUMPI PUSH0 DUP1 REVERT JUMPDEST POP GAS CALL ISZERO DUP1 ISZERO PUSH2 0x1D76 JUMPI RETURNDATASIZE PUSH0 DUP1 RETURNDATACOPY RETURNDATASIZE PUSH0 REVERT JUMPDEST POP POP POP POP PUSH1 0x20 DUP8 ADD MLOAD PUSH1 0x40 MLOAD PUSH4 0x70A08231 PUSH1 0xE0 SHL DUP2 MSTORE PUSH1 0x1 PUSH1 0x1 PUSH1 0xA0 SHL SUB DUP13 DUP2 AND PUSH1 0x4 DUP4 ADD MSTORE PUSH0 SWAP3 AND SWAP1 PUSH4 0x70A08231 SWAP1 PUSH1 0x24 ADD PUSH1 0x20 PUSH1 0x40 MLOAD DUP1 DUP4 SUB DUP2 DUP7 GAS STATICCALL ISZERO DUP1 ISZERO PUSH2 0x1DC4 JUMPI RETURNDATASIZE PUSH0 DUP1 RETURNDATACOPY RETURNDATASIZE PUSH0 REVERT JUMPDEST POP POP POP POP PUSH1 0x40 MLOAD RETURNDATASIZE PUSH1 0x1F NOT PUSH1 0x1F DUP3 ADD AND DUP3 ADD DUP1 PUSH1 0x40 MSTORE POP DUP2 ADD SWAP1 PUSH2 0x1DE8 SWAP2 SWAP1 PUSH2 0x2BD8 JUMP JUMPDEST PUSH1 0x40 DUP10 ADD MLOAD GT ISZERO SWAP6 POP POP POP POP POP POP SWAP6 SWAP5 POP POP POP POP POP JUMP JUMPDEST PUSH1 0x2 SLOAD PUSH1 0x3 SLOAD PUSH1 0x40 MLOAD PUSH4 0x95EA7B3 PUSH1 0xE0 SHL DUP2 MSTORE PUSH1 0x1 PUSH1 0x1 PUSH1 0xA0 SHL SUB SWAP2 DUP3 AND PUSH1 0x4 DUP3 ADD MSTORE PUSH1 0x24 DUP2 ADD DUP8 SWAP1 MSTORE SWAP2 AND SWAP1 PUSH4 0x95EA7B3 SWAP1 PUSH1 0x44 ADD PUSH1 0x20 PUSH1 0x40 MLOAD DUP1 DUP4 SUB DUP2 PUSH0 DUP8 GAS CALL ISZERO DUP1 ISZERO PUSH2 0x1E51 JUMPI RETURNDATASIZE PUSH0 DUP1 RETURNDATACOPY RETURNDATASIZE PUSH0 REVERT JUMPDEST POP POP POP POP PUSH1 0x40 MLOAD RETURNDATASIZE PUSH1 0x1F NOT PUSH1 0x1F DUP3 ADD AND DUP3 ADD DUP1 PUSH1 0x40 MSTORE POP DUP2 ADD SWAP1 PUSH2 0x1E75 SWAP2 SWAP1 PUSH2 0x310D JUMP JUMPDEST POP PUSH1 0x40 DUP4 DUP2 ADD MLOAD PUSH1 0x6 SLOAD DUP6 MLOAD SWAP3 MLOAD PUSH4 0x2013A8CD PUSH1 0xE2 SHL DUP2 MSTORE PUSH1 0x4 DUP2 ADD SWAP4 SWAP1 SWAP4 MSTORE SWAP1 SWAP2 PUSH0 SWAP2 PUSH1 0x1 PUSH1 0x1 PUSH1 0xA0 SHL SUB AND SWAP1 PUSH4 0x804EA334 SWAP1 PUSH1 0x24 ADD PUSH1 0xC0 PUSH1 0x40 MLOAD DUP1 DUP4 SUB DUP2 DUP7 GAS STATICCALL ISZERO DUP1 ISZERO PUSH2 0x1EC7 JUMPI RETURNDATASIZE PUSH0 DUP1 RETURNDATACOPY RETURNDATASIZE PUSH0 REVERT JUMPDEST POP POP POP POP PUSH1 0x40 MLOAD RETURNDATASIZE PUSH1 0x1F NOT PUSH1 0x1F DUP3 ADD AND DUP3 ADD DUP1 PUSH1 0x40 MSTORE POP DUP2 ADD SWAP1 PUSH2 0x1EEB SWAP2 SWAP1 PUSH2 0x2F3A JUMP JUMPDEST SWAP1 POP PUSH0 PUSH2 0x1EFE DUP3 DUP8 PUSH1 0x20 ADD MLOAD DUP6 DUP8 PUSH2 0x216D JUMP JUMPDEST SWAP1 POP PUSH0 PUSH2 0x1F15 DUP12 DUP9 PUSH1 0x20 ADD MLOAD DUP7 DUP10 PUSH1 0x80 ADD MLOAD PUSH2 0x21DA JUMP JUMPDEST SWAP1 POP PUSH0 PUSH2 0x1F28 DUP5 PUSH1 0x40 ADD MLOAD DUP13 DUP6 DUP6 PUSH2 0x2272 JUMP JUMPDEST PUSH1 0x3 SLOAD PUSH1 0x40 DUP1 MLOAD PUSH1 0xC0 DUP2 ADD DUP3 MSTORE PUSH0 DUP2 MSTORE PUSH1 0x4 SLOAD PUSH1 0x1 PUSH1 0x1 PUSH1 0xA0 SHL SUB SWAP1 DUP2 AND PUSH1 0x20 DUP4 ADD MSTORE PUSH1 0x2 SLOAD DUP2 AND SWAP3 DUP3 ADD SWAP3 SWAP1 SWAP3 MSTORE PUSH1 0x60 DUP2 ADD DUP14 SWAP1 MSTORE PUSH1 0xD SLOAD DUP3 AND PUSH1 0x80 DUP3 ADD MSTORE SWAP3 SWAP4 POP AND SWAP1 PUSH4 0xBCC53325 SWAP1 DUP4 SWAP1 PUSH1 0xA0 DUP2 ADD PUSH2 0x2009 DUP10 DUP16 PUSH3 0x86470 PUSH1 0x40 DUP4 DUP2 ADD MLOAD PUSH1 0x2 SLOAD PUSH1 0x80 DUP1 DUP8 ADD MLOAD PUSH1 0xD SLOAD DUP6 MLOAD PUSH2 0xFFFF SWAP1 SWAP6 AND PUSH1 0x20 DUP7 ADD MSTORE PUSH1 0x1 PUSH1 0x1 PUSH1 0xA0 SHL SUB SWAP4 DUP5 AND SWAP6 DUP6 ADD SWAP6 SWAP1 SWAP6 MSTORE PUSH1 0x1 PUSH1 0x60 DUP1 DUP7 ADD DUP3 SWAP1 MSTORE SWAP3 DUP6 ADD MSTORE PUSH1 0xA0 DUP5 ADD DUP8 SWAP1 MSTORE PUSH0 PUSH1 0xC0 DUP6 ADD DUP2 SWAP1 MSTORE PUSH1 0xE0 DUP6 ADD MSTORE DUP3 AND PUSH2 0x100 DUP5 ADD MSTORE SWAP3 AND PUSH2 0x120 DUP3 ADD MSTORE PUSH2 0x140 DUP2 ADD DUP4 SWAP1 MSTORE PUSH2 0x160 ADD PUSH1 0x40 MLOAD PUSH1 0x20 DUP2 DUP4 SUB SUB DUP2 MSTORE SWAP1 PUSH1 0x40 MSTORE SWAP1 POP SWAP4 SWAP3 POP POP POP JUMP JUMPDEST DUP2 MSTORE POP DUP11 PUSH1 0x40 ADD MLOAD DUP8 DUP8 PUSH1 0x40 MLOAD DUP7 PUSH4 0xFFFFFFFF AND PUSH1 0xE0 SHL DUP2 MSTORE PUSH1 0x4 ADD PUSH2 0x2032 SWAP5 SWAP4 SWAP3 SWAP2 SWAP1 PUSH2 0x3182 JUMP JUMPDEST PUSH0 PUSH1 0x40 MLOAD DUP1 DUP4 SUB DUP2 DUP6 DUP9 DUP1 EXTCODESIZE ISZERO DUP1 ISZERO PUSH2 0x2049 JUMPI PUSH0 DUP1 REVERT JUMPDEST POP GAS CALL ISZERO DUP1 ISZERO PUSH2 0x205B JUMPI RETURNDATASIZE PUSH0 DUP1 RETURNDATACOPY RETURNDATASIZE PUSH0 REVERT JUMPDEST POP POP POP POP POP POP POP POP POP POP POP POP POP POP POP POP POP JUMP JUMPDEST PUSH0 DUP2 DUP2 MSTORE PUSH1 0xC PUSH1 0x20 SWAP1 DUP2 MSTORE PUSH1 0x40 DUP1 DUP4 KECCAK256 DUP2 MLOAD PUSH1 0x80 DUP2 ADD DUP4 MSTORE DUP2 SLOAD PUSH1 0x1 PUSH1 0x1 PUSH1 0xA0 SHL SUB SWAP1 DUP2 AND DUP1 DUP4 MSTORE PUSH1 0x1 DUP5 ADD SLOAD DUP4 DUP8 ADD MSTORE PUSH1 0x2 DUP5 ADD SLOAD DUP4 DUP7 ADD MSTORE PUSH1 0x3 SWAP1 SWAP4 ADD SLOAD AND PUSH1 0x60 DUP3 ADD MSTORE DUP3 MLOAD PUSH4 0xE02B79F9 PUSH1 0xE0 SHL DUP2 MSTORE SWAP3 MLOAD SWAP1 SWAP4 DUP6 SWAP4 PUSH4 0xE02B79F9 SWAP3 PUSH1 0x4 DUP1 DUP4 ADD SWAP4 SWAP3 DUP3 SWAP1 SUB ADD DUP2 DUP7 GAS STATICCALL ISZERO DUP1 ISZERO PUSH2 0x20EA JUMPI RETURNDATASIZE PUSH0 DUP1 RETURNDATACOPY RETURNDATASIZE PUSH0 REVERT JUMPDEST POP POP POP POP PUSH1 0x40 MLOAD RETURNDATASIZE PUSH1 0x1F NOT PUSH1 0x1F DUP3 ADD AND DUP3 ADD DUP1 PUSH1 0x40 MSTORE POP DUP2 ADD SWAP1 PUSH2 0x210E SWAP2 SWAP1 PUSH2 0x2BD8 JUMP JUMPDEST PUSH1 0x20 SWAP1 SWAP3 ADD MLOAD SWAP1 SWAP2 EQ SWAP4 SWAP3 POP POP POP JUMP JUMPDEST PUSH0 DUP1 SLOAD PUSH1 0x1 PUSH1 0x1 PUSH1 0xA0 SHL SUB DUP4 DUP2 AND PUSH1 0x1 PUSH1 0x1 PUSH1 0xA0 SHL SUB NOT DUP4 AND DUP2 OR DUP5 SSTORE PUSH1 0x40 MLOAD SWAP2 SWAP1 SWAP3 AND SWAP3 DUP4 SWAP2 PUSH32 0x8BE0079C531659141344CD1FD0A4F28419497F9722A3DAAFE3B4186F6B6457E0 SWAP2 SWAP1 LOG3 POP POP JUMP JUMPDEST PUSH1 0x40 DUP1 MLOAD PUSH1 0xC0 DUP2 ADD DUP3 MSTORE PUSH1 0xA0 DUP1 DUP8 ADD MLOAD PUSH1 0x1 PUSH1 0x1 PUSH1 0xA0 SHL SUB SWAP1 DUP2 AND DUP4 MSTORE PUSH0 PUSH1 0x20 DUP1 DUP6 ADD SWAP2 SWAP1 SWAP2 MSTORE DUP8 DUP3 AND DUP5 DUP7 ADD MSTORE PUSH1 0x60 DUP5 DUP2 ADD DUP9 SWAP1 MSTORE PUSH1 0xD SLOAD SWAP1 SWAP3 AND PUSH1 0x80 DUP6 ADD MSTORE SWAP2 DUP4 ADD DUP6 SWAP1 MSTORE SWAP3 MLOAD PUSH2 0x21C1 SWAP3 SWAP2 ADD PUSH2 0x3128 JUMP JUMPDEST PUSH1 0x40 MLOAD PUSH1 0x20 DUP2 DUP4 SUB SUB DUP2 MSTORE SWAP1 PUSH1 0x40 MSTORE SWAP1 POP SWAP5 SWAP4 POP POP POP POP JUMP JUMPDEST PUSH1 0x60 PUSH1 0x40 MLOAD DUP1 PUSH1 0x60 ADD PUSH1 0x40 MSTORE DUP1 PUSH1 0xD PUSH0 SWAP1 SLOAD SWAP1 PUSH2 0x100 EXP SWAP1 DIV PUSH1 0x1 PUSH1 0x1 PUSH1 0xA0 SHL SUB AND PUSH1 0x1 PUSH1 0x1 PUSH1 0xA0 SHL SUB AND DUP2 MSTORE PUSH1 0x20 ADD PUSH1 0xF SLOAD DUP2 MSTORE PUSH1 0x20 ADD PUSH1 0x40 MLOAD DUP1 PUSH1 0xA0 ADD PUSH1 0x40 MSTORE DUP1 CHAINID DUP2 MSTORE PUSH1 0x20 ADD DUP9 DUP2 MSTORE PUSH1 0x20 ADD DUP8 PUSH1 0x1 PUSH1 0x1 PUSH1 0xA0 SHL SUB AND DUP2 MSTORE PUSH1 0x20 ADD DUP7 DUP2 MSTORE PUSH1 0x20 ADD DUP6 DUP2 MSTORE POP PUSH1 0x40 MLOAD PUSH1 0x20 ADD PUSH2 0x2252 SWAP2 SWAP1 PUSH2 0x322B JUMP JUMPDEST PUSH1 0x40 DUP1 MLOAD PUSH1 0x1F NOT DUP2 DUP5 SUB ADD DUP2 MSTORE SWAP2 DUP2 MSTORE SWAP2 MSTORE MLOAD PUSH2 0x21C1 SWAP2 SWAP1 PUSH1 0x20 ADD PUSH2 0x3275 JUMP JUMPDEST PUSH1 0x4 SLOAD PUSH1 0x40 MLOAD PUSH0 SWAP2 DUP3 SWAP2 PUSH1 0x1 PUSH1 0x1 PUSH1 0xA0 SHL SUB SWAP1 SWAP2 AND SWAP1 PUSH4 0x6CE4FE03 SWAP1 DUP9 SWAP1 PUSH1 0x1 SWAP1 DUP5 SWAP1 PUSH3 0x86470 SWAP1 DUP8 SWAP1 PUSH2 0x22AE SWAP1 DUP14 SWAP1 DUP14 SWAP1 DUP14 SWAP1 PUSH1 0x20 ADD PUSH2 0x32AB JUMP JUMPDEST PUSH1 0x40 MLOAD PUSH1 0x20 DUP2 DUP4 SUB SUB DUP2 MSTORE SWAP1 PUSH1 0x40 MSTORE PUSH1 0x40 MLOAD DUP8 PUSH4 0xFFFFFFFF AND PUSH1 0xE0 SHL DUP2 MSTORE PUSH1 0x4 ADD PUSH2 0x22DE SWAP7 SWAP6 SWAP5 SWAP4 SWAP3 SWAP2 SWAP1 PUSH2 0x32EA JUMP JUMPDEST PUSH1 0x40 DUP1 MLOAD DUP1 DUP4 SUB DUP2 DUP7 GAS STATICCALL ISZERO DUP1 ISZERO PUSH2 0x22F8 JUMPI RETURNDATASIZE PUSH0 DUP1 RETURNDATACOPY RETURNDATASIZE PUSH0 REVERT JUMPDEST POP POP POP POP PUSH1 0x40 MLOAD RETURNDATASIZE PUSH1 0x1F NOT PUSH1 0x1F DUP3 ADD AND DUP3 ADD DUP1 PUSH1 0x40 MSTORE POP DUP2 ADD SWAP1 PUSH2 0x231C SWAP2 SWAP1 PUSH2 0x3335 JUMP JUMPDEST POP SWAP7 SWAP6 POP POP POP POP POP POP JUMP JUMPDEST PUSH2 0x1F37 DUP1 PUSH2 0x3358 DUP4 CODECOPY ADD SWAP1 JUMP JUMPDEST PUSH0 PUSH1 0x20 DUP3 DUP5 SUB SLT ISZERO PUSH2 0x2344 JUMPI PUSH0 DUP1 REVERT JUMPDEST POP CALLDATALOAD SWAP2 SWAP1 POP JUMP JUMPDEST PUSH0 DUP1 DUP4 PUSH1 0x1F DUP5 ADD SLT PUSH2 0x235B JUMPI PUSH0 DUP1 REVERT JUMPDEST POP DUP2 CALLDATALOAD PUSH1 0x1 PUSH1 0x1 PUSH1 0x40 SHL SUB DUP2 GT ISZERO PUSH2 0x2371 JUMPI PUSH0 DUP1 REVERT JUMPDEST PUSH1 0x20 DUP4 ADD SWAP2 POP DUP4 PUSH1 0x20 PUSH1 0x60 DUP4 MUL DUP6 ADD ADD GT ISZERO PUSH2 0x238B JUMPI PUSH0 DUP1 REVERT JUMPDEST SWAP3 POP SWAP3 SWAP1 POP JUMP JUMPDEST PUSH0 DUP1 PUSH0 PUSH1 0x40 DUP5 DUP7 SUB SLT ISZERO PUSH2 0x23A4 JUMPI PUSH0 DUP1 REVERT JUMPDEST DUP4 CALLDATALOAD SWAP3 POP PUSH1 0x20 DUP5 ADD CALLDATALOAD PUSH1 0x1 PUSH1 0x1 PUSH1 0x40 SHL SUB DUP2 GT ISZERO PUSH2 0x23C0 JUMPI PUSH0 DUP1 REVERT JUMPDEST PUSH2 0x23CC DUP7 DUP3 DUP8 ADD PUSH2 0x234B JUMP JUMPDEST SWAP5 SWAP8 SWAP1 SWAP7 POP SWAP4 SWAP5 POP POP POP POP JUMP JUMPDEST PUSH0 PUSH1 0x60 DUP3 DUP5 SUB SLT ISZERO PUSH2 0x1C35 JUMPI PUSH0 DUP1 REVERT JUMPDEST PUSH0 DUP1 DUP4 PUSH1 0x1F DUP5 ADD SLT PUSH2 0x23F9 JUMPI PUSH0 DUP1 REVERT JUMPDEST POP DUP2 CALLDATALOAD PUSH1 0x1 PUSH1 0x1 PUSH1 0x40 SHL SUB DUP2 GT ISZERO PUSH2 0x240F JUMPI PUSH0 DUP1 REVERT JUMPDEST PUSH1 0x20 DUP4 ADD SWAP2 POP DUP4 PUSH1 0x20 DUP3 DUP6 ADD ADD GT ISZERO PUSH2 0x238B JUMPI PUSH0 DUP1 REVERT JUMPDEST PUSH1 0x1 PUSH1 0x1 PUSH1 0xA0 SHL SUB DUP2 AND DUP2 EQ PUSH2 0x1647 JUMPI PUSH0 DUP1 REVERT JUMPDEST PUSH0 DUP1 PUSH0 DUP1 PUSH0 DUP1 PUSH0 PUSH1 0xE0 DUP9 DUP11 SUB SLT ISZERO PUSH2 0x2450 JUMPI PUSH0 DUP1 REVERT JUMPDEST PUSH2 0x245A DUP10 DUP10 PUSH2 0x23D9 JUMP JUMPDEST SWAP7 POP PUSH1 0x60 DUP9 ADD CALLDATALOAD SWAP6 POP PUSH1 0x80 DUP9 ADD CALLDATALOAD PUSH1 0x1 PUSH1 0x1 PUSH1 0x40 SHL SUB DUP1 DUP3 GT ISZERO PUSH2 0x247C JUMPI PUSH0 DUP1 REVERT JUMPDEST PUSH2 0x2488 DUP12 DUP4 DUP13 ADD PUSH2 0x23E9 JUMP JUMPDEST SWAP1 SWAP8 POP SWAP6 POP PUSH1 0xA0 DUP11 ADD CALLDATALOAD SWAP2 POP PUSH2 0x249D DUP3 PUSH2 0x2426 JUMP JUMPDEST SWAP1 SWAP4 POP PUSH1 0xC0 DUP10 ADD CALLDATALOAD SWAP1 DUP1 DUP3 GT ISZERO PUSH2 0x24B2 JUMPI PUSH0 DUP1 REVERT JUMPDEST POP PUSH2 0x24BF DUP11 DUP3 DUP12 ADD PUSH2 0x23E9 JUMP JUMPDEST SWAP9 SWAP12 SWAP8 SWAP11 POP SWAP6 SWAP9 POP SWAP4 SWAP7 SWAP3 SWAP6 SWAP3 SWAP4 POP POP POP JUMP JUMPDEST PUSH0 DUP2 MLOAD DUP1 DUP5 MSTORE DUP1 PUSH1 0x20 DUP5 ADD PUSH1 0x20 DUP7 ADD MCOPY PUSH0 PUSH1 0x20 DUP3 DUP7 ADD ADD MSTORE PUSH1 0x20 PUSH1 0x1F NOT PUSH1 0x1F DUP4 ADD AND DUP6 ADD ADD SWAP2 POP POP SWAP3 SWAP2 POP POP JUMP JUMPDEST PUSH1 0x20 DUP2 MSTORE PUSH0 PUSH2 0x2512 PUSH1 0x20 DUP4 ADD DUP5 PUSH2 0x24D2 JUMP JUMPDEST SWAP4 SWAP3 POP POP POP JUMP JUMPDEST PUSH0 DUP1 PUSH0 DUP1 PUSH0 DUP1 PUSH1 0x60 DUP8 DUP10 SUB SLT ISZERO PUSH2 0x252E JUMPI PUSH0 DUP1 REVERT JUMPDEST DUP7 CALLDATALOAD PUSH1 0x1 PUSH1 0x1 PUSH1 0x40 SHL SUB DUP1 DUP3 GT ISZERO PUSH2 0x2544 JUMPI PUSH0 DUP1 REVERT JUMPDEST PUSH2 0x2550 DUP11 DUP4 DUP12 ADD PUSH2 0x23E9 JUMP JUMPDEST SWAP1 SWAP9 POP SWAP7 POP PUSH1 0x20 DUP10 ADD CALLDATALOAD SWAP2 POP DUP1 DUP3 GT ISZERO PUSH2 0x2568 JUMPI PUSH0 DUP1 REVERT JUMPDEST PUSH2 0x2574 DUP11 DUP4 DUP12 ADD PUSH2 0x23E9 JUMP JUMPDEST SWAP1 SWAP7 POP SWAP5 POP PUSH1 0x40 DUP10 ADD CALLDATALOAD SWAP2 POP DUP1 DUP3 GT ISZERO PUSH2 0x258C JUMPI PUSH0 DUP1 REVERT JUMPDEST POP PUSH2 0x2599 DUP10 DUP3 DUP11 ADD PUSH2 0x234B JUMP JUMPDEST SWAP8 SWAP11 SWAP7 SWAP10 POP SWAP5 SWAP8 POP SWAP3 SWAP6 SWAP4 SWAP5 SWAP3 POP POP POP JUMP JUMPDEST PUSH4 0xFFFFFFFF DUP2 AND DUP2 EQ PUSH2 0x1647 JUMPI PUSH0 DUP1 REVERT JUMPDEST PUSH0 DUP1 PUSH1 0x40 DUP4 DUP6 SUB SLT ISZERO PUSH2 0x25CD JUMPI PUSH0 DUP1 REVERT JUMPDEST DUP3 CALLDATALOAD PUSH2 0x25D8 DUP2 PUSH2 0x25AB JUMP JUMPDEST SWAP5 PUSH1 0x20 SWAP4 SWAP1 SWAP4 ADD CALLDATALOAD SWAP4 POP POP POP JUMP JUMPDEST PUSH4 0x4E487B71 PUSH1 0xE0 SHL PUSH0 MSTORE PUSH1 0x41 PUSH1 0x4 MSTORE PUSH1 0x24 PUSH0 REVERT JUMPDEST PUSH1 0x40 MLOAD PUSH1 0xA0 DUP2 ADD PUSH1 0x1 PUSH1 0x1 PUSH1 0x40 SHL SUB DUP2 GT DUP3 DUP3 LT OR ISZERO PUSH2 0x261C JUMPI PUSH2 0x261C PUSH2 0x25E6 JUMP JUMPDEST PUSH1 0x40 MSTORE SWAP1 JUMP JUMPDEST PUSH1 0x40 MLOAD PUSH1 0x60 DUP2 ADD PUSH1 0x1 PUSH1 0x1 PUSH1 0x40 SHL SUB DUP2 GT DUP3 DUP3 LT OR ISZERO PUSH2 0x261C JUMPI PUSH2 0x261C PUSH2 0x25E6 JUMP JUMPDEST PUSH1 0x40 DUP1 MLOAD SWAP1 DUP2 ADD PUSH1 0x1 PUSH1 0x1 PUSH1 0x40 SHL SUB DUP2 GT DUP3 DUP3 LT OR ISZERO PUSH2 0x261C JUMPI PUSH2 0x261C PUSH2 0x25E6 JUMP JUMPDEST PUSH1 0x40 MLOAD PUSH1 0x1F DUP3 ADD PUSH1 0x1F NOT AND DUP2 ADD PUSH1 0x1 PUSH1 0x1 PUSH1 0x40 SHL SUB DUP2 GT DUP3 DUP3 LT OR ISZERO PUSH2 0x268E JUMPI PUSH2 0x268E PUSH2 0x25E6 JUMP JUMPDEST PUSH1 0x40 MSTORE SWAP2 SWAP1 POP JUMP JUMPDEST PUSH0 PUSH1 0x1 PUSH1 0x1 PUSH1 0x40 SHL SUB DUP3 GT ISZERO PUSH2 0x26AE JUMPI PUSH2 0x26AE PUSH2 0x25E6 JUMP JUMPDEST POP PUSH1 0x5 SHL PUSH1 0x20 ADD SWAP1 JUMP JUMPDEST PUSH0 PUSH1 0x1 PUSH1 0x1 PUSH1 0x40 SHL SUB DUP3 GT ISZERO PUSH2 0x26D0 JUMPI PUSH2 0x26D0 PUSH2 0x25E6 JUMP JUMPDEST POP PUSH1 0x1F ADD PUSH1 0x1F NOT AND PUSH1 0x20 ADD SWAP1 JUMP JUMPDEST PUSH0 DUP3 PUSH1 0x1F DUP4 ADD SLT PUSH2 0x26ED JUMPI PUSH0 DUP1 REVERT JUMPDEST DUP2 CALLDATALOAD PUSH2 0x2700 PUSH2 0x26FB DUP3 PUSH2 0x26B8 JUMP JUMPDEST PUSH2 0x2666 JUMP JUMPDEST DUP2 DUP2 MSTORE DUP5 PUSH1 0x20 DUP4 DUP7 ADD ADD GT ISZERO PUSH2 0x2714 JUMPI PUSH0 DUP1 REVERT JUMPDEST DUP2 PUSH1 0x20 DUP6 ADD PUSH1 0x20 DUP4 ADD CALLDATACOPY PUSH0 SWAP2 DUP2 ADD PUSH1 0x20 ADD SWAP2 SWAP1 SWAP2 MSTORE SWAP4 SWAP3 POP POP POP JUMP JUMPDEST PUSH0 DUP3 PUSH1 0x1F DUP4 ADD SLT PUSH2 0x273F JUMPI PUSH0 DUP1 REVERT JUMPDEST DUP2 CALLDATALOAD PUSH1 0x20 PUSH2 0x274F PUSH2 0x26FB DUP4 PUSH2 0x2696 JUMP JUMPDEST DUP3 DUP2 MSTORE PUSH1 0x5 SWAP3 SWAP1 SWAP3 SHL DUP5 ADD DUP2 ADD SWAP2 DUP2 DUP2 ADD SWAP1 DUP7 DUP5 GT ISZERO PUSH2 0x276D JUMPI PUSH0 DUP1 REVERT JUMPDEST DUP3 DUP7 ADD JUMPDEST DUP5 DUP2 LT ISZERO PUSH2 0x231C JUMPI DUP1 CALLDATALOAD PUSH1 0x1 PUSH1 0x1 PUSH1 0x40 SHL SUB DUP2 GT ISZERO PUSH2 0x278E JUMPI PUSH0 DUP1 REVERT JUMPDEST PUSH2 0x279C DUP10 DUP7 DUP4 DUP12 ADD ADD PUSH2 0x26DE JUMP JUMPDEST DUP5 MSTORE POP SWAP2 DUP4 ADD SWAP2 DUP4 ADD PUSH2 0x2771 JUMP JUMPDEST PUSH0 DUP1 PUSH0 DUP1 PUSH1 0x80 DUP6 DUP8 SUB SLT ISZERO PUSH2 0x27BD JUMPI PUSH0 DUP1 REVERT JUMPDEST DUP5 CALLDATALOAD SWAP4 POP PUSH1 0x20 DUP1 DUP7 ADD CALLDATALOAD SWAP4 POP PUSH1 0x40 DUP7 ADD CALLDATALOAD PUSH1 0x1 PUSH1 0x1 PUSH1 0x40 SHL SUB DUP1 DUP3 GT ISZERO PUSH2 0x27E2 JUMPI PUSH0 DUP1 REVERT JUMPDEST DUP2 DUP9 ADD SWAP2 POP DUP9 PUSH1 0x1F DUP4 ADD SLT PUSH2 0x27F5 JUMPI PUSH0 DUP1 REVERT JUMPDEST DUP2 CALLDATALOAD PUSH2 0x2803 PUSH2 0x26FB DUP3 PUSH2 0x2696 JUMP JUMPDEST DUP2 DUP2 MSTORE PUSH1 0x5 SWAP2 SWAP1 SWAP2 SHL DUP4 ADD DUP5 ADD SWAP1 DUP5 DUP2 ADD SWAP1 DUP12 DUP4 GT ISZERO PUSH2 0x2821 JUMPI PUSH0 DUP1 REVERT JUMPDEST SWAP4 DUP6 ADD SWAP4 JUMPDEST DUP3 DUP6 LT ISZERO PUSH2 0x283F JUMPI DUP5 CALLDATALOAD DUP3 MSTORE SWAP4 DUP6 ADD SWAP4 SWAP1 DUP6 ADD SWAP1 PUSH2 0x2826 JUMP JUMPDEST SWAP7 POP POP POP PUSH1 0x60 DUP9 ADD CALLDATALOAD SWAP3 POP DUP1 DUP4 GT ISZERO PUSH2 0x2856 JUMPI PUSH0 DUP1 REVERT JUMPDEST POP POP PUSH2 0x2864 DUP8 DUP3 DUP9 ADD PUSH2 0x2730 JUMP JUMPDEST SWAP2 POP POP SWAP3 SWAP6 SWAP2 SWAP5 POP SWAP3 POP JUMP JUMPDEST DUP1 ISZERO ISZERO DUP2 EQ PUSH2 0x1647 JUMPI PUSH0 DUP1 REVERT JUMPDEST PUSH0 PUSH1 0x20 DUP3 DUP5 SUB SLT ISZERO PUSH2 0x288D JUMPI PUSH0 DUP1 REVERT JUMPDEST DUP2 CALLDATALOAD PUSH2 0x2512 DUP2 PUSH2 0x2870 JUMP JUMPDEST PUSH0 DUP1 PUSH1 0x20 DUP4 DUP6 SUB SLT ISZERO PUSH2 0x28A9 JUMPI PUSH0 DUP1 REVERT JUMPDEST DUP3 CALLDATALOAD PUSH1 0x1 PUSH1 0x1 PUSH1 0x40 SHL SUB DUP2 GT ISZERO PUSH2 0x28BE JUMPI PUSH0 DUP1 REVERT JUMPDEST PUSH2 0x28CA DUP6 DUP3 DUP7 ADD PUSH2 0x23E9 JUMP JUMPDEST SWAP1 SWAP7 SWAP1 SWAP6 POP SWAP4 POP POP POP POP JUMP JUMPDEST PUSH1 0x3 DUP2 LT PUSH2 0x1647 JUMPI PUSH0 DUP1 REVERT JUMPDEST PUSH0 DUP1 PUSH1 0x40 DUP4 DUP6 SUB SLT ISZERO PUSH2 0x28F3 JUMPI PUSH0 DUP1 REVERT JUMPDEST DUP3 CALLDATALOAD SWAP2 POP PUSH1 0x20 DUP4 ADD CALLDATALOAD PUSH1 0x1 PUSH1 0x1 PUSH1 0x40 SHL SUB DUP1 DUP3 GT ISZERO PUSH2 0x2910 JUMPI PUSH0 DUP1 REVERT JUMPDEST SWAP1 DUP5 ADD SWAP1 PUSH1 0xA0 DUP3 DUP8 SUB SLT ISZERO PUSH2 0x2923 JUMPI PUSH0 DUP1 REVERT JUMPDEST PUSH2 0x292B PUSH2 0x25FA JUMP JUMPDEST DUP3 CALLDATALOAD DUP2 MSTORE PUSH1 0x20 DUP4 ADD CALLDATALOAD PUSH1 0x20 DUP3 ADD MSTORE PUSH1 0x40 DUP4 ADD CALLDATALOAD PUSH2 0x2947 DUP2 PUSH2 0x2426 JUMP JUMPDEST PUSH1 0x40 DUP3 ADD MSTORE PUSH1 0x60 DUP4 ADD CALLDATALOAD PUSH2 0x295A DUP2 PUSH2 0x28D6 JUMP JUMPDEST PUSH1 0x60 DUP3 ADD MSTORE PUSH1 0x80 DUP4 ADD CALLDATALOAD DUP3 DUP2 GT ISZERO PUSH2 0x2970 JUMPI PUSH0 DUP1 REVERT JUMPDEST PUSH2 0x297C DUP9 DUP3 DUP7 ADD PUSH2 0x26DE JUMP JUMPDEST PUSH1 0x80 DUP4 ADD MSTORE POP DUP1 SWAP4 POP POP POP POP SWAP3 POP SWAP3 SWAP1 POP JUMP JUMPDEST PUSH0 PUSH1 0x20 DUP3 DUP5 SUB SLT ISZERO PUSH2 0x299F JUMPI PUSH0 DUP1 REVERT JUMPDEST DUP2 CALLDATALOAD PUSH2 0x2512 DUP2 PUSH2 0x2426 JUMP JUMPDEST PUSH1 0x20 DUP1 DUP3 MSTORE DUP3 MLOAD DUP3 DUP3 ADD DUP2 SWAP1 MSTORE PUSH0 SWAP2 SWAP1 DUP5 DUP3 ADD SWAP1 PUSH1 0x40 DUP6 ADD SWAP1 DUP5 JUMPDEST DUP2 DUP2 LT ISZERO PUSH2 0x29EA JUMPI DUP4 MLOAD PUSH1 0x1 PUSH1 0x1 PUSH1 0xA0 SHL SUB AND DUP4 MSTORE SWAP3 DUP5 ADD SWAP3 SWAP2 DUP5 ADD SWAP2 PUSH1 0x1 ADD PUSH2 0x29C5 JUMP JUMPDEST POP SWAP1 SWAP7 SWAP6 POP POP POP POP POP POP JUMP JUMPDEST PUSH0 PUSH1 0x20 DUP3 DUP5 SUB SLT ISZERO PUSH2 0x2A06 JUMPI PUSH0 DUP1 REVERT JUMPDEST DUP2 CALLDATALOAD PUSH1 0x1 PUSH1 0x1 PUSH1 0x40 SHL SUB DUP2 GT ISZERO PUSH2 0x2A1B JUMPI PUSH0 DUP1 REVERT JUMPDEST PUSH2 0x2A27 DUP5 DUP3 DUP6 ADD PUSH2 0x26DE JUMP JUMPDEST SWAP5 SWAP4 POP POP POP POP JUMP JUMPDEST PUSH0 DUP1 PUSH1 0x40 DUP4 DUP6 SUB SLT ISZERO PUSH2 0x2A40 JUMPI PUSH0 DUP1 REVERT JUMPDEST DUP3 CALLDATALOAD PUSH2 0x2A4B DUP2 PUSH2 0x2426 JUMP JUMPDEST SWAP2 POP PUSH1 0x20 DUP4 ADD CALLDATALOAD PUSH2 0x2A5B DUP2 PUSH2 0x2870 JUMP JUMPDEST DUP1 SWAP2 POP POP SWAP3 POP SWAP3 SWAP1 POP JUMP JUMPDEST PUSH0 PUSH1 0x20 DUP3 DUP5 SUB SLT ISZERO PUSH2 0x2A76 JUMPI PUSH0 DUP1 REVERT JUMPDEST DUP2 CALLDATALOAD PUSH2 0x2512 DUP2 PUSH2 0x25AB JUMP JUMPDEST PUSH0 PUSH1 0x60 DUP3 DUP5 SUB SLT ISZERO PUSH2 0x2A91 JUMPI PUSH0 DUP1 REVERT JUMPDEST PUSH2 0x2512 DUP4 DUP4 PUSH2 0x23D9 JUMP JUMPDEST PUSH1 0x1 DUP2 DUP2 SHR SWAP1 DUP3 AND DUP1 PUSH2 0x2AAF JUMPI PUSH1 0x7F DUP3 AND SWAP2 POP JUMPDEST PUSH1 0x20 DUP3 LT DUP2 SUB PUSH2 0x1C35 JUMPI PUSH4 0x4E487B71 PUSH1 0xE0 SHL PUSH0 MSTORE PUSH1 0x22 PUSH1 0x4 MSTORE PUSH1 0x24 PUSH0 REVERT JUMPDEST DUP2 DUP4 MSTORE DUP2 DUP2 PUSH1 0x20 DUP6 ADD CALLDATACOPY POP PUSH0 DUP3 DUP3 ADD PUSH1 0x20 SWAP1 DUP2 ADD SWAP2 SWAP1 SWAP2 MSTORE PUSH1 0x1F SWAP1 SWAP2 ADD PUSH1 0x1F NOT AND SWAP1 SWAP2 ADD ADD SWAP1 JUMP JUMPDEST PUSH1 0xA0 DUP2 MSTORE PUSH0 PUSH2 0x2B08 PUSH1 0xA0 DUP4 ADD DUP11 DUP13 PUSH2 0x2ACD JUMP JUMPDEST PUSH1 0x20 DUP4 DUP3 SUB PUSH1 0x20 DUP6 ADD MSTORE PUSH2 0x2B1D DUP3 DUP11 DUP13 PUSH2 0x2ACD JUMP JUMPDEST DUP5 DUP2 SUB PUSH1 0x40 DUP7 DUP2 ADD SWAP2 SWAP1 SWAP2 MSTORE DUP9 DUP3 MSTORE DUP10 SWAP4 POP SWAP1 PUSH1 0x20 ADD PUSH0 JUMPDEST DUP10 DUP2 LT ISZERO PUSH2 0x2B75 JUMPI DUP5 CALLDATALOAD DUP3 MSTORE DUP4 DUP6 ADD CALLDATALOAD PUSH2 0x2B4E DUP2 PUSH2 0x2426 JUMP JUMPDEST PUSH1 0x1 PUSH1 0x1 PUSH1 0xA0 SHL SUB AND DUP3 DUP6 ADD MSTORE DUP5 DUP4 ADD CALLDATALOAD DUP4 DUP4 ADD MSTORE PUSH1 0x60 SWAP5 DUP6 ADD SWAP5 SWAP1 SWAP2 ADD SWAP1 PUSH1 0x1 ADD PUSH2 0x2B35 JUMP JUMPDEST POP PUSH1 0x1 PUSH1 0x1 PUSH1 0xA0 SHL SUB DUP9 AND PUSH1 0x60 DUP8 ADD MSTORE SWAP4 POP PUSH2 0x2B90 SWAP3 POP POP POP JUMP JUMPDEST PUSH1 0x1 PUSH1 0x1 PUSH1 0xA0 SHL SUB DUP4 AND PUSH1 0x80 DUP4 ADD MSTORE SWAP10 SWAP9 POP POP POP POP POP POP POP POP POP JUMP JUMPDEST PUSH4 0x4E487B71 PUSH1 0xE0 SHL PUSH0 MSTORE PUSH1 0x11 PUSH1 0x4 MSTORE PUSH1 0x24 PUSH0 REVERT JUMPDEST PUSH0 PUSH1 0x1 DUP3 ADD PUSH2 0x2BD1 JUMPI PUSH2 0x2BD1 PUSH2 0x2BAC JUMP JUMPDEST POP PUSH1 0x1 ADD SWAP1 JUMP JUMPDEST PUSH0 PUSH1 0x20 DUP3 DUP5 SUB SLT ISZERO PUSH2 0x2BE8 JUMPI PUSH0 DUP1 REVERT JUMPDEST POP MLOAD SWAP2 SWAP1 POP JUMP JUMPDEST DUP1 MLOAD PUSH2 0x2BFA DUP2 PUSH2 0x2426 JUMP JUMPDEST SWAP2 SWAP1 POP JUMP JUMPDEST PUSH0 DUP3 PUSH1 0x1F DUP4 ADD SLT PUSH2 0x2C0E JUMPI PUSH0 DUP1 REVERT JUMPDEST DUP2 MLOAD PUSH2 0x2C1C PUSH2 0x26FB DUP3 PUSH2 0x26B8 JUMP JUMPDEST DUP2 DUP2 MSTORE DUP5 PUSH1 0x20 DUP4 DUP7 ADD ADD GT ISZERO PUSH2 0x2C30 JUMPI PUSH0 DUP1 REVERT JUMPDEST DUP2 PUSH1 0x20 DUP6 ADD PUSH1 0x20 DUP4 ADD MCOPY PUSH0 SWAP2 DUP2 ADD PUSH1 0x20 ADD SWAP2 SWAP1 SWAP2 MSTORE SWAP4 SWAP3 POP POP POP JUMP JUMPDEST PUSH0 PUSH1 0x20 DUP3 DUP5 SUB SLT ISZERO PUSH2 0x2C5C JUMPI PUSH0 DUP1 REVERT JUMPDEST DUP2 MLOAD PUSH1 0x1 PUSH1 0x1 PUSH1 0x40 SHL SUB DUP1 DUP3 GT ISZERO PUSH2 0x2C72 JUMPI PUSH0 DUP1 REVERT JUMPDEST SWAP1 DUP4 ADD SWAP1 PUSH1 0xA0 DUP3 DUP7 SUB SLT ISZERO PUSH2 0x2C85 JUMPI PUSH0 DUP1 REVERT JUMPDEST PUSH2 0x2C8D PUSH2 0x25FA JUMP JUMPDEST DUP3 MLOAD DUP2 MSTORE PUSH1 0x20 DUP4 ADD MLOAD PUSH1 0x20 DUP3 ADD MSTORE PUSH1 0x40 DUP4 ADD MLOAD PUSH2 0x2CA9 DUP2 PUSH2 0x2426 JUMP JUMPDEST PUSH1 0x40 DUP3 ADD MSTORE PUSH1 0x60 DUP4 ADD MLOAD PUSH2 0x2CBC DUP2 PUSH2 0x28D6 JUMP JUMPDEST PUSH1 0x60 DUP3 ADD MSTORE PUSH1 0x80 DUP4 ADD MLOAD DUP3 DUP2 GT ISZERO PUSH2 0x2CD2 JUMPI PUSH0 DUP1 REVERT JUMPDEST PUSH2 0x2CDE DUP8 DUP3 DUP7 ADD PUSH2 0x2BFF JUMP JUMPDEST PUSH1 0x80 DUP4 ADD MSTORE POP SWAP6 SWAP5 POP POP POP POP POP JUMP JUMPDEST PUSH0 PUSH1 0x20 DUP1 DUP4 DUP6 SUB SLT ISZERO PUSH2 0x2CFE JUMPI PUSH0 DUP1 REVERT JUMPDEST DUP3 MLOAD PUSH1 0x1 PUSH1 0x1 PUSH1 0x40 SHL SUB DUP2 GT ISZERO PUSH2 0x2D13 JUMPI PUSH0 DUP1 REVERT JUMPDEST DUP4 ADD PUSH1 0x1F DUP2 ADD DUP6 SGT PUSH2 0x2D23 JUMPI PUSH0 DUP1 REVERT JUMPDEST DUP1 MLOAD PUSH2 0x2D31 PUSH2 0x26FB DUP3 PUSH2 0x2696 JUMP JUMPDEST DUP2 DUP2 MSTORE PUSH1 0x60 SWAP2 DUP3 MUL DUP4 ADD DUP5 ADD SWAP2 DUP5 DUP3 ADD SWAP2 SWAP1 DUP9 DUP5 GT ISZERO PUSH2 0x2D4F JUMPI PUSH0 DUP1 REVERT JUMPDEST SWAP4 DUP6 ADD SWAP4 JUMPDEST DUP4 DUP6 LT ISZERO PUSH2 0x2DA0 JUMPI DUP1 DUP6 DUP11 SUB SLT ISZERO PUSH2 0x2D6A JUMPI PUSH0 DUP1 REVERT JUMPDEST PUSH2 0x2D72 PUSH2 0x2622 JUMP JUMPDEST DUP6 MLOAD DUP2 MSTORE DUP7 DUP7 ADD MLOAD PUSH2 0x2D83 DUP2 PUSH2 0x2426 JUMP JUMPDEST DUP2 DUP9 ADD MSTORE PUSH1 0x40 DUP7 DUP2 ADD MLOAD SWAP1 DUP3 ADD MSTORE DUP4 MSTORE SWAP4 DUP5 ADD SWAP4 SWAP2 DUP6 ADD SWAP2 PUSH2 0x2D54 JUMP JUMPDEST POP SWAP8 SWAP7 POP POP POP POP POP POP POP JUMP JUMPDEST PUSH4 0x4E487B71 PUSH1 0xE0 SHL PUSH0 MSTORE PUSH1 0x32 PUSH1 0x4 MSTORE PUSH1 0x24 PUSH0 REVERT JUMPDEST PUSH1 0x1F DUP3 GT ISZERO PUSH2 0x2FB JUMPI DUP1 PUSH0 MSTORE PUSH1 0x20 PUSH0 KECCAK256 PUSH1 0x1F DUP5 ADD PUSH1 0x5 SHR DUP2 ADD PUSH1 0x20 DUP6 LT ISZERO PUSH2 0x2DE5 JUMPI POP DUP1 JUMPDEST PUSH1 0x1F DUP5 ADD PUSH1 0x5 SHR DUP3 ADD SWAP2 POP JUMPDEST DUP2 DUP2 LT ISZERO PUSH2 0x15DE JUMPI PUSH0 DUP2 SSTORE PUSH1 0x1 ADD PUSH2 0x2DF1 JUMP JUMPDEST PUSH1 0x1 PUSH1 0x1 PUSH1 0x40 SHL SUB DUP4 GT ISZERO PUSH2 0x2E1B JUMPI PUSH2 0x2E1B PUSH2 0x25E6 JUMP JUMPDEST PUSH2 0x2E2F DUP4 PUSH2 0x2E29 DUP4 SLOAD PUSH2 0x2A9B JUMP JUMPDEST DUP4 PUSH2 0x2DC0 JUMP JUMPDEST PUSH0 PUSH1 0x1F DUP5 GT PUSH1 0x1 DUP2 EQ PUSH2 0x2E60 JUMPI PUSH0 DUP6 ISZERO PUSH2 0x2E49 JUMPI POP DUP4 DUP3 ADD CALLDATALOAD JUMPDEST PUSH0 NOT PUSH1 0x3 DUP8 SWAP1 SHL SHR NOT AND PUSH1 0x1 DUP7 SWAP1 SHL OR DUP4 SSTORE PUSH2 0x15DE JUMP JUMPDEST PUSH0 DUP4 DUP2 MSTORE PUSH1 0x20 DUP2 KECCAK256 PUSH1 0x1F NOT DUP8 AND SWAP2 JUMPDEST DUP3 DUP2 LT ISZERO PUSH2 0x2E8F JUMPI DUP7 DUP6 ADD CALLDATALOAD DUP3 SSTORE PUSH1 0x20 SWAP5 DUP6 ADD SWAP5 PUSH1 0x1 SWAP1 SWAP3 ADD SWAP2 ADD PUSH2 0x2E6F JUMP JUMPDEST POP DUP7 DUP3 LT ISZERO PUSH2 0x2EAB JUMPI PUSH0 NOT PUSH1 0xF8 DUP9 PUSH1 0x3 SHL AND SHR NOT DUP5 DUP8 ADD CALLDATALOAD AND DUP2 SSTORE JUMPDEST POP POP PUSH1 0x1 DUP6 PUSH1 0x1 SHL ADD DUP4 SSTORE POP POP POP POP POP JUMP JUMPDEST PUSH0 PUSH1 0x20 DUP3 DUP5 SUB SLT ISZERO PUSH2 0x2ECD JUMPI PUSH0 DUP1 REVERT JUMPDEST DUP2 MLOAD PUSH1 0x1 PUSH1 0x1 PUSH1 0x40 SHL SUB DUP1 DUP3 GT ISZERO PUSH2 0x2EE3 JUMPI PUSH0 DUP1 REVERT JUMPDEST SWAP1 DUP4 ADD SWAP1 PUSH1 0xA0 DUP3 DUP7 SUB SLT ISZERO PUSH2 0x2EF6 JUMPI PUSH0 DUP1 REVERT JUMPDEST PUSH2 0x2EFE PUSH2 0x25FA JUMP JUMPDEST DUP3 MLOAD DUP2 MSTORE PUSH1 0x20 DUP4 ADD MLOAD PUSH1 0x20 DUP3 ADD MSTORE PUSH1 0x40 DUP4 ADD MLOAD PUSH2 0x2F1A DUP2 PUSH2 0x2426 JUMP JUMPDEST PUSH1 0x40 DUP3 ADD MSTORE PUSH1 0x60 DUP4 DUP2 ADD MLOAD SWAP1 DUP3 ADD MSTORE PUSH1 0x80 DUP4 ADD MLOAD DUP3 DUP2 GT ISZERO PUSH2 0x2CD2 JUMPI PUSH0 DUP1 REVERT JUMPDEST PUSH0 PUSH1 0xC0 DUP3 DUP5 SUB SLT ISZERO PUSH2 0x2F4A JUMPI PUSH0 DUP1 REVERT JUMPDEST PUSH1 0x40 MLOAD PUSH1 0xC0 DUP2 ADD DUP2 DUP2 LT PUSH1 0x1 PUSH1 0x1 PUSH1 0x40 SHL SUB DUP3 GT OR ISZERO PUSH2 0x2F6C JUMPI PUSH2 0x2F6C PUSH2 0x25E6 JUMP JUMPDEST DUP1 PUSH1 0x40 MSTORE POP DUP3 MLOAD DUP2 MSTORE PUSH1 0x20 DUP4 ADD MLOAD PUSH1 0x20 DUP3 ADD MSTORE PUSH1 0x40 DUP4 ADD MLOAD PUSH2 0xFFFF DUP2 AND DUP2 EQ PUSH2 0x2F93 JUMPI PUSH0 DUP1 REVERT JUMPDEST PUSH1 0x40 DUP3 ADD MSTORE PUSH1 0x60 DUP4 ADD MLOAD PUSH2 0x2FA6 DUP2 PUSH2 0x25AB JUMP JUMPDEST PUSH1 0x60 DUP3 ADD MSTORE PUSH1 0x80 DUP4 ADD MLOAD PUSH2 0x2FB9 DUP2 PUSH2 0x2426 JUMP JUMPDEST PUSH1 0x80 DUP3 ADD MSTORE PUSH2 0x2FCA PUSH1 0xA0 DUP5 ADD PUSH2 0x2BEF JUMP JUMPDEST PUSH1 0xA0 DUP3 ADD MSTORE SWAP4 SWAP3 POP POP POP JUMP JUMPDEST PUSH1 0x40 DUP2 MSTORE PUSH4 0xFFFFFFFF DUP4 MLOAD AND PUSH1 0x40 DUP3 ADD MSTORE PUSH1 0x20 DUP4 ADD MLOAD PUSH1 0x60 DUP3 ADD MSTORE PUSH0 PUSH1 0x40 DUP5 ADD MLOAD PUSH1 0xA0 PUSH1 0x80 DUP5 ADD MSTORE PUSH2 0x300B PUSH1 0xE0 DUP5 ADD DUP3 PUSH2 0x24D2 JUMP JUMPDEST SWAP1 POP PUSH1 0x60 DUP6 ADD MLOAD PUSH1 0x3F NOT DUP5 DUP4 SUB ADD PUSH1 0xA0 DUP6 ADD MSTORE PUSH2 0x3028 DUP3 DUP3 PUSH2 0x24D2 JUMP JUMPDEST PUSH1 0x80 SWAP7 SWAP1 SWAP7 ADD MLOAD ISZERO ISZERO PUSH1 0xC0 DUP6 ADD MSTORE POP POP POP PUSH1 0x1 PUSH1 0x1 PUSH1 0xA0 SHL SUB SWAP2 SWAP1 SWAP2 AND PUSH1 0x20 SWAP1 SWAP2 ADD MSTORE SWAP1 JUMP JUMPDEST PUSH0 DUP2 DUP4 SUB PUSH1 0x80 DUP2 SLT ISZERO PUSH2 0x305F JUMPI PUSH0 DUP1 REVERT JUMPDEST PUSH2 0x3067 PUSH2 0x2622 JUMP JUMPDEST DUP4 MLOAD DUP2 MSTORE PUSH1 0x20 DUP5 ADD MLOAD PUSH1 0x1 PUSH1 0x1 PUSH1 0x40 SHL SUB DUP2 AND DUP2 EQ PUSH2 0x3084 JUMPI PUSH0 DUP1 REVERT JUMPDEST PUSH1 0x20 DUP3 ADD MSTORE PUSH1 0x40 PUSH1 0x3F NOT DUP4 ADD SLT ISZERO PUSH2 0x309A JUMPI PUSH0 DUP1 REVERT JUMPDEST PUSH2 0x30A2 PUSH2 0x2644 JUMP JUMPDEST PUSH1 0x40 DUP6 DUP2 ADD MLOAD DUP3 MSTORE PUSH1 0x60 SWAP1 SWAP6 ADD MLOAD PUSH1 0x20 DUP3 ADD MSTORE SWAP4 DUP2 ADD SWAP4 SWAP1 SWAP4 MSTORE POP SWAP1 SWAP3 SWAP2 POP POP JUMP JUMPDEST PUSH0 PUSH1 0x40 DUP3 DUP5 SUB SLT ISZERO PUSH2 0x30D4 JUMPI PUSH0 DUP1 REVERT JUMPDEST PUSH2 0x30DC PUSH2 0x2644 JUMP JUMPDEST DUP3 CALLDATALOAD DUP2 MSTORE PUSH1 0x20 DUP4 ADD CALLDATALOAD PUSH2 0x30EE DUP2 PUSH2 0x2870 JUMP JUMPDEST PUSH1 0x20 DUP3 ADD MSTORE SWAP4 SWAP3 POP POP POP JUMP JUMPDEST DUP1 DUP3 ADD DUP1 DUP3 GT ISZERO PUSH2 0x1130 JUMPI PUSH2 0x1130 PUSH2 0x2BAC JUMP JUMPDEST PUSH0 PUSH1 0x20 DUP3 DUP5 SUB SLT ISZERO PUSH2 0x311D JUMPI PUSH0 DUP1 REVERT JUMPDEST DUP2 MLOAD PUSH2 0x2512 DUP2 PUSH2 0x2870 JUMP JUMPDEST PUSH1 0x20 DUP2 MSTORE PUSH0 PUSH1 0x1 DUP1 PUSH1 0xA0 SHL SUB DUP1 DUP5 MLOAD AND PUSH1 0x20 DUP5 ADD MSTORE PUSH1 0x20 DUP5 ADD MLOAD PUSH1 0x40 DUP5 ADD MSTORE DUP1 PUSH1 0x40 DUP6 ADD MLOAD AND PUSH1 0x60 DUP5 ADD MSTORE PUSH1 0x60 DUP5 ADD MLOAD PUSH1 0x80 DUP5 ADD MSTORE DUP1 PUSH1 0x80 DUP6 ADD MLOAD AND PUSH1 0xA0 DUP5 ADD MSTORE POP PUSH1 0xA0 DUP4 ADD MLOAD PUSH1 0xC0 DUP1 DUP5 ADD MSTORE PUSH2 0x2A27 PUSH1 0xE0 DUP5 ADD DUP3 PUSH2 0x24D2 JUMP JUMPDEST PUSH1 0x80 DUP2 MSTORE PUSH2 0xFFFF PUSH1 0xF0 SHL DUP6 MLOAD AND PUSH1 0x80 DUP3 ADD MSTORE PUSH0 PUSH1 0x20 DUP7 ADD MLOAD PUSH1 0x1 DUP1 PUSH1 0xA0 SHL SUB DUP1 DUP3 AND PUSH1 0xA0 DUP6 ADD MSTORE DUP1 PUSH1 0x40 DUP10 ADD MLOAD AND PUSH1 0xC0 DUP6 ADD MSTORE PUSH1 0x60 DUP9 ADD MLOAD PUSH1 0xE0 DUP6 ADD MSTORE DUP1 PUSH1 0x80 DUP10 ADD MLOAD AND PUSH2 0x100 DUP6 ADD MSTORE POP POP PUSH1 0xA0 DUP7 ADD MLOAD PUSH1 0xC0 PUSH2 0x120 DUP5 ADD MSTORE PUSH2 0x31E9 PUSH2 0x140 DUP5 ADD DUP3 PUSH2 0x24D2 JUMP JUMPDEST PUSH1 0x1 PUSH1 0x1 PUSH1 0xA0 SHL SUB DUP8 AND PUSH1 0x20 DUP6 ADD MSTORE SWAP1 POP DUP3 DUP2 SUB PUSH1 0x40 DUP5 ADD MSTORE PUSH2 0x320C DUP2 DUP7 PUSH2 0x24D2 JUMP JUMPDEST SWAP1 POP DUP3 DUP2 SUB PUSH1 0x60 DUP5 ADD MSTORE PUSH2 0x3220 DUP2 DUP6 PUSH2 0x24D2 JUMP JUMPDEST SWAP8 SWAP7 POP POP POP POP POP POP POP JUMP JUMPDEST PUSH1 0x20 DUP2 MSTORE DUP2 MLOAD PUSH1 0x20 DUP3 ADD MSTORE PUSH1 0x20 DUP3 ADD MLOAD PUSH1 0x40 DUP3 ADD MSTORE PUSH1 0x1 DUP1 PUSH1 0xA0 SHL SUB PUSH1 0x40 DUP4 ADD MLOAD AND PUSH1 0x60 DUP3 ADD MSTORE PUSH1 0x60 DUP3 ADD MLOAD PUSH1 0x80 DUP3 ADD MSTORE PUSH0 PUSH1 0x80 DUP4 ADD MLOAD PUSH1 0xA0 DUP1 DUP5 ADD MSTORE PUSH2 0x2A27 PUSH1 0xC0 DUP5 ADD DUP3 PUSH2 0x24D2 JUMP JUMPDEST PUSH1 0x20 DUP2 MSTORE PUSH1 0x1 DUP1 PUSH1 0xA0 SHL SUB DUP3 MLOAD AND PUSH1 0x20 DUP3 ADD MSTORE PUSH1 0x20 DUP3 ADD MLOAD PUSH1 0x40 DUP3 ADD MSTORE PUSH0 PUSH1 0x40 DUP4 ADD MLOAD PUSH1 0x60 DUP1 DUP5 ADD MSTORE PUSH2 0x2A27 PUSH1 0x80 DUP5 ADD DUP3 PUSH2 0x24D2 JUMP JUMPDEST PUSH1 0x1 PUSH1 0x1 PUSH1 0xA0 SHL SUB DUP5 AND DUP2 MSTORE PUSH1 0x60 PUSH1 0x20 DUP3 ADD DUP2 SWAP1 MSTORE PUSH0 SWAP1 PUSH2 0x32CE SWAP1 DUP4 ADD DUP6 PUSH2 0x24D2 JUMP JUMPDEST DUP3 DUP2 SUB PUSH1 0x40 DUP5 ADD MSTORE PUSH2 0x32E0 DUP2 DUP6 PUSH2 0x24D2 JUMP JUMPDEST SWAP7 SWAP6 POP POP POP POP POP POP JUMP JUMPDEST PUSH2 0xFFFF DUP8 AND DUP2 MSTORE PUSH1 0xFF DUP7 AND PUSH1 0x20 DUP3 ADD MSTORE PUSH1 0x1 DUP1 PUSH1 0xA0 SHL SUB DUP6 AND PUSH1 0x40 DUP3 ADD MSTORE DUP4 PUSH1 0x60 DUP3 ADD MSTORE DUP3 PUSH1 0x80 DUP3 ADD MSTORE PUSH1 0xC0 PUSH1 0xA0 DUP3 ADD MSTORE PUSH0 PUSH2 0x3329 PUSH1 0xC0 DUP4 ADD DUP5 PUSH2 0x24D2 JUMP JUMPDEST SWAP9 SWAP8 POP POP POP POP POP POP POP POP JUMP JUMPDEST PUSH0 DUP1 PUSH1 0x40 DUP4 DUP6 SUB SLT ISZERO PUSH2 0x3346 JUMPI PUSH0 DUP1 REVERT JUMPDEST POP POP DUP1 MLOAD PUSH1 0x20 SWAP1 SWAP2 ADD MLOAD SWAP1 SWAP3 SWAP1 SWAP2 POP JUMP INVALID PUSH1 0x80 PUSH1 0x40 MSTORE CALLVALUE DUP1 ISZERO PUSH2 0xF JUMPI PUSH0 DUP1 REVERT JUMPDEST POP PUSH1 0x40 MLOAD PUSH2 0x1F37 CODESIZE SUB DUP1 PUSH2 0x1F37 DUP4 CODECOPY DUP2 ADD PUSH1 0x40 DUP2 SWAP1 MSTORE PUSH2 0x2E SWAP2 PUSH2 0x1F4 JUMP JUMPDEST DUP5 DUP5 PUSH1 0x3 PUSH2 0x3C DUP4 DUP3 PUSH2 0x3B0 JUMP JUMPDEST POP PUSH1 0x4 PUSH2 0x49 DUP3 DUP3 PUSH2 0x3B0 JUMP JUMPDEST POP POP PUSH1 0x5 DUP1 SLOAD PUSH1 0x1 PUSH1 0x1 PUSH1 0xA0 SHL SUB DUP1 DUP7 AND PUSH1 0x1 PUSH1 0x1 PUSH1 0xA0 SHL SUB NOT SWAP3 DUP4 AND OR SWAP1 SWAP3 SSTORE PUSH1 0x6 DUP1 SLOAD SWAP3 DUP6 AND SWAP3 SWAP1 SWAP2 AND SWAP2 SWAP1 SWAP2 OR SWAP1 SSTORE POP PUSH0 JUMPDEST DUP4 MLOAD DUP2 LT ISZERO PUSH2 0xF7 JUMPI PUSH1 0x7 DUP5 DUP3 DUP2 MLOAD DUP2 LT PUSH2 0x9B JUMPI PUSH2 0x9B PUSH2 0x46F JUMP JUMPDEST PUSH1 0x20 SWAP1 DUP2 MUL SWAP2 SWAP1 SWAP2 ADD DUP2 ADD MLOAD DUP3 SLOAD PUSH1 0x1 DUP1 DUP3 ADD DUP6 SSTORE PUSH0 SWAP5 DUP6 MSTORE SWAP4 DUP4 SWAP1 KECCAK256 DUP3 MLOAD PUSH1 0x3 SWAP1 SWAP3 MUL ADD SWAP1 DUP2 SSTORE SWAP2 DUP2 ADD MLOAD DUP3 DUP5 ADD DUP1 SLOAD PUSH1 0x1 PUSH1 0x1 PUSH1 0xA0 SHL SUB NOT AND PUSH1 0x1 PUSH1 0x1 PUSH1 0xA0 SHL SUB SWAP1 SWAP3 AND SWAP2 SWAP1 SWAP2 OR SWAP1 SSTORE PUSH1 0x40 ADD MLOAD PUSH1 0x2 SWAP1 SWAP2 ADD SSTORE ADD PUSH2 0x7E JUMP JUMPDEST POP POP POP POP POP POP PUSH2 0x483 JUMP JUMPDEST PUSH4 0x4E487B71 PUSH1 0xE0 SHL PUSH0 MSTORE PUSH1 0x41 PUSH1 0x4 MSTORE PUSH1 0x24 PUSH0 REVERT JUMPDEST PUSH1 0x40 MLOAD PUSH1 0x60 DUP2 ADD PUSH1 0x1 PUSH1 0x1 PUSH1 0x40 SHL SUB DUP2 GT DUP3 DUP3 LT OR ISZERO PUSH2 0x138 JUMPI PUSH2 0x138 PUSH2 0x102 JUMP JUMPDEST PUSH1 0x40 MSTORE SWAP1 JUMP JUMPDEST PUSH1 0x40 MLOAD PUSH1 0x1F DUP3 ADD PUSH1 0x1F NOT AND DUP2 ADD PUSH1 0x1 PUSH1 0x1 PUSH1 0x40 SHL SUB DUP2 GT DUP3 DUP3 LT OR ISZERO PUSH2 0x166 JUMPI PUSH2 0x166 PUSH2 0x102 JUMP JUMPDEST PUSH1 0x40 MSTORE SWAP2 SWAP1 POP JUMP JUMPDEST PUSH0 DUP3 PUSH1 0x1F DUP4 ADD SLT PUSH2 0x17D JUMPI PUSH0 DUP1 REVERT JUMPDEST DUP2 MLOAD PUSH1 0x1 PUSH1 0x1 PUSH1 0x40 SHL SUB DUP2 GT ISZERO PUSH2 0x196 JUMPI PUSH2 0x196 PUSH2 0x102 JUMP JUMPDEST PUSH2 0x1A9 PUSH1 0x1F DUP3 ADD PUSH1 0x1F NOT AND PUSH1 0x20 ADD PUSH2 0x13E JUMP JUMPDEST DUP2 DUP2 MSTORE DUP5 PUSH1 0x20 DUP4 DUP7 ADD ADD GT ISZERO PUSH2 0x1BD JUMPI PUSH0 DUP1 REVERT JUMPDEST DUP2 PUSH1 0x20 DUP6 ADD PUSH1 0x20 DUP4 ADD MCOPY PUSH0 SWAP2 DUP2 ADD PUSH1 0x20 ADD SWAP2 SWAP1 SWAP2 MSTORE SWAP4 SWAP3 POP POP POP JUMP JUMPDEST DUP1 MLOAD PUSH1 0x1 PUSH1 0x1 PUSH1 0xA0 SHL SUB DUP2 AND DUP2 EQ PUSH2 0x1EF JUMPI PUSH0 DUP1 REVERT JUMPDEST SWAP2 SWAP1 POP JUMP JUMPDEST PUSH0 DUP1 PUSH0 DUP1 PUSH0 PUSH1 0xA0 DUP7 DUP9 SUB SLT ISZERO PUSH2 0x208 JUMPI PUSH0 DUP1 REVERT JUMPDEST DUP6 MLOAD PUSH1 0x1 PUSH1 0x1 PUSH1 0x40 SHL SUB DUP1 DUP3 GT ISZERO PUSH2 0x21E JUMPI PUSH0 DUP1 REVERT JUMPDEST PUSH2 0x22A DUP10 DUP4 DUP11 ADD PUSH2 0x16E JUMP JUMPDEST SWAP7 POP PUSH1 0x20 SWAP2 POP DUP2 DUP9 ADD MLOAD DUP2 DUP2 GT ISZERO PUSH2 0x240 JUMPI PUSH0 DUP1 REVERT JUMPDEST PUSH2 0x24C DUP11 DUP3 DUP12 ADD PUSH2 0x16E JUMP JUMPDEST SWAP7 POP POP PUSH1 0x40 DUP1 DUP10 ADD MLOAD DUP3 DUP2 GT ISZERO PUSH2 0x261 JUMPI PUSH0 DUP1 REVERT JUMPDEST DUP10 ADD PUSH1 0x1F DUP2 ADD DUP12 SGT PUSH2 0x271 JUMPI PUSH0 DUP1 REVERT JUMPDEST DUP1 MLOAD DUP4 DUP2 GT ISZERO PUSH2 0x283 JUMPI PUSH2 0x283 PUSH2 0x102 JUMP JUMPDEST PUSH2 0x291 DUP6 DUP3 PUSH1 0x5 SHL ADD PUSH2 0x13E JUMP JUMPDEST DUP2 DUP2 MSTORE DUP6 DUP2 ADD SWAP5 POP PUSH1 0x60 SWAP2 DUP3 MUL DUP4 ADD DUP7 ADD SWAP2 DUP14 DUP4 GT ISZERO PUSH2 0x2AF JUMPI PUSH0 DUP1 REVERT JUMPDEST SWAP3 DUP7 ADD SWAP3 JUMPDEST DUP3 DUP5 LT ISZERO PUSH2 0x2FC JUMPI DUP1 DUP5 DUP16 SUB SLT ISZERO PUSH2 0x2CA JUMPI PUSH0 DUP1 REVERT JUMPDEST PUSH2 0x2D2 PUSH2 0x116 JUMP JUMPDEST DUP5 MLOAD DUP2 MSTORE PUSH2 0x2E1 DUP9 DUP7 ADD PUSH2 0x1D9 JUMP JUMPDEST DUP2 DUP10 ADD MSTORE DUP5 DUP7 ADD MLOAD DUP7 DUP3 ADD MSTORE DUP7 MSTORE SWAP5 DUP7 ADD SWAP5 SWAP3 DUP4 ADD SWAP3 PUSH2 0x2B4 JUMP JUMPDEST POP DUP1 SWAP9 POP POP POP POP POP POP POP PUSH2 0x312 PUSH1 0x60 DUP8 ADD PUSH2 0x1D9 JUMP JUMPDEST SWAP2 POP PUSH2 0x320 PUSH1 0x80 DUP8 ADD PUSH2 0x1D9 JUMP JUMPDEST SWAP1 POP SWAP3 SWAP6 POP SWAP3 SWAP6 SWAP1 SWAP4 POP JUMP JUMPDEST PUSH1 0x1 DUP2 DUP2 SHR SWAP1 DUP3 AND DUP1 PUSH2 0x340 JUMPI PUSH1 0x7F DUP3 AND SWAP2 POP JUMPDEST PUSH1 0x20 DUP3 LT DUP2 SUB PUSH2 0x35E JUMPI PUSH4 0x4E487B71 PUSH1 0xE0 SHL PUSH0 MSTORE PUSH1 0x22 PUSH1 0x4 MSTORE PUSH1 0x24 PUSH0 REVERT JUMPDEST POP SWAP2 SWAP1 POP JUMP JUMPDEST PUSH1 0x1F DUP3 GT ISZERO PUSH2 0x3AB JUMPI DUP1 PUSH0 MSTORE PUSH1 0x20 PUSH0 KECCAK256 PUSH1 0x1F DUP5 ADD PUSH1 0x5 SHR DUP2 ADD PUSH1 0x20 DUP6 LT ISZERO PUSH2 0x389 JUMPI POP DUP1 JUMPDEST PUSH1 0x1F DUP5 ADD PUSH1 0x5 SHR DUP3 ADD SWAP2 POP JUMPDEST DUP2 DUP2 LT ISZERO PUSH2 0x3A8 JUMPI PUSH0 DUP2 SSTORE PUSH1 0x1 ADD PUSH2 0x395 JUMP JUMPDEST POP POP JUMPDEST POP POP POP JUMP JUMPDEST DUP2 MLOAD PUSH1 0x1 PUSH1 0x1 PUSH1 0x40 SHL SUB DUP2 GT ISZERO PUSH2 0x3C9 JUMPI PUSH2 0x3C9 PUSH2 0x102 JUMP JUMPDEST PUSH2 0x3DD DUP2 PUSH2 0x3D7 DUP5 SLOAD PUSH2 0x32C JUMP JUMPDEST DUP5 PUSH2 0x364 JUMP JUMPDEST PUSH1 0x20 DUP1 PUSH1 0x1F DUP4 GT PUSH1 0x1 DUP2 EQ PUSH2 0x410 JUMPI PUSH0 DUP5 ISZERO PUSH2 0x3F9 JUMPI POP DUP6 DUP4 ADD MLOAD JUMPDEST PUSH0 NOT PUSH1 0x3 DUP7 SWAP1 SHL SHR NOT AND PUSH1 0x1 DUP6 SWAP1 SHL OR DUP6 SSTORE PUSH2 0x467 JUMP JUMPDEST PUSH0 DUP6 DUP2 MSTORE PUSH1 0x20 DUP2 KECCAK256 PUSH1 0x1F NOT DUP7 AND SWAP2 JUMPDEST DUP3 DUP2 LT ISZERO PUSH2 0x43E JUMPI DUP9 DUP7 ADD MLOAD DUP3 SSTORE SWAP5 DUP5 ADD SWAP5 PUSH1 0x1 SWAP1 SWAP2 ADD SWAP1 DUP5 ADD PUSH2 0x41F JUMP JUMPDEST POP DUP6 DUP3 LT ISZERO PUSH2 0x45B JUMPI DUP8 DUP6 ADD MLOAD PUSH0 NOT PUSH1 0x3 DUP9 SWAP1 SHL PUSH1 0xF8 AND SHR NOT AND DUP2 SSTORE JUMPDEST POP POP PUSH1 0x1 DUP5 PUSH1 0x1 SHL ADD DUP6 SSTORE JUMPDEST POP POP POP POP POP POP JUMP JUMPDEST PUSH4 0x4E487B71 PUSH1 0xE0 SHL PUSH0 MSTORE PUSH1 0x32 PUSH1 0x4 MSTORE PUSH1 0x24 PUSH0 REVERT JUMPDEST PUSH2 0x1AA7 DUP1 PUSH2 0x490 PUSH0 CODECOPY PUSH0 RETURN INVALID PUSH1 0x80 PUSH1 0x40 MSTORE PUSH1 0x4 CALLDATASIZE LT PUSH2 0x17B JUMPI PUSH0 CALLDATALOAD PUSH1 0xE0 SHR DUP1 PUSH4 0x95D89B41 GT PUSH2 0xCD JUMPI DUP1 PUSH4 0xDB006A75 GT PUSH2 0x87 JUMPI DUP1 PUSH4 0xF01648F8 GT PUSH2 0x62 JUMPI DUP1 PUSH4 0xF01648F8 EQ PUSH2 0x4BA JUMPI DUP1 PUSH4 0xF4C76363 EQ PUSH2 0x4D7 JUMPI DUP1 PUSH4 0xFE206292 EQ PUSH2 0x4F6 JUMPI DUP1 PUSH4 0xFE74748E EQ PUSH2 0x4BA JUMPI PUSH0 DUP1 REVERT JUMPDEST DUP1 PUSH4 0xDB006A75 EQ PUSH2 0x443 JUMPI DUP1 PUSH4 0xDD62ED3E EQ PUSH2 0x462 JUMPI DUP1 PUSH4 0xE02B79F9 EQ PUSH2 0x4A6 JUMPI PUSH0 DUP1 REVERT JUMPDEST DUP1 PUSH4 0x95D89B41 EQ PUSH2 0x36F JUMPI DUP1 PUSH4 0x99FBAB88 EQ PUSH2 0x383 JUMPI DUP1 PUSH4 0xA2CE9C1F EQ PUSH2 0x3C5 JUMPI DUP1 PUSH4 0xA9059CBB EQ PUSH2 0x3E4 JUMPI DUP1 PUSH4 0xA9EDF1F6 EQ PUSH2 0x403 JUMPI DUP1 PUSH4 0xBA906000 EQ PUSH2 0x422 JUMPI PUSH0 DUP1 REVERT JUMPDEST DUP1 PUSH4 0x23B872DD GT PUSH2 0x138 JUMPI DUP1 PUSH4 0x56DC63CB GT PUSH2 0x113 JUMPI DUP1 PUSH4 0x56DC63CB EQ PUSH2 0x2CB JUMPI DUP1 PUSH4 0x6B9691A1 EQ PUSH2 0x2FB JUMPI DUP1 PUSH4 0x70A08231 EQ PUSH2 0x31A JUMPI DUP1 PUSH4 0x80275860 EQ PUSH2 0x34E JUMPI PUSH0 DUP1 REVERT JUMPDEST DUP1 PUSH4 0x23B872DD EQ PUSH2 0x25A JUMPI DUP1 PUSH4 0x3013CE29 EQ PUSH2 0x279 JUMPI DUP1 PUSH4 0x313CE567 EQ PUSH2 0x2B0 JUMPI PUSH0 DUP1 REVERT JUMPDEST DUP1 PUSH4 0x6FDDE03 EQ PUSH2 0x17F JUMPI DUP1 PUSH4 0x95EA7B3 EQ PUSH2 0x1A9 JUMPI DUP1 PUSH4 0xB2B8E35 EQ PUSH2 0x1D8 JUMPI DUP1 PUSH4 0x18160DDD EQ PUSH2 0x1F9 JUMPI DUP1 PUSH4 0x1DDC8F6D EQ PUSH2 0x20D JUMPI DUP1 PUSH4 0x1FC5846B EQ PUSH2 0x239 JUMPI JUMPDEST PUSH0 DUP1 REVERT JUMPDEST CALLVALUE DUP1 ISZERO PUSH2 0x18A JUMPI PUSH0 DUP1 REVERT JUMPDEST POP PUSH2 0x193 PUSH2 0x515 JUMP JUMPDEST PUSH1 0x40 MLOAD PUSH2 0x1A0 SWAP2 SWAP1 PUSH2 0x139C JUMP JUMPDEST PUSH1 0x40 MLOAD DUP1 SWAP2 SUB SWAP1 RETURN JUMPDEST CALLVALUE DUP1 ISZERO PUSH2 0x1B4 JUMPI PUSH0 DUP1 REVERT JUMPDEST POP PUSH2 0x1C8 PUSH2 0x1C3 CALLDATASIZE PUSH1 0x4 PUSH2 0x13D0 JUMP JUMPDEST PUSH2 0x5A5 JUMP JUMPDEST PUSH1 0x40 MLOAD SWAP1 ISZERO ISZERO DUP2 MSTORE PUSH1 0x20 ADD PUSH2 0x1A0 JUMP JUMPDEST PUSH2 0x1EB PUSH2 0x1E6 CALLDATASIZE PUSH1 0x4 PUSH2 0x1540 JUMP JUMPDEST PUSH2 0x5BE JUMP JUMPDEST PUSH1 0x40 MLOAD SWAP1 DUP2 MSTORE PUSH1 0x20 ADD PUSH2 0x1A0 JUMP JUMPDEST CALLVALUE DUP1 ISZERO PUSH2 0x204 JUMPI PUSH0 DUP1 REVERT JUMPDEST POP PUSH1 0x2 SLOAD PUSH2 0x1EB JUMP JUMPDEST CALLVALUE DUP1 ISZERO PUSH2 0x218 JUMPI PUSH0 DUP1 REVERT JUMPDEST POP PUSH2 0x22C PUSH2 0x227 CALLDATASIZE PUSH1 0x4 PUSH2 0x15FD JUMP JUMPDEST PUSH2 0x8AE JUMP JUMPDEST PUSH1 0x40 MLOAD PUSH2 0x1A0 SWAP2 SWAP1 PUSH2 0x1648 JUMP JUMPDEST CALLVALUE DUP1 ISZERO PUSH2 0x244 JUMPI PUSH0 DUP1 REVERT JUMPDEST POP PUSH2 0x1EB PUSH2 0x253 CALLDATASIZE PUSH1 0x4 PUSH2 0x16A3 JUMP JUMPDEST PUSH0 SWAP3 SWAP2 POP POP JUMP JUMPDEST CALLVALUE DUP1 ISZERO PUSH2 0x265 JUMPI PUSH0 DUP1 REVERT JUMPDEST POP PUSH2 0x1C8 PUSH2 0x274 CALLDATASIZE PUSH1 0x4 PUSH2 0x1712 JUMP JUMPDEST PUSH2 0x9EE JUMP JUMPDEST CALLVALUE DUP1 ISZERO PUSH2 0x284 JUMPI PUSH0 DUP1 REVERT JUMPDEST POP PUSH1 0x5 SLOAD PUSH2 0x298 SWAP1 PUSH1 0x1 PUSH1 0x1 PUSH1 0xA0 SHL SUB AND DUP2 JUMP JUMPDEST PUSH1 0x40 MLOAD PUSH1 0x1 PUSH1 0x1 PUSH1 0xA0 SHL SUB SWAP1 SWAP2 AND DUP2 MSTORE PUSH1 0x20 ADD PUSH2 0x1A0 JUMP JUMPDEST CALLVALUE DUP1 ISZERO PUSH2 0x2BB JUMPI PUSH0 DUP1 REVERT JUMPDEST POP PUSH1 0x40 MLOAD PUSH1 0x12 DUP2 MSTORE PUSH1 0x20 ADD PUSH2 0x1A0 JUMP JUMPDEST CALLVALUE DUP1 ISZERO PUSH2 0x2D6 JUMPI PUSH0 DUP1 REVERT JUMPDEST POP PUSH2 0x2EA PUSH2 0x2E5 CALLDATASIZE PUSH1 0x4 PUSH2 0x15FD JUMP JUMPDEST PUSH2 0xA11 JUMP JUMPDEST PUSH1 0x40 MLOAD PUSH2 0x1A0 SWAP6 SWAP5 SWAP4 SWAP3 SWAP2 SWAP1 PUSH2 0x174B JUMP JUMPDEST CALLVALUE DUP1 ISZERO PUSH2 0x306 JUMPI PUSH0 DUP1 REVERT JUMPDEST POP PUSH2 0x2EA PUSH2 0x315 CALLDATASIZE PUSH1 0x4 PUSH2 0x15FD JUMP JUMPDEST PUSH2 0xAD7 JUMP JUMPDEST CALLVALUE DUP1 ISZERO PUSH2 0x325 JUMPI PUSH0 DUP1 REVERT JUMPDEST POP PUSH2 0x1EB PUSH2 0x334 CALLDATASIZE PUSH1 0x4 PUSH2 0x1791 JUMP JUMPDEST PUSH1 0x1 PUSH1 0x1 PUSH1 0xA0 SHL SUB AND PUSH0 SWAP1 DUP2 MSTORE PUSH1 0x20 DUP2 SWAP1 MSTORE PUSH1 0x40 SWAP1 KECCAK256 SLOAD SWAP1 JUMP JUMPDEST CALLVALUE DUP1 ISZERO PUSH2 0x359 JUMPI PUSH0 DUP1 REVERT JUMPDEST POP PUSH2 0x362 PUSH2 0xB1C JUMP JUMPDEST PUSH1 0x40 MLOAD PUSH2 0x1A0 SWAP2 SWAP1 PUSH2 0x17AA JUMP JUMPDEST CALLVALUE DUP1 ISZERO PUSH2 0x37A JUMPI PUSH0 DUP1 REVERT JUMPDEST POP PUSH2 0x193 PUSH2 0xB9C JUMP JUMPDEST CALLVALUE DUP1 ISZERO PUSH2 0x38E JUMPI PUSH0 DUP1 REVERT JUMPDEST POP PUSH2 0x3A2 PUSH2 0x39D CALLDATASIZE PUSH1 0x4 PUSH2 0x15FD JUMP JUMPDEST PUSH2 0xBAB JUMP JUMPDEST PUSH1 0x40 DUP1 MLOAD SWAP4 DUP5 MSTORE PUSH1 0x1 PUSH1 0x1 PUSH1 0xA0 SHL SUB SWAP1 SWAP3 AND PUSH1 0x20 DUP5 ADD MSTORE SWAP1 DUP3 ADD MSTORE PUSH1 0x60 ADD PUSH2 0x1A0 JUMP JUMPDEST CALLVALUE DUP1 ISZERO PUSH2 0x3D0 JUMPI PUSH0 DUP1 REVERT JUMPDEST POP PUSH2 0x22C PUSH2 0x3DF CALLDATASIZE PUSH1 0x4 PUSH2 0x15FD JUMP JUMPDEST PUSH2 0xBE8 JUMP JUMPDEST CALLVALUE DUP1 ISZERO PUSH2 0x3EF JUMPI PUSH0 DUP1 REVERT JUMPDEST POP PUSH2 0x1C8 PUSH2 0x3FE CALLDATASIZE PUSH1 0x4 PUSH2 0x13D0 JUMP JUMPDEST PUSH2 0xC7C JUMP JUMPDEST CALLVALUE DUP1 ISZERO PUSH2 0x40E JUMPI PUSH0 DUP1 REVERT JUMPDEST POP PUSH2 0x2EA PUSH2 0x41D CALLDATASIZE PUSH1 0x4 PUSH2 0x15FD JUMP JUMPDEST PUSH2 0xC89 JUMP JUMPDEST CALLVALUE DUP1 ISZERO PUSH2 0x42D JUMPI PUSH0 DUP1 REVERT JUMPDEST POP PUSH2 0x441 PUSH2 0x43C CALLDATASIZE PUSH1 0x4 PUSH2 0x15FD JUMP JUMPDEST PUSH2 0xCCE JUMP JUMPDEST STOP JUMPDEST CALLVALUE DUP1 ISZERO PUSH2 0x44E JUMPI PUSH0 DUP1 REVERT JUMPDEST POP PUSH2 0x1EB PUSH2 0x45D CALLDATASIZE PUSH1 0x4 PUSH2 0x15FD JUMP JUMPDEST POP PUSH0 SWAP1 JUMP JUMPDEST CALLVALUE DUP1 ISZERO PUSH2 0x46D JUMPI PUSH0 DUP1 REVERT JUMPDEST POP PUSH2 0x1EB PUSH2 0x47C CALLDATASIZE PUSH1 0x4 PUSH2 0x180B JUMP JUMPDEST PUSH1 0x1 PUSH1 0x1 PUSH1 0xA0 SHL SUB SWAP2 DUP3 AND PUSH0 SWAP1 DUP2 MSTORE PUSH1 0x1 PUSH1 0x20 SWAP1 DUP2 MSTORE PUSH1 0x40 DUP1 DUP4 KECCAK256 SWAP4 SWAP1 SWAP5 AND DUP3 MSTORE SWAP2 SWAP1 SWAP2 MSTORE KECCAK256 SLOAD SWAP1 JUMP JUMPDEST CALLVALUE DUP1 ISZERO PUSH2 0x4B1 JUMPI PUSH0 DUP1 REVERT JUMPDEST POP PUSH1 0x7 SLOAD PUSH2 0x1EB JUMP JUMPDEST CALLVALUE DUP1 ISZERO PUSH2 0x4C5 JUMPI PUSH0 DUP1 REVERT JUMPDEST POP PUSH2 0x441 PUSH2 0x4D4 CALLDATASIZE PUSH1 0x4 PUSH2 0x15FD JUMP JUMPDEST POP JUMP JUMPDEST CALLVALUE DUP1 ISZERO PUSH2 0x4E2 JUMPI PUSH0 DUP1 REVERT JUMPDEST POP PUSH1 0x6 SLOAD PUSH2 0x298 SWAP1 PUSH1 0x1 PUSH1 0x1 PUSH1 0xA0 SHL SUB AND DUP2 JUMP JUMPDEST CALLVALUE DUP1 ISZERO PUSH2 0x501 JUMPI PUSH0 DUP1 REVERT JUMPDEST POP PUSH2 0x22C PUSH2 0x510 CALLDATASIZE PUSH1 0x4 PUSH2 0x15FD JUMP JUMPDEST PUSH2 0xF7F JUMP JUMPDEST PUSH1 0x60 PUSH1 0x3 DUP1 SLOAD PUSH2 0x524 SWAP1 PUSH2 0x183C JUMP JUMPDEST DUP1 PUSH1 0x1F ADD PUSH1 0x20 DUP1 SWAP2 DIV MUL PUSH1 0x20 ADD PUSH1 0x40 MLOAD SWAP1 DUP2 ADD PUSH1 0x40 MSTORE DUP1 SWAP3 SWAP2 SWAP1 DUP2 DUP2 MSTORE PUSH1 0x20 ADD DUP3 DUP1 SLOAD PUSH2 0x550 SWAP1 PUSH2 0x183C JUMP JUMPDEST DUP1 ISZERO PUSH2 0x59B JUMPI DUP1 PUSH1 0x1F LT PUSH2 0x572 JUMPI PUSH2 0x100 DUP1 DUP4 SLOAD DIV MUL DUP4 MSTORE SWAP2 PUSH1 0x20 ADD SWAP2 PUSH2 0x59B JUMP JUMPDEST DUP3 ADD SWAP2 SWAP1 PUSH0 MSTORE PUSH1 0x20 PUSH0 KECCAK256 SWAP1 JUMPDEST DUP2 SLOAD DUP2 MSTORE SWAP1 PUSH1 0x1 ADD SWAP1 PUSH1 0x20 ADD DUP1 DUP4 GT PUSH2 0x57E JUMPI DUP3 SWAP1 SUB PUSH1 0x1F AND DUP3 ADD SWAP2 JUMPDEST POP POP POP POP POP SWAP1 POP SWAP1 JUMP JUMPDEST PUSH0 CALLER PUSH2 0x5B2 DUP2 DUP6 DUP6 PUSH2 0x1013 JUMP JUMPDEST PUSH1 0x1 SWAP2 POP POP JUMPDEST SWAP3 SWAP2 POP POP JUMP JUMPDEST PUSH0 DUP1 DUP5 GT PUSH2 0x62A JUMPI PUSH1 0x40 MLOAD PUSH3 0x461BCD PUSH1 0xE5 SHL DUP2 MSTORE PUSH1 0x20 PUSH1 0x4 DUP3 ADD MSTORE PUSH1 0x2E PUSH1 0x24 DUP3 ADD MSTORE PUSH32 0x536C696365546F6B656E3A20536C69636520746F6B656E207175616E74697479 PUSH1 0x44 DUP3 ADD MSTORE PUSH14 0x2063616E2774206265207A65726F PUSH1 0x90 SHL PUSH1 0x64 DUP3 ADD MSTORE PUSH1 0x84 ADD JUMPDEST PUSH1 0x40 MLOAD DUP1 SWAP2 SUB SWAP1 REVERT JUMPDEST DUP2 MLOAD DUP4 MLOAD EQ DUP1 ISZERO PUSH2 0x63D JUMPI POP PUSH1 0x7 SLOAD DUP4 MLOAD EQ JUMPDEST PUSH2 0x6A3 JUMPI PUSH1 0x40 MLOAD PUSH3 0x461BCD PUSH1 0xE5 SHL DUP2 MSTORE PUSH1 0x20 PUSH1 0x4 DUP3 ADD MSTORE PUSH1 0x31 PUSH1 0x24 DUP3 ADD MSTORE PUSH32 0x536C696365546F6B656E3A20496E636F7272656374206C656E67746820666F72 PUSH1 0x44 DUP3 ADD MSTORE PUSH17 0x20707269636573206F7220726F75746573 PUSH1 0x78 SHL PUSH1 0x64 DUP3 ADD MSTORE PUSH1 0x84 ADD PUSH2 0x621 JUMP JUMPDEST PUSH0 PUSH2 0x6AD DUP5 PUSH2 0x1025 JUMP JUMPDEST PUSH1 0x5 SLOAD PUSH1 0x6 SLOAD PUSH1 0x40 MLOAD PUSH4 0x23B872DD PUSH1 0xE0 SHL DUP2 MSTORE CALLER PUSH1 0x4 DUP3 ADD MSTORE PUSH1 0x1 PUSH1 0x1 PUSH1 0xA0 SHL SUB SWAP2 DUP3 AND PUSH1 0x24 DUP3 ADD MSTORE PUSH1 0x44 DUP2 ADD DUP5 SWAP1 MSTORE SWAP3 SWAP4 POP AND SWAP1 PUSH4 0x23B872DD SWAP1 PUSH1 0x64 ADD PUSH1 0x20 PUSH1 0x40 MLOAD DUP1 DUP4 SUB DUP2 PUSH0 DUP8 GAS CALL ISZERO DUP1 ISZERO PUSH2 0x707 JUMPI RETURNDATASIZE PUSH0 DUP1 RETURNDATACOPY RETURNDATASIZE PUSH0 REVERT JUMPDEST POP POP POP POP PUSH1 0x40 MLOAD RETURNDATASIZE PUSH1 0x1F NOT PUSH1 0x1F DUP3 ADD AND DUP3 ADD DUP1 PUSH1 0x40 MSTORE POP DUP2 ADD SWAP1 PUSH2 0x72B SWAP2 SWAP1 PUSH2 0x186E JUMP JUMPDEST POP PUSH1 0x40 MLOAD PUSH12 0xFFFFFFFFFFFFFFFFFFFFFFFF NOT CALLER PUSH1 0x60 SWAP1 DUP2 SHL DUP3 AND PUSH1 0x20 DUP5 ADD MSTORE ADDRESS SWAP1 SHL AND PUSH1 0x34 DUP3 ADD MSTORE PUSH1 0x48 DUP2 ADD DUP7 SWAP1 MSTORE PUSH1 0x68 DUP2 ADD DUP3 SWAP1 MSTORE TIMESTAMP PUSH1 0x88 DUP3 ADD MSTORE PUSH0 SWAP1 PUSH1 0xA8 ADD PUSH1 0x40 DUP1 MLOAD DUP1 DUP4 SUB PUSH1 0x1F NOT ADD DUP2 MSTORE DUP3 DUP3 MSTORE DUP1 MLOAD PUSH1 0x20 SWAP2 DUP3 ADD KECCAK256 PUSH1 0xA0 DUP5 ADD DUP4 MSTORE DUP1 DUP5 MSTORE DUP2 DUP5 ADD DUP11 DUP2 MSTORE CALLER DUP6 DUP6 ADD SWAP1 DUP2 MSTORE PUSH1 0x1 PUSH1 0x60 DUP8 ADD DUP2 DUP2 MSTORE DUP7 MLOAD DUP1 DUP8 ADD DUP9 MSTORE PUSH0 DUP1 DUP3 MSTORE PUSH1 0x80 DUP11 ADD SWAP2 SWAP1 SWAP2 MSTORE DUP6 DUP2 MSTORE PUSH1 0x8 SWAP1 SWAP7 MSTORE SWAP6 SWAP1 SWAP5 KECCAK256 DUP7 MLOAD DUP2 SSTORE SWAP2 MLOAD SWAP4 DUP3 ADD SWAP4 SWAP1 SWAP4 SSTORE SWAP2 MLOAD PUSH1 0x2 DUP1 DUP5 ADD DUP1 SLOAD PUSH1 0x1 PUSH1 0x1 PUSH1 0xA0 SHL SUB NOT DUP2 AND PUSH1 0x1 PUSH1 0x1 PUSH1 0xA0 SHL SUB SWAP1 SWAP5 AND SWAP4 DUP5 OR DUP3 SSTORE SWAP6 MLOAD SWAP4 SWAP8 POP DUP7 SWAP6 SWAP1 SWAP3 PUSH1 0x1 PUSH1 0x1 PUSH1 0xA8 SHL SUB NOT SWAP1 SWAP2 AND OR SWAP1 PUSH1 0x1 PUSH1 0xA0 SHL SWAP1 DUP5 SWAP1 DUP2 GT ISZERO PUSH2 0x821 JUMPI PUSH2 0x821 PUSH2 0x1614 JUMP JUMPDEST MUL OR SWAP1 SSTORE POP PUSH1 0x80 DUP3 ADD MLOAD PUSH1 0x3 DUP3 ADD SWAP1 PUSH2 0x83A SWAP1 DUP3 PUSH2 0x18D8 JUMP JUMPDEST POP POP PUSH1 0x6 SLOAD PUSH1 0x40 MLOAD PUSH4 0xE84D555 PUSH1 0xE2 SHL DUP2 MSTORE PUSH1 0x1 PUSH1 0x1 PUSH1 0xA0 SHL SUB SWAP1 SWAP2 AND SWAP2 POP PUSH4 0x3A135554 SWAP1 CALLVALUE SWAP1 PUSH2 0x875 SWAP1 DUP7 SWAP1 DUP13 SWAP1 DUP13 SWAP1 DUP13 SWAP1 PUSH1 0x4 ADD PUSH2 0x1998 JUMP JUMPDEST PUSH0 PUSH1 0x40 MLOAD DUP1 DUP4 SUB DUP2 DUP6 DUP9 DUP1 EXTCODESIZE ISZERO DUP1 ISZERO PUSH2 0x88C JUMPI PUSH0 DUP1 REVERT JUMPDEST POP GAS CALL ISZERO DUP1 ISZERO PUSH2 0x89E JUMPI RETURNDATASIZE PUSH0 DUP1 RETURNDATACOPY RETURNDATASIZE PUSH0 REVERT JUMPDEST POP SWAP5 SWAP11 SWAP10 POP POP POP POP POP POP POP POP POP POP JUMP JUMPDEST PUSH2 0x8DF PUSH1 0x40 DUP1 MLOAD PUSH1 0xA0 DUP2 ADD DUP3 MSTORE PUSH0 DUP1 DUP3 MSTORE PUSH1 0x20 DUP3 ADD DUP2 SWAP1 MSTORE SWAP2 DUP2 ADD DUP3 SWAP1 MSTORE SWAP1 PUSH1 0x60 DUP3 ADD SWAP1 DUP2 MSTORE PUSH1 0x20 ADD PUSH1 0x60 DUP2 MSTORE POP SWAP1 JUMP JUMPDEST PUSH0 DUP3 DUP2 MSTORE PUSH1 0x9 PUSH1 0x20 SWAP1 DUP2 MSTORE PUSH1 0x40 SWAP2 DUP3 SWAP1 KECCAK256 DUP3 MLOAD PUSH1 0xA0 DUP2 ADD DUP5 MSTORE DUP2 SLOAD DUP2 MSTORE PUSH1 0x1 DUP3 ADD SLOAD SWAP3 DUP2 ADD SWAP3 SWAP1 SWAP3 MSTORE PUSH1 0x2 DUP1 DUP3 ADD SLOAD PUSH1 0x1 PUSH1 0x1 PUSH1 0xA0 SHL SUB DUP2 AND SWAP5 DUP5 ADD SWAP5 SWAP1 SWAP5 MSTORE SWAP2 SWAP3 SWAP1 SWAP2 PUSH1 0x60 DUP5 ADD SWAP2 PUSH1 0x1 PUSH1 0xA0 SHL SWAP1 DIV PUSH1 0xFF AND SWAP1 DUP2 GT ISZERO PUSH2 0x942 JUMPI PUSH2 0x942 PUSH2 0x1614 JUMP JUMPDEST PUSH1 0x2 DUP2 GT ISZERO PUSH2 0x953 JUMPI PUSH2 0x953 PUSH2 0x1614 JUMP JUMPDEST DUP2 MSTORE PUSH1 0x20 ADD PUSH1 0x3 DUP3 ADD DUP1 SLOAD PUSH2 0x967 SWAP1 PUSH2 0x183C JUMP JUMPDEST DUP1 PUSH1 0x1F ADD PUSH1 0x20 DUP1 SWAP2 DIV MUL PUSH1 0x20 ADD PUSH1 0x40 MLOAD SWAP1 DUP2 ADD PUSH1 0x40 MSTORE DUP1 SWAP3 SWAP2 SWAP1 DUP2 DUP2 MSTORE PUSH1 0x20 ADD DUP3 DUP1 SLOAD PUSH2 0x993 SWAP1 PUSH2 0x183C JUMP JUMPDEST DUP1 ISZERO PUSH2 0x9DE JUMPI DUP1 PUSH1 0x1F LT PUSH2 0x9B5 JUMPI PUSH2 0x100 DUP1 DUP4 SLOAD DIV MUL DUP4 MSTORE SWAP2 PUSH1 0x20 ADD SWAP2 PUSH2 0x9DE JUMP JUMPDEST DUP3 ADD SWAP2 SWAP1 PUSH0 MSTORE PUSH1 0x20 PUSH0 KECCAK256 SWAP1 JUMPDEST DUP2 SLOAD DUP2 MSTORE SWAP1 PUSH1 0x1 ADD SWAP1 PUSH1 0x20 ADD DUP1 DUP4 GT PUSH2 0x9C1 JUMPI DUP3 SWAP1 SUB PUSH1 0x1F AND DUP3 ADD SWAP2 JUMPDEST POP POP POP POP POP DUP2 MSTORE POP POP SWAP1 POP SWAP2 SWAP1 POP JUMP JUMPDEST PUSH0 CALLER PUSH2 0x9FB DUP6 DUP3 DUP6 PUSH2 0x1066 JUMP JUMPDEST PUSH2 0xA06 DUP6 DUP6 DUP6 PUSH2 0x10E1 JUMP JUMPDEST POP PUSH1 0x1 SWAP5 SWAP4 POP POP POP POP JUMP JUMPDEST PUSH1 0x8 PUSH1 0x20 MSTORE PUSH0 SWAP1 DUP2 MSTORE PUSH1 0x40 SWAP1 KECCAK256 DUP1 SLOAD PUSH1 0x1 DUP3 ADD SLOAD PUSH1 0x2 DUP4 ADD SLOAD PUSH1 0x3 DUP5 ADD DUP1 SLOAD SWAP4 SWAP5 SWAP3 SWAP4 PUSH1 0x1 PUSH1 0x1 PUSH1 0xA0 SHL SUB DUP4 AND SWAP4 PUSH1 0x1 PUSH1 0xA0 SHL SWAP1 SWAP4 DIV PUSH1 0xFF AND SWAP3 SWAP2 SWAP1 PUSH2 0xA56 SWAP1 PUSH2 0x183C JUMP JUMPDEST DUP1 PUSH1 0x1F ADD PUSH1 0x20 DUP1 SWAP2 DIV MUL PUSH1 0x20 ADD PUSH1 0x40 MLOAD SWAP1 DUP2 ADD PUSH1 0x40 MSTORE DUP1 SWAP3 SWAP2 SWAP1 DUP2 DUP2 MSTORE PUSH1 0x20 ADD DUP3 DUP1 SLOAD PUSH2 0xA82 SWAP1 PUSH2 0x183C JUMP JUMPDEST DUP1 ISZERO PUSH2 0xACD JUMPI DUP1 PUSH1 0x1F LT PUSH2 0xAA4 JUMPI PUSH2 0x100 DUP1 DUP4 SLOAD DIV MUL DUP4 MSTORE SWAP2 PUSH1 0x20 ADD SWAP2 PUSH2 0xACD JUMP JUMPDEST DUP3 ADD SWAP2 SWAP1 PUSH0 MSTORE PUSH1 0x20 PUSH0 KECCAK256 SWAP1 JUMPDEST DUP2 SLOAD DUP2 MSTORE SWAP1 PUSH1 0x1 ADD SWAP1 PUSH1 0x20 ADD DUP1 DUP4 GT PUSH2 0xAB0 JUMPI DUP3 SWAP1 SUB PUSH1 0x1F AND DUP3 ADD SWAP2 JUMPDEST POP POP POP POP POP SWAP1 POP DUP6 JUMP JUMPDEST PUSH1 0xA PUSH1 0x20 MSTORE PUSH0 SWAP1 DUP2 MSTORE PUSH1 0x40 SWAP1 KECCAK256 DUP1 SLOAD PUSH1 0x1 DUP3 ADD SLOAD PUSH1 0x2 DUP4 ADD SLOAD PUSH1 0x3 DUP5 ADD DUP1 SLOAD SWAP4 SWAP5 SWAP3 SWAP4 PUSH1 0x1 PUSH1 0x1 PUSH1 0xA0 SHL SUB DUP4 AND SWAP4 PUSH1 0x1 PUSH1 0xA0 SHL SWAP1 SWAP4 DIV PUSH1 0xFF AND SWAP3 SWAP2 SWAP1 PUSH2 0xA56 SWAP1 PUSH2 0x183C JUMP JUMPDEST PUSH1 0x60 PUSH1 0x7 DUP1 SLOAD DUP1 PUSH1 0x20 MUL PUSH1 0x20 ADD PUSH1 0x40 MLOAD SWAP1 DUP2 ADD PUSH1 0x40 MSTORE DUP1 SWAP3 SWAP2 SWAP1 DUP2 DUP2 MSTORE PUSH1 0x20 ADD PUSH0 SWAP1 JUMPDEST DUP3 DUP3 LT ISZERO PUSH2 0xB93 JUMPI PUSH0 DUP5 DUP2 MSTORE PUSH1 0x20 SWAP1 DUP2 SWAP1 KECCAK256 PUSH1 0x40 DUP1 MLOAD PUSH1 0x60 DUP2 ADD DUP3 MSTORE PUSH1 0x3 DUP7 MUL SWAP1 SWAP3 ADD DUP1 SLOAD DUP4 MSTORE PUSH1 0x1 DUP1 DUP3 ADD SLOAD PUSH1 0x1 PUSH1 0x1 PUSH1 0xA0 SHL SUB AND DUP5 DUP7 ADD MSTORE PUSH1 0x2 SWAP1 SWAP2 ADD SLOAD SWAP2 DUP4 ADD SWAP2 SWAP1 SWAP2 MSTORE SWAP1 DUP4 MSTORE SWAP1 SWAP3 ADD SWAP2 ADD PUSH2 0xB3F JUMP JUMPDEST POP POP POP POP SWAP1 POP SWAP1 JUMP JUMPDEST PUSH1 0x60 PUSH1 0x4 DUP1 SLOAD PUSH2 0x524 SWAP1 PUSH2 0x183C JUMP JUMPDEST PUSH1 0x7 DUP2 DUP2 SLOAD DUP2 LT PUSH2 0xBBA JUMPI PUSH0 DUP1 REVERT JUMPDEST PUSH0 SWAP2 DUP3 MSTORE PUSH1 0x20 SWAP1 SWAP2 KECCAK256 PUSH1 0x3 SWAP1 SWAP2 MUL ADD DUP1 SLOAD PUSH1 0x1 DUP3 ADD SLOAD PUSH1 0x2 SWAP1 SWAP3 ADD SLOAD SWAP1 SWAP3 POP PUSH1 0x1 PUSH1 0x1 PUSH1 0xA0 SHL SUB SWAP1 SWAP2 AND SWAP1 DUP4 JUMP JUMPDEST PUSH2 0xC19 PUSH1 0x40 DUP1 MLOAD PUSH1 0xA0 DUP2 ADD DUP3 MSTORE PUSH0 DUP1 DUP3 MSTORE PUSH1 0x20 DUP3 ADD DUP2 SWAP1 MSTORE SWAP2 DUP2 ADD DUP3 SWAP1 MSTORE SWAP1 PUSH1 0x60 DUP3 ADD SWAP1 DUP2 MSTORE PUSH1 0x20 ADD PUSH1 0x60 DUP2 MSTORE POP SWAP1 JUMP JUMPDEST PUSH0 DUP3 DUP2 MSTORE PUSH1 0x8 PUSH1 0x20 SWAP1 DUP2 MSTORE PUSH1 0x40 SWAP2 DUP3 SWAP1 KECCAK256 DUP3 MLOAD PUSH1 0xA0 DUP2 ADD DUP5 MSTORE DUP2 SLOAD DUP2 MSTORE PUSH1 0x1 DUP3 ADD SLOAD SWAP3 DUP2 ADD SWAP3 SWAP1 SWAP3 MSTORE PUSH1 0x2 DUP1 DUP3 ADD SLOAD PUSH1 0x1 PUSH1 0x1 PUSH1 0xA0 SHL SUB DUP2 AND SWAP5 DUP5 ADD SWAP5 SWAP1 SWAP5 MSTORE SWAP2 SWAP3 SWAP1 SWAP2 PUSH1 0x60 DUP5 ADD SWAP2 PUSH1 0x1 PUSH1 0xA0 SHL SWAP1 DIV PUSH1 0xFF AND SWAP1 DUP2 GT ISZERO PUSH2 0x942 JUMPI PUSH2 0x942 PUSH2 0x1614 JUMP JUMPDEST PUSH0 CALLER PUSH2 0x5B2 DUP2 DUP6 DUP6 PUSH2 0x10E1 JUMP JUMPDEST PUSH1 0x9 PUSH1 0x20 MSTORE PUSH0 SWAP1 DUP2 MSTORE PUSH1 0x40 SWAP1 KECCAK256 DUP1 SLOAD PUSH1 0x1 DUP3 ADD SLOAD PUSH1 0x2 DUP4 ADD SLOAD PUSH1 0x3 DUP5 ADD DUP1 SLOAD SWAP4 SWAP5 SWAP3 SWAP4 PUSH1 0x1 PUSH1 0x1 PUSH1 0xA0 SHL SUB DUP4 AND SWAP4 PUSH1 0x1 PUSH1 0xA0 SHL SWAP1 SWAP4 DIV PUSH1 0xFF AND SWAP3 SWAP2 SWAP1 PUSH2 0xA56 SWAP1 PUSH2 0x183C JUMP JUMPDEST PUSH1 0x6 SLOAD PUSH1 0x1 PUSH1 0x1 PUSH1 0xA0 SHL SUB AND CALLER EQ PUSH2 0xD34 JUMPI PUSH1 0x40 MLOAD PUSH3 0x461BCD PUSH1 0xE5 SHL DUP2 MSTORE PUSH1 0x20 PUSH1 0x4 DUP3 ADD MSTORE PUSH1 0x24 DUP1 DUP3 ADD MSTORE PUSH32 0x536C696365546F6B656E3A204F6E6C7920536C69636520436F72652063616E20 PUSH1 0x44 DUP3 ADD MSTORE PUSH4 0x18D85B1B PUSH1 0xE2 SHL PUSH1 0x64 DUP3 ADD MSTORE PUSH1 0x84 ADD PUSH2 0x621 JUMP JUMPDEST PUSH0 DUP2 DUP2 MSTORE PUSH1 0x8 PUSH1 0x20 SWAP1 DUP2 MSTORE PUSH1 0x40 DUP1 DUP4 KECCAK256 DUP2 MLOAD PUSH1 0xA0 DUP2 ADD DUP4 MSTORE DUP2 SLOAD DUP2 MSTORE PUSH1 0x1 DUP3 ADD SLOAD SWAP4 DUP2 ADD SWAP4 SWAP1 SWAP4 MSTORE PUSH1 0x2 DUP1 DUP3 ADD SLOAD PUSH1 0x1 PUSH1 0x1 PUSH1 0xA0 SHL SUB DUP2 AND SWAP4 DUP6 ADD SWAP4 SWAP1 SWAP4 MSTORE SWAP1 SWAP2 PUSH1 0x60 DUP5 ADD SWAP2 PUSH1 0x1 PUSH1 0xA0 SHL SWAP1 SWAP2 DIV PUSH1 0xFF AND SWAP1 DUP2 GT ISZERO PUSH2 0xD95 JUMPI PUSH2 0xD95 PUSH2 0x1614 JUMP JUMPDEST PUSH1 0x2 DUP2 GT ISZERO PUSH2 0xDA6 JUMPI PUSH2 0xDA6 PUSH2 0x1614 JUMP JUMPDEST DUP2 MSTORE PUSH1 0x20 ADD PUSH1 0x3 DUP3 ADD DUP1 SLOAD PUSH2 0xDBA SWAP1 PUSH2 0x183C JUMP JUMPDEST DUP1 PUSH1 0x1F ADD PUSH1 0x20 DUP1 SWAP2 DIV MUL PUSH1 0x20 ADD PUSH1 0x40 MLOAD SWAP1 DUP2 ADD PUSH1 0x40 MSTORE DUP1 SWAP3 SWAP2 SWAP1 DUP2 DUP2 MSTORE PUSH1 0x20 ADD DUP3 DUP1 SLOAD PUSH2 0xDE6 SWAP1 PUSH2 0x183C JUMP JUMPDEST DUP1 ISZERO PUSH2 0xE31 JUMPI DUP1 PUSH1 0x1F LT PUSH2 0xE08 JUMPI PUSH2 0x100 DUP1 DUP4 SLOAD DIV MUL DUP4 MSTORE SWAP2 PUSH1 0x20 ADD SWAP2 PUSH2 0xE31 JUMP JUMPDEST DUP3 ADD SWAP2 SWAP1 PUSH0 MSTORE PUSH1 0x20 PUSH0 KECCAK256 SWAP1 JUMPDEST DUP2 SLOAD DUP2 MSTORE SWAP1 PUSH1 0x1 ADD SWAP1 PUSH1 0x20 ADD DUP1 DUP4 GT PUSH2 0xE14 JUMPI DUP3 SWAP1 SUB PUSH1 0x1F AND DUP3 ADD SWAP2 JUMPDEST POP POP POP SWAP2 SWAP1 SWAP3 MSTORE POP POP DUP2 MLOAD SWAP2 SWAP3 POP PUSH2 0xE8D SWAP1 POP JUMPI PUSH1 0x40 MLOAD PUSH3 0x461BCD PUSH1 0xE5 SHL DUP2 MSTORE PUSH1 0x20 PUSH1 0x4 DUP3 ADD MSTORE PUSH1 0x1B PUSH1 0x24 DUP3 ADD MSTORE PUSH32 0x536C696365546F6B656E3A20496E76616C6964206D696E742049440000000000 PUSH1 0x44 DUP3 ADD MSTORE PUSH1 0x64 ADD PUSH2 0x621 JUMP JUMPDEST PUSH1 0x1 DUP2 PUSH1 0x60 ADD MLOAD PUSH1 0x2 DUP2 GT ISZERO PUSH2 0xEA5 JUMPI PUSH2 0xEA5 PUSH2 0x1614 JUMP JUMPDEST EQ PUSH2 0xF04 JUMPI PUSH1 0x40 MLOAD PUSH3 0x461BCD PUSH1 0xE5 SHL DUP2 MSTORE PUSH1 0x20 PUSH1 0x4 DUP3 ADD MSTORE PUSH1 0x29 PUSH1 0x24 DUP3 ADD MSTORE PUSH32 0x536C696365546F6B656E3A205472616E73616374696F6E207374617465206973 PUSH1 0x44 DUP3 ADD MSTORE PUSH9 0x103737BA1037B832B7 PUSH1 0xB9 SHL PUSH1 0x64 DUP3 ADD MSTORE PUSH1 0x84 ADD PUSH2 0x621 JUMP JUMPDEST PUSH0 DUP3 DUP2 MSTORE PUSH1 0x8 PUSH1 0x20 MSTORE PUSH1 0x40 SWAP1 KECCAK256 PUSH1 0x2 SWAP1 DUP2 ADD DUP1 SLOAD PUSH1 0xFF PUSH1 0xA0 SHL NOT AND PUSH1 0x1 PUSH1 0xA0 SHL DUP4 MUL OR SWAP1 SSTORE POP PUSH2 0xF3C DUP2 PUSH1 0x40 ADD MLOAD DUP3 PUSH1 0x20 ADD MLOAD PUSH2 0x113E JUMP JUMPDEST DUP1 PUSH1 0x20 ADD MLOAD DUP2 PUSH1 0x40 ADD MLOAD PUSH1 0x1 PUSH1 0x1 PUSH1 0xA0 SHL SUB AND PUSH32 0xA61FDFB9F0C74C4B68B88685011450E9D2D293083BF9209C523A5E0B50ED7FE4 PUSH1 0x40 MLOAD PUSH1 0x40 MLOAD DUP1 SWAP2 SUB SWAP1 LOG3 POP POP JUMP JUMPDEST PUSH2 0xFB0 PUSH1 0x40 DUP1 MLOAD PUSH1 0xA0 DUP2 ADD DUP3 MSTORE PUSH0 DUP1 DUP3 MSTORE PUSH1 0x20 DUP3 ADD DUP2 SWAP1 MSTORE SWAP2 DUP2 ADD DUP3 SWAP1 MSTORE SWAP1 PUSH1 0x60 DUP3 ADD SWAP1 DUP2 MSTORE PUSH1 0x20 ADD PUSH1 0x60 DUP2 MSTORE POP SWAP1 JUMP JUMPDEST PUSH0 DUP3 DUP2 MSTORE PUSH1 0xA PUSH1 0x20 SWAP1 DUP2 MSTORE PUSH1 0x40 SWAP2 DUP3 SWAP1 KECCAK256 DUP3 MLOAD PUSH1 0xA0 DUP2 ADD DUP5 MSTORE DUP2 SLOAD DUP2 MSTORE PUSH1 0x1 DUP3 ADD SLOAD SWAP3 DUP2 ADD SWAP3 SWAP1 SWAP3 MSTORE PUSH1 0x2 DUP1 DUP3 ADD SLOAD PUSH1 0x1 PUSH1 0x1 PUSH1 0xA0 SHL SUB DUP2 AND SWAP5 DUP5 ADD SWAP5 SWAP1 SWAP5 MSTORE SWAP2 SWAP3 SWAP1 SWAP2 PUSH1 0x60 DUP5 ADD SWAP2 PUSH1 0x1 PUSH1 0xA0 SHL SWAP1 DIV PUSH1 0xFF AND SWAP1 DUP2 GT ISZERO PUSH2 0x942 JUMPI PUSH2 0x942 PUSH2 0x1614 JUMP JUMPDEST PUSH2 0x1020 DUP4 DUP4 DUP4 PUSH1 0x1 PUSH2 0x1176 JUMP JUMPDEST POP POP POP JUMP JUMPDEST PUSH0 DUP1 JUMPDEST DUP3 MLOAD DUP2 LT ISZERO PUSH2 0x1060 JUMPI DUP3 DUP2 DUP2 MLOAD DUP2 LT PUSH2 0x1043 JUMPI PUSH2 0x1043 PUSH2 0x1A3E JUMP JUMPDEST PUSH1 0x20 MUL PUSH1 0x20 ADD ADD MLOAD DUP3 PUSH2 0x1056 SWAP2 SWAP1 PUSH2 0x1A52 JUMP JUMPDEST SWAP2 POP PUSH1 0x1 ADD PUSH2 0x1028 JUMP JUMPDEST POP SWAP2 SWAP1 POP JUMP JUMPDEST PUSH1 0x1 PUSH1 0x1 PUSH1 0xA0 SHL SUB DUP4 DUP2 AND PUSH0 SWAP1 DUP2 MSTORE PUSH1 0x1 PUSH1 0x20 SWAP1 DUP2 MSTORE PUSH1 0x40 DUP1 DUP4 KECCAK256 SWAP4 DUP7 AND DUP4 MSTORE SWAP3 SWAP1 MSTORE KECCAK256 SLOAD PUSH0 NOT DUP2 EQ PUSH2 0x10DB JUMPI DUP2 DUP2 LT ISZERO PUSH2 0x10CD JUMPI PUSH1 0x40 MLOAD PUSH4 0x7DC7A0D9 PUSH1 0xE1 SHL DUP2 MSTORE PUSH1 0x1 PUSH1 0x1 PUSH1 0xA0 SHL SUB DUP5 AND PUSH1 0x4 DUP3 ADD MSTORE PUSH1 0x24 DUP2 ADD DUP3 SWAP1 MSTORE PUSH1 0x44 DUP2 ADD DUP4 SWAP1 MSTORE PUSH1 0x64 ADD PUSH2 0x621 JUMP JUMPDEST PUSH2 0x10DB DUP5 DUP5 DUP5 DUP5 SUB PUSH0 PUSH2 0x1176 JUMP JUMPDEST POP POP POP POP JUMP JUMPDEST PUSH1 0x1 PUSH1 0x1 PUSH1 0xA0 SHL SUB DUP4 AND PUSH2 0x110A JUMPI PUSH1 0x40 MLOAD PUSH4 0x4B637E8F PUSH1 0xE1 SHL DUP2 MSTORE PUSH0 PUSH1 0x4 DUP3 ADD MSTORE PUSH1 0x24 ADD PUSH2 0x621 JUMP JUMPDEST PUSH1 0x1 PUSH1 0x1 PUSH1 0xA0 SHL SUB DUP3 AND PUSH2 0x1133 JUMPI PUSH1 0x40 MLOAD PUSH4 0xEC442F05 PUSH1 0xE0 SHL DUP2 MSTORE PUSH0 PUSH1 0x4 DUP3 ADD MSTORE PUSH1 0x24 ADD PUSH2 0x621 JUMP JUMPDEST PUSH2 0x1020 DUP4 DUP4 DUP4 PUSH2 0x1248 JUMP JUMPDEST PUSH1 0x1 PUSH1 0x1 PUSH1 0xA0 SHL SUB DUP3 AND PUSH2 0x1167 JUMPI PUSH1 0x40 MLOAD PUSH4 0xEC442F05 PUSH1 0xE0 SHL DUP2 MSTORE PUSH0 PUSH1 0x4 DUP3 ADD MSTORE PUSH1 0x24 ADD PUSH2 0x621 JUMP JUMPDEST PUSH2 0x1172 PUSH0 DUP4 DUP4 PUSH2 0x1248 JUMP JUMPDEST POP POP JUMP JUMPDEST PUSH1 0x1 PUSH1 0x1 PUSH1 0xA0 SHL SUB DUP5 AND PUSH2 0x119F JUMPI PUSH1 0x40 MLOAD PUSH4 0xE602DF05 PUSH1 0xE0 SHL DUP2 MSTORE PUSH0 PUSH1 0x4 DUP3 ADD MSTORE PUSH1 0x24 ADD PUSH2 0x621 JUMP JUMPDEST PUSH1 0x1 PUSH1 0x1 PUSH1 0xA0 SHL SUB DUP4 AND PUSH2 0x11C8 JUMPI PUSH1 0x40 MLOAD PUSH4 0x4A1406B1 PUSH1 0xE1 SHL DUP2 MSTORE PUSH0 PUSH1 0x4 DUP3 ADD MSTORE PUSH1 0x24 ADD PUSH2 0x621 JUMP JUMPDEST PUSH1 0x1 PUSH1 0x1 PUSH1 0xA0 SHL SUB DUP1 DUP6 AND PUSH0 SWAP1 DUP2 MSTORE PUSH1 0x1 PUSH1 0x20 SWAP1 DUP2 MSTORE PUSH1 0x40 DUP1 DUP4 KECCAK256 SWAP4 DUP8 AND DUP4 MSTORE SWAP3 SWAP1 MSTORE KECCAK256 DUP3 SWAP1 SSTORE DUP1 ISZERO PUSH2 0x10DB JUMPI DUP3 PUSH1 0x1 PUSH1 0x1 PUSH1 0xA0 SHL SUB AND DUP5 PUSH1 0x1 PUSH1 0x1 PUSH1 0xA0 SHL SUB AND PUSH32 0x8C5BE1E5EBEC7D5BD14F71427D1E84F3DD0314C0F7B2291E5B200AC8C7C3B925 DUP5 PUSH1 0x40 MLOAD PUSH2 0x123A SWAP2 DUP2 MSTORE PUSH1 0x20 ADD SWAP1 JUMP JUMPDEST PUSH1 0x40 MLOAD DUP1 SWAP2 SUB SWAP1 LOG3 POP POP POP POP JUMP JUMPDEST PUSH1 0x1 PUSH1 0x1 PUSH1 0xA0 SHL SUB DUP4 AND PUSH2 0x1272 JUMPI DUP1 PUSH1 0x2 PUSH0 DUP3 DUP3 SLOAD PUSH2 0x1267 SWAP2 SWAP1 PUSH2 0x1A52 JUMP JUMPDEST SWAP1 SWAP2 SSTORE POP PUSH2 0x12E2 SWAP1 POP JUMP JUMPDEST PUSH1 0x1 PUSH1 0x1 PUSH1 0xA0 SHL SUB DUP4 AND PUSH0 SWAP1 DUP2 MSTORE PUSH1 0x20 DUP2 SWAP1 MSTORE PUSH1 0x40 SWAP1 KECCAK256 SLOAD DUP2 DUP2 LT ISZERO PUSH2 0x12C4 JUMPI PUSH1 0x40 MLOAD PUSH4 0x391434E3 PUSH1 0xE2 SHL DUP2 MSTORE PUSH1 0x1 PUSH1 0x1 PUSH1 0xA0 SHL SUB DUP6 AND PUSH1 0x4 DUP3 ADD MSTORE PUSH1 0x24 DUP2 ADD DUP3 SWAP1 MSTORE PUSH1 0x44 DUP2 ADD DUP4 SWAP1 MSTORE PUSH1 0x64 ADD PUSH2 0x621 JUMP JUMPDEST PUSH1 0x1 PUSH1 0x1 PUSH1 0xA0 SHL SUB DUP5 AND PUSH0 SWAP1 DUP2 MSTORE PUSH1 0x20 DUP2 SWAP1 MSTORE PUSH1 0x40 SWAP1 KECCAK256 SWAP1 DUP3 SWAP1 SUB SWAP1 SSTORE JUMPDEST PUSH1 0x1 PUSH1 0x1 PUSH1 0xA0 SHL SUB DUP3 AND PUSH2 0x12FE JUMPI PUSH1 0x2 DUP1 SLOAD DUP3 SWAP1 SUB SWAP1 SSTORE PUSH2 0x131C JUMP JUMPDEST PUSH1 0x1 PUSH1 0x1 PUSH1 0xA0 SHL SUB DUP3 AND PUSH0 SWAP1 DUP2 MSTORE PUSH1 0x20 DUP2 SWAP1 MSTORE PUSH1 0x40 SWAP1 KECCAK256 DUP1 SLOAD DUP3 ADD SWAP1 SSTORE JUMPDEST DUP2 PUSH1 0x1 PUSH1 0x1 PUSH1 0xA0 SHL SUB AND DUP4 PUSH1 0x1 PUSH1 0x1 PUSH1 0xA0 SHL SUB AND PUSH32 0xDDF252AD1BE2C89B69C2B068FC378DAA952BA7F163C4A11628F55A4DF523B3EF DUP4 PUSH1 0x40 MLOAD PUSH2 0x1361 SWAP2 DUP2 MSTORE PUSH1 0x20 ADD SWAP1 JUMP JUMPDEST PUSH1 0x40 MLOAD DUP1 SWAP2 SUB SWAP1 LOG3 POP POP POP JUMP JUMPDEST PUSH0 DUP2 MLOAD DUP1 DUP5 MSTORE DUP1 PUSH1 0x20 DUP5 ADD PUSH1 0x20 DUP7 ADD MCOPY PUSH0 PUSH1 0x20 DUP3 DUP7 ADD ADD MSTORE PUSH1 0x20 PUSH1 0x1F NOT PUSH1 0x1F DUP4 ADD AND DUP6 ADD ADD SWAP2 POP POP SWAP3 SWAP2 POP POP JUMP JUMPDEST PUSH1 0x20 DUP2 MSTORE PUSH0 PUSH2 0x13AE PUSH1 0x20 DUP4 ADD DUP5 PUSH2 0x136E JUMP JUMPDEST SWAP4 SWAP3 POP POP POP JUMP JUMPDEST DUP1 CALLDATALOAD PUSH1 0x1 PUSH1 0x1 PUSH1 0xA0 SHL SUB DUP2 AND DUP2 EQ PUSH2 0x13CB JUMPI PUSH0 DUP1 REVERT JUMPDEST SWAP2 SWAP1 POP JUMP JUMPDEST PUSH0 DUP1 PUSH1 0x40 DUP4 DUP6 SUB SLT ISZERO PUSH2 0x13E1 JUMPI PUSH0 DUP1 REVERT JUMPDEST PUSH2 0x13EA DUP4 PUSH2 0x13B5 JUMP JUMPDEST SWAP5 PUSH1 0x20 SWAP4 SWAP1 SWAP4 ADD CALLDATALOAD SWAP4 POP POP POP JUMP JUMPDEST PUSH4 0x4E487B71 PUSH1 0xE0 SHL PUSH0 MSTORE PUSH1 0x41 PUSH1 0x4 MSTORE PUSH1 0x24 PUSH0 REVERT JUMPDEST PUSH1 0x40 MLOAD PUSH1 0x1F DUP3 ADD PUSH1 0x1F NOT AND DUP2 ADD PUSH8 0xFFFFFFFFFFFFFFFF DUP2 GT DUP3 DUP3 LT OR ISZERO PUSH2 0x1435 JUMPI PUSH2 0x1435 PUSH2 0x13F8 JUMP JUMPDEST PUSH1 0x40 MSTORE SWAP2 SWAP1 POP JUMP JUMPDEST PUSH0 PUSH8 0xFFFFFFFFFFFFFFFF DUP3 GT ISZERO PUSH2 0x1456 JUMPI PUSH2 0x1456 PUSH2 0x13F8 JUMP JUMPDEST POP PUSH1 0x5 SHL PUSH1 0x20 ADD SWAP1 JUMP JUMPDEST PUSH0 PUSH1 0x1F DUP4 PUSH1 0x1F DUP5 ADD SLT PUSH2 0x1471 JUMPI PUSH0 DUP1 REVERT JUMPDEST DUP3 CALLDATALOAD PUSH1 0x20 PUSH2 0x1486 PUSH2 0x1481 DUP4 PUSH2 0x143D JUMP JUMPDEST PUSH2 0x140C JUMP JUMPDEST DUP3 DUP2 MSTORE PUSH1 0x5 SWAP3 SWAP1 SWAP3 SHL DUP6 ADD DUP2 ADD SWAP2 DUP2 DUP2 ADD SWAP1 DUP8 DUP5 GT ISZERO PUSH2 0x14A4 JUMPI PUSH0 DUP1 REVERT JUMPDEST DUP3 DUP8 ADD JUMPDEST DUP5 DUP2 LT ISZERO PUSH2 0x1534 JUMPI DUP1 CALLDATALOAD PUSH8 0xFFFFFFFFFFFFFFFF DUP1 DUP3 GT ISZERO PUSH2 0x14C7 JUMPI PUSH0 DUP1 REVERT JUMPDEST DUP2 DUP11 ADD SWAP2 POP DUP11 PUSH1 0x3F DUP4 ADD SLT PUSH2 0x14DA JUMPI PUSH0 DUP1 REVERT JUMPDEST DUP6 DUP3 ADD CALLDATALOAD PUSH1 0x40 DUP3 DUP3 GT ISZERO PUSH2 0x14F0 JUMPI PUSH2 0x14F0 PUSH2 0x13F8 JUMP JUMPDEST PUSH2 0x1501 DUP3 DUP12 ADD PUSH1 0x1F NOT AND DUP10 ADD PUSH2 0x140C JUMP JUMPDEST SWAP3 POP DUP2 DUP4 MSTORE DUP13 DUP2 DUP4 DUP7 ADD ADD GT ISZERO PUSH2 0x1516 JUMPI PUSH0 DUP1 REVERT JUMPDEST DUP2 DUP2 DUP6 ADD DUP10 DUP6 ADD CALLDATACOPY POP PUSH0 SWAP1 DUP3 ADD DUP8 ADD MSTORE DUP5 MSTORE POP SWAP2 DUP4 ADD SWAP2 DUP4 ADD PUSH2 0x14A8 JUMP JUMPDEST POP SWAP8 SWAP7 POP POP POP POP POP POP POP JUMP JUMPDEST PUSH0 DUP1 PUSH0 PUSH1 0x60 DUP5 DUP7 SUB SLT ISZERO PUSH2 0x1552 JUMPI PUSH0 DUP1 REVERT JUMPDEST DUP4 CALLDATALOAD SWAP3 POP PUSH1 0x20 DUP1 DUP6 ADD CALLDATALOAD PUSH8 0xFFFFFFFFFFFFFFFF DUP1 DUP3 GT ISZERO PUSH2 0x1571 JUMPI PUSH0 DUP1 REVERT JUMPDEST DUP2 DUP8 ADD SWAP2 POP DUP8 PUSH1 0x1F DUP4 ADD SLT PUSH2 0x1584 JUMPI PUSH0 DUP1 REVERT JUMPDEST DUP2 CALLDATALOAD PUSH2 0x1592 PUSH2 0x1481 DUP3 PUSH2 0x143D JUMP JUMPDEST DUP2 DUP2 MSTORE PUSH1 0x5 SWAP2 SWAP1 SWAP2 SHL DUP4 ADD DUP5 ADD SWAP1 DUP5 DUP2 ADD SWAP1 DUP11 DUP4 GT ISZERO PUSH2 0x15B0 JUMPI PUSH0 DUP1 REVERT JUMPDEST SWAP4 DUP6 ADD SWAP4 JUMPDEST DUP3 DUP6 LT ISZERO PUSH2 0x15CE JUMPI DUP5 CALLDATALOAD DUP3 MSTORE SWAP4 DUP6 ADD SWAP4 SWAP1 DUP6 ADD SWAP1 PUSH2 0x15B5 JUMP JUMPDEST SWAP7 POP POP POP PUSH1 0x40 DUP8 ADD CALLDATALOAD SWAP3 POP DUP1 DUP4 GT ISZERO PUSH2 0x15E5 JUMPI PUSH0 DUP1 REVERT JUMPDEST POP POP PUSH2 0x15F3 DUP7 DUP3 DUP8 ADD PUSH2 0x1460 JUMP JUMPDEST SWAP2 POP POP SWAP3 POP SWAP3 POP SWAP3 JUMP JUMPDEST PUSH0 PUSH1 0x20 DUP3 DUP5 SUB SLT ISZERO PUSH2 0x160D JUMPI PUSH0 DUP1 REVERT JUMPDEST POP CALLDATALOAD SWAP2 SWAP1 POP JUMP JUMPDEST PUSH4 0x4E487B71 PUSH1 0xE0 SHL PUSH0 MSTORE PUSH1 0x21 PUSH1 0x4 MSTORE PUSH1 0x24 PUSH0 REVERT JUMPDEST PUSH1 0x3 DUP2 LT PUSH2 0x1644 JUMPI PUSH4 0x4E487B71 PUSH1 0xE0 SHL PUSH0 MSTORE PUSH1 0x21 PUSH1 0x4 MSTORE PUSH1 0x24 PUSH0 REVERT JUMPDEST SWAP1 MSTORE JUMP JUMPDEST PUSH1 0x20 DUP2 MSTORE DUP2 MLOAD PUSH1 0x20 DUP3 ADD MSTORE PUSH1 0x20 DUP3 ADD MLOAD PUSH1 0x40 DUP3 ADD MSTORE PUSH1 0x1 DUP1 PUSH1 0xA0 SHL SUB PUSH1 0x40 DUP4 ADD MLOAD AND PUSH1 0x60 DUP3 ADD MSTORE PUSH0 PUSH1 0x60 DUP4 ADD MLOAD PUSH2 0x1682 PUSH1 0x80 DUP5 ADD DUP3 PUSH2 0x1628 JUMP JUMPDEST POP PUSH1 0x80 DUP4 ADD MLOAD PUSH1 0xA0 DUP1 DUP5 ADD MSTORE PUSH2 0x169B PUSH1 0xC0 DUP5 ADD DUP3 PUSH2 0x136E JUMP JUMPDEST SWAP5 SWAP4 POP POP POP POP JUMP JUMPDEST PUSH0 DUP1 PUSH1 0x20 DUP4 DUP6 SUB SLT ISZERO PUSH2 0x16B4 JUMPI PUSH0 DUP1 REVERT JUMPDEST DUP3 CALLDATALOAD PUSH8 0xFFFFFFFFFFFFFFFF DUP1 DUP3 GT ISZERO PUSH2 0x16CB JUMPI PUSH0 DUP1 REVERT JUMPDEST DUP2 DUP6 ADD SWAP2 POP DUP6 PUSH1 0x1F DUP4 ADD SLT PUSH2 0x16DE JUMPI PUSH0 DUP1 REVERT JUMPDEST DUP2 CALLDATALOAD DUP2 DUP2 GT ISZERO PUSH2 0x16EC JUMPI PUSH0 DUP1 REVERT JUMPDEST DUP7 PUSH1 0x20 PUSH1 0x60 DUP4 MUL DUP6 ADD ADD GT ISZERO PUSH2 0x1700 JUMPI PUSH0 DUP1 REVERT JUMPDEST PUSH1 0x20 SWAP3 SWAP1 SWAP3 ADD SWAP7 SWAP2 SWAP6 POP SWAP1 SWAP4 POP POP POP POP JUMP JUMPDEST PUSH0 DUP1 PUSH0 PUSH1 0x60 DUP5 DUP7 SUB SLT ISZERO PUSH2 0x1724 JUMPI PUSH0 DUP1 REVERT JUMPDEST PUSH2 0x172D DUP5 PUSH2 0x13B5 JUMP JUMPDEST SWAP3 POP PUSH2 0x173B PUSH1 0x20 DUP6 ADD PUSH2 0x13B5 JUMP JUMPDEST SWAP2 POP PUSH1 0x40 DUP5 ADD CALLDATALOAD SWAP1 POP SWAP3 POP SWAP3 POP SWAP3 JUMP JUMPDEST DUP6 DUP2 MSTORE PUSH1 0x20 DUP2 ADD DUP6 SWAP1 MSTORE PUSH1 0x1 PUSH1 0x1 PUSH1 0xA0 SHL SUB DUP5 AND PUSH1 0x40 DUP3 ADD MSTORE PUSH2 0x1771 PUSH1 0x60 DUP3 ADD DUP5 PUSH2 0x1628 JUMP JUMPDEST PUSH1 0xA0 PUSH1 0x80 DUP3 ADD MSTORE PUSH0 PUSH2 0x1786 PUSH1 0xA0 DUP4 ADD DUP5 PUSH2 0x136E JUMP JUMPDEST SWAP8 SWAP7 POP POP POP POP POP POP POP JUMP JUMPDEST PUSH0 PUSH1 0x20 DUP3 DUP5 SUB SLT ISZERO PUSH2 0x17A1 JUMPI PUSH0 DUP1 REVERT JUMPDEST PUSH2 0x13AE DUP3 PUSH2 0x13B5 JUMP JUMPDEST PUSH1 0x20 DUP1 DUP3 MSTORE DUP3 MLOAD DUP3 DUP3 ADD DUP2 SWAP1 MSTORE PUSH0 SWAP2 SWAP1 PUSH1 0x40 SWAP1 DUP2 DUP6 ADD SWAP1 DUP7 DUP5 ADD DUP6 JUMPDEST DUP3 DUP2 LT ISZERO PUSH2 0x17FE JUMPI DUP2 MLOAD DUP1 MLOAD DUP6 MSTORE DUP7 DUP2 ADD MLOAD PUSH1 0x1 PUSH1 0x1 PUSH1 0xA0 SHL SUB AND DUP8 DUP7 ADD MSTORE DUP6 ADD MLOAD DUP6 DUP6 ADD MSTORE PUSH1 0x60 SWAP1 SWAP4 ADD SWAP3 SWAP1 DUP6 ADD SWAP1 PUSH1 0x1 ADD PUSH2 0x17C6 JUMP JUMPDEST POP SWAP2 SWAP8 SWAP7 POP POP POP POP POP POP POP JUMP JUMPDEST PUSH0 DUP1 PUSH1 0x40 DUP4 DUP6 SUB SLT ISZERO PUSH2 0x181C JUMPI PUSH0 DUP1 REVERT JUMPDEST PUSH2 0x1825 DUP4 PUSH2 0x13B5 JUMP JUMPDEST SWAP2 POP PUSH2 0x1833 PUSH1 0x20 DUP5 ADD PUSH2 0x13B5 JUMP JUMPDEST SWAP1 POP SWAP3 POP SWAP3 SWAP1 POP JUMP JUMPDEST PUSH1 0x1 DUP2 DUP2 SHR SWAP1 DUP3 AND DUP1 PUSH2 0x1850 JUMPI PUSH1 0x7F DUP3 AND SWAP2 POP JUMPDEST PUSH1 0x20 DUP3 LT DUP2 SUB PUSH2 0x1060 JUMPI PUSH4 0x4E487B71 PUSH1 0xE0 SHL PUSH0 MSTORE PUSH1 0x22 PUSH1 0x4 MSTORE PUSH1 0x24 PUSH0 REVERT JUMPDEST PUSH0 PUSH1 0x20 DUP3 DUP5 SUB SLT ISZERO PUSH2 0x187E JUMPI PUSH0 DUP1 REVERT JUMPDEST DUP2 MLOAD DUP1 ISZERO ISZERO DUP2 EQ PUSH2 0x13AE JUMPI PUSH0 DUP1 REVERT JUMPDEST PUSH1 0x1F DUP3 GT ISZERO PUSH2 0x1020 JUMPI DUP1 PUSH0 MSTORE PUSH1 0x20 PUSH0 KECCAK256 PUSH1 0x1F DUP5 ADD PUSH1 0x5 SHR DUP2 ADD PUSH1 0x20 DUP6 LT ISZERO PUSH2 0x18B2 JUMPI POP DUP1 JUMPDEST PUSH1 0x1F DUP5 ADD PUSH1 0x5 SHR DUP3 ADD SWAP2 POP JUMPDEST DUP2 DUP2 LT ISZERO PUSH2 0x18D1 JUMPI PUSH0 DUP2 SSTORE PUSH1 0x1 ADD PUSH2 0x18BE JUMP JUMPDEST POP POP POP POP POP JUMP JUMPDEST DUP2 MLOAD PUSH8 0xFFFFFFFFFFFFFFFF DUP2 GT ISZERO PUSH2 0x18F2 JUMPI PUSH2 0x18F2 PUSH2 0x13F8 JUMP JUMPDEST PUSH2 0x1906 DUP2 PUSH2 0x1900 DUP5 SLOAD PUSH2 0x183C JUMP JUMPDEST DUP5 PUSH2 0x188D JUMP JUMPDEST PUSH1 0x20 DUP1 PUSH1 0x1F DUP4 GT PUSH1 0x1 DUP2 EQ PUSH2 0x1939 JUMPI PUSH0 DUP5 ISZERO PUSH2 0x1922 JUMPI POP DUP6 DUP4 ADD MLOAD JUMPDEST PUSH0 NOT PUSH1 0x3 DUP7 SWAP1 SHL SHR NOT AND PUSH1 0x1 DUP6 SWAP1 SHL OR DUP6 SSTORE PUSH2 0x1990 JUMP JUMPDEST PUSH0 DUP6 DUP2 MSTORE PUSH1 0x20 DUP2 KECCAK256 PUSH1 0x1F NOT DUP7 AND SWAP2 JUMPDEST DUP3 DUP2 LT ISZERO PUSH2 0x1967 JUMPI DUP9 DUP7 ADD MLOAD DUP3 SSTORE SWAP5 DUP5 ADD SWAP5 PUSH1 0x1 SWAP1 SWAP2 ADD SWAP1 DUP5 ADD PUSH2 0x1948 JUMP JUMPDEST POP DUP6 DUP3 LT ISZERO PUSH2 0x1984 JUMPI DUP8 DUP6 ADD MLOAD PUSH0 NOT PUSH1 0x3 DUP9 SWAP1 SHL PUSH1 0xF8 AND SHR NOT AND DUP2 SSTORE JUMPDEST POP POP PUSH1 0x1 DUP5 PUSH1 0x1 SHL ADD DUP6 SSTORE JUMPDEST POP POP POP POP POP POP JUMP JUMPDEST PUSH0 PUSH1 0x80 DUP3 ADD DUP7 DUP4 MSTORE PUSH1 0x20 DUP7 DUP2 DUP6 ADD MSTORE PUSH1 0x80 PUSH1 0x40 DUP6 ADD MSTORE DUP2 DUP7 MLOAD DUP1 DUP5 MSTORE PUSH1 0xA0 DUP7 ADD SWAP2 POP DUP3 DUP9 ADD SWAP4 POP PUSH0 JUMPDEST DUP2 DUP2 LT ISZERO PUSH2 0x19DD JUMPI DUP5 MLOAD DUP4 MSTORE SWAP4 DUP4 ADD SWAP4 SWAP2 DUP4 ADD SWAP2 PUSH1 0x1 ADD PUSH2 0x19C1 JUMP JUMPDEST POP POP DUP5 DUP2 SUB PUSH1 0x60 DUP7 ADD MSTORE DUP6 MLOAD DUP1 DUP3 MSTORE DUP3 DUP3 ADD SWAP4 POP PUSH1 0x5 DUP2 SWAP1 SHL DUP3 ADD DUP4 ADD DUP4 DUP9 ADD PUSH0 JUMPDEST DUP4 DUP2 LT ISZERO PUSH2 0x1A2D JUMPI PUSH1 0x1F NOT DUP6 DUP5 SUB ADD DUP8 MSTORE PUSH2 0x1A1B DUP4 DUP4 MLOAD PUSH2 0x136E JUMP JUMPDEST SWAP7 DUP7 ADD SWAP7 SWAP3 POP SWAP1 DUP6 ADD SWAP1 PUSH1 0x1 ADD PUSH2 0x19FF JUMP JUMPDEST POP SWAP1 SWAP12 SWAP11 POP POP POP POP POP POP POP POP POP POP POP JUMP JUMPDEST PUSH4 0x4E487B71 PUSH1 0xE0 SHL PUSH0 MSTORE PUSH1 0x32 PUSH1 0x4 MSTORE PUSH1 0x24 PUSH0 REVERT JUMPDEST DUP1 DUP3 ADD DUP1 DUP3 GT ISZERO PUSH2 0x5B8 JUMPI PUSH4 0x4E487B71 PUSH1 0xE0 SHL PUSH0 MSTORE PUSH1 0x11 PUSH1 0x4 MSTORE PUSH1 0x24 PUSH0 REVERT INVALID LOG2 PUSH5 0x6970667358 0x22 SLT KECCAK256 PUSH26 0x56A78635694E743E5E09D71BC9930FDE7D0CC90FCD8130AA3EFF PUSH24 0x7AFD25E564736F6C63430008190033A26469706673582212 KECCAK256 SWAP14 0xAF SGT SELFDESTRUCT 0xC0 GAS 0x4D RETURNDATASIZE GASLIMIT 0xE8 CALLVALUE 0xC6 EQ 0x4E INVALID 0x1E SWAP11 0xD4 BLOBHASH KECCAK256 0xB2 DUP9 0x2F ORIGIN 0xBF DUP14 SWAP8 SWAP15 0xFC MSTORE8 DUP8 0xCE PUSH5 0x736F6C6343 STOP ADDMOD NOT STOP CALLER "
		},
		"gasEstimates": {
			"creation": {
				"codeDepositCost": "4237600",
				"executionCost": "infinite",
				"totalCost": "infinite"
			},
			"external": {
				"allowInitializePath((uint32,bytes32,uint64))": "infinite",
				"approvedSliceTokenCreators(address)": "2588",
				"axelarAdapter()": "2403",
				"canCreateSlice(address)": "2584",
				"chainInfo()": "2447",
				"changeApprovedSliceTokenCreator(address,bool)": "infinite",
				"changeSliceTokenCreationEnabled(bool)": "26795",
				"composeMsgSender()": "366",
				"createSlice(string,string,(uint256,address,uint256)[])": "infinite",
				"endpoint()": "infinite",
				"getRegisteredSliceToken(uint256)": "4747",
				"getRegisteredSliceTokens()": "infinite",
				"getRegisteredSliceTokensCount()": "2381",
				"isSliceTokenRegistered(address)": "2652",
				"isTokenCreationEnabled()": "2399",
				"lastReceive()": "8994",
				"lzEndpoint()": "infinite",
				"lzReceive((uint32,bytes32,uint64),bytes32,bytes,address,bytes)": "infinite",
				"lzSendOpts()": "infinite",
				"nextNonce(uint32,bytes32)": "440",
				"oAppVersion()": "307",
				"onPayloadReceive(bytes)": "infinite",
				"owner()": "2419",
				"partnerSliceCore()": "2403",
				"payloadGas()": "2362",
				"paymentToken()": "2448",
				"peers(uint32)": "2543",
				"purchaseUnderlyingAssets(bytes32,uint256,uint256[],bytes[])": "infinite",
				"rebalanceUnderlying(bytes32,(uint256,address,uint256)[])": "552",
				"redeemUnderlying(bytes32,(bytes32,uint256,address,uint8,bytes))": "infinite",
				"registeredSliceTokens(address)": "2610",
				"registeredSliceTokensArray(uint256)": "4744",
				"registeredSliceTokensCount()": "2406",
				"renounceOwnership()": "infinite",
				"setDelegate(address)": "infinite",
				"setLzSendOpts(bytes)": "infinite",
				"setPartner(address)": "26793",
				"setPayloadGas(uint256)": "24619",
				"setPeer(uint32,bytes32)": "26039",
				"stargateAdapter()": "2381",
				"sushiXSwap()": "2470",
				"transactionCompleteSignals(bytes32)": "8933",
				"transferOwnership(address)": "infinite"
			},
			"internal": {
				"_lzReceive(struct Origin calldata,bytes32,bytes calldata,address,bytes calldata)": "infinite",
				"checkPendingTransactionCompleteSignals(bytes32)": "infinite",
				"createAdapterData(struct Chain memory,uint256,uint256)": "infinite",
				"createPayloadDataEncoded(bytes32,address,uint256,bytes memory)": "infinite",
				"createRouteProcessorDataEncoded(struct Chain memory,address,uint256,bytes memory)": "infinite",
				"executeCrossChainSwap(bytes32,address,uint256,uint256,struct Position memory,struct SliceTransactionInfo memory,bytes memory)": "infinite",
				"executeLocalSwap(address,uint256,uint256,struct Position memory,bytes memory)": "infinite",
				"getGasNeeded(uint16,address,bytes memory,bytes memory)": "infinite",
				"isPositionLocal(struct Position memory)": "infinite"
			}
		},
		"methodIdentifiers": {
			"allowInitializePath((uint32,bytes32,uint64))": "ff7bd03d",
			"approvedSliceTokenCreators(address)": "ead4c477",
			"axelarAdapter()": "c06ac447",
			"canCreateSlice(address)": "dbf0b01a",
			"chainInfo()": "d1e90a7c",
			"changeApprovedSliceTokenCreator(address,bool)": "a7dbb845",
			"changeSliceTokenCreationEnabled(bool)": "6e3f5447",
			"composeMsgSender()": "b92d0eff",
			"createSlice(string,string,(uint256,address,uint256)[])": "290dfdb2",
			"endpoint()": "5e280f11",
			"getRegisteredSliceToken(uint256)": "f476b41a",
			"getRegisteredSliceTokens()": "982c26d4",
			"getRegisteredSliceTokensCount()": "3a3e8443",
			"isSliceTokenRegistered(address)": "8fb84f31",
			"isTokenCreationEnabled()": "2cdcd190",
			"lastReceive()": "6988b7c7",
			"lzEndpoint()": "b353aaa7",
			"lzReceive((uint32,bytes32,uint64),bytes32,bytes,address,bytes)": "13137d65",
			"lzSendOpts()": "272a58d2",
			"nextNonce(uint32,bytes32)": "7d25a05e",
			"oAppVersion()": "17442b70",
			"onPayloadReceive(bytes)": "a6ac3db6",
			"owner()": "8da5cb5b",
			"partnerSliceCore()": "65c3cd58",
			"payloadGas()": "29ef0dc7",
			"paymentToken()": "3013ce29",
			"peers(uint32)": "bb0b6a53",
			"purchaseUnderlyingAssets(bytes32,uint256,uint256[],bytes[])": "3a135554",
			"rebalanceUnderlying(bytes32,(uint256,address,uint256)[])": "0993035c",
			"redeemUnderlying(bytes32,(bytes32,uint256,address,uint8,bytes))": "82c325d2",
			"registeredSliceTokens(address)": "ecf7a79d",
			"registeredSliceTokensArray(uint256)": "d8078b8a",
			"registeredSliceTokensCount()": "5609b29d",
			"renounceOwnership()": "715018a6",
			"setDelegate(address)": "ca5eb5e1",
			"setLzSendOpts(bytes)": "7255f81b",
			"setPartner(address)": "a16d5960",
			"setPayloadGas(uint256)": "9231174e",
			"setPeer(uint32,bytes32)": "3400288b",
			"stargateAdapter()": "628cda6d",
			"sushiXSwap()": "31263ae1",
			"transactionCompleteSignals(bytes32)": "0251e005",
			"transferOwnership(address)": "f2fde38b"
		}
	},
	"abi": [
		{
			"inputs": [
				{
					"internalType": "address",
					"name": "_paymentToken",
					"type": "address"
				},
				{
					"internalType": "address",
					"name": "_sushiXSwap",
					"type": "address"
				},
				{
					"internalType": "address",
					"name": "_stargateAdapter",
					"type": "address"
				},
				{
					"internalType": "address",
					"name": "_axelarAdapter",
					"type": "address"
				},
				{
					"internalType": "address",
					"name": "_partner",
					"type": "address"
				},
				{
					"internalType": "address",
					"name": "_lzEndpoint",
					"type": "address"
				},
				{
					"internalType": "address",
					"name": "_chainInfo",
					"type": "address"
				}
			],
			"stateMutability": "nonpayable",
			"type": "constructor"
		},
		{
			"inputs": [],
			"name": "InvalidDelegate",
			"type": "error"
		},
		{
			"inputs": [],
			"name": "InvalidEndpointCall",
			"type": "error"
		},
		{
			"inputs": [],
			"name": "LzTokenUnavailable",
			"type": "error"
		},
		{
			"inputs": [
				{
					"internalType": "uint32",
					"name": "eid",
					"type": "uint32"
				}
			],
			"name": "NoPeer",
			"type": "error"
		},
		{
			"inputs": [
				{
					"internalType": "uint256",
					"name": "msgValue",
					"type": "uint256"
				}
			],
			"name": "NotEnoughNative",
			"type": "error"
		},
		{
			"inputs": [
				{
					"internalType": "address",
					"name": "addr",
					"type": "address"
				}
			],
			"name": "OnlyEndpoint",
			"type": "error"
		},
		{
			"inputs": [
				{
					"internalType": "uint32",
					"name": "eid",
					"type": "uint32"
				},
				{
					"internalType": "bytes32",
					"name": "sender",
					"type": "bytes32"
				}
			],
			"name": "OnlyPeer",
			"type": "error"
		},
		{
			"inputs": [
				{
					"internalType": "address",
					"name": "owner",
					"type": "address"
				}
			],
			"name": "OwnableInvalidOwner",
			"type": "error"
		},
		{
			"inputs": [
				{
					"internalType": "address",
					"name": "account",
					"type": "address"
				}
			],
			"name": "OwnableUnauthorizedAccount",
			"type": "error"
		},
		{
			"anonymous": false,
			"inputs": [
				{
					"indexed": true,
					"internalType": "address",
					"name": "previousOwner",
					"type": "address"
				},
				{
					"indexed": true,
					"internalType": "address",
					"name": "newOwner",
					"type": "address"
				}
			],
			"name": "OwnershipTransferred",
			"type": "event"
		},
		{
			"anonymous": false,
			"inputs": [
				{
					"indexed": false,
					"internalType": "uint32",
					"name": "eid",
					"type": "uint32"
				},
				{
					"indexed": false,
					"internalType": "bytes32",
					"name": "peer",
					"type": "bytes32"
				}
			],
			"name": "PeerSet",
			"type": "event"
		},
		{
			"anonymous": false,
			"inputs": [
				{
					"indexed": true,
					"internalType": "address",
					"name": "token",
					"type": "address"
				}
			],
			"name": "SliceTokenCreated",
			"type": "event"
		},
		{
			"anonymous": false,
			"inputs": [
				{
					"indexed": true,
					"internalType": "address",
					"name": "token",
					"type": "address"
				},
				{
					"indexed": true,
					"internalType": "uint256",
					"name": "sliceTokenQuantity",
					"type": "uint256"
				},
				{
					"indexed": true,
					"internalType": "address",
					"name": "owner",
					"type": "address"
				}
			],
			"name": "UnderlyingAssetsPurchased",
			"type": "event"
		},
		{
			"anonymous": false,
			"inputs": [
				{
					"indexed": true,
					"internalType": "address",
					"name": "token",
					"type": "address"
				}
			],
			"name": "UnderlyingAssetsRebalanced",
			"type": "event"
		},
		{
			"anonymous": false,
			"inputs": [
				{
					"indexed": true,
					"internalType": "address",
					"name": "token",
					"type": "address"
				},
				{
					"indexed": true,
					"internalType": "uint256",
					"name": "sliceTokenQuantity",
					"type": "uint256"
				},
				{
					"indexed": true,
					"internalType": "address",
					"name": "owner",
					"type": "address"
				}
			],
			"name": "UnderlyingAssetsRedeemed",
			"type": "event"
		},
		{
			"inputs": [
				{
					"components": [
						{
							"internalType": "uint32",
							"name": "srcEid",
							"type": "uint32"
						},
						{
							"internalType": "bytes32",
							"name": "sender",
							"type": "bytes32"
						},
						{
							"internalType": "uint64",
							"name": "nonce",
							"type": "uint64"
						}
					],
					"internalType": "struct Origin",
					"name": "origin",
					"type": "tuple"
				}
			],
			"name": "allowInitializePath",
			"outputs": [
				{
					"internalType": "bool",
					"name": "",
					"type": "bool"
				}
			],
			"stateMutability": "view",
			"type": "function"
		},
		{
			"inputs": [
				{
					"internalType": "address",
					"name": "",
					"type": "address"
				}
			],
			"name": "approvedSliceTokenCreators",
			"outputs": [
				{
					"internalType": "bool",
					"name": "",
					"type": "bool"
				}
			],
			"stateMutability": "view",
			"type": "function"
		},
		{
			"inputs": [],
			"name": "axelarAdapter",
			"outputs": [
				{
					"internalType": "address",
					"name": "",
					"type": "address"
				}
			],
			"stateMutability": "view",
			"type": "function"
		},
		{
			"inputs": [
				{
					"internalType": "address",
					"name": "_user",
					"type": "address"
				}
			],
			"name": "canCreateSlice",
			"outputs": [
				{
					"internalType": "bool",
					"name": "",
					"type": "bool"
				}
			],
			"stateMutability": "view",
			"type": "function"
		},
		{
			"inputs": [],
			"name": "chainInfo",
			"outputs": [
				{
					"internalType": "contract IChainInfo",
					"name": "",
					"type": "address"
				}
			],
			"stateMutability": "view",
			"type": "function"
		},
		{
			"inputs": [
				{
					"internalType": "address",
					"name": "_user",
					"type": "address"
				},
				{
					"internalType": "bool",
					"name": "_isApproved",
					"type": "bool"
				}
			],
			"name": "changeApprovedSliceTokenCreator",
			"outputs": [],
			"stateMutability": "nonpayable",
			"type": "function"
		},
		{
			"inputs": [
				{
					"internalType": "bool",
					"name": "_isEnabled",
					"type": "bool"
				}
			],
			"name": "changeSliceTokenCreationEnabled",
			"outputs": [],
			"stateMutability": "nonpayable",
			"type": "function"
		},
		{
			"inputs": [],
			"name": "composeMsgSender",
			"outputs": [
				{
					"internalType": "address",
					"name": "sender",
					"type": "address"
				}
			],
			"stateMutability": "view",
			"type": "function"
		},
		{
			"inputs": [
				{
					"internalType": "string",
					"name": "_name",
					"type": "string"
				},
				{
					"internalType": "string",
					"name": "_symbol",
					"type": "string"
				},
				{
					"components": [
						{
							"internalType": "uint256",
							"name": "chainId",
							"type": "uint256"
						},
						{
							"internalType": "address",
							"name": "token",
							"type": "address"
						},
						{
							"internalType": "uint256",
							"name": "units",
							"type": "uint256"
						}
					],
					"internalType": "struct Position[]",
					"name": "_positions",
					"type": "tuple[]"
				}
			],
			"name": "createSlice",
			"outputs": [
				{
					"internalType": "address",
					"name": "",
					"type": "address"
				}
			],
			"stateMutability": "nonpayable",
			"type": "function"
		},
		{
			"inputs": [],
			"name": "endpoint",
			"outputs": [
				{
					"internalType": "contract ILayerZeroEndpointV2",
					"name": "",
					"type": "address"
				}
			],
			"stateMutability": "view",
			"type": "function"
		},
		{
			"inputs": [
				{
					"internalType": "uint256",
					"name": "_idx",
					"type": "uint256"
				}
			],
			"name": "getRegisteredSliceToken",
			"outputs": [
				{
					"internalType": "address",
					"name": "",
					"type": "address"
				}
			],
			"stateMutability": "view",
			"type": "function"
		},
		{
			"inputs": [],
			"name": "getRegisteredSliceTokens",
			"outputs": [
				{
					"internalType": "address[]",
					"name": "",
					"type": "address[]"
				}
			],
			"stateMutability": "view",
			"type": "function"
		},
		{
			"inputs": [],
			"name": "getRegisteredSliceTokensCount",
			"outputs": [
				{
					"internalType": "uint256",
					"name": "",
					"type": "uint256"
				}
			],
			"stateMutability": "view",
			"type": "function"
		},
		{
			"inputs": [
				{
					"internalType": "address",
					"name": "_token",
					"type": "address"
				}
			],
			"name": "isSliceTokenRegistered",
			"outputs": [
				{
					"internalType": "bool",
					"name": "",
					"type": "bool"
				}
			],
			"stateMutability": "view",
			"type": "function"
		},
		{
			"inputs": [],
			"name": "isTokenCreationEnabled",
			"outputs": [
				{
					"internalType": "bool",
					"name": "",
					"type": "bool"
				}
			],
			"stateMutability": "view",
			"type": "function"
		},
		{
			"inputs": [],
			"name": "lastReceive",
			"outputs": [
				{
					"internalType": "address",
					"name": "msgsender",
					"type": "address"
				},
				{
					"internalType": "bytes32",
					"name": "partner",
					"type": "bytes32"
				},
				{
					"internalType": "bytes32",
					"name": "id",
					"type": "bytes32"
				},
				{
					"internalType": "bool",
					"name": "isok",
					"type": "bool"
				},
				{
					"internalType": "bool",
					"name": "isEndpoint",
					"type": "bool"
				},
				{
					"internalType": "bool",
					"name": "isPartner",
					"type": "bool"
				},
				{
					"internalType": "bool",
					"name": "isRegistered",
					"type": "bool"
				},
				{
					"internalType": "bool",
					"name": "isSuccess",
					"type": "bool"
				}
			],
			"stateMutability": "view",
			"type": "function"
		},
		{
			"inputs": [],
			"name": "lzEndpoint",
			"outputs": [
				{
					"internalType": "address",
					"name": "",
					"type": "address"
				}
			],
			"stateMutability": "view",
			"type": "function"
		},
		{
			"inputs": [
				{
					"components": [
						{
							"internalType": "uint32",
							"name": "srcEid",
							"type": "uint32"
						},
						{
							"internalType": "bytes32",
							"name": "sender",
							"type": "bytes32"
						},
						{
							"internalType": "uint64",
							"name": "nonce",
							"type": "uint64"
						}
					],
					"internalType": "struct Origin",
					"name": "_origin",
					"type": "tuple"
				},
				{
					"internalType": "bytes32",
					"name": "_guid",
					"type": "bytes32"
				},
				{
					"internalType": "bytes",
					"name": "_message",
					"type": "bytes"
				},
				{
					"internalType": "address",
					"name": "_executor",
					"type": "address"
				},
				{
					"internalType": "bytes",
					"name": "_extraData",
					"type": "bytes"
				}
			],
			"name": "lzReceive",
			"outputs": [],
			"stateMutability": "payable",
			"type": "function"
		},
		{
			"inputs": [],
			"name": "lzSendOpts",
			"outputs": [
				{
					"internalType": "bytes",
					"name": "",
					"type": "bytes"
				}
			],
			"stateMutability": "view",
			"type": "function"
		},
		{
			"inputs": [
				{
					"internalType": "uint32",
					"name": "",
					"type": "uint32"
				},
				{
					"internalType": "bytes32",
					"name": "",
					"type": "bytes32"
				}
			],
			"name": "nextNonce",
			"outputs": [
				{
					"internalType": "uint64",
					"name": "nonce",
					"type": "uint64"
				}
			],
			"stateMutability": "view",
			"type": "function"
		},
		{
			"inputs": [],
			"name": "oAppVersion",
			"outputs": [
				{
					"internalType": "uint64",
					"name": "senderVersion",
					"type": "uint64"
				},
				{
					"internalType": "uint64",
					"name": "receiverVersion",
					"type": "uint64"
				}
			],
			"stateMutability": "pure",
			"type": "function"
		},
		{
			"inputs": [
				{
					"internalType": "bytes",
					"name": "_data",
					"type": "bytes"
				}
			],
			"name": "onPayloadReceive",
			"outputs": [],
			"stateMutability": "payable",
			"type": "function"
		},
		{
			"inputs": [],
			"name": "owner",
			"outputs": [
				{
					"internalType": "address",
					"name": "",
					"type": "address"
				}
			],
			"stateMutability": "view",
			"type": "function"
		},
		{
			"inputs": [],
			"name": "partnerSliceCore",
			"outputs": [
				{
					"internalType": "address",
					"name": "",
					"type": "address"
				}
			],
			"stateMutability": "view",
			"type": "function"
		},
		{
			"inputs": [],
			"name": "payloadGas",
			"outputs": [
				{
					"internalType": "uint256",
					"name": "",
					"type": "uint256"
				}
			],
			"stateMutability": "view",
			"type": "function"
		},
		{
			"inputs": [],
			"name": "paymentToken",
			"outputs": [
				{
					"internalType": "address",
					"name": "",
					"type": "address"
				}
			],
			"stateMutability": "view",
			"type": "function"
		},
		{
			"inputs": [
				{
					"internalType": "uint32",
					"name": "eid",
					"type": "uint32"
				}
			],
			"name": "peers",
			"outputs": [
				{
					"internalType": "bytes32",
					"name": "peer",
					"type": "bytes32"
				}
			],
			"stateMutability": "view",
			"type": "function"
		},
		{
			"inputs": [
				{
					"internalType": "bytes32",
					"name": "_mintID",
					"type": "bytes32"
				},
				{
					"internalType": "uint256",
					"name": "_sliceTokenQuantity",
					"type": "uint256"
				},
				{
					"internalType": "uint256[]",
					"name": "_maxEstimatedPrices",
					"type": "uint256[]"
				},
				{
					"internalType": "bytes[]",
					"name": "_routes",
					"type": "bytes[]"
				}
			],
			"name": "purchaseUnderlyingAssets",
			"outputs": [],
			"stateMutability": "payable",
			"type": "function"
		},
		{
			"inputs": [
				{
					"internalType": "bytes32",
					"name": "_rebalanceID",
					"type": "bytes32"
				},
				{
					"components": [
						{
							"internalType": "uint256",
							"name": "chainId",
							"type": "uint256"
						},
						{
							"internalType": "address",
							"name": "token",
							"type": "address"
						},
						{
							"internalType": "uint256",
							"name": "units",
							"type": "uint256"
						}
					],
					"internalType": "struct Position[]",
					"name": "_positions",
					"type": "tuple[]"
				}
			],
			"name": "rebalanceUnderlying",
			"outputs": [],
			"stateMutability": "nonpayable",
			"type": "function"
		},
		{
			"inputs": [
				{
					"internalType": "bytes32",
					"name": "_redeemID",
					"type": "bytes32"
				},
				{
					"components": [
						{
							"internalType": "bytes32",
							"name": "id",
							"type": "bytes32"
						},
						{
							"internalType": "uint256",
							"name": "quantity",
							"type": "uint256"
						},
						{
							"internalType": "address",
							"name": "user",
							"type": "address"
						},
						{
							"internalType": "enum TransactionState",
							"name": "state",
							"type": "uint8"
						},
						{
							"internalType": "bytes",
							"name": "data",
							"type": "bytes"
						}
					],
					"internalType": "struct SliceTransactionInfo",
					"name": "_txInfo",
					"type": "tuple"
				}
			],
			"name": "redeemUnderlying",
			"outputs": [],
			"stateMutability": "nonpayable",
			"type": "function"
		},
		{
			"inputs": [
				{
					"internalType": "address",
					"name": "",
					"type": "address"
				}
			],
			"name": "registeredSliceTokens",
			"outputs": [
				{
					"internalType": "bool",
					"name": "",
					"type": "bool"
				}
			],
			"stateMutability": "view",
			"type": "function"
		},
		{
			"inputs": [
				{
					"internalType": "uint256",
					"name": "",
					"type": "uint256"
				}
			],
			"name": "registeredSliceTokensArray",
			"outputs": [
				{
					"internalType": "address",
					"name": "",
					"type": "address"
				}
			],
			"stateMutability": "view",
			"type": "function"
		},
		{
			"inputs": [],
			"name": "registeredSliceTokensCount",
			"outputs": [
				{
					"internalType": "uint256",
					"name": "",
					"type": "uint256"
				}
			],
			"stateMutability": "view",
			"type": "function"
		},
		{
			"inputs": [],
			"name": "renounceOwnership",
			"outputs": [],
			"stateMutability": "nonpayable",
			"type": "function"
		},
		{
			"inputs": [
				{
					"internalType": "address",
					"name": "_delegate",
					"type": "address"
				}
			],
			"name": "setDelegate",
			"outputs": [],
			"stateMutability": "nonpayable",
			"type": "function"
		},
		{
			"inputs": [
				{
					"internalType": "bytes",
					"name": "_opts",
					"type": "bytes"
				}
			],
			"name": "setLzSendOpts",
			"outputs": [],
			"stateMutability": "nonpayable",
			"type": "function"
		},
		{
			"inputs": [
				{
					"internalType": "address",
					"name": "_partner",
					"type": "address"
				}
			],
			"name": "setPartner",
			"outputs": [],
			"stateMutability": "nonpayable",
			"type": "function"
		},
		{
			"inputs": [
				{
					"internalType": "uint256",
					"name": "_payloadGas",
					"type": "uint256"
				}
			],
			"name": "setPayloadGas",
			"outputs": [],
			"stateMutability": "nonpayable",
			"type": "function"
		},
		{
			"inputs": [
				{
					"internalType": "uint32",
					"name": "_eid",
					"type": "uint32"
				},
				{
					"internalType": "bytes32",
					"name": "_peer",
					"type": "bytes32"
				}
			],
			"name": "setPeer",
			"outputs": [],
			"stateMutability": "nonpayable",
			"type": "function"
		},
		{
			"inputs": [],
			"name": "stargateAdapter",
			"outputs": [
				{
					"internalType": "address",
					"name": "",
					"type": "address"
				}
			],
			"stateMutability": "view",
			"type": "function"
		},
		{
			"inputs": [],
			"name": "sushiXSwap",
			"outputs": [
				{
					"internalType": "contract ISushiXSwapV2",
					"name": "",
					"type": "address"
				}
			],
			"stateMutability": "view",
			"type": "function"
		},
		{
			"inputs": [
				{
					"internalType": "bytes32",
					"name": "",
					"type": "bytes32"
				}
			],
			"name": "transactionCompleteSignals",
			"outputs": [
				{
					"internalType": "address",
					"name": "token",
					"type": "address"
				},
				{
					"internalType": "uint256",
					"name": "signals",
					"type": "uint256"
				},
				{
					"internalType": "uint256",
					"name": "sliceTokenQuantity",
					"type": "uint256"
				},
				{
					"internalType": "address",
					"name": "user",
					"type": "address"
				}
			],
			"stateMutability": "view",
			"type": "function"
		},
		{
			"inputs": [
				{
					"internalType": "address",
					"name": "newOwner",
					"type": "address"
				}
			],
			"name": "transferOwnership",
			"outputs": [],
			"stateMutability": "nonpayable",
			"type": "function"
		},
		{
			"stateMutability": "payable",
			"type": "receive"
		}
	]
}