{
	"data": {
		"bytecode": {
			"linkReferences": {},
			"object": "6080604052348015600e575f80fd5b50615f748061001c5f395ff3fe608060405234801561000f575f80fd5b5060043610610029575f3560e01c80637fde56da1461002d575b5f80fd5b61004061003b3660046100fd565b61005c565b6040516001600160a01b03909116815260200160405180910390f35b5f6100ae8260405180602001610071906100f0565b601f1982820381018352601f9091011660408190526100939190602001610114565b604051602081830303815290604052805190602001206100b4565b92915050565b5f6100c08383306100c7565b9392505050565b5f604051836040820152846020820152828152600b8101905060ff815360559020949350505050565b615e148061012b83390190565b5f6020828403121561010d575f80fd5b5035919050565b5f82518060208501845e5f92019182525091905056fe60c0604052736edce65403992e310a62460808c4b910d972f10f60a052348015610027575f80fd5b5060a051338181808061005357604051631e4fbdf760e01b81525f600482015260240160405180910390fd5b61005c816100ed565b506001600160a01b03808316608052811661008a57604051632d618d8160e21b815260040160405180910390fd5b60805160405163ca5eb5e160e01b81526001600160a01b0383811660048301529091169063ca5eb5e1906024015f604051808303815f87803b1580156100ce575f80fd5b505af11580156100e0573d5f803e3d5ffd5b505050505050505061013c565b5f80546001600160a01b038381166001600160a01b0319831681178455604051919092169283917f8be0079c531659141344cd1fd0a4f28419497f9722a3daafe3b4186f6b6457e09190a35050565b60805160a051615c8d6101875f395f818161050e015261145501525f818161038e015281816106fa0152818161115701528181611d630152818161206c01526121230152615c8d5ff3fe60806040526004361061020a575f3560e01c8063952159fb11610113578063d1e90a7c1161009d578063ecf7a79d1161006d578063ecf7a79d1461064e578063f2fde38b1461067c578063f476b41a1461069b578063f8c8765e146106ba578063ff7bd03d146106d9575f80fd5b8063d1e90a7c146105ab578063d8078b8a146105ca578063dbf0b01a146105e9578063ead4c47714610620575f80fd5b8063b353aaa7116100e3578063b353aaa7146104fd578063b92d0eff14610530578063bb0b6a5314610542578063c06ac4471461056d578063ca5eb5e11461058c575f80fd5b8063952159fb1461048c578063982c26d4146104aa578063a6ac3db6146104cb578063a7dbb845146104de575f80fd5b80633a3e8443116101945780636e3f5447116101645780636e3f5447146103cf578063715018a6146103ee5780637d25a05e146104025780638da5cb5b146104395780638fb84f3114610455575f80fd5b80633a3e84431461034a5780635609b29d146103685780635e280f111461037d578063628cda6d146103b0575f80fd5b80632cdcd190116101da5780632cdcd190146102a55780633013ce29146102ce57806331263ae1146102ed5780633400288b1461030c5780633a1355541461032b575f80fd5b80630993035c1461021557806313137d651461023657806317442b7014610249578063290dfdb21461026e575f80fd5b3661021157005b5f80fd5b348015610220575f80fd5b5061023461022f3660046123ff565b505050565b005b6102346102443660046124a7565b6106f8565b348015610254575f80fd5b506040805160018082526020820152015b60405180910390f35b348015610279575f80fd5b5061028d61028836600461253f565b6107b8565b6040516001600160a01b039091168152602001610265565b3480156102b0575f80fd5b506008546102be9060ff1681565b6040519015158152602001610265565b3480156102d9575f80fd5b5060025461028d906001600160a01b031681565b3480156102f8575f80fd5b5060035461028d906001600160a01b031681565b348015610317575f80fd5b506102346103263660046125e2565b610943565b348015610336575f80fd5b506102346103453660046127f2565b61099f565b348015610355575f80fd5b50600b545b604051908152602001610265565b348015610373575f80fd5b5061035a600b5481565b348015610388575f80fd5b5061028d7f000000000000000000000000000000000000000000000000000000000000000081565b3480156103bb575f80fd5b5060045461028d906001600160a01b031681565b3480156103da575f80fd5b506102346103e93660046128c5565b610e28565b3480156103f9575f80fd5b50610234610e43565b34801561040d575f80fd5b5061042161041c3660046125e2565b610e56565b6040516001600160401b039091168152602001610265565b348015610444575f80fd5b505f546001600160a01b031661028d565b348015610460575f80fd5b506102be61046f3660046128e0565b6001600160a01b03165f9081526009602052604090205460ff1690565b348015610497575f80fd5b506102346104a63660046128fb565b5050565b3480156104b5575f80fd5b506104be610e5e565b6040516102659190612995565b6102346104d93660046129e1565b610ebe565b3480156104e9575f80fd5b506102346104f8366004612a1a565b6110fe565b348015610508575f80fd5b5061028d7f000000000000000000000000000000000000000000000000000000000000000081565b34801561053b575f80fd5b503061028d565b34801561054d575f80fd5b5061035a61055c366004612a51565b60016020525f908152604090205481565b348015610578575f80fd5b5060055461028d906001600160a01b031681565b348015610597575f80fd5b506102346105a63660046128e0565b611130565b3480156105b6575f80fd5b5060065461028d906001600160a01b031681565b3480156105d5575f80fd5b5061028d6105e4366004612a6c565b6111b1565b3480156105f4575f80fd5b506102be6106033660046128e0565b6001600160a01b03165f9081526007602052604090205460ff1690565b34801561062b575f80fd5b506102be61063a3660046128e0565b60076020525f908152604090205460ff1681565b348015610659575f80fd5b506102be6106683660046128e0565b60096020525f908152604090205460ff1681565b348015610687575f80fd5b506102346106963660046128e0565b6111d9565b3480156106a6575f80fd5b5061028d6106b5366004612a6c565b611216565b3480156106c5575f80fd5b506102346106d4366004612a83565b611244565b3480156106e4575f80fd5b506102be6106f3366004612adc565b6113db565b7f00000000000000000000000000000000000000000000000000000000000000006001600160a01b03163314610748576040516391ac5e4f60e01b81523360048201526024015b60405180910390fd5b602087018035906107629061075d908a612a51565b61140f565b146107a0576107746020880188612a51565b60405163309afaf360e21b815263ffffffff90911660048201526020880135602482015260440161073f565b6107af8787878787878761144a565b50505050505050565b335f9081526007602052604081205460ff166108165760405162461bcd60e51b815260206004820152601e60248201527f536c696365436f72653a20556e617574686f72697a65642063616c6c65720000604482015260640161073f565b60085460ff166108795760405162461bcd60e51b815260206004820152602860248201527f536c696365436f72653a20536c69636520746f6b656e206372656174696f6e20604482015267191a5cd8589b195960c21b606482015260840161073f565b5f87878787878760025f9054906101000a90046001600160a01b0316306040516108a29061235b565b6108b3989796959493929190612b1e565b604051809103905ff0801580156108cc573d5f803e3d5ffd5b506001600160a01b0381165f908152600960205260408120805460ff19166001179055600b80549293509061090083612be9565b90915550506040516001600160a01b038216907f0b857149a33d1d8f31a903329294f61770c4562939c36b9421c5867347c14bce905f90a2979650505050505050565b61094b61173d565b63ffffffff82165f81815260016020908152604091829020849055815192835282018390527f238399d427b947898edb290f5ff0f9109849b1c3ba196a42e35f00c50a54b98b910160405180910390a15050565b335f9081526009602052604090205460ff16610a155760405162461bcd60e51b815260206004820152602f60248201527f536c696365436f72653a204f6e6c79207265676973746572656420536c69636560448201526e081d1bdad95b8818d85b8818d85b1b608a1b606482015260840161073f565b610a1e82611769565b6002546040516370a0823160e01b81523060048201526001600160a01b03909116906370a0823190602401602060405180830381865afa158015610a64573d5f803e3d5ffd5b505050506040513d601f19601f82011682018060405250810190610a889190612c01565b1015610afc5760405162461bcd60e51b815260206004820152603a60248201527f536c696365436f72653a204d617820657374696d61746564207072696365206e60448201527f6f74207472616e7366657272656420746f20636f6e7472616374000000000000606482015260840161073f565b60405163a2ce9c1f60e01b8152600481018590525f90339063a2ce9c1f906024015f60405180830381865afa158015610b37573d5f803e3d5ffd5b505050506040513d5f823e601f3d908101601f19168201604052610b5e9190810190612c65565b80519091508514610bbb5760405162461bcd60e51b815260206004820152602160248201527f536c696365436f72653a204d696e7420494420646f6573206e6f7420657869736044820152601d60fa1b606482015260840161073f565b5f858152600c60205260408082208054336001600160a01b0319918216811783556002830189905585840151600390930180549092166001600160a01b0390931692909217905581516304013ac360e51b815291519091638027586091600480830192869291908290030181865afa158015610c39573d5f803e3d5ffd5b505050506040513d5f823e601f3d908101601f19168201604052610c609190810190612cf3565b90505f5b8151811015610d8057610c90828281518110610c8257610c82612db2565b602002602001015151461490565b15610d1e575f610cee3388888581518110610cad57610cad612db2565b6020026020010151868681518110610cc757610cc7612db2565b6020026020010151898781518110610ce157610ce1612db2565b60200260200101516117aa565b90508015610d18575f888152600c60205260408120600101805491610d1283612be9565b91905055505b50610d78565b610d78873388888581518110610d3657610d36612db2565b6020026020010151868681518110610d5057610d50612db2565b6020026020010151888a8881518110610d6b57610d6b612db2565b6020026020010151611980565b600101610c64565b50610d8a86611c33565b15610e205781604001516001600160a01b031685336001600160a01b03167f57906f264053df400decf287d5df71541ab514d475435b80e96a2588b4c4b39760405160405180910390a46040516205d48360ed1b815260048101879052339063ba906000906024015f604051808303815f87803b158015610e09575f80fd5b505af1158015610e1b573d5f803e3d5ffd5b505050505b505050505050565b610e3061173d565b6008805460ff1916911515919091179055565b610e4b61173d565b610e545f611ce3565b565b5f5b92915050565b6060600a805480602002602001604051908101604052809291908181526020018280548015610eb457602002820191905f5260205f20905b81546001600160a01b03168152600190910190602001808311610e96575b5050505050905090565b6004546001600160a01b03163314610f2a5760405162461bcd60e51b815260206004820152602960248201527f536c696365436f72653a204f6e6c7920537461726761746520616461707465726044820152680818d85b8818d85b1b60ba1b606482015260840161073f565b5f81806020019051810190610f3f9190612dc6565b60408082015190516370a0823160e01b81523060048201529192505f916001600160a01b03909116906370a0823190602401602060405180830381865afa158015610f8c573d5f803e3d5ffd5b505050506040513d601f19601f82011682018060405250810190610fb09190612c01565b905081606001518110156110175760405162461bcd60e51b815260206004820152602860248201527f536c696365436f72653a20496e636f727265637420616d6f756e74206f6620746044820152671bdad95b881bdd5d60c21b606482015260840161073f565b6006548251604051632013a8cd60e21b815260048101919091525f916001600160a01b03169063804ea33490602401608060405180830381865afa158015611061573d5f803e3d5ffd5b505050506040513d601f19601f820116820180604052508101906110859190612e5e565b6040805180820182526020868101518083526001828401908152845192830191909152511515928101929092529192505f9060600160405160208183030381529060405290506107af83606001518260405180602001604052805f81525060405180604001604052803481526020015f81525030611d32565b61110661173d565b6001600160a01b03919091165f908152600760205260409020805460ff1916911515919091179055565b61113861173d565b60405163ca5eb5e160e01b81526001600160a01b0382811660048301527f0000000000000000000000000000000000000000000000000000000000000000169063ca5eb5e1906024015f604051808303815f87803b158015611198575f80fd5b505af11580156111aa573d5f803e3d5ffd5b5050505050565b600a81815481106111c0575f80fd5b5f918252602090912001546001600160a01b0316905081565b6111e161173d565b6001600160a01b03811661120a57604051631e4fbdf760e01b81525f600482015260240161073f565b61121381611ce3565b50565b5f600a828154811061122a5761122a612db2565b5f918252602090912001546001600160a01b031692915050565b7ff0c57e16840df040f15088dc2f81fe391c3923bec73e23a9662efc9c229c6a008054600160401b810460ff1615906001600160401b03165f811580156112885750825b90505f826001600160401b031660011480156112a35750303b155b9050811580156112b1575080155b156112cf5760405163f92ee8a960e01b815260040160405180910390fd5b845467ffffffffffffffff1916600117855583156112f957845460ff60401b1916600160401b1785555b600280546001600160a01b03808c166001600160a01b03199283161790925560038054928b169290911691909117905560405161133590612368565b604051809103905ff08015801561134e573d5f803e3d5ffd5b50600680546001600160a01b03199081166001600160a01b03938416179091556004805482168a84161790556005805490911691881691909117905583156113d057845460ff60401b19168555604051600181527fc7f505b2f371ae2175ee4913f4499e1f2633a7b5936321eed1cdaeb6115181d29060200160405180910390a15b505050505050505050565b5f6020820180359060019083906113f29086612a51565b63ffffffff16815260208101919091526040015f20541492915050565b63ffffffff81165f9081526001602052604081205480610e585760405163f6ff4fb760e01b815263ffffffff8416600482015260240161073f565b336001600160a01b037f000000000000000000000000000000000000000000000000000000000000000016146114d65760405162461bcd60e51b815260206004820152602b60248201527f536c696365436f72653a206c7a52656365697665206e6f742063616c6c65642060448201526a189e48195b991c1bda5b9d60aa1b606482015260840161073f565b60208701356001600160a01b031630146115585760405162461bcd60e51b815260206004820152603860248201527f536c696365436f72653a206c7a53656e64206e6f7420696e697469617465642060448201527f62792063726f73732d636861696e20536c696365436f72650000000000000000606482015260840161073f565b5f61156585870187612eb7565b80515f908152600c60209081526040808320815160808101835281546001600160a01b039081168083526001840154838701526002840154838601526003909301541660608201529084526009909252909120549192509060ff1661160c5760405162461bcd60e51b815260206004820152601a60248201527f536c696365436f72653a20556e6b6e6f776e206d696e74204944000000000000604482015260640161073f565b81602001516116685760405162461bcd60e51b815260206004820152602260248201527f536c696365436f72653a2043726f73732d636861696e2073776170206661696c604482015261195960f21b606482015260840161073f565b81515f908152600c6020526040812060010180549161168683612be9565b9091555050815161169690611c33565b156113d05780606001516001600160a01b03168160400151336001600160a01b03167f57906f264053df400decf287d5df71541ab514d475435b80e96a2588b4c4b39760405160405180910390a481516040516205d48360ed1b81526004810191909152339063ba906000906024015f604051808303815f87803b15801561171c575f80fd5b505af115801561172e573d5f803e3d5ffd5b50505050505050505050505050565b5f546001600160a01b03163314610e545760405163118cdaa760e01b815233600482015260240161073f565b5f805b82518110156117a45782818151811061178757611787612db2565b60200260200101518261179a9190612eed565b915060010161176c565b50919050565b60025460035460405163095ea7b360e01b81526001600160a01b039182166004820152602481018690525f92919091169063095ea7b3906044016020604051808303815f875af1158015611800573d5f803e3d5ffd5b505050506040513d601f19601f820116820180604052508101906118249190612f00565b50604083015184905f90611839908890612f1b565b6040805160c0810182526002546001600160a01b03908116825260208083018790528981015182168385015260608301859052908c16608083015260a082018890529151929350915f9161188f91849101612f60565b60408051601f198184030181529082905260035463313eeab560e11b83529092506001600160a01b03169063627dd56a906118ce908490600401612fba565b5f604051808303815f87803b1580156118e5575f80fd5b505af11580156118f7573d5f803e3d5ffd5b5050505060208701516040516370a0823160e01b81526001600160a01b038c811660048301525f9216906370a0823190602401602060405180830381865afa158015611945573d5f803e3d5ffd5b505050506040513d601f19601f820116820180604052508101906119699190612c01565b604089015111159550505050505095945050505050565b60025460035460405163095ea7b360e01b81526001600160a01b0391821660048201526024810187905291169063095ea7b3906044016020604051808303815f875af11580156119d2573d5f803e3d5ffd5b505050506040513d601f19601f820116820180604052508101906119f69190612f00565b505f858460400151611a089190612f1b565b60025460208601519192505f91611a2b916001600160a01b031690848b87611e38565b90505f611a428a8760200151858860600151611eac565b6006548751604051632013a8cd60e21b81529293505f926001600160a01b039092169163804ea33491611a7b9160040190815260200190565b608060405180830381865afa158015611a96573d5f803e3d5ffd5b505050506040513d601f19601f82011682018060405250810190611aba9190612e5e565b90505f611acd82604001518c8686611f4a565b9050611b046040518060400160405280601481526020017361626f757420746f2063616c6c2062726964676560601b815250611fff565b6003546040805160c0810182525f81526004546001600160a01b039081166020830152600254811682840152606082018d905230608083015291850151919092169163bcc533259184919060a0820190611bd2908f6203d0906002546004546040805161ffff9690961660208701526001600160a01b0392831686820152600160608701819052608087015260a08601949094525f60c0860181905260e086015216610100840152306101208401526101408084019190915281518084039091018152610160909201905290565b8152503088886040518663ffffffff1660e01b8152600401611bf79493929190612fcc565b5f604051808303818588803b158015611c0e575f80fd5b505af1158015611c20573d5f803e3d5ffd5b5050505050505050505050505050505050565b5f818152600c60209081526040808320815160808101835281546001600160a01b03908116808352600184015483870152600284015483860152600390930154166060820152825163e02b79f960e01b815292519093859363e02b79f992600480830193928290030181865afa158015611caf573d5f803e3d5ffd5b505050506040513d601f19601f82011682018060405250810190611cd39190612c01565b6020909201519091149392505050565b5f80546001600160a01b038381166001600160a01b0319831681178455604051919092169283917f8be0079c531659141344cd1fd0a4f28419497f9722a3daafe3b4186f6b6457e09190a35050565b611d3a612375565b5f611d47845f0151612042565b602085015190915015611d6157611d618460200151612069565b7f00000000000000000000000000000000000000000000000000000000000000006001600160a01b0316632637a450826040518060a001604052808b63ffffffff168152602001611db18c61140f565b81526020018a81526020018981526020015f8960200151111515815250866040518463ffffffff1660e01b8152600401611dec92919061306a565b60806040518083038185885af1158015611e08573d5f803e3d5ffd5b50505050506040513d601f19601f82011682018060405250810190611e2d91906130e2565b979650505050505050565b60606040518060c00160405280876001600160a01b031681526020015f8152602001866001600160a01b03168152602001858152602001846001600160a01b0316815260200183815250604051602001611e929190612f60565b604051602081830303815290604052905095945050505050565b60606040518060600160405280306001600160a01b03168152602001620186a081526020016040518060a00160405280468152602001888152602001876001600160a01b0316815260200186815260200185815250604051602001611f119190613158565b60408051601f19818403018152918152915251611f3191906020016131a2565b6040516020818303038152906040529050949350505050565b6004546040515f9182916001600160a01b0390911690636ce4fe0390889060019084906203d090908790611f86908d908d908d906020016131d8565b6040516020818303038152906040526040518763ffffffff1660e01b8152600401611fb69695949392919061320d565b6040805180830381865afa158015611fd0573d5f803e3d5ffd5b505050506040513d601f19601f82011682018060405250810190611ff49190613258565b509695505050505050565b611213816040516024016120139190612fba565b60408051601f198184030181529190526020810180516001600160e01b031663104c13eb60e21b179052612148565b5f813414612065576040516304fb820960e51b815234600482015260240161073f565b5090565b5f7f00000000000000000000000000000000000000000000000000000000000000006001600160a01b031663e4fe1d946040518163ffffffff1660e01b8152600401602060405180830381865afa1580156120c6573d5f803e3d5ffd5b505050506040513d601f19601f820116820180604052508101906120ea919061327a565b90506001600160a01b038116612113576040516329b99a9560e11b815260040160405180910390fd5b6104a66001600160a01b038216337f000000000000000000000000000000000000000000000000000000000000000085612168565b80516a636f6e736f6c652e6c6f67602083015f808483855afa5050505050565b604080516001600160a01b0385811660248301528416604482015260648082018490528251808303909101815260849091019091526020810180516001600160e01b03166323b872dd60e01b1790526121c29085906121c8565b50505050565b5f6121dc6001600160a01b03841683612229565b905080515f141580156122005750808060200190518101906121fe9190612f00565b155b1561022f57604051635274afe760e01b81526001600160a01b038416600482015260240161073f565b606061223683835f61223d565b9392505050565b6060814710156122625760405163cd78605960e01b815230600482015260240161073f565b5f80856001600160a01b0316848660405161227d9190613295565b5f6040518083038185875af1925050503d805f81146122b7576040519150601f19603f3d011682016040523d82523d5f602084013e6122bc565b606091505b50915091506122cc8683836122d6565b9695505050505050565b6060826122eb576122e682612332565b612236565b815115801561230257506001600160a01b0384163b155b1561232b57604051639996b31560e01b81526001600160a01b038516600482015260240161073f565b5080612236565b8051156123425780518082602001fd5b604051630a12f52160e11b815260040160405180910390fd5b6119e2806132ac83390190565b610fca80614c8e83390190565b60405180606001604052805f80191681526020015f6001600160401b031681526020016123b360405180604001604052805f81526020015f81525090565b905290565b5f8083601f8401126123c8575f80fd5b5081356001600160401b038111156123de575f80fd5b6020830191508360206060830285010111156123f8575f80fd5b9250929050565b5f805f60408486031215612411575f80fd5b8335925060208401356001600160401b0381111561242d575f80fd5b612439868287016123b8565b9497909650939450505050565b5f606082840312156117a4575f80fd5b5f8083601f840112612466575f80fd5b5081356001600160401b0381111561247c575f80fd5b6020830191508360208285010111156123f8575f80fd5b6001600160a01b0381168114611213575f80fd5b5f805f805f805f60e0888a0312156124bd575f80fd5b6124c78989612446565b96506060880135955060808801356001600160401b03808211156124e9575f80fd5b6124f58b838c01612456565b909750955060a08a0135915061250a82612493565b90935060c0890135908082111561251f575f80fd5b5061252c8a828b01612456565b989b979a50959850939692959293505050565b5f805f805f8060608789031215612554575f80fd5b86356001600160401b038082111561256a575f80fd5b6125768a838b01612456565b9098509650602089013591508082111561258e575f80fd5b61259a8a838b01612456565b909650945060408901359150808211156125b2575f80fd5b506125bf89828a016123b8565b979a9699509497509295939492505050565b63ffffffff81168114611213575f80fd5b5f80604083850312156125f3575f80fd5b82356125fe816125d1565b946020939093013593505050565b634e487b7160e01b5f52604160045260245ffd5b604051608081016001600160401b03811182821017156126425761264261260c565b60405290565b604051606081016001600160401b03811182821017156126425761264261260c565b60405160a081016001600160401b03811182821017156126425761264261260c565b604080519081016001600160401b03811182821017156126425761264261260c565b604051601f8201601f191681016001600160401b03811182821017156126d6576126d661260c565b604052919050565b5f6001600160401b038211156126f6576126f661260c565b5060051b60200190565b5f6001600160401b038211156127185761271861260c565b50601f01601f191660200190565b5f82601f830112612735575f80fd5b813561274861274382612700565b6126ae565b81815284602083860101111561275c575f80fd5b816020850160208301375f918101602001919091529392505050565b5f82601f830112612787575f80fd5b81356020612797612743836126de565b82815260059290921b840181019181810190868411156127b5575f80fd5b8286015b84811015611ff45780356001600160401b038111156127d6575f80fd5b6127e48986838b0101612726565b8452509183019183016127b9565b5f805f8060808587031215612805575f80fd5b84359350602080860135935060408601356001600160401b038082111561282a575f80fd5b818801915088601f83011261283d575f80fd5b813561284b612743826126de565b81815260059190911b8301840190848101908b831115612869575f80fd5b938501935b828510156128875784358252938501939085019061286e565b96505050606088013592508083111561289e575f80fd5b50506128ac87828801612778565b91505092959194509250565b8015158114611213575f80fd5b5f602082840312156128d5575f80fd5b8135612236816128b8565b5f602082840312156128f0575f80fd5b813561223681612493565b5f806040838503121561290c575f80fd5b8235915060208301356001600160401b0380821115612929575f80fd5b908401906080828703121561293c575f80fd5b612944612620565b8235815260208301356020820152604083013561296081612493565b6040820152606083013582811115612976575f80fd5b61298288828601612726565b6060830152508093505050509250929050565b602080825282518282018190525f9190848201906040850190845b818110156129d55783516001600160a01b0316835292840192918401916001016129b0565b50909695505050505050565b5f602082840312156129f1575f80fd5b81356001600160401b03811115612a06575f80fd5b612a1284828501612726565b949350505050565b5f8060408385031215612a2b575f80fd5b8235612a3681612493565b91506020830135612a46816128b8565b809150509250929050565b5f60208284031215612a61575f80fd5b8135612236816125d1565b5f60208284031215612a7c575f80fd5b5035919050565b5f805f8060808587031215612a96575f80fd5b8435612aa181612493565b93506020850135612ab181612493565b92506040850135612ac181612493565b91506060850135612ad181612493565b939692955090935050565b5f60608284031215612aec575f80fd5b6122368383612446565b81835281816020850137505f828201602090810191909152601f909101601f19169091010190565b60a081525f612b3160a083018a8c612af6565b60208382036020850152612b46828a8c612af6565b848103604086810191909152888252899350906020015f5b89811015612b9e578435825283850135612b7781612493565b6001600160a01b031682850152848301358383015260609485019490910190600101612b5e565b506001600160a01b03881660608701529350612bb992505050565b6001600160a01b03831660808301529998505050505050505050565b634e487b7160e01b5f52601160045260245ffd5b5f60018201612bfa57612bfa612bd5565b5060010190565b5f60208284031215612c11575f80fd5b5051919050565b5f82601f830112612c27575f80fd5b8151612c3561274382612700565b818152846020838601011115612c49575f80fd5b8160208501602083015e5f918101602001919091529392505050565b5f60208284031215612c75575f80fd5b81516001600160401b0380821115612c8b575f80fd5b9083019060808286031215612c9e575f80fd5b612ca6612620565b82518152602083015160208201526040830151612cc281612493565b6040820152606083015182811115612cd8575f80fd5b612ce487828601612c18565b60608301525095945050505050565b5f6020808385031215612d04575f80fd5b82516001600160401b03811115612d19575f80fd5b8301601f81018513612d29575f80fd5b8051612d37612743826126de565b81815260609182028301840191848201919088841115612d55575f80fd5b938501935b83851015612da65780858a031215612d70575f80fd5b612d78612648565b8551815286860151612d8981612493565b818801526040868101519082015283529384019391850191612d5a565b50979650505050505050565b634e487b7160e01b5f52603260045260245ffd5b5f60208284031215612dd6575f80fd5b81516001600160401b0380821115612dec575f80fd5b9083019060a08286031215612dff575f80fd5b612e0761266a565b82518152602083015160208201526040830151612e2381612493565b604082015260608381015190820152608083015182811115612e43575f80fd5b612e4f87828601612c18565b60808301525095945050505050565b5f60808284031215612e6e575f80fd5b612e76612620565b8251815260208301516020820152604083015161ffff81168114612e98575f80fd5b60408201526060830151612eab816125d1565b60608201529392505050565b5f60408284031215612ec7575f80fd5b612ecf61268c565b823581526020830135612ee1816128b8565b60208201529392505050565b80820180821115610e5857610e58612bd5565b5f60208284031215612f10575f80fd5b8151612236816128b8565b8082028115828204841417610e5857610e58612bd5565b5f81518084528060208401602086015e5f602082860101526020601f19601f83011685010191505092915050565b602081525f60018060a01b0380845116602084015260208401516040840152806040850151166060840152606084015160808401528060808501511660a08401525060a083015160c080840152612a1260e0840182612f32565b602081525f6122366020830184612f32565b6080815261ffff60f01b85511660808201525f602086015160018060a01b0380821660a08501528060408901511660c0850152606088015160e085015280608089015116610100850152505060a086015160c0610120840152613033610140840182612f32565b6001600160a01b0387166020850152905082810360408401526130568186612f32565b90508281036060840152611e2d8185612f32565b6040815263ffffffff8351166040820152602083015160608201525f604084015160a0608084015261309f60e0840182612f32565b90506060850151603f198483030160a08501526130bc8282612f32565b60809690960151151560c08501525050506001600160a01b039190911660209091015290565b5f81830360808112156130f3575f80fd5b6130fb612648565b8351815260208401516001600160401b0381168114613118575f80fd5b60208201526040603f198301121561312e575f80fd5b61313661268c565b6040858101518252606090950151602082015293810193909352509092915050565b60208152815160208201526020820151604082015260018060a01b036040830151166060820152606082015160808201525f608083015160a080840152612a1260c0840182612f32565b6020815260018060a01b038251166020820152602082015160408201525f6040830151606080840152612a126080840182612f32565b6001600160a01b03841681526060602082018190525f906131fb90830185612f32565b82810360408401526122cc8185612f32565b61ffff8716815260ff8616602082015260018060a01b038516604082015283606082015282608082015260c060a08201525f61324c60c0830184612f32565b98975050505050505050565b5f8060408385031215613269575f80fd5b505080516020909101519092909150565b5f6020828403121561328a575f80fd5b815161223681612493565b5f82518060208501845e5f92019182525091905056fe608060405234801561000f575f80fd5b506040516119e23803806119e283398101604081905261002e916101f4565b8484600361003c83826103b0565b50600461004982826103b0565b5050600580546001600160a01b038086166001600160a01b0319928316179092556006805492851692909116919091179055505f5b83518110156100f757600784828151811061009b5761009b61046f565b6020908102919091018101518254600180820185555f9485529383902082516003909202019081559181015182840180546001600160a01b0319166001600160a01b03909216919091179055604001516002909101550161007e565b505050505050610483565b634e487b7160e01b5f52604160045260245ffd5b604051606081016001600160401b038111828210171561013857610138610102565b60405290565b604051601f8201601f191681016001600160401b038111828210171561016657610166610102565b604052919050565b5f82601f83011261017d575f80fd5b81516001600160401b0381111561019657610196610102565b6101a9601f8201601f191660200161013e565b8181528460208386010111156101bd575f80fd5b8160208501602083015e5f918101602001919091529392505050565b80516001600160a01b03811681146101ef575f80fd5b919050565b5f805f805f60a08688031215610208575f80fd5b85516001600160401b038082111561021e575f80fd5b61022a89838a0161016e565b9650602091508188015181811115610240575f80fd5b61024c8a828b0161016e565b96505060408089015182811115610261575f80fd5b8901601f81018b13610271575f80fd5b80518381111561028357610283610102565b610291858260051b0161013e565b8181528581019450606091820283018601918d8311156102af575f80fd5b928601925b828410156102fc5780848f0312156102ca575f80fd5b6102d2610116565b845181526102e18886016101d9565b818901528486015186820152865294860194928301926102b4565b50809850505050505050610312606087016101d9565b9150610320608087016101d9565b90509295509295909350565b600181811c9082168061034057607f821691505b60208210810361035e57634e487b7160e01b5f52602260045260245ffd5b50919050565b601f8211156103ab57805f5260205f20601f840160051c810160208510156103895750805b601f840160051c820191505b818110156103a8575f8155600101610395565b50505b505050565b81516001600160401b038111156103c9576103c9610102565b6103dd816103d7845461032c565b84610364565b602080601f831160018114610410575f84156103f95750858301515b5f19600386901b1c1916600185901b178555610467565b5f85815260208120601f198616915b8281101561043e5788860151825594840194600190910190840161041f565b508582101561045b57878501515f19600388901b60f8161c191681555b505060018460011b0185555b505050505050565b634e487b7160e01b5f52603260045260245ffd5b611552806104905f395ff3fe608060405234801561000f575f80fd5b5060043610610187575f3560e01c806395d89b41116100d9578063db006a7511610093578063f01648f81161006e578063f01648f814610361578063f4c76363146103c7578063fe206292146103da578063fe74748e14610361575f80fd5b8063db006a7514610374578063dd62ed3e14610387578063e02b79f9146103bf575f80fd5b806395d89b41146102ea57806399fbab88146102f2578063a2ce9c1f14610328578063a9059cbb1461033b578063a9edf1f61461034e578063ba90600014610361575f80fd5b806323b872dd1161014457806356dc63cb1161011f57806356dc63cb146102775780636b9691a11461029a57806370a08231146102ad57806380275860146102d5575f80fd5b806323b872dd1461022a5780633013ce291461023d578063313ce56714610268575f80fd5b806306fdde031461018b578063095ea7b3146101a95780630b2b8e35146101cc57806318160ddd146101ed5780631ddc8f6d146101f55780631fc5846b14610215575b5f80fd5b6101936103ed565b6040516101a09190610e9e565b60405180910390f35b6101bc6101b7366004610ed2565b61047d565b60405190151581526020016101a0565b6101df6101da366004611042565b610496565b6040519081526020016101a0565b6002546101df565b6102086102033660046110ff565b610745565b6040516101a09190611116565b6101df61022336600461115e565b5f92915050565b6101bc6102383660046111cd565b61083f565b600554610250906001600160a01b031681565b6040516001600160a01b0390911681526020016101a0565b604051601281526020016101a0565b61028a6102853660046110ff565b610862565b6040516101a09493929190611206565b61028a6102a83660046110ff565b61091c565b6101df6102bb36600461123c565b6001600160a01b03165f9081526020819052604090205490565b6102dd610955565b6040516101a09190611255565b6101936109d5565b6103056103003660046110ff565b6109e4565b604080519384526001600160a01b039092166020840152908201526060016101a0565b6102086103363660046110ff565b610a21565b6101bc610349366004610ed2565b610a94565b61028a61035c3660046110ff565b610aa1565b61037261036f3660046110ff565b50565b005b6101df6103823660046110ff565b505f90565b6101df6103953660046112b6565b6001600160a01b039182165f90815260016020908152604080832093909416825291909152205490565b6007546101df565b600654610250906001600160a01b031681565b6102086103e83660046110ff565b610ada565b6060600380546103fc906112e7565b80601f0160208091040260200160405190810160405280929190818152602001828054610428906112e7565b80156104735780601f1061044a57610100808354040283529160200191610473565b820191905f5260205f20905b81548152906001019060200180831161045657829003601f168201915b5050505050905090565b5f3361048a818585610b4d565b60019150505b92915050565b5f8084116105025760405162461bcd60e51b815260206004820152602e60248201527f536c696365546f6b656e3a20536c69636520746f6b656e207175616e7469747960448201526d2063616e2774206265207a65726f60901b60648201526084015b60405180910390fd5b8151835114801561051557506007548351145b61057b5760405162461bcd60e51b815260206004820152603160248201527f536c696365546f6b656e3a20496e636f7272656374206c656e67746820666f7260448201527020707269636573206f7220726f7574657360781b60648201526084016104f9565b5f61058584610b5f565b6005546006546040516323b872dd60e01b81523360048201526001600160a01b0391821660248201526044810184905292935016906323b872dd906064016020604051808303815f875af11580156105df573d5f803e3d5ffd5b505050506040513d601f19601f820116820180604052508101906106039190611319565b506040516bffffffffffffffffffffffff1933606090811b8216602084015230901b16603482015260488101869052606881018290524260888201525f9060a80160408051808303601f1901815282825280516020918201206080840183528084528184018a815233858501908152845180850186525f80825260608801918252848152600890955294909320855181559051600182015591516002830180546001600160a01b0319166001600160a01b039092169190911790559151919350829160038201906106d49082611383565b5050600654604051630e84d55560e21b81526001600160a01b039091169150633a1355549061070d9085908b908b908b90600401611443565b5f604051808303815f87803b158015610724575f80fd5b505af1158015610736573d5f803e3d5ffd5b50939998505050505050505050565b60408051608080820183525f808352602080840182905283850182905260608085018190528683526009825291859020855193840186528054845260018101549184019190915260028101546001600160a01b03169483019490945260038401805493949293918401916107b8906112e7565b80601f01602080910402602001604051908101604052809291908181526020018280546107e4906112e7565b801561082f5780601f106108065761010080835404028352916020019161082f565b820191905f5260205f20905b81548152906001019060200180831161081257829003601f168201915b5050505050815250509050919050565b5f3361084c858285610ba0565b610857858585610c1b565b506001949350505050565b60086020525f90815260409020805460018201546002830154600384018054939492936001600160a01b03909216929161089b906112e7565b80601f01602080910402602001604051908101604052809291908181526020018280546108c7906112e7565b80156109125780601f106108e957610100808354040283529160200191610912565b820191905f5260205f20905b8154815290600101906020018083116108f557829003601f168201915b5050505050905084565b600a6020525f90815260409020805460018201546002830154600384018054939492936001600160a01b03909216929161089b906112e7565b60606007805480602002602001604051908101604052809291908181526020015f905b828210156109cc575f8481526020908190206040805160608101825260038602909201805483526001808201546001600160a01b031684860152600290910154918301919091529083529092019101610978565b50505050905090565b6060600480546103fc906112e7565b600781815481106109f3575f80fd5b5f9182526020909120600390910201805460018201546002909201549092506001600160a01b039091169083565b60408051608080820183525f808352602080840182905283850182905260608085018190528683526008825291859020855193840186528054845260018101549184019190915260028101546001600160a01b03169483019490945260038401805493949293918401916107b8906112e7565b5f3361048a818585610c1b565b60096020525f90815260409020805460018201546002830154600384018054939492936001600160a01b03909216929161089b906112e7565b60408051608080820183525f80835260208084018290528385018290526060808501819052868352600a825291859020855193840186528054845260018101549184019190915260028101546001600160a01b03169483019490945260038401805493949293918401916107b8906112e7565b610b5a8383836001610c78565b505050565b5f805b8251811015610b9a57828181518110610b7d57610b7d6114e9565b602002602001015182610b9091906114fd565b9150600101610b62565b50919050565b6001600160a01b038381165f908152600160209081526040808320938616835292905220545f198114610c155781811015610c0757604051637dc7a0d960e11b81526001600160a01b038416600482015260248101829052604481018390526064016104f9565b610c1584848484035f610c78565b50505050565b6001600160a01b038316610c4457604051634b637e8f60e11b81525f60048201526024016104f9565b6001600160a01b038216610c6d5760405163ec442f0560e01b81525f60048201526024016104f9565b610b5a838383610d4a565b6001600160a01b038416610ca15760405163e602df0560e01b81525f60048201526024016104f9565b6001600160a01b038316610cca57604051634a1406b160e11b81525f60048201526024016104f9565b6001600160a01b038085165f9081526001602090815260408083209387168352929052208290558015610c1557826001600160a01b0316846001600160a01b03167f8c5be1e5ebec7d5bd14f71427d1e84f3dd0314c0f7b2291e5b200ac8c7c3b92584604051610d3c91815260200190565b60405180910390a350505050565b6001600160a01b038316610d74578060025f828254610d6991906114fd565b90915550610de49050565b6001600160a01b0383165f9081526020819052604090205481811015610dc65760405163391434e360e21b81526001600160a01b038516600482015260248101829052604481018390526064016104f9565b6001600160a01b0384165f9081526020819052604090209082900390555b6001600160a01b038216610e0057600280548290039055610e1e565b6001600160a01b0382165f9081526020819052604090208054820190555b816001600160a01b0316836001600160a01b03167fddf252ad1be2c89b69c2b068fc378daa952ba7f163c4a11628f55a4df523b3ef83604051610e6391815260200190565b60405180910390a3505050565b5f81518084528060208401602086015e5f602082860101526020601f19601f83011685010191505092915050565b602081525f610eb06020830184610e70565b9392505050565b80356001600160a01b0381168114610ecd575f80fd5b919050565b5f8060408385031215610ee3575f80fd5b610eec83610eb7565b946020939093013593505050565b634e487b7160e01b5f52604160045260245ffd5b604051601f8201601f1916810167ffffffffffffffff81118282101715610f3757610f37610efa565b604052919050565b5f67ffffffffffffffff821115610f5857610f58610efa565b5060051b60200190565b5f601f83601f840112610f73575f80fd5b82356020610f88610f8383610f3f565b610f0e565b82815260059290921b85018101918181019087841115610fa6575f80fd5b8287015b8481101561103657803567ffffffffffffffff80821115610fc9575f80fd5b818a0191508a603f830112610fdc575f80fd5b85820135604082821115610ff257610ff2610efa565b611003828b01601f19168901610f0e565b92508183528c81838601011115611018575f80fd5b8181850189850137505f908201870152845250918301918301610faa565b50979650505050505050565b5f805f60608486031215611054575f80fd5b8335925060208085013567ffffffffffffffff80821115611073575f80fd5b818701915087601f830112611086575f80fd5b8135611094610f8382610f3f565b81815260059190911b8301840190848101908a8311156110b2575f80fd5b938501935b828510156110d0578435825293850193908501906110b7565b9650505060408701359250808311156110e7575f80fd5b50506110f586828701610f62565b9150509250925092565b5f6020828403121561110f575f80fd5b5035919050565b60208152815160208201526020820151604082015260018060a01b0360408301511660608201525f606083015160808084015261115660a0840182610e70565b949350505050565b5f806020838503121561116f575f80fd5b823567ffffffffffffffff80821115611186575f80fd5b818501915085601f830112611199575f80fd5b8135818111156111a7575f80fd5b8660206060830285010111156111bb575f80fd5b60209290920196919550909350505050565b5f805f606084860312156111df575f80fd5b6111e884610eb7565b92506111f660208501610eb7565b9150604084013590509250925092565b84815283602082015260018060a01b0383166040820152608060608201525f6112326080830184610e70565b9695505050505050565b5f6020828403121561124c575f80fd5b610eb082610eb7565b602080825282518282018190525f919060409081850190868401855b828110156112a957815180518552868101516001600160a01b0316878601528501518585015260609093019290850190600101611271565b5091979650505050505050565b5f80604083850312156112c7575f80fd5b6112d083610eb7565b91506112de60208401610eb7565b90509250929050565b600181811c908216806112fb57607f821691505b602082108103610b9a57634e487b7160e01b5f52602260045260245ffd5b5f60208284031215611329575f80fd5b81518015158114610eb0575f80fd5b601f821115610b5a57805f5260205f20601f840160051c8101602085101561135d5750805b601f840160051c820191505b8181101561137c575f8155600101611369565b5050505050565b815167ffffffffffffffff81111561139d5761139d610efa565b6113b1816113ab84546112e7565b84611338565b602080601f8311600181146113e4575f84156113cd5750858301515b5f19600386901b1c1916600185901b17855561143b565b5f85815260208120601f198616915b82811015611412578886015182559484019460019091019084016113f3565b508582101561142f57878501515f19600388901b60f8161c191681555b505060018460011b0185555b505050505050565b5f60808201868352602086818501526080604085015281865180845260a08601915082880193505f5b818110156114885784518352938301939183019160010161146c565b5050848103606086015285518082528282019350600581901b820183018388015f5b838110156114d857601f198584030187526114c6838351610e70565b968601969250908501906001016114aa565b50909b9a5050505050505050505050565b634e487b7160e01b5f52603260045260245ffd5b8082018082111561049057634e487b7160e01b5f52601160045260245ffdfea26469706673582212209ed9e73c1eb714b2c08b3f98a685189504e2c8b59526b3c62cad1ef4c298d5a664736f6c63430008190033608060405234801561000f575f80fd5b50338061003557604051631e4fbdf760e01b81525f600482015260240160405180910390fd5b61003e81610a6b565b5060405180608001604052806001815260200161008060405180604001604052806008815260200167457468657265756d60c01b815250610aba60201b60201c565b8152606560208083019190915261759560409283015260015f819052815282517fcc69885fda6bcc1a4ace058b4a62bf5e179ea78fd58a1ccd71c22cc9b688792f55828101517fcc69885fda6bcc1a4ace058b4a62bf5e179ea78fd58a1ccd71c22cc9b688793055828201517fcc69885fda6bcc1a4ace058b4a62bf5e179ea78fd58a1ccd71c22cc9b6887931805460609095015163ffffffff16620100000265ffffffffffff1990951661ffff9290921691909117939093179092558051608081018252603881528151808301909252600782526662696e616e636560c81b828401529182019061017190610aba565b8152606660208083019190915261759660409283015260385f526001815282517fb607cc36270bbbb376b98f602ec3a5ec6c4fe7cf0d42af35fd17a642242d24fd55828101517fb607cc36270bbbb376b98f602ec3a5ec6c4fe7cf0d42af35fd17a642242d24fe55828201517fb607cc36270bbbb376b98f602ec3a5ec6c4fe7cf0d42af35fd17a642242d24ff805460609095015163ffffffff16620100000265ffffffffffff1990951661ffff929092169190911793909317909255805160808101825261a86a8152815180830190925260098252684176616c616e63686560b81b828401529182019061026590610aba565b8152606a60208083019190915261759a60409283015261a86a5f526001815282517f2ac81f2b713aaab96f9745f662118839b87e598b16aa16440b4be604c915e1aa55828101517f2ac81f2b713aaab96f9745f662118839b87e598b16aa16440b4be604c915e1ab55828201517f2ac81f2b713aaab96f9745f662118839b87e598b16aa16440b4be604c915e1ac805460609095015163ffffffff16620100000265ffffffffffff1990951661ffff929092169190911793909317909255805160808101825260898152815180830190925260078252662837b63cb3b7b760c91b828401529182019061035790610aba565b8152606d60208083019190915261759d60409283015260895f526001815282517f2bda5adf664a0c31bf9134cad8d937629fcee52b9cefd545e0c716efa1202a5155828101517f2bda5adf664a0c31bf9134cad8d937629fcee52b9cefd545e0c716efa1202a5255828201517f2bda5adf664a0c31bf9134cad8d937629fcee52b9cefd545e0c716efa1202a53805460609095015163ffffffff16620100000265ffffffffffff1990951661ffff929092169190911793909317909255805160808101825261a4b1815281518083019092526008825267617262697472756d60c01b828401529182019061044a90610aba565b8152606e60208083019190915261759e60409283015261a4b15f526001815282517f205bae445d323d41c2a70638ff83cb0c4359544903850978ded8943e052cf97355828101517f205bae445d323d41c2a70638ff83cb0c4359544903850978ded8943e052cf97455828201517f205bae445d323d41c2a70638ff83cb0c4359544903850978ded8943e052cf975805460609095015163ffffffff16620100000265ffffffffffff1990951661ffff9290921691909117939093179092558051608081018252600a8152815180830190925260088252676f7074696d69736d60c01b828401529182019061053d90610aba565b8152606f60208083019190915261759f604092830152600a5f526001815282517f2a32391a76c35a36352b711f9152c0d0a340cd686850c8ef25fbb11c71b89e7b55828101517f2a32391a76c35a36352b711f9152c0d0a340cd686850c8ef25fbb11c71b89e7c55828201517f2a32391a76c35a36352b711f9152c0d0a340cd686850c8ef25fbb11c71b89e7d805460609095015163ffffffff16620100000265ffffffffffff1990951661ffff92909216919091179390931790925580516080810182526121058152815180830190925260048252636261736560e01b828401529182019061062c90610aba565b815260b86020808301919091526175e86040928301526121055f526001815282517fb60096399359af1e390f4ccad595eafc702d6489db902b1fd8607f3867d438e155828101517fb60096399359af1e390f4ccad595eafc702d6489db902b1fd8607f3867d438e255828201517fb60096399359af1e390f4ccad595eafc702d6489db902b1fd8607f3867d438e3805460609095015163ffffffff16620100000265ffffffffffff1990951661ffff929092169190911793909317909255805160808101825260fa81528151808301909252600682526546616e746f6d60d01b828401529182019061071d90610aba565b815260706020808301919091526175a060409283015260fa5f526001815282517fad014ecf9ca62e1a5436b1db3a59382cedbe7e40d58bf51cb87ccc098bbd86a455828101517fad014ecf9ca62e1a5436b1db3a59382cedbe7e40d58bf51cb87ccc098bbd86a555828201517fad014ecf9ca62e1a5436b1db3a59382cedbe7e40d58bf51cb87ccc098bbd86a6805460609095015163ffffffff16620100000265ffffffffffff1990951661ffff929092169190911793909317909255805160808101825261e7088152815180830190925260058252646c696e656160d81b828401529182019061080d90610aba565b815260b76020808301919091526175e760409283015261e7085f526001815282517fa2b372b1449eba5efee2cfe28e7beb7c3a128b92ca5f8a845f77bd7fdc4082ba55828101517fa2b372b1449eba5efee2cfe28e7beb7c3a128b92ca5f8a845f77bd7fdc4082bb55828201517fa2b372b1449eba5efee2cfe28e7beb7c3a128b92ca5f8a845f77bd7fdc4082bc805460609095015163ffffffff16620100000265ffffffffffff1990951661ffff92909216919091179390931790925580516080810182526108ae8152815180830190925260048252636b61766160e01b82840152918201906108fd90610aba565b815260b16020808301919091526175e16040928301526108ae5f908152600180835284517f10b548591a6afba595076624b083c0ed2fafdb163b263c7cb677fb4b55827bdd55848301517f10b548591a6afba595076624b083c0ed2fafdb163b263c7cb677fb4b55827bde55848401517f10b548591a6afba595076624b083c0ed2fafdb163b263c7cb677fb4b55827bdf805460609788015163ffffffff9081166201000090810265ffffffffffff1993841661ffff9687161717909355875160808101895261044080825281890188815260979a83019a8b526175c79b83019b8c5297529490965292517e2b16a72b26571c9c5b2c4ff0f7b2d2c355a0d76b29784f2ed8e7cc9d463f6d5592517e2b16a72b26571c9c5b2c4ff0f7b2d2c355a0d76b29784f2ed8e7cc9d463f6e5593517e2b16a72b26571c9c5b2c4ff0f7b2d2c355a0d76b29784f2ed8e7cc9d463f6f805496519094169092029416921691909117919091179055610b2a565b5f80546001600160a01b038381166001600160a01b0319831681178455604051919092169283917f8be0079c531659141344cd1fd0a4f28419497f9722a3daafe3b4186f6b6457e09190a35050565b80515f9082901580610acd5750601f8151115b15610aeb57604051638dc6ac0160e01b815260040160405180910390fd5b5f610af582610b04565b915160ff169091179392505050565b80516020808301519190811015610b24575f198160200360031b1b821691505b50919050565b61049380610b375f395ff3fe608060405234801561000f575f80fd5b5060043610610060575f3560e01c8063550325b514610064578063715018a6146100dc578063804ea334146100e65780638da5cb5b146101a2578063deaa66b0146101bc578063f2fde38b146101cf575b5f80fd5b6100a361007236600461037e565b600160208190525f918252604090912080549181015460029091015461ffff81169062010000900463ffffffff1684565b6040516100d39493929190938452602084019290925261ffff16604083015263ffffffff16606082015260800190565b60405180910390f35b6100e46101e2565b005b6101656100f436600461037e565b604080516080810182525f808252602082018190529181018290526060810191909152505f9081526001602081815260409283902083516080810185528154815292810154918301919091526002015461ffff8116928201929092526201000090910463ffffffff16606082015290565b6040516100d39190815181526020808301519082015260408083015161ffff169082015260609182015163ffffffff169181019190915260800190565b5f546040516001600160a01b0390911681526020016100d3565b6100e46101ca3660046103ad565b6101f5565b6100e46101dd366004610430565b6102c6565b6101ea610303565b6101f35f61032f565b565b6101fd610303565b80515f908152600160205260409020541561026b5760405162461bcd60e51b815260206004820152602360248201527f436861696e496e666f3a20436861696e20616c726561647920726567697374656044820152621c995960ea1b60648201526084015b60405180910390fd5b80515f90815260016020818152604092839020845181559084015191810191909155908201516002909101805460609093015163ffffffff16620100000265ffffffffffff1990931661ffff90921691909117919091179055565b6102ce610303565b6001600160a01b0381166102f757604051631e4fbdf760e01b81525f6004820152602401610262565b6103008161032f565b50565b5f546001600160a01b031633146101f35760405163118cdaa760e01b8152336004820152602401610262565b5f80546001600160a01b038381166001600160a01b0319831681178455604051919092169283917f8be0079c531659141344cd1fd0a4f28419497f9722a3daafe3b4186f6b6457e09190a35050565b5f6020828403121561038e575f80fd5b5035919050565b803563ffffffff811681146103a8575f80fd5b919050565b5f608082840312156103bd575f80fd5b6040516080810181811067ffffffffffffffff821117156103ec57634e487b7160e01b5f52604160045260245ffd5b80604052508235815260208301356020820152604083013561ffff81168114610413575f80fd5b604082015261042460608401610395565b60608201529392505050565b5f60208284031215610440575f80fd5b81356001600160a01b0381168114610456575f80fd5b939250505056fea26469706673582212206465567be35747c3090e82f75d0bf4176557d34d2f06e47334ac76a7628b955164736f6c63430008190033a26469706673582212202e1b44407cb987e0dca14ec64b02858bc73aee08441e8692ff272a336a325f2d64736f6c63430008190033a2646970667358221220c56bb03939f730935b662957533c7a70d257dce1d13713a5a586e52c1e1ded3864736f6c63430008190033",
			"opcodes": "PUSH1 0x80 PUSH1 0x40 MSTORE CALLVALUE DUP1 ISZERO PUSH1 0xE JUMPI PUSH0 DUP1 REVERT JUMPDEST POP PUSH2 0x5F74 DUP1 PUSH2 0x1C PUSH0 CODECOPY PUSH0 RETURN INVALID PUSH1 0x80 PUSH1 0x40 MSTORE CALLVALUE DUP1 ISZERO PUSH2 0xF JUMPI PUSH0 DUP1 REVERT JUMPDEST POP PUSH1 0x4 CALLDATASIZE LT PUSH2 0x29 JUMPI PUSH0 CALLDATALOAD PUSH1 0xE0 SHR DUP1 PUSH4 0x7FDE56DA EQ PUSH2 0x2D JUMPI JUMPDEST PUSH0 DUP1 REVERT JUMPDEST PUSH2 0x40 PUSH2 0x3B CALLDATASIZE PUSH1 0x4 PUSH2 0xFD JUMP JUMPDEST PUSH2 0x5C JUMP JUMPDEST PUSH1 0x40 MLOAD PUSH1 0x1 PUSH1 0x1 PUSH1 0xA0 SHL SUB SWAP1 SWAP2 AND DUP2 MSTORE PUSH1 0x20 ADD PUSH1 0x40 MLOAD DUP1 SWAP2 SUB SWAP1 RETURN JUMPDEST PUSH0 PUSH2 0xAE DUP3 PUSH1 0x40 MLOAD DUP1 PUSH1 0x20 ADD PUSH2 0x71 SWAP1 PUSH2 0xF0 JUMP JUMPDEST PUSH1 0x1F NOT DUP3 DUP3 SUB DUP2 ADD DUP4 MSTORE PUSH1 0x1F SWAP1 SWAP2 ADD AND PUSH1 0x40 DUP2 SWAP1 MSTORE PUSH2 0x93 SWAP2 SWAP1 PUSH1 0x20 ADD PUSH2 0x114 JUMP JUMPDEST PUSH1 0x40 MLOAD PUSH1 0x20 DUP2 DUP4 SUB SUB DUP2 MSTORE SWAP1 PUSH1 0x40 MSTORE DUP1 MLOAD SWAP1 PUSH1 0x20 ADD KECCAK256 PUSH2 0xB4 JUMP JUMPDEST SWAP3 SWAP2 POP POP JUMP JUMPDEST PUSH0 PUSH2 0xC0 DUP4 DUP4 ADDRESS PUSH2 0xC7 JUMP JUMPDEST SWAP4 SWAP3 POP POP POP JUMP JUMPDEST PUSH0 PUSH1 0x40 MLOAD DUP4 PUSH1 0x40 DUP3 ADD MSTORE DUP5 PUSH1 0x20 DUP3 ADD MSTORE DUP3 DUP2 MSTORE PUSH1 0xB DUP2 ADD SWAP1 POP PUSH1 0xFF DUP2 MSTORE8 PUSH1 0x55 SWAP1 KECCAK256 SWAP5 SWAP4 POP POP POP POP JUMP JUMPDEST PUSH2 0x5E14 DUP1 PUSH2 0x12B DUP4 CODECOPY ADD SWAP1 JUMP JUMPDEST PUSH0 PUSH1 0x20 DUP3 DUP5 SUB SLT ISZERO PUSH2 0x10D JUMPI PUSH0 DUP1 REVERT JUMPDEST POP CALLDATALOAD SWAP2 SWAP1 POP JUMP JUMPDEST PUSH0 DUP3 MLOAD DUP1 PUSH1 0x20 DUP6 ADD DUP5 MCOPY PUSH0 SWAP3 ADD SWAP2 DUP3 MSTORE POP SWAP2 SWAP1 POP JUMP INVALID PUSH1 0xC0 PUSH1 0x40 MSTORE PUSH20 0x6EDCE65403992E310A62460808C4B910D972F10F PUSH1 0xA0 MSTORE CALLVALUE DUP1 ISZERO PUSH2 0x27 JUMPI PUSH0 DUP1 REVERT JUMPDEST POP PUSH1 0xA0 MLOAD CALLER DUP2 DUP2 DUP1 DUP1 PUSH2 0x53 JUMPI PUSH1 0x40 MLOAD PUSH4 0x1E4FBDF7 PUSH1 0xE0 SHL DUP2 MSTORE PUSH0 PUSH1 0x4 DUP3 ADD MSTORE PUSH1 0x24 ADD PUSH1 0x40 MLOAD DUP1 SWAP2 SUB SWAP1 REVERT JUMPDEST PUSH2 0x5C DUP2 PUSH2 0xED JUMP JUMPDEST POP PUSH1 0x1 PUSH1 0x1 PUSH1 0xA0 SHL SUB DUP1 DUP4 AND PUSH1 0x80 MSTORE DUP2 AND PUSH2 0x8A JUMPI PUSH1 0x40 MLOAD PUSH4 0x2D618D81 PUSH1 0xE2 SHL DUP2 MSTORE PUSH1 0x4 ADD PUSH1 0x40 MLOAD DUP1 SWAP2 SUB SWAP1 REVERT JUMPDEST PUSH1 0x80 MLOAD PUSH1 0x40 MLOAD PUSH4 0xCA5EB5E1 PUSH1 0xE0 SHL DUP2 MSTORE PUSH1 0x1 PUSH1 0x1 PUSH1 0xA0 SHL SUB DUP4 DUP2 AND PUSH1 0x4 DUP4 ADD MSTORE SWAP1 SWAP2 AND SWAP1 PUSH4 0xCA5EB5E1 SWAP1 PUSH1 0x24 ADD PUSH0 PUSH1 0x40 MLOAD DUP1 DUP4 SUB DUP2 PUSH0 DUP8 DUP1 EXTCODESIZE ISZERO DUP1 ISZERO PUSH2 0xCE JUMPI PUSH0 DUP1 REVERT JUMPDEST POP GAS CALL ISZERO DUP1 ISZERO PUSH2 0xE0 JUMPI RETURNDATASIZE PUSH0 DUP1 RETURNDATACOPY RETURNDATASIZE PUSH0 REVERT JUMPDEST POP POP POP POP POP POP POP POP PUSH2 0x13C JUMP JUMPDEST PUSH0 DUP1 SLOAD PUSH1 0x1 PUSH1 0x1 PUSH1 0xA0 SHL SUB DUP4 DUP2 AND PUSH1 0x1 PUSH1 0x1 PUSH1 0xA0 SHL SUB NOT DUP4 AND DUP2 OR DUP5 SSTORE PUSH1 0x40 MLOAD SWAP2 SWAP1 SWAP3 AND SWAP3 DUP4 SWAP2 PUSH32 0x8BE0079C531659141344CD1FD0A4F28419497F9722A3DAAFE3B4186F6B6457E0 SWAP2 SWAP1 LOG3 POP POP JUMP JUMPDEST PUSH1 0x80 MLOAD PUSH1 0xA0 MLOAD PUSH2 0x5C8D PUSH2 0x187 PUSH0 CODECOPY PUSH0 DUP2 DUP2 PUSH2 0x50E ADD MSTORE PUSH2 0x1455 ADD MSTORE PUSH0 DUP2 DUP2 PUSH2 0x38E ADD MSTORE DUP2 DUP2 PUSH2 0x6FA ADD MSTORE DUP2 DUP2 PUSH2 0x1157 ADD MSTORE DUP2 DUP2 PUSH2 0x1D63 ADD MSTORE DUP2 DUP2 PUSH2 0x206C ADD MSTORE PUSH2 0x2123 ADD MSTORE PUSH2 0x5C8D PUSH0 RETURN INVALID PUSH1 0x80 PUSH1 0x40 MSTORE PUSH1 0x4 CALLDATASIZE LT PUSH2 0x20A JUMPI PUSH0 CALLDATALOAD PUSH1 0xE0 SHR DUP1 PUSH4 0x952159FB GT PUSH2 0x113 JUMPI DUP1 PUSH4 0xD1E90A7C GT PUSH2 0x9D JUMPI DUP1 PUSH4 0xECF7A79D GT PUSH2 0x6D JUMPI DUP1 PUSH4 0xECF7A79D EQ PUSH2 0x64E JUMPI DUP1 PUSH4 0xF2FDE38B EQ PUSH2 0x67C JUMPI DUP1 PUSH4 0xF476B41A EQ PUSH2 0x69B JUMPI DUP1 PUSH4 0xF8C8765E EQ PUSH2 0x6BA JUMPI DUP1 PUSH4 0xFF7BD03D EQ PUSH2 0x6D9 JUMPI PUSH0 DUP1 REVERT JUMPDEST DUP1 PUSH4 0xD1E90A7C EQ PUSH2 0x5AB JUMPI DUP1 PUSH4 0xD8078B8A EQ PUSH2 0x5CA JUMPI DUP1 PUSH4 0xDBF0B01A EQ PUSH2 0x5E9 JUMPI DUP1 PUSH4 0xEAD4C477 EQ PUSH2 0x620 JUMPI PUSH0 DUP1 REVERT JUMPDEST DUP1 PUSH4 0xB353AAA7 GT PUSH2 0xE3 JUMPI DUP1 PUSH4 0xB353AAA7 EQ PUSH2 0x4FD JUMPI DUP1 PUSH4 0xB92D0EFF EQ PUSH2 0x530 JUMPI DUP1 PUSH4 0xBB0B6A53 EQ PUSH2 0x542 JUMPI DUP1 PUSH4 0xC06AC447 EQ PUSH2 0x56D JUMPI DUP1 PUSH4 0xCA5EB5E1 EQ PUSH2 0x58C JUMPI PUSH0 DUP1 REVERT JUMPDEST DUP1 PUSH4 0x952159FB EQ PUSH2 0x48C JUMPI DUP1 PUSH4 0x982C26D4 EQ PUSH2 0x4AA JUMPI DUP1 PUSH4 0xA6AC3DB6 EQ PUSH2 0x4CB JUMPI DUP1 PUSH4 0xA7DBB845 EQ PUSH2 0x4DE JUMPI PUSH0 DUP1 REVERT JUMPDEST DUP1 PUSH4 0x3A3E8443 GT PUSH2 0x194 JUMPI DUP1 PUSH4 0x6E3F5447 GT PUSH2 0x164 JUMPI DUP1 PUSH4 0x6E3F5447 EQ PUSH2 0x3CF JUMPI DUP1 PUSH4 0x715018A6 EQ PUSH2 0x3EE JUMPI DUP1 PUSH4 0x7D25A05E EQ PUSH2 0x402 JUMPI DUP1 PUSH4 0x8DA5CB5B EQ PUSH2 0x439 JUMPI DUP1 PUSH4 0x8FB84F31 EQ PUSH2 0x455 JUMPI PUSH0 DUP1 REVERT JUMPDEST DUP1 PUSH4 0x3A3E8443 EQ PUSH2 0x34A JUMPI DUP1 PUSH4 0x5609B29D EQ PUSH2 0x368 JUMPI DUP1 PUSH4 0x5E280F11 EQ PUSH2 0x37D JUMPI DUP1 PUSH4 0x628CDA6D EQ PUSH2 0x3B0 JUMPI PUSH0 DUP1 REVERT JUMPDEST DUP1 PUSH4 0x2CDCD190 GT PUSH2 0x1DA JUMPI DUP1 PUSH4 0x2CDCD190 EQ PUSH2 0x2A5 JUMPI DUP1 PUSH4 0x3013CE29 EQ PUSH2 0x2CE JUMPI DUP1 PUSH4 0x31263AE1 EQ PUSH2 0x2ED JUMPI DUP1 PUSH4 0x3400288B EQ PUSH2 0x30C JUMPI DUP1 PUSH4 0x3A135554 EQ PUSH2 0x32B JUMPI PUSH0 DUP1 REVERT JUMPDEST DUP1 PUSH4 0x993035C EQ PUSH2 0x215 JUMPI DUP1 PUSH4 0x13137D65 EQ PUSH2 0x236 JUMPI DUP1 PUSH4 0x17442B70 EQ PUSH2 0x249 JUMPI DUP1 PUSH4 0x290DFDB2 EQ PUSH2 0x26E JUMPI PUSH0 DUP1 REVERT JUMPDEST CALLDATASIZE PUSH2 0x211 JUMPI STOP JUMPDEST PUSH0 DUP1 REVERT JUMPDEST CALLVALUE DUP1 ISZERO PUSH2 0x220 JUMPI PUSH0 DUP1 REVERT JUMPDEST POP PUSH2 0x234 PUSH2 0x22F CALLDATASIZE PUSH1 0x4 PUSH2 0x23FF JUMP JUMPDEST POP POP POP JUMP JUMPDEST STOP JUMPDEST PUSH2 0x234 PUSH2 0x244 CALLDATASIZE PUSH1 0x4 PUSH2 0x24A7 JUMP JUMPDEST PUSH2 0x6F8 JUMP JUMPDEST CALLVALUE DUP1 ISZERO PUSH2 0x254 JUMPI PUSH0 DUP1 REVERT JUMPDEST POP PUSH1 0x40 DUP1 MLOAD PUSH1 0x1 DUP1 DUP3 MSTORE PUSH1 0x20 DUP3 ADD MSTORE ADD JUMPDEST PUSH1 0x40 MLOAD DUP1 SWAP2 SUB SWAP1 RETURN JUMPDEST CALLVALUE DUP1 ISZERO PUSH2 0x279 JUMPI PUSH0 DUP1 REVERT JUMPDEST POP PUSH2 0x28D PUSH2 0x288 CALLDATASIZE PUSH1 0x4 PUSH2 0x253F JUMP JUMPDEST PUSH2 0x7B8 JUMP JUMPDEST PUSH1 0x40 MLOAD PUSH1 0x1 PUSH1 0x1 PUSH1 0xA0 SHL SUB SWAP1 SWAP2 AND DUP2 MSTORE PUSH1 0x20 ADD PUSH2 0x265 JUMP JUMPDEST CALLVALUE DUP1 ISZERO PUSH2 0x2B0 JUMPI PUSH0 DUP1 REVERT JUMPDEST POP PUSH1 0x8 SLOAD PUSH2 0x2BE SWAP1 PUSH1 0xFF AND DUP2 JUMP JUMPDEST PUSH1 0x40 MLOAD SWAP1 ISZERO ISZERO DUP2 MSTORE PUSH1 0x20 ADD PUSH2 0x265 JUMP JUMPDEST CALLVALUE DUP1 ISZERO PUSH2 0x2D9 JUMPI PUSH0 DUP1 REVERT JUMPDEST POP PUSH1 0x2 SLOAD PUSH2 0x28D SWAP1 PUSH1 0x1 PUSH1 0x1 PUSH1 0xA0 SHL SUB AND DUP2 JUMP JUMPDEST CALLVALUE DUP1 ISZERO PUSH2 0x2F8 JUMPI PUSH0 DUP1 REVERT JUMPDEST POP PUSH1 0x3 SLOAD PUSH2 0x28D SWAP1 PUSH1 0x1 PUSH1 0x1 PUSH1 0xA0 SHL SUB AND DUP2 JUMP JUMPDEST CALLVALUE DUP1 ISZERO PUSH2 0x317 JUMPI PUSH0 DUP1 REVERT JUMPDEST POP PUSH2 0x234 PUSH2 0x326 CALLDATASIZE PUSH1 0x4 PUSH2 0x25E2 JUMP JUMPDEST PUSH2 0x943 JUMP JUMPDEST CALLVALUE DUP1 ISZERO PUSH2 0x336 JUMPI PUSH0 DUP1 REVERT JUMPDEST POP PUSH2 0x234 PUSH2 0x345 CALLDATASIZE PUSH1 0x4 PUSH2 0x27F2 JUMP JUMPDEST PUSH2 0x99F JUMP JUMPDEST CALLVALUE DUP1 ISZERO PUSH2 0x355 JUMPI PUSH0 DUP1 REVERT JUMPDEST POP PUSH1 0xB SLOAD JUMPDEST PUSH1 0x40 MLOAD SWAP1 DUP2 MSTORE PUSH1 0x20 ADD PUSH2 0x265 JUMP JUMPDEST CALLVALUE DUP1 ISZERO PUSH2 0x373 JUMPI PUSH0 DUP1 REVERT JUMPDEST POP PUSH2 0x35A PUSH1 0xB SLOAD DUP2 JUMP JUMPDEST CALLVALUE DUP1 ISZERO PUSH2 0x388 JUMPI PUSH0 DUP1 REVERT JUMPDEST POP PUSH2 0x28D PUSH32 0x0 DUP2 JUMP JUMPDEST CALLVALUE DUP1 ISZERO PUSH2 0x3BB JUMPI PUSH0 DUP1 REVERT JUMPDEST POP PUSH1 0x4 SLOAD PUSH2 0x28D SWAP1 PUSH1 0x1 PUSH1 0x1 PUSH1 0xA0 SHL SUB AND DUP2 JUMP JUMPDEST CALLVALUE DUP1 ISZERO PUSH2 0x3DA JUMPI PUSH0 DUP1 REVERT JUMPDEST POP PUSH2 0x234 PUSH2 0x3E9 CALLDATASIZE PUSH1 0x4 PUSH2 0x28C5 JUMP JUMPDEST PUSH2 0xE28 JUMP JUMPDEST CALLVALUE DUP1 ISZERO PUSH2 0x3F9 JUMPI PUSH0 DUP1 REVERT JUMPDEST POP PUSH2 0x234 PUSH2 0xE43 JUMP JUMPDEST CALLVALUE DUP1 ISZERO PUSH2 0x40D JUMPI PUSH0 DUP1 REVERT JUMPDEST POP PUSH2 0x421 PUSH2 0x41C CALLDATASIZE PUSH1 0x4 PUSH2 0x25E2 JUMP JUMPDEST PUSH2 0xE56 JUMP JUMPDEST PUSH1 0x40 MLOAD PUSH1 0x1 PUSH1 0x1 PUSH1 0x40 SHL SUB SWAP1 SWAP2 AND DUP2 MSTORE PUSH1 0x20 ADD PUSH2 0x265 JUMP JUMPDEST CALLVALUE DUP1 ISZERO PUSH2 0x444 JUMPI PUSH0 DUP1 REVERT JUMPDEST POP PUSH0 SLOAD PUSH1 0x1 PUSH1 0x1 PUSH1 0xA0 SHL SUB AND PUSH2 0x28D JUMP JUMPDEST CALLVALUE DUP1 ISZERO PUSH2 0x460 JUMPI PUSH0 DUP1 REVERT JUMPDEST POP PUSH2 0x2BE PUSH2 0x46F CALLDATASIZE PUSH1 0x4 PUSH2 0x28E0 JUMP JUMPDEST PUSH1 0x1 PUSH1 0x1 PUSH1 0xA0 SHL SUB AND PUSH0 SWAP1 DUP2 MSTORE PUSH1 0x9 PUSH1 0x20 MSTORE PUSH1 0x40 SWAP1 KECCAK256 SLOAD PUSH1 0xFF AND SWAP1 JUMP JUMPDEST CALLVALUE DUP1 ISZERO PUSH2 0x497 JUMPI PUSH0 DUP1 REVERT JUMPDEST POP PUSH2 0x234 PUSH2 0x4A6 CALLDATASIZE PUSH1 0x4 PUSH2 0x28FB JUMP JUMPDEST POP POP JUMP JUMPDEST CALLVALUE DUP1 ISZERO PUSH2 0x4B5 JUMPI PUSH0 DUP1 REVERT JUMPDEST POP PUSH2 0x4BE PUSH2 0xE5E JUMP JUMPDEST PUSH1 0x40 MLOAD PUSH2 0x265 SWAP2 SWAP1 PUSH2 0x2995 JUMP JUMPDEST PUSH2 0x234 PUSH2 0x4D9 CALLDATASIZE PUSH1 0x4 PUSH2 0x29E1 JUMP JUMPDEST PUSH2 0xEBE JUMP JUMPDEST CALLVALUE DUP1 ISZERO PUSH2 0x4E9 JUMPI PUSH0 DUP1 REVERT JUMPDEST POP PUSH2 0x234 PUSH2 0x4F8 CALLDATASIZE PUSH1 0x4 PUSH2 0x2A1A JUMP JUMPDEST PUSH2 0x10FE JUMP JUMPDEST CALLVALUE DUP1 ISZERO PUSH2 0x508 JUMPI PUSH0 DUP1 REVERT JUMPDEST POP PUSH2 0x28D PUSH32 0x0 DUP2 JUMP JUMPDEST CALLVALUE DUP1 ISZERO PUSH2 0x53B JUMPI PUSH0 DUP1 REVERT JUMPDEST POP ADDRESS PUSH2 0x28D JUMP JUMPDEST CALLVALUE DUP1 ISZERO PUSH2 0x54D JUMPI PUSH0 DUP1 REVERT JUMPDEST POP PUSH2 0x35A PUSH2 0x55C CALLDATASIZE PUSH1 0x4 PUSH2 0x2A51 JUMP JUMPDEST PUSH1 0x1 PUSH1 0x20 MSTORE PUSH0 SWAP1 DUP2 MSTORE PUSH1 0x40 SWAP1 KECCAK256 SLOAD DUP2 JUMP JUMPDEST CALLVALUE DUP1 ISZERO PUSH2 0x578 JUMPI PUSH0 DUP1 REVERT JUMPDEST POP PUSH1 0x5 SLOAD PUSH2 0x28D SWAP1 PUSH1 0x1 PUSH1 0x1 PUSH1 0xA0 SHL SUB AND DUP2 JUMP JUMPDEST CALLVALUE DUP1 ISZERO PUSH2 0x597 JUMPI PUSH0 DUP1 REVERT JUMPDEST POP PUSH2 0x234 PUSH2 0x5A6 CALLDATASIZE PUSH1 0x4 PUSH2 0x28E0 JUMP JUMPDEST PUSH2 0x1130 JUMP JUMPDEST CALLVALUE DUP1 ISZERO PUSH2 0x5B6 JUMPI PUSH0 DUP1 REVERT JUMPDEST POP PUSH1 0x6 SLOAD PUSH2 0x28D SWAP1 PUSH1 0x1 PUSH1 0x1 PUSH1 0xA0 SHL SUB AND DUP2 JUMP JUMPDEST CALLVALUE DUP1 ISZERO PUSH2 0x5D5 JUMPI PUSH0 DUP1 REVERT JUMPDEST POP PUSH2 0x28D PUSH2 0x5E4 CALLDATASIZE PUSH1 0x4 PUSH2 0x2A6C JUMP JUMPDEST PUSH2 0x11B1 JUMP JUMPDEST CALLVALUE DUP1 ISZERO PUSH2 0x5F4 JUMPI PUSH0 DUP1 REVERT JUMPDEST POP PUSH2 0x2BE PUSH2 0x603 CALLDATASIZE PUSH1 0x4 PUSH2 0x28E0 JUMP JUMPDEST PUSH1 0x1 PUSH1 0x1 PUSH1 0xA0 SHL SUB AND PUSH0 SWAP1 DUP2 MSTORE PUSH1 0x7 PUSH1 0x20 MSTORE PUSH1 0x40 SWAP1 KECCAK256 SLOAD PUSH1 0xFF AND SWAP1 JUMP JUMPDEST CALLVALUE DUP1 ISZERO PUSH2 0x62B JUMPI PUSH0 DUP1 REVERT JUMPDEST POP PUSH2 0x2BE PUSH2 0x63A CALLDATASIZE PUSH1 0x4 PUSH2 0x28E0 JUMP JUMPDEST PUSH1 0x7 PUSH1 0x20 MSTORE PUSH0 SWAP1 DUP2 MSTORE PUSH1 0x40 SWAP1 KECCAK256 SLOAD PUSH1 0xFF AND DUP2 JUMP JUMPDEST CALLVALUE DUP1 ISZERO PUSH2 0x659 JUMPI PUSH0 DUP1 REVERT JUMPDEST POP PUSH2 0x2BE PUSH2 0x668 CALLDATASIZE PUSH1 0x4 PUSH2 0x28E0 JUMP JUMPDEST PUSH1 0x9 PUSH1 0x20 MSTORE PUSH0 SWAP1 DUP2 MSTORE PUSH1 0x40 SWAP1 KECCAK256 SLOAD PUSH1 0xFF AND DUP2 JUMP JUMPDEST CALLVALUE DUP1 ISZERO PUSH2 0x687 JUMPI PUSH0 DUP1 REVERT JUMPDEST POP PUSH2 0x234 PUSH2 0x696 CALLDATASIZE PUSH1 0x4 PUSH2 0x28E0 JUMP JUMPDEST PUSH2 0x11D9 JUMP JUMPDEST CALLVALUE DUP1 ISZERO PUSH2 0x6A6 JUMPI PUSH0 DUP1 REVERT JUMPDEST POP PUSH2 0x28D PUSH2 0x6B5 CALLDATASIZE PUSH1 0x4 PUSH2 0x2A6C JUMP JUMPDEST PUSH2 0x1216 JUMP JUMPDEST CALLVALUE DUP1 ISZERO PUSH2 0x6C5 JUMPI PUSH0 DUP1 REVERT JUMPDEST POP PUSH2 0x234 PUSH2 0x6D4 CALLDATASIZE PUSH1 0x4 PUSH2 0x2A83 JUMP JUMPDEST PUSH2 0x1244 JUMP JUMPDEST CALLVALUE DUP1 ISZERO PUSH2 0x6E4 JUMPI PUSH0 DUP1 REVERT JUMPDEST POP PUSH2 0x2BE PUSH2 0x6F3 CALLDATASIZE PUSH1 0x4 PUSH2 0x2ADC JUMP JUMPDEST PUSH2 0x13DB JUMP JUMPDEST PUSH32 0x0 PUSH1 0x1 PUSH1 0x1 PUSH1 0xA0 SHL SUB AND CALLER EQ PUSH2 0x748 JUMPI PUSH1 0x40 MLOAD PUSH4 0x91AC5E4F PUSH1 0xE0 SHL DUP2 MSTORE CALLER PUSH1 0x4 DUP3 ADD MSTORE PUSH1 0x24 ADD JUMPDEST PUSH1 0x40 MLOAD DUP1 SWAP2 SUB SWAP1 REVERT JUMPDEST PUSH1 0x20 DUP8 ADD DUP1 CALLDATALOAD SWAP1 PUSH2 0x762 SWAP1 PUSH2 0x75D SWAP1 DUP11 PUSH2 0x2A51 JUMP JUMPDEST PUSH2 0x140F JUMP JUMPDEST EQ PUSH2 0x7A0 JUMPI PUSH2 0x774 PUSH1 0x20 DUP9 ADD DUP9 PUSH2 0x2A51 JUMP JUMPDEST PUSH1 0x40 MLOAD PUSH4 0x309AFAF3 PUSH1 0xE2 SHL DUP2 MSTORE PUSH4 0xFFFFFFFF SWAP1 SWAP2 AND PUSH1 0x4 DUP3 ADD MSTORE PUSH1 0x20 DUP9 ADD CALLDATALOAD PUSH1 0x24 DUP3 ADD MSTORE PUSH1 0x44 ADD PUSH2 0x73F JUMP JUMPDEST PUSH2 0x7AF DUP8 DUP8 DUP8 DUP8 DUP8 DUP8 DUP8 PUSH2 0x144A JUMP JUMPDEST POP POP POP POP POP POP POP JUMP JUMPDEST CALLER PUSH0 SWAP1 DUP2 MSTORE PUSH1 0x7 PUSH1 0x20 MSTORE PUSH1 0x40 DUP2 KECCAK256 SLOAD PUSH1 0xFF AND PUSH2 0x816 JUMPI PUSH1 0x40 MLOAD PUSH3 0x461BCD PUSH1 0xE5 SHL DUP2 MSTORE PUSH1 0x20 PUSH1 0x4 DUP3 ADD MSTORE PUSH1 0x1E PUSH1 0x24 DUP3 ADD MSTORE PUSH32 0x536C696365436F72653A20556E617574686F72697A65642063616C6C65720000 PUSH1 0x44 DUP3 ADD MSTORE PUSH1 0x64 ADD PUSH2 0x73F JUMP JUMPDEST PUSH1 0x8 SLOAD PUSH1 0xFF AND PUSH2 0x879 JUMPI PUSH1 0x40 MLOAD PUSH3 0x461BCD PUSH1 0xE5 SHL DUP2 MSTORE PUSH1 0x20 PUSH1 0x4 DUP3 ADD MSTORE PUSH1 0x28 PUSH1 0x24 DUP3 ADD MSTORE PUSH32 0x536C696365436F72653A20536C69636520746F6B656E206372656174696F6E20 PUSH1 0x44 DUP3 ADD MSTORE PUSH8 0x191A5CD8589B1959 PUSH1 0xC2 SHL PUSH1 0x64 DUP3 ADD MSTORE PUSH1 0x84 ADD PUSH2 0x73F JUMP JUMPDEST PUSH0 DUP8 DUP8 DUP8 DUP8 DUP8 DUP8 PUSH1 0x2 PUSH0 SWAP1 SLOAD SWAP1 PUSH2 0x100 EXP SWAP1 DIV PUSH1 0x1 PUSH1 0x1 PUSH1 0xA0 SHL SUB AND ADDRESS PUSH1 0x40 MLOAD PUSH2 0x8A2 SWAP1 PUSH2 0x235B JUMP JUMPDEST PUSH2 0x8B3 SWAP9 SWAP8 SWAP7 SWAP6 SWAP5 SWAP4 SWAP3 SWAP2 SWAP1 PUSH2 0x2B1E JUMP JUMPDEST PUSH1 0x40 MLOAD DUP1 SWAP2 SUB SWAP1 PUSH0 CREATE DUP1 ISZERO DUP1 ISZERO PUSH2 0x8CC JUMPI RETURNDATASIZE PUSH0 DUP1 RETURNDATACOPY RETURNDATASIZE PUSH0 REVERT JUMPDEST POP PUSH1 0x1 PUSH1 0x1 PUSH1 0xA0 SHL SUB DUP2 AND PUSH0 SWAP1 DUP2 MSTORE PUSH1 0x9 PUSH1 0x20 MSTORE PUSH1 0x40 DUP2 KECCAK256 DUP1 SLOAD PUSH1 0xFF NOT AND PUSH1 0x1 OR SWAP1 SSTORE PUSH1 0xB DUP1 SLOAD SWAP3 SWAP4 POP SWAP1 PUSH2 0x900 DUP4 PUSH2 0x2BE9 JUMP JUMPDEST SWAP1 SWAP2 SSTORE POP POP PUSH1 0x40 MLOAD PUSH1 0x1 PUSH1 0x1 PUSH1 0xA0 SHL SUB DUP3 AND SWAP1 PUSH32 0xB857149A33D1D8F31A903329294F61770C4562939C36B9421C5867347C14BCE SWAP1 PUSH0 SWAP1 LOG2 SWAP8 SWAP7 POP POP POP POP POP POP POP JUMP JUMPDEST PUSH2 0x94B PUSH2 0x173D JUMP JUMPDEST PUSH4 0xFFFFFFFF DUP3 AND PUSH0 DUP2 DUP2 MSTORE PUSH1 0x1 PUSH1 0x20 SWAP1 DUP2 MSTORE PUSH1 0x40 SWAP2 DUP3 SWAP1 KECCAK256 DUP5 SWAP1 SSTORE DUP2 MLOAD SWAP3 DUP4 MSTORE DUP3 ADD DUP4 SWAP1 MSTORE PUSH32 0x238399D427B947898EDB290F5FF0F9109849B1C3BA196A42E35F00C50A54B98B SWAP2 ADD PUSH1 0x40 MLOAD DUP1 SWAP2 SUB SWAP1 LOG1 POP POP JUMP JUMPDEST CALLER PUSH0 SWAP1 DUP2 MSTORE PUSH1 0x9 PUSH1 0x20 MSTORE PUSH1 0x40 SWAP1 KECCAK256 SLOAD PUSH1 0xFF AND PUSH2 0xA15 JUMPI PUSH1 0x40 MLOAD PUSH3 0x461BCD PUSH1 0xE5 SHL DUP2 MSTORE PUSH1 0x20 PUSH1 0x4 DUP3 ADD MSTORE PUSH1 0x2F PUSH1 0x24 DUP3 ADD MSTORE PUSH32 0x536C696365436F72653A204F6E6C79207265676973746572656420536C696365 PUSH1 0x44 DUP3 ADD MSTORE PUSH15 0x81D1BDAD95B8818D85B8818D85B1B PUSH1 0x8A SHL PUSH1 0x64 DUP3 ADD MSTORE PUSH1 0x84 ADD PUSH2 0x73F JUMP JUMPDEST PUSH2 0xA1E DUP3 PUSH2 0x1769 JUMP JUMPDEST PUSH1 0x2 SLOAD PUSH1 0x40 MLOAD PUSH4 0x70A08231 PUSH1 0xE0 SHL DUP2 MSTORE ADDRESS PUSH1 0x4 DUP3 ADD MSTORE PUSH1 0x1 PUSH1 0x1 PUSH1 0xA0 SHL SUB SWAP1 SWAP2 AND SWAP1 PUSH4 0x70A08231 SWAP1 PUSH1 0x24 ADD PUSH1 0x20 PUSH1 0x40 MLOAD DUP1 DUP4 SUB DUP2 DUP7 GAS STATICCALL ISZERO DUP1 ISZERO PUSH2 0xA64 JUMPI RETURNDATASIZE PUSH0 DUP1 RETURNDATACOPY RETURNDATASIZE PUSH0 REVERT JUMPDEST POP POP POP POP PUSH1 0x40 MLOAD RETURNDATASIZE PUSH1 0x1F NOT PUSH1 0x1F DUP3 ADD AND DUP3 ADD DUP1 PUSH1 0x40 MSTORE POP DUP2 ADD SWAP1 PUSH2 0xA88 SWAP2 SWAP1 PUSH2 0x2C01 JUMP JUMPDEST LT ISZERO PUSH2 0xAFC JUMPI PUSH1 0x40 MLOAD PUSH3 0x461BCD PUSH1 0xE5 SHL DUP2 MSTORE PUSH1 0x20 PUSH1 0x4 DUP3 ADD MSTORE PUSH1 0x3A PUSH1 0x24 DUP3 ADD MSTORE PUSH32 0x536C696365436F72653A204D617820657374696D61746564207072696365206E PUSH1 0x44 DUP3 ADD MSTORE PUSH32 0x6F74207472616E7366657272656420746F20636F6E7472616374000000000000 PUSH1 0x64 DUP3 ADD MSTORE PUSH1 0x84 ADD PUSH2 0x73F JUMP JUMPDEST PUSH1 0x40 MLOAD PUSH4 0xA2CE9C1F PUSH1 0xE0 SHL DUP2 MSTORE PUSH1 0x4 DUP2 ADD DUP6 SWAP1 MSTORE PUSH0 SWAP1 CALLER SWAP1 PUSH4 0xA2CE9C1F SWAP1 PUSH1 0x24 ADD PUSH0 PUSH1 0x40 MLOAD DUP1 DUP4 SUB DUP2 DUP7 GAS STATICCALL ISZERO DUP1 ISZERO PUSH2 0xB37 JUMPI RETURNDATASIZE PUSH0 DUP1 RETURNDATACOPY RETURNDATASIZE PUSH0 REVERT JUMPDEST POP POP POP POP PUSH1 0x40 MLOAD RETURNDATASIZE PUSH0 DUP3 RETURNDATACOPY PUSH1 0x1F RETURNDATASIZE SWAP1 DUP2 ADD PUSH1 0x1F NOT AND DUP3 ADD PUSH1 0x40 MSTORE PUSH2 0xB5E SWAP2 SWAP1 DUP2 ADD SWAP1 PUSH2 0x2C65 JUMP JUMPDEST DUP1 MLOAD SWAP1 SWAP2 POP DUP6 EQ PUSH2 0xBBB JUMPI PUSH1 0x40 MLOAD PUSH3 0x461BCD PUSH1 0xE5 SHL DUP2 MSTORE PUSH1 0x20 PUSH1 0x4 DUP3 ADD MSTORE PUSH1 0x21 PUSH1 0x24 DUP3 ADD MSTORE PUSH32 0x536C696365436F72653A204D696E7420494420646F6573206E6F742065786973 PUSH1 0x44 DUP3 ADD MSTORE PUSH1 0x1D PUSH1 0xFA SHL PUSH1 0x64 DUP3 ADD MSTORE PUSH1 0x84 ADD PUSH2 0x73F JUMP JUMPDEST PUSH0 DUP6 DUP2 MSTORE PUSH1 0xC PUSH1 0x20 MSTORE PUSH1 0x40 DUP1 DUP3 KECCAK256 DUP1 SLOAD CALLER PUSH1 0x1 PUSH1 0x1 PUSH1 0xA0 SHL SUB NOT SWAP2 DUP3 AND DUP2 OR DUP4 SSTORE PUSH1 0x2 DUP4 ADD DUP10 SWAP1 SSTORE DUP6 DUP5 ADD MLOAD PUSH1 0x3 SWAP1 SWAP4 ADD DUP1 SLOAD SWAP1 SWAP3 AND PUSH1 0x1 PUSH1 0x1 PUSH1 0xA0 SHL SUB SWAP1 SWAP4 AND SWAP3 SWAP1 SWAP3 OR SWAP1 SSTORE DUP2 MLOAD PUSH4 0x4013AC3 PUSH1 0xE5 SHL DUP2 MSTORE SWAP2 MLOAD SWAP1 SWAP2 PUSH4 0x80275860 SWAP2 PUSH1 0x4 DUP1 DUP4 ADD SWAP3 DUP7 SWAP3 SWAP2 SWAP1 DUP3 SWAP1 SUB ADD DUP2 DUP7 GAS STATICCALL ISZERO DUP1 ISZERO PUSH2 0xC39 JUMPI RETURNDATASIZE PUSH0 DUP1 RETURNDATACOPY RETURNDATASIZE PUSH0 REVERT JUMPDEST POP POP POP POP PUSH1 0x40 MLOAD RETURNDATASIZE PUSH0 DUP3 RETURNDATACOPY PUSH1 0x1F RETURNDATASIZE SWAP1 DUP2 ADD PUSH1 0x1F NOT AND DUP3 ADD PUSH1 0x40 MSTORE PUSH2 0xC60 SWAP2 SWAP1 DUP2 ADD SWAP1 PUSH2 0x2CF3 JUMP JUMPDEST SWAP1 POP PUSH0 JUMPDEST DUP2 MLOAD DUP2 LT ISZERO PUSH2 0xD80 JUMPI PUSH2 0xC90 DUP3 DUP3 DUP2 MLOAD DUP2 LT PUSH2 0xC82 JUMPI PUSH2 0xC82 PUSH2 0x2DB2 JUMP JUMPDEST PUSH1 0x20 MUL PUSH1 0x20 ADD ADD MLOAD MLOAD CHAINID EQ SWAP1 JUMP JUMPDEST ISZERO PUSH2 0xD1E JUMPI PUSH0 PUSH2 0xCEE CALLER DUP9 DUP9 DUP6 DUP2 MLOAD DUP2 LT PUSH2 0xCAD JUMPI PUSH2 0xCAD PUSH2 0x2DB2 JUMP JUMPDEST PUSH1 0x20 MUL PUSH1 0x20 ADD ADD MLOAD DUP7 DUP7 DUP2 MLOAD DUP2 LT PUSH2 0xCC7 JUMPI PUSH2 0xCC7 PUSH2 0x2DB2 JUMP JUMPDEST PUSH1 0x20 MUL PUSH1 0x20 ADD ADD MLOAD DUP10 DUP8 DUP2 MLOAD DUP2 LT PUSH2 0xCE1 JUMPI PUSH2 0xCE1 PUSH2 0x2DB2 JUMP JUMPDEST PUSH1 0x20 MUL PUSH1 0x20 ADD ADD MLOAD PUSH2 0x17AA JUMP JUMPDEST SWAP1 POP DUP1 ISZERO PUSH2 0xD18 JUMPI PUSH0 DUP9 DUP2 MSTORE PUSH1 0xC PUSH1 0x20 MSTORE PUSH1 0x40 DUP2 KECCAK256 PUSH1 0x1 ADD DUP1 SLOAD SWAP2 PUSH2 0xD12 DUP4 PUSH2 0x2BE9 JUMP JUMPDEST SWAP2 SWAP1 POP SSTORE POP JUMPDEST POP PUSH2 0xD78 JUMP JUMPDEST PUSH2 0xD78 DUP8 CALLER DUP9 DUP9 DUP6 DUP2 MLOAD DUP2 LT PUSH2 0xD36 JUMPI PUSH2 0xD36 PUSH2 0x2DB2 JUMP JUMPDEST PUSH1 0x20 MUL PUSH1 0x20 ADD ADD MLOAD DUP7 DUP7 DUP2 MLOAD DUP2 LT PUSH2 0xD50 JUMPI PUSH2 0xD50 PUSH2 0x2DB2 JUMP JUMPDEST PUSH1 0x20 MUL PUSH1 0x20 ADD ADD MLOAD DUP9 DUP11 DUP9 DUP2 MLOAD DUP2 LT PUSH2 0xD6B JUMPI PUSH2 0xD6B PUSH2 0x2DB2 JUMP JUMPDEST PUSH1 0x20 MUL PUSH1 0x20 ADD ADD MLOAD PUSH2 0x1980 JUMP JUMPDEST PUSH1 0x1 ADD PUSH2 0xC64 JUMP JUMPDEST POP PUSH2 0xD8A DUP7 PUSH2 0x1C33 JUMP JUMPDEST ISZERO PUSH2 0xE20 JUMPI DUP2 PUSH1 0x40 ADD MLOAD PUSH1 0x1 PUSH1 0x1 PUSH1 0xA0 SHL SUB AND DUP6 CALLER PUSH1 0x1 PUSH1 0x1 PUSH1 0xA0 SHL SUB AND PUSH32 0x57906F264053DF400DECF287D5DF71541AB514D475435B80E96A2588B4C4B397 PUSH1 0x40 MLOAD PUSH1 0x40 MLOAD DUP1 SWAP2 SUB SWAP1 LOG4 PUSH1 0x40 MLOAD PUSH3 0x5D483 PUSH1 0xED SHL DUP2 MSTORE PUSH1 0x4 DUP2 ADD DUP8 SWAP1 MSTORE CALLER SWAP1 PUSH4 0xBA906000 SWAP1 PUSH1 0x24 ADD PUSH0 PUSH1 0x40 MLOAD DUP1 DUP4 SUB DUP2 PUSH0 DUP8 DUP1 EXTCODESIZE ISZERO DUP1 ISZERO PUSH2 0xE09 JUMPI PUSH0 DUP1 REVERT JUMPDEST POP GAS CALL ISZERO DUP1 ISZERO PUSH2 0xE1B JUMPI RETURNDATASIZE PUSH0 DUP1 RETURNDATACOPY RETURNDATASIZE PUSH0 REVERT JUMPDEST POP POP POP POP JUMPDEST POP POP POP POP POP POP JUMP JUMPDEST PUSH2 0xE30 PUSH2 0x173D JUMP JUMPDEST PUSH1 0x8 DUP1 SLOAD PUSH1 0xFF NOT AND SWAP2 ISZERO ISZERO SWAP2 SWAP1 SWAP2 OR SWAP1 SSTORE JUMP JUMPDEST PUSH2 0xE4B PUSH2 0x173D JUMP JUMPDEST PUSH2 0xE54 PUSH0 PUSH2 0x1CE3 JUMP JUMPDEST JUMP JUMPDEST PUSH0 JUMPDEST SWAP3 SWAP2 POP POP JUMP JUMPDEST PUSH1 0x60 PUSH1 0xA DUP1 SLOAD DUP1 PUSH1 0x20 MUL PUSH1 0x20 ADD PUSH1 0x40 MLOAD SWAP1 DUP2 ADD PUSH1 0x40 MSTORE DUP1 SWAP3 SWAP2 SWAP1 DUP2 DUP2 MSTORE PUSH1 0x20 ADD DUP3 DUP1 SLOAD DUP1 ISZERO PUSH2 0xEB4 JUMPI PUSH1 0x20 MUL DUP3 ADD SWAP2 SWAP1 PUSH0 MSTORE PUSH1 0x20 PUSH0 KECCAK256 SWAP1 JUMPDEST DUP2 SLOAD PUSH1 0x1 PUSH1 0x1 PUSH1 0xA0 SHL SUB AND DUP2 MSTORE PUSH1 0x1 SWAP1 SWAP2 ADD SWAP1 PUSH1 0x20 ADD DUP1 DUP4 GT PUSH2 0xE96 JUMPI JUMPDEST POP POP POP POP POP SWAP1 POP SWAP1 JUMP JUMPDEST PUSH1 0x4 SLOAD PUSH1 0x1 PUSH1 0x1 PUSH1 0xA0 SHL SUB AND CALLER EQ PUSH2 0xF2A JUMPI PUSH1 0x40 MLOAD PUSH3 0x461BCD PUSH1 0xE5 SHL DUP2 MSTORE PUSH1 0x20 PUSH1 0x4 DUP3 ADD MSTORE PUSH1 0x29 PUSH1 0x24 DUP3 ADD MSTORE PUSH32 0x536C696365436F72653A204F6E6C792053746172676174652061646170746572 PUSH1 0x44 DUP3 ADD MSTORE PUSH9 0x818D85B8818D85B1B PUSH1 0xBA SHL PUSH1 0x64 DUP3 ADD MSTORE PUSH1 0x84 ADD PUSH2 0x73F JUMP JUMPDEST PUSH0 DUP2 DUP1 PUSH1 0x20 ADD SWAP1 MLOAD DUP2 ADD SWAP1 PUSH2 0xF3F SWAP2 SWAP1 PUSH2 0x2DC6 JUMP JUMPDEST PUSH1 0x40 DUP1 DUP3 ADD MLOAD SWAP1 MLOAD PUSH4 0x70A08231 PUSH1 0xE0 SHL DUP2 MSTORE ADDRESS PUSH1 0x4 DUP3 ADD MSTORE SWAP2 SWAP3 POP PUSH0 SWAP2 PUSH1 0x1 PUSH1 0x1 PUSH1 0xA0 SHL SUB SWAP1 SWAP2 AND SWAP1 PUSH4 0x70A08231 SWAP1 PUSH1 0x24 ADD PUSH1 0x20 PUSH1 0x40 MLOAD DUP1 DUP4 SUB DUP2 DUP7 GAS STATICCALL ISZERO DUP1 ISZERO PUSH2 0xF8C JUMPI RETURNDATASIZE PUSH0 DUP1 RETURNDATACOPY RETURNDATASIZE PUSH0 REVERT JUMPDEST POP POP POP POP PUSH1 0x40 MLOAD RETURNDATASIZE PUSH1 0x1F NOT PUSH1 0x1F DUP3 ADD AND DUP3 ADD DUP1 PUSH1 0x40 MSTORE POP DUP2 ADD SWAP1 PUSH2 0xFB0 SWAP2 SWAP1 PUSH2 0x2C01 JUMP JUMPDEST SWAP1 POP DUP2 PUSH1 0x60 ADD MLOAD DUP2 LT ISZERO PUSH2 0x1017 JUMPI PUSH1 0x40 MLOAD PUSH3 0x461BCD PUSH1 0xE5 SHL DUP2 MSTORE PUSH1 0x20 PUSH1 0x4 DUP3 ADD MSTORE PUSH1 0x28 PUSH1 0x24 DUP3 ADD MSTORE PUSH32 0x536C696365436F72653A20496E636F727265637420616D6F756E74206F662074 PUSH1 0x44 DUP3 ADD MSTORE PUSH8 0x1BDAD95B881BDD5D PUSH1 0xC2 SHL PUSH1 0x64 DUP3 ADD MSTORE PUSH1 0x84 ADD PUSH2 0x73F JUMP JUMPDEST PUSH1 0x6 SLOAD DUP3 MLOAD PUSH1 0x40 MLOAD PUSH4 0x2013A8CD PUSH1 0xE2 SHL DUP2 MSTORE PUSH1 0x4 DUP2 ADD SWAP2 SWAP1 SWAP2 MSTORE PUSH0 SWAP2 PUSH1 0x1 PUSH1 0x1 PUSH1 0xA0 SHL SUB AND SWAP1 PUSH4 0x804EA334 SWAP1 PUSH1 0x24 ADD PUSH1 0x80 PUSH1 0x40 MLOAD DUP1 DUP4 SUB DUP2 DUP7 GAS STATICCALL ISZERO DUP1 ISZERO PUSH2 0x1061 JUMPI RETURNDATASIZE PUSH0 DUP1 RETURNDATACOPY RETURNDATASIZE PUSH0 REVERT JUMPDEST POP POP POP POP PUSH1 0x40 MLOAD RETURNDATASIZE PUSH1 0x1F NOT PUSH1 0x1F DUP3 ADD AND DUP3 ADD DUP1 PUSH1 0x40 MSTORE POP DUP2 ADD SWAP1 PUSH2 0x1085 SWAP2 SWAP1 PUSH2 0x2E5E JUMP JUMPDEST PUSH1 0x40 DUP1 MLOAD DUP1 DUP3 ADD DUP3 MSTORE PUSH1 0x20 DUP7 DUP2 ADD MLOAD DUP1 DUP4 MSTORE PUSH1 0x1 DUP3 DUP5 ADD SWAP1 DUP2 MSTORE DUP5 MLOAD SWAP3 DUP4 ADD SWAP2 SWAP1 SWAP2 MSTORE MLOAD ISZERO ISZERO SWAP3 DUP2 ADD SWAP3 SWAP1 SWAP3 MSTORE SWAP2 SWAP3 POP PUSH0 SWAP1 PUSH1 0x60 ADD PUSH1 0x40 MLOAD PUSH1 0x20 DUP2 DUP4 SUB SUB DUP2 MSTORE SWAP1 PUSH1 0x40 MSTORE SWAP1 POP PUSH2 0x7AF DUP4 PUSH1 0x60 ADD MLOAD DUP3 PUSH1 0x40 MLOAD DUP1 PUSH1 0x20 ADD PUSH1 0x40 MSTORE DUP1 PUSH0 DUP2 MSTORE POP PUSH1 0x40 MLOAD DUP1 PUSH1 0x40 ADD PUSH1 0x40 MSTORE DUP1 CALLVALUE DUP2 MSTORE PUSH1 0x20 ADD PUSH0 DUP2 MSTORE POP ADDRESS PUSH2 0x1D32 JUMP JUMPDEST PUSH2 0x1106 PUSH2 0x173D JUMP JUMPDEST PUSH1 0x1 PUSH1 0x1 PUSH1 0xA0 SHL SUB SWAP2 SWAP1 SWAP2 AND PUSH0 SWAP1 DUP2 MSTORE PUSH1 0x7 PUSH1 0x20 MSTORE PUSH1 0x40 SWAP1 KECCAK256 DUP1 SLOAD PUSH1 0xFF NOT AND SWAP2 ISZERO ISZERO SWAP2 SWAP1 SWAP2 OR SWAP1 SSTORE JUMP JUMPDEST PUSH2 0x1138 PUSH2 0x173D JUMP JUMPDEST PUSH1 0x40 MLOAD PUSH4 0xCA5EB5E1 PUSH1 0xE0 SHL DUP2 MSTORE PUSH1 0x1 PUSH1 0x1 PUSH1 0xA0 SHL SUB DUP3 DUP2 AND PUSH1 0x4 DUP4 ADD MSTORE PUSH32 0x0 AND SWAP1 PUSH4 0xCA5EB5E1 SWAP1 PUSH1 0x24 ADD PUSH0 PUSH1 0x40 MLOAD DUP1 DUP4 SUB DUP2 PUSH0 DUP8 DUP1 EXTCODESIZE ISZERO DUP1 ISZERO PUSH2 0x1198 JUMPI PUSH0 DUP1 REVERT JUMPDEST POP GAS CALL ISZERO DUP1 ISZERO PUSH2 0x11AA JUMPI RETURNDATASIZE PUSH0 DUP1 RETURNDATACOPY RETURNDATASIZE PUSH0 REVERT JUMPDEST POP POP POP POP POP JUMP JUMPDEST PUSH1 0xA DUP2 DUP2 SLOAD DUP2 LT PUSH2 0x11C0 JUMPI PUSH0 DUP1 REVERT JUMPDEST PUSH0 SWAP2 DUP3 MSTORE PUSH1 0x20 SWAP1 SWAP2 KECCAK256 ADD SLOAD PUSH1 0x1 PUSH1 0x1 PUSH1 0xA0 SHL SUB AND SWAP1 POP DUP2 JUMP JUMPDEST PUSH2 0x11E1 PUSH2 0x173D JUMP JUMPDEST PUSH1 0x1 PUSH1 0x1 PUSH1 0xA0 SHL SUB DUP2 AND PUSH2 0x120A JUMPI PUSH1 0x40 MLOAD PUSH4 0x1E4FBDF7 PUSH1 0xE0 SHL DUP2 MSTORE PUSH0 PUSH1 0x4 DUP3 ADD MSTORE PUSH1 0x24 ADD PUSH2 0x73F JUMP JUMPDEST PUSH2 0x1213 DUP2 PUSH2 0x1CE3 JUMP JUMPDEST POP JUMP JUMPDEST PUSH0 PUSH1 0xA DUP3 DUP2 SLOAD DUP2 LT PUSH2 0x122A JUMPI PUSH2 0x122A PUSH2 0x2DB2 JUMP JUMPDEST PUSH0 SWAP2 DUP3 MSTORE PUSH1 0x20 SWAP1 SWAP2 KECCAK256 ADD SLOAD PUSH1 0x1 PUSH1 0x1 PUSH1 0xA0 SHL SUB AND SWAP3 SWAP2 POP POP JUMP JUMPDEST PUSH32 0xF0C57E16840DF040F15088DC2F81FE391C3923BEC73E23A9662EFC9C229C6A00 DUP1 SLOAD PUSH1 0x1 PUSH1 0x40 SHL DUP2 DIV PUSH1 0xFF AND ISZERO SWAP1 PUSH1 0x1 PUSH1 0x1 PUSH1 0x40 SHL SUB AND PUSH0 DUP2 ISZERO DUP1 ISZERO PUSH2 0x1288 JUMPI POP DUP3 JUMPDEST SWAP1 POP PUSH0 DUP3 PUSH1 0x1 PUSH1 0x1 PUSH1 0x40 SHL SUB AND PUSH1 0x1 EQ DUP1 ISZERO PUSH2 0x12A3 JUMPI POP ADDRESS EXTCODESIZE ISZERO JUMPDEST SWAP1 POP DUP2 ISZERO DUP1 ISZERO PUSH2 0x12B1 JUMPI POP DUP1 ISZERO JUMPDEST ISZERO PUSH2 0x12CF JUMPI PUSH1 0x40 MLOAD PUSH4 0xF92EE8A9 PUSH1 0xE0 SHL DUP2 MSTORE PUSH1 0x4 ADD PUSH1 0x40 MLOAD DUP1 SWAP2 SUB SWAP1 REVERT JUMPDEST DUP5 SLOAD PUSH8 0xFFFFFFFFFFFFFFFF NOT AND PUSH1 0x1 OR DUP6 SSTORE DUP4 ISZERO PUSH2 0x12F9 JUMPI DUP5 SLOAD PUSH1 0xFF PUSH1 0x40 SHL NOT AND PUSH1 0x1 PUSH1 0x40 SHL OR DUP6 SSTORE JUMPDEST PUSH1 0x2 DUP1 SLOAD PUSH1 0x1 PUSH1 0x1 PUSH1 0xA0 SHL SUB DUP1 DUP13 AND PUSH1 0x1 PUSH1 0x1 PUSH1 0xA0 SHL SUB NOT SWAP3 DUP4 AND OR SWAP1 SWAP3 SSTORE PUSH1 0x3 DUP1 SLOAD SWAP3 DUP12 AND SWAP3 SWAP1 SWAP2 AND SWAP2 SWAP1 SWAP2 OR SWAP1 SSTORE PUSH1 0x40 MLOAD PUSH2 0x1335 SWAP1 PUSH2 0x2368 JUMP JUMPDEST PUSH1 0x40 MLOAD DUP1 SWAP2 SUB SWAP1 PUSH0 CREATE DUP1 ISZERO DUP1 ISZERO PUSH2 0x134E JUMPI RETURNDATASIZE PUSH0 DUP1 RETURNDATACOPY RETURNDATASIZE PUSH0 REVERT JUMPDEST POP PUSH1 0x6 DUP1 SLOAD PUSH1 0x1 PUSH1 0x1 PUSH1 0xA0 SHL SUB NOT SWAP1 DUP2 AND PUSH1 0x1 PUSH1 0x1 PUSH1 0xA0 SHL SUB SWAP4 DUP5 AND OR SWAP1 SWAP2 SSTORE PUSH1 0x4 DUP1 SLOAD DUP3 AND DUP11 DUP5 AND OR SWAP1 SSTORE PUSH1 0x5 DUP1 SLOAD SWAP1 SWAP2 AND SWAP2 DUP9 AND SWAP2 SWAP1 SWAP2 OR SWAP1 SSTORE DUP4 ISZERO PUSH2 0x13D0 JUMPI DUP5 SLOAD PUSH1 0xFF PUSH1 0x40 SHL NOT AND DUP6 SSTORE PUSH1 0x40 MLOAD PUSH1 0x1 DUP2 MSTORE PUSH32 0xC7F505B2F371AE2175EE4913F4499E1F2633A7B5936321EED1CDAEB6115181D2 SWAP1 PUSH1 0x20 ADD PUSH1 0x40 MLOAD DUP1 SWAP2 SUB SWAP1 LOG1 JUMPDEST POP POP POP POP POP POP POP POP POP JUMP JUMPDEST PUSH0 PUSH1 0x20 DUP3 ADD DUP1 CALLDATALOAD SWAP1 PUSH1 0x1 SWAP1 DUP4 SWAP1 PUSH2 0x13F2 SWAP1 DUP7 PUSH2 0x2A51 JUMP JUMPDEST PUSH4 0xFFFFFFFF AND DUP2 MSTORE PUSH1 0x20 DUP2 ADD SWAP2 SWAP1 SWAP2 MSTORE PUSH1 0x40 ADD PUSH0 KECCAK256 SLOAD EQ SWAP3 SWAP2 POP POP JUMP JUMPDEST PUSH4 0xFFFFFFFF DUP2 AND PUSH0 SWAP1 DUP2 MSTORE PUSH1 0x1 PUSH1 0x20 MSTORE PUSH1 0x40 DUP2 KECCAK256 SLOAD DUP1 PUSH2 0xE58 JUMPI PUSH1 0x40 MLOAD PUSH4 0xF6FF4FB7 PUSH1 0xE0 SHL DUP2 MSTORE PUSH4 0xFFFFFFFF DUP5 AND PUSH1 0x4 DUP3 ADD MSTORE PUSH1 0x24 ADD PUSH2 0x73F JUMP JUMPDEST CALLER PUSH1 0x1 PUSH1 0x1 PUSH1 0xA0 SHL SUB PUSH32 0x0 AND EQ PUSH2 0x14D6 JUMPI PUSH1 0x40 MLOAD PUSH3 0x461BCD PUSH1 0xE5 SHL DUP2 MSTORE PUSH1 0x20 PUSH1 0x4 DUP3 ADD MSTORE PUSH1 0x2B PUSH1 0x24 DUP3 ADD MSTORE PUSH32 0x536C696365436F72653A206C7A52656365697665206E6F742063616C6C656420 PUSH1 0x44 DUP3 ADD MSTORE PUSH11 0x189E48195B991C1BDA5B9D PUSH1 0xAA SHL PUSH1 0x64 DUP3 ADD MSTORE PUSH1 0x84 ADD PUSH2 0x73F JUMP JUMPDEST PUSH1 0x20 DUP8 ADD CALLDATALOAD PUSH1 0x1 PUSH1 0x1 PUSH1 0xA0 SHL SUB AND ADDRESS EQ PUSH2 0x1558 JUMPI PUSH1 0x40 MLOAD PUSH3 0x461BCD PUSH1 0xE5 SHL DUP2 MSTORE PUSH1 0x20 PUSH1 0x4 DUP3 ADD MSTORE PUSH1 0x38 PUSH1 0x24 DUP3 ADD MSTORE PUSH32 0x536C696365436F72653A206C7A53656E64206E6F7420696E6974696174656420 PUSH1 0x44 DUP3 ADD MSTORE PUSH32 0x62792063726F73732D636861696E20536C696365436F72650000000000000000 PUSH1 0x64 DUP3 ADD MSTORE PUSH1 0x84 ADD PUSH2 0x73F JUMP JUMPDEST PUSH0 PUSH2 0x1565 DUP6 DUP8 ADD DUP8 PUSH2 0x2EB7 JUMP JUMPDEST DUP1 MLOAD PUSH0 SWAP1 DUP2 MSTORE PUSH1 0xC PUSH1 0x20 SWAP1 DUP2 MSTORE PUSH1 0x40 DUP1 DUP4 KECCAK256 DUP2 MLOAD PUSH1 0x80 DUP2 ADD DUP4 MSTORE DUP2 SLOAD PUSH1 0x1 PUSH1 0x1 PUSH1 0xA0 SHL SUB SWAP1 DUP2 AND DUP1 DUP4 MSTORE PUSH1 0x1 DUP5 ADD SLOAD DUP4 DUP8 ADD MSTORE PUSH1 0x2 DUP5 ADD SLOAD DUP4 DUP7 ADD MSTORE PUSH1 0x3 SWAP1 SWAP4 ADD SLOAD AND PUSH1 0x60 DUP3 ADD MSTORE SWAP1 DUP5 MSTORE PUSH1 0x9 SWAP1 SWAP3 MSTORE SWAP1 SWAP2 KECCAK256 SLOAD SWAP2 SWAP3 POP SWAP1 PUSH1 0xFF AND PUSH2 0x160C JUMPI PUSH1 0x40 MLOAD PUSH3 0x461BCD PUSH1 0xE5 SHL DUP2 MSTORE PUSH1 0x20 PUSH1 0x4 DUP3 ADD MSTORE PUSH1 0x1A PUSH1 0x24 DUP3 ADD MSTORE PUSH32 0x536C696365436F72653A20556E6B6E6F776E206D696E74204944000000000000 PUSH1 0x44 DUP3 ADD MSTORE PUSH1 0x64 ADD PUSH2 0x73F JUMP JUMPDEST DUP2 PUSH1 0x20 ADD MLOAD PUSH2 0x1668 JUMPI PUSH1 0x40 MLOAD PUSH3 0x461BCD PUSH1 0xE5 SHL DUP2 MSTORE PUSH1 0x20 PUSH1 0x4 DUP3 ADD MSTORE PUSH1 0x22 PUSH1 0x24 DUP3 ADD MSTORE PUSH32 0x536C696365436F72653A2043726F73732D636861696E2073776170206661696C PUSH1 0x44 DUP3 ADD MSTORE PUSH2 0x1959 PUSH1 0xF2 SHL PUSH1 0x64 DUP3 ADD MSTORE PUSH1 0x84 ADD PUSH2 0x73F JUMP JUMPDEST DUP2 MLOAD PUSH0 SWAP1 DUP2 MSTORE PUSH1 0xC PUSH1 0x20 MSTORE PUSH1 0x40 DUP2 KECCAK256 PUSH1 0x1 ADD DUP1 SLOAD SWAP2 PUSH2 0x1686 DUP4 PUSH2 0x2BE9 JUMP JUMPDEST SWAP1 SWAP2 SSTORE POP POP DUP2 MLOAD PUSH2 0x1696 SWAP1 PUSH2 0x1C33 JUMP JUMPDEST ISZERO PUSH2 0x13D0 JUMPI DUP1 PUSH1 0x60 ADD MLOAD PUSH1 0x1 PUSH1 0x1 PUSH1 0xA0 SHL SUB AND DUP2 PUSH1 0x40 ADD MLOAD CALLER PUSH1 0x1 PUSH1 0x1 PUSH1 0xA0 SHL SUB AND PUSH32 0x57906F264053DF400DECF287D5DF71541AB514D475435B80E96A2588B4C4B397 PUSH1 0x40 MLOAD PUSH1 0x40 MLOAD DUP1 SWAP2 SUB SWAP1 LOG4 DUP2 MLOAD PUSH1 0x40 MLOAD PUSH3 0x5D483 PUSH1 0xED SHL DUP2 MSTORE PUSH1 0x4 DUP2 ADD SWAP2 SWAP1 SWAP2 MSTORE CALLER SWAP1 PUSH4 0xBA906000 SWAP1 PUSH1 0x24 ADD PUSH0 PUSH1 0x40 MLOAD DUP1 DUP4 SUB DUP2 PUSH0 DUP8 DUP1 EXTCODESIZE ISZERO DUP1 ISZERO PUSH2 0x171C JUMPI PUSH0 DUP1 REVERT JUMPDEST POP GAS CALL ISZERO DUP1 ISZERO PUSH2 0x172E JUMPI RETURNDATASIZE PUSH0 DUP1 RETURNDATACOPY RETURNDATASIZE PUSH0 REVERT JUMPDEST POP POP POP POP POP POP POP POP POP POP POP POP POP JUMP JUMPDEST PUSH0 SLOAD PUSH1 0x1 PUSH1 0x1 PUSH1 0xA0 SHL SUB AND CALLER EQ PUSH2 0xE54 JUMPI PUSH1 0x40 MLOAD PUSH4 0x118CDAA7 PUSH1 0xE0 SHL DUP2 MSTORE CALLER PUSH1 0x4 DUP3 ADD MSTORE PUSH1 0x24 ADD PUSH2 0x73F JUMP JUMPDEST PUSH0 DUP1 JUMPDEST DUP3 MLOAD DUP2 LT ISZERO PUSH2 0x17A4 JUMPI DUP3 DUP2 DUP2 MLOAD DUP2 LT PUSH2 0x1787 JUMPI PUSH2 0x1787 PUSH2 0x2DB2 JUMP JUMPDEST PUSH1 0x20 MUL PUSH1 0x20 ADD ADD MLOAD DUP3 PUSH2 0x179A SWAP2 SWAP1 PUSH2 0x2EED JUMP JUMPDEST SWAP2 POP PUSH1 0x1 ADD PUSH2 0x176C JUMP JUMPDEST POP SWAP2 SWAP1 POP JUMP JUMPDEST PUSH1 0x2 SLOAD PUSH1 0x3 SLOAD PUSH1 0x40 MLOAD PUSH4 0x95EA7B3 PUSH1 0xE0 SHL DUP2 MSTORE PUSH1 0x1 PUSH1 0x1 PUSH1 0xA0 SHL SUB SWAP2 DUP3 AND PUSH1 0x4 DUP3 ADD MSTORE PUSH1 0x24 DUP2 ADD DUP7 SWAP1 MSTORE PUSH0 SWAP3 SWAP2 SWAP1 SWAP2 AND SWAP1 PUSH4 0x95EA7B3 SWAP1 PUSH1 0x44 ADD PUSH1 0x20 PUSH1 0x40 MLOAD DUP1 DUP4 SUB DUP2 PUSH0 DUP8 GAS CALL ISZERO DUP1 ISZERO PUSH2 0x1800 JUMPI RETURNDATASIZE PUSH0 DUP1 RETURNDATACOPY RETURNDATASIZE PUSH0 REVERT JUMPDEST POP POP POP POP PUSH1 0x40 MLOAD RETURNDATASIZE PUSH1 0x1F NOT PUSH1 0x1F DUP3 ADD AND DUP3 ADD DUP1 PUSH1 0x40 MSTORE POP DUP2 ADD SWAP1 PUSH2 0x1824 SWAP2 SWAP1 PUSH2 0x2F00 JUMP JUMPDEST POP PUSH1 0x40 DUP4 ADD MLOAD DUP5 SWAP1 PUSH0 SWAP1 PUSH2 0x1839 SWAP1 DUP9 SWAP1 PUSH2 0x2F1B JUMP JUMPDEST PUSH1 0x40 DUP1 MLOAD PUSH1 0xC0 DUP2 ADD DUP3 MSTORE PUSH1 0x2 SLOAD PUSH1 0x1 PUSH1 0x1 PUSH1 0xA0 SHL SUB SWAP1 DUP2 AND DUP3 MSTORE PUSH1 0x20 DUP1 DUP4 ADD DUP8 SWAP1 MSTORE DUP10 DUP2 ADD MLOAD DUP3 AND DUP4 DUP6 ADD MSTORE PUSH1 0x60 DUP4 ADD DUP6 SWAP1 MSTORE SWAP1 DUP13 AND PUSH1 0x80 DUP4 ADD MSTORE PUSH1 0xA0 DUP3 ADD DUP9 SWAP1 MSTORE SWAP2 MLOAD SWAP3 SWAP4 POP SWAP2 PUSH0 SWAP2 PUSH2 0x188F SWAP2 DUP5 SWAP2 ADD PUSH2 0x2F60 JUMP JUMPDEST PUSH1 0x40 DUP1 MLOAD PUSH1 0x1F NOT DUP2 DUP5 SUB ADD DUP2 MSTORE SWAP1 DUP3 SWAP1 MSTORE PUSH1 0x3 SLOAD PUSH4 0x313EEAB5 PUSH1 0xE1 SHL DUP4 MSTORE SWAP1 SWAP3 POP PUSH1 0x1 PUSH1 0x1 PUSH1 0xA0 SHL SUB AND SWAP1 PUSH4 0x627DD56A SWAP1 PUSH2 0x18CE SWAP1 DUP5 SWAP1 PUSH1 0x4 ADD PUSH2 0x2FBA JUMP JUMPDEST PUSH0 PUSH1 0x40 MLOAD DUP1 DUP4 SUB DUP2 PUSH0 DUP8 DUP1 EXTCODESIZE ISZERO DUP1 ISZERO PUSH2 0x18E5 JUMPI PUSH0 DUP1 REVERT JUMPDEST POP GAS CALL ISZERO DUP1 ISZERO PUSH2 0x18F7 JUMPI RETURNDATASIZE PUSH0 DUP1 RETURNDATACOPY RETURNDATASIZE PUSH0 REVERT JUMPDEST POP POP POP POP PUSH1 0x20 DUP8 ADD MLOAD PUSH1 0x40 MLOAD PUSH4 0x70A08231 PUSH1 0xE0 SHL DUP2 MSTORE PUSH1 0x1 PUSH1 0x1 PUSH1 0xA0 SHL SUB DUP13 DUP2 AND PUSH1 0x4 DUP4 ADD MSTORE PUSH0 SWAP3 AND SWAP1 PUSH4 0x70A08231 SWAP1 PUSH1 0x24 ADD PUSH1 0x20 PUSH1 0x40 MLOAD DUP1 DUP4 SUB DUP2 DUP7 GAS STATICCALL ISZERO DUP1 ISZERO PUSH2 0x1945 JUMPI RETURNDATASIZE PUSH0 DUP1 RETURNDATACOPY RETURNDATASIZE PUSH0 REVERT JUMPDEST POP POP POP POP PUSH1 0x40 MLOAD RETURNDATASIZE PUSH1 0x1F NOT PUSH1 0x1F DUP3 ADD AND DUP3 ADD DUP1 PUSH1 0x40 MSTORE POP DUP2 ADD SWAP1 PUSH2 0x1969 SWAP2 SWAP1 PUSH2 0x2C01 JUMP JUMPDEST PUSH1 0x40 DUP10 ADD MLOAD GT ISZERO SWAP6 POP POP POP POP POP POP SWAP6 SWAP5 POP POP POP POP POP JUMP JUMPDEST PUSH1 0x2 SLOAD PUSH1 0x3 SLOAD PUSH1 0x40 MLOAD PUSH4 0x95EA7B3 PUSH1 0xE0 SHL DUP2 MSTORE PUSH1 0x1 PUSH1 0x1 PUSH1 0xA0 SHL SUB SWAP2 DUP3 AND PUSH1 0x4 DUP3 ADD MSTORE PUSH1 0x24 DUP2 ADD DUP8 SWAP1 MSTORE SWAP2 AND SWAP1 PUSH4 0x95EA7B3 SWAP1 PUSH1 0x44 ADD PUSH1 0x20 PUSH1 0x40 MLOAD DUP1 DUP4 SUB DUP2 PUSH0 DUP8 GAS CALL ISZERO DUP1 ISZERO PUSH2 0x19D2 JUMPI RETURNDATASIZE PUSH0 DUP1 RETURNDATACOPY RETURNDATASIZE PUSH0 REVERT JUMPDEST POP POP POP POP PUSH1 0x40 MLOAD RETURNDATASIZE PUSH1 0x1F NOT PUSH1 0x1F DUP3 ADD AND DUP3 ADD DUP1 PUSH1 0x40 MSTORE POP DUP2 ADD SWAP1 PUSH2 0x19F6 SWAP2 SWAP1 PUSH2 0x2F00 JUMP JUMPDEST POP PUSH0 DUP6 DUP5 PUSH1 0x40 ADD MLOAD PUSH2 0x1A08 SWAP2 SWAP1 PUSH2 0x2F1B JUMP JUMPDEST PUSH1 0x2 SLOAD PUSH1 0x20 DUP7 ADD MLOAD SWAP2 SWAP3 POP PUSH0 SWAP2 PUSH2 0x1A2B SWAP2 PUSH1 0x1 PUSH1 0x1 PUSH1 0xA0 SHL SUB AND SWAP1 DUP5 DUP12 DUP8 PUSH2 0x1E38 JUMP JUMPDEST SWAP1 POP PUSH0 PUSH2 0x1A42 DUP11 DUP8 PUSH1 0x20 ADD MLOAD DUP6 DUP9 PUSH1 0x60 ADD MLOAD PUSH2 0x1EAC JUMP JUMPDEST PUSH1 0x6 SLOAD DUP8 MLOAD PUSH1 0x40 MLOAD PUSH4 0x2013A8CD PUSH1 0xE2 SHL DUP2 MSTORE SWAP3 SWAP4 POP PUSH0 SWAP3 PUSH1 0x1 PUSH1 0x1 PUSH1 0xA0 SHL SUB SWAP1 SWAP3 AND SWAP2 PUSH4 0x804EA334 SWAP2 PUSH2 0x1A7B SWAP2 PUSH1 0x4 ADD SWAP1 DUP2 MSTORE PUSH1 0x20 ADD SWAP1 JUMP JUMPDEST PUSH1 0x80 PUSH1 0x40 MLOAD DUP1 DUP4 SUB DUP2 DUP7 GAS STATICCALL ISZERO DUP1 ISZERO PUSH2 0x1A96 JUMPI RETURNDATASIZE PUSH0 DUP1 RETURNDATACOPY RETURNDATASIZE PUSH0 REVERT JUMPDEST POP POP POP POP PUSH1 0x40 MLOAD RETURNDATASIZE PUSH1 0x1F NOT PUSH1 0x1F DUP3 ADD AND DUP3 ADD DUP1 PUSH1 0x40 MSTORE POP DUP2 ADD SWAP1 PUSH2 0x1ABA SWAP2 SWAP1 PUSH2 0x2E5E JUMP JUMPDEST SWAP1 POP PUSH0 PUSH2 0x1ACD DUP3 PUSH1 0x40 ADD MLOAD DUP13 DUP7 DUP7 PUSH2 0x1F4A JUMP JUMPDEST SWAP1 POP PUSH2 0x1B04 PUSH1 0x40 MLOAD DUP1 PUSH1 0x40 ADD PUSH1 0x40 MSTORE DUP1 PUSH1 0x14 DUP2 MSTORE PUSH1 0x20 ADD PUSH20 0x61626F757420746F2063616C6C20627269646765 PUSH1 0x60 SHL DUP2 MSTORE POP PUSH2 0x1FFF JUMP JUMPDEST PUSH1 0x3 SLOAD PUSH1 0x40 DUP1 MLOAD PUSH1 0xC0 DUP2 ADD DUP3 MSTORE PUSH0 DUP2 MSTORE PUSH1 0x4 SLOAD PUSH1 0x1 PUSH1 0x1 PUSH1 0xA0 SHL SUB SWAP1 DUP2 AND PUSH1 0x20 DUP4 ADD MSTORE PUSH1 0x2 SLOAD DUP2 AND DUP3 DUP5 ADD MSTORE PUSH1 0x60 DUP3 ADD DUP14 SWAP1 MSTORE ADDRESS PUSH1 0x80 DUP4 ADD MSTORE SWAP2 DUP6 ADD MLOAD SWAP2 SWAP1 SWAP3 AND SWAP2 PUSH4 0xBCC53325 SWAP2 DUP5 SWAP2 SWAP1 PUSH1 0xA0 DUP3 ADD SWAP1 PUSH2 0x1BD2 SWAP1 DUP16 PUSH3 0x3D090 PUSH1 0x2 SLOAD PUSH1 0x4 SLOAD PUSH1 0x40 DUP1 MLOAD PUSH2 0xFFFF SWAP7 SWAP1 SWAP7 AND PUSH1 0x20 DUP8 ADD MSTORE PUSH1 0x1 PUSH1 0x1 PUSH1 0xA0 SHL SUB SWAP3 DUP4 AND DUP7 DUP3 ADD MSTORE PUSH1 0x1 PUSH1 0x60 DUP8 ADD DUP2 SWAP1 MSTORE PUSH1 0x80 DUP8 ADD MSTORE PUSH1 0xA0 DUP7 ADD SWAP5 SWAP1 SWAP5 MSTORE PUSH0 PUSH1 0xC0 DUP7 ADD DUP2 SWAP1 MSTORE PUSH1 0xE0 DUP7 ADD MSTORE AND PUSH2 0x100 DUP5 ADD MSTORE ADDRESS PUSH2 0x120 DUP5 ADD MSTORE PUSH2 0x140 DUP1 DUP5 ADD SWAP2 SWAP1 SWAP2 MSTORE DUP2 MLOAD DUP1 DUP5 SUB SWAP1 SWAP2 ADD DUP2 MSTORE PUSH2 0x160 SWAP1 SWAP3 ADD SWAP1 MSTORE SWAP1 JUMP JUMPDEST DUP2 MSTORE POP ADDRESS DUP9 DUP9 PUSH1 0x40 MLOAD DUP7 PUSH4 0xFFFFFFFF AND PUSH1 0xE0 SHL DUP2 MSTORE PUSH1 0x4 ADD PUSH2 0x1BF7 SWAP5 SWAP4 SWAP3 SWAP2 SWAP1 PUSH2 0x2FCC JUMP JUMPDEST PUSH0 PUSH1 0x40 MLOAD DUP1 DUP4 SUB DUP2 DUP6 DUP9 DUP1 EXTCODESIZE ISZERO DUP1 ISZERO PUSH2 0x1C0E JUMPI PUSH0 DUP1 REVERT JUMPDEST POP GAS CALL ISZERO DUP1 ISZERO PUSH2 0x1C20 JUMPI RETURNDATASIZE PUSH0 DUP1 RETURNDATACOPY RETURNDATASIZE PUSH0 REVERT JUMPDEST POP POP POP POP POP POP POP POP POP POP POP POP POP POP POP POP POP JUMP JUMPDEST PUSH0 DUP2 DUP2 MSTORE PUSH1 0xC PUSH1 0x20 SWAP1 DUP2 MSTORE PUSH1 0x40 DUP1 DUP4 KECCAK256 DUP2 MLOAD PUSH1 0x80 DUP2 ADD DUP4 MSTORE DUP2 SLOAD PUSH1 0x1 PUSH1 0x1 PUSH1 0xA0 SHL SUB SWAP1 DUP2 AND DUP1 DUP4 MSTORE PUSH1 0x1 DUP5 ADD SLOAD DUP4 DUP8 ADD MSTORE PUSH1 0x2 DUP5 ADD SLOAD DUP4 DUP7 ADD MSTORE PUSH1 0x3 SWAP1 SWAP4 ADD SLOAD AND PUSH1 0x60 DUP3 ADD MSTORE DUP3 MLOAD PUSH4 0xE02B79F9 PUSH1 0xE0 SHL DUP2 MSTORE SWAP3 MLOAD SWAP1 SWAP4 DUP6 SWAP4 PUSH4 0xE02B79F9 SWAP3 PUSH1 0x4 DUP1 DUP4 ADD SWAP4 SWAP3 DUP3 SWAP1 SUB ADD DUP2 DUP7 GAS STATICCALL ISZERO DUP1 ISZERO PUSH2 0x1CAF JUMPI RETURNDATASIZE PUSH0 DUP1 RETURNDATACOPY RETURNDATASIZE PUSH0 REVERT JUMPDEST POP POP POP POP PUSH1 0x40 MLOAD RETURNDATASIZE PUSH1 0x1F NOT PUSH1 0x1F DUP3 ADD AND DUP3 ADD DUP1 PUSH1 0x40 MSTORE POP DUP2 ADD SWAP1 PUSH2 0x1CD3 SWAP2 SWAP1 PUSH2 0x2C01 JUMP JUMPDEST PUSH1 0x20 SWAP1 SWAP3 ADD MLOAD SWAP1 SWAP2 EQ SWAP4 SWAP3 POP POP POP JUMP JUMPDEST PUSH0 DUP1 SLOAD PUSH1 0x1 PUSH1 0x1 PUSH1 0xA0 SHL SUB DUP4 DUP2 AND PUSH1 0x1 PUSH1 0x1 PUSH1 0xA0 SHL SUB NOT DUP4 AND DUP2 OR DUP5 SSTORE PUSH1 0x40 MLOAD SWAP2 SWAP1 SWAP3 AND SWAP3 DUP4 SWAP2 PUSH32 0x8BE0079C531659141344CD1FD0A4F28419497F9722A3DAAFE3B4186F6B6457E0 SWAP2 SWAP1 LOG3 POP POP JUMP JUMPDEST PUSH2 0x1D3A PUSH2 0x2375 JUMP JUMPDEST PUSH0 PUSH2 0x1D47 DUP5 PUSH0 ADD MLOAD PUSH2 0x2042 JUMP JUMPDEST PUSH1 0x20 DUP6 ADD MLOAD SWAP1 SWAP2 POP ISZERO PUSH2 0x1D61 JUMPI PUSH2 0x1D61 DUP5 PUSH1 0x20 ADD MLOAD PUSH2 0x2069 JUMP JUMPDEST PUSH32 0x0 PUSH1 0x1 PUSH1 0x1 PUSH1 0xA0 SHL SUB AND PUSH4 0x2637A450 DUP3 PUSH1 0x40 MLOAD DUP1 PUSH1 0xA0 ADD PUSH1 0x40 MSTORE DUP1 DUP12 PUSH4 0xFFFFFFFF AND DUP2 MSTORE PUSH1 0x20 ADD PUSH2 0x1DB1 DUP13 PUSH2 0x140F JUMP JUMPDEST DUP2 MSTORE PUSH1 0x20 ADD DUP11 DUP2 MSTORE PUSH1 0x20 ADD DUP10 DUP2 MSTORE PUSH1 0x20 ADD PUSH0 DUP10 PUSH1 0x20 ADD MLOAD GT ISZERO ISZERO DUP2 MSTORE POP DUP7 PUSH1 0x40 MLOAD DUP5 PUSH4 0xFFFFFFFF AND PUSH1 0xE0 SHL DUP2 MSTORE PUSH1 0x4 ADD PUSH2 0x1DEC SWAP3 SWAP2 SWAP1 PUSH2 0x306A JUMP JUMPDEST PUSH1 0x80 PUSH1 0x40 MLOAD DUP1 DUP4 SUB DUP2 DUP6 DUP9 GAS CALL ISZERO DUP1 ISZERO PUSH2 0x1E08 JUMPI RETURNDATASIZE PUSH0 DUP1 RETURNDATACOPY RETURNDATASIZE PUSH0 REVERT JUMPDEST POP POP POP POP POP PUSH1 0x40 MLOAD RETURNDATASIZE PUSH1 0x1F NOT PUSH1 0x1F DUP3 ADD AND DUP3 ADD DUP1 PUSH1 0x40 MSTORE POP DUP2 ADD SWAP1 PUSH2 0x1E2D SWAP2 SWAP1 PUSH2 0x30E2 JUMP JUMPDEST SWAP8 SWAP7 POP POP POP POP POP POP POP JUMP JUMPDEST PUSH1 0x60 PUSH1 0x40 MLOAD DUP1 PUSH1 0xC0 ADD PUSH1 0x40 MSTORE DUP1 DUP8 PUSH1 0x1 PUSH1 0x1 PUSH1 0xA0 SHL SUB AND DUP2 MSTORE PUSH1 0x20 ADD PUSH0 DUP2 MSTORE PUSH1 0x20 ADD DUP7 PUSH1 0x1 PUSH1 0x1 PUSH1 0xA0 SHL SUB AND DUP2 MSTORE PUSH1 0x20 ADD DUP6 DUP2 MSTORE PUSH1 0x20 ADD DUP5 PUSH1 0x1 PUSH1 0x1 PUSH1 0xA0 SHL SUB AND DUP2 MSTORE PUSH1 0x20 ADD DUP4 DUP2 MSTORE POP PUSH1 0x40 MLOAD PUSH1 0x20 ADD PUSH2 0x1E92 SWAP2 SWAP1 PUSH2 0x2F60 JUMP JUMPDEST PUSH1 0x40 MLOAD PUSH1 0x20 DUP2 DUP4 SUB SUB DUP2 MSTORE SWAP1 PUSH1 0x40 MSTORE SWAP1 POP SWAP6 SWAP5 POP POP POP POP POP JUMP JUMPDEST PUSH1 0x60 PUSH1 0x40 MLOAD DUP1 PUSH1 0x60 ADD PUSH1 0x40 MSTORE DUP1 ADDRESS PUSH1 0x1 PUSH1 0x1 PUSH1 0xA0 SHL SUB AND DUP2 MSTORE PUSH1 0x20 ADD PUSH3 0x186A0 DUP2 MSTORE PUSH1 0x20 ADD PUSH1 0x40 MLOAD DUP1 PUSH1 0xA0 ADD PUSH1 0x40 MSTORE DUP1 CHAINID DUP2 MSTORE PUSH1 0x20 ADD DUP9 DUP2 MSTORE PUSH1 0x20 ADD DUP8 PUSH1 0x1 PUSH1 0x1 PUSH1 0xA0 SHL SUB AND DUP2 MSTORE PUSH1 0x20 ADD DUP7 DUP2 MSTORE PUSH1 0x20 ADD DUP6 DUP2 MSTORE POP PUSH1 0x40 MLOAD PUSH1 0x20 ADD PUSH2 0x1F11 SWAP2 SWAP1 PUSH2 0x3158 JUMP JUMPDEST PUSH1 0x40 DUP1 MLOAD PUSH1 0x1F NOT DUP2 DUP5 SUB ADD DUP2 MSTORE SWAP2 DUP2 MSTORE SWAP2 MSTORE MLOAD PUSH2 0x1F31 SWAP2 SWAP1 PUSH1 0x20 ADD PUSH2 0x31A2 JUMP JUMPDEST PUSH1 0x40 MLOAD PUSH1 0x20 DUP2 DUP4 SUB SUB DUP2 MSTORE SWAP1 PUSH1 0x40 MSTORE SWAP1 POP SWAP5 SWAP4 POP POP POP POP JUMP JUMPDEST PUSH1 0x4 SLOAD PUSH1 0x40 MLOAD PUSH0 SWAP2 DUP3 SWAP2 PUSH1 0x1 PUSH1 0x1 PUSH1 0xA0 SHL SUB SWAP1 SWAP2 AND SWAP1 PUSH4 0x6CE4FE03 SWAP1 DUP9 SWAP1 PUSH1 0x1 SWAP1 DUP5 SWAP1 PUSH3 0x3D090 SWAP1 DUP8 SWAP1 PUSH2 0x1F86 SWAP1 DUP14 SWAP1 DUP14 SWAP1 DUP14 SWAP1 PUSH1 0x20 ADD PUSH2 0x31D8 JUMP JUMPDEST PUSH1 0x40 MLOAD PUSH1 0x20 DUP2 DUP4 SUB SUB DUP2 MSTORE SWAP1 PUSH1 0x40 MSTORE PUSH1 0x40 MLOAD DUP8 PUSH4 0xFFFFFFFF AND PUSH1 0xE0 SHL DUP2 MSTORE PUSH1 0x4 ADD PUSH2 0x1FB6 SWAP7 SWAP6 SWAP5 SWAP4 SWAP3 SWAP2 SWAP1 PUSH2 0x320D JUMP JUMPDEST PUSH1 0x40 DUP1 MLOAD DUP1 DUP4 SUB DUP2 DUP7 GAS STATICCALL ISZERO DUP1 ISZERO PUSH2 0x1FD0 JUMPI RETURNDATASIZE PUSH0 DUP1 RETURNDATACOPY RETURNDATASIZE PUSH0 REVERT JUMPDEST POP POP POP POP PUSH1 0x40 MLOAD RETURNDATASIZE PUSH1 0x1F NOT PUSH1 0x1F DUP3 ADD AND DUP3 ADD DUP1 PUSH1 0x40 MSTORE POP DUP2 ADD SWAP1 PUSH2 0x1FF4 SWAP2 SWAP1 PUSH2 0x3258 JUMP JUMPDEST POP SWAP7 SWAP6 POP POP POP POP POP POP JUMP JUMPDEST PUSH2 0x1213 DUP2 PUSH1 0x40 MLOAD PUSH1 0x24 ADD PUSH2 0x2013 SWAP2 SWAP1 PUSH2 0x2FBA JUMP JUMPDEST PUSH1 0x40 DUP1 MLOAD PUSH1 0x1F NOT DUP2 DUP5 SUB ADD DUP2 MSTORE SWAP2 SWAP1 MSTORE PUSH1 0x20 DUP2 ADD DUP1 MLOAD PUSH1 0x1 PUSH1 0x1 PUSH1 0xE0 SHL SUB AND PUSH4 0x104C13EB PUSH1 0xE2 SHL OR SWAP1 MSTORE PUSH2 0x2148 JUMP JUMPDEST PUSH0 DUP2 CALLVALUE EQ PUSH2 0x2065 JUMPI PUSH1 0x40 MLOAD PUSH4 0x4FB8209 PUSH1 0xE5 SHL DUP2 MSTORE CALLVALUE PUSH1 0x4 DUP3 ADD MSTORE PUSH1 0x24 ADD PUSH2 0x73F JUMP JUMPDEST POP SWAP1 JUMP JUMPDEST PUSH0 PUSH32 0x0 PUSH1 0x1 PUSH1 0x1 PUSH1 0xA0 SHL SUB AND PUSH4 0xE4FE1D94 PUSH1 0x40 MLOAD DUP2 PUSH4 0xFFFFFFFF AND PUSH1 0xE0 SHL DUP2 MSTORE PUSH1 0x4 ADD PUSH1 0x20 PUSH1 0x40 MLOAD DUP1 DUP4 SUB DUP2 DUP7 GAS STATICCALL ISZERO DUP1 ISZERO PUSH2 0x20C6 JUMPI RETURNDATASIZE PUSH0 DUP1 RETURNDATACOPY RETURNDATASIZE PUSH0 REVERT JUMPDEST POP POP POP POP PUSH1 0x40 MLOAD RETURNDATASIZE PUSH1 0x1F NOT PUSH1 0x1F DUP3 ADD AND DUP3 ADD DUP1 PUSH1 0x40 MSTORE POP DUP2 ADD SWAP1 PUSH2 0x20EA SWAP2 SWAP1 PUSH2 0x327A JUMP JUMPDEST SWAP1 POP PUSH1 0x1 PUSH1 0x1 PUSH1 0xA0 SHL SUB DUP2 AND PUSH2 0x2113 JUMPI PUSH1 0x40 MLOAD PUSH4 0x29B99A95 PUSH1 0xE1 SHL DUP2 MSTORE PUSH1 0x4 ADD PUSH1 0x40 MLOAD DUP1 SWAP2 SUB SWAP1 REVERT JUMPDEST PUSH2 0x4A6 PUSH1 0x1 PUSH1 0x1 PUSH1 0xA0 SHL SUB DUP3 AND CALLER PUSH32 0x0 DUP6 PUSH2 0x2168 JUMP JUMPDEST DUP1 MLOAD PUSH11 0x636F6E736F6C652E6C6F67 PUSH1 0x20 DUP4 ADD PUSH0 DUP1 DUP5 DUP4 DUP6 GAS STATICCALL POP POP POP POP POP JUMP JUMPDEST PUSH1 0x40 DUP1 MLOAD PUSH1 0x1 PUSH1 0x1 PUSH1 0xA0 SHL SUB DUP6 DUP2 AND PUSH1 0x24 DUP4 ADD MSTORE DUP5 AND PUSH1 0x44 DUP3 ADD MSTORE PUSH1 0x64 DUP1 DUP3 ADD DUP5 SWAP1 MSTORE DUP3 MLOAD DUP1 DUP4 SUB SWAP1 SWAP2 ADD DUP2 MSTORE PUSH1 0x84 SWAP1 SWAP2 ADD SWAP1 SWAP2 MSTORE PUSH1 0x20 DUP2 ADD DUP1 MLOAD PUSH1 0x1 PUSH1 0x1 PUSH1 0xE0 SHL SUB AND PUSH4 0x23B872DD PUSH1 0xE0 SHL OR SWAP1 MSTORE PUSH2 0x21C2 SWAP1 DUP6 SWAP1 PUSH2 0x21C8 JUMP JUMPDEST POP POP POP POP JUMP JUMPDEST PUSH0 PUSH2 0x21DC PUSH1 0x1 PUSH1 0x1 PUSH1 0xA0 SHL SUB DUP5 AND DUP4 PUSH2 0x2229 JUMP JUMPDEST SWAP1 POP DUP1 MLOAD PUSH0 EQ ISZERO DUP1 ISZERO PUSH2 0x2200 JUMPI POP DUP1 DUP1 PUSH1 0x20 ADD SWAP1 MLOAD DUP2 ADD SWAP1 PUSH2 0x21FE SWAP2 SWAP1 PUSH2 0x2F00 JUMP JUMPDEST ISZERO JUMPDEST ISZERO PUSH2 0x22F JUMPI PUSH1 0x40 MLOAD PUSH4 0x5274AFE7 PUSH1 0xE0 SHL DUP2 MSTORE PUSH1 0x1 PUSH1 0x1 PUSH1 0xA0 SHL SUB DUP5 AND PUSH1 0x4 DUP3 ADD MSTORE PUSH1 0x24 ADD PUSH2 0x73F JUMP JUMPDEST PUSH1 0x60 PUSH2 0x2236 DUP4 DUP4 PUSH0 PUSH2 0x223D JUMP JUMPDEST SWAP4 SWAP3 POP POP POP JUMP JUMPDEST PUSH1 0x60 DUP2 SELFBALANCE LT ISZERO PUSH2 0x2262 JUMPI PUSH1 0x40 MLOAD PUSH4 0xCD786059 PUSH1 0xE0 SHL DUP2 MSTORE ADDRESS PUSH1 0x4 DUP3 ADD MSTORE PUSH1 0x24 ADD PUSH2 0x73F JUMP JUMPDEST PUSH0 DUP1 DUP6 PUSH1 0x1 PUSH1 0x1 PUSH1 0xA0 SHL SUB AND DUP5 DUP7 PUSH1 0x40 MLOAD PUSH2 0x227D SWAP2 SWAP1 PUSH2 0x3295 JUMP JUMPDEST PUSH0 PUSH1 0x40 MLOAD DUP1 DUP4 SUB DUP2 DUP6 DUP8 GAS CALL SWAP3 POP POP POP RETURNDATASIZE DUP1 PUSH0 DUP2 EQ PUSH2 0x22B7 JUMPI PUSH1 0x40 MLOAD SWAP2 POP PUSH1 0x1F NOT PUSH1 0x3F RETURNDATASIZE ADD AND DUP3 ADD PUSH1 0x40 MSTORE RETURNDATASIZE DUP3 MSTORE RETURNDATASIZE PUSH0 PUSH1 0x20 DUP5 ADD RETURNDATACOPY PUSH2 0x22BC JUMP JUMPDEST PUSH1 0x60 SWAP2 POP JUMPDEST POP SWAP2 POP SWAP2 POP PUSH2 0x22CC DUP7 DUP4 DUP4 PUSH2 0x22D6 JUMP JUMPDEST SWAP7 SWAP6 POP POP POP POP POP POP JUMP JUMPDEST PUSH1 0x60 DUP3 PUSH2 0x22EB JUMPI PUSH2 0x22E6 DUP3 PUSH2 0x2332 JUMP JUMPDEST PUSH2 0x2236 JUMP JUMPDEST DUP2 MLOAD ISZERO DUP1 ISZERO PUSH2 0x2302 JUMPI POP PUSH1 0x1 PUSH1 0x1 PUSH1 0xA0 SHL SUB DUP5 AND EXTCODESIZE ISZERO JUMPDEST ISZERO PUSH2 0x232B JUMPI PUSH1 0x40 MLOAD PUSH4 0x9996B315 PUSH1 0xE0 SHL DUP2 MSTORE PUSH1 0x1 PUSH1 0x1 PUSH1 0xA0 SHL SUB DUP6 AND PUSH1 0x4 DUP3 ADD MSTORE PUSH1 0x24 ADD PUSH2 0x73F JUMP JUMPDEST POP DUP1 PUSH2 0x2236 JUMP JUMPDEST DUP1 MLOAD ISZERO PUSH2 0x2342 JUMPI DUP1 MLOAD DUP1 DUP3 PUSH1 0x20 ADD REVERT JUMPDEST PUSH1 0x40 MLOAD PUSH4 0xA12F521 PUSH1 0xE1 SHL DUP2 MSTORE PUSH1 0x4 ADD PUSH1 0x40 MLOAD DUP1 SWAP2 SUB SWAP1 REVERT JUMPDEST PUSH2 0x19E2 DUP1 PUSH2 0x32AC DUP4 CODECOPY ADD SWAP1 JUMP JUMPDEST PUSH2 0xFCA DUP1 PUSH2 0x4C8E DUP4 CODECOPY ADD SWAP1 JUMP JUMPDEST PUSH1 0x40 MLOAD DUP1 PUSH1 0x60 ADD PUSH1 0x40 MSTORE DUP1 PUSH0 DUP1 NOT AND DUP2 MSTORE PUSH1 0x20 ADD PUSH0 PUSH1 0x1 PUSH1 0x1 PUSH1 0x40 SHL SUB AND DUP2 MSTORE PUSH1 0x20 ADD PUSH2 0x23B3 PUSH1 0x40 MLOAD DUP1 PUSH1 0x40 ADD PUSH1 0x40 MSTORE DUP1 PUSH0 DUP2 MSTORE PUSH1 0x20 ADD PUSH0 DUP2 MSTORE POP SWAP1 JUMP JUMPDEST SWAP1 MSTORE SWAP1 JUMP JUMPDEST PUSH0 DUP1 DUP4 PUSH1 0x1F DUP5 ADD SLT PUSH2 0x23C8 JUMPI PUSH0 DUP1 REVERT JUMPDEST POP DUP2 CALLDATALOAD PUSH1 0x1 PUSH1 0x1 PUSH1 0x40 SHL SUB DUP2 GT ISZERO PUSH2 0x23DE JUMPI PUSH0 DUP1 REVERT JUMPDEST PUSH1 0x20 DUP4 ADD SWAP2 POP DUP4 PUSH1 0x20 PUSH1 0x60 DUP4 MUL DUP6 ADD ADD GT ISZERO PUSH2 0x23F8 JUMPI PUSH0 DUP1 REVERT JUMPDEST SWAP3 POP SWAP3 SWAP1 POP JUMP JUMPDEST PUSH0 DUP1 PUSH0 PUSH1 0x40 DUP5 DUP7 SUB SLT ISZERO PUSH2 0x2411 JUMPI PUSH0 DUP1 REVERT JUMPDEST DUP4 CALLDATALOAD SWAP3 POP PUSH1 0x20 DUP5 ADD CALLDATALOAD PUSH1 0x1 PUSH1 0x1 PUSH1 0x40 SHL SUB DUP2 GT ISZERO PUSH2 0x242D JUMPI PUSH0 DUP1 REVERT JUMPDEST PUSH2 0x2439 DUP7 DUP3 DUP8 ADD PUSH2 0x23B8 JUMP JUMPDEST SWAP5 SWAP8 SWAP1 SWAP7 POP SWAP4 SWAP5 POP POP POP POP JUMP JUMPDEST PUSH0 PUSH1 0x60 DUP3 DUP5 SUB SLT ISZERO PUSH2 0x17A4 JUMPI PUSH0 DUP1 REVERT JUMPDEST PUSH0 DUP1 DUP4 PUSH1 0x1F DUP5 ADD SLT PUSH2 0x2466 JUMPI PUSH0 DUP1 REVERT JUMPDEST POP DUP2 CALLDATALOAD PUSH1 0x1 PUSH1 0x1 PUSH1 0x40 SHL SUB DUP2 GT ISZERO PUSH2 0x247C JUMPI PUSH0 DUP1 REVERT JUMPDEST PUSH1 0x20 DUP4 ADD SWAP2 POP DUP4 PUSH1 0x20 DUP3 DUP6 ADD ADD GT ISZERO PUSH2 0x23F8 JUMPI PUSH0 DUP1 REVERT JUMPDEST PUSH1 0x1 PUSH1 0x1 PUSH1 0xA0 SHL SUB DUP2 AND DUP2 EQ PUSH2 0x1213 JUMPI PUSH0 DUP1 REVERT JUMPDEST PUSH0 DUP1 PUSH0 DUP1 PUSH0 DUP1 PUSH0 PUSH1 0xE0 DUP9 DUP11 SUB SLT ISZERO PUSH2 0x24BD JUMPI PUSH0 DUP1 REVERT JUMPDEST PUSH2 0x24C7 DUP10 DUP10 PUSH2 0x2446 JUMP JUMPDEST SWAP7 POP PUSH1 0x60 DUP9 ADD CALLDATALOAD SWAP6 POP PUSH1 0x80 DUP9 ADD CALLDATALOAD PUSH1 0x1 PUSH1 0x1 PUSH1 0x40 SHL SUB DUP1 DUP3 GT ISZERO PUSH2 0x24E9 JUMPI PUSH0 DUP1 REVERT JUMPDEST PUSH2 0x24F5 DUP12 DUP4 DUP13 ADD PUSH2 0x2456 JUMP JUMPDEST SWAP1 SWAP8 POP SWAP6 POP PUSH1 0xA0 DUP11 ADD CALLDATALOAD SWAP2 POP PUSH2 0x250A DUP3 PUSH2 0x2493 JUMP JUMPDEST SWAP1 SWAP4 POP PUSH1 0xC0 DUP10 ADD CALLDATALOAD SWAP1 DUP1 DUP3 GT ISZERO PUSH2 0x251F JUMPI PUSH0 DUP1 REVERT JUMPDEST POP PUSH2 0x252C DUP11 DUP3 DUP12 ADD PUSH2 0x2456 JUMP JUMPDEST SWAP9 SWAP12 SWAP8 SWAP11 POP SWAP6 SWAP9 POP SWAP4 SWAP7 SWAP3 SWAP6 SWAP3 SWAP4 POP POP POP JUMP JUMPDEST PUSH0 DUP1 PUSH0 DUP1 PUSH0 DUP1 PUSH1 0x60 DUP8 DUP10 SUB SLT ISZERO PUSH2 0x2554 JUMPI PUSH0 DUP1 REVERT JUMPDEST DUP7 CALLDATALOAD PUSH1 0x1 PUSH1 0x1 PUSH1 0x40 SHL SUB DUP1 DUP3 GT ISZERO PUSH2 0x256A JUMPI PUSH0 DUP1 REVERT JUMPDEST PUSH2 0x2576 DUP11 DUP4 DUP12 ADD PUSH2 0x2456 JUMP JUMPDEST SWAP1 SWAP9 POP SWAP7 POP PUSH1 0x20 DUP10 ADD CALLDATALOAD SWAP2 POP DUP1 DUP3 GT ISZERO PUSH2 0x258E JUMPI PUSH0 DUP1 REVERT JUMPDEST PUSH2 0x259A DUP11 DUP4 DUP12 ADD PUSH2 0x2456 JUMP JUMPDEST SWAP1 SWAP7 POP SWAP5 POP PUSH1 0x40 DUP10 ADD CALLDATALOAD SWAP2 POP DUP1 DUP3 GT ISZERO PUSH2 0x25B2 JUMPI PUSH0 DUP1 REVERT JUMPDEST POP PUSH2 0x25BF DUP10 DUP3 DUP11 ADD PUSH2 0x23B8 JUMP JUMPDEST SWAP8 SWAP11 SWAP7 SWAP10 POP SWAP5 SWAP8 POP SWAP3 SWAP6 SWAP4 SWAP5 SWAP3 POP POP POP JUMP JUMPDEST PUSH4 0xFFFFFFFF DUP2 AND DUP2 EQ PUSH2 0x1213 JUMPI PUSH0 DUP1 REVERT JUMPDEST PUSH0 DUP1 PUSH1 0x40 DUP4 DUP6 SUB SLT ISZERO PUSH2 0x25F3 JUMPI PUSH0 DUP1 REVERT JUMPDEST DUP3 CALLDATALOAD PUSH2 0x25FE DUP2 PUSH2 0x25D1 JUMP JUMPDEST SWAP5 PUSH1 0x20 SWAP4 SWAP1 SWAP4 ADD CALLDATALOAD SWAP4 POP POP POP JUMP JUMPDEST PUSH4 0x4E487B71 PUSH1 0xE0 SHL PUSH0 MSTORE PUSH1 0x41 PUSH1 0x4 MSTORE PUSH1 0x24 PUSH0 REVERT JUMPDEST PUSH1 0x40 MLOAD PUSH1 0x80 DUP2 ADD PUSH1 0x1 PUSH1 0x1 PUSH1 0x40 SHL SUB DUP2 GT DUP3 DUP3 LT OR ISZERO PUSH2 0x2642 JUMPI PUSH2 0x2642 PUSH2 0x260C JUMP JUMPDEST PUSH1 0x40 MSTORE SWAP1 JUMP JUMPDEST PUSH1 0x40 MLOAD PUSH1 0x60 DUP2 ADD PUSH1 0x1 PUSH1 0x1 PUSH1 0x40 SHL SUB DUP2 GT DUP3 DUP3 LT OR ISZERO PUSH2 0x2642 JUMPI PUSH2 0x2642 PUSH2 0x260C JUMP JUMPDEST PUSH1 0x40 MLOAD PUSH1 0xA0 DUP2 ADD PUSH1 0x1 PUSH1 0x1 PUSH1 0x40 SHL SUB DUP2 GT DUP3 DUP3 LT OR ISZERO PUSH2 0x2642 JUMPI PUSH2 0x2642 PUSH2 0x260C JUMP JUMPDEST PUSH1 0x40 DUP1 MLOAD SWAP1 DUP2 ADD PUSH1 0x1 PUSH1 0x1 PUSH1 0x40 SHL SUB DUP2 GT DUP3 DUP3 LT OR ISZERO PUSH2 0x2642 JUMPI PUSH2 0x2642 PUSH2 0x260C JUMP JUMPDEST PUSH1 0x40 MLOAD PUSH1 0x1F DUP3 ADD PUSH1 0x1F NOT AND DUP2 ADD PUSH1 0x1 PUSH1 0x1 PUSH1 0x40 SHL SUB DUP2 GT DUP3 DUP3 LT OR ISZERO PUSH2 0x26D6 JUMPI PUSH2 0x26D6 PUSH2 0x260C JUMP JUMPDEST PUSH1 0x40 MSTORE SWAP2 SWAP1 POP JUMP JUMPDEST PUSH0 PUSH1 0x1 PUSH1 0x1 PUSH1 0x40 SHL SUB DUP3 GT ISZERO PUSH2 0x26F6 JUMPI PUSH2 0x26F6 PUSH2 0x260C JUMP JUMPDEST POP PUSH1 0x5 SHL PUSH1 0x20 ADD SWAP1 JUMP JUMPDEST PUSH0 PUSH1 0x1 PUSH1 0x1 PUSH1 0x40 SHL SUB DUP3 GT ISZERO PUSH2 0x2718 JUMPI PUSH2 0x2718 PUSH2 0x260C JUMP JUMPDEST POP PUSH1 0x1F ADD PUSH1 0x1F NOT AND PUSH1 0x20 ADD SWAP1 JUMP JUMPDEST PUSH0 DUP3 PUSH1 0x1F DUP4 ADD SLT PUSH2 0x2735 JUMPI PUSH0 DUP1 REVERT JUMPDEST DUP2 CALLDATALOAD PUSH2 0x2748 PUSH2 0x2743 DUP3 PUSH2 0x2700 JUMP JUMPDEST PUSH2 0x26AE JUMP JUMPDEST DUP2 DUP2 MSTORE DUP5 PUSH1 0x20 DUP4 DUP7 ADD ADD GT ISZERO PUSH2 0x275C JUMPI PUSH0 DUP1 REVERT JUMPDEST DUP2 PUSH1 0x20 DUP6 ADD PUSH1 0x20 DUP4 ADD CALLDATACOPY PUSH0 SWAP2 DUP2 ADD PUSH1 0x20 ADD SWAP2 SWAP1 SWAP2 MSTORE SWAP4 SWAP3 POP POP POP JUMP JUMPDEST PUSH0 DUP3 PUSH1 0x1F DUP4 ADD SLT PUSH2 0x2787 JUMPI PUSH0 DUP1 REVERT JUMPDEST DUP2 CALLDATALOAD PUSH1 0x20 PUSH2 0x2797 PUSH2 0x2743 DUP4 PUSH2 0x26DE JUMP JUMPDEST DUP3 DUP2 MSTORE PUSH1 0x5 SWAP3 SWAP1 SWAP3 SHL DUP5 ADD DUP2 ADD SWAP2 DUP2 DUP2 ADD SWAP1 DUP7 DUP5 GT ISZERO PUSH2 0x27B5 JUMPI PUSH0 DUP1 REVERT JUMPDEST DUP3 DUP7 ADD JUMPDEST DUP5 DUP2 LT ISZERO PUSH2 0x1FF4 JUMPI DUP1 CALLDATALOAD PUSH1 0x1 PUSH1 0x1 PUSH1 0x40 SHL SUB DUP2 GT ISZERO PUSH2 0x27D6 JUMPI PUSH0 DUP1 REVERT JUMPDEST PUSH2 0x27E4 DUP10 DUP7 DUP4 DUP12 ADD ADD PUSH2 0x2726 JUMP JUMPDEST DUP5 MSTORE POP SWAP2 DUP4 ADD SWAP2 DUP4 ADD PUSH2 0x27B9 JUMP JUMPDEST PUSH0 DUP1 PUSH0 DUP1 PUSH1 0x80 DUP6 DUP8 SUB SLT ISZERO PUSH2 0x2805 JUMPI PUSH0 DUP1 REVERT JUMPDEST DUP5 CALLDATALOAD SWAP4 POP PUSH1 0x20 DUP1 DUP7 ADD CALLDATALOAD SWAP4 POP PUSH1 0x40 DUP7 ADD CALLDATALOAD PUSH1 0x1 PUSH1 0x1 PUSH1 0x40 SHL SUB DUP1 DUP3 GT ISZERO PUSH2 0x282A JUMPI PUSH0 DUP1 REVERT JUMPDEST DUP2 DUP9 ADD SWAP2 POP DUP9 PUSH1 0x1F DUP4 ADD SLT PUSH2 0x283D JUMPI PUSH0 DUP1 REVERT JUMPDEST DUP2 CALLDATALOAD PUSH2 0x284B PUSH2 0x2743 DUP3 PUSH2 0x26DE JUMP JUMPDEST DUP2 DUP2 MSTORE PUSH1 0x5 SWAP2 SWAP1 SWAP2 SHL DUP4 ADD DUP5 ADD SWAP1 DUP5 DUP2 ADD SWAP1 DUP12 DUP4 GT ISZERO PUSH2 0x2869 JUMPI PUSH0 DUP1 REVERT JUMPDEST SWAP4 DUP6 ADD SWAP4 JUMPDEST DUP3 DUP6 LT ISZERO PUSH2 0x2887 JUMPI DUP5 CALLDATALOAD DUP3 MSTORE SWAP4 DUP6 ADD SWAP4 SWAP1 DUP6 ADD SWAP1 PUSH2 0x286E JUMP JUMPDEST SWAP7 POP POP POP PUSH1 0x60 DUP9 ADD CALLDATALOAD SWAP3 POP DUP1 DUP4 GT ISZERO PUSH2 0x289E JUMPI PUSH0 DUP1 REVERT JUMPDEST POP POP PUSH2 0x28AC DUP8 DUP3 DUP9 ADD PUSH2 0x2778 JUMP JUMPDEST SWAP2 POP POP SWAP3 SWAP6 SWAP2 SWAP5 POP SWAP3 POP JUMP JUMPDEST DUP1 ISZERO ISZERO DUP2 EQ PUSH2 0x1213 JUMPI PUSH0 DUP1 REVERT JUMPDEST PUSH0 PUSH1 0x20 DUP3 DUP5 SUB SLT ISZERO PUSH2 0x28D5 JUMPI PUSH0 DUP1 REVERT JUMPDEST DUP2 CALLDATALOAD PUSH2 0x2236 DUP2 PUSH2 0x28B8 JUMP JUMPDEST PUSH0 PUSH1 0x20 DUP3 DUP5 SUB SLT ISZERO PUSH2 0x28F0 JUMPI PUSH0 DUP1 REVERT JUMPDEST DUP2 CALLDATALOAD PUSH2 0x2236 DUP2 PUSH2 0x2493 JUMP JUMPDEST PUSH0 DUP1 PUSH1 0x40 DUP4 DUP6 SUB SLT ISZERO PUSH2 0x290C JUMPI PUSH0 DUP1 REVERT JUMPDEST DUP3 CALLDATALOAD SWAP2 POP PUSH1 0x20 DUP4 ADD CALLDATALOAD PUSH1 0x1 PUSH1 0x1 PUSH1 0x40 SHL SUB DUP1 DUP3 GT ISZERO PUSH2 0x2929 JUMPI PUSH0 DUP1 REVERT JUMPDEST SWAP1 DUP5 ADD SWAP1 PUSH1 0x80 DUP3 DUP8 SUB SLT ISZERO PUSH2 0x293C JUMPI PUSH0 DUP1 REVERT JUMPDEST PUSH2 0x2944 PUSH2 0x2620 JUMP JUMPDEST DUP3 CALLDATALOAD DUP2 MSTORE PUSH1 0x20 DUP4 ADD CALLDATALOAD PUSH1 0x20 DUP3 ADD MSTORE PUSH1 0x40 DUP4 ADD CALLDATALOAD PUSH2 0x2960 DUP2 PUSH2 0x2493 JUMP JUMPDEST PUSH1 0x40 DUP3 ADD MSTORE PUSH1 0x60 DUP4 ADD CALLDATALOAD DUP3 DUP2 GT ISZERO PUSH2 0x2976 JUMPI PUSH0 DUP1 REVERT JUMPDEST PUSH2 0x2982 DUP9 DUP3 DUP7 ADD PUSH2 0x2726 JUMP JUMPDEST PUSH1 0x60 DUP4 ADD MSTORE POP DUP1 SWAP4 POP POP POP POP SWAP3 POP SWAP3 SWAP1 POP JUMP JUMPDEST PUSH1 0x20 DUP1 DUP3 MSTORE DUP3 MLOAD DUP3 DUP3 ADD DUP2 SWAP1 MSTORE PUSH0 SWAP2 SWAP1 DUP5 DUP3 ADD SWAP1 PUSH1 0x40 DUP6 ADD SWAP1 DUP5 JUMPDEST DUP2 DUP2 LT ISZERO PUSH2 0x29D5 JUMPI DUP4 MLOAD PUSH1 0x1 PUSH1 0x1 PUSH1 0xA0 SHL SUB AND DUP4 MSTORE SWAP3 DUP5 ADD SWAP3 SWAP2 DUP5 ADD SWAP2 PUSH1 0x1 ADD PUSH2 0x29B0 JUMP JUMPDEST POP SWAP1 SWAP7 SWAP6 POP POP POP POP POP POP JUMP JUMPDEST PUSH0 PUSH1 0x20 DUP3 DUP5 SUB SLT ISZERO PUSH2 0x29F1 JUMPI PUSH0 DUP1 REVERT JUMPDEST DUP2 CALLDATALOAD PUSH1 0x1 PUSH1 0x1 PUSH1 0x40 SHL SUB DUP2 GT ISZERO PUSH2 0x2A06 JUMPI PUSH0 DUP1 REVERT JUMPDEST PUSH2 0x2A12 DUP5 DUP3 DUP6 ADD PUSH2 0x2726 JUMP JUMPDEST SWAP5 SWAP4 POP POP POP POP JUMP JUMPDEST PUSH0 DUP1 PUSH1 0x40 DUP4 DUP6 SUB SLT ISZERO PUSH2 0x2A2B JUMPI PUSH0 DUP1 REVERT JUMPDEST DUP3 CALLDATALOAD PUSH2 0x2A36 DUP2 PUSH2 0x2493 JUMP JUMPDEST SWAP2 POP PUSH1 0x20 DUP4 ADD CALLDATALOAD PUSH2 0x2A46 DUP2 PUSH2 0x28B8 JUMP JUMPDEST DUP1 SWAP2 POP POP SWAP3 POP SWAP3 SWAP1 POP JUMP JUMPDEST PUSH0 PUSH1 0x20 DUP3 DUP5 SUB SLT ISZERO PUSH2 0x2A61 JUMPI PUSH0 DUP1 REVERT JUMPDEST DUP2 CALLDATALOAD PUSH2 0x2236 DUP2 PUSH2 0x25D1 JUMP JUMPDEST PUSH0 PUSH1 0x20 DUP3 DUP5 SUB SLT ISZERO PUSH2 0x2A7C JUMPI PUSH0 DUP1 REVERT JUMPDEST POP CALLDATALOAD SWAP2 SWAP1 POP JUMP JUMPDEST PUSH0 DUP1 PUSH0 DUP1 PUSH1 0x80 DUP6 DUP8 SUB SLT ISZERO PUSH2 0x2A96 JUMPI PUSH0 DUP1 REVERT JUMPDEST DUP5 CALLDATALOAD PUSH2 0x2AA1 DUP2 PUSH2 0x2493 JUMP JUMPDEST SWAP4 POP PUSH1 0x20 DUP6 ADD CALLDATALOAD PUSH2 0x2AB1 DUP2 PUSH2 0x2493 JUMP JUMPDEST SWAP3 POP PUSH1 0x40 DUP6 ADD CALLDATALOAD PUSH2 0x2AC1 DUP2 PUSH2 0x2493 JUMP JUMPDEST SWAP2 POP PUSH1 0x60 DUP6 ADD CALLDATALOAD PUSH2 0x2AD1 DUP2 PUSH2 0x2493 JUMP JUMPDEST SWAP4 SWAP7 SWAP3 SWAP6 POP SWAP1 SWAP4 POP POP JUMP JUMPDEST PUSH0 PUSH1 0x60 DUP3 DUP5 SUB SLT ISZERO PUSH2 0x2AEC JUMPI PUSH0 DUP1 REVERT JUMPDEST PUSH2 0x2236 DUP4 DUP4 PUSH2 0x2446 JUMP JUMPDEST DUP2 DUP4 MSTORE DUP2 DUP2 PUSH1 0x20 DUP6 ADD CALLDATACOPY POP PUSH0 DUP3 DUP3 ADD PUSH1 0x20 SWAP1 DUP2 ADD SWAP2 SWAP1 SWAP2 MSTORE PUSH1 0x1F SWAP1 SWAP2 ADD PUSH1 0x1F NOT AND SWAP1 SWAP2 ADD ADD SWAP1 JUMP JUMPDEST PUSH1 0xA0 DUP2 MSTORE PUSH0 PUSH2 0x2B31 PUSH1 0xA0 DUP4 ADD DUP11 DUP13 PUSH2 0x2AF6 JUMP JUMPDEST PUSH1 0x20 DUP4 DUP3 SUB PUSH1 0x20 DUP6 ADD MSTORE PUSH2 0x2B46 DUP3 DUP11 DUP13 PUSH2 0x2AF6 JUMP JUMPDEST DUP5 DUP2 SUB PUSH1 0x40 DUP7 DUP2 ADD SWAP2 SWAP1 SWAP2 MSTORE DUP9 DUP3 MSTORE DUP10 SWAP4 POP SWAP1 PUSH1 0x20 ADD PUSH0 JUMPDEST DUP10 DUP2 LT ISZERO PUSH2 0x2B9E JUMPI DUP5 CALLDATALOAD DUP3 MSTORE DUP4 DUP6 ADD CALLDATALOAD PUSH2 0x2B77 DUP2 PUSH2 0x2493 JUMP JUMPDEST PUSH1 0x1 PUSH1 0x1 PUSH1 0xA0 SHL SUB AND DUP3 DUP6 ADD MSTORE DUP5 DUP4 ADD CALLDATALOAD DUP4 DUP4 ADD MSTORE PUSH1 0x60 SWAP5 DUP6 ADD SWAP5 SWAP1 SWAP2 ADD SWAP1 PUSH1 0x1 ADD PUSH2 0x2B5E JUMP JUMPDEST POP PUSH1 0x1 PUSH1 0x1 PUSH1 0xA0 SHL SUB DUP9 AND PUSH1 0x60 DUP8 ADD MSTORE SWAP4 POP PUSH2 0x2BB9 SWAP3 POP POP POP JUMP JUMPDEST PUSH1 0x1 PUSH1 0x1 PUSH1 0xA0 SHL SUB DUP4 AND PUSH1 0x80 DUP4 ADD MSTORE SWAP10 SWAP9 POP POP POP POP POP POP POP POP POP JUMP JUMPDEST PUSH4 0x4E487B71 PUSH1 0xE0 SHL PUSH0 MSTORE PUSH1 0x11 PUSH1 0x4 MSTORE PUSH1 0x24 PUSH0 REVERT JUMPDEST PUSH0 PUSH1 0x1 DUP3 ADD PUSH2 0x2BFA JUMPI PUSH2 0x2BFA PUSH2 0x2BD5 JUMP JUMPDEST POP PUSH1 0x1 ADD SWAP1 JUMP JUMPDEST PUSH0 PUSH1 0x20 DUP3 DUP5 SUB SLT ISZERO PUSH2 0x2C11 JUMPI PUSH0 DUP1 REVERT JUMPDEST POP MLOAD SWAP2 SWAP1 POP JUMP JUMPDEST PUSH0 DUP3 PUSH1 0x1F DUP4 ADD SLT PUSH2 0x2C27 JUMPI PUSH0 DUP1 REVERT JUMPDEST DUP2 MLOAD PUSH2 0x2C35 PUSH2 0x2743 DUP3 PUSH2 0x2700 JUMP JUMPDEST DUP2 DUP2 MSTORE DUP5 PUSH1 0x20 DUP4 DUP7 ADD ADD GT ISZERO PUSH2 0x2C49 JUMPI PUSH0 DUP1 REVERT JUMPDEST DUP2 PUSH1 0x20 DUP6 ADD PUSH1 0x20 DUP4 ADD MCOPY PUSH0 SWAP2 DUP2 ADD PUSH1 0x20 ADD SWAP2 SWAP1 SWAP2 MSTORE SWAP4 SWAP3 POP POP POP JUMP JUMPDEST PUSH0 PUSH1 0x20 DUP3 DUP5 SUB SLT ISZERO PUSH2 0x2C75 JUMPI PUSH0 DUP1 REVERT JUMPDEST DUP2 MLOAD PUSH1 0x1 PUSH1 0x1 PUSH1 0x40 SHL SUB DUP1 DUP3 GT ISZERO PUSH2 0x2C8B JUMPI PUSH0 DUP1 REVERT JUMPDEST SWAP1 DUP4 ADD SWAP1 PUSH1 0x80 DUP3 DUP7 SUB SLT ISZERO PUSH2 0x2C9E JUMPI PUSH0 DUP1 REVERT JUMPDEST PUSH2 0x2CA6 PUSH2 0x2620 JUMP JUMPDEST DUP3 MLOAD DUP2 MSTORE PUSH1 0x20 DUP4 ADD MLOAD PUSH1 0x20 DUP3 ADD MSTORE PUSH1 0x40 DUP4 ADD MLOAD PUSH2 0x2CC2 DUP2 PUSH2 0x2493 JUMP JUMPDEST PUSH1 0x40 DUP3 ADD MSTORE PUSH1 0x60 DUP4 ADD MLOAD DUP3 DUP2 GT ISZERO PUSH2 0x2CD8 JUMPI PUSH0 DUP1 REVERT JUMPDEST PUSH2 0x2CE4 DUP8 DUP3 DUP7 ADD PUSH2 0x2C18 JUMP JUMPDEST PUSH1 0x60 DUP4 ADD MSTORE POP SWAP6 SWAP5 POP POP POP POP POP JUMP JUMPDEST PUSH0 PUSH1 0x20 DUP1 DUP4 DUP6 SUB SLT ISZERO PUSH2 0x2D04 JUMPI PUSH0 DUP1 REVERT JUMPDEST DUP3 MLOAD PUSH1 0x1 PUSH1 0x1 PUSH1 0x40 SHL SUB DUP2 GT ISZERO PUSH2 0x2D19 JUMPI PUSH0 DUP1 REVERT JUMPDEST DUP4 ADD PUSH1 0x1F DUP2 ADD DUP6 SGT PUSH2 0x2D29 JUMPI PUSH0 DUP1 REVERT JUMPDEST DUP1 MLOAD PUSH2 0x2D37 PUSH2 0x2743 DUP3 PUSH2 0x26DE JUMP JUMPDEST DUP2 DUP2 MSTORE PUSH1 0x60 SWAP2 DUP3 MUL DUP4 ADD DUP5 ADD SWAP2 DUP5 DUP3 ADD SWAP2 SWAP1 DUP9 DUP5 GT ISZERO PUSH2 0x2D55 JUMPI PUSH0 DUP1 REVERT JUMPDEST SWAP4 DUP6 ADD SWAP4 JUMPDEST DUP4 DUP6 LT ISZERO PUSH2 0x2DA6 JUMPI DUP1 DUP6 DUP11 SUB SLT ISZERO PUSH2 0x2D70 JUMPI PUSH0 DUP1 REVERT JUMPDEST PUSH2 0x2D78 PUSH2 0x2648 JUMP JUMPDEST DUP6 MLOAD DUP2 MSTORE DUP7 DUP7 ADD MLOAD PUSH2 0x2D89 DUP2 PUSH2 0x2493 JUMP JUMPDEST DUP2 DUP9 ADD MSTORE PUSH1 0x40 DUP7 DUP2 ADD MLOAD SWAP1 DUP3 ADD MSTORE DUP4 MSTORE SWAP4 DUP5 ADD SWAP4 SWAP2 DUP6 ADD SWAP2 PUSH2 0x2D5A JUMP JUMPDEST POP SWAP8 SWAP7 POP POP POP POP POP POP POP JUMP JUMPDEST PUSH4 0x4E487B71 PUSH1 0xE0 SHL PUSH0 MSTORE PUSH1 0x32 PUSH1 0x4 MSTORE PUSH1 0x24 PUSH0 REVERT JUMPDEST PUSH0 PUSH1 0x20 DUP3 DUP5 SUB SLT ISZERO PUSH2 0x2DD6 JUMPI PUSH0 DUP1 REVERT JUMPDEST DUP2 MLOAD PUSH1 0x1 PUSH1 0x1 PUSH1 0x40 SHL SUB DUP1 DUP3 GT ISZERO PUSH2 0x2DEC JUMPI PUSH0 DUP1 REVERT JUMPDEST SWAP1 DUP4 ADD SWAP1 PUSH1 0xA0 DUP3 DUP7 SUB SLT ISZERO PUSH2 0x2DFF JUMPI PUSH0 DUP1 REVERT JUMPDEST PUSH2 0x2E07 PUSH2 0x266A JUMP JUMPDEST DUP3 MLOAD DUP2 MSTORE PUSH1 0x20 DUP4 ADD MLOAD PUSH1 0x20 DUP3 ADD MSTORE PUSH1 0x40 DUP4 ADD MLOAD PUSH2 0x2E23 DUP2 PUSH2 0x2493 JUMP JUMPDEST PUSH1 0x40 DUP3 ADD MSTORE PUSH1 0x60 DUP4 DUP2 ADD MLOAD SWAP1 DUP3 ADD MSTORE PUSH1 0x80 DUP4 ADD MLOAD DUP3 DUP2 GT ISZERO PUSH2 0x2E43 JUMPI PUSH0 DUP1 REVERT JUMPDEST PUSH2 0x2E4F DUP8 DUP3 DUP7 ADD PUSH2 0x2C18 JUMP JUMPDEST PUSH1 0x80 DUP4 ADD MSTORE POP SWAP6 SWAP5 POP POP POP POP POP JUMP JUMPDEST PUSH0 PUSH1 0x80 DUP3 DUP5 SUB SLT ISZERO PUSH2 0x2E6E JUMPI PUSH0 DUP1 REVERT JUMPDEST PUSH2 0x2E76 PUSH2 0x2620 JUMP JUMPDEST DUP3 MLOAD DUP2 MSTORE PUSH1 0x20 DUP4 ADD MLOAD PUSH1 0x20 DUP3 ADD MSTORE PUSH1 0x40 DUP4 ADD MLOAD PUSH2 0xFFFF DUP2 AND DUP2 EQ PUSH2 0x2E98 JUMPI PUSH0 DUP1 REVERT JUMPDEST PUSH1 0x40 DUP3 ADD MSTORE PUSH1 0x60 DUP4 ADD MLOAD PUSH2 0x2EAB DUP2 PUSH2 0x25D1 JUMP JUMPDEST PUSH1 0x60 DUP3 ADD MSTORE SWAP4 SWAP3 POP POP POP JUMP JUMPDEST PUSH0 PUSH1 0x40 DUP3 DUP5 SUB SLT ISZERO PUSH2 0x2EC7 JUMPI PUSH0 DUP1 REVERT JUMPDEST PUSH2 0x2ECF PUSH2 0x268C JUMP JUMPDEST DUP3 CALLDATALOAD DUP2 MSTORE PUSH1 0x20 DUP4 ADD CALLDATALOAD PUSH2 0x2EE1 DUP2 PUSH2 0x28B8 JUMP JUMPDEST PUSH1 0x20 DUP3 ADD MSTORE SWAP4 SWAP3 POP POP POP JUMP JUMPDEST DUP1 DUP3 ADD DUP1 DUP3 GT ISZERO PUSH2 0xE58 JUMPI PUSH2 0xE58 PUSH2 0x2BD5 JUMP JUMPDEST PUSH0 PUSH1 0x20 DUP3 DUP5 SUB SLT ISZERO PUSH2 0x2F10 JUMPI PUSH0 DUP1 REVERT JUMPDEST DUP2 MLOAD PUSH2 0x2236 DUP2 PUSH2 0x28B8 JUMP JUMPDEST DUP1 DUP3 MUL DUP2 ISZERO DUP3 DUP3 DIV DUP5 EQ OR PUSH2 0xE58 JUMPI PUSH2 0xE58 PUSH2 0x2BD5 JUMP JUMPDEST PUSH0 DUP2 MLOAD DUP1 DUP5 MSTORE DUP1 PUSH1 0x20 DUP5 ADD PUSH1 0x20 DUP7 ADD MCOPY PUSH0 PUSH1 0x20 DUP3 DUP7 ADD ADD MSTORE PUSH1 0x20 PUSH1 0x1F NOT PUSH1 0x1F DUP4 ADD AND DUP6 ADD ADD SWAP2 POP POP SWAP3 SWAP2 POP POP JUMP JUMPDEST PUSH1 0x20 DUP2 MSTORE PUSH0 PUSH1 0x1 DUP1 PUSH1 0xA0 SHL SUB DUP1 DUP5 MLOAD AND PUSH1 0x20 DUP5 ADD MSTORE PUSH1 0x20 DUP5 ADD MLOAD PUSH1 0x40 DUP5 ADD MSTORE DUP1 PUSH1 0x40 DUP6 ADD MLOAD AND PUSH1 0x60 DUP5 ADD MSTORE PUSH1 0x60 DUP5 ADD MLOAD PUSH1 0x80 DUP5 ADD MSTORE DUP1 PUSH1 0x80 DUP6 ADD MLOAD AND PUSH1 0xA0 DUP5 ADD MSTORE POP PUSH1 0xA0 DUP4 ADD MLOAD PUSH1 0xC0 DUP1 DUP5 ADD MSTORE PUSH2 0x2A12 PUSH1 0xE0 DUP5 ADD DUP3 PUSH2 0x2F32 JUMP JUMPDEST PUSH1 0x20 DUP2 MSTORE PUSH0 PUSH2 0x2236 PUSH1 0x20 DUP4 ADD DUP5 PUSH2 0x2F32 JUMP JUMPDEST PUSH1 0x80 DUP2 MSTORE PUSH2 0xFFFF PUSH1 0xF0 SHL DUP6 MLOAD AND PUSH1 0x80 DUP3 ADD MSTORE PUSH0 PUSH1 0x20 DUP7 ADD MLOAD PUSH1 0x1 DUP1 PUSH1 0xA0 SHL SUB DUP1 DUP3 AND PUSH1 0xA0 DUP6 ADD MSTORE DUP1 PUSH1 0x40 DUP10 ADD MLOAD AND PUSH1 0xC0 DUP6 ADD MSTORE PUSH1 0x60 DUP9 ADD MLOAD PUSH1 0xE0 DUP6 ADD MSTORE DUP1 PUSH1 0x80 DUP10 ADD MLOAD AND PUSH2 0x100 DUP6 ADD MSTORE POP POP PUSH1 0xA0 DUP7 ADD MLOAD PUSH1 0xC0 PUSH2 0x120 DUP5 ADD MSTORE PUSH2 0x3033 PUSH2 0x140 DUP5 ADD DUP3 PUSH2 0x2F32 JUMP JUMPDEST PUSH1 0x1 PUSH1 0x1 PUSH1 0xA0 SHL SUB DUP8 AND PUSH1 0x20 DUP6 ADD MSTORE SWAP1 POP DUP3 DUP2 SUB PUSH1 0x40 DUP5 ADD MSTORE PUSH2 0x3056 DUP2 DUP7 PUSH2 0x2F32 JUMP JUMPDEST SWAP1 POP DUP3 DUP2 SUB PUSH1 0x60 DUP5 ADD MSTORE PUSH2 0x1E2D DUP2 DUP6 PUSH2 0x2F32 JUMP JUMPDEST PUSH1 0x40 DUP2 MSTORE PUSH4 0xFFFFFFFF DUP4 MLOAD AND PUSH1 0x40 DUP3 ADD MSTORE PUSH1 0x20 DUP4 ADD MLOAD PUSH1 0x60 DUP3 ADD MSTORE PUSH0 PUSH1 0x40 DUP5 ADD MLOAD PUSH1 0xA0 PUSH1 0x80 DUP5 ADD MSTORE PUSH2 0x309F PUSH1 0xE0 DUP5 ADD DUP3 PUSH2 0x2F32 JUMP JUMPDEST SWAP1 POP PUSH1 0x60 DUP6 ADD MLOAD PUSH1 0x3F NOT DUP5 DUP4 SUB ADD PUSH1 0xA0 DUP6 ADD MSTORE PUSH2 0x30BC DUP3 DUP3 PUSH2 0x2F32 JUMP JUMPDEST PUSH1 0x80 SWAP7 SWAP1 SWAP7 ADD MLOAD ISZERO ISZERO PUSH1 0xC0 DUP6 ADD MSTORE POP POP POP PUSH1 0x1 PUSH1 0x1 PUSH1 0xA0 SHL SUB SWAP2 SWAP1 SWAP2 AND PUSH1 0x20 SWAP1 SWAP2 ADD MSTORE SWAP1 JUMP JUMPDEST PUSH0 DUP2 DUP4 SUB PUSH1 0x80 DUP2 SLT ISZERO PUSH2 0x30F3 JUMPI PUSH0 DUP1 REVERT JUMPDEST PUSH2 0x30FB PUSH2 0x2648 JUMP JUMPDEST DUP4 MLOAD DUP2 MSTORE PUSH1 0x20 DUP5 ADD MLOAD PUSH1 0x1 PUSH1 0x1 PUSH1 0x40 SHL SUB DUP2 AND DUP2 EQ PUSH2 0x3118 JUMPI PUSH0 DUP1 REVERT JUMPDEST PUSH1 0x20 DUP3 ADD MSTORE PUSH1 0x40 PUSH1 0x3F NOT DUP4 ADD SLT ISZERO PUSH2 0x312E JUMPI PUSH0 DUP1 REVERT JUMPDEST PUSH2 0x3136 PUSH2 0x268C JUMP JUMPDEST PUSH1 0x40 DUP6 DUP2 ADD MLOAD DUP3 MSTORE PUSH1 0x60 SWAP1 SWAP6 ADD MLOAD PUSH1 0x20 DUP3 ADD MSTORE SWAP4 DUP2 ADD SWAP4 SWAP1 SWAP4 MSTORE POP SWAP1 SWAP3 SWAP2 POP POP JUMP JUMPDEST PUSH1 0x20 DUP2 MSTORE DUP2 MLOAD PUSH1 0x20 DUP3 ADD MSTORE PUSH1 0x20 DUP3 ADD MLOAD PUSH1 0x40 DUP3 ADD MSTORE PUSH1 0x1 DUP1 PUSH1 0xA0 SHL SUB PUSH1 0x40 DUP4 ADD MLOAD AND PUSH1 0x60 DUP3 ADD MSTORE PUSH1 0x60 DUP3 ADD MLOAD PUSH1 0x80 DUP3 ADD MSTORE PUSH0 PUSH1 0x80 DUP4 ADD MLOAD PUSH1 0xA0 DUP1 DUP5 ADD MSTORE PUSH2 0x2A12 PUSH1 0xC0 DUP5 ADD DUP3 PUSH2 0x2F32 JUMP JUMPDEST PUSH1 0x20 DUP2 MSTORE PUSH1 0x1 DUP1 PUSH1 0xA0 SHL SUB DUP3 MLOAD AND PUSH1 0x20 DUP3 ADD MSTORE PUSH1 0x20 DUP3 ADD MLOAD PUSH1 0x40 DUP3 ADD MSTORE PUSH0 PUSH1 0x40 DUP4 ADD MLOAD PUSH1 0x60 DUP1 DUP5 ADD MSTORE PUSH2 0x2A12 PUSH1 0x80 DUP5 ADD DUP3 PUSH2 0x2F32 JUMP JUMPDEST PUSH1 0x1 PUSH1 0x1 PUSH1 0xA0 SHL SUB DUP5 AND DUP2 MSTORE PUSH1 0x60 PUSH1 0x20 DUP3 ADD DUP2 SWAP1 MSTORE PUSH0 SWAP1 PUSH2 0x31FB SWAP1 DUP4 ADD DUP6 PUSH2 0x2F32 JUMP JUMPDEST DUP3 DUP2 SUB PUSH1 0x40 DUP5 ADD MSTORE PUSH2 0x22CC DUP2 DUP6 PUSH2 0x2F32 JUMP JUMPDEST PUSH2 0xFFFF DUP8 AND DUP2 MSTORE PUSH1 0xFF DUP7 AND PUSH1 0x20 DUP3 ADD MSTORE PUSH1 0x1 DUP1 PUSH1 0xA0 SHL SUB DUP6 AND PUSH1 0x40 DUP3 ADD MSTORE DUP4 PUSH1 0x60 DUP3 ADD MSTORE DUP3 PUSH1 0x80 DUP3 ADD MSTORE PUSH1 0xC0 PUSH1 0xA0 DUP3 ADD MSTORE PUSH0 PUSH2 0x324C PUSH1 0xC0 DUP4 ADD DUP5 PUSH2 0x2F32 JUMP JUMPDEST SWAP9 SWAP8 POP POP POP POP POP POP POP POP JUMP JUMPDEST PUSH0 DUP1 PUSH1 0x40 DUP4 DUP6 SUB SLT ISZERO PUSH2 0x3269 JUMPI PUSH0 DUP1 REVERT JUMPDEST POP POP DUP1 MLOAD PUSH1 0x20 SWAP1 SWAP2 ADD MLOAD SWAP1 SWAP3 SWAP1 SWAP2 POP JUMP JUMPDEST PUSH0 PUSH1 0x20 DUP3 DUP5 SUB SLT ISZERO PUSH2 0x328A JUMPI PUSH0 DUP1 REVERT JUMPDEST DUP2 MLOAD PUSH2 0x2236 DUP2 PUSH2 0x2493 JUMP JUMPDEST PUSH0 DUP3 MLOAD DUP1 PUSH1 0x20 DUP6 ADD DUP5 MCOPY PUSH0 SWAP3 ADD SWAP2 DUP3 MSTORE POP SWAP2 SWAP1 POP JUMP INVALID PUSH1 0x80 PUSH1 0x40 MSTORE CALLVALUE DUP1 ISZERO PUSH2 0xF JUMPI PUSH0 DUP1 REVERT JUMPDEST POP PUSH1 0x40 MLOAD PUSH2 0x19E2 CODESIZE SUB DUP1 PUSH2 0x19E2 DUP4 CODECOPY DUP2 ADD PUSH1 0x40 DUP2 SWAP1 MSTORE PUSH2 0x2E SWAP2 PUSH2 0x1F4 JUMP JUMPDEST DUP5 DUP5 PUSH1 0x3 PUSH2 0x3C DUP4 DUP3 PUSH2 0x3B0 JUMP JUMPDEST POP PUSH1 0x4 PUSH2 0x49 DUP3 DUP3 PUSH2 0x3B0 JUMP JUMPDEST POP POP PUSH1 0x5 DUP1 SLOAD PUSH1 0x1 PUSH1 0x1 PUSH1 0xA0 SHL SUB DUP1 DUP7 AND PUSH1 0x1 PUSH1 0x1 PUSH1 0xA0 SHL SUB NOT SWAP3 DUP4 AND OR SWAP1 SWAP3 SSTORE PUSH1 0x6 DUP1 SLOAD SWAP3 DUP6 AND SWAP3 SWAP1 SWAP2 AND SWAP2 SWAP1 SWAP2 OR SWAP1 SSTORE POP PUSH0 JUMPDEST DUP4 MLOAD DUP2 LT ISZERO PUSH2 0xF7 JUMPI PUSH1 0x7 DUP5 DUP3 DUP2 MLOAD DUP2 LT PUSH2 0x9B JUMPI PUSH2 0x9B PUSH2 0x46F JUMP JUMPDEST PUSH1 0x20 SWAP1 DUP2 MUL SWAP2 SWAP1 SWAP2 ADD DUP2 ADD MLOAD DUP3 SLOAD PUSH1 0x1 DUP1 DUP3 ADD DUP6 SSTORE PUSH0 SWAP5 DUP6 MSTORE SWAP4 DUP4 SWAP1 KECCAK256 DUP3 MLOAD PUSH1 0x3 SWAP1 SWAP3 MUL ADD SWAP1 DUP2 SSTORE SWAP2 DUP2 ADD MLOAD DUP3 DUP5 ADD DUP1 SLOAD PUSH1 0x1 PUSH1 0x1 PUSH1 0xA0 SHL SUB NOT AND PUSH1 0x1 PUSH1 0x1 PUSH1 0xA0 SHL SUB SWAP1 SWAP3 AND SWAP2 SWAP1 SWAP2 OR SWAP1 SSTORE PUSH1 0x40 ADD MLOAD PUSH1 0x2 SWAP1 SWAP2 ADD SSTORE ADD PUSH2 0x7E JUMP JUMPDEST POP POP POP POP POP POP PUSH2 0x483 JUMP JUMPDEST PUSH4 0x4E487B71 PUSH1 0xE0 SHL PUSH0 MSTORE PUSH1 0x41 PUSH1 0x4 MSTORE PUSH1 0x24 PUSH0 REVERT JUMPDEST PUSH1 0x40 MLOAD PUSH1 0x60 DUP2 ADD PUSH1 0x1 PUSH1 0x1 PUSH1 0x40 SHL SUB DUP2 GT DUP3 DUP3 LT OR ISZERO PUSH2 0x138 JUMPI PUSH2 0x138 PUSH2 0x102 JUMP JUMPDEST PUSH1 0x40 MSTORE SWAP1 JUMP JUMPDEST PUSH1 0x40 MLOAD PUSH1 0x1F DUP3 ADD PUSH1 0x1F NOT AND DUP2 ADD PUSH1 0x1 PUSH1 0x1 PUSH1 0x40 SHL SUB DUP2 GT DUP3 DUP3 LT OR ISZERO PUSH2 0x166 JUMPI PUSH2 0x166 PUSH2 0x102 JUMP JUMPDEST PUSH1 0x40 MSTORE SWAP2 SWAP1 POP JUMP JUMPDEST PUSH0 DUP3 PUSH1 0x1F DUP4 ADD SLT PUSH2 0x17D JUMPI PUSH0 DUP1 REVERT JUMPDEST DUP2 MLOAD PUSH1 0x1 PUSH1 0x1 PUSH1 0x40 SHL SUB DUP2 GT ISZERO PUSH2 0x196 JUMPI PUSH2 0x196 PUSH2 0x102 JUMP JUMPDEST PUSH2 0x1A9 PUSH1 0x1F DUP3 ADD PUSH1 0x1F NOT AND PUSH1 0x20 ADD PUSH2 0x13E JUMP JUMPDEST DUP2 DUP2 MSTORE DUP5 PUSH1 0x20 DUP4 DUP7 ADD ADD GT ISZERO PUSH2 0x1BD JUMPI PUSH0 DUP1 REVERT JUMPDEST DUP2 PUSH1 0x20 DUP6 ADD PUSH1 0x20 DUP4 ADD MCOPY PUSH0 SWAP2 DUP2 ADD PUSH1 0x20 ADD SWAP2 SWAP1 SWAP2 MSTORE SWAP4 SWAP3 POP POP POP JUMP JUMPDEST DUP1 MLOAD PUSH1 0x1 PUSH1 0x1 PUSH1 0xA0 SHL SUB DUP2 AND DUP2 EQ PUSH2 0x1EF JUMPI PUSH0 DUP1 REVERT JUMPDEST SWAP2 SWAP1 POP JUMP JUMPDEST PUSH0 DUP1 PUSH0 DUP1 PUSH0 PUSH1 0xA0 DUP7 DUP9 SUB SLT ISZERO PUSH2 0x208 JUMPI PUSH0 DUP1 REVERT JUMPDEST DUP6 MLOAD PUSH1 0x1 PUSH1 0x1 PUSH1 0x40 SHL SUB DUP1 DUP3 GT ISZERO PUSH2 0x21E JUMPI PUSH0 DUP1 REVERT JUMPDEST PUSH2 0x22A DUP10 DUP4 DUP11 ADD PUSH2 0x16E JUMP JUMPDEST SWAP7 POP PUSH1 0x20 SWAP2 POP DUP2 DUP9 ADD MLOAD DUP2 DUP2 GT ISZERO PUSH2 0x240 JUMPI PUSH0 DUP1 REVERT JUMPDEST PUSH2 0x24C DUP11 DUP3 DUP12 ADD PUSH2 0x16E JUMP JUMPDEST SWAP7 POP POP PUSH1 0x40 DUP1 DUP10 ADD MLOAD DUP3 DUP2 GT ISZERO PUSH2 0x261 JUMPI PUSH0 DUP1 REVERT JUMPDEST DUP10 ADD PUSH1 0x1F DUP2 ADD DUP12 SGT PUSH2 0x271 JUMPI PUSH0 DUP1 REVERT JUMPDEST DUP1 MLOAD DUP4 DUP2 GT ISZERO PUSH2 0x283 JUMPI PUSH2 0x283 PUSH2 0x102 JUMP JUMPDEST PUSH2 0x291 DUP6 DUP3 PUSH1 0x5 SHL ADD PUSH2 0x13E JUMP JUMPDEST DUP2 DUP2 MSTORE DUP6 DUP2 ADD SWAP5 POP PUSH1 0x60 SWAP2 DUP3 MUL DUP4 ADD DUP7 ADD SWAP2 DUP14 DUP4 GT ISZERO PUSH2 0x2AF JUMPI PUSH0 DUP1 REVERT JUMPDEST SWAP3 DUP7 ADD SWAP3 JUMPDEST DUP3 DUP5 LT ISZERO PUSH2 0x2FC JUMPI DUP1 DUP5 DUP16 SUB SLT ISZERO PUSH2 0x2CA JUMPI PUSH0 DUP1 REVERT JUMPDEST PUSH2 0x2D2 PUSH2 0x116 JUMP JUMPDEST DUP5 MLOAD DUP2 MSTORE PUSH2 0x2E1 DUP9 DUP7 ADD PUSH2 0x1D9 JUMP JUMPDEST DUP2 DUP10 ADD MSTORE DUP5 DUP7 ADD MLOAD DUP7 DUP3 ADD MSTORE DUP7 MSTORE SWAP5 DUP7 ADD SWAP5 SWAP3 DUP4 ADD SWAP3 PUSH2 0x2B4 JUMP JUMPDEST POP DUP1 SWAP9 POP POP POP POP POP POP POP PUSH2 0x312 PUSH1 0x60 DUP8 ADD PUSH2 0x1D9 JUMP JUMPDEST SWAP2 POP PUSH2 0x320 PUSH1 0x80 DUP8 ADD PUSH2 0x1D9 JUMP JUMPDEST SWAP1 POP SWAP3 SWAP6 POP SWAP3 SWAP6 SWAP1 SWAP4 POP JUMP JUMPDEST PUSH1 0x1 DUP2 DUP2 SHR SWAP1 DUP3 AND DUP1 PUSH2 0x340 JUMPI PUSH1 0x7F DUP3 AND SWAP2 POP JUMPDEST PUSH1 0x20 DUP3 LT DUP2 SUB PUSH2 0x35E JUMPI PUSH4 0x4E487B71 PUSH1 0xE0 SHL PUSH0 MSTORE PUSH1 0x22 PUSH1 0x4 MSTORE PUSH1 0x24 PUSH0 REVERT JUMPDEST POP SWAP2 SWAP1 POP JUMP JUMPDEST PUSH1 0x1F DUP3 GT ISZERO PUSH2 0x3AB JUMPI DUP1 PUSH0 MSTORE PUSH1 0x20 PUSH0 KECCAK256 PUSH1 0x1F DUP5 ADD PUSH1 0x5 SHR DUP2 ADD PUSH1 0x20 DUP6 LT ISZERO PUSH2 0x389 JUMPI POP DUP1 JUMPDEST PUSH1 0x1F DUP5 ADD PUSH1 0x5 SHR DUP3 ADD SWAP2 POP JUMPDEST DUP2 DUP2 LT ISZERO PUSH2 0x3A8 JUMPI PUSH0 DUP2 SSTORE PUSH1 0x1 ADD PUSH2 0x395 JUMP JUMPDEST POP POP JUMPDEST POP POP POP JUMP JUMPDEST DUP2 MLOAD PUSH1 0x1 PUSH1 0x1 PUSH1 0x40 SHL SUB DUP2 GT ISZERO PUSH2 0x3C9 JUMPI PUSH2 0x3C9 PUSH2 0x102 JUMP JUMPDEST PUSH2 0x3DD DUP2 PUSH2 0x3D7 DUP5 SLOAD PUSH2 0x32C JUMP JUMPDEST DUP5 PUSH2 0x364 JUMP JUMPDEST PUSH1 0x20 DUP1 PUSH1 0x1F DUP4 GT PUSH1 0x1 DUP2 EQ PUSH2 0x410 JUMPI PUSH0 DUP5 ISZERO PUSH2 0x3F9 JUMPI POP DUP6 DUP4 ADD MLOAD JUMPDEST PUSH0 NOT PUSH1 0x3 DUP7 SWAP1 SHL SHR NOT AND PUSH1 0x1 DUP6 SWAP1 SHL OR DUP6 SSTORE PUSH2 0x467 JUMP JUMPDEST PUSH0 DUP6 DUP2 MSTORE PUSH1 0x20 DUP2 KECCAK256 PUSH1 0x1F NOT DUP7 AND SWAP2 JUMPDEST DUP3 DUP2 LT ISZERO PUSH2 0x43E JUMPI DUP9 DUP7 ADD MLOAD DUP3 SSTORE SWAP5 DUP5 ADD SWAP5 PUSH1 0x1 SWAP1 SWAP2 ADD SWAP1 DUP5 ADD PUSH2 0x41F JUMP JUMPDEST POP DUP6 DUP3 LT ISZERO PUSH2 0x45B JUMPI DUP8 DUP6 ADD MLOAD PUSH0 NOT PUSH1 0x3 DUP9 SWAP1 SHL PUSH1 0xF8 AND SHR NOT AND DUP2 SSTORE JUMPDEST POP POP PUSH1 0x1 DUP5 PUSH1 0x1 SHL ADD DUP6 SSTORE JUMPDEST POP POP POP POP POP POP JUMP JUMPDEST PUSH4 0x4E487B71 PUSH1 0xE0 SHL PUSH0 MSTORE PUSH1 0x32 PUSH1 0x4 MSTORE PUSH1 0x24 PUSH0 REVERT JUMPDEST PUSH2 0x1552 DUP1 PUSH2 0x490 PUSH0 CODECOPY PUSH0 RETURN INVALID PUSH1 0x80 PUSH1 0x40 MSTORE CALLVALUE DUP1 ISZERO PUSH2 0xF JUMPI PUSH0 DUP1 REVERT JUMPDEST POP PUSH1 0x4 CALLDATASIZE LT PUSH2 0x187 JUMPI PUSH0 CALLDATALOAD PUSH1 0xE0 SHR DUP1 PUSH4 0x95D89B41 GT PUSH2 0xD9 JUMPI DUP1 PUSH4 0xDB006A75 GT PUSH2 0x93 JUMPI DUP1 PUSH4 0xF01648F8 GT PUSH2 0x6E JUMPI DUP1 PUSH4 0xF01648F8 EQ PUSH2 0x361 JUMPI DUP1 PUSH4 0xF4C76363 EQ PUSH2 0x3C7 JUMPI DUP1 PUSH4 0xFE206292 EQ PUSH2 0x3DA JUMPI DUP1 PUSH4 0xFE74748E EQ PUSH2 0x361 JUMPI PUSH0 DUP1 REVERT JUMPDEST DUP1 PUSH4 0xDB006A75 EQ PUSH2 0x374 JUMPI DUP1 PUSH4 0xDD62ED3E EQ PUSH2 0x387 JUMPI DUP1 PUSH4 0xE02B79F9 EQ PUSH2 0x3BF JUMPI PUSH0 DUP1 REVERT JUMPDEST DUP1 PUSH4 0x95D89B41 EQ PUSH2 0x2EA JUMPI DUP1 PUSH4 0x99FBAB88 EQ PUSH2 0x2F2 JUMPI DUP1 PUSH4 0xA2CE9C1F EQ PUSH2 0x328 JUMPI DUP1 PUSH4 0xA9059CBB EQ PUSH2 0x33B JUMPI DUP1 PUSH4 0xA9EDF1F6 EQ PUSH2 0x34E JUMPI DUP1 PUSH4 0xBA906000 EQ PUSH2 0x361 JUMPI PUSH0 DUP1 REVERT JUMPDEST DUP1 PUSH4 0x23B872DD GT PUSH2 0x144 JUMPI DUP1 PUSH4 0x56DC63CB GT PUSH2 0x11F JUMPI DUP1 PUSH4 0x56DC63CB EQ PUSH2 0x277 JUMPI DUP1 PUSH4 0x6B9691A1 EQ PUSH2 0x29A JUMPI DUP1 PUSH4 0x70A08231 EQ PUSH2 0x2AD JUMPI DUP1 PUSH4 0x80275860 EQ PUSH2 0x2D5 JUMPI PUSH0 DUP1 REVERT JUMPDEST DUP1 PUSH4 0x23B872DD EQ PUSH2 0x22A JUMPI DUP1 PUSH4 0x3013CE29 EQ PUSH2 0x23D JUMPI DUP1 PUSH4 0x313CE567 EQ PUSH2 0x268 JUMPI PUSH0 DUP1 REVERT JUMPDEST DUP1 PUSH4 0x6FDDE03 EQ PUSH2 0x18B JUMPI DUP1 PUSH4 0x95EA7B3 EQ PUSH2 0x1A9 JUMPI DUP1 PUSH4 0xB2B8E35 EQ PUSH2 0x1CC JUMPI DUP1 PUSH4 0x18160DDD EQ PUSH2 0x1ED JUMPI DUP1 PUSH4 0x1DDC8F6D EQ PUSH2 0x1F5 JUMPI DUP1 PUSH4 0x1FC5846B EQ PUSH2 0x215 JUMPI JUMPDEST PUSH0 DUP1 REVERT JUMPDEST PUSH2 0x193 PUSH2 0x3ED JUMP JUMPDEST PUSH1 0x40 MLOAD PUSH2 0x1A0 SWAP2 SWAP1 PUSH2 0xE9E JUMP JUMPDEST PUSH1 0x40 MLOAD DUP1 SWAP2 SUB SWAP1 RETURN JUMPDEST PUSH2 0x1BC PUSH2 0x1B7 CALLDATASIZE PUSH1 0x4 PUSH2 0xED2 JUMP JUMPDEST PUSH2 0x47D JUMP JUMPDEST PUSH1 0x40 MLOAD SWAP1 ISZERO ISZERO DUP2 MSTORE PUSH1 0x20 ADD PUSH2 0x1A0 JUMP JUMPDEST PUSH2 0x1DF PUSH2 0x1DA CALLDATASIZE PUSH1 0x4 PUSH2 0x1042 JUMP JUMPDEST PUSH2 0x496 JUMP JUMPDEST PUSH1 0x40 MLOAD SWAP1 DUP2 MSTORE PUSH1 0x20 ADD PUSH2 0x1A0 JUMP JUMPDEST PUSH1 0x2 SLOAD PUSH2 0x1DF JUMP JUMPDEST PUSH2 0x208 PUSH2 0x203 CALLDATASIZE PUSH1 0x4 PUSH2 0x10FF JUMP JUMPDEST PUSH2 0x745 JUMP JUMPDEST PUSH1 0x40 MLOAD PUSH2 0x1A0 SWAP2 SWAP1 PUSH2 0x1116 JUMP JUMPDEST PUSH2 0x1DF PUSH2 0x223 CALLDATASIZE PUSH1 0x4 PUSH2 0x115E JUMP JUMPDEST PUSH0 SWAP3 SWAP2 POP POP JUMP JUMPDEST PUSH2 0x1BC PUSH2 0x238 CALLDATASIZE PUSH1 0x4 PUSH2 0x11CD JUMP JUMPDEST PUSH2 0x83F JUMP JUMPDEST PUSH1 0x5 SLOAD PUSH2 0x250 SWAP1 PUSH1 0x1 PUSH1 0x1 PUSH1 0xA0 SHL SUB AND DUP2 JUMP JUMPDEST PUSH1 0x40 MLOAD PUSH1 0x1 PUSH1 0x1 PUSH1 0xA0 SHL SUB SWAP1 SWAP2 AND DUP2 MSTORE PUSH1 0x20 ADD PUSH2 0x1A0 JUMP JUMPDEST PUSH1 0x40 MLOAD PUSH1 0x12 DUP2 MSTORE PUSH1 0x20 ADD PUSH2 0x1A0 JUMP JUMPDEST PUSH2 0x28A PUSH2 0x285 CALLDATASIZE PUSH1 0x4 PUSH2 0x10FF JUMP JUMPDEST PUSH2 0x862 JUMP JUMPDEST PUSH1 0x40 MLOAD PUSH2 0x1A0 SWAP5 SWAP4 SWAP3 SWAP2 SWAP1 PUSH2 0x1206 JUMP JUMPDEST PUSH2 0x28A PUSH2 0x2A8 CALLDATASIZE PUSH1 0x4 PUSH2 0x10FF JUMP JUMPDEST PUSH2 0x91C JUMP JUMPDEST PUSH2 0x1DF PUSH2 0x2BB CALLDATASIZE PUSH1 0x4 PUSH2 0x123C JUMP JUMPDEST PUSH1 0x1 PUSH1 0x1 PUSH1 0xA0 SHL SUB AND PUSH0 SWAP1 DUP2 MSTORE PUSH1 0x20 DUP2 SWAP1 MSTORE PUSH1 0x40 SWAP1 KECCAK256 SLOAD SWAP1 JUMP JUMPDEST PUSH2 0x2DD PUSH2 0x955 JUMP JUMPDEST PUSH1 0x40 MLOAD PUSH2 0x1A0 SWAP2 SWAP1 PUSH2 0x1255 JUMP JUMPDEST PUSH2 0x193 PUSH2 0x9D5 JUMP JUMPDEST PUSH2 0x305 PUSH2 0x300 CALLDATASIZE PUSH1 0x4 PUSH2 0x10FF JUMP JUMPDEST PUSH2 0x9E4 JUMP JUMPDEST PUSH1 0x40 DUP1 MLOAD SWAP4 DUP5 MSTORE PUSH1 0x1 PUSH1 0x1 PUSH1 0xA0 SHL SUB SWAP1 SWAP3 AND PUSH1 0x20 DUP5 ADD MSTORE SWAP1 DUP3 ADD MSTORE PUSH1 0x60 ADD PUSH2 0x1A0 JUMP JUMPDEST PUSH2 0x208 PUSH2 0x336 CALLDATASIZE PUSH1 0x4 PUSH2 0x10FF JUMP JUMPDEST PUSH2 0xA21 JUMP JUMPDEST PUSH2 0x1BC PUSH2 0x349 CALLDATASIZE PUSH1 0x4 PUSH2 0xED2 JUMP JUMPDEST PUSH2 0xA94 JUMP JUMPDEST PUSH2 0x28A PUSH2 0x35C CALLDATASIZE PUSH1 0x4 PUSH2 0x10FF JUMP JUMPDEST PUSH2 0xAA1 JUMP JUMPDEST PUSH2 0x372 PUSH2 0x36F CALLDATASIZE PUSH1 0x4 PUSH2 0x10FF JUMP JUMPDEST POP JUMP JUMPDEST STOP JUMPDEST PUSH2 0x1DF PUSH2 0x382 CALLDATASIZE PUSH1 0x4 PUSH2 0x10FF JUMP JUMPDEST POP PUSH0 SWAP1 JUMP JUMPDEST PUSH2 0x1DF PUSH2 0x395 CALLDATASIZE PUSH1 0x4 PUSH2 0x12B6 JUMP JUMPDEST PUSH1 0x1 PUSH1 0x1 PUSH1 0xA0 SHL SUB SWAP2 DUP3 AND PUSH0 SWAP1 DUP2 MSTORE PUSH1 0x1 PUSH1 0x20 SWAP1 DUP2 MSTORE PUSH1 0x40 DUP1 DUP4 KECCAK256 SWAP4 SWAP1 SWAP5 AND DUP3 MSTORE SWAP2 SWAP1 SWAP2 MSTORE KECCAK256 SLOAD SWAP1 JUMP JUMPDEST PUSH1 0x7 SLOAD PUSH2 0x1DF JUMP JUMPDEST PUSH1 0x6 SLOAD PUSH2 0x250 SWAP1 PUSH1 0x1 PUSH1 0x1 PUSH1 0xA0 SHL SUB AND DUP2 JUMP JUMPDEST PUSH2 0x208 PUSH2 0x3E8 CALLDATASIZE PUSH1 0x4 PUSH2 0x10FF JUMP JUMPDEST PUSH2 0xADA JUMP JUMPDEST PUSH1 0x60 PUSH1 0x3 DUP1 SLOAD PUSH2 0x3FC SWAP1 PUSH2 0x12E7 JUMP JUMPDEST DUP1 PUSH1 0x1F ADD PUSH1 0x20 DUP1 SWAP2 DIV MUL PUSH1 0x20 ADD PUSH1 0x40 MLOAD SWAP1 DUP2 ADD PUSH1 0x40 MSTORE DUP1 SWAP3 SWAP2 SWAP1 DUP2 DUP2 MSTORE PUSH1 0x20 ADD DUP3 DUP1 SLOAD PUSH2 0x428 SWAP1 PUSH2 0x12E7 JUMP JUMPDEST DUP1 ISZERO PUSH2 0x473 JUMPI DUP1 PUSH1 0x1F LT PUSH2 0x44A JUMPI PUSH2 0x100 DUP1 DUP4 SLOAD DIV MUL DUP4 MSTORE SWAP2 PUSH1 0x20 ADD SWAP2 PUSH2 0x473 JUMP JUMPDEST DUP3 ADD SWAP2 SWAP1 PUSH0 MSTORE PUSH1 0x20 PUSH0 KECCAK256 SWAP1 JUMPDEST DUP2 SLOAD DUP2 MSTORE SWAP1 PUSH1 0x1 ADD SWAP1 PUSH1 0x20 ADD DUP1 DUP4 GT PUSH2 0x456 JUMPI DUP3 SWAP1 SUB PUSH1 0x1F AND DUP3 ADD SWAP2 JUMPDEST POP POP POP POP POP SWAP1 POP SWAP1 JUMP JUMPDEST PUSH0 CALLER PUSH2 0x48A DUP2 DUP6 DUP6 PUSH2 0xB4D JUMP JUMPDEST PUSH1 0x1 SWAP2 POP POP JUMPDEST SWAP3 SWAP2 POP POP JUMP JUMPDEST PUSH0 DUP1 DUP5 GT PUSH2 0x502 JUMPI PUSH1 0x40 MLOAD PUSH3 0x461BCD PUSH1 0xE5 SHL DUP2 MSTORE PUSH1 0x20 PUSH1 0x4 DUP3 ADD MSTORE PUSH1 0x2E PUSH1 0x24 DUP3 ADD MSTORE PUSH32 0x536C696365546F6B656E3A20536C69636520746F6B656E207175616E74697479 PUSH1 0x44 DUP3 ADD MSTORE PUSH14 0x2063616E2774206265207A65726F PUSH1 0x90 SHL PUSH1 0x64 DUP3 ADD MSTORE PUSH1 0x84 ADD JUMPDEST PUSH1 0x40 MLOAD DUP1 SWAP2 SUB SWAP1 REVERT JUMPDEST DUP2 MLOAD DUP4 MLOAD EQ DUP1 ISZERO PUSH2 0x515 JUMPI POP PUSH1 0x7 SLOAD DUP4 MLOAD EQ JUMPDEST PUSH2 0x57B JUMPI PUSH1 0x40 MLOAD PUSH3 0x461BCD PUSH1 0xE5 SHL DUP2 MSTORE PUSH1 0x20 PUSH1 0x4 DUP3 ADD MSTORE PUSH1 0x31 PUSH1 0x24 DUP3 ADD MSTORE PUSH32 0x536C696365546F6B656E3A20496E636F7272656374206C656E67746820666F72 PUSH1 0x44 DUP3 ADD MSTORE PUSH17 0x20707269636573206F7220726F75746573 PUSH1 0x78 SHL PUSH1 0x64 DUP3 ADD MSTORE PUSH1 0x84 ADD PUSH2 0x4F9 JUMP JUMPDEST PUSH0 PUSH2 0x585 DUP5 PUSH2 0xB5F JUMP JUMPDEST PUSH1 0x5 SLOAD PUSH1 0x6 SLOAD PUSH1 0x40 MLOAD PUSH4 0x23B872DD PUSH1 0xE0 SHL DUP2 MSTORE CALLER PUSH1 0x4 DUP3 ADD MSTORE PUSH1 0x1 PUSH1 0x1 PUSH1 0xA0 SHL SUB SWAP2 DUP3 AND PUSH1 0x24 DUP3 ADD MSTORE PUSH1 0x44 DUP2 ADD DUP5 SWAP1 MSTORE SWAP3 SWAP4 POP AND SWAP1 PUSH4 0x23B872DD SWAP1 PUSH1 0x64 ADD PUSH1 0x20 PUSH1 0x40 MLOAD DUP1 DUP4 SUB DUP2 PUSH0 DUP8 GAS CALL ISZERO DUP1 ISZERO PUSH2 0x5DF JUMPI RETURNDATASIZE PUSH0 DUP1 RETURNDATACOPY RETURNDATASIZE PUSH0 REVERT JUMPDEST POP POP POP POP PUSH1 0x40 MLOAD RETURNDATASIZE PUSH1 0x1F NOT PUSH1 0x1F DUP3 ADD AND DUP3 ADD DUP1 PUSH1 0x40 MSTORE POP DUP2 ADD SWAP1 PUSH2 0x603 SWAP2 SWAP1 PUSH2 0x1319 JUMP JUMPDEST POP PUSH1 0x40 MLOAD PUSH12 0xFFFFFFFFFFFFFFFFFFFFFFFF NOT CALLER PUSH1 0x60 SWAP1 DUP2 SHL DUP3 AND PUSH1 0x20 DUP5 ADD MSTORE ADDRESS SWAP1 SHL AND PUSH1 0x34 DUP3 ADD MSTORE PUSH1 0x48 DUP2 ADD DUP7 SWAP1 MSTORE PUSH1 0x68 DUP2 ADD DUP3 SWAP1 MSTORE TIMESTAMP PUSH1 0x88 DUP3 ADD MSTORE PUSH0 SWAP1 PUSH1 0xA8 ADD PUSH1 0x40 DUP1 MLOAD DUP1 DUP4 SUB PUSH1 0x1F NOT ADD DUP2 MSTORE DUP3 DUP3 MSTORE DUP1 MLOAD PUSH1 0x20 SWAP2 DUP3 ADD KECCAK256 PUSH1 0x80 DUP5 ADD DUP4 MSTORE DUP1 DUP5 MSTORE DUP2 DUP5 ADD DUP11 DUP2 MSTORE CALLER DUP6 DUP6 ADD SWAP1 DUP2 MSTORE DUP5 MLOAD DUP1 DUP6 ADD DUP7 MSTORE PUSH0 DUP1 DUP3 MSTORE PUSH1 0x60 DUP9 ADD SWAP2 DUP3 MSTORE DUP5 DUP2 MSTORE PUSH1 0x8 SWAP1 SWAP6 MSTORE SWAP5 SWAP1 SWAP4 KECCAK256 DUP6 MLOAD DUP2 SSTORE SWAP1 MLOAD PUSH1 0x1 DUP3 ADD SSTORE SWAP2 MLOAD PUSH1 0x2 DUP4 ADD DUP1 SLOAD PUSH1 0x1 PUSH1 0x1 PUSH1 0xA0 SHL SUB NOT AND PUSH1 0x1 PUSH1 0x1 PUSH1 0xA0 SHL SUB SWAP1 SWAP3 AND SWAP2 SWAP1 SWAP2 OR SWAP1 SSTORE SWAP2 MLOAD SWAP2 SWAP4 POP DUP3 SWAP2 PUSH1 0x3 DUP3 ADD SWAP1 PUSH2 0x6D4 SWAP1 DUP3 PUSH2 0x1383 JUMP JUMPDEST POP POP PUSH1 0x6 SLOAD PUSH1 0x40 MLOAD PUSH4 0xE84D555 PUSH1 0xE2 SHL DUP2 MSTORE PUSH1 0x1 PUSH1 0x1 PUSH1 0xA0 SHL SUB SWAP1 SWAP2 AND SWAP2 POP PUSH4 0x3A135554 SWAP1 PUSH2 0x70D SWAP1 DUP6 SWAP1 DUP12 SWAP1 DUP12 SWAP1 DUP12 SWAP1 PUSH1 0x4 ADD PUSH2 0x1443 JUMP JUMPDEST PUSH0 PUSH1 0x40 MLOAD DUP1 DUP4 SUB DUP2 PUSH0 DUP8 DUP1 EXTCODESIZE ISZERO DUP1 ISZERO PUSH2 0x724 JUMPI PUSH0 DUP1 REVERT JUMPDEST POP GAS CALL ISZERO DUP1 ISZERO PUSH2 0x736 JUMPI RETURNDATASIZE PUSH0 DUP1 RETURNDATACOPY RETURNDATASIZE PUSH0 REVERT JUMPDEST POP SWAP4 SWAP10 SWAP9 POP POP POP POP POP POP POP POP POP JUMP JUMPDEST PUSH1 0x40 DUP1 MLOAD PUSH1 0x80 DUP1 DUP3 ADD DUP4 MSTORE PUSH0 DUP1 DUP4 MSTORE PUSH1 0x20 DUP1 DUP5 ADD DUP3 SWAP1 MSTORE DUP4 DUP6 ADD DUP3 SWAP1 MSTORE PUSH1 0x60 DUP1 DUP6 ADD DUP2 SWAP1 MSTORE DUP7 DUP4 MSTORE PUSH1 0x9 DUP3 MSTORE SWAP2 DUP6 SWAP1 KECCAK256 DUP6 MLOAD SWAP4 DUP5 ADD DUP7 MSTORE DUP1 SLOAD DUP5 MSTORE PUSH1 0x1 DUP2 ADD SLOAD SWAP2 DUP5 ADD SWAP2 SWAP1 SWAP2 MSTORE PUSH1 0x2 DUP2 ADD SLOAD PUSH1 0x1 PUSH1 0x1 PUSH1 0xA0 SHL SUB AND SWAP5 DUP4 ADD SWAP5 SWAP1 SWAP5 MSTORE PUSH1 0x3 DUP5 ADD DUP1 SLOAD SWAP4 SWAP5 SWAP3 SWAP4 SWAP2 DUP5 ADD SWAP2 PUSH2 0x7B8 SWAP1 PUSH2 0x12E7 JUMP JUMPDEST DUP1 PUSH1 0x1F ADD PUSH1 0x20 DUP1 SWAP2 DIV MUL PUSH1 0x20 ADD PUSH1 0x40 MLOAD SWAP1 DUP2 ADD PUSH1 0x40 MSTORE DUP1 SWAP3 SWAP2 SWAP1 DUP2 DUP2 MSTORE PUSH1 0x20 ADD DUP3 DUP1 SLOAD PUSH2 0x7E4 SWAP1 PUSH2 0x12E7 JUMP JUMPDEST DUP1 ISZERO PUSH2 0x82F JUMPI DUP1 PUSH1 0x1F LT PUSH2 0x806 JUMPI PUSH2 0x100 DUP1 DUP4 SLOAD DIV MUL DUP4 MSTORE SWAP2 PUSH1 0x20 ADD SWAP2 PUSH2 0x82F JUMP JUMPDEST DUP3 ADD SWAP2 SWAP1 PUSH0 MSTORE PUSH1 0x20 PUSH0 KECCAK256 SWAP1 JUMPDEST DUP2 SLOAD DUP2 MSTORE SWAP1 PUSH1 0x1 ADD SWAP1 PUSH1 0x20 ADD DUP1 DUP4 GT PUSH2 0x812 JUMPI DUP3 SWAP1 SUB PUSH1 0x1F AND DUP3 ADD SWAP2 JUMPDEST POP POP POP POP POP DUP2 MSTORE POP POP SWAP1 POP SWAP2 SWAP1 POP JUMP JUMPDEST PUSH0 CALLER PUSH2 0x84C DUP6 DUP3 DUP6 PUSH2 0xBA0 JUMP JUMPDEST PUSH2 0x857 DUP6 DUP6 DUP6 PUSH2 0xC1B JUMP JUMPDEST POP PUSH1 0x1 SWAP5 SWAP4 POP POP POP POP JUMP JUMPDEST PUSH1 0x8 PUSH1 0x20 MSTORE PUSH0 SWAP1 DUP2 MSTORE PUSH1 0x40 SWAP1 KECCAK256 DUP1 SLOAD PUSH1 0x1 DUP3 ADD SLOAD PUSH1 0x2 DUP4 ADD SLOAD PUSH1 0x3 DUP5 ADD DUP1 SLOAD SWAP4 SWAP5 SWAP3 SWAP4 PUSH1 0x1 PUSH1 0x1 PUSH1 0xA0 SHL SUB SWAP1 SWAP3 AND SWAP3 SWAP2 PUSH2 0x89B SWAP1 PUSH2 0x12E7 JUMP JUMPDEST DUP1 PUSH1 0x1F ADD PUSH1 0x20 DUP1 SWAP2 DIV MUL PUSH1 0x20 ADD PUSH1 0x40 MLOAD SWAP1 DUP2 ADD PUSH1 0x40 MSTORE DUP1 SWAP3 SWAP2 SWAP1 DUP2 DUP2 MSTORE PUSH1 0x20 ADD DUP3 DUP1 SLOAD PUSH2 0x8C7 SWAP1 PUSH2 0x12E7 JUMP JUMPDEST DUP1 ISZERO PUSH2 0x912 JUMPI DUP1 PUSH1 0x1F LT PUSH2 0x8E9 JUMPI PUSH2 0x100 DUP1 DUP4 SLOAD DIV MUL DUP4 MSTORE SWAP2 PUSH1 0x20 ADD SWAP2 PUSH2 0x912 JUMP JUMPDEST DUP3 ADD SWAP2 SWAP1 PUSH0 MSTORE PUSH1 0x20 PUSH0 KECCAK256 SWAP1 JUMPDEST DUP2 SLOAD DUP2 MSTORE SWAP1 PUSH1 0x1 ADD SWAP1 PUSH1 0x20 ADD DUP1 DUP4 GT PUSH2 0x8F5 JUMPI DUP3 SWAP1 SUB PUSH1 0x1F AND DUP3 ADD SWAP2 JUMPDEST POP POP POP POP POP SWAP1 POP DUP5 JUMP JUMPDEST PUSH1 0xA PUSH1 0x20 MSTORE PUSH0 SWAP1 DUP2 MSTORE PUSH1 0x40 SWAP1 KECCAK256 DUP1 SLOAD PUSH1 0x1 DUP3 ADD SLOAD PUSH1 0x2 DUP4 ADD SLOAD PUSH1 0x3 DUP5 ADD DUP1 SLOAD SWAP4 SWAP5 SWAP3 SWAP4 PUSH1 0x1 PUSH1 0x1 PUSH1 0xA0 SHL SUB SWAP1 SWAP3 AND SWAP3 SWAP2 PUSH2 0x89B SWAP1 PUSH2 0x12E7 JUMP JUMPDEST PUSH1 0x60 PUSH1 0x7 DUP1 SLOAD DUP1 PUSH1 0x20 MUL PUSH1 0x20 ADD PUSH1 0x40 MLOAD SWAP1 DUP2 ADD PUSH1 0x40 MSTORE DUP1 SWAP3 SWAP2 SWAP1 DUP2 DUP2 MSTORE PUSH1 0x20 ADD PUSH0 SWAP1 JUMPDEST DUP3 DUP3 LT ISZERO PUSH2 0x9CC JUMPI PUSH0 DUP5 DUP2 MSTORE PUSH1 0x20 SWAP1 DUP2 SWAP1 KECCAK256 PUSH1 0x40 DUP1 MLOAD PUSH1 0x60 DUP2 ADD DUP3 MSTORE PUSH1 0x3 DUP7 MUL SWAP1 SWAP3 ADD DUP1 SLOAD DUP4 MSTORE PUSH1 0x1 DUP1 DUP3 ADD SLOAD PUSH1 0x1 PUSH1 0x1 PUSH1 0xA0 SHL SUB AND DUP5 DUP7 ADD MSTORE PUSH1 0x2 SWAP1 SWAP2 ADD SLOAD SWAP2 DUP4 ADD SWAP2 SWAP1 SWAP2 MSTORE SWAP1 DUP4 MSTORE SWAP1 SWAP3 ADD SWAP2 ADD PUSH2 0x978 JUMP JUMPDEST POP POP POP POP SWAP1 POP SWAP1 JUMP JUMPDEST PUSH1 0x60 PUSH1 0x4 DUP1 SLOAD PUSH2 0x3FC SWAP1 PUSH2 0x12E7 JUMP JUMPDEST PUSH1 0x7 DUP2 DUP2 SLOAD DUP2 LT PUSH2 0x9F3 JUMPI PUSH0 DUP1 REVERT JUMPDEST PUSH0 SWAP2 DUP3 MSTORE PUSH1 0x20 SWAP1 SWAP2 KECCAK256 PUSH1 0x3 SWAP1 SWAP2 MUL ADD DUP1 SLOAD PUSH1 0x1 DUP3 ADD SLOAD PUSH1 0x2 SWAP1 SWAP3 ADD SLOAD SWAP1 SWAP3 POP PUSH1 0x1 PUSH1 0x1 PUSH1 0xA0 SHL SUB SWAP1 SWAP2 AND SWAP1 DUP4 JUMP JUMPDEST PUSH1 0x40 DUP1 MLOAD PUSH1 0x80 DUP1 DUP3 ADD DUP4 MSTORE PUSH0 DUP1 DUP4 MSTORE PUSH1 0x20 DUP1 DUP5 ADD DUP3 SWAP1 MSTORE DUP4 DUP6 ADD DUP3 SWAP1 MSTORE PUSH1 0x60 DUP1 DUP6 ADD DUP2 SWAP1 MSTORE DUP7 DUP4 MSTORE PUSH1 0x8 DUP3 MSTORE SWAP2 DUP6 SWAP1 KECCAK256 DUP6 MLOAD SWAP4 DUP5 ADD DUP7 MSTORE DUP1 SLOAD DUP5 MSTORE PUSH1 0x1 DUP2 ADD SLOAD SWAP2 DUP5 ADD SWAP2 SWAP1 SWAP2 MSTORE PUSH1 0x2 DUP2 ADD SLOAD PUSH1 0x1 PUSH1 0x1 PUSH1 0xA0 SHL SUB AND SWAP5 DUP4 ADD SWAP5 SWAP1 SWAP5 MSTORE PUSH1 0x3 DUP5 ADD DUP1 SLOAD SWAP4 SWAP5 SWAP3 SWAP4 SWAP2 DUP5 ADD SWAP2 PUSH2 0x7B8 SWAP1 PUSH2 0x12E7 JUMP JUMPDEST PUSH0 CALLER PUSH2 0x48A DUP2 DUP6 DUP6 PUSH2 0xC1B JUMP JUMPDEST PUSH1 0x9 PUSH1 0x20 MSTORE PUSH0 SWAP1 DUP2 MSTORE PUSH1 0x40 SWAP1 KECCAK256 DUP1 SLOAD PUSH1 0x1 DUP3 ADD SLOAD PUSH1 0x2 DUP4 ADD SLOAD PUSH1 0x3 DUP5 ADD DUP1 SLOAD SWAP4 SWAP5 SWAP3 SWAP4 PUSH1 0x1 PUSH1 0x1 PUSH1 0xA0 SHL SUB SWAP1 SWAP3 AND SWAP3 SWAP2 PUSH2 0x89B SWAP1 PUSH2 0x12E7 JUMP JUMPDEST PUSH1 0x40 DUP1 MLOAD PUSH1 0x80 DUP1 DUP3 ADD DUP4 MSTORE PUSH0 DUP1 DUP4 MSTORE PUSH1 0x20 DUP1 DUP5 ADD DUP3 SWAP1 MSTORE DUP4 DUP6 ADD DUP3 SWAP1 MSTORE PUSH1 0x60 DUP1 DUP6 ADD DUP2 SWAP1 MSTORE DUP7 DUP4 MSTORE PUSH1 0xA DUP3 MSTORE SWAP2 DUP6 SWAP1 KECCAK256 DUP6 MLOAD SWAP4 DUP5 ADD DUP7 MSTORE DUP1 SLOAD DUP5 MSTORE PUSH1 0x1 DUP2 ADD SLOAD SWAP2 DUP5 ADD SWAP2 SWAP1 SWAP2 MSTORE PUSH1 0x2 DUP2 ADD SLOAD PUSH1 0x1 PUSH1 0x1 PUSH1 0xA0 SHL SUB AND SWAP5 DUP4 ADD SWAP5 SWAP1 SWAP5 MSTORE PUSH1 0x3 DUP5 ADD DUP1 SLOAD SWAP4 SWAP5 SWAP3 SWAP4 SWAP2 DUP5 ADD SWAP2 PUSH2 0x7B8 SWAP1 PUSH2 0x12E7 JUMP JUMPDEST PUSH2 0xB5A DUP4 DUP4 DUP4 PUSH1 0x1 PUSH2 0xC78 JUMP JUMPDEST POP POP POP JUMP JUMPDEST PUSH0 DUP1 JUMPDEST DUP3 MLOAD DUP2 LT ISZERO PUSH2 0xB9A JUMPI DUP3 DUP2 DUP2 MLOAD DUP2 LT PUSH2 0xB7D JUMPI PUSH2 0xB7D PUSH2 0x14E9 JUMP JUMPDEST PUSH1 0x20 MUL PUSH1 0x20 ADD ADD MLOAD DUP3 PUSH2 0xB90 SWAP2 SWAP1 PUSH2 0x14FD JUMP JUMPDEST SWAP2 POP PUSH1 0x1 ADD PUSH2 0xB62 JUMP JUMPDEST POP SWAP2 SWAP1 POP JUMP JUMPDEST PUSH1 0x1 PUSH1 0x1 PUSH1 0xA0 SHL SUB DUP4 DUP2 AND PUSH0 SWAP1 DUP2 MSTORE PUSH1 0x1 PUSH1 0x20 SWAP1 DUP2 MSTORE PUSH1 0x40 DUP1 DUP4 KECCAK256 SWAP4 DUP7 AND DUP4 MSTORE SWAP3 SWAP1 MSTORE KECCAK256 SLOAD PUSH0 NOT DUP2 EQ PUSH2 0xC15 JUMPI DUP2 DUP2 LT ISZERO PUSH2 0xC07 JUMPI PUSH1 0x40 MLOAD PUSH4 0x7DC7A0D9 PUSH1 0xE1 SHL DUP2 MSTORE PUSH1 0x1 PUSH1 0x1 PUSH1 0xA0 SHL SUB DUP5 AND PUSH1 0x4 DUP3 ADD MSTORE PUSH1 0x24 DUP2 ADD DUP3 SWAP1 MSTORE PUSH1 0x44 DUP2 ADD DUP4 SWAP1 MSTORE PUSH1 0x64 ADD PUSH2 0x4F9 JUMP JUMPDEST PUSH2 0xC15 DUP5 DUP5 DUP5 DUP5 SUB PUSH0 PUSH2 0xC78 JUMP JUMPDEST POP POP POP POP JUMP JUMPDEST PUSH1 0x1 PUSH1 0x1 PUSH1 0xA0 SHL SUB DUP4 AND PUSH2 0xC44 JUMPI PUSH1 0x40 MLOAD PUSH4 0x4B637E8F PUSH1 0xE1 SHL DUP2 MSTORE PUSH0 PUSH1 0x4 DUP3 ADD MSTORE PUSH1 0x24 ADD PUSH2 0x4F9 JUMP JUMPDEST PUSH1 0x1 PUSH1 0x1 PUSH1 0xA0 SHL SUB DUP3 AND PUSH2 0xC6D JUMPI PUSH1 0x40 MLOAD PUSH4 0xEC442F05 PUSH1 0xE0 SHL DUP2 MSTORE PUSH0 PUSH1 0x4 DUP3 ADD MSTORE PUSH1 0x24 ADD PUSH2 0x4F9 JUMP JUMPDEST PUSH2 0xB5A DUP4 DUP4 DUP4 PUSH2 0xD4A JUMP JUMPDEST PUSH1 0x1 PUSH1 0x1 PUSH1 0xA0 SHL SUB DUP5 AND PUSH2 0xCA1 JUMPI PUSH1 0x40 MLOAD PUSH4 0xE602DF05 PUSH1 0xE0 SHL DUP2 MSTORE PUSH0 PUSH1 0x4 DUP3 ADD MSTORE PUSH1 0x24 ADD PUSH2 0x4F9 JUMP JUMPDEST PUSH1 0x1 PUSH1 0x1 PUSH1 0xA0 SHL SUB DUP4 AND PUSH2 0xCCA JUMPI PUSH1 0x40 MLOAD PUSH4 0x4A1406B1 PUSH1 0xE1 SHL DUP2 MSTORE PUSH0 PUSH1 0x4 DUP3 ADD MSTORE PUSH1 0x24 ADD PUSH2 0x4F9 JUMP JUMPDEST PUSH1 0x1 PUSH1 0x1 PUSH1 0xA0 SHL SUB DUP1 DUP6 AND PUSH0 SWAP1 DUP2 MSTORE PUSH1 0x1 PUSH1 0x20 SWAP1 DUP2 MSTORE PUSH1 0x40 DUP1 DUP4 KECCAK256 SWAP4 DUP8 AND DUP4 MSTORE SWAP3 SWAP1 MSTORE KECCAK256 DUP3 SWAP1 SSTORE DUP1 ISZERO PUSH2 0xC15 JUMPI DUP3 PUSH1 0x1 PUSH1 0x1 PUSH1 0xA0 SHL SUB AND DUP5 PUSH1 0x1 PUSH1 0x1 PUSH1 0xA0 SHL SUB AND PUSH32 0x8C5BE1E5EBEC7D5BD14F71427D1E84F3DD0314C0F7B2291E5B200AC8C7C3B925 DUP5 PUSH1 0x40 MLOAD PUSH2 0xD3C SWAP2 DUP2 MSTORE PUSH1 0x20 ADD SWAP1 JUMP JUMPDEST PUSH1 0x40 MLOAD DUP1 SWAP2 SUB SWAP1 LOG3 POP POP POP POP JUMP JUMPDEST PUSH1 0x1 PUSH1 0x1 PUSH1 0xA0 SHL SUB DUP4 AND PUSH2 0xD74 JUMPI DUP1 PUSH1 0x2 PUSH0 DUP3 DUP3 SLOAD PUSH2 0xD69 SWAP2 SWAP1 PUSH2 0x14FD JUMP JUMPDEST SWAP1 SWAP2 SSTORE POP PUSH2 0xDE4 SWAP1 POP JUMP JUMPDEST PUSH1 0x1 PUSH1 0x1 PUSH1 0xA0 SHL SUB DUP4 AND PUSH0 SWAP1 DUP2 MSTORE PUSH1 0x20 DUP2 SWAP1 MSTORE PUSH1 0x40 SWAP1 KECCAK256 SLOAD DUP2 DUP2 LT ISZERO PUSH2 0xDC6 JUMPI PUSH1 0x40 MLOAD PUSH4 0x391434E3 PUSH1 0xE2 SHL DUP2 MSTORE PUSH1 0x1 PUSH1 0x1 PUSH1 0xA0 SHL SUB DUP6 AND PUSH1 0x4 DUP3 ADD MSTORE PUSH1 0x24 DUP2 ADD DUP3 SWAP1 MSTORE PUSH1 0x44 DUP2 ADD DUP4 SWAP1 MSTORE PUSH1 0x64 ADD PUSH2 0x4F9 JUMP JUMPDEST PUSH1 0x1 PUSH1 0x1 PUSH1 0xA0 SHL SUB DUP5 AND PUSH0 SWAP1 DUP2 MSTORE PUSH1 0x20 DUP2 SWAP1 MSTORE PUSH1 0x40 SWAP1 KECCAK256 SWAP1 DUP3 SWAP1 SUB SWAP1 SSTORE JUMPDEST PUSH1 0x1 PUSH1 0x1 PUSH1 0xA0 SHL SUB DUP3 AND PUSH2 0xE00 JUMPI PUSH1 0x2 DUP1 SLOAD DUP3 SWAP1 SUB SWAP1 SSTORE PUSH2 0xE1E JUMP JUMPDEST PUSH1 0x1 PUSH1 0x1 PUSH1 0xA0 SHL SUB DUP3 AND PUSH0 SWAP1 DUP2 MSTORE PUSH1 0x20 DUP2 SWAP1 MSTORE PUSH1 0x40 SWAP1 KECCAK256 DUP1 SLOAD DUP3 ADD SWAP1 SSTORE JUMPDEST DUP2 PUSH1 0x1 PUSH1 0x1 PUSH1 0xA0 SHL SUB AND DUP4 PUSH1 0x1 PUSH1 0x1 PUSH1 0xA0 SHL SUB AND PUSH32 0xDDF252AD1BE2C89B69C2B068FC378DAA952BA7F163C4A11628F55A4DF523B3EF DUP4 PUSH1 0x40 MLOAD PUSH2 0xE63 SWAP2 DUP2 MSTORE PUSH1 0x20 ADD SWAP1 JUMP JUMPDEST PUSH1 0x40 MLOAD DUP1 SWAP2 SUB SWAP1 LOG3 POP POP POP JUMP JUMPDEST PUSH0 DUP2 MLOAD DUP1 DUP5 MSTORE DUP1 PUSH1 0x20 DUP5 ADD PUSH1 0x20 DUP7 ADD MCOPY PUSH0 PUSH1 0x20 DUP3 DUP7 ADD ADD MSTORE PUSH1 0x20 PUSH1 0x1F NOT PUSH1 0x1F DUP4 ADD AND DUP6 ADD ADD SWAP2 POP POP SWAP3 SWAP2 POP POP JUMP JUMPDEST PUSH1 0x20 DUP2 MSTORE PUSH0 PUSH2 0xEB0 PUSH1 0x20 DUP4 ADD DUP5 PUSH2 0xE70 JUMP JUMPDEST SWAP4 SWAP3 POP POP POP JUMP JUMPDEST DUP1 CALLDATALOAD PUSH1 0x1 PUSH1 0x1 PUSH1 0xA0 SHL SUB DUP2 AND DUP2 EQ PUSH2 0xECD JUMPI PUSH0 DUP1 REVERT JUMPDEST SWAP2 SWAP1 POP JUMP JUMPDEST PUSH0 DUP1 PUSH1 0x40 DUP4 DUP6 SUB SLT ISZERO PUSH2 0xEE3 JUMPI PUSH0 DUP1 REVERT JUMPDEST PUSH2 0xEEC DUP4 PUSH2 0xEB7 JUMP JUMPDEST SWAP5 PUSH1 0x20 SWAP4 SWAP1 SWAP4 ADD CALLDATALOAD SWAP4 POP POP POP JUMP JUMPDEST PUSH4 0x4E487B71 PUSH1 0xE0 SHL PUSH0 MSTORE PUSH1 0x41 PUSH1 0x4 MSTORE PUSH1 0x24 PUSH0 REVERT JUMPDEST PUSH1 0x40 MLOAD PUSH1 0x1F DUP3 ADD PUSH1 0x1F NOT AND DUP2 ADD PUSH8 0xFFFFFFFFFFFFFFFF DUP2 GT DUP3 DUP3 LT OR ISZERO PUSH2 0xF37 JUMPI PUSH2 0xF37 PUSH2 0xEFA JUMP JUMPDEST PUSH1 0x40 MSTORE SWAP2 SWAP1 POP JUMP JUMPDEST PUSH0 PUSH8 0xFFFFFFFFFFFFFFFF DUP3 GT ISZERO PUSH2 0xF58 JUMPI PUSH2 0xF58 PUSH2 0xEFA JUMP JUMPDEST POP PUSH1 0x5 SHL PUSH1 0x20 ADD SWAP1 JUMP JUMPDEST PUSH0 PUSH1 0x1F DUP4 PUSH1 0x1F DUP5 ADD SLT PUSH2 0xF73 JUMPI PUSH0 DUP1 REVERT JUMPDEST DUP3 CALLDATALOAD PUSH1 0x20 PUSH2 0xF88 PUSH2 0xF83 DUP4 PUSH2 0xF3F JUMP JUMPDEST PUSH2 0xF0E JUMP JUMPDEST DUP3 DUP2 MSTORE PUSH1 0x5 SWAP3 SWAP1 SWAP3 SHL DUP6 ADD DUP2 ADD SWAP2 DUP2 DUP2 ADD SWAP1 DUP8 DUP5 GT ISZERO PUSH2 0xFA6 JUMPI PUSH0 DUP1 REVERT JUMPDEST DUP3 DUP8 ADD JUMPDEST DUP5 DUP2 LT ISZERO PUSH2 0x1036 JUMPI DUP1 CALLDATALOAD PUSH8 0xFFFFFFFFFFFFFFFF DUP1 DUP3 GT ISZERO PUSH2 0xFC9 JUMPI PUSH0 DUP1 REVERT JUMPDEST DUP2 DUP11 ADD SWAP2 POP DUP11 PUSH1 0x3F DUP4 ADD SLT PUSH2 0xFDC JUMPI PUSH0 DUP1 REVERT JUMPDEST DUP6 DUP3 ADD CALLDATALOAD PUSH1 0x40 DUP3 DUP3 GT ISZERO PUSH2 0xFF2 JUMPI PUSH2 0xFF2 PUSH2 0xEFA JUMP JUMPDEST PUSH2 0x1003 DUP3 DUP12 ADD PUSH1 0x1F NOT AND DUP10 ADD PUSH2 0xF0E JUMP JUMPDEST SWAP3 POP DUP2 DUP4 MSTORE DUP13 DUP2 DUP4 DUP7 ADD ADD GT ISZERO PUSH2 0x1018 JUMPI PUSH0 DUP1 REVERT JUMPDEST DUP2 DUP2 DUP6 ADD DUP10 DUP6 ADD CALLDATACOPY POP PUSH0 SWAP1 DUP3 ADD DUP8 ADD MSTORE DUP5 MSTORE POP SWAP2 DUP4 ADD SWAP2 DUP4 ADD PUSH2 0xFAA JUMP JUMPDEST POP SWAP8 SWAP7 POP POP POP POP POP POP POP JUMP JUMPDEST PUSH0 DUP1 PUSH0 PUSH1 0x60 DUP5 DUP7 SUB SLT ISZERO PUSH2 0x1054 JUMPI PUSH0 DUP1 REVERT JUMPDEST DUP4 CALLDATALOAD SWAP3 POP PUSH1 0x20 DUP1 DUP6 ADD CALLDATALOAD PUSH8 0xFFFFFFFFFFFFFFFF DUP1 DUP3 GT ISZERO PUSH2 0x1073 JUMPI PUSH0 DUP1 REVERT JUMPDEST DUP2 DUP8 ADD SWAP2 POP DUP8 PUSH1 0x1F DUP4 ADD SLT PUSH2 0x1086 JUMPI PUSH0 DUP1 REVERT JUMPDEST DUP2 CALLDATALOAD PUSH2 0x1094 PUSH2 0xF83 DUP3 PUSH2 0xF3F JUMP JUMPDEST DUP2 DUP2 MSTORE PUSH1 0x5 SWAP2 SWAP1 SWAP2 SHL DUP4 ADD DUP5 ADD SWAP1 DUP5 DUP2 ADD SWAP1 DUP11 DUP4 GT ISZERO PUSH2 0x10B2 JUMPI PUSH0 DUP1 REVERT JUMPDEST SWAP4 DUP6 ADD SWAP4 JUMPDEST DUP3 DUP6 LT ISZERO PUSH2 0x10D0 JUMPI DUP5 CALLDATALOAD DUP3 MSTORE SWAP4 DUP6 ADD SWAP4 SWAP1 DUP6 ADD SWAP1 PUSH2 0x10B7 JUMP JUMPDEST SWAP7 POP POP POP PUSH1 0x40 DUP8 ADD CALLDATALOAD SWAP3 POP DUP1 DUP4 GT ISZERO PUSH2 0x10E7 JUMPI PUSH0 DUP1 REVERT JUMPDEST POP POP PUSH2 0x10F5 DUP7 DUP3 DUP8 ADD PUSH2 0xF62 JUMP JUMPDEST SWAP2 POP POP SWAP3 POP SWAP3 POP SWAP3 JUMP JUMPDEST PUSH0 PUSH1 0x20 DUP3 DUP5 SUB SLT ISZERO PUSH2 0x110F JUMPI PUSH0 DUP1 REVERT JUMPDEST POP CALLDATALOAD SWAP2 SWAP1 POP JUMP JUMPDEST PUSH1 0x20 DUP2 MSTORE DUP2 MLOAD PUSH1 0x20 DUP3 ADD MSTORE PUSH1 0x20 DUP3 ADD MLOAD PUSH1 0x40 DUP3 ADD MSTORE PUSH1 0x1 DUP1 PUSH1 0xA0 SHL SUB PUSH1 0x40 DUP4 ADD MLOAD AND PUSH1 0x60 DUP3 ADD MSTORE PUSH0 PUSH1 0x60 DUP4 ADD MLOAD PUSH1 0x80 DUP1 DUP5 ADD MSTORE PUSH2 0x1156 PUSH1 0xA0 DUP5 ADD DUP3 PUSH2 0xE70 JUMP JUMPDEST SWAP5 SWAP4 POP POP POP POP JUMP JUMPDEST PUSH0 DUP1 PUSH1 0x20 DUP4 DUP6 SUB SLT ISZERO PUSH2 0x116F JUMPI PUSH0 DUP1 REVERT JUMPDEST DUP3 CALLDATALOAD PUSH8 0xFFFFFFFFFFFFFFFF DUP1 DUP3 GT ISZERO PUSH2 0x1186 JUMPI PUSH0 DUP1 REVERT JUMPDEST DUP2 DUP6 ADD SWAP2 POP DUP6 PUSH1 0x1F DUP4 ADD SLT PUSH2 0x1199 JUMPI PUSH0 DUP1 REVERT JUMPDEST DUP2 CALLDATALOAD DUP2 DUP2 GT ISZERO PUSH2 0x11A7 JUMPI PUSH0 DUP1 REVERT JUMPDEST DUP7 PUSH1 0x20 PUSH1 0x60 DUP4 MUL DUP6 ADD ADD GT ISZERO PUSH2 0x11BB JUMPI PUSH0 DUP1 REVERT JUMPDEST PUSH1 0x20 SWAP3 SWAP1 SWAP3 ADD SWAP7 SWAP2 SWAP6 POP SWAP1 SWAP4 POP POP POP POP JUMP JUMPDEST PUSH0 DUP1 PUSH0 PUSH1 0x60 DUP5 DUP7 SUB SLT ISZERO PUSH2 0x11DF JUMPI PUSH0 DUP1 REVERT JUMPDEST PUSH2 0x11E8 DUP5 PUSH2 0xEB7 JUMP JUMPDEST SWAP3 POP PUSH2 0x11F6 PUSH1 0x20 DUP6 ADD PUSH2 0xEB7 JUMP JUMPDEST SWAP2 POP PUSH1 0x40 DUP5 ADD CALLDATALOAD SWAP1 POP SWAP3 POP SWAP3 POP SWAP3 JUMP JUMPDEST DUP5 DUP2 MSTORE DUP4 PUSH1 0x20 DUP3 ADD MSTORE PUSH1 0x1 DUP1 PUSH1 0xA0 SHL SUB DUP4 AND PUSH1 0x40 DUP3 ADD MSTORE PUSH1 0x80 PUSH1 0x60 DUP3 ADD MSTORE PUSH0 PUSH2 0x1232 PUSH1 0x80 DUP4 ADD DUP5 PUSH2 0xE70 JUMP JUMPDEST SWAP7 SWAP6 POP POP POP POP POP POP JUMP JUMPDEST PUSH0 PUSH1 0x20 DUP3 DUP5 SUB SLT ISZERO PUSH2 0x124C JUMPI PUSH0 DUP1 REVERT JUMPDEST PUSH2 0xEB0 DUP3 PUSH2 0xEB7 JUMP JUMPDEST PUSH1 0x20 DUP1 DUP3 MSTORE DUP3 MLOAD DUP3 DUP3 ADD DUP2 SWAP1 MSTORE PUSH0 SWAP2 SWAP1 PUSH1 0x40 SWAP1 DUP2 DUP6 ADD SWAP1 DUP7 DUP5 ADD DUP6 JUMPDEST DUP3 DUP2 LT ISZERO PUSH2 0x12A9 JUMPI DUP2 MLOAD DUP1 MLOAD DUP6 MSTORE DUP7 DUP2 ADD MLOAD PUSH1 0x1 PUSH1 0x1 PUSH1 0xA0 SHL SUB AND DUP8 DUP7 ADD MSTORE DUP6 ADD MLOAD DUP6 DUP6 ADD MSTORE PUSH1 0x60 SWAP1 SWAP4 ADD SWAP3 SWAP1 DUP6 ADD SWAP1 PUSH1 0x1 ADD PUSH2 0x1271 JUMP JUMPDEST POP SWAP2 SWAP8 SWAP7 POP POP POP POP POP POP POP JUMP JUMPDEST PUSH0 DUP1 PUSH1 0x40 DUP4 DUP6 SUB SLT ISZERO PUSH2 0x12C7 JUMPI PUSH0 DUP1 REVERT JUMPDEST PUSH2 0x12D0 DUP4 PUSH2 0xEB7 JUMP JUMPDEST SWAP2 POP PUSH2 0x12DE PUSH1 0x20 DUP5 ADD PUSH2 0xEB7 JUMP JUMPDEST SWAP1 POP SWAP3 POP SWAP3 SWAP1 POP JUMP JUMPDEST PUSH1 0x1 DUP2 DUP2 SHR SWAP1 DUP3 AND DUP1 PUSH2 0x12FB JUMPI PUSH1 0x7F DUP3 AND SWAP2 POP JUMPDEST PUSH1 0x20 DUP3 LT DUP2 SUB PUSH2 0xB9A JUMPI PUSH4 0x4E487B71 PUSH1 0xE0 SHL PUSH0 MSTORE PUSH1 0x22 PUSH1 0x4 MSTORE PUSH1 0x24 PUSH0 REVERT JUMPDEST PUSH0 PUSH1 0x20 DUP3 DUP5 SUB SLT ISZERO PUSH2 0x1329 JUMPI PUSH0 DUP1 REVERT JUMPDEST DUP2 MLOAD DUP1 ISZERO ISZERO DUP2 EQ PUSH2 0xEB0 JUMPI PUSH0 DUP1 REVERT JUMPDEST PUSH1 0x1F DUP3 GT ISZERO PUSH2 0xB5A JUMPI DUP1 PUSH0 MSTORE PUSH1 0x20 PUSH0 KECCAK256 PUSH1 0x1F DUP5 ADD PUSH1 0x5 SHR DUP2 ADD PUSH1 0x20 DUP6 LT ISZERO PUSH2 0x135D JUMPI POP DUP1 JUMPDEST PUSH1 0x1F DUP5 ADD PUSH1 0x5 SHR DUP3 ADD SWAP2 POP JUMPDEST DUP2 DUP2 LT ISZERO PUSH2 0x137C JUMPI PUSH0 DUP2 SSTORE PUSH1 0x1 ADD PUSH2 0x1369 JUMP JUMPDEST POP POP POP POP POP JUMP JUMPDEST DUP2 MLOAD PUSH8 0xFFFFFFFFFFFFFFFF DUP2 GT ISZERO PUSH2 0x139D JUMPI PUSH2 0x139D PUSH2 0xEFA JUMP JUMPDEST PUSH2 0x13B1 DUP2 PUSH2 0x13AB DUP5 SLOAD PUSH2 0x12E7 JUMP JUMPDEST DUP5 PUSH2 0x1338 JUMP JUMPDEST PUSH1 0x20 DUP1 PUSH1 0x1F DUP4 GT PUSH1 0x1 DUP2 EQ PUSH2 0x13E4 JUMPI PUSH0 DUP5 ISZERO PUSH2 0x13CD JUMPI POP DUP6 DUP4 ADD MLOAD JUMPDEST PUSH0 NOT PUSH1 0x3 DUP7 SWAP1 SHL SHR NOT AND PUSH1 0x1 DUP6 SWAP1 SHL OR DUP6 SSTORE PUSH2 0x143B JUMP JUMPDEST PUSH0 DUP6 DUP2 MSTORE PUSH1 0x20 DUP2 KECCAK256 PUSH1 0x1F NOT DUP7 AND SWAP2 JUMPDEST DUP3 DUP2 LT ISZERO PUSH2 0x1412 JUMPI DUP9 DUP7 ADD MLOAD DUP3 SSTORE SWAP5 DUP5 ADD SWAP5 PUSH1 0x1 SWAP1 SWAP2 ADD SWAP1 DUP5 ADD PUSH2 0x13F3 JUMP JUMPDEST POP DUP6 DUP3 LT ISZERO PUSH2 0x142F JUMPI DUP8 DUP6 ADD MLOAD PUSH0 NOT PUSH1 0x3 DUP9 SWAP1 SHL PUSH1 0xF8 AND SHR NOT AND DUP2 SSTORE JUMPDEST POP POP PUSH1 0x1 DUP5 PUSH1 0x1 SHL ADD DUP6 SSTORE JUMPDEST POP POP POP POP POP POP JUMP JUMPDEST PUSH0 PUSH1 0x80 DUP3 ADD DUP7 DUP4 MSTORE PUSH1 0x20 DUP7 DUP2 DUP6 ADD MSTORE PUSH1 0x80 PUSH1 0x40 DUP6 ADD MSTORE DUP2 DUP7 MLOAD DUP1 DUP5 MSTORE PUSH1 0xA0 DUP7 ADD SWAP2 POP DUP3 DUP9 ADD SWAP4 POP PUSH0 JUMPDEST DUP2 DUP2 LT ISZERO PUSH2 0x1488 JUMPI DUP5 MLOAD DUP4 MSTORE SWAP4 DUP4 ADD SWAP4 SWAP2 DUP4 ADD SWAP2 PUSH1 0x1 ADD PUSH2 0x146C JUMP JUMPDEST POP POP DUP5 DUP2 SUB PUSH1 0x60 DUP7 ADD MSTORE DUP6 MLOAD DUP1 DUP3 MSTORE DUP3 DUP3 ADD SWAP4 POP PUSH1 0x5 DUP2 SWAP1 SHL DUP3 ADD DUP4 ADD DUP4 DUP9 ADD PUSH0 JUMPDEST DUP4 DUP2 LT ISZERO PUSH2 0x14D8 JUMPI PUSH1 0x1F NOT DUP6 DUP5 SUB ADD DUP8 MSTORE PUSH2 0x14C6 DUP4 DUP4 MLOAD PUSH2 0xE70 JUMP JUMPDEST SWAP7 DUP7 ADD SWAP7 SWAP3 POP SWAP1 DUP6 ADD SWAP1 PUSH1 0x1 ADD PUSH2 0x14AA JUMP JUMPDEST POP SWAP1 SWAP12 SWAP11 POP POP POP POP POP POP POP POP POP POP POP JUMP JUMPDEST PUSH4 0x4E487B71 PUSH1 0xE0 SHL PUSH0 MSTORE PUSH1 0x32 PUSH1 0x4 MSTORE PUSH1 0x24 PUSH0 REVERT JUMPDEST DUP1 DUP3 ADD DUP1 DUP3 GT ISZERO PUSH2 0x490 JUMPI PUSH4 0x4E487B71 PUSH1 0xE0 SHL PUSH0 MSTORE PUSH1 0x11 PUSH1 0x4 MSTORE PUSH1 0x24 PUSH0 REVERT INVALID LOG2 PUSH5 0x6970667358 0x22 SLT KECCAK256 SWAP15 0xD9 0xE7 EXTCODECOPY 0x1E 0xB7 EQ 0xB2 0xC0 DUP12 EXTCODEHASH SWAP9 0xA6 DUP6 XOR SWAP6 DIV 0xE2 0xC8 0xB5 SWAP6 0x26 0xB3 0xC6 0x2C 0xAD 0x1E DELEGATECALL 0xC2 SWAP9 0xD5 0xA6 PUSH5 0x736F6C6343 STOP ADDMOD NOT STOP CALLER PUSH1 0x80 PUSH1 0x40 MSTORE CALLVALUE DUP1 ISZERO PUSH2 0xF JUMPI PUSH0 DUP1 REVERT JUMPDEST POP CALLER DUP1 PUSH2 0x35 JUMPI PUSH1 0x40 MLOAD PUSH4 0x1E4FBDF7 PUSH1 0xE0 SHL DUP2 MSTORE PUSH0 PUSH1 0x4 DUP3 ADD MSTORE PUSH1 0x24 ADD PUSH1 0x40 MLOAD DUP1 SWAP2 SUB SWAP1 REVERT JUMPDEST PUSH2 0x3E DUP2 PUSH2 0xA6B JUMP JUMPDEST POP PUSH1 0x40 MLOAD DUP1 PUSH1 0x80 ADD PUSH1 0x40 MSTORE DUP1 PUSH1 0x1 DUP2 MSTORE PUSH1 0x20 ADD PUSH2 0x80 PUSH1 0x40 MLOAD DUP1 PUSH1 0x40 ADD PUSH1 0x40 MSTORE DUP1 PUSH1 0x8 DUP2 MSTORE PUSH1 0x20 ADD PUSH8 0x457468657265756D PUSH1 0xC0 SHL DUP2 MSTORE POP PUSH2 0xABA PUSH1 0x20 SHL PUSH1 0x20 SHR JUMP JUMPDEST DUP2 MSTORE PUSH1 0x65 PUSH1 0x20 DUP1 DUP4 ADD SWAP2 SWAP1 SWAP2 MSTORE PUSH2 0x7595 PUSH1 0x40 SWAP3 DUP4 ADD MSTORE PUSH1 0x1 PUSH0 DUP2 SWAP1 MSTORE DUP2 MSTORE DUP3 MLOAD PUSH32 0xCC69885FDA6BCC1A4ACE058B4A62BF5E179EA78FD58A1CCD71C22CC9B688792F SSTORE DUP3 DUP2 ADD MLOAD PUSH32 0xCC69885FDA6BCC1A4ACE058B4A62BF5E179EA78FD58A1CCD71C22CC9B6887930 SSTORE DUP3 DUP3 ADD MLOAD PUSH32 0xCC69885FDA6BCC1A4ACE058B4A62BF5E179EA78FD58A1CCD71C22CC9B6887931 DUP1 SLOAD PUSH1 0x60 SWAP1 SWAP6 ADD MLOAD PUSH4 0xFFFFFFFF AND PUSH3 0x10000 MUL PUSH6 0xFFFFFFFFFFFF NOT SWAP1 SWAP6 AND PUSH2 0xFFFF SWAP3 SWAP1 SWAP3 AND SWAP2 SWAP1 SWAP2 OR SWAP4 SWAP1 SWAP4 OR SWAP1 SWAP3 SSTORE DUP1 MLOAD PUSH1 0x80 DUP2 ADD DUP3 MSTORE PUSH1 0x38 DUP2 MSTORE DUP2 MLOAD DUP1 DUP4 ADD SWAP1 SWAP3 MSTORE PUSH1 0x7 DUP3 MSTORE PUSH7 0x62696E616E6365 PUSH1 0xC8 SHL DUP3 DUP5 ADD MSTORE SWAP2 DUP3 ADD SWAP1 PUSH2 0x171 SWAP1 PUSH2 0xABA JUMP JUMPDEST DUP2 MSTORE PUSH1 0x66 PUSH1 0x20 DUP1 DUP4 ADD SWAP2 SWAP1 SWAP2 MSTORE PUSH2 0x7596 PUSH1 0x40 SWAP3 DUP4 ADD MSTORE PUSH1 0x38 PUSH0 MSTORE PUSH1 0x1 DUP2 MSTORE DUP3 MLOAD PUSH32 0xB607CC36270BBBB376B98F602EC3A5EC6C4FE7CF0D42AF35FD17A642242D24FD SSTORE DUP3 DUP2 ADD MLOAD PUSH32 0xB607CC36270BBBB376B98F602EC3A5EC6C4FE7CF0D42AF35FD17A642242D24FE SSTORE DUP3 DUP3 ADD MLOAD PUSH32 0xB607CC36270BBBB376B98F602EC3A5EC6C4FE7CF0D42AF35FD17A642242D24FF DUP1 SLOAD PUSH1 0x60 SWAP1 SWAP6 ADD MLOAD PUSH4 0xFFFFFFFF AND PUSH3 0x10000 MUL PUSH6 0xFFFFFFFFFFFF NOT SWAP1 SWAP6 AND PUSH2 0xFFFF SWAP3 SWAP1 SWAP3 AND SWAP2 SWAP1 SWAP2 OR SWAP4 SWAP1 SWAP4 OR SWAP1 SWAP3 SSTORE DUP1 MLOAD PUSH1 0x80 DUP2 ADD DUP3 MSTORE PUSH2 0xA86A DUP2 MSTORE DUP2 MLOAD DUP1 DUP4 ADD SWAP1 SWAP3 MSTORE PUSH1 0x9 DUP3 MSTORE PUSH9 0x4176616C616E636865 PUSH1 0xB8 SHL DUP3 DUP5 ADD MSTORE SWAP2 DUP3 ADD SWAP1 PUSH2 0x265 SWAP1 PUSH2 0xABA JUMP JUMPDEST DUP2 MSTORE PUSH1 0x6A PUSH1 0x20 DUP1 DUP4 ADD SWAP2 SWAP1 SWAP2 MSTORE PUSH2 0x759A PUSH1 0x40 SWAP3 DUP4 ADD MSTORE PUSH2 0xA86A PUSH0 MSTORE PUSH1 0x1 DUP2 MSTORE DUP3 MLOAD PUSH32 0x2AC81F2B713AAAB96F9745F662118839B87E598B16AA16440B4BE604C915E1AA SSTORE DUP3 DUP2 ADD MLOAD PUSH32 0x2AC81F2B713AAAB96F9745F662118839B87E598B16AA16440B4BE604C915E1AB SSTORE DUP3 DUP3 ADD MLOAD PUSH32 0x2AC81F2B713AAAB96F9745F662118839B87E598B16AA16440B4BE604C915E1AC DUP1 SLOAD PUSH1 0x60 SWAP1 SWAP6 ADD MLOAD PUSH4 0xFFFFFFFF AND PUSH3 0x10000 MUL PUSH6 0xFFFFFFFFFFFF NOT SWAP1 SWAP6 AND PUSH2 0xFFFF SWAP3 SWAP1 SWAP3 AND SWAP2 SWAP1 SWAP2 OR SWAP4 SWAP1 SWAP4 OR SWAP1 SWAP3 SSTORE DUP1 MLOAD PUSH1 0x80 DUP2 ADD DUP3 MSTORE PUSH1 0x89 DUP2 MSTORE DUP2 MLOAD DUP1 DUP4 ADD SWAP1 SWAP3 MSTORE PUSH1 0x7 DUP3 MSTORE PUSH7 0x2837B63CB3B7B7 PUSH1 0xC9 SHL DUP3 DUP5 ADD MSTORE SWAP2 DUP3 ADD SWAP1 PUSH2 0x357 SWAP1 PUSH2 0xABA JUMP JUMPDEST DUP2 MSTORE PUSH1 0x6D PUSH1 0x20 DUP1 DUP4 ADD SWAP2 SWAP1 SWAP2 MSTORE PUSH2 0x759D PUSH1 0x40 SWAP3 DUP4 ADD MSTORE PUSH1 0x89 PUSH0 MSTORE PUSH1 0x1 DUP2 MSTORE DUP3 MLOAD PUSH32 0x2BDA5ADF664A0C31BF9134CAD8D937629FCEE52B9CEFD545E0C716EFA1202A51 SSTORE DUP3 DUP2 ADD MLOAD PUSH32 0x2BDA5ADF664A0C31BF9134CAD8D937629FCEE52B9CEFD545E0C716EFA1202A52 SSTORE DUP3 DUP3 ADD MLOAD PUSH32 0x2BDA5ADF664A0C31BF9134CAD8D937629FCEE52B9CEFD545E0C716EFA1202A53 DUP1 SLOAD PUSH1 0x60 SWAP1 SWAP6 ADD MLOAD PUSH4 0xFFFFFFFF AND PUSH3 0x10000 MUL PUSH6 0xFFFFFFFFFFFF NOT SWAP1 SWAP6 AND PUSH2 0xFFFF SWAP3 SWAP1 SWAP3 AND SWAP2 SWAP1 SWAP2 OR SWAP4 SWAP1 SWAP4 OR SWAP1 SWAP3 SSTORE DUP1 MLOAD PUSH1 0x80 DUP2 ADD DUP3 MSTORE PUSH2 0xA4B1 DUP2 MSTORE DUP2 MLOAD DUP1 DUP4 ADD SWAP1 SWAP3 MSTORE PUSH1 0x8 DUP3 MSTORE PUSH8 0x617262697472756D PUSH1 0xC0 SHL DUP3 DUP5 ADD MSTORE SWAP2 DUP3 ADD SWAP1 PUSH2 0x44A SWAP1 PUSH2 0xABA JUMP JUMPDEST DUP2 MSTORE PUSH1 0x6E PUSH1 0x20 DUP1 DUP4 ADD SWAP2 SWAP1 SWAP2 MSTORE PUSH2 0x759E PUSH1 0x40 SWAP3 DUP4 ADD MSTORE PUSH2 0xA4B1 PUSH0 MSTORE PUSH1 0x1 DUP2 MSTORE DUP3 MLOAD PUSH32 0x205BAE445D323D41C2A70638FF83CB0C4359544903850978DED8943E052CF973 SSTORE DUP3 DUP2 ADD MLOAD PUSH32 0x205BAE445D323D41C2A70638FF83CB0C4359544903850978DED8943E052CF974 SSTORE DUP3 DUP3 ADD MLOAD PUSH32 0x205BAE445D323D41C2A70638FF83CB0C4359544903850978DED8943E052CF975 DUP1 SLOAD PUSH1 0x60 SWAP1 SWAP6 ADD MLOAD PUSH4 0xFFFFFFFF AND PUSH3 0x10000 MUL PUSH6 0xFFFFFFFFFFFF NOT SWAP1 SWAP6 AND PUSH2 0xFFFF SWAP3 SWAP1 SWAP3 AND SWAP2 SWAP1 SWAP2 OR SWAP4 SWAP1 SWAP4 OR SWAP1 SWAP3 SSTORE DUP1 MLOAD PUSH1 0x80 DUP2 ADD DUP3 MSTORE PUSH1 0xA DUP2 MSTORE DUP2 MLOAD DUP1 DUP4 ADD SWAP1 SWAP3 MSTORE PUSH1 0x8 DUP3 MSTORE PUSH8 0x6F7074696D69736D PUSH1 0xC0 SHL DUP3 DUP5 ADD MSTORE SWAP2 DUP3 ADD SWAP1 PUSH2 0x53D SWAP1 PUSH2 0xABA JUMP JUMPDEST DUP2 MSTORE PUSH1 0x6F PUSH1 0x20 DUP1 DUP4 ADD SWAP2 SWAP1 SWAP2 MSTORE PUSH2 0x759F PUSH1 0x40 SWAP3 DUP4 ADD MSTORE PUSH1 0xA PUSH0 MSTORE PUSH1 0x1 DUP2 MSTORE DUP3 MLOAD PUSH32 0x2A32391A76C35A36352B711F9152C0D0A340CD686850C8EF25FBB11C71B89E7B SSTORE DUP3 DUP2 ADD MLOAD PUSH32 0x2A32391A76C35A36352B711F9152C0D0A340CD686850C8EF25FBB11C71B89E7C SSTORE DUP3 DUP3 ADD MLOAD PUSH32 0x2A32391A76C35A36352B711F9152C0D0A340CD686850C8EF25FBB11C71B89E7D DUP1 SLOAD PUSH1 0x60 SWAP1 SWAP6 ADD MLOAD PUSH4 0xFFFFFFFF AND PUSH3 0x10000 MUL PUSH6 0xFFFFFFFFFFFF NOT SWAP1 SWAP6 AND PUSH2 0xFFFF SWAP3 SWAP1 SWAP3 AND SWAP2 SWAP1 SWAP2 OR SWAP4 SWAP1 SWAP4 OR SWAP1 SWAP3 SSTORE DUP1 MLOAD PUSH1 0x80 DUP2 ADD DUP3 MSTORE PUSH2 0x2105 DUP2 MSTORE DUP2 MLOAD DUP1 DUP4 ADD SWAP1 SWAP3 MSTORE PUSH1 0x4 DUP3 MSTORE PUSH4 0x62617365 PUSH1 0xE0 SHL DUP3 DUP5 ADD MSTORE SWAP2 DUP3 ADD SWAP1 PUSH2 0x62C SWAP1 PUSH2 0xABA JUMP JUMPDEST DUP2 MSTORE PUSH1 0xB8 PUSH1 0x20 DUP1 DUP4 ADD SWAP2 SWAP1 SWAP2 MSTORE PUSH2 0x75E8 PUSH1 0x40 SWAP3 DUP4 ADD MSTORE PUSH2 0x2105 PUSH0 MSTORE PUSH1 0x1 DUP2 MSTORE DUP3 MLOAD PUSH32 0xB60096399359AF1E390F4CCAD595EAFC702D6489DB902B1FD8607F3867D438E1 SSTORE DUP3 DUP2 ADD MLOAD PUSH32 0xB60096399359AF1E390F4CCAD595EAFC702D6489DB902B1FD8607F3867D438E2 SSTORE DUP3 DUP3 ADD MLOAD PUSH32 0xB60096399359AF1E390F4CCAD595EAFC702D6489DB902B1FD8607F3867D438E3 DUP1 SLOAD PUSH1 0x60 SWAP1 SWAP6 ADD MLOAD PUSH4 0xFFFFFFFF AND PUSH3 0x10000 MUL PUSH6 0xFFFFFFFFFFFF NOT SWAP1 SWAP6 AND PUSH2 0xFFFF SWAP3 SWAP1 SWAP3 AND SWAP2 SWAP1 SWAP2 OR SWAP4 SWAP1 SWAP4 OR SWAP1 SWAP3 SSTORE DUP1 MLOAD PUSH1 0x80 DUP2 ADD DUP3 MSTORE PUSH1 0xFA DUP2 MSTORE DUP2 MLOAD DUP1 DUP4 ADD SWAP1 SWAP3 MSTORE PUSH1 0x6 DUP3 MSTORE PUSH6 0x46616E746F6D PUSH1 0xD0 SHL DUP3 DUP5 ADD MSTORE SWAP2 DUP3 ADD SWAP1 PUSH2 0x71D SWAP1 PUSH2 0xABA JUMP JUMPDEST DUP2 MSTORE PUSH1 0x70 PUSH1 0x20 DUP1 DUP4 ADD SWAP2 SWAP1 SWAP2 MSTORE PUSH2 0x75A0 PUSH1 0x40 SWAP3 DUP4 ADD MSTORE PUSH1 0xFA PUSH0 MSTORE PUSH1 0x1 DUP2 MSTORE DUP3 MLOAD PUSH32 0xAD014ECF9CA62E1A5436B1DB3A59382CEDBE7E40D58BF51CB87CCC098BBD86A4 SSTORE DUP3 DUP2 ADD MLOAD PUSH32 0xAD014ECF9CA62E1A5436B1DB3A59382CEDBE7E40D58BF51CB87CCC098BBD86A5 SSTORE DUP3 DUP3 ADD MLOAD PUSH32 0xAD014ECF9CA62E1A5436B1DB3A59382CEDBE7E40D58BF51CB87CCC098BBD86A6 DUP1 SLOAD PUSH1 0x60 SWAP1 SWAP6 ADD MLOAD PUSH4 0xFFFFFFFF AND PUSH3 0x10000 MUL PUSH6 0xFFFFFFFFFFFF NOT SWAP1 SWAP6 AND PUSH2 0xFFFF SWAP3 SWAP1 SWAP3 AND SWAP2 SWAP1 SWAP2 OR SWAP4 SWAP1 SWAP4 OR SWAP1 SWAP3 SSTORE DUP1 MLOAD PUSH1 0x80 DUP2 ADD DUP3 MSTORE PUSH2 0xE708 DUP2 MSTORE DUP2 MLOAD DUP1 DUP4 ADD SWAP1 SWAP3 MSTORE PUSH1 0x5 DUP3 MSTORE PUSH5 0x6C696E6561 PUSH1 0xD8 SHL DUP3 DUP5 ADD MSTORE SWAP2 DUP3 ADD SWAP1 PUSH2 0x80D SWAP1 PUSH2 0xABA JUMP JUMPDEST DUP2 MSTORE PUSH1 0xB7 PUSH1 0x20 DUP1 DUP4 ADD SWAP2 SWAP1 SWAP2 MSTORE PUSH2 0x75E7 PUSH1 0x40 SWAP3 DUP4 ADD MSTORE PUSH2 0xE708 PUSH0 MSTORE PUSH1 0x1 DUP2 MSTORE DUP3 MLOAD PUSH32 0xA2B372B1449EBA5EFEE2CFE28E7BEB7C3A128B92CA5F8A845F77BD7FDC4082BA SSTORE DUP3 DUP2 ADD MLOAD PUSH32 0xA2B372B1449EBA5EFEE2CFE28E7BEB7C3A128B92CA5F8A845F77BD7FDC4082BB SSTORE DUP3 DUP3 ADD MLOAD PUSH32 0xA2B372B1449EBA5EFEE2CFE28E7BEB7C3A128B92CA5F8A845F77BD7FDC4082BC DUP1 SLOAD PUSH1 0x60 SWAP1 SWAP6 ADD MLOAD PUSH4 0xFFFFFFFF AND PUSH3 0x10000 MUL PUSH6 0xFFFFFFFFFFFF NOT SWAP1 SWAP6 AND PUSH2 0xFFFF SWAP3 SWAP1 SWAP3 AND SWAP2 SWAP1 SWAP2 OR SWAP4 SWAP1 SWAP4 OR SWAP1 SWAP3 SSTORE DUP1 MLOAD PUSH1 0x80 DUP2 ADD DUP3 MSTORE PUSH2 0x8AE DUP2 MSTORE DUP2 MLOAD DUP1 DUP4 ADD SWAP1 SWAP3 MSTORE PUSH1 0x4 DUP3 MSTORE PUSH4 0x6B617661 PUSH1 0xE0 SHL DUP3 DUP5 ADD MSTORE SWAP2 DUP3 ADD SWAP1 PUSH2 0x8FD SWAP1 PUSH2 0xABA JUMP JUMPDEST DUP2 MSTORE PUSH1 0xB1 PUSH1 0x20 DUP1 DUP4 ADD SWAP2 SWAP1 SWAP2 MSTORE PUSH2 0x75E1 PUSH1 0x40 SWAP3 DUP4 ADD MSTORE PUSH2 0x8AE PUSH0 SWAP1 DUP2 MSTORE PUSH1 0x1 DUP1 DUP4 MSTORE DUP5 MLOAD PUSH32 0x10B548591A6AFBA595076624B083C0ED2FAFDB163B263C7CB677FB4B55827BDD SSTORE DUP5 DUP4 ADD MLOAD PUSH32 0x10B548591A6AFBA595076624B083C0ED2FAFDB163B263C7CB677FB4B55827BDE SSTORE DUP5 DUP5 ADD MLOAD PUSH32 0x10B548591A6AFBA595076624B083C0ED2FAFDB163B263C7CB677FB4B55827BDF DUP1 SLOAD PUSH1 0x60 SWAP8 DUP9 ADD MLOAD PUSH4 0xFFFFFFFF SWAP1 DUP2 AND PUSH3 0x10000 SWAP1 DUP2 MUL PUSH6 0xFFFFFFFFFFFF NOT SWAP4 DUP5 AND PUSH2 0xFFFF SWAP7 DUP8 AND OR OR SWAP1 SWAP4 SSTORE DUP8 MLOAD PUSH1 0x80 DUP2 ADD DUP10 MSTORE PUSH2 0x440 DUP1 DUP3 MSTORE DUP2 DUP10 ADD DUP9 DUP2 MSTORE PUSH1 0x97 SWAP11 DUP4 ADD SWAP11 DUP12 MSTORE PUSH2 0x75C7 SWAP12 DUP4 ADD SWAP12 DUP13 MSTORE SWAP8 MSTORE SWAP5 SWAP1 SWAP7 MSTORE SWAP3 MLOAD PUSH31 0x2B16A72B26571C9C5B2C4FF0F7B2D2C355A0D76B29784F2ED8E7CC9D463F6D SSTORE SWAP3 MLOAD PUSH31 0x2B16A72B26571C9C5B2C4FF0F7B2D2C355A0D76B29784F2ED8E7CC9D463F6E SSTORE SWAP4 MLOAD PUSH31 0x2B16A72B26571C9C5B2C4FF0F7B2D2C355A0D76B29784F2ED8E7CC9D463F6F DUP1 SLOAD SWAP7 MLOAD SWAP1 SWAP5 AND SWAP1 SWAP3 MUL SWAP5 AND SWAP3 AND SWAP2 SWAP1 SWAP2 OR SWAP2 SWAP1 SWAP2 OR SWAP1 SSTORE PUSH2 0xB2A JUMP JUMPDEST PUSH0 DUP1 SLOAD PUSH1 0x1 PUSH1 0x1 PUSH1 0xA0 SHL SUB DUP4 DUP2 AND PUSH1 0x1 PUSH1 0x1 PUSH1 0xA0 SHL SUB NOT DUP4 AND DUP2 OR DUP5 SSTORE PUSH1 0x40 MLOAD SWAP2 SWAP1 SWAP3 AND SWAP3 DUP4 SWAP2 PUSH32 0x8BE0079C531659141344CD1FD0A4F28419497F9722A3DAAFE3B4186F6B6457E0 SWAP2 SWAP1 LOG3 POP POP JUMP JUMPDEST DUP1 MLOAD PUSH0 SWAP1 DUP3 SWAP1 ISZERO DUP1 PUSH2 0xACD JUMPI POP PUSH1 0x1F DUP2 MLOAD GT JUMPDEST ISZERO PUSH2 0xAEB JUMPI PUSH1 0x40 MLOAD PUSH4 0x8DC6AC01 PUSH1 0xE0 SHL DUP2 MSTORE PUSH1 0x4 ADD PUSH1 0x40 MLOAD DUP1 SWAP2 SUB SWAP1 REVERT JUMPDEST PUSH0 PUSH2 0xAF5 DUP3 PUSH2 0xB04 JUMP JUMPDEST SWAP2 MLOAD PUSH1 0xFF AND SWAP1 SWAP2 OR SWAP4 SWAP3 POP POP POP JUMP JUMPDEST DUP1 MLOAD PUSH1 0x20 DUP1 DUP4 ADD MLOAD SWAP2 SWAP1 DUP2 LT ISZERO PUSH2 0xB24 JUMPI PUSH0 NOT DUP2 PUSH1 0x20 SUB PUSH1 0x3 SHL SHL DUP3 AND SWAP2 POP JUMPDEST POP SWAP2 SWAP1 POP JUMP JUMPDEST PUSH2 0x493 DUP1 PUSH2 0xB37 PUSH0 CODECOPY PUSH0 RETURN INVALID PUSH1 0x80 PUSH1 0x40 MSTORE CALLVALUE DUP1 ISZERO PUSH2 0xF JUMPI PUSH0 DUP1 REVERT JUMPDEST POP PUSH1 0x4 CALLDATASIZE LT PUSH2 0x60 JUMPI PUSH0 CALLDATALOAD PUSH1 0xE0 SHR DUP1 PUSH4 0x550325B5 EQ PUSH2 0x64 JUMPI DUP1 PUSH4 0x715018A6 EQ PUSH2 0xDC JUMPI DUP1 PUSH4 0x804EA334 EQ PUSH2 0xE6 JUMPI DUP1 PUSH4 0x8DA5CB5B EQ PUSH2 0x1A2 JUMPI DUP1 PUSH4 0xDEAA66B0 EQ PUSH2 0x1BC JUMPI DUP1 PUSH4 0xF2FDE38B EQ PUSH2 0x1CF JUMPI JUMPDEST PUSH0 DUP1 REVERT JUMPDEST PUSH2 0xA3 PUSH2 0x72 CALLDATASIZE PUSH1 0x4 PUSH2 0x37E JUMP JUMPDEST PUSH1 0x1 PUSH1 0x20 DUP2 SWAP1 MSTORE PUSH0 SWAP2 DUP3 MSTORE PUSH1 0x40 SWAP1 SWAP2 KECCAK256 DUP1 SLOAD SWAP2 DUP2 ADD SLOAD PUSH1 0x2 SWAP1 SWAP2 ADD SLOAD PUSH2 0xFFFF DUP2 AND SWAP1 PUSH3 0x10000 SWAP1 DIV PUSH4 0xFFFFFFFF AND DUP5 JUMP JUMPDEST PUSH1 0x40 MLOAD PUSH2 0xD3 SWAP5 SWAP4 SWAP3 SWAP2 SWAP1 SWAP4 DUP5 MSTORE PUSH1 0x20 DUP5 ADD SWAP3 SWAP1 SWAP3 MSTORE PUSH2 0xFFFF AND PUSH1 0x40 DUP4 ADD MSTORE PUSH4 0xFFFFFFFF AND PUSH1 0x60 DUP3 ADD MSTORE PUSH1 0x80 ADD SWAP1 JUMP JUMPDEST PUSH1 0x40 MLOAD DUP1 SWAP2 SUB SWAP1 RETURN JUMPDEST PUSH2 0xE4 PUSH2 0x1E2 JUMP JUMPDEST STOP JUMPDEST PUSH2 0x165 PUSH2 0xF4 CALLDATASIZE PUSH1 0x4 PUSH2 0x37E JUMP JUMPDEST PUSH1 0x40 DUP1 MLOAD PUSH1 0x80 DUP2 ADD DUP3 MSTORE PUSH0 DUP1 DUP3 MSTORE PUSH1 0x20 DUP3 ADD DUP2 SWAP1 MSTORE SWAP2 DUP2 ADD DUP3 SWAP1 MSTORE PUSH1 0x60 DUP2 ADD SWAP2 SWAP1 SWAP2 MSTORE POP PUSH0 SWAP1 DUP2 MSTORE PUSH1 0x1 PUSH1 0x20 DUP2 DUP2 MSTORE PUSH1 0x40 SWAP3 DUP4 SWAP1 KECCAK256 DUP4 MLOAD PUSH1 0x80 DUP2 ADD DUP6 MSTORE DUP2 SLOAD DUP2 MSTORE SWAP3 DUP2 ADD SLOAD SWAP2 DUP4 ADD SWAP2 SWAP1 SWAP2 MSTORE PUSH1 0x2 ADD SLOAD PUSH2 0xFFFF DUP2 AND SWAP3 DUP3 ADD SWAP3 SWAP1 SWAP3 MSTORE PUSH3 0x10000 SWAP1 SWAP2 DIV PUSH4 0xFFFFFFFF AND PUSH1 0x60 DUP3 ADD MSTORE SWAP1 JUMP JUMPDEST PUSH1 0x40 MLOAD PUSH2 0xD3 SWAP2 SWAP1 DUP2 MLOAD DUP2 MSTORE PUSH1 0x20 DUP1 DUP4 ADD MLOAD SWAP1 DUP3 ADD MSTORE PUSH1 0x40 DUP1 DUP4 ADD MLOAD PUSH2 0xFFFF AND SWAP1 DUP3 ADD MSTORE PUSH1 0x60 SWAP2 DUP3 ADD MLOAD PUSH4 0xFFFFFFFF AND SWAP2 DUP2 ADD SWAP2 SWAP1 SWAP2 MSTORE PUSH1 0x80 ADD SWAP1 JUMP JUMPDEST PUSH0 SLOAD PUSH1 0x40 MLOAD PUSH1 0x1 PUSH1 0x1 PUSH1 0xA0 SHL SUB SWAP1 SWAP2 AND DUP2 MSTORE PUSH1 0x20 ADD PUSH2 0xD3 JUMP JUMPDEST PUSH2 0xE4 PUSH2 0x1CA CALLDATASIZE PUSH1 0x4 PUSH2 0x3AD JUMP JUMPDEST PUSH2 0x1F5 JUMP JUMPDEST PUSH2 0xE4 PUSH2 0x1DD CALLDATASIZE PUSH1 0x4 PUSH2 0x430 JUMP JUMPDEST PUSH2 0x2C6 JUMP JUMPDEST PUSH2 0x1EA PUSH2 0x303 JUMP JUMPDEST PUSH2 0x1F3 PUSH0 PUSH2 0x32F JUMP JUMPDEST JUMP JUMPDEST PUSH2 0x1FD PUSH2 0x303 JUMP JUMPDEST DUP1 MLOAD PUSH0 SWAP1 DUP2 MSTORE PUSH1 0x1 PUSH1 0x20 MSTORE PUSH1 0x40 SWAP1 KECCAK256 SLOAD ISZERO PUSH2 0x26B JUMPI PUSH1 0x40 MLOAD PUSH3 0x461BCD PUSH1 0xE5 SHL DUP2 MSTORE PUSH1 0x20 PUSH1 0x4 DUP3 ADD MSTORE PUSH1 0x23 PUSH1 0x24 DUP3 ADD MSTORE PUSH32 0x436861696E496E666F3A20436861696E20616C72656164792072656769737465 PUSH1 0x44 DUP3 ADD MSTORE PUSH3 0x1C9959 PUSH1 0xEA SHL PUSH1 0x64 DUP3 ADD MSTORE PUSH1 0x84 ADD JUMPDEST PUSH1 0x40 MLOAD DUP1 SWAP2 SUB SWAP1 REVERT JUMPDEST DUP1 MLOAD PUSH0 SWAP1 DUP2 MSTORE PUSH1 0x1 PUSH1 0x20 DUP2 DUP2 MSTORE PUSH1 0x40 SWAP3 DUP4 SWAP1 KECCAK256 DUP5 MLOAD DUP2 SSTORE SWAP1 DUP5 ADD MLOAD SWAP2 DUP2 ADD SWAP2 SWAP1 SWAP2 SSTORE SWAP1 DUP3 ADD MLOAD PUSH1 0x2 SWAP1 SWAP2 ADD DUP1 SLOAD PUSH1 0x60 SWAP1 SWAP4 ADD MLOAD PUSH4 0xFFFFFFFF AND PUSH3 0x10000 MUL PUSH6 0xFFFFFFFFFFFF NOT SWAP1 SWAP4 AND PUSH2 0xFFFF SWAP1 SWAP3 AND SWAP2 SWAP1 SWAP2 OR SWAP2 SWAP1 SWAP2 OR SWAP1 SSTORE JUMP JUMPDEST PUSH2 0x2CE PUSH2 0x303 JUMP JUMPDEST PUSH1 0x1 PUSH1 0x1 PUSH1 0xA0 SHL SUB DUP2 AND PUSH2 0x2F7 JUMPI PUSH1 0x40 MLOAD PUSH4 0x1E4FBDF7 PUSH1 0xE0 SHL DUP2 MSTORE PUSH0 PUSH1 0x4 DUP3 ADD MSTORE PUSH1 0x24 ADD PUSH2 0x262 JUMP JUMPDEST PUSH2 0x300 DUP2 PUSH2 0x32F JUMP JUMPDEST POP JUMP JUMPDEST PUSH0 SLOAD PUSH1 0x1 PUSH1 0x1 PUSH1 0xA0 SHL SUB AND CALLER EQ PUSH2 0x1F3 JUMPI PUSH1 0x40 MLOAD PUSH4 0x118CDAA7 PUSH1 0xE0 SHL DUP2 MSTORE CALLER PUSH1 0x4 DUP3 ADD MSTORE PUSH1 0x24 ADD PUSH2 0x262 JUMP JUMPDEST PUSH0 DUP1 SLOAD PUSH1 0x1 PUSH1 0x1 PUSH1 0xA0 SHL SUB DUP4 DUP2 AND PUSH1 0x1 PUSH1 0x1 PUSH1 0xA0 SHL SUB NOT DUP4 AND DUP2 OR DUP5 SSTORE PUSH1 0x40 MLOAD SWAP2 SWAP1 SWAP3 AND SWAP3 DUP4 SWAP2 PUSH32 0x8BE0079C531659141344CD1FD0A4F28419497F9722A3DAAFE3B4186F6B6457E0 SWAP2 SWAP1 LOG3 POP POP JUMP JUMPDEST PUSH0 PUSH1 0x20 DUP3 DUP5 SUB SLT ISZERO PUSH2 0x38E JUMPI PUSH0 DUP1 REVERT JUMPDEST POP CALLDATALOAD SWAP2 SWAP1 POP JUMP JUMPDEST DUP1 CALLDATALOAD PUSH4 0xFFFFFFFF DUP2 AND DUP2 EQ PUSH2 0x3A8 JUMPI PUSH0 DUP1 REVERT JUMPDEST SWAP2 SWAP1 POP JUMP JUMPDEST PUSH0 PUSH1 0x80 DUP3 DUP5 SUB SLT ISZERO PUSH2 0x3BD JUMPI PUSH0 DUP1 REVERT JUMPDEST PUSH1 0x40 MLOAD PUSH1 0x80 DUP2 ADD DUP2 DUP2 LT PUSH8 0xFFFFFFFFFFFFFFFF DUP3 GT OR ISZERO PUSH2 0x3EC JUMPI PUSH4 0x4E487B71 PUSH1 0xE0 SHL PUSH0 MSTORE PUSH1 0x41 PUSH1 0x4 MSTORE PUSH1 0x24 PUSH0 REVERT JUMPDEST DUP1 PUSH1 0x40 MSTORE POP DUP3 CALLDATALOAD DUP2 MSTORE PUSH1 0x20 DUP4 ADD CALLDATALOAD PUSH1 0x20 DUP3 ADD MSTORE PUSH1 0x40 DUP4 ADD CALLDATALOAD PUSH2 0xFFFF DUP2 AND DUP2 EQ PUSH2 0x413 JUMPI PUSH0 DUP1 REVERT JUMPDEST PUSH1 0x40 DUP3 ADD MSTORE PUSH2 0x424 PUSH1 0x60 DUP5 ADD PUSH2 0x395 JUMP JUMPDEST PUSH1 0x60 DUP3 ADD MSTORE SWAP4 SWAP3 POP POP POP JUMP JUMPDEST PUSH0 PUSH1 0x20 DUP3 DUP5 SUB SLT ISZERO PUSH2 0x440 JUMPI PUSH0 DUP1 REVERT JUMPDEST DUP2 CALLDATALOAD PUSH1 0x1 PUSH1 0x1 PUSH1 0xA0 SHL SUB DUP2 AND DUP2 EQ PUSH2 0x456 JUMPI PUSH0 DUP1 REVERT JUMPDEST SWAP4 SWAP3 POP POP POP JUMP INVALID LOG2 PUSH5 0x6970667358 0x22 SLT KECCAK256 PUSH5 0x65567BE357 SELFBALANCE 0xC3 MULMOD 0xE DUP3 0xF7 TSTORE SIGNEXTEND DELEGATECALL OR PUSH6 0x57D34D2F06E4 PUSH20 0x34AC76A7628B955164736F6C63430008190033A2 PUSH5 0x6970667358 0x22 SLT KECCAK256 0x2E SHL PREVRANDAO BLOCKHASH PUSH29 0xB987E0DCA14EC64B02858BC73AEE08441E8692FF272A336A325F2D6473 PUSH16 0x6C63430008190033A264697066735822 SLT KECCAK256 0xC5 PUSH12 0xB03939F730935B662957533C PUSH27 0x70D257DCE1D13713A5A586E52C1E1DED3864736F6C634300081900 CALLER "
		},
		"gasEstimates": {
			"creation": {
				"codeDepositCost": "4887200",
				"executionCost": "5773",
				"totalCost": "4892973"
			},
			"external": {
				"computeAddress(bytes32)": "infinite"
			},
			"internal": {
				"addressExists(address)": "infinite"
			}
		},
		"methodIdentifiers": {
			"computeAddress(bytes32)": "7fde56da"
		}
	},
	"abi": [
		{
			"inputs": [
				{
					"internalType": "bytes32",
					"name": "salt",
					"type": "bytes32"
				}
			],
			"name": "computeAddress",
			"outputs": [
				{
					"internalType": "address",
					"name": "",
					"type": "address"
				}
			],
			"stateMutability": "view",
			"type": "function"
		}
	]
}