{
	"data": {
		"bytecode": {
			"linkReferences": {},
			"object": "60c06040526207a120600e556602b1b7f20e35d2600f55348015610021575f80fd5b50604051615296380380615296833981016040819052610040916101e3565b81338181808061006957604051631e4fbdf760e01b81525f600482015260240160405180910390fd5b61007281610179565b506001600160a01b0380831660805281166100a057604051632d618d8160e21b815260040160405180910390fd5b60805160405163ca5eb5e160e01b81526001600160a01b0383811660048301529091169063ca5eb5e1906024015f604051808303815f87803b1580156100e4575f80fd5b505af11580156100f6573d5f803e3d5ffd5b5050600280546001600160a01b039e8f166001600160a01b031991821617909155600380549d8f169d82169d909d17909c55505060068054958c16958b169590951790945550506004805496891696881696909617909555506005805493871693861693909317909255600d80549186169190941617909255501660a052610264565b5f80546001600160a01b038381166001600160a01b0319831681178455604051919092169283917f8be0079c531659141344cd1fd0a4f28419497f9722a3daafe3b4186f6b6457e09190a35050565b80516001600160a01b03811681146101de575f80fd5b919050565b5f805f805f805f60e0888a0312156101f9575f80fd5b610202886101c8565b9650610210602089016101c8565b955061021e604089016101c8565b945061022c606089016101c8565b935061023a608089016101c8565b925061024860a089016101c8565b915061025660c089016101c8565b905092959891949750929550565b60805160a051614ff56102a15f395f81816105ef01526115bf01525f81816103f3015281816107bc015281816112a901526114580152614ff55ff3fe608060405260043610610241575f3560e01c806382c325d211610134578063bb0b6a53116100b3578063dbf0b01a11610078578063dbf0b01a146106ca578063ead4c47714610701578063ecf7a79d1461072f578063f2fde38b1461075d578063f476b41a1461077c578063ff7bd03d1461079b575f80fd5b8063bb0b6a5314610623578063c06ac4471461064e578063ca5eb5e11461066d578063d1e90a7c1461068c578063d8078b8a146106ab575f80fd5b8063a16d5960116100f9578063a16d59601461058d578063a6ac3db6146105ac578063a7dbb845146105bf578063b353aaa7146105de578063b92d0eff14610611575f80fd5b806382c325d2146104dc5780638da5cb5b146104fa5780638fb84f31146105165780639231174e1461054d578063982c26d41461056c575f80fd5b80633a135554116101c057806365c3cd581161018557806365c3cd58146104345780636e3f544714610453578063715018a6146104725780637255f81b146104865780637d25a05e146104a5575f80fd5b80633a135554146103a65780633a3e8443146103b95780635609b29d146103cd5780635e280f11146103e2578063628cda6d14610415575f80fd5b806329ef0dc71161020657806329ef0dc7146102fd5780632cdcd190146103205780633013ce291461034957806331263ae1146103685780633400288b14610387575f80fd5b80630993035c1461024c57806313137d651461026d57806317442b7014610280578063272a58d2146102a5578063290dfdb2146102c6575f80fd5b3661024857005b5f80fd5b348015610257575f80fd5b5061026b610266366004612095565b505050565b005b61026b61027b36600461213d565b6107ba565b34801561028b575f80fd5b506040805160018082526020820152015b60405180910390f35b3480156102b0575f80fd5b506102b961087a565b60405161029c9190612203565b3480156102d1575f80fd5b506102e56102e036600461221c565b610906565b6040516001600160a01b03909116815260200161029c565b348015610308575f80fd5b50610312600e5481565b60405190815260200161029c565b34801561032b575f80fd5b506008546103399060ff1681565b604051901515815260200161029c565b348015610354575f80fd5b506002546102e5906001600160a01b031681565b348015610373575f80fd5b506003546102e5906001600160a01b031681565b348015610392575f80fd5b5061026b6103a13660046122bf565b610ad3565b61026b6103b43660046124ad565b610b2f565b3480156103c4575f80fd5b50600b54610312565b3480156103d8575f80fd5b50610312600b5481565b3480156103ed575f80fd5b506102e57f000000000000000000000000000000000000000000000000000000000000000081565b348015610420575f80fd5b506004546102e5906001600160a01b031681565b34801561043f575f80fd5b50600d546102e5906001600160a01b031681565b34801561045e575f80fd5b5061026b61046d366004612580565b610fb8565b34801561047d575f80fd5b5061026b610fd3565b348015610491575f80fd5b5061026b6104a036600461259b565b610fe6565b3480156104b0575f80fd5b506104c46104bf3660046122bf565b610ffb565b6040516001600160401b03909116815260200161029c565b3480156104e7575f80fd5b5061026b6104f63660046125e5565b5050565b348015610505575f80fd5b505f546001600160a01b03166102e5565b348015610521575f80fd5b50610339610530366004612692565b6001600160a01b03165f9081526009602052604090205460ff1690565b348015610558575f80fd5b5061026b6105673660046126ad565b611003565b348015610577575f80fd5b50610580611010565b60405161029c91906126c4565b348015610598575f80fd5b5061026b6105a7366004612692565b611070565b61026b6105ba366004612710565b61109a565b3480156105ca575f80fd5b5061026b6105d9366004612749565b6113ff565b3480156105e9575f80fd5b506102e57f000000000000000000000000000000000000000000000000000000000000000081565b34801561061c575f80fd5b50306102e5565b34801561062e575f80fd5b5061031261063d366004612780565b60016020525f908152604090205481565b348015610659575f80fd5b506005546102e5906001600160a01b031681565b348015610678575f80fd5b5061026b610687366004612692565b611431565b348015610697575f80fd5b506006546102e5906001600160a01b031681565b3480156106b6575f80fd5b506102e56106c53660046126ad565b6114b2565b3480156106d5575f80fd5b506103396106e4366004612692565b6001600160a01b03165f9081526007602052604090205460ff1690565b34801561070c575f80fd5b5061033961071b366004612692565b60076020525f908152604090205460ff1681565b34801561073a575f80fd5b50610339610749366004612692565b60096020525f908152604090205460ff1681565b348015610768575f80fd5b5061026b610777366004612692565b6114da565b348015610787575f80fd5b506102e56107963660046126ad565b611517565b3480156107a6575f80fd5b506103396107b536600461279b565b611545565b7f00000000000000000000000000000000000000000000000000000000000000006001600160a01b0316331461080a576040516391ac5e4f60e01b81523360048201526024015b60405180910390fd5b602087018035906108249061081f908a612780565b611579565b14610862576108366020880188612780565b60405163309afaf360e21b815263ffffffff909116600482015260208801356024820152604401610801565b610871878787878787876115b4565b50505050505050565b60108054610887906127b5565b80601f01602080910402602001604051908101604052809291908181526020018280546108b3906127b5565b80156108fe5780601f106108d5576101008083540402835291602001916108fe565b820191905f5260205f20905b8154815290600101906020018083116108e157829003601f168201915b505050505081565b335f9081526007602052604081205460ff166109645760405162461bcd60e51b815260206004820152601e60248201527f536c696365436f72653a20556e617574686f72697a65642063616c6c657200006044820152606401610801565b60085460ff166109c75760405162461bcd60e51b815260206004820152602860248201527f536c696365436f72653a20536c69636520746f6b656e206372656174696f6e20604482015267191a5cd8589b195960c21b6064820152608401610801565b5f87878787878760025f9054906101000a90046001600160a01b0316306040516109f090612041565b610a0198979695949392919061280f565b604051809103905ff080158015610a1a573d5f803e3d5ffd5b506001600160a01b0381165f818152600960205260408120805460ff19166001908117909155600a8054918201815582527fc65a7bb8d6351c1cf70c95a316cc6a92839c986682d98bc35f958f4883f9d2a80180546001600160a01b031916909217909155600b805492935090610a90836128da565b90915550506040516001600160a01b038216907f0b857149a33d1d8f31a903329294f61770c4562939c36b9421c5867347c14bce905f90a2979650505050505050565b610adb6118c2565b63ffffffff82165f81815260016020908152604091829020849055815192835282018390527f238399d427b947898edb290f5ff0f9109849b1c3ba196a42e35f00c50a54b98b910160405180910390a15050565b335f9081526009602052604090205460ff16610ba55760405162461bcd60e51b815260206004820152602f60248201527f536c696365436f72653a204f6e6c79207265676973746572656420536c69636560448201526e081d1bdad95b8818d85b8818d85b1b608a1b6064820152608401610801565b610bae826118ee565b6002546040516370a0823160e01b81523060048201526001600160a01b03909116906370a0823190602401602060405180830381865afa158015610bf4573d5f803e3d5ffd5b505050506040513d601f19601f82011682018060405250810190610c1891906128f2565b1015610c8c5760405162461bcd60e51b815260206004820152603a60248201527f536c696365436f72653a204d617820657374696d61746564207072696365206e60448201527f6f74207472616e7366657272656420746f20636f6e74726163740000000000006064820152608401610801565b60405163a2ce9c1f60e01b8152600481018590525f90339063a2ce9c1f906024015f60405180830381865afa158015610cc7573d5f803e3d5ffd5b505050506040513d5f823e601f3d908101601f19168201604052610cee9190810190612966565b80519091508514610d4b5760405162461bcd60e51b815260206004820152602160248201527f536c696365436f72653a204d696e7420494420646f6573206e6f7420657869736044820152601d60fa1b6064820152608401610801565b5f858152600c60205260408082208054336001600160a01b0319918216811783556002830189905585840151600390930180549092166001600160a01b0390931692909217905581516304013ac360e51b815291519091638027586091600480830192869291908290030181865afa158015610dc9573d5f803e3d5ffd5b505050506040513d5f823e601f3d908101601f19168201604052610df09190810190612a07565b90505f5b8151811015610f1057610e20828281518110610e1257610e12612ac6565b602002602001015151461490565b15610eae575f610e7e3388888581518110610e3d57610e3d612ac6565b6020026020010151868681518110610e5757610e57612ac6565b6020026020010151898781518110610e7157610e71612ac6565b602002602001015161192f565b90508015610ea8575f888152600c60205260408120600101805491610ea2836128da565b91905055505b50610f08565b610f08873388888581518110610ec657610ec6612ac6565b6020026020010151868681518110610ee057610ee0612ac6565b6020026020010151888a8881518110610efb57610efb612ac6565b6020026020010151611b05565b600101610df4565b50610f1a86611d88565b15610fb05781604001516001600160a01b031685336001600160a01b03167f57906f264053df400decf287d5df71541ab514d475435b80e96a2588b4c4b39760405160405180910390a46040516205d48360ed1b815260048101879052339063ba906000906024015f604051808303815f87803b158015610f99575f80fd5b505af1158015610fab573d5f803e3d5ffd5b505050505b505050505050565b610fc06118c2565b6008805460ff1916911515919091179055565b610fdb6118c2565b610fe45f611e38565b565b610fee6118c2565b6010610266828483612b1e565b5f5b92915050565b61100b6118c2565b600e55565b6060600a80548060200260200160405190810160405280929190818152602001828054801561106657602002820191905f5260205f20905b81546001600160a01b03168152600190910190602001808311611048575b5050505050905090565b6110786118c2565b600d80546001600160a01b0319166001600160a01b0392909216919091179055565b6004546001600160a01b031633146111065760405162461bcd60e51b815260206004820152602960248201527f536c696365436f72653a204f6e6c7920537461726761746520616461707465726044820152680818d85b8818d85b1b60ba1b6064820152608401610801565b5f8180602001905181019061111b9190612bd7565b60408082015190516370a0823160e01b81523060048201529192505f916001600160a01b03909116906370a0823190602401602060405180830381865afa158015611168573d5f803e3d5ffd5b505050506040513d601f19601f8201168201806040525081019061118c91906128f2565b905081606001518110156111f35760405162461bcd60e51b815260206004820152602860248201527f536c696365436f72653a20496e636f727265637420616d6f756e74206f6620746044820152671bdad95b881bdd5d60c21b6064820152608401610801565b6006548251604051632013a8cd60e21b815260048101919091525f916001600160a01b03169063804ea3349060240160c060405180830381865afa15801561123d573d5f803e3d5ffd5b505050506040513d601f19601f820116820180604052508101906112619190612c54565b6040805180820182526020868101518083526001828401908152845192830191909152511515928101929092529192505f9060600160405160208183030381529060405290507f00000000000000000000000000000000000000000000000000000000000000006001600160a01b0316632637a450600f546040518060a00160405280876060015163ffffffff1681526020016113018860600151611579565b815260200185815260200160108054611319906127b5565b80601f0160208091040260200160405190810160405280929190818152602001828054611345906127b5565b80156113905780601f1061136757610100808354040283529160200191611390565b820191905f5260205f20905b81548152906001019060200180831161137357829003601f168201915b505050505081526020015f1515815250306040518463ffffffff1660e01b81526004016113be929190612cf0565b60806040518083038185885af11580156113da573d5f803e3d5ffd5b50505050506040513d601f19601f820116820180604052508101906108719190612d68565b6114076118c2565b6001600160a01b03919091165f908152600760205260409020805460ff1916911515919091179055565b6114396118c2565b60405163ca5eb5e160e01b81526001600160a01b0382811660048301527f0000000000000000000000000000000000000000000000000000000000000000169063ca5eb5e1906024015f604051808303815f87803b158015611499575f80fd5b505af11580156114ab573d5f803e3d5ffd5b5050505050565b600a81815481106114c1575f80fd5b5f918252602090912001546001600160a01b0316905081565b6114e26118c2565b6001600160a01b03811661150b57604051631e4fbdf760e01b81525f6004820152602401610801565b61151481611e38565b50565b5f600a828154811061152b5761152b612ac6565b5f918252602090912001546001600160a01b031692915050565b5f60208201803590600190839061155c9086612780565b63ffffffff16815260208101919091526040015f20541492915050565b63ffffffff81165f9081526001602052604081205480610ffd5760405163f6ff4fb760e01b815263ffffffff84166004820152602401610801565b336001600160a01b037f000000000000000000000000000000000000000000000000000000000000000016146116405760405162461bcd60e51b815260206004820152602b60248201527f536c696365436f72653a206c7a52656365697665206e6f742063616c6c65642060448201526a189e48195b991c1bda5b9d60aa1b6064820152608401610801565b600d5460208801356001600160a01b039081169116146116c85760405162461bcd60e51b815260206004820152603860248201527f536c696365436f72653a206c7a53656e64206e6f7420696e697469617465642060448201527f62792063726f73732d636861696e20536c696365436f726500000000000000006064820152608401610801565b5f6116d585870187612dde565b80515f908152600c60209081526040808320815160808101835281546001600160a01b039081168083526001840154838701526002840154838601526003909301541660608201529084526009909252909120549192509060ff1661177c5760405162461bcd60e51b815260206004820152601a60248201527f536c696365436f72653a20556e6b6e6f776e206d696e742049440000000000006044820152606401610801565b81602001516117d85760405162461bcd60e51b815260206004820152602260248201527f536c696365436f72653a2043726f73732d636861696e2073776170206661696c604482015261195960f21b6064820152608401610801565b81515f908152600c602052604081206001018054916117f6836128da565b9091555050815161180690611d88565b156118b75780606001516001600160a01b03168160400151825f01516001600160a01b03167f57906f264053df400decf287d5df71541ab514d475435b80e96a2588b4c4b39760405160405180910390a4805182516040516205d48360ed1b81526001600160a01b039092169163ba906000916118899160040190815260200190565b5f604051808303815f87803b1580156118a0575f80fd5b505af11580156118b2573d5f803e3d5ffd5b505050505b505050505050505050565b5f546001600160a01b03163314610fe45760405163118cdaa760e01b8152336004820152602401610801565b5f805b82518110156119295782818151811061190c5761190c612ac6565b60200260200101518261191f9190612e14565b91506001016118f1565b50919050565b60025460035460405163095ea7b360e01b81526001600160a01b039182166004820152602481018690525f92919091169063095ea7b3906044016020604051808303815f875af1158015611985573d5f803e3d5ffd5b505050506040513d601f19601f820116820180604052508101906119a99190612e27565b50604083015184905f906119be908890612e42565b6040805160c0810182526002546001600160a01b03908116825260208083018790528981015182168385015260608301859052908c16608083015260a082018890529151929350915f91611a1491849101612e59565b60408051601f198184030181529082905260035463313eeab560e11b83529092506001600160a01b03169063627dd56a90611a53908490600401612203565b5f604051808303815f87803b158015611a6a575f80fd5b505af1158015611a7c573d5f803e3d5ffd5b5050505060208701516040516370a0823160e01b81526001600160a01b038c811660048301525f9216906370a0823190602401602060405180830381865afa158015611aca573d5f803e3d5ffd5b505050506040513d601f19601f82011682018060405250810190611aee91906128f2565b604089015111159550505050505095945050505050565b60025460035460405163095ea7b360e01b81526001600160a01b0391821660048201526024810187905291169063095ea7b3906044016020604051808303815f875af1158015611b57573d5f803e3d5ffd5b505050506040513d601f19601f82011682018060405250810190611b7b9190612e27565b505f858460400151611b8d9190612e42565b6006548551604051632013a8cd60e21b81529293505f926001600160a01b039092169163804ea33491611bc69160040190815260200190565b60c060405180830381865afa158015611be1573d5f803e3d5ffd5b505050506040513d601f19601f82011682018060405250810190611c059190612c54565b90505f611c188287602001518587611e87565b90505f611c2f8b8860200151868960800151611ef4565b90505f611c4284604001518c8585611f8c565b6003546040805160c0810182525f81526004546001600160a01b039081166020830152600254811692820192909252606081018d9052600d5482166080820152929350169063bcc5332590839060a08101611d23898f62086470604083810151600254608080870151600d54855161ffff90951660208601526001600160a01b0393841695850195909552600160608086018290529285015260a084018790525f60c0850181905260e08501528216610100840152921661012082015261014081018390526101600160405160208183030381529060405290509392505050565b8152508a6040015187876040518663ffffffff1660e01b8152600401611d4c9493929190612eb3565b5f604051808303818588803b158015611d63575f80fd5b505af1158015611d75573d5f803e3d5ffd5b5050505050505050505050505050505050565b5f818152600c60209081526040808320815160808101835281546001600160a01b03908116808352600184015483870152600284015483860152600390930154166060820152825163e02b79f960e01b815292519093859363e02b79f992600480830193928290030181865afa158015611e04573d5f803e3d5ffd5b505050506040513d601f19601f82011682018060405250810190611e2891906128f2565b6020909201519091149392505050565b5f80546001600160a01b038381166001600160a01b0319831681178455604051919092169283917f8be0079c531659141344cd1fd0a4f28419497f9722a3daafe3b4186f6b6457e09190a35050565b6040805160c08101825260a0808701516001600160a01b0390811683525f602080850191909152878216848601526060848101889052600d5490921660808501529183018590529251611edb929101612e59565b6040516020818303038152906040529050949350505050565b60606040518060600160405280600d5f9054906101000a90046001600160a01b03166001600160a01b03168152602001600e5481526020016040518060a00160405280468152602001888152602001876001600160a01b0316815260200186815260200185815250604051602001611f6c9190612f5c565b60408051601f19818403018152918152915251611edb9190602001612fa6565b6004546040515f9182916001600160a01b0390911690636ce4fe03908890600190849062086470908790611fc8908d908d908d90602001612fdc565b6040516020818303038152906040526040518763ffffffff1660e01b8152600401611ff89695949392919061301b565b6040805180830381865afa158015612012573d5f803e3d5ffd5b505050506040513d601f19601f820116820180604052508101906120369190613066565b509695505050505050565b611f378061308983390190565b5f8083601f84011261205e575f80fd5b5081356001600160401b03811115612074575f80fd5b60208301915083602060608302850101111561208e575f80fd5b9250929050565b5f805f604084860312156120a7575f80fd5b8335925060208401356001600160401b038111156120c3575f80fd5b6120cf8682870161204e565b9497909650939450505050565b5f60608284031215611929575f80fd5b5f8083601f8401126120fc575f80fd5b5081356001600160401b03811115612112575f80fd5b60208301915083602082850101111561208e575f80fd5b6001600160a01b0381168114611514575f80fd5b5f805f805f805f60e0888a031215612153575f80fd5b61215d89896120dc565b96506060880135955060808801356001600160401b038082111561217f575f80fd5b61218b8b838c016120ec565b909750955060a08a013591506121a082612129565b90935060c089013590808211156121b5575f80fd5b506121c28a828b016120ec565b989b979a50959850939692959293505050565b5f81518084528060208401602086015e5f602082860101526020601f19601f83011685010191505092915050565b602081525f61221560208301846121d5565b9392505050565b5f805f805f8060608789031215612231575f80fd5b86356001600160401b0380821115612247575f80fd5b6122538a838b016120ec565b9098509650602089013591508082111561226b575f80fd5b6122778a838b016120ec565b9096509450604089013591508082111561228f575f80fd5b5061229c89828a0161204e565b979a9699509497509295939492505050565b63ffffffff81168114611514575f80fd5b5f80604083850312156122d0575f80fd5b82356122db816122ae565b946020939093013593505050565b634e487b7160e01b5f52604160045260245ffd5b60405160a081016001600160401b038111828210171561231f5761231f6122e9565b60405290565b604051606081016001600160401b038111828210171561231f5761231f6122e9565b604080519081016001600160401b038111828210171561231f5761231f6122e9565b604051601f8201601f191681016001600160401b0381118282101715612391576123916122e9565b604052919050565b5f6001600160401b038211156123b1576123b16122e9565b5060051b60200190565b5f6001600160401b038211156123d3576123d36122e9565b50601f01601f191660200190565b5f82601f8301126123f0575f80fd5b81356124036123fe826123bb565b612369565b818152846020838601011115612417575f80fd5b816020850160208301375f918101602001919091529392505050565b5f82601f830112612442575f80fd5b813560206124526123fe83612399565b82815260059290921b84018101918181019086841115612470575f80fd5b8286015b848110156120365780356001600160401b03811115612491575f80fd5b61249f8986838b01016123e1565b845250918301918301612474565b5f805f80608085870312156124c0575f80fd5b84359350602080860135935060408601356001600160401b03808211156124e5575f80fd5b818801915088601f8301126124f8575f80fd5b81356125066123fe82612399565b81815260059190911b8301840190848101908b831115612524575f80fd5b938501935b8285101561254257843582529385019390850190612529565b965050506060880135925080831115612559575f80fd5b505061256787828801612433565b91505092959194509250565b8015158114611514575f80fd5b5f60208284031215612590575f80fd5b813561221581612573565b5f80602083850312156125ac575f80fd5b82356001600160401b038111156125c1575f80fd5b6125cd858286016120ec565b90969095509350505050565b60038110611514575f80fd5b5f80604083850312156125f6575f80fd5b8235915060208301356001600160401b0380821115612613575f80fd5b9084019060a08287031215612626575f80fd5b61262e6122fd565b8235815260208301356020820152604083013561264a81612129565b6040820152606083013561265d816125d9565b6060820152608083013582811115612673575f80fd5b61267f888286016123e1565b6080830152508093505050509250929050565b5f602082840312156126a2575f80fd5b813561221581612129565b5f602082840312156126bd575f80fd5b5035919050565b602080825282518282018190525f9190848201906040850190845b818110156127045783516001600160a01b0316835292840192918401916001016126df565b50909695505050505050565b5f60208284031215612720575f80fd5b81356001600160401b03811115612735575f80fd5b612741848285016123e1565b949350505050565b5f806040838503121561275a575f80fd5b823561276581612129565b9150602083013561277581612573565b809150509250929050565b5f60208284031215612790575f80fd5b8135612215816122ae565b5f606082840312156127ab575f80fd5b61221583836120dc565b600181811c908216806127c957607f821691505b60208210810361192957634e487b7160e01b5f52602260045260245ffd5b81835281816020850137505f828201602090810191909152601f909101601f19169091010190565b60a081525f61282260a083018a8c6127e7565b60208382036020850152612837828a8c6127e7565b848103604086810191909152888252899350906020015f5b8981101561288f57843582528385013561286881612129565b6001600160a01b03168285015284830135838301526060948501949091019060010161284f565b506001600160a01b038816606087015293506128aa92505050565b6001600160a01b03831660808301529998505050505050505050565b634e487b7160e01b5f52601160045260245ffd5b5f600182016128eb576128eb6128c6565b5060010190565b5f60208284031215612902575f80fd5b5051919050565b805161291481612129565b919050565b5f82601f830112612928575f80fd5b81516129366123fe826123bb565b81815284602083860101111561294a575f80fd5b8160208501602083015e5f918101602001919091529392505050565b5f60208284031215612976575f80fd5b81516001600160401b038082111561298c575f80fd5b9083019060a0828603121561299f575f80fd5b6129a76122fd565b825181526020830151602082015260408301516129c381612129565b604082015260608301516129d6816125d9565b60608201526080830151828111156129ec575f80fd5b6129f887828601612919565b60808301525095945050505050565b5f6020808385031215612a18575f80fd5b82516001600160401b03811115612a2d575f80fd5b8301601f81018513612a3d575f80fd5b8051612a4b6123fe82612399565b81815260609182028301840191848201919088841115612a69575f80fd5b938501935b83851015612aba5780858a031215612a84575f80fd5b612a8c612325565b8551815286860151612a9d81612129565b818801526040868101519082015283529384019391850191612a6e565b50979650505050505050565b634e487b7160e01b5f52603260045260245ffd5b601f82111561026657805f5260205f20601f840160051c81016020851015612aff5750805b601f840160051c820191505b818110156114ab575f8155600101612b0b565b6001600160401b03831115612b3557612b356122e9565b612b4983612b4383546127b5565b83612ada565b5f601f841160018114612b7a575f8515612b635750838201355b5f19600387901b1c1916600186901b1783556114ab565b5f83815260208120601f198716915b82811015612ba95786850135825560209485019460019092019101612b89565b5086821015612bc5575f1960f88860031b161c19848701351681555b505060018560011b0183555050505050565b5f60208284031215612be7575f80fd5b81516001600160401b0380821115612bfd575f80fd5b9083019060a08286031215612c10575f80fd5b612c186122fd565b82518152602083015160208201526040830151612c3481612129565b6040820152606083810151908201526080830151828111156129ec575f80fd5b5f60c08284031215612c64575f80fd5b60405160c081018181106001600160401b0382111715612c8657612c866122e9565b80604052508251815260208301516020820152604083015161ffff81168114612cad575f80fd5b60408201526060830151612cc0816122ae565b60608201526080830151612cd381612129565b6080820152612ce460a08401612909565b60a08201529392505050565b6040815263ffffffff8351166040820152602083015160608201525f604084015160a06080840152612d2560e08401826121d5565b90506060850151603f198483030160a0850152612d4282826121d5565b60809690960151151560c08501525050506001600160a01b039190911660209091015290565b5f8183036080811215612d79575f80fd5b612d81612325565b8351815260208401516001600160401b0381168114612d9e575f80fd5b60208201526040603f1983011215612db4575f80fd5b612dbc612347565b6040858101518252606090950151602082015293810193909352509092915050565b5f60408284031215612dee575f80fd5b612df6612347565b823581526020830135612e0881612573565b60208201529392505050565b80820180821115610ffd57610ffd6128c6565b5f60208284031215612e37575f80fd5b815161221581612573565b8082028115828204841417610ffd57610ffd6128c6565b602081525f60018060a01b0380845116602084015260208401516040840152806040850151166060840152606084015160808401528060808501511660a08401525060a083015160c08084015261274160e08401826121d5565b6080815261ffff60f01b85511660808201525f602086015160018060a01b0380821660a08501528060408901511660c0850152606088015160e085015280608089015116610100850152505060a086015160c0610120840152612f1a6101408401826121d5565b6001600160a01b038716602085015290508281036040840152612f3d81866121d5565b90508281036060840152612f5181856121d5565b979650505050505050565b60208152815160208201526020820151604082015260018060a01b036040830151166060820152606082015160808201525f608083015160a08084015261274160c08401826121d5565b6020815260018060a01b038251166020820152602082015160408201525f604083015160608084015261274160808401826121d5565b6001600160a01b03841681526060602082018190525f90612fff908301856121d5565b828103604084015261301181856121d5565b9695505050505050565b61ffff8716815260ff8616602082015260018060a01b038516604082015283606082015282608082015260c060a08201525f61305a60c08301846121d5565b98975050505050505050565b5f8060408385031215613077575f80fd5b50508051602090910151909290915056fe608060405234801561000f575f80fd5b50604051611f37380380611f3783398101604081905261002e916101f4565b8484600361003c83826103b0565b50600461004982826103b0565b5050600580546001600160a01b038086166001600160a01b0319928316179092556006805492851692909116919091179055505f5b83518110156100f757600784828151811061009b5761009b61046f565b6020908102919091018101518254600180820185555f9485529383902082516003909202019081559181015182840180546001600160a01b0319166001600160a01b03909216919091179055604001516002909101550161007e565b505050505050610483565b634e487b7160e01b5f52604160045260245ffd5b604051606081016001600160401b038111828210171561013857610138610102565b60405290565b604051601f8201601f191681016001600160401b038111828210171561016657610166610102565b604052919050565b5f82601f83011261017d575f80fd5b81516001600160401b0381111561019657610196610102565b6101a9601f8201601f191660200161013e565b8181528460208386010111156101bd575f80fd5b8160208501602083015e5f918101602001919091529392505050565b80516001600160a01b03811681146101ef575f80fd5b919050565b5f805f805f60a08688031215610208575f80fd5b85516001600160401b038082111561021e575f80fd5b61022a89838a0161016e565b9650602091508188015181811115610240575f80fd5b61024c8a828b0161016e565b96505060408089015182811115610261575f80fd5b8901601f81018b13610271575f80fd5b80518381111561028357610283610102565b610291858260051b0161013e565b8181528581019450606091820283018601918d8311156102af575f80fd5b928601925b828410156102fc5780848f0312156102ca575f80fd5b6102d2610116565b845181526102e18886016101d9565b818901528486015186820152865294860194928301926102b4565b50809850505050505050610312606087016101d9565b9150610320608087016101d9565b90509295509295909350565b600181811c9082168061034057607f821691505b60208210810361035e57634e487b7160e01b5f52602260045260245ffd5b50919050565b601f8211156103ab57805f5260205f20601f840160051c810160208510156103895750805b601f840160051c820191505b818110156103a8575f8155600101610395565b50505b505050565b81516001600160401b038111156103c9576103c9610102565b6103dd816103d7845461032c565b84610364565b602080601f831160018114610410575f84156103f95750858301515b5f19600386901b1c1916600185901b178555610467565b5f85815260208120601f198616915b8281101561043e5788860151825594840194600190910190840161041f565b508582101561045b57878501515f19600388901b60f8161c191681555b505060018460011b0185555b505050505050565b634e487b7160e01b5f52603260045260245ffd5b611aa7806104905f395ff3fe60806040526004361061017b575f3560e01c806395d89b41116100cd578063db006a7511610087578063f01648f811610062578063f01648f8146104ba578063f4c76363146104d7578063fe206292146104f6578063fe74748e146104ba575f80fd5b8063db006a7514610443578063dd62ed3e14610462578063e02b79f9146104a6575f80fd5b806395d89b411461036f57806399fbab8814610383578063a2ce9c1f146103c5578063a9059cbb146103e4578063a9edf1f614610403578063ba90600014610422575f80fd5b806323b872dd1161013857806356dc63cb1161011357806356dc63cb146102cb5780636b9691a1146102fb57806370a082311461031a578063802758601461034e575f80fd5b806323b872dd1461025a5780633013ce2914610279578063313ce567146102b0575f80fd5b806306fdde031461017f578063095ea7b3146101a95780630b2b8e35146101d857806318160ddd146101f95780631ddc8f6d1461020d5780631fc5846b14610239575b5f80fd5b34801561018a575f80fd5b50610193610515565b6040516101a0919061139c565b60405180910390f35b3480156101b4575f80fd5b506101c86101c33660046113d0565b6105a5565b60405190151581526020016101a0565b6101eb6101e6366004611540565b6105be565b6040519081526020016101a0565b348015610204575f80fd5b506002546101eb565b348015610218575f80fd5b5061022c6102273660046115fd565b6108ae565b6040516101a09190611648565b348015610244575f80fd5b506101eb6102533660046116a3565b5f92915050565b348015610265575f80fd5b506101c8610274366004611712565b6109ee565b348015610284575f80fd5b50600554610298906001600160a01b031681565b6040516001600160a01b0390911681526020016101a0565b3480156102bb575f80fd5b50604051601281526020016101a0565b3480156102d6575f80fd5b506102ea6102e53660046115fd565b610a11565b6040516101a095949392919061174b565b348015610306575f80fd5b506102ea6103153660046115fd565b610ad7565b348015610325575f80fd5b506101eb610334366004611791565b6001600160a01b03165f9081526020819052604090205490565b348015610359575f80fd5b50610362610b1c565b6040516101a091906117aa565b34801561037a575f80fd5b50610193610b9c565b34801561038e575f80fd5b506103a261039d3660046115fd565b610bab565b604080519384526001600160a01b039092166020840152908201526060016101a0565b3480156103d0575f80fd5b5061022c6103df3660046115fd565b610be8565b3480156103ef575f80fd5b506101c86103fe3660046113d0565b610c7c565b34801561040e575f80fd5b506102ea61041d3660046115fd565b610c89565b34801561042d575f80fd5b5061044161043c3660046115fd565b610cce565b005b34801561044e575f80fd5b506101eb61045d3660046115fd565b505f90565b34801561046d575f80fd5b506101eb61047c36600461180b565b6001600160a01b039182165f90815260016020908152604080832093909416825291909152205490565b3480156104b1575f80fd5b506007546101eb565b3480156104c5575f80fd5b506104416104d43660046115fd565b50565b3480156104e2575f80fd5b50600654610298906001600160a01b031681565b348015610501575f80fd5b5061022c6105103660046115fd565b610f7f565b6060600380546105249061183c565b80601f01602080910402602001604051908101604052809291908181526020018280546105509061183c565b801561059b5780601f106105725761010080835404028352916020019161059b565b820191905f5260205f20905b81548152906001019060200180831161057e57829003601f168201915b5050505050905090565b5f336105b2818585611013565b60019150505b92915050565b5f80841161062a5760405162461bcd60e51b815260206004820152602e60248201527f536c696365546f6b656e3a20536c69636520746f6b656e207175616e7469747960448201526d2063616e2774206265207a65726f60901b60648201526084015b60405180910390fd5b8151835114801561063d57506007548351145b6106a35760405162461bcd60e51b815260206004820152603160248201527f536c696365546f6b656e3a20496e636f7272656374206c656e67746820666f7260448201527020707269636573206f7220726f7574657360781b6064820152608401610621565b5f6106ad84611025565b6005546006546040516323b872dd60e01b81523360048201526001600160a01b0391821660248201526044810184905292935016906323b872dd906064016020604051808303815f875af1158015610707573d5f803e3d5ffd5b505050506040513d601f19601f8201168201806040525081019061072b919061186e565b506040516bffffffffffffffffffffffff1933606090811b8216602084015230901b16603482015260488101869052606881018290524260888201525f9060a80160408051808303601f19018152828252805160209182012060a0840183528084528184018a815233858501908152600160608701818152865180870188525f80825260808a0191909152858152600890965295909420865181559151938201939093559151600280840180546001600160a01b031981166001600160a01b0390941693841782559551939750869590926001600160a81b03199091161790600160a01b90849081111561082157610821611614565b02179055506080820151600382019061083a90826118d8565b5050600654604051630e84d55560e21b81526001600160a01b039091169150633a1355549034906108759086908c908c908c90600401611998565b5f604051808303818588803b15801561088c575f80fd5b505af115801561089e573d5f803e3d5ffd5b50949a9950505050505050505050565b6108df6040805160a0810182525f808252602082018190529181018290529060608201908152602001606081525090565b5f82815260096020908152604091829020825160a081018452815481526001820154928101929092526002808201546001600160a01b03811694840194909452919290916060840191600160a01b900460ff169081111561094257610942611614565b600281111561095357610953611614565b81526020016003820180546109679061183c565b80601f01602080910402602001604051908101604052809291908181526020018280546109939061183c565b80156109de5780601f106109b5576101008083540402835291602001916109de565b820191905f5260205f20905b8154815290600101906020018083116109c157829003601f168201915b5050505050815250509050919050565b5f336109fb858285611066565b610a068585856110e1565b506001949350505050565b60086020525f90815260409020805460018201546002830154600384018054939492936001600160a01b03831693600160a01b90930460ff16929190610a569061183c565b80601f0160208091040260200160405190810160405280929190818152602001828054610a829061183c565b8015610acd5780601f10610aa457610100808354040283529160200191610acd565b820191905f5260205f20905b815481529060010190602001808311610ab057829003601f168201915b5050505050905085565b600a6020525f90815260409020805460018201546002830154600384018054939492936001600160a01b03831693600160a01b90930460ff16929190610a569061183c565b60606007805480602002602001604051908101604052809291908181526020015f905b82821015610b93575f8481526020908190206040805160608101825260038602909201805483526001808201546001600160a01b031684860152600290910154918301919091529083529092019101610b3f565b50505050905090565b6060600480546105249061183c565b60078181548110610bba575f80fd5b5f9182526020909120600390910201805460018201546002909201549092506001600160a01b039091169083565b610c196040805160a0810182525f808252602082018190529181018290529060608201908152602001606081525090565b5f82815260086020908152604091829020825160a081018452815481526001820154928101929092526002808201546001600160a01b03811694840194909452919290916060840191600160a01b900460ff169081111561094257610942611614565b5f336105b28185856110e1565b60096020525f90815260409020805460018201546002830154600384018054939492936001600160a01b03831693600160a01b90930460ff16929190610a569061183c565b6006546001600160a01b03163314610d345760405162461bcd60e51b8152602060048201526024808201527f536c696365546f6b656e3a204f6e6c7920536c69636520436f72652063616e2060448201526318d85b1b60e21b6064820152608401610621565b5f818152600860209081526040808320815160a081018352815481526001820154938101939093526002808201546001600160a01b0381169385019390935290916060840191600160a01b90910460ff1690811115610d9557610d95611614565b6002811115610da657610da6611614565b8152602001600382018054610dba9061183c565b80601f0160208091040260200160405190810160405280929190818152602001828054610de69061183c565b8015610e315780601f10610e0857610100808354040283529160200191610e31565b820191905f5260205f20905b815481529060010190602001808311610e1457829003601f168201915b5050509190925250508151919250610e8d90505760405162461bcd60e51b815260206004820152601b60248201527f536c696365546f6b656e3a20496e76616c6964206d696e7420494400000000006044820152606401610621565b600181606001516002811115610ea557610ea5611614565b14610f045760405162461bcd60e51b815260206004820152602960248201527f536c696365546f6b656e3a205472616e73616374696f6e207374617465206973604482015268103737ba1037b832b760b91b6064820152608401610621565b5f8281526008602052604090206002908101805460ff60a01b1916600160a01b830217905550610f3c8160400151826020015161113e565b806020015181604001516001600160a01b03167fa61fdfb9f0c74c4b68b88685011450e9d2d293083bf9209c523a5e0b50ed7fe460405160405180910390a35050565b610fb06040805160a0810182525f808252602082018190529181018290529060608201908152602001606081525090565b5f828152600a6020908152604091829020825160a081018452815481526001820154928101929092526002808201546001600160a01b03811694840194909452919290916060840191600160a01b900460ff169081111561094257610942611614565b6110208383836001611176565b505050565b5f805b82518110156110605782818151811061104357611043611a3e565b6020026020010151826110569190611a52565b9150600101611028565b50919050565b6001600160a01b038381165f908152600160209081526040808320938616835292905220545f1981146110db57818110156110cd57604051637dc7a0d960e11b81526001600160a01b03841660048201526024810182905260448101839052606401610621565b6110db84848484035f611176565b50505050565b6001600160a01b03831661110a57604051634b637e8f60e11b81525f6004820152602401610621565b6001600160a01b0382166111335760405163ec442f0560e01b81525f6004820152602401610621565b611020838383611248565b6001600160a01b0382166111675760405163ec442f0560e01b81525f6004820152602401610621565b6111725f8383611248565b5050565b6001600160a01b03841661119f5760405163e602df0560e01b81525f6004820152602401610621565b6001600160a01b0383166111c857604051634a1406b160e11b81525f6004820152602401610621565b6001600160a01b038085165f90815260016020908152604080832093871683529290522082905580156110db57826001600160a01b0316846001600160a01b03167f8c5be1e5ebec7d5bd14f71427d1e84f3dd0314c0f7b2291e5b200ac8c7c3b9258460405161123a91815260200190565b60405180910390a350505050565b6001600160a01b038316611272578060025f8282546112679190611a52565b909155506112e29050565b6001600160a01b0383165f90815260208190526040902054818110156112c45760405163391434e360e21b81526001600160a01b03851660048201526024810182905260448101839052606401610621565b6001600160a01b0384165f9081526020819052604090209082900390555b6001600160a01b0382166112fe5760028054829003905561131c565b6001600160a01b0382165f9081526020819052604090208054820190555b816001600160a01b0316836001600160a01b03167fddf252ad1be2c89b69c2b068fc378daa952ba7f163c4a11628f55a4df523b3ef8360405161136191815260200190565b60405180910390a3505050565b5f81518084528060208401602086015e5f602082860101526020601f19601f83011685010191505092915050565b602081525f6113ae602083018461136e565b9392505050565b80356001600160a01b03811681146113cb575f80fd5b919050565b5f80604083850312156113e1575f80fd5b6113ea836113b5565b946020939093013593505050565b634e487b7160e01b5f52604160045260245ffd5b604051601f8201601f1916810167ffffffffffffffff81118282101715611435576114356113f8565b604052919050565b5f67ffffffffffffffff821115611456576114566113f8565b5060051b60200190565b5f601f83601f840112611471575f80fd5b823560206114866114818361143d565b61140c565b82815260059290921b850181019181810190878411156114a4575f80fd5b8287015b8481101561153457803567ffffffffffffffff808211156114c7575f80fd5b818a0191508a603f8301126114da575f80fd5b858201356040828211156114f0576114f06113f8565b611501828b01601f1916890161140c565b92508183528c81838601011115611516575f80fd5b8181850189850137505f9082018701528452509183019183016114a8565b50979650505050505050565b5f805f60608486031215611552575f80fd5b8335925060208085013567ffffffffffffffff80821115611571575f80fd5b818701915087601f830112611584575f80fd5b81356115926114818261143d565b81815260059190911b8301840190848101908a8311156115b0575f80fd5b938501935b828510156115ce578435825293850193908501906115b5565b9650505060408701359250808311156115e5575f80fd5b50506115f386828701611460565b9150509250925092565b5f6020828403121561160d575f80fd5b5035919050565b634e487b7160e01b5f52602160045260245ffd5b6003811061164457634e487b7160e01b5f52602160045260245ffd5b9052565b60208152815160208201526020820151604082015260018060a01b0360408301511660608201525f60608301516116826080840182611628565b50608083015160a08084015261169b60c084018261136e565b949350505050565b5f80602083850312156116b4575f80fd5b823567ffffffffffffffff808211156116cb575f80fd5b818501915085601f8301126116de575f80fd5b8135818111156116ec575f80fd5b866020606083028501011115611700575f80fd5b60209290920196919550909350505050565b5f805f60608486031215611724575f80fd5b61172d846113b5565b925061173b602085016113b5565b9150604084013590509250925092565b858152602081018590526001600160a01b03841660408201526117716060820184611628565b60a060808201525f61178660a083018461136e565b979650505050505050565b5f602082840312156117a1575f80fd5b6113ae826113b5565b602080825282518282018190525f919060409081850190868401855b828110156117fe57815180518552868101516001600160a01b03168786015285015185850152606090930192908501906001016117c6565b5091979650505050505050565b5f806040838503121561181c575f80fd5b611825836113b5565b9150611833602084016113b5565b90509250929050565b600181811c9082168061185057607f821691505b60208210810361106057634e487b7160e01b5f52602260045260245ffd5b5f6020828403121561187e575f80fd5b815180151581146113ae575f80fd5b601f82111561102057805f5260205f20601f840160051c810160208510156118b25750805b601f840160051c820191505b818110156118d1575f81556001016118be565b5050505050565b815167ffffffffffffffff8111156118f2576118f26113f8565b61190681611900845461183c565b8461188d565b602080601f831160018114611939575f84156119225750858301515b5f19600386901b1c1916600185901b178555611990565b5f85815260208120601f198616915b8281101561196757888601518255948401946001909101908401611948565b508582101561198457878501515f19600388901b60f8161c191681555b505060018460011b0185555b505050505050565b5f60808201868352602086818501526080604085015281865180845260a08601915082880193505f5b818110156119dd578451835293830193918301916001016119c1565b5050848103606086015285518082528282019350600581901b820183018388015f5b83811015611a2d57601f19858403018752611a1b83835161136e565b968601969250908501906001016119ff565b50909b9a5050505050505050505050565b634e487b7160e01b5f52603260045260245ffd5b808201808211156105b857634e487b7160e01b5f52601160045260245ffdfea2646970667358221220e7dd359379a196b24d9550c4c7ec2915b4de216ab5b6bff974b926019c96047964736f6c63430008190033a26469706673582212205fdd5a3539d069eda1f8e714d86a966bfb556a5a296aff934bb6146b18effb4f64736f6c63430008190033",
			"opcodes": "PUSH1 0xC0 PUSH1 0x40 MSTORE PUSH3 0x7A120 PUSH1 0xE SSTORE PUSH7 0x2B1B7F20E35D2 PUSH1 0xF SSTORE CALLVALUE DUP1 ISZERO PUSH2 0x21 JUMPI PUSH0 DUP1 REVERT JUMPDEST POP PUSH1 0x40 MLOAD PUSH2 0x5296 CODESIZE SUB DUP1 PUSH2 0x5296 DUP4 CODECOPY DUP2 ADD PUSH1 0x40 DUP2 SWAP1 MSTORE PUSH2 0x40 SWAP2 PUSH2 0x1E3 JUMP JUMPDEST DUP2 CALLER DUP2 DUP2 DUP1 DUP1 PUSH2 0x69 JUMPI PUSH1 0x40 MLOAD PUSH4 0x1E4FBDF7 PUSH1 0xE0 SHL DUP2 MSTORE PUSH0 PUSH1 0x4 DUP3 ADD MSTORE PUSH1 0x24 ADD PUSH1 0x40 MLOAD DUP1 SWAP2 SUB SWAP1 REVERT JUMPDEST PUSH2 0x72 DUP2 PUSH2 0x179 JUMP JUMPDEST POP PUSH1 0x1 PUSH1 0x1 PUSH1 0xA0 SHL SUB DUP1 DUP4 AND PUSH1 0x80 MSTORE DUP2 AND PUSH2 0xA0 JUMPI PUSH1 0x40 MLOAD PUSH4 0x2D618D81 PUSH1 0xE2 SHL DUP2 MSTORE PUSH1 0x4 ADD PUSH1 0x40 MLOAD DUP1 SWAP2 SUB SWAP1 REVERT JUMPDEST PUSH1 0x80 MLOAD PUSH1 0x40 MLOAD PUSH4 0xCA5EB5E1 PUSH1 0xE0 SHL DUP2 MSTORE PUSH1 0x1 PUSH1 0x1 PUSH1 0xA0 SHL SUB DUP4 DUP2 AND PUSH1 0x4 DUP4 ADD MSTORE SWAP1 SWAP2 AND SWAP1 PUSH4 0xCA5EB5E1 SWAP1 PUSH1 0x24 ADD PUSH0 PUSH1 0x40 MLOAD DUP1 DUP4 SUB DUP2 PUSH0 DUP8 DUP1 EXTCODESIZE ISZERO DUP1 ISZERO PUSH2 0xE4 JUMPI PUSH0 DUP1 REVERT JUMPDEST POP GAS CALL ISZERO DUP1 ISZERO PUSH2 0xF6 JUMPI RETURNDATASIZE PUSH0 DUP1 RETURNDATACOPY RETURNDATASIZE PUSH0 REVERT JUMPDEST POP POP PUSH1 0x2 DUP1 SLOAD PUSH1 0x1 PUSH1 0x1 PUSH1 0xA0 SHL SUB SWAP15 DUP16 AND PUSH1 0x1 PUSH1 0x1 PUSH1 0xA0 SHL SUB NOT SWAP2 DUP3 AND OR SWAP1 SWAP2 SSTORE PUSH1 0x3 DUP1 SLOAD SWAP14 DUP16 AND SWAP14 DUP3 AND SWAP14 SWAP1 SWAP14 OR SWAP1 SWAP13 SSTORE POP POP PUSH1 0x6 DUP1 SLOAD SWAP6 DUP13 AND SWAP6 DUP12 AND SWAP6 SWAP1 SWAP6 OR SWAP1 SWAP5 SSTORE POP POP PUSH1 0x4 DUP1 SLOAD SWAP7 DUP10 AND SWAP7 DUP9 AND SWAP7 SWAP1 SWAP7 OR SWAP1 SWAP6 SSTORE POP PUSH1 0x5 DUP1 SLOAD SWAP4 DUP8 AND SWAP4 DUP7 AND SWAP4 SWAP1 SWAP4 OR SWAP1 SWAP3 SSTORE PUSH1 0xD DUP1 SLOAD SWAP2 DUP7 AND SWAP2 SWAP1 SWAP5 AND OR SWAP1 SWAP3 SSTORE POP AND PUSH1 0xA0 MSTORE PUSH2 0x264 JUMP JUMPDEST PUSH0 DUP1 SLOAD PUSH1 0x1 PUSH1 0x1 PUSH1 0xA0 SHL SUB DUP4 DUP2 AND PUSH1 0x1 PUSH1 0x1 PUSH1 0xA0 SHL SUB NOT DUP4 AND DUP2 OR DUP5 SSTORE PUSH1 0x40 MLOAD SWAP2 SWAP1 SWAP3 AND SWAP3 DUP4 SWAP2 PUSH32 0x8BE0079C531659141344CD1FD0A4F28419497F9722A3DAAFE3B4186F6B6457E0 SWAP2 SWAP1 LOG3 POP POP JUMP JUMPDEST DUP1 MLOAD PUSH1 0x1 PUSH1 0x1 PUSH1 0xA0 SHL SUB DUP2 AND DUP2 EQ PUSH2 0x1DE JUMPI PUSH0 DUP1 REVERT JUMPDEST SWAP2 SWAP1 POP JUMP JUMPDEST PUSH0 DUP1 PUSH0 DUP1 PUSH0 DUP1 PUSH0 PUSH1 0xE0 DUP9 DUP11 SUB SLT ISZERO PUSH2 0x1F9 JUMPI PUSH0 DUP1 REVERT JUMPDEST PUSH2 0x202 DUP9 PUSH2 0x1C8 JUMP JUMPDEST SWAP7 POP PUSH2 0x210 PUSH1 0x20 DUP10 ADD PUSH2 0x1C8 JUMP JUMPDEST SWAP6 POP PUSH2 0x21E PUSH1 0x40 DUP10 ADD PUSH2 0x1C8 JUMP JUMPDEST SWAP5 POP PUSH2 0x22C PUSH1 0x60 DUP10 ADD PUSH2 0x1C8 JUMP JUMPDEST SWAP4 POP PUSH2 0x23A PUSH1 0x80 DUP10 ADD PUSH2 0x1C8 JUMP JUMPDEST SWAP3 POP PUSH2 0x248 PUSH1 0xA0 DUP10 ADD PUSH2 0x1C8 JUMP JUMPDEST SWAP2 POP PUSH2 0x256 PUSH1 0xC0 DUP10 ADD PUSH2 0x1C8 JUMP JUMPDEST SWAP1 POP SWAP3 SWAP6 SWAP9 SWAP2 SWAP5 SWAP8 POP SWAP3 SWAP6 POP JUMP JUMPDEST PUSH1 0x80 MLOAD PUSH1 0xA0 MLOAD PUSH2 0x4FF5 PUSH2 0x2A1 PUSH0 CODECOPY PUSH0 DUP2 DUP2 PUSH2 0x5EF ADD MSTORE PUSH2 0x15BF ADD MSTORE PUSH0 DUP2 DUP2 PUSH2 0x3F3 ADD MSTORE DUP2 DUP2 PUSH2 0x7BC ADD MSTORE DUP2 DUP2 PUSH2 0x12A9 ADD MSTORE PUSH2 0x1458 ADD MSTORE PUSH2 0x4FF5 PUSH0 RETURN INVALID PUSH1 0x80 PUSH1 0x40 MSTORE PUSH1 0x4 CALLDATASIZE LT PUSH2 0x241 JUMPI PUSH0 CALLDATALOAD PUSH1 0xE0 SHR DUP1 PUSH4 0x82C325D2 GT PUSH2 0x134 JUMPI DUP1 PUSH4 0xBB0B6A53 GT PUSH2 0xB3 JUMPI DUP1 PUSH4 0xDBF0B01A GT PUSH2 0x78 JUMPI DUP1 PUSH4 0xDBF0B01A EQ PUSH2 0x6CA JUMPI DUP1 PUSH4 0xEAD4C477 EQ PUSH2 0x701 JUMPI DUP1 PUSH4 0xECF7A79D EQ PUSH2 0x72F JUMPI DUP1 PUSH4 0xF2FDE38B EQ PUSH2 0x75D JUMPI DUP1 PUSH4 0xF476B41A EQ PUSH2 0x77C JUMPI DUP1 PUSH4 0xFF7BD03D EQ PUSH2 0x79B JUMPI PUSH0 DUP1 REVERT JUMPDEST DUP1 PUSH4 0xBB0B6A53 EQ PUSH2 0x623 JUMPI DUP1 PUSH4 0xC06AC447 EQ PUSH2 0x64E JUMPI DUP1 PUSH4 0xCA5EB5E1 EQ PUSH2 0x66D JUMPI DUP1 PUSH4 0xD1E90A7C EQ PUSH2 0x68C JUMPI DUP1 PUSH4 0xD8078B8A EQ PUSH2 0x6AB JUMPI PUSH0 DUP1 REVERT JUMPDEST DUP1 PUSH4 0xA16D5960 GT PUSH2 0xF9 JUMPI DUP1 PUSH4 0xA16D5960 EQ PUSH2 0x58D JUMPI DUP1 PUSH4 0xA6AC3DB6 EQ PUSH2 0x5AC JUMPI DUP1 PUSH4 0xA7DBB845 EQ PUSH2 0x5BF JUMPI DUP1 PUSH4 0xB353AAA7 EQ PUSH2 0x5DE JUMPI DUP1 PUSH4 0xB92D0EFF EQ PUSH2 0x611 JUMPI PUSH0 DUP1 REVERT JUMPDEST DUP1 PUSH4 0x82C325D2 EQ PUSH2 0x4DC JUMPI DUP1 PUSH4 0x8DA5CB5B EQ PUSH2 0x4FA JUMPI DUP1 PUSH4 0x8FB84F31 EQ PUSH2 0x516 JUMPI DUP1 PUSH4 0x9231174E EQ PUSH2 0x54D JUMPI DUP1 PUSH4 0x982C26D4 EQ PUSH2 0x56C JUMPI PUSH0 DUP1 REVERT JUMPDEST DUP1 PUSH4 0x3A135554 GT PUSH2 0x1C0 JUMPI DUP1 PUSH4 0x65C3CD58 GT PUSH2 0x185 JUMPI DUP1 PUSH4 0x65C3CD58 EQ PUSH2 0x434 JUMPI DUP1 PUSH4 0x6E3F5447 EQ PUSH2 0x453 JUMPI DUP1 PUSH4 0x715018A6 EQ PUSH2 0x472 JUMPI DUP1 PUSH4 0x7255F81B EQ PUSH2 0x486 JUMPI DUP1 PUSH4 0x7D25A05E EQ PUSH2 0x4A5 JUMPI PUSH0 DUP1 REVERT JUMPDEST DUP1 PUSH4 0x3A135554 EQ PUSH2 0x3A6 JUMPI DUP1 PUSH4 0x3A3E8443 EQ PUSH2 0x3B9 JUMPI DUP1 PUSH4 0x5609B29D EQ PUSH2 0x3CD JUMPI DUP1 PUSH4 0x5E280F11 EQ PUSH2 0x3E2 JUMPI DUP1 PUSH4 0x628CDA6D EQ PUSH2 0x415 JUMPI PUSH0 DUP1 REVERT JUMPDEST DUP1 PUSH4 0x29EF0DC7 GT PUSH2 0x206 JUMPI DUP1 PUSH4 0x29EF0DC7 EQ PUSH2 0x2FD JUMPI DUP1 PUSH4 0x2CDCD190 EQ PUSH2 0x320 JUMPI DUP1 PUSH4 0x3013CE29 EQ PUSH2 0x349 JUMPI DUP1 PUSH4 0x31263AE1 EQ PUSH2 0x368 JUMPI DUP1 PUSH4 0x3400288B EQ PUSH2 0x387 JUMPI PUSH0 DUP1 REVERT JUMPDEST DUP1 PUSH4 0x993035C EQ PUSH2 0x24C JUMPI DUP1 PUSH4 0x13137D65 EQ PUSH2 0x26D JUMPI DUP1 PUSH4 0x17442B70 EQ PUSH2 0x280 JUMPI DUP1 PUSH4 0x272A58D2 EQ PUSH2 0x2A5 JUMPI DUP1 PUSH4 0x290DFDB2 EQ PUSH2 0x2C6 JUMPI PUSH0 DUP1 REVERT JUMPDEST CALLDATASIZE PUSH2 0x248 JUMPI STOP JUMPDEST PUSH0 DUP1 REVERT JUMPDEST CALLVALUE DUP1 ISZERO PUSH2 0x257 JUMPI PUSH0 DUP1 REVERT JUMPDEST POP PUSH2 0x26B PUSH2 0x266 CALLDATASIZE PUSH1 0x4 PUSH2 0x2095 JUMP JUMPDEST POP POP POP JUMP JUMPDEST STOP JUMPDEST PUSH2 0x26B PUSH2 0x27B CALLDATASIZE PUSH1 0x4 PUSH2 0x213D JUMP JUMPDEST PUSH2 0x7BA JUMP JUMPDEST CALLVALUE DUP1 ISZERO PUSH2 0x28B JUMPI PUSH0 DUP1 REVERT JUMPDEST POP PUSH1 0x40 DUP1 MLOAD PUSH1 0x1 DUP1 DUP3 MSTORE PUSH1 0x20 DUP3 ADD MSTORE ADD JUMPDEST PUSH1 0x40 MLOAD DUP1 SWAP2 SUB SWAP1 RETURN JUMPDEST CALLVALUE DUP1 ISZERO PUSH2 0x2B0 JUMPI PUSH0 DUP1 REVERT JUMPDEST POP PUSH2 0x2B9 PUSH2 0x87A JUMP JUMPDEST PUSH1 0x40 MLOAD PUSH2 0x29C SWAP2 SWAP1 PUSH2 0x2203 JUMP JUMPDEST CALLVALUE DUP1 ISZERO PUSH2 0x2D1 JUMPI PUSH0 DUP1 REVERT JUMPDEST POP PUSH2 0x2E5 PUSH2 0x2E0 CALLDATASIZE PUSH1 0x4 PUSH2 0x221C JUMP JUMPDEST PUSH2 0x906 JUMP JUMPDEST PUSH1 0x40 MLOAD PUSH1 0x1 PUSH1 0x1 PUSH1 0xA0 SHL SUB SWAP1 SWAP2 AND DUP2 MSTORE PUSH1 0x20 ADD PUSH2 0x29C JUMP JUMPDEST CALLVALUE DUP1 ISZERO PUSH2 0x308 JUMPI PUSH0 DUP1 REVERT JUMPDEST POP PUSH2 0x312 PUSH1 0xE SLOAD DUP2 JUMP JUMPDEST PUSH1 0x40 MLOAD SWAP1 DUP2 MSTORE PUSH1 0x20 ADD PUSH2 0x29C JUMP JUMPDEST CALLVALUE DUP1 ISZERO PUSH2 0x32B JUMPI PUSH0 DUP1 REVERT JUMPDEST POP PUSH1 0x8 SLOAD PUSH2 0x339 SWAP1 PUSH1 0xFF AND DUP2 JUMP JUMPDEST PUSH1 0x40 MLOAD SWAP1 ISZERO ISZERO DUP2 MSTORE PUSH1 0x20 ADD PUSH2 0x29C JUMP JUMPDEST CALLVALUE DUP1 ISZERO PUSH2 0x354 JUMPI PUSH0 DUP1 REVERT JUMPDEST POP PUSH1 0x2 SLOAD PUSH2 0x2E5 SWAP1 PUSH1 0x1 PUSH1 0x1 PUSH1 0xA0 SHL SUB AND DUP2 JUMP JUMPDEST CALLVALUE DUP1 ISZERO PUSH2 0x373 JUMPI PUSH0 DUP1 REVERT JUMPDEST POP PUSH1 0x3 SLOAD PUSH2 0x2E5 SWAP1 PUSH1 0x1 PUSH1 0x1 PUSH1 0xA0 SHL SUB AND DUP2 JUMP JUMPDEST CALLVALUE DUP1 ISZERO PUSH2 0x392 JUMPI PUSH0 DUP1 REVERT JUMPDEST POP PUSH2 0x26B PUSH2 0x3A1 CALLDATASIZE PUSH1 0x4 PUSH2 0x22BF JUMP JUMPDEST PUSH2 0xAD3 JUMP JUMPDEST PUSH2 0x26B PUSH2 0x3B4 CALLDATASIZE PUSH1 0x4 PUSH2 0x24AD JUMP JUMPDEST PUSH2 0xB2F JUMP JUMPDEST CALLVALUE DUP1 ISZERO PUSH2 0x3C4 JUMPI PUSH0 DUP1 REVERT JUMPDEST POP PUSH1 0xB SLOAD PUSH2 0x312 JUMP JUMPDEST CALLVALUE DUP1 ISZERO PUSH2 0x3D8 JUMPI PUSH0 DUP1 REVERT JUMPDEST POP PUSH2 0x312 PUSH1 0xB SLOAD DUP2 JUMP JUMPDEST CALLVALUE DUP1 ISZERO PUSH2 0x3ED JUMPI PUSH0 DUP1 REVERT JUMPDEST POP PUSH2 0x2E5 PUSH32 0x0 DUP2 JUMP JUMPDEST CALLVALUE DUP1 ISZERO PUSH2 0x420 JUMPI PUSH0 DUP1 REVERT JUMPDEST POP PUSH1 0x4 SLOAD PUSH2 0x2E5 SWAP1 PUSH1 0x1 PUSH1 0x1 PUSH1 0xA0 SHL SUB AND DUP2 JUMP JUMPDEST CALLVALUE DUP1 ISZERO PUSH2 0x43F JUMPI PUSH0 DUP1 REVERT JUMPDEST POP PUSH1 0xD SLOAD PUSH2 0x2E5 SWAP1 PUSH1 0x1 PUSH1 0x1 PUSH1 0xA0 SHL SUB AND DUP2 JUMP JUMPDEST CALLVALUE DUP1 ISZERO PUSH2 0x45E JUMPI PUSH0 DUP1 REVERT JUMPDEST POP PUSH2 0x26B PUSH2 0x46D CALLDATASIZE PUSH1 0x4 PUSH2 0x2580 JUMP JUMPDEST PUSH2 0xFB8 JUMP JUMPDEST CALLVALUE DUP1 ISZERO PUSH2 0x47D JUMPI PUSH0 DUP1 REVERT JUMPDEST POP PUSH2 0x26B PUSH2 0xFD3 JUMP JUMPDEST CALLVALUE DUP1 ISZERO PUSH2 0x491 JUMPI PUSH0 DUP1 REVERT JUMPDEST POP PUSH2 0x26B PUSH2 0x4A0 CALLDATASIZE PUSH1 0x4 PUSH2 0x259B JUMP JUMPDEST PUSH2 0xFE6 JUMP JUMPDEST CALLVALUE DUP1 ISZERO PUSH2 0x4B0 JUMPI PUSH0 DUP1 REVERT JUMPDEST POP PUSH2 0x4C4 PUSH2 0x4BF CALLDATASIZE PUSH1 0x4 PUSH2 0x22BF JUMP JUMPDEST PUSH2 0xFFB JUMP JUMPDEST PUSH1 0x40 MLOAD PUSH1 0x1 PUSH1 0x1 PUSH1 0x40 SHL SUB SWAP1 SWAP2 AND DUP2 MSTORE PUSH1 0x20 ADD PUSH2 0x29C JUMP JUMPDEST CALLVALUE DUP1 ISZERO PUSH2 0x4E7 JUMPI PUSH0 DUP1 REVERT JUMPDEST POP PUSH2 0x26B PUSH2 0x4F6 CALLDATASIZE PUSH1 0x4 PUSH2 0x25E5 JUMP JUMPDEST POP POP JUMP JUMPDEST CALLVALUE DUP1 ISZERO PUSH2 0x505 JUMPI PUSH0 DUP1 REVERT JUMPDEST POP PUSH0 SLOAD PUSH1 0x1 PUSH1 0x1 PUSH1 0xA0 SHL SUB AND PUSH2 0x2E5 JUMP JUMPDEST CALLVALUE DUP1 ISZERO PUSH2 0x521 JUMPI PUSH0 DUP1 REVERT JUMPDEST POP PUSH2 0x339 PUSH2 0x530 CALLDATASIZE PUSH1 0x4 PUSH2 0x2692 JUMP JUMPDEST PUSH1 0x1 PUSH1 0x1 PUSH1 0xA0 SHL SUB AND PUSH0 SWAP1 DUP2 MSTORE PUSH1 0x9 PUSH1 0x20 MSTORE PUSH1 0x40 SWAP1 KECCAK256 SLOAD PUSH1 0xFF AND SWAP1 JUMP JUMPDEST CALLVALUE DUP1 ISZERO PUSH2 0x558 JUMPI PUSH0 DUP1 REVERT JUMPDEST POP PUSH2 0x26B PUSH2 0x567 CALLDATASIZE PUSH1 0x4 PUSH2 0x26AD JUMP JUMPDEST PUSH2 0x1003 JUMP JUMPDEST CALLVALUE DUP1 ISZERO PUSH2 0x577 JUMPI PUSH0 DUP1 REVERT JUMPDEST POP PUSH2 0x580 PUSH2 0x1010 JUMP JUMPDEST PUSH1 0x40 MLOAD PUSH2 0x29C SWAP2 SWAP1 PUSH2 0x26C4 JUMP JUMPDEST CALLVALUE DUP1 ISZERO PUSH2 0x598 JUMPI PUSH0 DUP1 REVERT JUMPDEST POP PUSH2 0x26B PUSH2 0x5A7 CALLDATASIZE PUSH1 0x4 PUSH2 0x2692 JUMP JUMPDEST PUSH2 0x1070 JUMP JUMPDEST PUSH2 0x26B PUSH2 0x5BA CALLDATASIZE PUSH1 0x4 PUSH2 0x2710 JUMP JUMPDEST PUSH2 0x109A JUMP JUMPDEST CALLVALUE DUP1 ISZERO PUSH2 0x5CA JUMPI PUSH0 DUP1 REVERT JUMPDEST POP PUSH2 0x26B PUSH2 0x5D9 CALLDATASIZE PUSH1 0x4 PUSH2 0x2749 JUMP JUMPDEST PUSH2 0x13FF JUMP JUMPDEST CALLVALUE DUP1 ISZERO PUSH2 0x5E9 JUMPI PUSH0 DUP1 REVERT JUMPDEST POP PUSH2 0x2E5 PUSH32 0x0 DUP2 JUMP JUMPDEST CALLVALUE DUP1 ISZERO PUSH2 0x61C JUMPI PUSH0 DUP1 REVERT JUMPDEST POP ADDRESS PUSH2 0x2E5 JUMP JUMPDEST CALLVALUE DUP1 ISZERO PUSH2 0x62E JUMPI PUSH0 DUP1 REVERT JUMPDEST POP PUSH2 0x312 PUSH2 0x63D CALLDATASIZE PUSH1 0x4 PUSH2 0x2780 JUMP JUMPDEST PUSH1 0x1 PUSH1 0x20 MSTORE PUSH0 SWAP1 DUP2 MSTORE PUSH1 0x40 SWAP1 KECCAK256 SLOAD DUP2 JUMP JUMPDEST CALLVALUE DUP1 ISZERO PUSH2 0x659 JUMPI PUSH0 DUP1 REVERT JUMPDEST POP PUSH1 0x5 SLOAD PUSH2 0x2E5 SWAP1 PUSH1 0x1 PUSH1 0x1 PUSH1 0xA0 SHL SUB AND DUP2 JUMP JUMPDEST CALLVALUE DUP1 ISZERO PUSH2 0x678 JUMPI PUSH0 DUP1 REVERT JUMPDEST POP PUSH2 0x26B PUSH2 0x687 CALLDATASIZE PUSH1 0x4 PUSH2 0x2692 JUMP JUMPDEST PUSH2 0x1431 JUMP JUMPDEST CALLVALUE DUP1 ISZERO PUSH2 0x697 JUMPI PUSH0 DUP1 REVERT JUMPDEST POP PUSH1 0x6 SLOAD PUSH2 0x2E5 SWAP1 PUSH1 0x1 PUSH1 0x1 PUSH1 0xA0 SHL SUB AND DUP2 JUMP JUMPDEST CALLVALUE DUP1 ISZERO PUSH2 0x6B6 JUMPI PUSH0 DUP1 REVERT JUMPDEST POP PUSH2 0x2E5 PUSH2 0x6C5 CALLDATASIZE PUSH1 0x4 PUSH2 0x26AD JUMP JUMPDEST PUSH2 0x14B2 JUMP JUMPDEST CALLVALUE DUP1 ISZERO PUSH2 0x6D5 JUMPI PUSH0 DUP1 REVERT JUMPDEST POP PUSH2 0x339 PUSH2 0x6E4 CALLDATASIZE PUSH1 0x4 PUSH2 0x2692 JUMP JUMPDEST PUSH1 0x1 PUSH1 0x1 PUSH1 0xA0 SHL SUB AND PUSH0 SWAP1 DUP2 MSTORE PUSH1 0x7 PUSH1 0x20 MSTORE PUSH1 0x40 SWAP1 KECCAK256 SLOAD PUSH1 0xFF AND SWAP1 JUMP JUMPDEST CALLVALUE DUP1 ISZERO PUSH2 0x70C JUMPI PUSH0 DUP1 REVERT JUMPDEST POP PUSH2 0x339 PUSH2 0x71B CALLDATASIZE PUSH1 0x4 PUSH2 0x2692 JUMP JUMPDEST PUSH1 0x7 PUSH1 0x20 MSTORE PUSH0 SWAP1 DUP2 MSTORE PUSH1 0x40 SWAP1 KECCAK256 SLOAD PUSH1 0xFF AND DUP2 JUMP JUMPDEST CALLVALUE DUP1 ISZERO PUSH2 0x73A JUMPI PUSH0 DUP1 REVERT JUMPDEST POP PUSH2 0x339 PUSH2 0x749 CALLDATASIZE PUSH1 0x4 PUSH2 0x2692 JUMP JUMPDEST PUSH1 0x9 PUSH1 0x20 MSTORE PUSH0 SWAP1 DUP2 MSTORE PUSH1 0x40 SWAP1 KECCAK256 SLOAD PUSH1 0xFF AND DUP2 JUMP JUMPDEST CALLVALUE DUP1 ISZERO PUSH2 0x768 JUMPI PUSH0 DUP1 REVERT JUMPDEST POP PUSH2 0x26B PUSH2 0x777 CALLDATASIZE PUSH1 0x4 PUSH2 0x2692 JUMP JUMPDEST PUSH2 0x14DA JUMP JUMPDEST CALLVALUE DUP1 ISZERO PUSH2 0x787 JUMPI PUSH0 DUP1 REVERT JUMPDEST POP PUSH2 0x2E5 PUSH2 0x796 CALLDATASIZE PUSH1 0x4 PUSH2 0x26AD JUMP JUMPDEST PUSH2 0x1517 JUMP JUMPDEST CALLVALUE DUP1 ISZERO PUSH2 0x7A6 JUMPI PUSH0 DUP1 REVERT JUMPDEST POP PUSH2 0x339 PUSH2 0x7B5 CALLDATASIZE PUSH1 0x4 PUSH2 0x279B JUMP JUMPDEST PUSH2 0x1545 JUMP JUMPDEST PUSH32 0x0 PUSH1 0x1 PUSH1 0x1 PUSH1 0xA0 SHL SUB AND CALLER EQ PUSH2 0x80A JUMPI PUSH1 0x40 MLOAD PUSH4 0x91AC5E4F PUSH1 0xE0 SHL DUP2 MSTORE CALLER PUSH1 0x4 DUP3 ADD MSTORE PUSH1 0x24 ADD JUMPDEST PUSH1 0x40 MLOAD DUP1 SWAP2 SUB SWAP1 REVERT JUMPDEST PUSH1 0x20 DUP8 ADD DUP1 CALLDATALOAD SWAP1 PUSH2 0x824 SWAP1 PUSH2 0x81F SWAP1 DUP11 PUSH2 0x2780 JUMP JUMPDEST PUSH2 0x1579 JUMP JUMPDEST EQ PUSH2 0x862 JUMPI PUSH2 0x836 PUSH1 0x20 DUP9 ADD DUP9 PUSH2 0x2780 JUMP JUMPDEST PUSH1 0x40 MLOAD PUSH4 0x309AFAF3 PUSH1 0xE2 SHL DUP2 MSTORE PUSH4 0xFFFFFFFF SWAP1 SWAP2 AND PUSH1 0x4 DUP3 ADD MSTORE PUSH1 0x20 DUP9 ADD CALLDATALOAD PUSH1 0x24 DUP3 ADD MSTORE PUSH1 0x44 ADD PUSH2 0x801 JUMP JUMPDEST PUSH2 0x871 DUP8 DUP8 DUP8 DUP8 DUP8 DUP8 DUP8 PUSH2 0x15B4 JUMP JUMPDEST POP POP POP POP POP POP POP JUMP JUMPDEST PUSH1 0x10 DUP1 SLOAD PUSH2 0x887 SWAP1 PUSH2 0x27B5 JUMP JUMPDEST DUP1 PUSH1 0x1F ADD PUSH1 0x20 DUP1 SWAP2 DIV MUL PUSH1 0x20 ADD PUSH1 0x40 MLOAD SWAP1 DUP2 ADD PUSH1 0x40 MSTORE DUP1 SWAP3 SWAP2 SWAP1 DUP2 DUP2 MSTORE PUSH1 0x20 ADD DUP3 DUP1 SLOAD PUSH2 0x8B3 SWAP1 PUSH2 0x27B5 JUMP JUMPDEST DUP1 ISZERO PUSH2 0x8FE JUMPI DUP1 PUSH1 0x1F LT PUSH2 0x8D5 JUMPI PUSH2 0x100 DUP1 DUP4 SLOAD DIV MUL DUP4 MSTORE SWAP2 PUSH1 0x20 ADD SWAP2 PUSH2 0x8FE JUMP JUMPDEST DUP3 ADD SWAP2 SWAP1 PUSH0 MSTORE PUSH1 0x20 PUSH0 KECCAK256 SWAP1 JUMPDEST DUP2 SLOAD DUP2 MSTORE SWAP1 PUSH1 0x1 ADD SWAP1 PUSH1 0x20 ADD DUP1 DUP4 GT PUSH2 0x8E1 JUMPI DUP3 SWAP1 SUB PUSH1 0x1F AND DUP3 ADD SWAP2 JUMPDEST POP POP POP POP POP DUP2 JUMP JUMPDEST CALLER PUSH0 SWAP1 DUP2 MSTORE PUSH1 0x7 PUSH1 0x20 MSTORE PUSH1 0x40 DUP2 KECCAK256 SLOAD PUSH1 0xFF AND PUSH2 0x964 JUMPI PUSH1 0x40 MLOAD PUSH3 0x461BCD PUSH1 0xE5 SHL DUP2 MSTORE PUSH1 0x20 PUSH1 0x4 DUP3 ADD MSTORE PUSH1 0x1E PUSH1 0x24 DUP3 ADD MSTORE PUSH32 0x536C696365436F72653A20556E617574686F72697A65642063616C6C65720000 PUSH1 0x44 DUP3 ADD MSTORE PUSH1 0x64 ADD PUSH2 0x801 JUMP JUMPDEST PUSH1 0x8 SLOAD PUSH1 0xFF AND PUSH2 0x9C7 JUMPI PUSH1 0x40 MLOAD PUSH3 0x461BCD PUSH1 0xE5 SHL DUP2 MSTORE PUSH1 0x20 PUSH1 0x4 DUP3 ADD MSTORE PUSH1 0x28 PUSH1 0x24 DUP3 ADD MSTORE PUSH32 0x536C696365436F72653A20536C69636520746F6B656E206372656174696F6E20 PUSH1 0x44 DUP3 ADD MSTORE PUSH8 0x191A5CD8589B1959 PUSH1 0xC2 SHL PUSH1 0x64 DUP3 ADD MSTORE PUSH1 0x84 ADD PUSH2 0x801 JUMP JUMPDEST PUSH0 DUP8 DUP8 DUP8 DUP8 DUP8 DUP8 PUSH1 0x2 PUSH0 SWAP1 SLOAD SWAP1 PUSH2 0x100 EXP SWAP1 DIV PUSH1 0x1 PUSH1 0x1 PUSH1 0xA0 SHL SUB AND ADDRESS PUSH1 0x40 MLOAD PUSH2 0x9F0 SWAP1 PUSH2 0x2041 JUMP JUMPDEST PUSH2 0xA01 SWAP9 SWAP8 SWAP7 SWAP6 SWAP5 SWAP4 SWAP3 SWAP2 SWAP1 PUSH2 0x280F JUMP JUMPDEST PUSH1 0x40 MLOAD DUP1 SWAP2 SUB SWAP1 PUSH0 CREATE DUP1 ISZERO DUP1 ISZERO PUSH2 0xA1A JUMPI RETURNDATASIZE PUSH0 DUP1 RETURNDATACOPY RETURNDATASIZE PUSH0 REVERT JUMPDEST POP PUSH1 0x1 PUSH1 0x1 PUSH1 0xA0 SHL SUB DUP2 AND PUSH0 DUP2 DUP2 MSTORE PUSH1 0x9 PUSH1 0x20 MSTORE PUSH1 0x40 DUP2 KECCAK256 DUP1 SLOAD PUSH1 0xFF NOT AND PUSH1 0x1 SWAP1 DUP2 OR SWAP1 SWAP2 SSTORE PUSH1 0xA DUP1 SLOAD SWAP2 DUP3 ADD DUP2 SSTORE DUP3 MSTORE PUSH32 0xC65A7BB8D6351C1CF70C95A316CC6A92839C986682D98BC35F958F4883F9D2A8 ADD DUP1 SLOAD PUSH1 0x1 PUSH1 0x1 PUSH1 0xA0 SHL SUB NOT AND SWAP1 SWAP3 OR SWAP1 SWAP2 SSTORE PUSH1 0xB DUP1 SLOAD SWAP3 SWAP4 POP SWAP1 PUSH2 0xA90 DUP4 PUSH2 0x28DA JUMP JUMPDEST SWAP1 SWAP2 SSTORE POP POP PUSH1 0x40 MLOAD PUSH1 0x1 PUSH1 0x1 PUSH1 0xA0 SHL SUB DUP3 AND SWAP1 PUSH32 0xB857149A33D1D8F31A903329294F61770C4562939C36B9421C5867347C14BCE SWAP1 PUSH0 SWAP1 LOG2 SWAP8 SWAP7 POP POP POP POP POP POP POP JUMP JUMPDEST PUSH2 0xADB PUSH2 0x18C2 JUMP JUMPDEST PUSH4 0xFFFFFFFF DUP3 AND PUSH0 DUP2 DUP2 MSTORE PUSH1 0x1 PUSH1 0x20 SWAP1 DUP2 MSTORE PUSH1 0x40 SWAP2 DUP3 SWAP1 KECCAK256 DUP5 SWAP1 SSTORE DUP2 MLOAD SWAP3 DUP4 MSTORE DUP3 ADD DUP4 SWAP1 MSTORE PUSH32 0x238399D427B947898EDB290F5FF0F9109849B1C3BA196A42E35F00C50A54B98B SWAP2 ADD PUSH1 0x40 MLOAD DUP1 SWAP2 SUB SWAP1 LOG1 POP POP JUMP JUMPDEST CALLER PUSH0 SWAP1 DUP2 MSTORE PUSH1 0x9 PUSH1 0x20 MSTORE PUSH1 0x40 SWAP1 KECCAK256 SLOAD PUSH1 0xFF AND PUSH2 0xBA5 JUMPI PUSH1 0x40 MLOAD PUSH3 0x461BCD PUSH1 0xE5 SHL DUP2 MSTORE PUSH1 0x20 PUSH1 0x4 DUP3 ADD MSTORE PUSH1 0x2F PUSH1 0x24 DUP3 ADD MSTORE PUSH32 0x536C696365436F72653A204F6E6C79207265676973746572656420536C696365 PUSH1 0x44 DUP3 ADD MSTORE PUSH15 0x81D1BDAD95B8818D85B8818D85B1B PUSH1 0x8A SHL PUSH1 0x64 DUP3 ADD MSTORE PUSH1 0x84 ADD PUSH2 0x801 JUMP JUMPDEST PUSH2 0xBAE DUP3 PUSH2 0x18EE JUMP JUMPDEST PUSH1 0x2 SLOAD PUSH1 0x40 MLOAD PUSH4 0x70A08231 PUSH1 0xE0 SHL DUP2 MSTORE ADDRESS PUSH1 0x4 DUP3 ADD MSTORE PUSH1 0x1 PUSH1 0x1 PUSH1 0xA0 SHL SUB SWAP1 SWAP2 AND SWAP1 PUSH4 0x70A08231 SWAP1 PUSH1 0x24 ADD PUSH1 0x20 PUSH1 0x40 MLOAD DUP1 DUP4 SUB DUP2 DUP7 GAS STATICCALL ISZERO DUP1 ISZERO PUSH2 0xBF4 JUMPI RETURNDATASIZE PUSH0 DUP1 RETURNDATACOPY RETURNDATASIZE PUSH0 REVERT JUMPDEST POP POP POP POP PUSH1 0x40 MLOAD RETURNDATASIZE PUSH1 0x1F NOT PUSH1 0x1F DUP3 ADD AND DUP3 ADD DUP1 PUSH1 0x40 MSTORE POP DUP2 ADD SWAP1 PUSH2 0xC18 SWAP2 SWAP1 PUSH2 0x28F2 JUMP JUMPDEST LT ISZERO PUSH2 0xC8C JUMPI PUSH1 0x40 MLOAD PUSH3 0x461BCD PUSH1 0xE5 SHL DUP2 MSTORE PUSH1 0x20 PUSH1 0x4 DUP3 ADD MSTORE PUSH1 0x3A PUSH1 0x24 DUP3 ADD MSTORE PUSH32 0x536C696365436F72653A204D617820657374696D61746564207072696365206E PUSH1 0x44 DUP3 ADD MSTORE PUSH32 0x6F74207472616E7366657272656420746F20636F6E7472616374000000000000 PUSH1 0x64 DUP3 ADD MSTORE PUSH1 0x84 ADD PUSH2 0x801 JUMP JUMPDEST PUSH1 0x40 MLOAD PUSH4 0xA2CE9C1F PUSH1 0xE0 SHL DUP2 MSTORE PUSH1 0x4 DUP2 ADD DUP6 SWAP1 MSTORE PUSH0 SWAP1 CALLER SWAP1 PUSH4 0xA2CE9C1F SWAP1 PUSH1 0x24 ADD PUSH0 PUSH1 0x40 MLOAD DUP1 DUP4 SUB DUP2 DUP7 GAS STATICCALL ISZERO DUP1 ISZERO PUSH2 0xCC7 JUMPI RETURNDATASIZE PUSH0 DUP1 RETURNDATACOPY RETURNDATASIZE PUSH0 REVERT JUMPDEST POP POP POP POP PUSH1 0x40 MLOAD RETURNDATASIZE PUSH0 DUP3 RETURNDATACOPY PUSH1 0x1F RETURNDATASIZE SWAP1 DUP2 ADD PUSH1 0x1F NOT AND DUP3 ADD PUSH1 0x40 MSTORE PUSH2 0xCEE SWAP2 SWAP1 DUP2 ADD SWAP1 PUSH2 0x2966 JUMP JUMPDEST DUP1 MLOAD SWAP1 SWAP2 POP DUP6 EQ PUSH2 0xD4B JUMPI PUSH1 0x40 MLOAD PUSH3 0x461BCD PUSH1 0xE5 SHL DUP2 MSTORE PUSH1 0x20 PUSH1 0x4 DUP3 ADD MSTORE PUSH1 0x21 PUSH1 0x24 DUP3 ADD MSTORE PUSH32 0x536C696365436F72653A204D696E7420494420646F6573206E6F742065786973 PUSH1 0x44 DUP3 ADD MSTORE PUSH1 0x1D PUSH1 0xFA SHL PUSH1 0x64 DUP3 ADD MSTORE PUSH1 0x84 ADD PUSH2 0x801 JUMP JUMPDEST PUSH0 DUP6 DUP2 MSTORE PUSH1 0xC PUSH1 0x20 MSTORE PUSH1 0x40 DUP1 DUP3 KECCAK256 DUP1 SLOAD CALLER PUSH1 0x1 PUSH1 0x1 PUSH1 0xA0 SHL SUB NOT SWAP2 DUP3 AND DUP2 OR DUP4 SSTORE PUSH1 0x2 DUP4 ADD DUP10 SWAP1 SSTORE DUP6 DUP5 ADD MLOAD PUSH1 0x3 SWAP1 SWAP4 ADD DUP1 SLOAD SWAP1 SWAP3 AND PUSH1 0x1 PUSH1 0x1 PUSH1 0xA0 SHL SUB SWAP1 SWAP4 AND SWAP3 SWAP1 SWAP3 OR SWAP1 SSTORE DUP2 MLOAD PUSH4 0x4013AC3 PUSH1 0xE5 SHL DUP2 MSTORE SWAP2 MLOAD SWAP1 SWAP2 PUSH4 0x80275860 SWAP2 PUSH1 0x4 DUP1 DUP4 ADD SWAP3 DUP7 SWAP3 SWAP2 SWAP1 DUP3 SWAP1 SUB ADD DUP2 DUP7 GAS STATICCALL ISZERO DUP1 ISZERO PUSH2 0xDC9 JUMPI RETURNDATASIZE PUSH0 DUP1 RETURNDATACOPY RETURNDATASIZE PUSH0 REVERT JUMPDEST POP POP POP POP PUSH1 0x40 MLOAD RETURNDATASIZE PUSH0 DUP3 RETURNDATACOPY PUSH1 0x1F RETURNDATASIZE SWAP1 DUP2 ADD PUSH1 0x1F NOT AND DUP3 ADD PUSH1 0x40 MSTORE PUSH2 0xDF0 SWAP2 SWAP1 DUP2 ADD SWAP1 PUSH2 0x2A07 JUMP JUMPDEST SWAP1 POP PUSH0 JUMPDEST DUP2 MLOAD DUP2 LT ISZERO PUSH2 0xF10 JUMPI PUSH2 0xE20 DUP3 DUP3 DUP2 MLOAD DUP2 LT PUSH2 0xE12 JUMPI PUSH2 0xE12 PUSH2 0x2AC6 JUMP JUMPDEST PUSH1 0x20 MUL PUSH1 0x20 ADD ADD MLOAD MLOAD CHAINID EQ SWAP1 JUMP JUMPDEST ISZERO PUSH2 0xEAE JUMPI PUSH0 PUSH2 0xE7E CALLER DUP9 DUP9 DUP6 DUP2 MLOAD DUP2 LT PUSH2 0xE3D JUMPI PUSH2 0xE3D PUSH2 0x2AC6 JUMP JUMPDEST PUSH1 0x20 MUL PUSH1 0x20 ADD ADD MLOAD DUP7 DUP7 DUP2 MLOAD DUP2 LT PUSH2 0xE57 JUMPI PUSH2 0xE57 PUSH2 0x2AC6 JUMP JUMPDEST PUSH1 0x20 MUL PUSH1 0x20 ADD ADD MLOAD DUP10 DUP8 DUP2 MLOAD DUP2 LT PUSH2 0xE71 JUMPI PUSH2 0xE71 PUSH2 0x2AC6 JUMP JUMPDEST PUSH1 0x20 MUL PUSH1 0x20 ADD ADD MLOAD PUSH2 0x192F JUMP JUMPDEST SWAP1 POP DUP1 ISZERO PUSH2 0xEA8 JUMPI PUSH0 DUP9 DUP2 MSTORE PUSH1 0xC PUSH1 0x20 MSTORE PUSH1 0x40 DUP2 KECCAK256 PUSH1 0x1 ADD DUP1 SLOAD SWAP2 PUSH2 0xEA2 DUP4 PUSH2 0x28DA JUMP JUMPDEST SWAP2 SWAP1 POP SSTORE POP JUMPDEST POP PUSH2 0xF08 JUMP JUMPDEST PUSH2 0xF08 DUP8 CALLER DUP9 DUP9 DUP6 DUP2 MLOAD DUP2 LT PUSH2 0xEC6 JUMPI PUSH2 0xEC6 PUSH2 0x2AC6 JUMP JUMPDEST PUSH1 0x20 MUL PUSH1 0x20 ADD ADD MLOAD DUP7 DUP7 DUP2 MLOAD DUP2 LT PUSH2 0xEE0 JUMPI PUSH2 0xEE0 PUSH2 0x2AC6 JUMP JUMPDEST PUSH1 0x20 MUL PUSH1 0x20 ADD ADD MLOAD DUP9 DUP11 DUP9 DUP2 MLOAD DUP2 LT PUSH2 0xEFB JUMPI PUSH2 0xEFB PUSH2 0x2AC6 JUMP JUMPDEST PUSH1 0x20 MUL PUSH1 0x20 ADD ADD MLOAD PUSH2 0x1B05 JUMP JUMPDEST PUSH1 0x1 ADD PUSH2 0xDF4 JUMP JUMPDEST POP PUSH2 0xF1A DUP7 PUSH2 0x1D88 JUMP JUMPDEST ISZERO PUSH2 0xFB0 JUMPI DUP2 PUSH1 0x40 ADD MLOAD PUSH1 0x1 PUSH1 0x1 PUSH1 0xA0 SHL SUB AND DUP6 CALLER PUSH1 0x1 PUSH1 0x1 PUSH1 0xA0 SHL SUB AND PUSH32 0x57906F264053DF400DECF287D5DF71541AB514D475435B80E96A2588B4C4B397 PUSH1 0x40 MLOAD PUSH1 0x40 MLOAD DUP1 SWAP2 SUB SWAP1 LOG4 PUSH1 0x40 MLOAD PUSH3 0x5D483 PUSH1 0xED SHL DUP2 MSTORE PUSH1 0x4 DUP2 ADD DUP8 SWAP1 MSTORE CALLER SWAP1 PUSH4 0xBA906000 SWAP1 PUSH1 0x24 ADD PUSH0 PUSH1 0x40 MLOAD DUP1 DUP4 SUB DUP2 PUSH0 DUP8 DUP1 EXTCODESIZE ISZERO DUP1 ISZERO PUSH2 0xF99 JUMPI PUSH0 DUP1 REVERT JUMPDEST POP GAS CALL ISZERO DUP1 ISZERO PUSH2 0xFAB JUMPI RETURNDATASIZE PUSH0 DUP1 RETURNDATACOPY RETURNDATASIZE PUSH0 REVERT JUMPDEST POP POP POP POP JUMPDEST POP POP POP POP POP POP JUMP JUMPDEST PUSH2 0xFC0 PUSH2 0x18C2 JUMP JUMPDEST PUSH1 0x8 DUP1 SLOAD PUSH1 0xFF NOT AND SWAP2 ISZERO ISZERO SWAP2 SWAP1 SWAP2 OR SWAP1 SSTORE JUMP JUMPDEST PUSH2 0xFDB PUSH2 0x18C2 JUMP JUMPDEST PUSH2 0xFE4 PUSH0 PUSH2 0x1E38 JUMP JUMPDEST JUMP JUMPDEST PUSH2 0xFEE PUSH2 0x18C2 JUMP JUMPDEST PUSH1 0x10 PUSH2 0x266 DUP3 DUP5 DUP4 PUSH2 0x2B1E JUMP JUMPDEST PUSH0 JUMPDEST SWAP3 SWAP2 POP POP JUMP JUMPDEST PUSH2 0x100B PUSH2 0x18C2 JUMP JUMPDEST PUSH1 0xE SSTORE JUMP JUMPDEST PUSH1 0x60 PUSH1 0xA DUP1 SLOAD DUP1 PUSH1 0x20 MUL PUSH1 0x20 ADD PUSH1 0x40 MLOAD SWAP1 DUP2 ADD PUSH1 0x40 MSTORE DUP1 SWAP3 SWAP2 SWAP1 DUP2 DUP2 MSTORE PUSH1 0x20 ADD DUP3 DUP1 SLOAD DUP1 ISZERO PUSH2 0x1066 JUMPI PUSH1 0x20 MUL DUP3 ADD SWAP2 SWAP1 PUSH0 MSTORE PUSH1 0x20 PUSH0 KECCAK256 SWAP1 JUMPDEST DUP2 SLOAD PUSH1 0x1 PUSH1 0x1 PUSH1 0xA0 SHL SUB AND DUP2 MSTORE PUSH1 0x1 SWAP1 SWAP2 ADD SWAP1 PUSH1 0x20 ADD DUP1 DUP4 GT PUSH2 0x1048 JUMPI JUMPDEST POP POP POP POP POP SWAP1 POP SWAP1 JUMP JUMPDEST PUSH2 0x1078 PUSH2 0x18C2 JUMP JUMPDEST PUSH1 0xD DUP1 SLOAD PUSH1 0x1 PUSH1 0x1 PUSH1 0xA0 SHL SUB NOT AND PUSH1 0x1 PUSH1 0x1 PUSH1 0xA0 SHL SUB SWAP3 SWAP1 SWAP3 AND SWAP2 SWAP1 SWAP2 OR SWAP1 SSTORE JUMP JUMPDEST PUSH1 0x4 SLOAD PUSH1 0x1 PUSH1 0x1 PUSH1 0xA0 SHL SUB AND CALLER EQ PUSH2 0x1106 JUMPI PUSH1 0x40 MLOAD PUSH3 0x461BCD PUSH1 0xE5 SHL DUP2 MSTORE PUSH1 0x20 PUSH1 0x4 DUP3 ADD MSTORE PUSH1 0x29 PUSH1 0x24 DUP3 ADD MSTORE PUSH32 0x536C696365436F72653A204F6E6C792053746172676174652061646170746572 PUSH1 0x44 DUP3 ADD MSTORE PUSH9 0x818D85B8818D85B1B PUSH1 0xBA SHL PUSH1 0x64 DUP3 ADD MSTORE PUSH1 0x84 ADD PUSH2 0x801 JUMP JUMPDEST PUSH0 DUP2 DUP1 PUSH1 0x20 ADD SWAP1 MLOAD DUP2 ADD SWAP1 PUSH2 0x111B SWAP2 SWAP1 PUSH2 0x2BD7 JUMP JUMPDEST PUSH1 0x40 DUP1 DUP3 ADD MLOAD SWAP1 MLOAD PUSH4 0x70A08231 PUSH1 0xE0 SHL DUP2 MSTORE ADDRESS PUSH1 0x4 DUP3 ADD MSTORE SWAP2 SWAP3 POP PUSH0 SWAP2 PUSH1 0x1 PUSH1 0x1 PUSH1 0xA0 SHL SUB SWAP1 SWAP2 AND SWAP1 PUSH4 0x70A08231 SWAP1 PUSH1 0x24 ADD PUSH1 0x20 PUSH1 0x40 MLOAD DUP1 DUP4 SUB DUP2 DUP7 GAS STATICCALL ISZERO DUP1 ISZERO PUSH2 0x1168 JUMPI RETURNDATASIZE PUSH0 DUP1 RETURNDATACOPY RETURNDATASIZE PUSH0 REVERT JUMPDEST POP POP POP POP PUSH1 0x40 MLOAD RETURNDATASIZE PUSH1 0x1F NOT PUSH1 0x1F DUP3 ADD AND DUP3 ADD DUP1 PUSH1 0x40 MSTORE POP DUP2 ADD SWAP1 PUSH2 0x118C SWAP2 SWAP1 PUSH2 0x28F2 JUMP JUMPDEST SWAP1 POP DUP2 PUSH1 0x60 ADD MLOAD DUP2 LT ISZERO PUSH2 0x11F3 JUMPI PUSH1 0x40 MLOAD PUSH3 0x461BCD PUSH1 0xE5 SHL DUP2 MSTORE PUSH1 0x20 PUSH1 0x4 DUP3 ADD MSTORE PUSH1 0x28 PUSH1 0x24 DUP3 ADD MSTORE PUSH32 0x536C696365436F72653A20496E636F727265637420616D6F756E74206F662074 PUSH1 0x44 DUP3 ADD MSTORE PUSH8 0x1BDAD95B881BDD5D PUSH1 0xC2 SHL PUSH1 0x64 DUP3 ADD MSTORE PUSH1 0x84 ADD PUSH2 0x801 JUMP JUMPDEST PUSH1 0x6 SLOAD DUP3 MLOAD PUSH1 0x40 MLOAD PUSH4 0x2013A8CD PUSH1 0xE2 SHL DUP2 MSTORE PUSH1 0x4 DUP2 ADD SWAP2 SWAP1 SWAP2 MSTORE PUSH0 SWAP2 PUSH1 0x1 PUSH1 0x1 PUSH1 0xA0 SHL SUB AND SWAP1 PUSH4 0x804EA334 SWAP1 PUSH1 0x24 ADD PUSH1 0xC0 PUSH1 0x40 MLOAD DUP1 DUP4 SUB DUP2 DUP7 GAS STATICCALL ISZERO DUP1 ISZERO PUSH2 0x123D JUMPI RETURNDATASIZE PUSH0 DUP1 RETURNDATACOPY RETURNDATASIZE PUSH0 REVERT JUMPDEST POP POP POP POP PUSH1 0x40 MLOAD RETURNDATASIZE PUSH1 0x1F NOT PUSH1 0x1F DUP3 ADD AND DUP3 ADD DUP1 PUSH1 0x40 MSTORE POP DUP2 ADD SWAP1 PUSH2 0x1261 SWAP2 SWAP1 PUSH2 0x2C54 JUMP JUMPDEST PUSH1 0x40 DUP1 MLOAD DUP1 DUP3 ADD DUP3 MSTORE PUSH1 0x20 DUP7 DUP2 ADD MLOAD DUP1 DUP4 MSTORE PUSH1 0x1 DUP3 DUP5 ADD SWAP1 DUP2 MSTORE DUP5 MLOAD SWAP3 DUP4 ADD SWAP2 SWAP1 SWAP2 MSTORE MLOAD ISZERO ISZERO SWAP3 DUP2 ADD SWAP3 SWAP1 SWAP3 MSTORE SWAP2 SWAP3 POP PUSH0 SWAP1 PUSH1 0x60 ADD PUSH1 0x40 MLOAD PUSH1 0x20 DUP2 DUP4 SUB SUB DUP2 MSTORE SWAP1 PUSH1 0x40 MSTORE SWAP1 POP PUSH32 0x0 PUSH1 0x1 PUSH1 0x1 PUSH1 0xA0 SHL SUB AND PUSH4 0x2637A450 PUSH1 0xF SLOAD PUSH1 0x40 MLOAD DUP1 PUSH1 0xA0 ADD PUSH1 0x40 MSTORE DUP1 DUP8 PUSH1 0x60 ADD MLOAD PUSH4 0xFFFFFFFF AND DUP2 MSTORE PUSH1 0x20 ADD PUSH2 0x1301 DUP9 PUSH1 0x60 ADD MLOAD PUSH2 0x1579 JUMP JUMPDEST DUP2 MSTORE PUSH1 0x20 ADD DUP6 DUP2 MSTORE PUSH1 0x20 ADD PUSH1 0x10 DUP1 SLOAD PUSH2 0x1319 SWAP1 PUSH2 0x27B5 JUMP JUMPDEST DUP1 PUSH1 0x1F ADD PUSH1 0x20 DUP1 SWAP2 DIV MUL PUSH1 0x20 ADD PUSH1 0x40 MLOAD SWAP1 DUP2 ADD PUSH1 0x40 MSTORE DUP1 SWAP3 SWAP2 SWAP1 DUP2 DUP2 MSTORE PUSH1 0x20 ADD DUP3 DUP1 SLOAD PUSH2 0x1345 SWAP1 PUSH2 0x27B5 JUMP JUMPDEST DUP1 ISZERO PUSH2 0x1390 JUMPI DUP1 PUSH1 0x1F LT PUSH2 0x1367 JUMPI PUSH2 0x100 DUP1 DUP4 SLOAD DIV MUL DUP4 MSTORE SWAP2 PUSH1 0x20 ADD SWAP2 PUSH2 0x1390 JUMP JUMPDEST DUP3 ADD SWAP2 SWAP1 PUSH0 MSTORE PUSH1 0x20 PUSH0 KECCAK256 SWAP1 JUMPDEST DUP2 SLOAD DUP2 MSTORE SWAP1 PUSH1 0x1 ADD SWAP1 PUSH1 0x20 ADD DUP1 DUP4 GT PUSH2 0x1373 JUMPI DUP3 SWAP1 SUB PUSH1 0x1F AND DUP3 ADD SWAP2 JUMPDEST POP POP POP POP POP DUP2 MSTORE PUSH1 0x20 ADD PUSH0 ISZERO ISZERO DUP2 MSTORE POP ADDRESS PUSH1 0x40 MLOAD DUP5 PUSH4 0xFFFFFFFF AND PUSH1 0xE0 SHL DUP2 MSTORE PUSH1 0x4 ADD PUSH2 0x13BE SWAP3 SWAP2 SWAP1 PUSH2 0x2CF0 JUMP JUMPDEST PUSH1 0x80 PUSH1 0x40 MLOAD DUP1 DUP4 SUB DUP2 DUP6 DUP9 GAS CALL ISZERO DUP1 ISZERO PUSH2 0x13DA JUMPI RETURNDATASIZE PUSH0 DUP1 RETURNDATACOPY RETURNDATASIZE PUSH0 REVERT JUMPDEST POP POP POP POP POP PUSH1 0x40 MLOAD RETURNDATASIZE PUSH1 0x1F NOT PUSH1 0x1F DUP3 ADD AND DUP3 ADD DUP1 PUSH1 0x40 MSTORE POP DUP2 ADD SWAP1 PUSH2 0x871 SWAP2 SWAP1 PUSH2 0x2D68 JUMP JUMPDEST PUSH2 0x1407 PUSH2 0x18C2 JUMP JUMPDEST PUSH1 0x1 PUSH1 0x1 PUSH1 0xA0 SHL SUB SWAP2 SWAP1 SWAP2 AND PUSH0 SWAP1 DUP2 MSTORE PUSH1 0x7 PUSH1 0x20 MSTORE PUSH1 0x40 SWAP1 KECCAK256 DUP1 SLOAD PUSH1 0xFF NOT AND SWAP2 ISZERO ISZERO SWAP2 SWAP1 SWAP2 OR SWAP1 SSTORE JUMP JUMPDEST PUSH2 0x1439 PUSH2 0x18C2 JUMP JUMPDEST PUSH1 0x40 MLOAD PUSH4 0xCA5EB5E1 PUSH1 0xE0 SHL DUP2 MSTORE PUSH1 0x1 PUSH1 0x1 PUSH1 0xA0 SHL SUB DUP3 DUP2 AND PUSH1 0x4 DUP4 ADD MSTORE PUSH32 0x0 AND SWAP1 PUSH4 0xCA5EB5E1 SWAP1 PUSH1 0x24 ADD PUSH0 PUSH1 0x40 MLOAD DUP1 DUP4 SUB DUP2 PUSH0 DUP8 DUP1 EXTCODESIZE ISZERO DUP1 ISZERO PUSH2 0x1499 JUMPI PUSH0 DUP1 REVERT JUMPDEST POP GAS CALL ISZERO DUP1 ISZERO PUSH2 0x14AB JUMPI RETURNDATASIZE PUSH0 DUP1 RETURNDATACOPY RETURNDATASIZE PUSH0 REVERT JUMPDEST POP POP POP POP POP JUMP JUMPDEST PUSH1 0xA DUP2 DUP2 SLOAD DUP2 LT PUSH2 0x14C1 JUMPI PUSH0 DUP1 REVERT JUMPDEST PUSH0 SWAP2 DUP3 MSTORE PUSH1 0x20 SWAP1 SWAP2 KECCAK256 ADD SLOAD PUSH1 0x1 PUSH1 0x1 PUSH1 0xA0 SHL SUB AND SWAP1 POP DUP2 JUMP JUMPDEST PUSH2 0x14E2 PUSH2 0x18C2 JUMP JUMPDEST PUSH1 0x1 PUSH1 0x1 PUSH1 0xA0 SHL SUB DUP2 AND PUSH2 0x150B JUMPI PUSH1 0x40 MLOAD PUSH4 0x1E4FBDF7 PUSH1 0xE0 SHL DUP2 MSTORE PUSH0 PUSH1 0x4 DUP3 ADD MSTORE PUSH1 0x24 ADD PUSH2 0x801 JUMP JUMPDEST PUSH2 0x1514 DUP2 PUSH2 0x1E38 JUMP JUMPDEST POP JUMP JUMPDEST PUSH0 PUSH1 0xA DUP3 DUP2 SLOAD DUP2 LT PUSH2 0x152B JUMPI PUSH2 0x152B PUSH2 0x2AC6 JUMP JUMPDEST PUSH0 SWAP2 DUP3 MSTORE PUSH1 0x20 SWAP1 SWAP2 KECCAK256 ADD SLOAD PUSH1 0x1 PUSH1 0x1 PUSH1 0xA0 SHL SUB AND SWAP3 SWAP2 POP POP JUMP JUMPDEST PUSH0 PUSH1 0x20 DUP3 ADD DUP1 CALLDATALOAD SWAP1 PUSH1 0x1 SWAP1 DUP4 SWAP1 PUSH2 0x155C SWAP1 DUP7 PUSH2 0x2780 JUMP JUMPDEST PUSH4 0xFFFFFFFF AND DUP2 MSTORE PUSH1 0x20 DUP2 ADD SWAP2 SWAP1 SWAP2 MSTORE PUSH1 0x40 ADD PUSH0 KECCAK256 SLOAD EQ SWAP3 SWAP2 POP POP JUMP JUMPDEST PUSH4 0xFFFFFFFF DUP2 AND PUSH0 SWAP1 DUP2 MSTORE PUSH1 0x1 PUSH1 0x20 MSTORE PUSH1 0x40 DUP2 KECCAK256 SLOAD DUP1 PUSH2 0xFFD JUMPI PUSH1 0x40 MLOAD PUSH4 0xF6FF4FB7 PUSH1 0xE0 SHL DUP2 MSTORE PUSH4 0xFFFFFFFF DUP5 AND PUSH1 0x4 DUP3 ADD MSTORE PUSH1 0x24 ADD PUSH2 0x801 JUMP JUMPDEST CALLER PUSH1 0x1 PUSH1 0x1 PUSH1 0xA0 SHL SUB PUSH32 0x0 AND EQ PUSH2 0x1640 JUMPI PUSH1 0x40 MLOAD PUSH3 0x461BCD PUSH1 0xE5 SHL DUP2 MSTORE PUSH1 0x20 PUSH1 0x4 DUP3 ADD MSTORE PUSH1 0x2B PUSH1 0x24 DUP3 ADD MSTORE PUSH32 0x536C696365436F72653A206C7A52656365697665206E6F742063616C6C656420 PUSH1 0x44 DUP3 ADD MSTORE PUSH11 0x189E48195B991C1BDA5B9D PUSH1 0xAA SHL PUSH1 0x64 DUP3 ADD MSTORE PUSH1 0x84 ADD PUSH2 0x801 JUMP JUMPDEST PUSH1 0xD SLOAD PUSH1 0x20 DUP9 ADD CALLDATALOAD PUSH1 0x1 PUSH1 0x1 PUSH1 0xA0 SHL SUB SWAP1 DUP2 AND SWAP2 AND EQ PUSH2 0x16C8 JUMPI PUSH1 0x40 MLOAD PUSH3 0x461BCD PUSH1 0xE5 SHL DUP2 MSTORE PUSH1 0x20 PUSH1 0x4 DUP3 ADD MSTORE PUSH1 0x38 PUSH1 0x24 DUP3 ADD MSTORE PUSH32 0x536C696365436F72653A206C7A53656E64206E6F7420696E6974696174656420 PUSH1 0x44 DUP3 ADD MSTORE PUSH32 0x62792063726F73732D636861696E20536C696365436F72650000000000000000 PUSH1 0x64 DUP3 ADD MSTORE PUSH1 0x84 ADD PUSH2 0x801 JUMP JUMPDEST PUSH0 PUSH2 0x16D5 DUP6 DUP8 ADD DUP8 PUSH2 0x2DDE JUMP JUMPDEST DUP1 MLOAD PUSH0 SWAP1 DUP2 MSTORE PUSH1 0xC PUSH1 0x20 SWAP1 DUP2 MSTORE PUSH1 0x40 DUP1 DUP4 KECCAK256 DUP2 MLOAD PUSH1 0x80 DUP2 ADD DUP4 MSTORE DUP2 SLOAD PUSH1 0x1 PUSH1 0x1 PUSH1 0xA0 SHL SUB SWAP1 DUP2 AND DUP1 DUP4 MSTORE PUSH1 0x1 DUP5 ADD SLOAD DUP4 DUP8 ADD MSTORE PUSH1 0x2 DUP5 ADD SLOAD DUP4 DUP7 ADD MSTORE PUSH1 0x3 SWAP1 SWAP4 ADD SLOAD AND PUSH1 0x60 DUP3 ADD MSTORE SWAP1 DUP5 MSTORE PUSH1 0x9 SWAP1 SWAP3 MSTORE SWAP1 SWAP2 KECCAK256 SLOAD SWAP2 SWAP3 POP SWAP1 PUSH1 0xFF AND PUSH2 0x177C JUMPI PUSH1 0x40 MLOAD PUSH3 0x461BCD PUSH1 0xE5 SHL DUP2 MSTORE PUSH1 0x20 PUSH1 0x4 DUP3 ADD MSTORE PUSH1 0x1A PUSH1 0x24 DUP3 ADD MSTORE PUSH32 0x536C696365436F72653A20556E6B6E6F776E206D696E74204944000000000000 PUSH1 0x44 DUP3 ADD MSTORE PUSH1 0x64 ADD PUSH2 0x801 JUMP JUMPDEST DUP2 PUSH1 0x20 ADD MLOAD PUSH2 0x17D8 JUMPI PUSH1 0x40 MLOAD PUSH3 0x461BCD PUSH1 0xE5 SHL DUP2 MSTORE PUSH1 0x20 PUSH1 0x4 DUP3 ADD MSTORE PUSH1 0x22 PUSH1 0x24 DUP3 ADD MSTORE PUSH32 0x536C696365436F72653A2043726F73732D636861696E2073776170206661696C PUSH1 0x44 DUP3 ADD MSTORE PUSH2 0x1959 PUSH1 0xF2 SHL PUSH1 0x64 DUP3 ADD MSTORE PUSH1 0x84 ADD PUSH2 0x801 JUMP JUMPDEST DUP2 MLOAD PUSH0 SWAP1 DUP2 MSTORE PUSH1 0xC PUSH1 0x20 MSTORE PUSH1 0x40 DUP2 KECCAK256 PUSH1 0x1 ADD DUP1 SLOAD SWAP2 PUSH2 0x17F6 DUP4 PUSH2 0x28DA JUMP JUMPDEST SWAP1 SWAP2 SSTORE POP POP DUP2 MLOAD PUSH2 0x1806 SWAP1 PUSH2 0x1D88 JUMP JUMPDEST ISZERO PUSH2 0x18B7 JUMPI DUP1 PUSH1 0x60 ADD MLOAD PUSH1 0x1 PUSH1 0x1 PUSH1 0xA0 SHL SUB AND DUP2 PUSH1 0x40 ADD MLOAD DUP3 PUSH0 ADD MLOAD PUSH1 0x1 PUSH1 0x1 PUSH1 0xA0 SHL SUB AND PUSH32 0x57906F264053DF400DECF287D5DF71541AB514D475435B80E96A2588B4C4B397 PUSH1 0x40 MLOAD PUSH1 0x40 MLOAD DUP1 SWAP2 SUB SWAP1 LOG4 DUP1 MLOAD DUP3 MLOAD PUSH1 0x40 MLOAD PUSH3 0x5D483 PUSH1 0xED SHL DUP2 MSTORE PUSH1 0x1 PUSH1 0x1 PUSH1 0xA0 SHL SUB SWAP1 SWAP3 AND SWAP2 PUSH4 0xBA906000 SWAP2 PUSH2 0x1889 SWAP2 PUSH1 0x4 ADD SWAP1 DUP2 MSTORE PUSH1 0x20 ADD SWAP1 JUMP JUMPDEST PUSH0 PUSH1 0x40 MLOAD DUP1 DUP4 SUB DUP2 PUSH0 DUP8 DUP1 EXTCODESIZE ISZERO DUP1 ISZERO PUSH2 0x18A0 JUMPI PUSH0 DUP1 REVERT JUMPDEST POP GAS CALL ISZERO DUP1 ISZERO PUSH2 0x18B2 JUMPI RETURNDATASIZE PUSH0 DUP1 RETURNDATACOPY RETURNDATASIZE PUSH0 REVERT JUMPDEST POP POP POP POP JUMPDEST POP POP POP POP POP POP POP POP POP JUMP JUMPDEST PUSH0 SLOAD PUSH1 0x1 PUSH1 0x1 PUSH1 0xA0 SHL SUB AND CALLER EQ PUSH2 0xFE4 JUMPI PUSH1 0x40 MLOAD PUSH4 0x118CDAA7 PUSH1 0xE0 SHL DUP2 MSTORE CALLER PUSH1 0x4 DUP3 ADD MSTORE PUSH1 0x24 ADD PUSH2 0x801 JUMP JUMPDEST PUSH0 DUP1 JUMPDEST DUP3 MLOAD DUP2 LT ISZERO PUSH2 0x1929 JUMPI DUP3 DUP2 DUP2 MLOAD DUP2 LT PUSH2 0x190C JUMPI PUSH2 0x190C PUSH2 0x2AC6 JUMP JUMPDEST PUSH1 0x20 MUL PUSH1 0x20 ADD ADD MLOAD DUP3 PUSH2 0x191F SWAP2 SWAP1 PUSH2 0x2E14 JUMP JUMPDEST SWAP2 POP PUSH1 0x1 ADD PUSH2 0x18F1 JUMP JUMPDEST POP SWAP2 SWAP1 POP JUMP JUMPDEST PUSH1 0x2 SLOAD PUSH1 0x3 SLOAD PUSH1 0x40 MLOAD PUSH4 0x95EA7B3 PUSH1 0xE0 SHL DUP2 MSTORE PUSH1 0x1 PUSH1 0x1 PUSH1 0xA0 SHL SUB SWAP2 DUP3 AND PUSH1 0x4 DUP3 ADD MSTORE PUSH1 0x24 DUP2 ADD DUP7 SWAP1 MSTORE PUSH0 SWAP3 SWAP2 SWAP1 SWAP2 AND SWAP1 PUSH4 0x95EA7B3 SWAP1 PUSH1 0x44 ADD PUSH1 0x20 PUSH1 0x40 MLOAD DUP1 DUP4 SUB DUP2 PUSH0 DUP8 GAS CALL ISZERO DUP1 ISZERO PUSH2 0x1985 JUMPI RETURNDATASIZE PUSH0 DUP1 RETURNDATACOPY RETURNDATASIZE PUSH0 REVERT JUMPDEST POP POP POP POP PUSH1 0x40 MLOAD RETURNDATASIZE PUSH1 0x1F NOT PUSH1 0x1F DUP3 ADD AND DUP3 ADD DUP1 PUSH1 0x40 MSTORE POP DUP2 ADD SWAP1 PUSH2 0x19A9 SWAP2 SWAP1 PUSH2 0x2E27 JUMP JUMPDEST POP PUSH1 0x40 DUP4 ADD MLOAD DUP5 SWAP1 PUSH0 SWAP1 PUSH2 0x19BE SWAP1 DUP9 SWAP1 PUSH2 0x2E42 JUMP JUMPDEST PUSH1 0x40 DUP1 MLOAD PUSH1 0xC0 DUP2 ADD DUP3 MSTORE PUSH1 0x2 SLOAD PUSH1 0x1 PUSH1 0x1 PUSH1 0xA0 SHL SUB SWAP1 DUP2 AND DUP3 MSTORE PUSH1 0x20 DUP1 DUP4 ADD DUP8 SWAP1 MSTORE DUP10 DUP2 ADD MLOAD DUP3 AND DUP4 DUP6 ADD MSTORE PUSH1 0x60 DUP4 ADD DUP6 SWAP1 MSTORE SWAP1 DUP13 AND PUSH1 0x80 DUP4 ADD MSTORE PUSH1 0xA0 DUP3 ADD DUP9 SWAP1 MSTORE SWAP2 MLOAD SWAP3 SWAP4 POP SWAP2 PUSH0 SWAP2 PUSH2 0x1A14 SWAP2 DUP5 SWAP2 ADD PUSH2 0x2E59 JUMP JUMPDEST PUSH1 0x40 DUP1 MLOAD PUSH1 0x1F NOT DUP2 DUP5 SUB ADD DUP2 MSTORE SWAP1 DUP3 SWAP1 MSTORE PUSH1 0x3 SLOAD PUSH4 0x313EEAB5 PUSH1 0xE1 SHL DUP4 MSTORE SWAP1 SWAP3 POP PUSH1 0x1 PUSH1 0x1 PUSH1 0xA0 SHL SUB AND SWAP1 PUSH4 0x627DD56A SWAP1 PUSH2 0x1A53 SWAP1 DUP5 SWAP1 PUSH1 0x4 ADD PUSH2 0x2203 JUMP JUMPDEST PUSH0 PUSH1 0x40 MLOAD DUP1 DUP4 SUB DUP2 PUSH0 DUP8 DUP1 EXTCODESIZE ISZERO DUP1 ISZERO PUSH2 0x1A6A JUMPI PUSH0 DUP1 REVERT JUMPDEST POP GAS CALL ISZERO DUP1 ISZERO PUSH2 0x1A7C JUMPI RETURNDATASIZE PUSH0 DUP1 RETURNDATACOPY RETURNDATASIZE PUSH0 REVERT JUMPDEST POP POP POP POP PUSH1 0x20 DUP8 ADD MLOAD PUSH1 0x40 MLOAD PUSH4 0x70A08231 PUSH1 0xE0 SHL DUP2 MSTORE PUSH1 0x1 PUSH1 0x1 PUSH1 0xA0 SHL SUB DUP13 DUP2 AND PUSH1 0x4 DUP4 ADD MSTORE PUSH0 SWAP3 AND SWAP1 PUSH4 0x70A08231 SWAP1 PUSH1 0x24 ADD PUSH1 0x20 PUSH1 0x40 MLOAD DUP1 DUP4 SUB DUP2 DUP7 GAS STATICCALL ISZERO DUP1 ISZERO PUSH2 0x1ACA JUMPI RETURNDATASIZE PUSH0 DUP1 RETURNDATACOPY RETURNDATASIZE PUSH0 REVERT JUMPDEST POP POP POP POP PUSH1 0x40 MLOAD RETURNDATASIZE PUSH1 0x1F NOT PUSH1 0x1F DUP3 ADD AND DUP3 ADD DUP1 PUSH1 0x40 MSTORE POP DUP2 ADD SWAP1 PUSH2 0x1AEE SWAP2 SWAP1 PUSH2 0x28F2 JUMP JUMPDEST PUSH1 0x40 DUP10 ADD MLOAD GT ISZERO SWAP6 POP POP POP POP POP POP SWAP6 SWAP5 POP POP POP POP POP JUMP JUMPDEST PUSH1 0x2 SLOAD PUSH1 0x3 SLOAD PUSH1 0x40 MLOAD PUSH4 0x95EA7B3 PUSH1 0xE0 SHL DUP2 MSTORE PUSH1 0x1 PUSH1 0x1 PUSH1 0xA0 SHL SUB SWAP2 DUP3 AND PUSH1 0x4 DUP3 ADD MSTORE PUSH1 0x24 DUP2 ADD DUP8 SWAP1 MSTORE SWAP2 AND SWAP1 PUSH4 0x95EA7B3 SWAP1 PUSH1 0x44 ADD PUSH1 0x20 PUSH1 0x40 MLOAD DUP1 DUP4 SUB DUP2 PUSH0 DUP8 GAS CALL ISZERO DUP1 ISZERO PUSH2 0x1B57 JUMPI RETURNDATASIZE PUSH0 DUP1 RETURNDATACOPY RETURNDATASIZE PUSH0 REVERT JUMPDEST POP POP POP POP PUSH1 0x40 MLOAD RETURNDATASIZE PUSH1 0x1F NOT PUSH1 0x1F DUP3 ADD AND DUP3 ADD DUP1 PUSH1 0x40 MSTORE POP DUP2 ADD SWAP1 PUSH2 0x1B7B SWAP2 SWAP1 PUSH2 0x2E27 JUMP JUMPDEST POP PUSH0 DUP6 DUP5 PUSH1 0x40 ADD MLOAD PUSH2 0x1B8D SWAP2 SWAP1 PUSH2 0x2E42 JUMP JUMPDEST PUSH1 0x6 SLOAD DUP6 MLOAD PUSH1 0x40 MLOAD PUSH4 0x2013A8CD PUSH1 0xE2 SHL DUP2 MSTORE SWAP3 SWAP4 POP PUSH0 SWAP3 PUSH1 0x1 PUSH1 0x1 PUSH1 0xA0 SHL SUB SWAP1 SWAP3 AND SWAP2 PUSH4 0x804EA334 SWAP2 PUSH2 0x1BC6 SWAP2 PUSH1 0x4 ADD SWAP1 DUP2 MSTORE PUSH1 0x20 ADD SWAP1 JUMP JUMPDEST PUSH1 0xC0 PUSH1 0x40 MLOAD DUP1 DUP4 SUB DUP2 DUP7 GAS STATICCALL ISZERO DUP1 ISZERO PUSH2 0x1BE1 JUMPI RETURNDATASIZE PUSH0 DUP1 RETURNDATACOPY RETURNDATASIZE PUSH0 REVERT JUMPDEST POP POP POP POP PUSH1 0x40 MLOAD RETURNDATASIZE PUSH1 0x1F NOT PUSH1 0x1F DUP3 ADD AND DUP3 ADD DUP1 PUSH1 0x40 MSTORE POP DUP2 ADD SWAP1 PUSH2 0x1C05 SWAP2 SWAP1 PUSH2 0x2C54 JUMP JUMPDEST SWAP1 POP PUSH0 PUSH2 0x1C18 DUP3 DUP8 PUSH1 0x20 ADD MLOAD DUP6 DUP8 PUSH2 0x1E87 JUMP JUMPDEST SWAP1 POP PUSH0 PUSH2 0x1C2F DUP12 DUP9 PUSH1 0x20 ADD MLOAD DUP7 DUP10 PUSH1 0x80 ADD MLOAD PUSH2 0x1EF4 JUMP JUMPDEST SWAP1 POP PUSH0 PUSH2 0x1C42 DUP5 PUSH1 0x40 ADD MLOAD DUP13 DUP6 DUP6 PUSH2 0x1F8C JUMP JUMPDEST PUSH1 0x3 SLOAD PUSH1 0x40 DUP1 MLOAD PUSH1 0xC0 DUP2 ADD DUP3 MSTORE PUSH0 DUP2 MSTORE PUSH1 0x4 SLOAD PUSH1 0x1 PUSH1 0x1 PUSH1 0xA0 SHL SUB SWAP1 DUP2 AND PUSH1 0x20 DUP4 ADD MSTORE PUSH1 0x2 SLOAD DUP2 AND SWAP3 DUP3 ADD SWAP3 SWAP1 SWAP3 MSTORE PUSH1 0x60 DUP2 ADD DUP14 SWAP1 MSTORE PUSH1 0xD SLOAD DUP3 AND PUSH1 0x80 DUP3 ADD MSTORE SWAP3 SWAP4 POP AND SWAP1 PUSH4 0xBCC53325 SWAP1 DUP4 SWAP1 PUSH1 0xA0 DUP2 ADD PUSH2 0x1D23 DUP10 DUP16 PUSH3 0x86470 PUSH1 0x40 DUP4 DUP2 ADD MLOAD PUSH1 0x2 SLOAD PUSH1 0x80 DUP1 DUP8 ADD MLOAD PUSH1 0xD SLOAD DUP6 MLOAD PUSH2 0xFFFF SWAP1 SWAP6 AND PUSH1 0x20 DUP7 ADD MSTORE PUSH1 0x1 PUSH1 0x1 PUSH1 0xA0 SHL SUB SWAP4 DUP5 AND SWAP6 DUP6 ADD SWAP6 SWAP1 SWAP6 MSTORE PUSH1 0x1 PUSH1 0x60 DUP1 DUP7 ADD DUP3 SWAP1 MSTORE SWAP3 DUP6 ADD MSTORE PUSH1 0xA0 DUP5 ADD DUP8 SWAP1 MSTORE PUSH0 PUSH1 0xC0 DUP6 ADD DUP2 SWAP1 MSTORE PUSH1 0xE0 DUP6 ADD MSTORE DUP3 AND PUSH2 0x100 DUP5 ADD MSTORE SWAP3 AND PUSH2 0x120 DUP3 ADD MSTORE PUSH2 0x140 DUP2 ADD DUP4 SWAP1 MSTORE PUSH2 0x160 ADD PUSH1 0x40 MLOAD PUSH1 0x20 DUP2 DUP4 SUB SUB DUP2 MSTORE SWAP1 PUSH1 0x40 MSTORE SWAP1 POP SWAP4 SWAP3 POP POP POP JUMP JUMPDEST DUP2 MSTORE POP DUP11 PUSH1 0x40 ADD MLOAD DUP8 DUP8 PUSH1 0x40 MLOAD DUP7 PUSH4 0xFFFFFFFF AND PUSH1 0xE0 SHL DUP2 MSTORE PUSH1 0x4 ADD PUSH2 0x1D4C SWAP5 SWAP4 SWAP3 SWAP2 SWAP1 PUSH2 0x2EB3 JUMP JUMPDEST PUSH0 PUSH1 0x40 MLOAD DUP1 DUP4 SUB DUP2 DUP6 DUP9 DUP1 EXTCODESIZE ISZERO DUP1 ISZERO PUSH2 0x1D63 JUMPI PUSH0 DUP1 REVERT JUMPDEST POP GAS CALL ISZERO DUP1 ISZERO PUSH2 0x1D75 JUMPI RETURNDATASIZE PUSH0 DUP1 RETURNDATACOPY RETURNDATASIZE PUSH0 REVERT JUMPDEST POP POP POP POP POP POP POP POP POP POP POP POP POP POP POP POP POP JUMP JUMPDEST PUSH0 DUP2 DUP2 MSTORE PUSH1 0xC PUSH1 0x20 SWAP1 DUP2 MSTORE PUSH1 0x40 DUP1 DUP4 KECCAK256 DUP2 MLOAD PUSH1 0x80 DUP2 ADD DUP4 MSTORE DUP2 SLOAD PUSH1 0x1 PUSH1 0x1 PUSH1 0xA0 SHL SUB SWAP1 DUP2 AND DUP1 DUP4 MSTORE PUSH1 0x1 DUP5 ADD SLOAD DUP4 DUP8 ADD MSTORE PUSH1 0x2 DUP5 ADD SLOAD DUP4 DUP7 ADD MSTORE PUSH1 0x3 SWAP1 SWAP4 ADD SLOAD AND PUSH1 0x60 DUP3 ADD MSTORE DUP3 MLOAD PUSH4 0xE02B79F9 PUSH1 0xE0 SHL DUP2 MSTORE SWAP3 MLOAD SWAP1 SWAP4 DUP6 SWAP4 PUSH4 0xE02B79F9 SWAP3 PUSH1 0x4 DUP1 DUP4 ADD SWAP4 SWAP3 DUP3 SWAP1 SUB ADD DUP2 DUP7 GAS STATICCALL ISZERO DUP1 ISZERO PUSH2 0x1E04 JUMPI RETURNDATASIZE PUSH0 DUP1 RETURNDATACOPY RETURNDATASIZE PUSH0 REVERT JUMPDEST POP POP POP POP PUSH1 0x40 MLOAD RETURNDATASIZE PUSH1 0x1F NOT PUSH1 0x1F DUP3 ADD AND DUP3 ADD DUP1 PUSH1 0x40 MSTORE POP DUP2 ADD SWAP1 PUSH2 0x1E28 SWAP2 SWAP1 PUSH2 0x28F2 JUMP JUMPDEST PUSH1 0x20 SWAP1 SWAP3 ADD MLOAD SWAP1 SWAP2 EQ SWAP4 SWAP3 POP POP POP JUMP JUMPDEST PUSH0 DUP1 SLOAD PUSH1 0x1 PUSH1 0x1 PUSH1 0xA0 SHL SUB DUP4 DUP2 AND PUSH1 0x1 PUSH1 0x1 PUSH1 0xA0 SHL SUB NOT DUP4 AND DUP2 OR DUP5 SSTORE PUSH1 0x40 MLOAD SWAP2 SWAP1 SWAP3 AND SWAP3 DUP4 SWAP2 PUSH32 0x8BE0079C531659141344CD1FD0A4F28419497F9722A3DAAFE3B4186F6B6457E0 SWAP2 SWAP1 LOG3 POP POP JUMP JUMPDEST PUSH1 0x40 DUP1 MLOAD PUSH1 0xC0 DUP2 ADD DUP3 MSTORE PUSH1 0xA0 DUP1 DUP8 ADD MLOAD PUSH1 0x1 PUSH1 0x1 PUSH1 0xA0 SHL SUB SWAP1 DUP2 AND DUP4 MSTORE PUSH0 PUSH1 0x20 DUP1 DUP6 ADD SWAP2 SWAP1 SWAP2 MSTORE DUP8 DUP3 AND DUP5 DUP7 ADD MSTORE PUSH1 0x60 DUP5 DUP2 ADD DUP9 SWAP1 MSTORE PUSH1 0xD SLOAD SWAP1 SWAP3 AND PUSH1 0x80 DUP6 ADD MSTORE SWAP2 DUP4 ADD DUP6 SWAP1 MSTORE SWAP3 MLOAD PUSH2 0x1EDB SWAP3 SWAP2 ADD PUSH2 0x2E59 JUMP JUMPDEST PUSH1 0x40 MLOAD PUSH1 0x20 DUP2 DUP4 SUB SUB DUP2 MSTORE SWAP1 PUSH1 0x40 MSTORE SWAP1 POP SWAP5 SWAP4 POP POP POP POP JUMP JUMPDEST PUSH1 0x60 PUSH1 0x40 MLOAD DUP1 PUSH1 0x60 ADD PUSH1 0x40 MSTORE DUP1 PUSH1 0xD PUSH0 SWAP1 SLOAD SWAP1 PUSH2 0x100 EXP SWAP1 DIV PUSH1 0x1 PUSH1 0x1 PUSH1 0xA0 SHL SUB AND PUSH1 0x1 PUSH1 0x1 PUSH1 0xA0 SHL SUB AND DUP2 MSTORE PUSH1 0x20 ADD PUSH1 0xE SLOAD DUP2 MSTORE PUSH1 0x20 ADD PUSH1 0x40 MLOAD DUP1 PUSH1 0xA0 ADD PUSH1 0x40 MSTORE DUP1 CHAINID DUP2 MSTORE PUSH1 0x20 ADD DUP9 DUP2 MSTORE PUSH1 0x20 ADD DUP8 PUSH1 0x1 PUSH1 0x1 PUSH1 0xA0 SHL SUB AND DUP2 MSTORE PUSH1 0x20 ADD DUP7 DUP2 MSTORE PUSH1 0x20 ADD DUP6 DUP2 MSTORE POP PUSH1 0x40 MLOAD PUSH1 0x20 ADD PUSH2 0x1F6C SWAP2 SWAP1 PUSH2 0x2F5C JUMP JUMPDEST PUSH1 0x40 DUP1 MLOAD PUSH1 0x1F NOT DUP2 DUP5 SUB ADD DUP2 MSTORE SWAP2 DUP2 MSTORE SWAP2 MSTORE MLOAD PUSH2 0x1EDB SWAP2 SWAP1 PUSH1 0x20 ADD PUSH2 0x2FA6 JUMP JUMPDEST PUSH1 0x4 SLOAD PUSH1 0x40 MLOAD PUSH0 SWAP2 DUP3 SWAP2 PUSH1 0x1 PUSH1 0x1 PUSH1 0xA0 SHL SUB SWAP1 SWAP2 AND SWAP1 PUSH4 0x6CE4FE03 SWAP1 DUP9 SWAP1 PUSH1 0x1 SWAP1 DUP5 SWAP1 PUSH3 0x86470 SWAP1 DUP8 SWAP1 PUSH2 0x1FC8 SWAP1 DUP14 SWAP1 DUP14 SWAP1 DUP14 SWAP1 PUSH1 0x20 ADD PUSH2 0x2FDC JUMP JUMPDEST PUSH1 0x40 MLOAD PUSH1 0x20 DUP2 DUP4 SUB SUB DUP2 MSTORE SWAP1 PUSH1 0x40 MSTORE PUSH1 0x40 MLOAD DUP8 PUSH4 0xFFFFFFFF AND PUSH1 0xE0 SHL DUP2 MSTORE PUSH1 0x4 ADD PUSH2 0x1FF8 SWAP7 SWAP6 SWAP5 SWAP4 SWAP3 SWAP2 SWAP1 PUSH2 0x301B JUMP JUMPDEST PUSH1 0x40 DUP1 MLOAD DUP1 DUP4 SUB DUP2 DUP7 GAS STATICCALL ISZERO DUP1 ISZERO PUSH2 0x2012 JUMPI RETURNDATASIZE PUSH0 DUP1 RETURNDATACOPY RETURNDATASIZE PUSH0 REVERT JUMPDEST POP POP POP POP PUSH1 0x40 MLOAD RETURNDATASIZE PUSH1 0x1F NOT PUSH1 0x1F DUP3 ADD AND DUP3 ADD DUP1 PUSH1 0x40 MSTORE POP DUP2 ADD SWAP1 PUSH2 0x2036 SWAP2 SWAP1 PUSH2 0x3066 JUMP JUMPDEST POP SWAP7 SWAP6 POP POP POP POP POP POP JUMP JUMPDEST PUSH2 0x1F37 DUP1 PUSH2 0x3089 DUP4 CODECOPY ADD SWAP1 JUMP JUMPDEST PUSH0 DUP1 DUP4 PUSH1 0x1F DUP5 ADD SLT PUSH2 0x205E JUMPI PUSH0 DUP1 REVERT JUMPDEST POP DUP2 CALLDATALOAD PUSH1 0x1 PUSH1 0x1 PUSH1 0x40 SHL SUB DUP2 GT ISZERO PUSH2 0x2074 JUMPI PUSH0 DUP1 REVERT JUMPDEST PUSH1 0x20 DUP4 ADD SWAP2 POP DUP4 PUSH1 0x20 PUSH1 0x60 DUP4 MUL DUP6 ADD ADD GT ISZERO PUSH2 0x208E JUMPI PUSH0 DUP1 REVERT JUMPDEST SWAP3 POP SWAP3 SWAP1 POP JUMP JUMPDEST PUSH0 DUP1 PUSH0 PUSH1 0x40 DUP5 DUP7 SUB SLT ISZERO PUSH2 0x20A7 JUMPI PUSH0 DUP1 REVERT JUMPDEST DUP4 CALLDATALOAD SWAP3 POP PUSH1 0x20 DUP5 ADD CALLDATALOAD PUSH1 0x1 PUSH1 0x1 PUSH1 0x40 SHL SUB DUP2 GT ISZERO PUSH2 0x20C3 JUMPI PUSH0 DUP1 REVERT JUMPDEST PUSH2 0x20CF DUP7 DUP3 DUP8 ADD PUSH2 0x204E JUMP JUMPDEST SWAP5 SWAP8 SWAP1 SWAP7 POP SWAP4 SWAP5 POP POP POP POP JUMP JUMPDEST PUSH0 PUSH1 0x60 DUP3 DUP5 SUB SLT ISZERO PUSH2 0x1929 JUMPI PUSH0 DUP1 REVERT JUMPDEST PUSH0 DUP1 DUP4 PUSH1 0x1F DUP5 ADD SLT PUSH2 0x20FC JUMPI PUSH0 DUP1 REVERT JUMPDEST POP DUP2 CALLDATALOAD PUSH1 0x1 PUSH1 0x1 PUSH1 0x40 SHL SUB DUP2 GT ISZERO PUSH2 0x2112 JUMPI PUSH0 DUP1 REVERT JUMPDEST PUSH1 0x20 DUP4 ADD SWAP2 POP DUP4 PUSH1 0x20 DUP3 DUP6 ADD ADD GT ISZERO PUSH2 0x208E JUMPI PUSH0 DUP1 REVERT JUMPDEST PUSH1 0x1 PUSH1 0x1 PUSH1 0xA0 SHL SUB DUP2 AND DUP2 EQ PUSH2 0x1514 JUMPI PUSH0 DUP1 REVERT JUMPDEST PUSH0 DUP1 PUSH0 DUP1 PUSH0 DUP1 PUSH0 PUSH1 0xE0 DUP9 DUP11 SUB SLT ISZERO PUSH2 0x2153 JUMPI PUSH0 DUP1 REVERT JUMPDEST PUSH2 0x215D DUP10 DUP10 PUSH2 0x20DC JUMP JUMPDEST SWAP7 POP PUSH1 0x60 DUP9 ADD CALLDATALOAD SWAP6 POP PUSH1 0x80 DUP9 ADD CALLDATALOAD PUSH1 0x1 PUSH1 0x1 PUSH1 0x40 SHL SUB DUP1 DUP3 GT ISZERO PUSH2 0x217F JUMPI PUSH0 DUP1 REVERT JUMPDEST PUSH2 0x218B DUP12 DUP4 DUP13 ADD PUSH2 0x20EC JUMP JUMPDEST SWAP1 SWAP8 POP SWAP6 POP PUSH1 0xA0 DUP11 ADD CALLDATALOAD SWAP2 POP PUSH2 0x21A0 DUP3 PUSH2 0x2129 JUMP JUMPDEST SWAP1 SWAP4 POP PUSH1 0xC0 DUP10 ADD CALLDATALOAD SWAP1 DUP1 DUP3 GT ISZERO PUSH2 0x21B5 JUMPI PUSH0 DUP1 REVERT JUMPDEST POP PUSH2 0x21C2 DUP11 DUP3 DUP12 ADD PUSH2 0x20EC JUMP JUMPDEST SWAP9 SWAP12 SWAP8 SWAP11 POP SWAP6 SWAP9 POP SWAP4 SWAP7 SWAP3 SWAP6 SWAP3 SWAP4 POP POP POP JUMP JUMPDEST PUSH0 DUP2 MLOAD DUP1 DUP5 MSTORE DUP1 PUSH1 0x20 DUP5 ADD PUSH1 0x20 DUP7 ADD MCOPY PUSH0 PUSH1 0x20 DUP3 DUP7 ADD ADD MSTORE PUSH1 0x20 PUSH1 0x1F NOT PUSH1 0x1F DUP4 ADD AND DUP6 ADD ADD SWAP2 POP POP SWAP3 SWAP2 POP POP JUMP JUMPDEST PUSH1 0x20 DUP2 MSTORE PUSH0 PUSH2 0x2215 PUSH1 0x20 DUP4 ADD DUP5 PUSH2 0x21D5 JUMP JUMPDEST SWAP4 SWAP3 POP POP POP JUMP JUMPDEST PUSH0 DUP1 PUSH0 DUP1 PUSH0 DUP1 PUSH1 0x60 DUP8 DUP10 SUB SLT ISZERO PUSH2 0x2231 JUMPI PUSH0 DUP1 REVERT JUMPDEST DUP7 CALLDATALOAD PUSH1 0x1 PUSH1 0x1 PUSH1 0x40 SHL SUB DUP1 DUP3 GT ISZERO PUSH2 0x2247 JUMPI PUSH0 DUP1 REVERT JUMPDEST PUSH2 0x2253 DUP11 DUP4 DUP12 ADD PUSH2 0x20EC JUMP JUMPDEST SWAP1 SWAP9 POP SWAP7 POP PUSH1 0x20 DUP10 ADD CALLDATALOAD SWAP2 POP DUP1 DUP3 GT ISZERO PUSH2 0x226B JUMPI PUSH0 DUP1 REVERT JUMPDEST PUSH2 0x2277 DUP11 DUP4 DUP12 ADD PUSH2 0x20EC JUMP JUMPDEST SWAP1 SWAP7 POP SWAP5 POP PUSH1 0x40 DUP10 ADD CALLDATALOAD SWAP2 POP DUP1 DUP3 GT ISZERO PUSH2 0x228F JUMPI PUSH0 DUP1 REVERT JUMPDEST POP PUSH2 0x229C DUP10 DUP3 DUP11 ADD PUSH2 0x204E JUMP JUMPDEST SWAP8 SWAP11 SWAP7 SWAP10 POP SWAP5 SWAP8 POP SWAP3 SWAP6 SWAP4 SWAP5 SWAP3 POP POP POP JUMP JUMPDEST PUSH4 0xFFFFFFFF DUP2 AND DUP2 EQ PUSH2 0x1514 JUMPI PUSH0 DUP1 REVERT JUMPDEST PUSH0 DUP1 PUSH1 0x40 DUP4 DUP6 SUB SLT ISZERO PUSH2 0x22D0 JUMPI PUSH0 DUP1 REVERT JUMPDEST DUP3 CALLDATALOAD PUSH2 0x22DB DUP2 PUSH2 0x22AE JUMP JUMPDEST SWAP5 PUSH1 0x20 SWAP4 SWAP1 SWAP4 ADD CALLDATALOAD SWAP4 POP POP POP JUMP JUMPDEST PUSH4 0x4E487B71 PUSH1 0xE0 SHL PUSH0 MSTORE PUSH1 0x41 PUSH1 0x4 MSTORE PUSH1 0x24 PUSH0 REVERT JUMPDEST PUSH1 0x40 MLOAD PUSH1 0xA0 DUP2 ADD PUSH1 0x1 PUSH1 0x1 PUSH1 0x40 SHL SUB DUP2 GT DUP3 DUP3 LT OR ISZERO PUSH2 0x231F JUMPI PUSH2 0x231F PUSH2 0x22E9 JUMP JUMPDEST PUSH1 0x40 MSTORE SWAP1 JUMP JUMPDEST PUSH1 0x40 MLOAD PUSH1 0x60 DUP2 ADD PUSH1 0x1 PUSH1 0x1 PUSH1 0x40 SHL SUB DUP2 GT DUP3 DUP3 LT OR ISZERO PUSH2 0x231F JUMPI PUSH2 0x231F PUSH2 0x22E9 JUMP JUMPDEST PUSH1 0x40 DUP1 MLOAD SWAP1 DUP2 ADD PUSH1 0x1 PUSH1 0x1 PUSH1 0x40 SHL SUB DUP2 GT DUP3 DUP3 LT OR ISZERO PUSH2 0x231F JUMPI PUSH2 0x231F PUSH2 0x22E9 JUMP JUMPDEST PUSH1 0x40 MLOAD PUSH1 0x1F DUP3 ADD PUSH1 0x1F NOT AND DUP2 ADD PUSH1 0x1 PUSH1 0x1 PUSH1 0x40 SHL SUB DUP2 GT DUP3 DUP3 LT OR ISZERO PUSH2 0x2391 JUMPI PUSH2 0x2391 PUSH2 0x22E9 JUMP JUMPDEST PUSH1 0x40 MSTORE SWAP2 SWAP1 POP JUMP JUMPDEST PUSH0 PUSH1 0x1 PUSH1 0x1 PUSH1 0x40 SHL SUB DUP3 GT ISZERO PUSH2 0x23B1 JUMPI PUSH2 0x23B1 PUSH2 0x22E9 JUMP JUMPDEST POP PUSH1 0x5 SHL PUSH1 0x20 ADD SWAP1 JUMP JUMPDEST PUSH0 PUSH1 0x1 PUSH1 0x1 PUSH1 0x40 SHL SUB DUP3 GT ISZERO PUSH2 0x23D3 JUMPI PUSH2 0x23D3 PUSH2 0x22E9 JUMP JUMPDEST POP PUSH1 0x1F ADD PUSH1 0x1F NOT AND PUSH1 0x20 ADD SWAP1 JUMP JUMPDEST PUSH0 DUP3 PUSH1 0x1F DUP4 ADD SLT PUSH2 0x23F0 JUMPI PUSH0 DUP1 REVERT JUMPDEST DUP2 CALLDATALOAD PUSH2 0x2403 PUSH2 0x23FE DUP3 PUSH2 0x23BB JUMP JUMPDEST PUSH2 0x2369 JUMP JUMPDEST DUP2 DUP2 MSTORE DUP5 PUSH1 0x20 DUP4 DUP7 ADD ADD GT ISZERO PUSH2 0x2417 JUMPI PUSH0 DUP1 REVERT JUMPDEST DUP2 PUSH1 0x20 DUP6 ADD PUSH1 0x20 DUP4 ADD CALLDATACOPY PUSH0 SWAP2 DUP2 ADD PUSH1 0x20 ADD SWAP2 SWAP1 SWAP2 MSTORE SWAP4 SWAP3 POP POP POP JUMP JUMPDEST PUSH0 DUP3 PUSH1 0x1F DUP4 ADD SLT PUSH2 0x2442 JUMPI PUSH0 DUP1 REVERT JUMPDEST DUP2 CALLDATALOAD PUSH1 0x20 PUSH2 0x2452 PUSH2 0x23FE DUP4 PUSH2 0x2399 JUMP JUMPDEST DUP3 DUP2 MSTORE PUSH1 0x5 SWAP3 SWAP1 SWAP3 SHL DUP5 ADD DUP2 ADD SWAP2 DUP2 DUP2 ADD SWAP1 DUP7 DUP5 GT ISZERO PUSH2 0x2470 JUMPI PUSH0 DUP1 REVERT JUMPDEST DUP3 DUP7 ADD JUMPDEST DUP5 DUP2 LT ISZERO PUSH2 0x2036 JUMPI DUP1 CALLDATALOAD PUSH1 0x1 PUSH1 0x1 PUSH1 0x40 SHL SUB DUP2 GT ISZERO PUSH2 0x2491 JUMPI PUSH0 DUP1 REVERT JUMPDEST PUSH2 0x249F DUP10 DUP7 DUP4 DUP12 ADD ADD PUSH2 0x23E1 JUMP JUMPDEST DUP5 MSTORE POP SWAP2 DUP4 ADD SWAP2 DUP4 ADD PUSH2 0x2474 JUMP JUMPDEST PUSH0 DUP1 PUSH0 DUP1 PUSH1 0x80 DUP6 DUP8 SUB SLT ISZERO PUSH2 0x24C0 JUMPI PUSH0 DUP1 REVERT JUMPDEST DUP5 CALLDATALOAD SWAP4 POP PUSH1 0x20 DUP1 DUP7 ADD CALLDATALOAD SWAP4 POP PUSH1 0x40 DUP7 ADD CALLDATALOAD PUSH1 0x1 PUSH1 0x1 PUSH1 0x40 SHL SUB DUP1 DUP3 GT ISZERO PUSH2 0x24E5 JUMPI PUSH0 DUP1 REVERT JUMPDEST DUP2 DUP9 ADD SWAP2 POP DUP9 PUSH1 0x1F DUP4 ADD SLT PUSH2 0x24F8 JUMPI PUSH0 DUP1 REVERT JUMPDEST DUP2 CALLDATALOAD PUSH2 0x2506 PUSH2 0x23FE DUP3 PUSH2 0x2399 JUMP JUMPDEST DUP2 DUP2 MSTORE PUSH1 0x5 SWAP2 SWAP1 SWAP2 SHL DUP4 ADD DUP5 ADD SWAP1 DUP5 DUP2 ADD SWAP1 DUP12 DUP4 GT ISZERO PUSH2 0x2524 JUMPI PUSH0 DUP1 REVERT JUMPDEST SWAP4 DUP6 ADD SWAP4 JUMPDEST DUP3 DUP6 LT ISZERO PUSH2 0x2542 JUMPI DUP5 CALLDATALOAD DUP3 MSTORE SWAP4 DUP6 ADD SWAP4 SWAP1 DUP6 ADD SWAP1 PUSH2 0x2529 JUMP JUMPDEST SWAP7 POP POP POP PUSH1 0x60 DUP9 ADD CALLDATALOAD SWAP3 POP DUP1 DUP4 GT ISZERO PUSH2 0x2559 JUMPI PUSH0 DUP1 REVERT JUMPDEST POP POP PUSH2 0x2567 DUP8 DUP3 DUP9 ADD PUSH2 0x2433 JUMP JUMPDEST SWAP2 POP POP SWAP3 SWAP6 SWAP2 SWAP5 POP SWAP3 POP JUMP JUMPDEST DUP1 ISZERO ISZERO DUP2 EQ PUSH2 0x1514 JUMPI PUSH0 DUP1 REVERT JUMPDEST PUSH0 PUSH1 0x20 DUP3 DUP5 SUB SLT ISZERO PUSH2 0x2590 JUMPI PUSH0 DUP1 REVERT JUMPDEST DUP2 CALLDATALOAD PUSH2 0x2215 DUP2 PUSH2 0x2573 JUMP JUMPDEST PUSH0 DUP1 PUSH1 0x20 DUP4 DUP6 SUB SLT ISZERO PUSH2 0x25AC JUMPI PUSH0 DUP1 REVERT JUMPDEST DUP3 CALLDATALOAD PUSH1 0x1 PUSH1 0x1 PUSH1 0x40 SHL SUB DUP2 GT ISZERO PUSH2 0x25C1 JUMPI PUSH0 DUP1 REVERT JUMPDEST PUSH2 0x25CD DUP6 DUP3 DUP7 ADD PUSH2 0x20EC JUMP JUMPDEST SWAP1 SWAP7 SWAP1 SWAP6 POP SWAP4 POP POP POP POP JUMP JUMPDEST PUSH1 0x3 DUP2 LT PUSH2 0x1514 JUMPI PUSH0 DUP1 REVERT JUMPDEST PUSH0 DUP1 PUSH1 0x40 DUP4 DUP6 SUB SLT ISZERO PUSH2 0x25F6 JUMPI PUSH0 DUP1 REVERT JUMPDEST DUP3 CALLDATALOAD SWAP2 POP PUSH1 0x20 DUP4 ADD CALLDATALOAD PUSH1 0x1 PUSH1 0x1 PUSH1 0x40 SHL SUB DUP1 DUP3 GT ISZERO PUSH2 0x2613 JUMPI PUSH0 DUP1 REVERT JUMPDEST SWAP1 DUP5 ADD SWAP1 PUSH1 0xA0 DUP3 DUP8 SUB SLT ISZERO PUSH2 0x2626 JUMPI PUSH0 DUP1 REVERT JUMPDEST PUSH2 0x262E PUSH2 0x22FD JUMP JUMPDEST DUP3 CALLDATALOAD DUP2 MSTORE PUSH1 0x20 DUP4 ADD CALLDATALOAD PUSH1 0x20 DUP3 ADD MSTORE PUSH1 0x40 DUP4 ADD CALLDATALOAD PUSH2 0x264A DUP2 PUSH2 0x2129 JUMP JUMPDEST PUSH1 0x40 DUP3 ADD MSTORE PUSH1 0x60 DUP4 ADD CALLDATALOAD PUSH2 0x265D DUP2 PUSH2 0x25D9 JUMP JUMPDEST PUSH1 0x60 DUP3 ADD MSTORE PUSH1 0x80 DUP4 ADD CALLDATALOAD DUP3 DUP2 GT ISZERO PUSH2 0x2673 JUMPI PUSH0 DUP1 REVERT JUMPDEST PUSH2 0x267F DUP9 DUP3 DUP7 ADD PUSH2 0x23E1 JUMP JUMPDEST PUSH1 0x80 DUP4 ADD MSTORE POP DUP1 SWAP4 POP POP POP POP SWAP3 POP SWAP3 SWAP1 POP JUMP JUMPDEST PUSH0 PUSH1 0x20 DUP3 DUP5 SUB SLT ISZERO PUSH2 0x26A2 JUMPI PUSH0 DUP1 REVERT JUMPDEST DUP2 CALLDATALOAD PUSH2 0x2215 DUP2 PUSH2 0x2129 JUMP JUMPDEST PUSH0 PUSH1 0x20 DUP3 DUP5 SUB SLT ISZERO PUSH2 0x26BD JUMPI PUSH0 DUP1 REVERT JUMPDEST POP CALLDATALOAD SWAP2 SWAP1 POP JUMP JUMPDEST PUSH1 0x20 DUP1 DUP3 MSTORE DUP3 MLOAD DUP3 DUP3 ADD DUP2 SWAP1 MSTORE PUSH0 SWAP2 SWAP1 DUP5 DUP3 ADD SWAP1 PUSH1 0x40 DUP6 ADD SWAP1 DUP5 JUMPDEST DUP2 DUP2 LT ISZERO PUSH2 0x2704 JUMPI DUP4 MLOAD PUSH1 0x1 PUSH1 0x1 PUSH1 0xA0 SHL SUB AND DUP4 MSTORE SWAP3 DUP5 ADD SWAP3 SWAP2 DUP5 ADD SWAP2 PUSH1 0x1 ADD PUSH2 0x26DF JUMP JUMPDEST POP SWAP1 SWAP7 SWAP6 POP POP POP POP POP POP JUMP JUMPDEST PUSH0 PUSH1 0x20 DUP3 DUP5 SUB SLT ISZERO PUSH2 0x2720 JUMPI PUSH0 DUP1 REVERT JUMPDEST DUP2 CALLDATALOAD PUSH1 0x1 PUSH1 0x1 PUSH1 0x40 SHL SUB DUP2 GT ISZERO PUSH2 0x2735 JUMPI PUSH0 DUP1 REVERT JUMPDEST PUSH2 0x2741 DUP5 DUP3 DUP6 ADD PUSH2 0x23E1 JUMP JUMPDEST SWAP5 SWAP4 POP POP POP POP JUMP JUMPDEST PUSH0 DUP1 PUSH1 0x40 DUP4 DUP6 SUB SLT ISZERO PUSH2 0x275A JUMPI PUSH0 DUP1 REVERT JUMPDEST DUP3 CALLDATALOAD PUSH2 0x2765 DUP2 PUSH2 0x2129 JUMP JUMPDEST SWAP2 POP PUSH1 0x20 DUP4 ADD CALLDATALOAD PUSH2 0x2775 DUP2 PUSH2 0x2573 JUMP JUMPDEST DUP1 SWAP2 POP POP SWAP3 POP SWAP3 SWAP1 POP JUMP JUMPDEST PUSH0 PUSH1 0x20 DUP3 DUP5 SUB SLT ISZERO PUSH2 0x2790 JUMPI PUSH0 DUP1 REVERT JUMPDEST DUP2 CALLDATALOAD PUSH2 0x2215 DUP2 PUSH2 0x22AE JUMP JUMPDEST PUSH0 PUSH1 0x60 DUP3 DUP5 SUB SLT ISZERO PUSH2 0x27AB JUMPI PUSH0 DUP1 REVERT JUMPDEST PUSH2 0x2215 DUP4 DUP4 PUSH2 0x20DC JUMP JUMPDEST PUSH1 0x1 DUP2 DUP2 SHR SWAP1 DUP3 AND DUP1 PUSH2 0x27C9 JUMPI PUSH1 0x7F DUP3 AND SWAP2 POP JUMPDEST PUSH1 0x20 DUP3 LT DUP2 SUB PUSH2 0x1929 JUMPI PUSH4 0x4E487B71 PUSH1 0xE0 SHL PUSH0 MSTORE PUSH1 0x22 PUSH1 0x4 MSTORE PUSH1 0x24 PUSH0 REVERT JUMPDEST DUP2 DUP4 MSTORE DUP2 DUP2 PUSH1 0x20 DUP6 ADD CALLDATACOPY POP PUSH0 DUP3 DUP3 ADD PUSH1 0x20 SWAP1 DUP2 ADD SWAP2 SWAP1 SWAP2 MSTORE PUSH1 0x1F SWAP1 SWAP2 ADD PUSH1 0x1F NOT AND SWAP1 SWAP2 ADD ADD SWAP1 JUMP JUMPDEST PUSH1 0xA0 DUP2 MSTORE PUSH0 PUSH2 0x2822 PUSH1 0xA0 DUP4 ADD DUP11 DUP13 PUSH2 0x27E7 JUMP JUMPDEST PUSH1 0x20 DUP4 DUP3 SUB PUSH1 0x20 DUP6 ADD MSTORE PUSH2 0x2837 DUP3 DUP11 DUP13 PUSH2 0x27E7 JUMP JUMPDEST DUP5 DUP2 SUB PUSH1 0x40 DUP7 DUP2 ADD SWAP2 SWAP1 SWAP2 MSTORE DUP9 DUP3 MSTORE DUP10 SWAP4 POP SWAP1 PUSH1 0x20 ADD PUSH0 JUMPDEST DUP10 DUP2 LT ISZERO PUSH2 0x288F JUMPI DUP5 CALLDATALOAD DUP3 MSTORE DUP4 DUP6 ADD CALLDATALOAD PUSH2 0x2868 DUP2 PUSH2 0x2129 JUMP JUMPDEST PUSH1 0x1 PUSH1 0x1 PUSH1 0xA0 SHL SUB AND DUP3 DUP6 ADD MSTORE DUP5 DUP4 ADD CALLDATALOAD DUP4 DUP4 ADD MSTORE PUSH1 0x60 SWAP5 DUP6 ADD SWAP5 SWAP1 SWAP2 ADD SWAP1 PUSH1 0x1 ADD PUSH2 0x284F JUMP JUMPDEST POP PUSH1 0x1 PUSH1 0x1 PUSH1 0xA0 SHL SUB DUP9 AND PUSH1 0x60 DUP8 ADD MSTORE SWAP4 POP PUSH2 0x28AA SWAP3 POP POP POP JUMP JUMPDEST PUSH1 0x1 PUSH1 0x1 PUSH1 0xA0 SHL SUB DUP4 AND PUSH1 0x80 DUP4 ADD MSTORE SWAP10 SWAP9 POP POP POP POP POP POP POP POP POP JUMP JUMPDEST PUSH4 0x4E487B71 PUSH1 0xE0 SHL PUSH0 MSTORE PUSH1 0x11 PUSH1 0x4 MSTORE PUSH1 0x24 PUSH0 REVERT JUMPDEST PUSH0 PUSH1 0x1 DUP3 ADD PUSH2 0x28EB JUMPI PUSH2 0x28EB PUSH2 0x28C6 JUMP JUMPDEST POP PUSH1 0x1 ADD SWAP1 JUMP JUMPDEST PUSH0 PUSH1 0x20 DUP3 DUP5 SUB SLT ISZERO PUSH2 0x2902 JUMPI PUSH0 DUP1 REVERT JUMPDEST POP MLOAD SWAP2 SWAP1 POP JUMP JUMPDEST DUP1 MLOAD PUSH2 0x2914 DUP2 PUSH2 0x2129 JUMP JUMPDEST SWAP2 SWAP1 POP JUMP JUMPDEST PUSH0 DUP3 PUSH1 0x1F DUP4 ADD SLT PUSH2 0x2928 JUMPI PUSH0 DUP1 REVERT JUMPDEST DUP2 MLOAD PUSH2 0x2936 PUSH2 0x23FE DUP3 PUSH2 0x23BB JUMP JUMPDEST DUP2 DUP2 MSTORE DUP5 PUSH1 0x20 DUP4 DUP7 ADD ADD GT ISZERO PUSH2 0x294A JUMPI PUSH0 DUP1 REVERT JUMPDEST DUP2 PUSH1 0x20 DUP6 ADD PUSH1 0x20 DUP4 ADD MCOPY PUSH0 SWAP2 DUP2 ADD PUSH1 0x20 ADD SWAP2 SWAP1 SWAP2 MSTORE SWAP4 SWAP3 POP POP POP JUMP JUMPDEST PUSH0 PUSH1 0x20 DUP3 DUP5 SUB SLT ISZERO PUSH2 0x2976 JUMPI PUSH0 DUP1 REVERT JUMPDEST DUP2 MLOAD PUSH1 0x1 PUSH1 0x1 PUSH1 0x40 SHL SUB DUP1 DUP3 GT ISZERO PUSH2 0x298C JUMPI PUSH0 DUP1 REVERT JUMPDEST SWAP1 DUP4 ADD SWAP1 PUSH1 0xA0 DUP3 DUP7 SUB SLT ISZERO PUSH2 0x299F JUMPI PUSH0 DUP1 REVERT JUMPDEST PUSH2 0x29A7 PUSH2 0x22FD JUMP JUMPDEST DUP3 MLOAD DUP2 MSTORE PUSH1 0x20 DUP4 ADD MLOAD PUSH1 0x20 DUP3 ADD MSTORE PUSH1 0x40 DUP4 ADD MLOAD PUSH2 0x29C3 DUP2 PUSH2 0x2129 JUMP JUMPDEST PUSH1 0x40 DUP3 ADD MSTORE PUSH1 0x60 DUP4 ADD MLOAD PUSH2 0x29D6 DUP2 PUSH2 0x25D9 JUMP JUMPDEST PUSH1 0x60 DUP3 ADD MSTORE PUSH1 0x80 DUP4 ADD MLOAD DUP3 DUP2 GT ISZERO PUSH2 0x29EC JUMPI PUSH0 DUP1 REVERT JUMPDEST PUSH2 0x29F8 DUP8 DUP3 DUP7 ADD PUSH2 0x2919 JUMP JUMPDEST PUSH1 0x80 DUP4 ADD MSTORE POP SWAP6 SWAP5 POP POP POP POP POP JUMP JUMPDEST PUSH0 PUSH1 0x20 DUP1 DUP4 DUP6 SUB SLT ISZERO PUSH2 0x2A18 JUMPI PUSH0 DUP1 REVERT JUMPDEST DUP3 MLOAD PUSH1 0x1 PUSH1 0x1 PUSH1 0x40 SHL SUB DUP2 GT ISZERO PUSH2 0x2A2D JUMPI PUSH0 DUP1 REVERT JUMPDEST DUP4 ADD PUSH1 0x1F DUP2 ADD DUP6 SGT PUSH2 0x2A3D JUMPI PUSH0 DUP1 REVERT JUMPDEST DUP1 MLOAD PUSH2 0x2A4B PUSH2 0x23FE DUP3 PUSH2 0x2399 JUMP JUMPDEST DUP2 DUP2 MSTORE PUSH1 0x60 SWAP2 DUP3 MUL DUP4 ADD DUP5 ADD SWAP2 DUP5 DUP3 ADD SWAP2 SWAP1 DUP9 DUP5 GT ISZERO PUSH2 0x2A69 JUMPI PUSH0 DUP1 REVERT JUMPDEST SWAP4 DUP6 ADD SWAP4 JUMPDEST DUP4 DUP6 LT ISZERO PUSH2 0x2ABA JUMPI DUP1 DUP6 DUP11 SUB SLT ISZERO PUSH2 0x2A84 JUMPI PUSH0 DUP1 REVERT JUMPDEST PUSH2 0x2A8C PUSH2 0x2325 JUMP JUMPDEST DUP6 MLOAD DUP2 MSTORE DUP7 DUP7 ADD MLOAD PUSH2 0x2A9D DUP2 PUSH2 0x2129 JUMP JUMPDEST DUP2 DUP9 ADD MSTORE PUSH1 0x40 DUP7 DUP2 ADD MLOAD SWAP1 DUP3 ADD MSTORE DUP4 MSTORE SWAP4 DUP5 ADD SWAP4 SWAP2 DUP6 ADD SWAP2 PUSH2 0x2A6E JUMP JUMPDEST POP SWAP8 SWAP7 POP POP POP POP POP POP POP JUMP JUMPDEST PUSH4 0x4E487B71 PUSH1 0xE0 SHL PUSH0 MSTORE PUSH1 0x32 PUSH1 0x4 MSTORE PUSH1 0x24 PUSH0 REVERT JUMPDEST PUSH1 0x1F DUP3 GT ISZERO PUSH2 0x266 JUMPI DUP1 PUSH0 MSTORE PUSH1 0x20 PUSH0 KECCAK256 PUSH1 0x1F DUP5 ADD PUSH1 0x5 SHR DUP2 ADD PUSH1 0x20 DUP6 LT ISZERO PUSH2 0x2AFF JUMPI POP DUP1 JUMPDEST PUSH1 0x1F DUP5 ADD PUSH1 0x5 SHR DUP3 ADD SWAP2 POP JUMPDEST DUP2 DUP2 LT ISZERO PUSH2 0x14AB JUMPI PUSH0 DUP2 SSTORE PUSH1 0x1 ADD PUSH2 0x2B0B JUMP JUMPDEST PUSH1 0x1 PUSH1 0x1 PUSH1 0x40 SHL SUB DUP4 GT ISZERO PUSH2 0x2B35 JUMPI PUSH2 0x2B35 PUSH2 0x22E9 JUMP JUMPDEST PUSH2 0x2B49 DUP4 PUSH2 0x2B43 DUP4 SLOAD PUSH2 0x27B5 JUMP JUMPDEST DUP4 PUSH2 0x2ADA JUMP JUMPDEST PUSH0 PUSH1 0x1F DUP5 GT PUSH1 0x1 DUP2 EQ PUSH2 0x2B7A JUMPI PUSH0 DUP6 ISZERO PUSH2 0x2B63 JUMPI POP DUP4 DUP3 ADD CALLDATALOAD JUMPDEST PUSH0 NOT PUSH1 0x3 DUP8 SWAP1 SHL SHR NOT AND PUSH1 0x1 DUP7 SWAP1 SHL OR DUP4 SSTORE PUSH2 0x14AB JUMP JUMPDEST PUSH0 DUP4 DUP2 MSTORE PUSH1 0x20 DUP2 KECCAK256 PUSH1 0x1F NOT DUP8 AND SWAP2 JUMPDEST DUP3 DUP2 LT ISZERO PUSH2 0x2BA9 JUMPI DUP7 DUP6 ADD CALLDATALOAD DUP3 SSTORE PUSH1 0x20 SWAP5 DUP6 ADD SWAP5 PUSH1 0x1 SWAP1 SWAP3 ADD SWAP2 ADD PUSH2 0x2B89 JUMP JUMPDEST POP DUP7 DUP3 LT ISZERO PUSH2 0x2BC5 JUMPI PUSH0 NOT PUSH1 0xF8 DUP9 PUSH1 0x3 SHL AND SHR NOT DUP5 DUP8 ADD CALLDATALOAD AND DUP2 SSTORE JUMPDEST POP POP PUSH1 0x1 DUP6 PUSH1 0x1 SHL ADD DUP4 SSTORE POP POP POP POP POP JUMP JUMPDEST PUSH0 PUSH1 0x20 DUP3 DUP5 SUB SLT ISZERO PUSH2 0x2BE7 JUMPI PUSH0 DUP1 REVERT JUMPDEST DUP2 MLOAD PUSH1 0x1 PUSH1 0x1 PUSH1 0x40 SHL SUB DUP1 DUP3 GT ISZERO PUSH2 0x2BFD JUMPI PUSH0 DUP1 REVERT JUMPDEST SWAP1 DUP4 ADD SWAP1 PUSH1 0xA0 DUP3 DUP7 SUB SLT ISZERO PUSH2 0x2C10 JUMPI PUSH0 DUP1 REVERT JUMPDEST PUSH2 0x2C18 PUSH2 0x22FD JUMP JUMPDEST DUP3 MLOAD DUP2 MSTORE PUSH1 0x20 DUP4 ADD MLOAD PUSH1 0x20 DUP3 ADD MSTORE PUSH1 0x40 DUP4 ADD MLOAD PUSH2 0x2C34 DUP2 PUSH2 0x2129 JUMP JUMPDEST PUSH1 0x40 DUP3 ADD MSTORE PUSH1 0x60 DUP4 DUP2 ADD MLOAD SWAP1 DUP3 ADD MSTORE PUSH1 0x80 DUP4 ADD MLOAD DUP3 DUP2 GT ISZERO PUSH2 0x29EC JUMPI PUSH0 DUP1 REVERT JUMPDEST PUSH0 PUSH1 0xC0 DUP3 DUP5 SUB SLT ISZERO PUSH2 0x2C64 JUMPI PUSH0 DUP1 REVERT JUMPDEST PUSH1 0x40 MLOAD PUSH1 0xC0 DUP2 ADD DUP2 DUP2 LT PUSH1 0x1 PUSH1 0x1 PUSH1 0x40 SHL SUB DUP3 GT OR ISZERO PUSH2 0x2C86 JUMPI PUSH2 0x2C86 PUSH2 0x22E9 JUMP JUMPDEST DUP1 PUSH1 0x40 MSTORE POP DUP3 MLOAD DUP2 MSTORE PUSH1 0x20 DUP4 ADD MLOAD PUSH1 0x20 DUP3 ADD MSTORE PUSH1 0x40 DUP4 ADD MLOAD PUSH2 0xFFFF DUP2 AND DUP2 EQ PUSH2 0x2CAD JUMPI PUSH0 DUP1 REVERT JUMPDEST PUSH1 0x40 DUP3 ADD MSTORE PUSH1 0x60 DUP4 ADD MLOAD PUSH2 0x2CC0 DUP2 PUSH2 0x22AE JUMP JUMPDEST PUSH1 0x60 DUP3 ADD MSTORE PUSH1 0x80 DUP4 ADD MLOAD PUSH2 0x2CD3 DUP2 PUSH2 0x2129 JUMP JUMPDEST PUSH1 0x80 DUP3 ADD MSTORE PUSH2 0x2CE4 PUSH1 0xA0 DUP5 ADD PUSH2 0x2909 JUMP JUMPDEST PUSH1 0xA0 DUP3 ADD MSTORE SWAP4 SWAP3 POP POP POP JUMP JUMPDEST PUSH1 0x40 DUP2 MSTORE PUSH4 0xFFFFFFFF DUP4 MLOAD AND PUSH1 0x40 DUP3 ADD MSTORE PUSH1 0x20 DUP4 ADD MLOAD PUSH1 0x60 DUP3 ADD MSTORE PUSH0 PUSH1 0x40 DUP5 ADD MLOAD PUSH1 0xA0 PUSH1 0x80 DUP5 ADD MSTORE PUSH2 0x2D25 PUSH1 0xE0 DUP5 ADD DUP3 PUSH2 0x21D5 JUMP JUMPDEST SWAP1 POP PUSH1 0x60 DUP6 ADD MLOAD PUSH1 0x3F NOT DUP5 DUP4 SUB ADD PUSH1 0xA0 DUP6 ADD MSTORE PUSH2 0x2D42 DUP3 DUP3 PUSH2 0x21D5 JUMP JUMPDEST PUSH1 0x80 SWAP7 SWAP1 SWAP7 ADD MLOAD ISZERO ISZERO PUSH1 0xC0 DUP6 ADD MSTORE POP POP POP PUSH1 0x1 PUSH1 0x1 PUSH1 0xA0 SHL SUB SWAP2 SWAP1 SWAP2 AND PUSH1 0x20 SWAP1 SWAP2 ADD MSTORE SWAP1 JUMP JUMPDEST PUSH0 DUP2 DUP4 SUB PUSH1 0x80 DUP2 SLT ISZERO PUSH2 0x2D79 JUMPI PUSH0 DUP1 REVERT JUMPDEST PUSH2 0x2D81 PUSH2 0x2325 JUMP JUMPDEST DUP4 MLOAD DUP2 MSTORE PUSH1 0x20 DUP5 ADD MLOAD PUSH1 0x1 PUSH1 0x1 PUSH1 0x40 SHL SUB DUP2 AND DUP2 EQ PUSH2 0x2D9E JUMPI PUSH0 DUP1 REVERT JUMPDEST PUSH1 0x20 DUP3 ADD MSTORE PUSH1 0x40 PUSH1 0x3F NOT DUP4 ADD SLT ISZERO PUSH2 0x2DB4 JUMPI PUSH0 DUP1 REVERT JUMPDEST PUSH2 0x2DBC PUSH2 0x2347 JUMP JUMPDEST PUSH1 0x40 DUP6 DUP2 ADD MLOAD DUP3 MSTORE PUSH1 0x60 SWAP1 SWAP6 ADD MLOAD PUSH1 0x20 DUP3 ADD MSTORE SWAP4 DUP2 ADD SWAP4 SWAP1 SWAP4 MSTORE POP SWAP1 SWAP3 SWAP2 POP POP JUMP JUMPDEST PUSH0 PUSH1 0x40 DUP3 DUP5 SUB SLT ISZERO PUSH2 0x2DEE JUMPI PUSH0 DUP1 REVERT JUMPDEST PUSH2 0x2DF6 PUSH2 0x2347 JUMP JUMPDEST DUP3 CALLDATALOAD DUP2 MSTORE PUSH1 0x20 DUP4 ADD CALLDATALOAD PUSH2 0x2E08 DUP2 PUSH2 0x2573 JUMP JUMPDEST PUSH1 0x20 DUP3 ADD MSTORE SWAP4 SWAP3 POP POP POP JUMP JUMPDEST DUP1 DUP3 ADD DUP1 DUP3 GT ISZERO PUSH2 0xFFD JUMPI PUSH2 0xFFD PUSH2 0x28C6 JUMP JUMPDEST PUSH0 PUSH1 0x20 DUP3 DUP5 SUB SLT ISZERO PUSH2 0x2E37 JUMPI PUSH0 DUP1 REVERT JUMPDEST DUP2 MLOAD PUSH2 0x2215 DUP2 PUSH2 0x2573 JUMP JUMPDEST DUP1 DUP3 MUL DUP2 ISZERO DUP3 DUP3 DIV DUP5 EQ OR PUSH2 0xFFD JUMPI PUSH2 0xFFD PUSH2 0x28C6 JUMP JUMPDEST PUSH1 0x20 DUP2 MSTORE PUSH0 PUSH1 0x1 DUP1 PUSH1 0xA0 SHL SUB DUP1 DUP5 MLOAD AND PUSH1 0x20 DUP5 ADD MSTORE PUSH1 0x20 DUP5 ADD MLOAD PUSH1 0x40 DUP5 ADD MSTORE DUP1 PUSH1 0x40 DUP6 ADD MLOAD AND PUSH1 0x60 DUP5 ADD MSTORE PUSH1 0x60 DUP5 ADD MLOAD PUSH1 0x80 DUP5 ADD MSTORE DUP1 PUSH1 0x80 DUP6 ADD MLOAD AND PUSH1 0xA0 DUP5 ADD MSTORE POP PUSH1 0xA0 DUP4 ADD MLOAD PUSH1 0xC0 DUP1 DUP5 ADD MSTORE PUSH2 0x2741 PUSH1 0xE0 DUP5 ADD DUP3 PUSH2 0x21D5 JUMP JUMPDEST PUSH1 0x80 DUP2 MSTORE PUSH2 0xFFFF PUSH1 0xF0 SHL DUP6 MLOAD AND PUSH1 0x80 DUP3 ADD MSTORE PUSH0 PUSH1 0x20 DUP7 ADD MLOAD PUSH1 0x1 DUP1 PUSH1 0xA0 SHL SUB DUP1 DUP3 AND PUSH1 0xA0 DUP6 ADD MSTORE DUP1 PUSH1 0x40 DUP10 ADD MLOAD AND PUSH1 0xC0 DUP6 ADD MSTORE PUSH1 0x60 DUP9 ADD MLOAD PUSH1 0xE0 DUP6 ADD MSTORE DUP1 PUSH1 0x80 DUP10 ADD MLOAD AND PUSH2 0x100 DUP6 ADD MSTORE POP POP PUSH1 0xA0 DUP7 ADD MLOAD PUSH1 0xC0 PUSH2 0x120 DUP5 ADD MSTORE PUSH2 0x2F1A PUSH2 0x140 DUP5 ADD DUP3 PUSH2 0x21D5 JUMP JUMPDEST PUSH1 0x1 PUSH1 0x1 PUSH1 0xA0 SHL SUB DUP8 AND PUSH1 0x20 DUP6 ADD MSTORE SWAP1 POP DUP3 DUP2 SUB PUSH1 0x40 DUP5 ADD MSTORE PUSH2 0x2F3D DUP2 DUP7 PUSH2 0x21D5 JUMP JUMPDEST SWAP1 POP DUP3 DUP2 SUB PUSH1 0x60 DUP5 ADD MSTORE PUSH2 0x2F51 DUP2 DUP6 PUSH2 0x21D5 JUMP JUMPDEST SWAP8 SWAP7 POP POP POP POP POP POP POP JUMP JUMPDEST PUSH1 0x20 DUP2 MSTORE DUP2 MLOAD PUSH1 0x20 DUP3 ADD MSTORE PUSH1 0x20 DUP3 ADD MLOAD PUSH1 0x40 DUP3 ADD MSTORE PUSH1 0x1 DUP1 PUSH1 0xA0 SHL SUB PUSH1 0x40 DUP4 ADD MLOAD AND PUSH1 0x60 DUP3 ADD MSTORE PUSH1 0x60 DUP3 ADD MLOAD PUSH1 0x80 DUP3 ADD MSTORE PUSH0 PUSH1 0x80 DUP4 ADD MLOAD PUSH1 0xA0 DUP1 DUP5 ADD MSTORE PUSH2 0x2741 PUSH1 0xC0 DUP5 ADD DUP3 PUSH2 0x21D5 JUMP JUMPDEST PUSH1 0x20 DUP2 MSTORE PUSH1 0x1 DUP1 PUSH1 0xA0 SHL SUB DUP3 MLOAD AND PUSH1 0x20 DUP3 ADD MSTORE PUSH1 0x20 DUP3 ADD MLOAD PUSH1 0x40 DUP3 ADD MSTORE PUSH0 PUSH1 0x40 DUP4 ADD MLOAD PUSH1 0x60 DUP1 DUP5 ADD MSTORE PUSH2 0x2741 PUSH1 0x80 DUP5 ADD DUP3 PUSH2 0x21D5 JUMP JUMPDEST PUSH1 0x1 PUSH1 0x1 PUSH1 0xA0 SHL SUB DUP5 AND DUP2 MSTORE PUSH1 0x60 PUSH1 0x20 DUP3 ADD DUP2 SWAP1 MSTORE PUSH0 SWAP1 PUSH2 0x2FFF SWAP1 DUP4 ADD DUP6 PUSH2 0x21D5 JUMP JUMPDEST DUP3 DUP2 SUB PUSH1 0x40 DUP5 ADD MSTORE PUSH2 0x3011 DUP2 DUP6 PUSH2 0x21D5 JUMP JUMPDEST SWAP7 SWAP6 POP POP POP POP POP POP JUMP JUMPDEST PUSH2 0xFFFF DUP8 AND DUP2 MSTORE PUSH1 0xFF DUP7 AND PUSH1 0x20 DUP3 ADD MSTORE PUSH1 0x1 DUP1 PUSH1 0xA0 SHL SUB DUP6 AND PUSH1 0x40 DUP3 ADD MSTORE DUP4 PUSH1 0x60 DUP3 ADD MSTORE DUP3 PUSH1 0x80 DUP3 ADD MSTORE PUSH1 0xC0 PUSH1 0xA0 DUP3 ADD MSTORE PUSH0 PUSH2 0x305A PUSH1 0xC0 DUP4 ADD DUP5 PUSH2 0x21D5 JUMP JUMPDEST SWAP9 SWAP8 POP POP POP POP POP POP POP POP JUMP JUMPDEST PUSH0 DUP1 PUSH1 0x40 DUP4 DUP6 SUB SLT ISZERO PUSH2 0x3077 JUMPI PUSH0 DUP1 REVERT JUMPDEST POP POP DUP1 MLOAD PUSH1 0x20 SWAP1 SWAP2 ADD MLOAD SWAP1 SWAP3 SWAP1 SWAP2 POP JUMP INVALID PUSH1 0x80 PUSH1 0x40 MSTORE CALLVALUE DUP1 ISZERO PUSH2 0xF JUMPI PUSH0 DUP1 REVERT JUMPDEST POP PUSH1 0x40 MLOAD PUSH2 0x1F37 CODESIZE SUB DUP1 PUSH2 0x1F37 DUP4 CODECOPY DUP2 ADD PUSH1 0x40 DUP2 SWAP1 MSTORE PUSH2 0x2E SWAP2 PUSH2 0x1F4 JUMP JUMPDEST DUP5 DUP5 PUSH1 0x3 PUSH2 0x3C DUP4 DUP3 PUSH2 0x3B0 JUMP JUMPDEST POP PUSH1 0x4 PUSH2 0x49 DUP3 DUP3 PUSH2 0x3B0 JUMP JUMPDEST POP POP PUSH1 0x5 DUP1 SLOAD PUSH1 0x1 PUSH1 0x1 PUSH1 0xA0 SHL SUB DUP1 DUP7 AND PUSH1 0x1 PUSH1 0x1 PUSH1 0xA0 SHL SUB NOT SWAP3 DUP4 AND OR SWAP1 SWAP3 SSTORE PUSH1 0x6 DUP1 SLOAD SWAP3 DUP6 AND SWAP3 SWAP1 SWAP2 AND SWAP2 SWAP1 SWAP2 OR SWAP1 SSTORE POP PUSH0 JUMPDEST DUP4 MLOAD DUP2 LT ISZERO PUSH2 0xF7 JUMPI PUSH1 0x7 DUP5 DUP3 DUP2 MLOAD DUP2 LT PUSH2 0x9B JUMPI PUSH2 0x9B PUSH2 0x46F JUMP JUMPDEST PUSH1 0x20 SWAP1 DUP2 MUL SWAP2 SWAP1 SWAP2 ADD DUP2 ADD MLOAD DUP3 SLOAD PUSH1 0x1 DUP1 DUP3 ADD DUP6 SSTORE PUSH0 SWAP5 DUP6 MSTORE SWAP4 DUP4 SWAP1 KECCAK256 DUP3 MLOAD PUSH1 0x3 SWAP1 SWAP3 MUL ADD SWAP1 DUP2 SSTORE SWAP2 DUP2 ADD MLOAD DUP3 DUP5 ADD DUP1 SLOAD PUSH1 0x1 PUSH1 0x1 PUSH1 0xA0 SHL SUB NOT AND PUSH1 0x1 PUSH1 0x1 PUSH1 0xA0 SHL SUB SWAP1 SWAP3 AND SWAP2 SWAP1 SWAP2 OR SWAP1 SSTORE PUSH1 0x40 ADD MLOAD PUSH1 0x2 SWAP1 SWAP2 ADD SSTORE ADD PUSH2 0x7E JUMP JUMPDEST POP POP POP POP POP POP PUSH2 0x483 JUMP JUMPDEST PUSH4 0x4E487B71 PUSH1 0xE0 SHL PUSH0 MSTORE PUSH1 0x41 PUSH1 0x4 MSTORE PUSH1 0x24 PUSH0 REVERT JUMPDEST PUSH1 0x40 MLOAD PUSH1 0x60 DUP2 ADD PUSH1 0x1 PUSH1 0x1 PUSH1 0x40 SHL SUB DUP2 GT DUP3 DUP3 LT OR ISZERO PUSH2 0x138 JUMPI PUSH2 0x138 PUSH2 0x102 JUMP JUMPDEST PUSH1 0x40 MSTORE SWAP1 JUMP JUMPDEST PUSH1 0x40 MLOAD PUSH1 0x1F DUP3 ADD PUSH1 0x1F NOT AND DUP2 ADD PUSH1 0x1 PUSH1 0x1 PUSH1 0x40 SHL SUB DUP2 GT DUP3 DUP3 LT OR ISZERO PUSH2 0x166 JUMPI PUSH2 0x166 PUSH2 0x102 JUMP JUMPDEST PUSH1 0x40 MSTORE SWAP2 SWAP1 POP JUMP JUMPDEST PUSH0 DUP3 PUSH1 0x1F DUP4 ADD SLT PUSH2 0x17D JUMPI PUSH0 DUP1 REVERT JUMPDEST DUP2 MLOAD PUSH1 0x1 PUSH1 0x1 PUSH1 0x40 SHL SUB DUP2 GT ISZERO PUSH2 0x196 JUMPI PUSH2 0x196 PUSH2 0x102 JUMP JUMPDEST PUSH2 0x1A9 PUSH1 0x1F DUP3 ADD PUSH1 0x1F NOT AND PUSH1 0x20 ADD PUSH2 0x13E JUMP JUMPDEST DUP2 DUP2 MSTORE DUP5 PUSH1 0x20 DUP4 DUP7 ADD ADD GT ISZERO PUSH2 0x1BD JUMPI PUSH0 DUP1 REVERT JUMPDEST DUP2 PUSH1 0x20 DUP6 ADD PUSH1 0x20 DUP4 ADD MCOPY PUSH0 SWAP2 DUP2 ADD PUSH1 0x20 ADD SWAP2 SWAP1 SWAP2 MSTORE SWAP4 SWAP3 POP POP POP JUMP JUMPDEST DUP1 MLOAD PUSH1 0x1 PUSH1 0x1 PUSH1 0xA0 SHL SUB DUP2 AND DUP2 EQ PUSH2 0x1EF JUMPI PUSH0 DUP1 REVERT JUMPDEST SWAP2 SWAP1 POP JUMP JUMPDEST PUSH0 DUP1 PUSH0 DUP1 PUSH0 PUSH1 0xA0 DUP7 DUP9 SUB SLT ISZERO PUSH2 0x208 JUMPI PUSH0 DUP1 REVERT JUMPDEST DUP6 MLOAD PUSH1 0x1 PUSH1 0x1 PUSH1 0x40 SHL SUB DUP1 DUP3 GT ISZERO PUSH2 0x21E JUMPI PUSH0 DUP1 REVERT JUMPDEST PUSH2 0x22A DUP10 DUP4 DUP11 ADD PUSH2 0x16E JUMP JUMPDEST SWAP7 POP PUSH1 0x20 SWAP2 POP DUP2 DUP9 ADD MLOAD DUP2 DUP2 GT ISZERO PUSH2 0x240 JUMPI PUSH0 DUP1 REVERT JUMPDEST PUSH2 0x24C DUP11 DUP3 DUP12 ADD PUSH2 0x16E JUMP JUMPDEST SWAP7 POP POP PUSH1 0x40 DUP1 DUP10 ADD MLOAD DUP3 DUP2 GT ISZERO PUSH2 0x261 JUMPI PUSH0 DUP1 REVERT JUMPDEST DUP10 ADD PUSH1 0x1F DUP2 ADD DUP12 SGT PUSH2 0x271 JUMPI PUSH0 DUP1 REVERT JUMPDEST DUP1 MLOAD DUP4 DUP2 GT ISZERO PUSH2 0x283 JUMPI PUSH2 0x283 PUSH2 0x102 JUMP JUMPDEST PUSH2 0x291 DUP6 DUP3 PUSH1 0x5 SHL ADD PUSH2 0x13E JUMP JUMPDEST DUP2 DUP2 MSTORE DUP6 DUP2 ADD SWAP5 POP PUSH1 0x60 SWAP2 DUP3 MUL DUP4 ADD DUP7 ADD SWAP2 DUP14 DUP4 GT ISZERO PUSH2 0x2AF JUMPI PUSH0 DUP1 REVERT JUMPDEST SWAP3 DUP7 ADD SWAP3 JUMPDEST DUP3 DUP5 LT ISZERO PUSH2 0x2FC JUMPI DUP1 DUP5 DUP16 SUB SLT ISZERO PUSH2 0x2CA JUMPI PUSH0 DUP1 REVERT JUMPDEST PUSH2 0x2D2 PUSH2 0x116 JUMP JUMPDEST DUP5 MLOAD DUP2 MSTORE PUSH2 0x2E1 DUP9 DUP7 ADD PUSH2 0x1D9 JUMP JUMPDEST DUP2 DUP10 ADD MSTORE DUP5 DUP7 ADD MLOAD DUP7 DUP3 ADD MSTORE DUP7 MSTORE SWAP5 DUP7 ADD SWAP5 SWAP3 DUP4 ADD SWAP3 PUSH2 0x2B4 JUMP JUMPDEST POP DUP1 SWAP9 POP POP POP POP POP POP POP PUSH2 0x312 PUSH1 0x60 DUP8 ADD PUSH2 0x1D9 JUMP JUMPDEST SWAP2 POP PUSH2 0x320 PUSH1 0x80 DUP8 ADD PUSH2 0x1D9 JUMP JUMPDEST SWAP1 POP SWAP3 SWAP6 POP SWAP3 SWAP6 SWAP1 SWAP4 POP JUMP JUMPDEST PUSH1 0x1 DUP2 DUP2 SHR SWAP1 DUP3 AND DUP1 PUSH2 0x340 JUMPI PUSH1 0x7F DUP3 AND SWAP2 POP JUMPDEST PUSH1 0x20 DUP3 LT DUP2 SUB PUSH2 0x35E JUMPI PUSH4 0x4E487B71 PUSH1 0xE0 SHL PUSH0 MSTORE PUSH1 0x22 PUSH1 0x4 MSTORE PUSH1 0x24 PUSH0 REVERT JUMPDEST POP SWAP2 SWAP1 POP JUMP JUMPDEST PUSH1 0x1F DUP3 GT ISZERO PUSH2 0x3AB JUMPI DUP1 PUSH0 MSTORE PUSH1 0x20 PUSH0 KECCAK256 PUSH1 0x1F DUP5 ADD PUSH1 0x5 SHR DUP2 ADD PUSH1 0x20 DUP6 LT ISZERO PUSH2 0x389 JUMPI POP DUP1 JUMPDEST PUSH1 0x1F DUP5 ADD PUSH1 0x5 SHR DUP3 ADD SWAP2 POP JUMPDEST DUP2 DUP2 LT ISZERO PUSH2 0x3A8 JUMPI PUSH0 DUP2 SSTORE PUSH1 0x1 ADD PUSH2 0x395 JUMP JUMPDEST POP POP JUMPDEST POP POP POP JUMP JUMPDEST DUP2 MLOAD PUSH1 0x1 PUSH1 0x1 PUSH1 0x40 SHL SUB DUP2 GT ISZERO PUSH2 0x3C9 JUMPI PUSH2 0x3C9 PUSH2 0x102 JUMP JUMPDEST PUSH2 0x3DD DUP2 PUSH2 0x3D7 DUP5 SLOAD PUSH2 0x32C JUMP JUMPDEST DUP5 PUSH2 0x364 JUMP JUMPDEST PUSH1 0x20 DUP1 PUSH1 0x1F DUP4 GT PUSH1 0x1 DUP2 EQ PUSH2 0x410 JUMPI PUSH0 DUP5 ISZERO PUSH2 0x3F9 JUMPI POP DUP6 DUP4 ADD MLOAD JUMPDEST PUSH0 NOT PUSH1 0x3 DUP7 SWAP1 SHL SHR NOT AND PUSH1 0x1 DUP6 SWAP1 SHL OR DUP6 SSTORE PUSH2 0x467 JUMP JUMPDEST PUSH0 DUP6 DUP2 MSTORE PUSH1 0x20 DUP2 KECCAK256 PUSH1 0x1F NOT DUP7 AND SWAP2 JUMPDEST DUP3 DUP2 LT ISZERO PUSH2 0x43E JUMPI DUP9 DUP7 ADD MLOAD DUP3 SSTORE SWAP5 DUP5 ADD SWAP5 PUSH1 0x1 SWAP1 SWAP2 ADD SWAP1 DUP5 ADD PUSH2 0x41F JUMP JUMPDEST POP DUP6 DUP3 LT ISZERO PUSH2 0x45B JUMPI DUP8 DUP6 ADD MLOAD PUSH0 NOT PUSH1 0x3 DUP9 SWAP1 SHL PUSH1 0xF8 AND SHR NOT AND DUP2 SSTORE JUMPDEST POP POP PUSH1 0x1 DUP5 PUSH1 0x1 SHL ADD DUP6 SSTORE JUMPDEST POP POP POP POP POP POP JUMP JUMPDEST PUSH4 0x4E487B71 PUSH1 0xE0 SHL PUSH0 MSTORE PUSH1 0x32 PUSH1 0x4 MSTORE PUSH1 0x24 PUSH0 REVERT JUMPDEST PUSH2 0x1AA7 DUP1 PUSH2 0x490 PUSH0 CODECOPY PUSH0 RETURN INVALID PUSH1 0x80 PUSH1 0x40 MSTORE PUSH1 0x4 CALLDATASIZE LT PUSH2 0x17B JUMPI PUSH0 CALLDATALOAD PUSH1 0xE0 SHR DUP1 PUSH4 0x95D89B41 GT PUSH2 0xCD JUMPI DUP1 PUSH4 0xDB006A75 GT PUSH2 0x87 JUMPI DUP1 PUSH4 0xF01648F8 GT PUSH2 0x62 JUMPI DUP1 PUSH4 0xF01648F8 EQ PUSH2 0x4BA JUMPI DUP1 PUSH4 0xF4C76363 EQ PUSH2 0x4D7 JUMPI DUP1 PUSH4 0xFE206292 EQ PUSH2 0x4F6 JUMPI DUP1 PUSH4 0xFE74748E EQ PUSH2 0x4BA JUMPI PUSH0 DUP1 REVERT JUMPDEST DUP1 PUSH4 0xDB006A75 EQ PUSH2 0x443 JUMPI DUP1 PUSH4 0xDD62ED3E EQ PUSH2 0x462 JUMPI DUP1 PUSH4 0xE02B79F9 EQ PUSH2 0x4A6 JUMPI PUSH0 DUP1 REVERT JUMPDEST DUP1 PUSH4 0x95D89B41 EQ PUSH2 0x36F JUMPI DUP1 PUSH4 0x99FBAB88 EQ PUSH2 0x383 JUMPI DUP1 PUSH4 0xA2CE9C1F EQ PUSH2 0x3C5 JUMPI DUP1 PUSH4 0xA9059CBB EQ PUSH2 0x3E4 JUMPI DUP1 PUSH4 0xA9EDF1F6 EQ PUSH2 0x403 JUMPI DUP1 PUSH4 0xBA906000 EQ PUSH2 0x422 JUMPI PUSH0 DUP1 REVERT JUMPDEST DUP1 PUSH4 0x23B872DD GT PUSH2 0x138 JUMPI DUP1 PUSH4 0x56DC63CB GT PUSH2 0x113 JUMPI DUP1 PUSH4 0x56DC63CB EQ PUSH2 0x2CB JUMPI DUP1 PUSH4 0x6B9691A1 EQ PUSH2 0x2FB JUMPI DUP1 PUSH4 0x70A08231 EQ PUSH2 0x31A JUMPI DUP1 PUSH4 0x80275860 EQ PUSH2 0x34E JUMPI PUSH0 DUP1 REVERT JUMPDEST DUP1 PUSH4 0x23B872DD EQ PUSH2 0x25A JUMPI DUP1 PUSH4 0x3013CE29 EQ PUSH2 0x279 JUMPI DUP1 PUSH4 0x313CE567 EQ PUSH2 0x2B0 JUMPI PUSH0 DUP1 REVERT JUMPDEST DUP1 PUSH4 0x6FDDE03 EQ PUSH2 0x17F JUMPI DUP1 PUSH4 0x95EA7B3 EQ PUSH2 0x1A9 JUMPI DUP1 PUSH4 0xB2B8E35 EQ PUSH2 0x1D8 JUMPI DUP1 PUSH4 0x18160DDD EQ PUSH2 0x1F9 JUMPI DUP1 PUSH4 0x1DDC8F6D EQ PUSH2 0x20D JUMPI DUP1 PUSH4 0x1FC5846B EQ PUSH2 0x239 JUMPI JUMPDEST PUSH0 DUP1 REVERT JUMPDEST CALLVALUE DUP1 ISZERO PUSH2 0x18A JUMPI PUSH0 DUP1 REVERT JUMPDEST POP PUSH2 0x193 PUSH2 0x515 JUMP JUMPDEST PUSH1 0x40 MLOAD PUSH2 0x1A0 SWAP2 SWAP1 PUSH2 0x139C JUMP JUMPDEST PUSH1 0x40 MLOAD DUP1 SWAP2 SUB SWAP1 RETURN JUMPDEST CALLVALUE DUP1 ISZERO PUSH2 0x1B4 JUMPI PUSH0 DUP1 REVERT JUMPDEST POP PUSH2 0x1C8 PUSH2 0x1C3 CALLDATASIZE PUSH1 0x4 PUSH2 0x13D0 JUMP JUMPDEST PUSH2 0x5A5 JUMP JUMPDEST PUSH1 0x40 MLOAD SWAP1 ISZERO ISZERO DUP2 MSTORE PUSH1 0x20 ADD PUSH2 0x1A0 JUMP JUMPDEST PUSH2 0x1EB PUSH2 0x1E6 CALLDATASIZE PUSH1 0x4 PUSH2 0x1540 JUMP JUMPDEST PUSH2 0x5BE JUMP JUMPDEST PUSH1 0x40 MLOAD SWAP1 DUP2 MSTORE PUSH1 0x20 ADD PUSH2 0x1A0 JUMP JUMPDEST CALLVALUE DUP1 ISZERO PUSH2 0x204 JUMPI PUSH0 DUP1 REVERT JUMPDEST POP PUSH1 0x2 SLOAD PUSH2 0x1EB JUMP JUMPDEST CALLVALUE DUP1 ISZERO PUSH2 0x218 JUMPI PUSH0 DUP1 REVERT JUMPDEST POP PUSH2 0x22C PUSH2 0x227 CALLDATASIZE PUSH1 0x4 PUSH2 0x15FD JUMP JUMPDEST PUSH2 0x8AE JUMP JUMPDEST PUSH1 0x40 MLOAD PUSH2 0x1A0 SWAP2 SWAP1 PUSH2 0x1648 JUMP JUMPDEST CALLVALUE DUP1 ISZERO PUSH2 0x244 JUMPI PUSH0 DUP1 REVERT JUMPDEST POP PUSH2 0x1EB PUSH2 0x253 CALLDATASIZE PUSH1 0x4 PUSH2 0x16A3 JUMP JUMPDEST PUSH0 SWAP3 SWAP2 POP POP JUMP JUMPDEST CALLVALUE DUP1 ISZERO PUSH2 0x265 JUMPI PUSH0 DUP1 REVERT JUMPDEST POP PUSH2 0x1C8 PUSH2 0x274 CALLDATASIZE PUSH1 0x4 PUSH2 0x1712 JUMP JUMPDEST PUSH2 0x9EE JUMP JUMPDEST CALLVALUE DUP1 ISZERO PUSH2 0x284 JUMPI PUSH0 DUP1 REVERT JUMPDEST POP PUSH1 0x5 SLOAD PUSH2 0x298 SWAP1 PUSH1 0x1 PUSH1 0x1 PUSH1 0xA0 SHL SUB AND DUP2 JUMP JUMPDEST PUSH1 0x40 MLOAD PUSH1 0x1 PUSH1 0x1 PUSH1 0xA0 SHL SUB SWAP1 SWAP2 AND DUP2 MSTORE PUSH1 0x20 ADD PUSH2 0x1A0 JUMP JUMPDEST CALLVALUE DUP1 ISZERO PUSH2 0x2BB JUMPI PUSH0 DUP1 REVERT JUMPDEST POP PUSH1 0x40 MLOAD PUSH1 0x12 DUP2 MSTORE PUSH1 0x20 ADD PUSH2 0x1A0 JUMP JUMPDEST CALLVALUE DUP1 ISZERO PUSH2 0x2D6 JUMPI PUSH0 DUP1 REVERT JUMPDEST POP PUSH2 0x2EA PUSH2 0x2E5 CALLDATASIZE PUSH1 0x4 PUSH2 0x15FD JUMP JUMPDEST PUSH2 0xA11 JUMP JUMPDEST PUSH1 0x40 MLOAD PUSH2 0x1A0 SWAP6 SWAP5 SWAP4 SWAP3 SWAP2 SWAP1 PUSH2 0x174B JUMP JUMPDEST CALLVALUE DUP1 ISZERO PUSH2 0x306 JUMPI PUSH0 DUP1 REVERT JUMPDEST POP PUSH2 0x2EA PUSH2 0x315 CALLDATASIZE PUSH1 0x4 PUSH2 0x15FD JUMP JUMPDEST PUSH2 0xAD7 JUMP JUMPDEST CALLVALUE DUP1 ISZERO PUSH2 0x325 JUMPI PUSH0 DUP1 REVERT JUMPDEST POP PUSH2 0x1EB PUSH2 0x334 CALLDATASIZE PUSH1 0x4 PUSH2 0x1791 JUMP JUMPDEST PUSH1 0x1 PUSH1 0x1 PUSH1 0xA0 SHL SUB AND PUSH0 SWAP1 DUP2 MSTORE PUSH1 0x20 DUP2 SWAP1 MSTORE PUSH1 0x40 SWAP1 KECCAK256 SLOAD SWAP1 JUMP JUMPDEST CALLVALUE DUP1 ISZERO PUSH2 0x359 JUMPI PUSH0 DUP1 REVERT JUMPDEST POP PUSH2 0x362 PUSH2 0xB1C JUMP JUMPDEST PUSH1 0x40 MLOAD PUSH2 0x1A0 SWAP2 SWAP1 PUSH2 0x17AA JUMP JUMPDEST CALLVALUE DUP1 ISZERO PUSH2 0x37A JUMPI PUSH0 DUP1 REVERT JUMPDEST POP PUSH2 0x193 PUSH2 0xB9C JUMP JUMPDEST CALLVALUE DUP1 ISZERO PUSH2 0x38E JUMPI PUSH0 DUP1 REVERT JUMPDEST POP PUSH2 0x3A2 PUSH2 0x39D CALLDATASIZE PUSH1 0x4 PUSH2 0x15FD JUMP JUMPDEST PUSH2 0xBAB JUMP JUMPDEST PUSH1 0x40 DUP1 MLOAD SWAP4 DUP5 MSTORE PUSH1 0x1 PUSH1 0x1 PUSH1 0xA0 SHL SUB SWAP1 SWAP3 AND PUSH1 0x20 DUP5 ADD MSTORE SWAP1 DUP3 ADD MSTORE PUSH1 0x60 ADD PUSH2 0x1A0 JUMP JUMPDEST CALLVALUE DUP1 ISZERO PUSH2 0x3D0 JUMPI PUSH0 DUP1 REVERT JUMPDEST POP PUSH2 0x22C PUSH2 0x3DF CALLDATASIZE PUSH1 0x4 PUSH2 0x15FD JUMP JUMPDEST PUSH2 0xBE8 JUMP JUMPDEST CALLVALUE DUP1 ISZERO PUSH2 0x3EF JUMPI PUSH0 DUP1 REVERT JUMPDEST POP PUSH2 0x1C8 PUSH2 0x3FE CALLDATASIZE PUSH1 0x4 PUSH2 0x13D0 JUMP JUMPDEST PUSH2 0xC7C JUMP JUMPDEST CALLVALUE DUP1 ISZERO PUSH2 0x40E JUMPI PUSH0 DUP1 REVERT JUMPDEST POP PUSH2 0x2EA PUSH2 0x41D CALLDATASIZE PUSH1 0x4 PUSH2 0x15FD JUMP JUMPDEST PUSH2 0xC89 JUMP JUMPDEST CALLVALUE DUP1 ISZERO PUSH2 0x42D JUMPI PUSH0 DUP1 REVERT JUMPDEST POP PUSH2 0x441 PUSH2 0x43C CALLDATASIZE PUSH1 0x4 PUSH2 0x15FD JUMP JUMPDEST PUSH2 0xCCE JUMP JUMPDEST STOP JUMPDEST CALLVALUE DUP1 ISZERO PUSH2 0x44E JUMPI PUSH0 DUP1 REVERT JUMPDEST POP PUSH2 0x1EB PUSH2 0x45D CALLDATASIZE PUSH1 0x4 PUSH2 0x15FD JUMP JUMPDEST POP PUSH0 SWAP1 JUMP JUMPDEST CALLVALUE DUP1 ISZERO PUSH2 0x46D JUMPI PUSH0 DUP1 REVERT JUMPDEST POP PUSH2 0x1EB PUSH2 0x47C CALLDATASIZE PUSH1 0x4 PUSH2 0x180B JUMP JUMPDEST PUSH1 0x1 PUSH1 0x1 PUSH1 0xA0 SHL SUB SWAP2 DUP3 AND PUSH0 SWAP1 DUP2 MSTORE PUSH1 0x1 PUSH1 0x20 SWAP1 DUP2 MSTORE PUSH1 0x40 DUP1 DUP4 KECCAK256 SWAP4 SWAP1 SWAP5 AND DUP3 MSTORE SWAP2 SWAP1 SWAP2 MSTORE KECCAK256 SLOAD SWAP1 JUMP JUMPDEST CALLVALUE DUP1 ISZERO PUSH2 0x4B1 JUMPI PUSH0 DUP1 REVERT JUMPDEST POP PUSH1 0x7 SLOAD PUSH2 0x1EB JUMP JUMPDEST CALLVALUE DUP1 ISZERO PUSH2 0x4C5 JUMPI PUSH0 DUP1 REVERT JUMPDEST POP PUSH2 0x441 PUSH2 0x4D4 CALLDATASIZE PUSH1 0x4 PUSH2 0x15FD JUMP JUMPDEST POP JUMP JUMPDEST CALLVALUE DUP1 ISZERO PUSH2 0x4E2 JUMPI PUSH0 DUP1 REVERT JUMPDEST POP PUSH1 0x6 SLOAD PUSH2 0x298 SWAP1 PUSH1 0x1 PUSH1 0x1 PUSH1 0xA0 SHL SUB AND DUP2 JUMP JUMPDEST CALLVALUE DUP1 ISZERO PUSH2 0x501 JUMPI PUSH0 DUP1 REVERT JUMPDEST POP PUSH2 0x22C PUSH2 0x510 CALLDATASIZE PUSH1 0x4 PUSH2 0x15FD JUMP JUMPDEST PUSH2 0xF7F JUMP JUMPDEST PUSH1 0x60 PUSH1 0x3 DUP1 SLOAD PUSH2 0x524 SWAP1 PUSH2 0x183C JUMP JUMPDEST DUP1 PUSH1 0x1F ADD PUSH1 0x20 DUP1 SWAP2 DIV MUL PUSH1 0x20 ADD PUSH1 0x40 MLOAD SWAP1 DUP2 ADD PUSH1 0x40 MSTORE DUP1 SWAP3 SWAP2 SWAP1 DUP2 DUP2 MSTORE PUSH1 0x20 ADD DUP3 DUP1 SLOAD PUSH2 0x550 SWAP1 PUSH2 0x183C JUMP JUMPDEST DUP1 ISZERO PUSH2 0x59B JUMPI DUP1 PUSH1 0x1F LT PUSH2 0x572 JUMPI PUSH2 0x100 DUP1 DUP4 SLOAD DIV MUL DUP4 MSTORE SWAP2 PUSH1 0x20 ADD SWAP2 PUSH2 0x59B JUMP JUMPDEST DUP3 ADD SWAP2 SWAP1 PUSH0 MSTORE PUSH1 0x20 PUSH0 KECCAK256 SWAP1 JUMPDEST DUP2 SLOAD DUP2 MSTORE SWAP1 PUSH1 0x1 ADD SWAP1 PUSH1 0x20 ADD DUP1 DUP4 GT PUSH2 0x57E JUMPI DUP3 SWAP1 SUB PUSH1 0x1F AND DUP3 ADD SWAP2 JUMPDEST POP POP POP POP POP SWAP1 POP SWAP1 JUMP JUMPDEST PUSH0 CALLER PUSH2 0x5B2 DUP2 DUP6 DUP6 PUSH2 0x1013 JUMP JUMPDEST PUSH1 0x1 SWAP2 POP POP JUMPDEST SWAP3 SWAP2 POP POP JUMP JUMPDEST PUSH0 DUP1 DUP5 GT PUSH2 0x62A JUMPI PUSH1 0x40 MLOAD PUSH3 0x461BCD PUSH1 0xE5 SHL DUP2 MSTORE PUSH1 0x20 PUSH1 0x4 DUP3 ADD MSTORE PUSH1 0x2E PUSH1 0x24 DUP3 ADD MSTORE PUSH32 0x536C696365546F6B656E3A20536C69636520746F6B656E207175616E74697479 PUSH1 0x44 DUP3 ADD MSTORE PUSH14 0x2063616E2774206265207A65726F PUSH1 0x90 SHL PUSH1 0x64 DUP3 ADD MSTORE PUSH1 0x84 ADD JUMPDEST PUSH1 0x40 MLOAD DUP1 SWAP2 SUB SWAP1 REVERT JUMPDEST DUP2 MLOAD DUP4 MLOAD EQ DUP1 ISZERO PUSH2 0x63D JUMPI POP PUSH1 0x7 SLOAD DUP4 MLOAD EQ JUMPDEST PUSH2 0x6A3 JUMPI PUSH1 0x40 MLOAD PUSH3 0x461BCD PUSH1 0xE5 SHL DUP2 MSTORE PUSH1 0x20 PUSH1 0x4 DUP3 ADD MSTORE PUSH1 0x31 PUSH1 0x24 DUP3 ADD MSTORE PUSH32 0x536C696365546F6B656E3A20496E636F7272656374206C656E67746820666F72 PUSH1 0x44 DUP3 ADD MSTORE PUSH17 0x20707269636573206F7220726F75746573 PUSH1 0x78 SHL PUSH1 0x64 DUP3 ADD MSTORE PUSH1 0x84 ADD PUSH2 0x621 JUMP JUMPDEST PUSH0 PUSH2 0x6AD DUP5 PUSH2 0x1025 JUMP JUMPDEST PUSH1 0x5 SLOAD PUSH1 0x6 SLOAD PUSH1 0x40 MLOAD PUSH4 0x23B872DD PUSH1 0xE0 SHL DUP2 MSTORE CALLER PUSH1 0x4 DUP3 ADD MSTORE PUSH1 0x1 PUSH1 0x1 PUSH1 0xA0 SHL SUB SWAP2 DUP3 AND PUSH1 0x24 DUP3 ADD MSTORE PUSH1 0x44 DUP2 ADD DUP5 SWAP1 MSTORE SWAP3 SWAP4 POP AND SWAP1 PUSH4 0x23B872DD SWAP1 PUSH1 0x64 ADD PUSH1 0x20 PUSH1 0x40 MLOAD DUP1 DUP4 SUB DUP2 PUSH0 DUP8 GAS CALL ISZERO DUP1 ISZERO PUSH2 0x707 JUMPI RETURNDATASIZE PUSH0 DUP1 RETURNDATACOPY RETURNDATASIZE PUSH0 REVERT JUMPDEST POP POP POP POP PUSH1 0x40 MLOAD RETURNDATASIZE PUSH1 0x1F NOT PUSH1 0x1F DUP3 ADD AND DUP3 ADD DUP1 PUSH1 0x40 MSTORE POP DUP2 ADD SWAP1 PUSH2 0x72B SWAP2 SWAP1 PUSH2 0x186E JUMP JUMPDEST POP PUSH1 0x40 MLOAD PUSH12 0xFFFFFFFFFFFFFFFFFFFFFFFF NOT CALLER PUSH1 0x60 SWAP1 DUP2 SHL DUP3 AND PUSH1 0x20 DUP5 ADD MSTORE ADDRESS SWAP1 SHL AND PUSH1 0x34 DUP3 ADD MSTORE PUSH1 0x48 DUP2 ADD DUP7 SWAP1 MSTORE PUSH1 0x68 DUP2 ADD DUP3 SWAP1 MSTORE TIMESTAMP PUSH1 0x88 DUP3 ADD MSTORE PUSH0 SWAP1 PUSH1 0xA8 ADD PUSH1 0x40 DUP1 MLOAD DUP1 DUP4 SUB PUSH1 0x1F NOT ADD DUP2 MSTORE DUP3 DUP3 MSTORE DUP1 MLOAD PUSH1 0x20 SWAP2 DUP3 ADD KECCAK256 PUSH1 0xA0 DUP5 ADD DUP4 MSTORE DUP1 DUP5 MSTORE DUP2 DUP5 ADD DUP11 DUP2 MSTORE CALLER DUP6 DUP6 ADD SWAP1 DUP2 MSTORE PUSH1 0x1 PUSH1 0x60 DUP8 ADD DUP2 DUP2 MSTORE DUP7 MLOAD DUP1 DUP8 ADD DUP9 MSTORE PUSH0 DUP1 DUP3 MSTORE PUSH1 0x80 DUP11 ADD SWAP2 SWAP1 SWAP2 MSTORE DUP6 DUP2 MSTORE PUSH1 0x8 SWAP1 SWAP7 MSTORE SWAP6 SWAP1 SWAP5 KECCAK256 DUP7 MLOAD DUP2 SSTORE SWAP2 MLOAD SWAP4 DUP3 ADD SWAP4 SWAP1 SWAP4 SSTORE SWAP2 MLOAD PUSH1 0x2 DUP1 DUP5 ADD DUP1 SLOAD PUSH1 0x1 PUSH1 0x1 PUSH1 0xA0 SHL SUB NOT DUP2 AND PUSH1 0x1 PUSH1 0x1 PUSH1 0xA0 SHL SUB SWAP1 SWAP5 AND SWAP4 DUP5 OR DUP3 SSTORE SWAP6 MLOAD SWAP4 SWAP8 POP DUP7 SWAP6 SWAP1 SWAP3 PUSH1 0x1 PUSH1 0x1 PUSH1 0xA8 SHL SUB NOT SWAP1 SWAP2 AND OR SWAP1 PUSH1 0x1 PUSH1 0xA0 SHL SWAP1 DUP5 SWAP1 DUP2 GT ISZERO PUSH2 0x821 JUMPI PUSH2 0x821 PUSH2 0x1614 JUMP JUMPDEST MUL OR SWAP1 SSTORE POP PUSH1 0x80 DUP3 ADD MLOAD PUSH1 0x3 DUP3 ADD SWAP1 PUSH2 0x83A SWAP1 DUP3 PUSH2 0x18D8 JUMP JUMPDEST POP POP PUSH1 0x6 SLOAD PUSH1 0x40 MLOAD PUSH4 0xE84D555 PUSH1 0xE2 SHL DUP2 MSTORE PUSH1 0x1 PUSH1 0x1 PUSH1 0xA0 SHL SUB SWAP1 SWAP2 AND SWAP2 POP PUSH4 0x3A135554 SWAP1 CALLVALUE SWAP1 PUSH2 0x875 SWAP1 DUP7 SWAP1 DUP13 SWAP1 DUP13 SWAP1 DUP13 SWAP1 PUSH1 0x4 ADD PUSH2 0x1998 JUMP JUMPDEST PUSH0 PUSH1 0x40 MLOAD DUP1 DUP4 SUB DUP2 DUP6 DUP9 DUP1 EXTCODESIZE ISZERO DUP1 ISZERO PUSH2 0x88C JUMPI PUSH0 DUP1 REVERT JUMPDEST POP GAS CALL ISZERO DUP1 ISZERO PUSH2 0x89E JUMPI RETURNDATASIZE PUSH0 DUP1 RETURNDATACOPY RETURNDATASIZE PUSH0 REVERT JUMPDEST POP SWAP5 SWAP11 SWAP10 POP POP POP POP POP POP POP POP POP POP JUMP JUMPDEST PUSH2 0x8DF PUSH1 0x40 DUP1 MLOAD PUSH1 0xA0 DUP2 ADD DUP3 MSTORE PUSH0 DUP1 DUP3 MSTORE PUSH1 0x20 DUP3 ADD DUP2 SWAP1 MSTORE SWAP2 DUP2 ADD DUP3 SWAP1 MSTORE SWAP1 PUSH1 0x60 DUP3 ADD SWAP1 DUP2 MSTORE PUSH1 0x20 ADD PUSH1 0x60 DUP2 MSTORE POP SWAP1 JUMP JUMPDEST PUSH0 DUP3 DUP2 MSTORE PUSH1 0x9 PUSH1 0x20 SWAP1 DUP2 MSTORE PUSH1 0x40 SWAP2 DUP3 SWAP1 KECCAK256 DUP3 MLOAD PUSH1 0xA0 DUP2 ADD DUP5 MSTORE DUP2 SLOAD DUP2 MSTORE PUSH1 0x1 DUP3 ADD SLOAD SWAP3 DUP2 ADD SWAP3 SWAP1 SWAP3 MSTORE PUSH1 0x2 DUP1 DUP3 ADD SLOAD PUSH1 0x1 PUSH1 0x1 PUSH1 0xA0 SHL SUB DUP2 AND SWAP5 DUP5 ADD SWAP5 SWAP1 SWAP5 MSTORE SWAP2 SWAP3 SWAP1 SWAP2 PUSH1 0x60 DUP5 ADD SWAP2 PUSH1 0x1 PUSH1 0xA0 SHL SWAP1 DIV PUSH1 0xFF AND SWAP1 DUP2 GT ISZERO PUSH2 0x942 JUMPI PUSH2 0x942 PUSH2 0x1614 JUMP JUMPDEST PUSH1 0x2 DUP2 GT ISZERO PUSH2 0x953 JUMPI PUSH2 0x953 PUSH2 0x1614 JUMP JUMPDEST DUP2 MSTORE PUSH1 0x20 ADD PUSH1 0x3 DUP3 ADD DUP1 SLOAD PUSH2 0x967 SWAP1 PUSH2 0x183C JUMP JUMPDEST DUP1 PUSH1 0x1F ADD PUSH1 0x20 DUP1 SWAP2 DIV MUL PUSH1 0x20 ADD PUSH1 0x40 MLOAD SWAP1 DUP2 ADD PUSH1 0x40 MSTORE DUP1 SWAP3 SWAP2 SWAP1 DUP2 DUP2 MSTORE PUSH1 0x20 ADD DUP3 DUP1 SLOAD PUSH2 0x993 SWAP1 PUSH2 0x183C JUMP JUMPDEST DUP1 ISZERO PUSH2 0x9DE JUMPI DUP1 PUSH1 0x1F LT PUSH2 0x9B5 JUMPI PUSH2 0x100 DUP1 DUP4 SLOAD DIV MUL DUP4 MSTORE SWAP2 PUSH1 0x20 ADD SWAP2 PUSH2 0x9DE JUMP JUMPDEST DUP3 ADD SWAP2 SWAP1 PUSH0 MSTORE PUSH1 0x20 PUSH0 KECCAK256 SWAP1 JUMPDEST DUP2 SLOAD DUP2 MSTORE SWAP1 PUSH1 0x1 ADD SWAP1 PUSH1 0x20 ADD DUP1 DUP4 GT PUSH2 0x9C1 JUMPI DUP3 SWAP1 SUB PUSH1 0x1F AND DUP3 ADD SWAP2 JUMPDEST POP POP POP POP POP DUP2 MSTORE POP POP SWAP1 POP SWAP2 SWAP1 POP JUMP JUMPDEST PUSH0 CALLER PUSH2 0x9FB DUP6 DUP3 DUP6 PUSH2 0x1066 JUMP JUMPDEST PUSH2 0xA06 DUP6 DUP6 DUP6 PUSH2 0x10E1 JUMP JUMPDEST POP PUSH1 0x1 SWAP5 SWAP4 POP POP POP POP JUMP JUMPDEST PUSH1 0x8 PUSH1 0x20 MSTORE PUSH0 SWAP1 DUP2 MSTORE PUSH1 0x40 SWAP1 KECCAK256 DUP1 SLOAD PUSH1 0x1 DUP3 ADD SLOAD PUSH1 0x2 DUP4 ADD SLOAD PUSH1 0x3 DUP5 ADD DUP1 SLOAD SWAP4 SWAP5 SWAP3 SWAP4 PUSH1 0x1 PUSH1 0x1 PUSH1 0xA0 SHL SUB DUP4 AND SWAP4 PUSH1 0x1 PUSH1 0xA0 SHL SWAP1 SWAP4 DIV PUSH1 0xFF AND SWAP3 SWAP2 SWAP1 PUSH2 0xA56 SWAP1 PUSH2 0x183C JUMP JUMPDEST DUP1 PUSH1 0x1F ADD PUSH1 0x20 DUP1 SWAP2 DIV MUL PUSH1 0x20 ADD PUSH1 0x40 MLOAD SWAP1 DUP2 ADD PUSH1 0x40 MSTORE DUP1 SWAP3 SWAP2 SWAP1 DUP2 DUP2 MSTORE PUSH1 0x20 ADD DUP3 DUP1 SLOAD PUSH2 0xA82 SWAP1 PUSH2 0x183C JUMP JUMPDEST DUP1 ISZERO PUSH2 0xACD JUMPI DUP1 PUSH1 0x1F LT PUSH2 0xAA4 JUMPI PUSH2 0x100 DUP1 DUP4 SLOAD DIV MUL DUP4 MSTORE SWAP2 PUSH1 0x20 ADD SWAP2 PUSH2 0xACD JUMP JUMPDEST DUP3 ADD SWAP2 SWAP1 PUSH0 MSTORE PUSH1 0x20 PUSH0 KECCAK256 SWAP1 JUMPDEST DUP2 SLOAD DUP2 MSTORE SWAP1 PUSH1 0x1 ADD SWAP1 PUSH1 0x20 ADD DUP1 DUP4 GT PUSH2 0xAB0 JUMPI DUP3 SWAP1 SUB PUSH1 0x1F AND DUP3 ADD SWAP2 JUMPDEST POP POP POP POP POP SWAP1 POP DUP6 JUMP JUMPDEST PUSH1 0xA PUSH1 0x20 MSTORE PUSH0 SWAP1 DUP2 MSTORE PUSH1 0x40 SWAP1 KECCAK256 DUP1 SLOAD PUSH1 0x1 DUP3 ADD SLOAD PUSH1 0x2 DUP4 ADD SLOAD PUSH1 0x3 DUP5 ADD DUP1 SLOAD SWAP4 SWAP5 SWAP3 SWAP4 PUSH1 0x1 PUSH1 0x1 PUSH1 0xA0 SHL SUB DUP4 AND SWAP4 PUSH1 0x1 PUSH1 0xA0 SHL SWAP1 SWAP4 DIV PUSH1 0xFF AND SWAP3 SWAP2 SWAP1 PUSH2 0xA56 SWAP1 PUSH2 0x183C JUMP JUMPDEST PUSH1 0x60 PUSH1 0x7 DUP1 SLOAD DUP1 PUSH1 0x20 MUL PUSH1 0x20 ADD PUSH1 0x40 MLOAD SWAP1 DUP2 ADD PUSH1 0x40 MSTORE DUP1 SWAP3 SWAP2 SWAP1 DUP2 DUP2 MSTORE PUSH1 0x20 ADD PUSH0 SWAP1 JUMPDEST DUP3 DUP3 LT ISZERO PUSH2 0xB93 JUMPI PUSH0 DUP5 DUP2 MSTORE PUSH1 0x20 SWAP1 DUP2 SWAP1 KECCAK256 PUSH1 0x40 DUP1 MLOAD PUSH1 0x60 DUP2 ADD DUP3 MSTORE PUSH1 0x3 DUP7 MUL SWAP1 SWAP3 ADD DUP1 SLOAD DUP4 MSTORE PUSH1 0x1 DUP1 DUP3 ADD SLOAD PUSH1 0x1 PUSH1 0x1 PUSH1 0xA0 SHL SUB AND DUP5 DUP7 ADD MSTORE PUSH1 0x2 SWAP1 SWAP2 ADD SLOAD SWAP2 DUP4 ADD SWAP2 SWAP1 SWAP2 MSTORE SWAP1 DUP4 MSTORE SWAP1 SWAP3 ADD SWAP2 ADD PUSH2 0xB3F JUMP JUMPDEST POP POP POP POP SWAP1 POP SWAP1 JUMP JUMPDEST PUSH1 0x60 PUSH1 0x4 DUP1 SLOAD PUSH2 0x524 SWAP1 PUSH2 0x183C JUMP JUMPDEST PUSH1 0x7 DUP2 DUP2 SLOAD DUP2 LT PUSH2 0xBBA JUMPI PUSH0 DUP1 REVERT JUMPDEST PUSH0 SWAP2 DUP3 MSTORE PUSH1 0x20 SWAP1 SWAP2 KECCAK256 PUSH1 0x3 SWAP1 SWAP2 MUL ADD DUP1 SLOAD PUSH1 0x1 DUP3 ADD SLOAD PUSH1 0x2 SWAP1 SWAP3 ADD SLOAD SWAP1 SWAP3 POP PUSH1 0x1 PUSH1 0x1 PUSH1 0xA0 SHL SUB SWAP1 SWAP2 AND SWAP1 DUP4 JUMP JUMPDEST PUSH2 0xC19 PUSH1 0x40 DUP1 MLOAD PUSH1 0xA0 DUP2 ADD DUP3 MSTORE PUSH0 DUP1 DUP3 MSTORE PUSH1 0x20 DUP3 ADD DUP2 SWAP1 MSTORE SWAP2 DUP2 ADD DUP3 SWAP1 MSTORE SWAP1 PUSH1 0x60 DUP3 ADD SWAP1 DUP2 MSTORE PUSH1 0x20 ADD PUSH1 0x60 DUP2 MSTORE POP SWAP1 JUMP JUMPDEST PUSH0 DUP3 DUP2 MSTORE PUSH1 0x8 PUSH1 0x20 SWAP1 DUP2 MSTORE PUSH1 0x40 SWAP2 DUP3 SWAP1 KECCAK256 DUP3 MLOAD PUSH1 0xA0 DUP2 ADD DUP5 MSTORE DUP2 SLOAD DUP2 MSTORE PUSH1 0x1 DUP3 ADD SLOAD SWAP3 DUP2 ADD SWAP3 SWAP1 SWAP3 MSTORE PUSH1 0x2 DUP1 DUP3 ADD SLOAD PUSH1 0x1 PUSH1 0x1 PUSH1 0xA0 SHL SUB DUP2 AND SWAP5 DUP5 ADD SWAP5 SWAP1 SWAP5 MSTORE SWAP2 SWAP3 SWAP1 SWAP2 PUSH1 0x60 DUP5 ADD SWAP2 PUSH1 0x1 PUSH1 0xA0 SHL SWAP1 DIV PUSH1 0xFF AND SWAP1 DUP2 GT ISZERO PUSH2 0x942 JUMPI PUSH2 0x942 PUSH2 0x1614 JUMP JUMPDEST PUSH0 CALLER PUSH2 0x5B2 DUP2 DUP6 DUP6 PUSH2 0x10E1 JUMP JUMPDEST PUSH1 0x9 PUSH1 0x20 MSTORE PUSH0 SWAP1 DUP2 MSTORE PUSH1 0x40 SWAP1 KECCAK256 DUP1 SLOAD PUSH1 0x1 DUP3 ADD SLOAD PUSH1 0x2 DUP4 ADD SLOAD PUSH1 0x3 DUP5 ADD DUP1 SLOAD SWAP4 SWAP5 SWAP3 SWAP4 PUSH1 0x1 PUSH1 0x1 PUSH1 0xA0 SHL SUB DUP4 AND SWAP4 PUSH1 0x1 PUSH1 0xA0 SHL SWAP1 SWAP4 DIV PUSH1 0xFF AND SWAP3 SWAP2 SWAP1 PUSH2 0xA56 SWAP1 PUSH2 0x183C JUMP JUMPDEST PUSH1 0x6 SLOAD PUSH1 0x1 PUSH1 0x1 PUSH1 0xA0 SHL SUB AND CALLER EQ PUSH2 0xD34 JUMPI PUSH1 0x40 MLOAD PUSH3 0x461BCD PUSH1 0xE5 SHL DUP2 MSTORE PUSH1 0x20 PUSH1 0x4 DUP3 ADD MSTORE PUSH1 0x24 DUP1 DUP3 ADD MSTORE PUSH32 0x536C696365546F6B656E3A204F6E6C7920536C69636520436F72652063616E20 PUSH1 0x44 DUP3 ADD MSTORE PUSH4 0x18D85B1B PUSH1 0xE2 SHL PUSH1 0x64 DUP3 ADD MSTORE PUSH1 0x84 ADD PUSH2 0x621 JUMP JUMPDEST PUSH0 DUP2 DUP2 MSTORE PUSH1 0x8 PUSH1 0x20 SWAP1 DUP2 MSTORE PUSH1 0x40 DUP1 DUP4 KECCAK256 DUP2 MLOAD PUSH1 0xA0 DUP2 ADD DUP4 MSTORE DUP2 SLOAD DUP2 MSTORE PUSH1 0x1 DUP3 ADD SLOAD SWAP4 DUP2 ADD SWAP4 SWAP1 SWAP4 MSTORE PUSH1 0x2 DUP1 DUP3 ADD SLOAD PUSH1 0x1 PUSH1 0x1 PUSH1 0xA0 SHL SUB DUP2 AND SWAP4 DUP6 ADD SWAP4 SWAP1 SWAP4 MSTORE SWAP1 SWAP2 PUSH1 0x60 DUP5 ADD SWAP2 PUSH1 0x1 PUSH1 0xA0 SHL SWAP1 SWAP2 DIV PUSH1 0xFF AND SWAP1 DUP2 GT ISZERO PUSH2 0xD95 JUMPI PUSH2 0xD95 PUSH2 0x1614 JUMP JUMPDEST PUSH1 0x2 DUP2 GT ISZERO PUSH2 0xDA6 JUMPI PUSH2 0xDA6 PUSH2 0x1614 JUMP JUMPDEST DUP2 MSTORE PUSH1 0x20 ADD PUSH1 0x3 DUP3 ADD DUP1 SLOAD PUSH2 0xDBA SWAP1 PUSH2 0x183C JUMP JUMPDEST DUP1 PUSH1 0x1F ADD PUSH1 0x20 DUP1 SWAP2 DIV MUL PUSH1 0x20 ADD PUSH1 0x40 MLOAD SWAP1 DUP2 ADD PUSH1 0x40 MSTORE DUP1 SWAP3 SWAP2 SWAP1 DUP2 DUP2 MSTORE PUSH1 0x20 ADD DUP3 DUP1 SLOAD PUSH2 0xDE6 SWAP1 PUSH2 0x183C JUMP JUMPDEST DUP1 ISZERO PUSH2 0xE31 JUMPI DUP1 PUSH1 0x1F LT PUSH2 0xE08 JUMPI PUSH2 0x100 DUP1 DUP4 SLOAD DIV MUL DUP4 MSTORE SWAP2 PUSH1 0x20 ADD SWAP2 PUSH2 0xE31 JUMP JUMPDEST DUP3 ADD SWAP2 SWAP1 PUSH0 MSTORE PUSH1 0x20 PUSH0 KECCAK256 SWAP1 JUMPDEST DUP2 SLOAD DUP2 MSTORE SWAP1 PUSH1 0x1 ADD SWAP1 PUSH1 0x20 ADD DUP1 DUP4 GT PUSH2 0xE14 JUMPI DUP3 SWAP1 SUB PUSH1 0x1F AND DUP3 ADD SWAP2 JUMPDEST POP POP POP SWAP2 SWAP1 SWAP3 MSTORE POP POP DUP2 MLOAD SWAP2 SWAP3 POP PUSH2 0xE8D SWAP1 POP JUMPI PUSH1 0x40 MLOAD PUSH3 0x461BCD PUSH1 0xE5 SHL DUP2 MSTORE PUSH1 0x20 PUSH1 0x4 DUP3 ADD MSTORE PUSH1 0x1B PUSH1 0x24 DUP3 ADD MSTORE PUSH32 0x536C696365546F6B656E3A20496E76616C6964206D696E742049440000000000 PUSH1 0x44 DUP3 ADD MSTORE PUSH1 0x64 ADD PUSH2 0x621 JUMP JUMPDEST PUSH1 0x1 DUP2 PUSH1 0x60 ADD MLOAD PUSH1 0x2 DUP2 GT ISZERO PUSH2 0xEA5 JUMPI PUSH2 0xEA5 PUSH2 0x1614 JUMP JUMPDEST EQ PUSH2 0xF04 JUMPI PUSH1 0x40 MLOAD PUSH3 0x461BCD PUSH1 0xE5 SHL DUP2 MSTORE PUSH1 0x20 PUSH1 0x4 DUP3 ADD MSTORE PUSH1 0x29 PUSH1 0x24 DUP3 ADD MSTORE PUSH32 0x536C696365546F6B656E3A205472616E73616374696F6E207374617465206973 PUSH1 0x44 DUP3 ADD MSTORE PUSH9 0x103737BA1037B832B7 PUSH1 0xB9 SHL PUSH1 0x64 DUP3 ADD MSTORE PUSH1 0x84 ADD PUSH2 0x621 JUMP JUMPDEST PUSH0 DUP3 DUP2 MSTORE PUSH1 0x8 PUSH1 0x20 MSTORE PUSH1 0x40 SWAP1 KECCAK256 PUSH1 0x2 SWAP1 DUP2 ADD DUP1 SLOAD PUSH1 0xFF PUSH1 0xA0 SHL NOT AND PUSH1 0x1 PUSH1 0xA0 SHL DUP4 MUL OR SWAP1 SSTORE POP PUSH2 0xF3C DUP2 PUSH1 0x40 ADD MLOAD DUP3 PUSH1 0x20 ADD MLOAD PUSH2 0x113E JUMP JUMPDEST DUP1 PUSH1 0x20 ADD MLOAD DUP2 PUSH1 0x40 ADD MLOAD PUSH1 0x1 PUSH1 0x1 PUSH1 0xA0 SHL SUB AND PUSH32 0xA61FDFB9F0C74C4B68B88685011450E9D2D293083BF9209C523A5E0B50ED7FE4 PUSH1 0x40 MLOAD PUSH1 0x40 MLOAD DUP1 SWAP2 SUB SWAP1 LOG3 POP POP JUMP JUMPDEST PUSH2 0xFB0 PUSH1 0x40 DUP1 MLOAD PUSH1 0xA0 DUP2 ADD DUP3 MSTORE PUSH0 DUP1 DUP3 MSTORE PUSH1 0x20 DUP3 ADD DUP2 SWAP1 MSTORE SWAP2 DUP2 ADD DUP3 SWAP1 MSTORE SWAP1 PUSH1 0x60 DUP3 ADD SWAP1 DUP2 MSTORE PUSH1 0x20 ADD PUSH1 0x60 DUP2 MSTORE POP SWAP1 JUMP JUMPDEST PUSH0 DUP3 DUP2 MSTORE PUSH1 0xA PUSH1 0x20 SWAP1 DUP2 MSTORE PUSH1 0x40 SWAP2 DUP3 SWAP1 KECCAK256 DUP3 MLOAD PUSH1 0xA0 DUP2 ADD DUP5 MSTORE DUP2 SLOAD DUP2 MSTORE PUSH1 0x1 DUP3 ADD SLOAD SWAP3 DUP2 ADD SWAP3 SWAP1 SWAP3 MSTORE PUSH1 0x2 DUP1 DUP3 ADD SLOAD PUSH1 0x1 PUSH1 0x1 PUSH1 0xA0 SHL SUB DUP2 AND SWAP5 DUP5 ADD SWAP5 SWAP1 SWAP5 MSTORE SWAP2 SWAP3 SWAP1 SWAP2 PUSH1 0x60 DUP5 ADD SWAP2 PUSH1 0x1 PUSH1 0xA0 SHL SWAP1 DIV PUSH1 0xFF AND SWAP1 DUP2 GT ISZERO PUSH2 0x942 JUMPI PUSH2 0x942 PUSH2 0x1614 JUMP JUMPDEST PUSH2 0x1020 DUP4 DUP4 DUP4 PUSH1 0x1 PUSH2 0x1176 JUMP JUMPDEST POP POP POP JUMP JUMPDEST PUSH0 DUP1 JUMPDEST DUP3 MLOAD DUP2 LT ISZERO PUSH2 0x1060 JUMPI DUP3 DUP2 DUP2 MLOAD DUP2 LT PUSH2 0x1043 JUMPI PUSH2 0x1043 PUSH2 0x1A3E JUMP JUMPDEST PUSH1 0x20 MUL PUSH1 0x20 ADD ADD MLOAD DUP3 PUSH2 0x1056 SWAP2 SWAP1 PUSH2 0x1A52 JUMP JUMPDEST SWAP2 POP PUSH1 0x1 ADD PUSH2 0x1028 JUMP JUMPDEST POP SWAP2 SWAP1 POP JUMP JUMPDEST PUSH1 0x1 PUSH1 0x1 PUSH1 0xA0 SHL SUB DUP4 DUP2 AND PUSH0 SWAP1 DUP2 MSTORE PUSH1 0x1 PUSH1 0x20 SWAP1 DUP2 MSTORE PUSH1 0x40 DUP1 DUP4 KECCAK256 SWAP4 DUP7 AND DUP4 MSTORE SWAP3 SWAP1 MSTORE KECCAK256 SLOAD PUSH0 NOT DUP2 EQ PUSH2 0x10DB JUMPI DUP2 DUP2 LT ISZERO PUSH2 0x10CD JUMPI PUSH1 0x40 MLOAD PUSH4 0x7DC7A0D9 PUSH1 0xE1 SHL DUP2 MSTORE PUSH1 0x1 PUSH1 0x1 PUSH1 0xA0 SHL SUB DUP5 AND PUSH1 0x4 DUP3 ADD MSTORE PUSH1 0x24 DUP2 ADD DUP3 SWAP1 MSTORE PUSH1 0x44 DUP2 ADD DUP4 SWAP1 MSTORE PUSH1 0x64 ADD PUSH2 0x621 JUMP JUMPDEST PUSH2 0x10DB DUP5 DUP5 DUP5 DUP5 SUB PUSH0 PUSH2 0x1176 JUMP JUMPDEST POP POP POP POP JUMP JUMPDEST PUSH1 0x1 PUSH1 0x1 PUSH1 0xA0 SHL SUB DUP4 AND PUSH2 0x110A JUMPI PUSH1 0x40 MLOAD PUSH4 0x4B637E8F PUSH1 0xE1 SHL DUP2 MSTORE PUSH0 PUSH1 0x4 DUP3 ADD MSTORE PUSH1 0x24 ADD PUSH2 0x621 JUMP JUMPDEST PUSH1 0x1 PUSH1 0x1 PUSH1 0xA0 SHL SUB DUP3 AND PUSH2 0x1133 JUMPI PUSH1 0x40 MLOAD PUSH4 0xEC442F05 PUSH1 0xE0 SHL DUP2 MSTORE PUSH0 PUSH1 0x4 DUP3 ADD MSTORE PUSH1 0x24 ADD PUSH2 0x621 JUMP JUMPDEST PUSH2 0x1020 DUP4 DUP4 DUP4 PUSH2 0x1248 JUMP JUMPDEST PUSH1 0x1 PUSH1 0x1 PUSH1 0xA0 SHL SUB DUP3 AND PUSH2 0x1167 JUMPI PUSH1 0x40 MLOAD PUSH4 0xEC442F05 PUSH1 0xE0 SHL DUP2 MSTORE PUSH0 PUSH1 0x4 DUP3 ADD MSTORE PUSH1 0x24 ADD PUSH2 0x621 JUMP JUMPDEST PUSH2 0x1172 PUSH0 DUP4 DUP4 PUSH2 0x1248 JUMP JUMPDEST POP POP JUMP JUMPDEST PUSH1 0x1 PUSH1 0x1 PUSH1 0xA0 SHL SUB DUP5 AND PUSH2 0x119F JUMPI PUSH1 0x40 MLOAD PUSH4 0xE602DF05 PUSH1 0xE0 SHL DUP2 MSTORE PUSH0 PUSH1 0x4 DUP3 ADD MSTORE PUSH1 0x24 ADD PUSH2 0x621 JUMP JUMPDEST PUSH1 0x1 PUSH1 0x1 PUSH1 0xA0 SHL SUB DUP4 AND PUSH2 0x11C8 JUMPI PUSH1 0x40 MLOAD PUSH4 0x4A1406B1 PUSH1 0xE1 SHL DUP2 MSTORE PUSH0 PUSH1 0x4 DUP3 ADD MSTORE PUSH1 0x24 ADD PUSH2 0x621 JUMP JUMPDEST PUSH1 0x1 PUSH1 0x1 PUSH1 0xA0 SHL SUB DUP1 DUP6 AND PUSH0 SWAP1 DUP2 MSTORE PUSH1 0x1 PUSH1 0x20 SWAP1 DUP2 MSTORE PUSH1 0x40 DUP1 DUP4 KECCAK256 SWAP4 DUP8 AND DUP4 MSTORE SWAP3 SWAP1 MSTORE KECCAK256 DUP3 SWAP1 SSTORE DUP1 ISZERO PUSH2 0x10DB JUMPI DUP3 PUSH1 0x1 PUSH1 0x1 PUSH1 0xA0 SHL SUB AND DUP5 PUSH1 0x1 PUSH1 0x1 PUSH1 0xA0 SHL SUB AND PUSH32 0x8C5BE1E5EBEC7D5BD14F71427D1E84F3DD0314C0F7B2291E5B200AC8C7C3B925 DUP5 PUSH1 0x40 MLOAD PUSH2 0x123A SWAP2 DUP2 MSTORE PUSH1 0x20 ADD SWAP1 JUMP JUMPDEST PUSH1 0x40 MLOAD DUP1 SWAP2 SUB SWAP1 LOG3 POP POP POP POP JUMP JUMPDEST PUSH1 0x1 PUSH1 0x1 PUSH1 0xA0 SHL SUB DUP4 AND PUSH2 0x1272 JUMPI DUP1 PUSH1 0x2 PUSH0 DUP3 DUP3 SLOAD PUSH2 0x1267 SWAP2 SWAP1 PUSH2 0x1A52 JUMP JUMPDEST SWAP1 SWAP2 SSTORE POP PUSH2 0x12E2 SWAP1 POP JUMP JUMPDEST PUSH1 0x1 PUSH1 0x1 PUSH1 0xA0 SHL SUB DUP4 AND PUSH0 SWAP1 DUP2 MSTORE PUSH1 0x20 DUP2 SWAP1 MSTORE PUSH1 0x40 SWAP1 KECCAK256 SLOAD DUP2 DUP2 LT ISZERO PUSH2 0x12C4 JUMPI PUSH1 0x40 MLOAD PUSH4 0x391434E3 PUSH1 0xE2 SHL DUP2 MSTORE PUSH1 0x1 PUSH1 0x1 PUSH1 0xA0 SHL SUB DUP6 AND PUSH1 0x4 DUP3 ADD MSTORE PUSH1 0x24 DUP2 ADD DUP3 SWAP1 MSTORE PUSH1 0x44 DUP2 ADD DUP4 SWAP1 MSTORE PUSH1 0x64 ADD PUSH2 0x621 JUMP JUMPDEST PUSH1 0x1 PUSH1 0x1 PUSH1 0xA0 SHL SUB DUP5 AND PUSH0 SWAP1 DUP2 MSTORE PUSH1 0x20 DUP2 SWAP1 MSTORE PUSH1 0x40 SWAP1 KECCAK256 SWAP1 DUP3 SWAP1 SUB SWAP1 SSTORE JUMPDEST PUSH1 0x1 PUSH1 0x1 PUSH1 0xA0 SHL SUB DUP3 AND PUSH2 0x12FE JUMPI PUSH1 0x2 DUP1 SLOAD DUP3 SWAP1 SUB SWAP1 SSTORE PUSH2 0x131C JUMP JUMPDEST PUSH1 0x1 PUSH1 0x1 PUSH1 0xA0 SHL SUB DUP3 AND PUSH0 SWAP1 DUP2 MSTORE PUSH1 0x20 DUP2 SWAP1 MSTORE PUSH1 0x40 SWAP1 KECCAK256 DUP1 SLOAD DUP3 ADD SWAP1 SSTORE JUMPDEST DUP2 PUSH1 0x1 PUSH1 0x1 PUSH1 0xA0 SHL SUB AND DUP4 PUSH1 0x1 PUSH1 0x1 PUSH1 0xA0 SHL SUB AND PUSH32 0xDDF252AD1BE2C89B69C2B068FC378DAA952BA7F163C4A11628F55A4DF523B3EF DUP4 PUSH1 0x40 MLOAD PUSH2 0x1361 SWAP2 DUP2 MSTORE PUSH1 0x20 ADD SWAP1 JUMP JUMPDEST PUSH1 0x40 MLOAD DUP1 SWAP2 SUB SWAP1 LOG3 POP POP POP JUMP JUMPDEST PUSH0 DUP2 MLOAD DUP1 DUP5 MSTORE DUP1 PUSH1 0x20 DUP5 ADD PUSH1 0x20 DUP7 ADD MCOPY PUSH0 PUSH1 0x20 DUP3 DUP7 ADD ADD MSTORE PUSH1 0x20 PUSH1 0x1F NOT PUSH1 0x1F DUP4 ADD AND DUP6 ADD ADD SWAP2 POP POP SWAP3 SWAP2 POP POP JUMP JUMPDEST PUSH1 0x20 DUP2 MSTORE PUSH0 PUSH2 0x13AE PUSH1 0x20 DUP4 ADD DUP5 PUSH2 0x136E JUMP JUMPDEST SWAP4 SWAP3 POP POP POP JUMP JUMPDEST DUP1 CALLDATALOAD PUSH1 0x1 PUSH1 0x1 PUSH1 0xA0 SHL SUB DUP2 AND DUP2 EQ PUSH2 0x13CB JUMPI PUSH0 DUP1 REVERT JUMPDEST SWAP2 SWAP1 POP JUMP JUMPDEST PUSH0 DUP1 PUSH1 0x40 DUP4 DUP6 SUB SLT ISZERO PUSH2 0x13E1 JUMPI PUSH0 DUP1 REVERT JUMPDEST PUSH2 0x13EA DUP4 PUSH2 0x13B5 JUMP JUMPDEST SWAP5 PUSH1 0x20 SWAP4 SWAP1 SWAP4 ADD CALLDATALOAD SWAP4 POP POP POP JUMP JUMPDEST PUSH4 0x4E487B71 PUSH1 0xE0 SHL PUSH0 MSTORE PUSH1 0x41 PUSH1 0x4 MSTORE PUSH1 0x24 PUSH0 REVERT JUMPDEST PUSH1 0x40 MLOAD PUSH1 0x1F DUP3 ADD PUSH1 0x1F NOT AND DUP2 ADD PUSH8 0xFFFFFFFFFFFFFFFF DUP2 GT DUP3 DUP3 LT OR ISZERO PUSH2 0x1435 JUMPI PUSH2 0x1435 PUSH2 0x13F8 JUMP JUMPDEST PUSH1 0x40 MSTORE SWAP2 SWAP1 POP JUMP JUMPDEST PUSH0 PUSH8 0xFFFFFFFFFFFFFFFF DUP3 GT ISZERO PUSH2 0x1456 JUMPI PUSH2 0x1456 PUSH2 0x13F8 JUMP JUMPDEST POP PUSH1 0x5 SHL PUSH1 0x20 ADD SWAP1 JUMP JUMPDEST PUSH0 PUSH1 0x1F DUP4 PUSH1 0x1F DUP5 ADD SLT PUSH2 0x1471 JUMPI PUSH0 DUP1 REVERT JUMPDEST DUP3 CALLDATALOAD PUSH1 0x20 PUSH2 0x1486 PUSH2 0x1481 DUP4 PUSH2 0x143D JUMP JUMPDEST PUSH2 0x140C JUMP JUMPDEST DUP3 DUP2 MSTORE PUSH1 0x5 SWAP3 SWAP1 SWAP3 SHL DUP6 ADD DUP2 ADD SWAP2 DUP2 DUP2 ADD SWAP1 DUP8 DUP5 GT ISZERO PUSH2 0x14A4 JUMPI PUSH0 DUP1 REVERT JUMPDEST DUP3 DUP8 ADD JUMPDEST DUP5 DUP2 LT ISZERO PUSH2 0x1534 JUMPI DUP1 CALLDATALOAD PUSH8 0xFFFFFFFFFFFFFFFF DUP1 DUP3 GT ISZERO PUSH2 0x14C7 JUMPI PUSH0 DUP1 REVERT JUMPDEST DUP2 DUP11 ADD SWAP2 POP DUP11 PUSH1 0x3F DUP4 ADD SLT PUSH2 0x14DA JUMPI PUSH0 DUP1 REVERT JUMPDEST DUP6 DUP3 ADD CALLDATALOAD PUSH1 0x40 DUP3 DUP3 GT ISZERO PUSH2 0x14F0 JUMPI PUSH2 0x14F0 PUSH2 0x13F8 JUMP JUMPDEST PUSH2 0x1501 DUP3 DUP12 ADD PUSH1 0x1F NOT AND DUP10 ADD PUSH2 0x140C JUMP JUMPDEST SWAP3 POP DUP2 DUP4 MSTORE DUP13 DUP2 DUP4 DUP7 ADD ADD GT ISZERO PUSH2 0x1516 JUMPI PUSH0 DUP1 REVERT JUMPDEST DUP2 DUP2 DUP6 ADD DUP10 DUP6 ADD CALLDATACOPY POP PUSH0 SWAP1 DUP3 ADD DUP8 ADD MSTORE DUP5 MSTORE POP SWAP2 DUP4 ADD SWAP2 DUP4 ADD PUSH2 0x14A8 JUMP JUMPDEST POP SWAP8 SWAP7 POP POP POP POP POP POP POP JUMP JUMPDEST PUSH0 DUP1 PUSH0 PUSH1 0x60 DUP5 DUP7 SUB SLT ISZERO PUSH2 0x1552 JUMPI PUSH0 DUP1 REVERT JUMPDEST DUP4 CALLDATALOAD SWAP3 POP PUSH1 0x20 DUP1 DUP6 ADD CALLDATALOAD PUSH8 0xFFFFFFFFFFFFFFFF DUP1 DUP3 GT ISZERO PUSH2 0x1571 JUMPI PUSH0 DUP1 REVERT JUMPDEST DUP2 DUP8 ADD SWAP2 POP DUP8 PUSH1 0x1F DUP4 ADD SLT PUSH2 0x1584 JUMPI PUSH0 DUP1 REVERT JUMPDEST DUP2 CALLDATALOAD PUSH2 0x1592 PUSH2 0x1481 DUP3 PUSH2 0x143D JUMP JUMPDEST DUP2 DUP2 MSTORE PUSH1 0x5 SWAP2 SWAP1 SWAP2 SHL DUP4 ADD DUP5 ADD SWAP1 DUP5 DUP2 ADD SWAP1 DUP11 DUP4 GT ISZERO PUSH2 0x15B0 JUMPI PUSH0 DUP1 REVERT JUMPDEST SWAP4 DUP6 ADD SWAP4 JUMPDEST DUP3 DUP6 LT ISZERO PUSH2 0x15CE JUMPI DUP5 CALLDATALOAD DUP3 MSTORE SWAP4 DUP6 ADD SWAP4 SWAP1 DUP6 ADD SWAP1 PUSH2 0x15B5 JUMP JUMPDEST SWAP7 POP POP POP PUSH1 0x40 DUP8 ADD CALLDATALOAD SWAP3 POP DUP1 DUP4 GT ISZERO PUSH2 0x15E5 JUMPI PUSH0 DUP1 REVERT JUMPDEST POP POP PUSH2 0x15F3 DUP7 DUP3 DUP8 ADD PUSH2 0x1460 JUMP JUMPDEST SWAP2 POP POP SWAP3 POP SWAP3 POP SWAP3 JUMP JUMPDEST PUSH0 PUSH1 0x20 DUP3 DUP5 SUB SLT ISZERO PUSH2 0x160D JUMPI PUSH0 DUP1 REVERT JUMPDEST POP CALLDATALOAD SWAP2 SWAP1 POP JUMP JUMPDEST PUSH4 0x4E487B71 PUSH1 0xE0 SHL PUSH0 MSTORE PUSH1 0x21 PUSH1 0x4 MSTORE PUSH1 0x24 PUSH0 REVERT JUMPDEST PUSH1 0x3 DUP2 LT PUSH2 0x1644 JUMPI PUSH4 0x4E487B71 PUSH1 0xE0 SHL PUSH0 MSTORE PUSH1 0x21 PUSH1 0x4 MSTORE PUSH1 0x24 PUSH0 REVERT JUMPDEST SWAP1 MSTORE JUMP JUMPDEST PUSH1 0x20 DUP2 MSTORE DUP2 MLOAD PUSH1 0x20 DUP3 ADD MSTORE PUSH1 0x20 DUP3 ADD MLOAD PUSH1 0x40 DUP3 ADD MSTORE PUSH1 0x1 DUP1 PUSH1 0xA0 SHL SUB PUSH1 0x40 DUP4 ADD MLOAD AND PUSH1 0x60 DUP3 ADD MSTORE PUSH0 PUSH1 0x60 DUP4 ADD MLOAD PUSH2 0x1682 PUSH1 0x80 DUP5 ADD DUP3 PUSH2 0x1628 JUMP JUMPDEST POP PUSH1 0x80 DUP4 ADD MLOAD PUSH1 0xA0 DUP1 DUP5 ADD MSTORE PUSH2 0x169B PUSH1 0xC0 DUP5 ADD DUP3 PUSH2 0x136E JUMP JUMPDEST SWAP5 SWAP4 POP POP POP POP JUMP JUMPDEST PUSH0 DUP1 PUSH1 0x20 DUP4 DUP6 SUB SLT ISZERO PUSH2 0x16B4 JUMPI PUSH0 DUP1 REVERT JUMPDEST DUP3 CALLDATALOAD PUSH8 0xFFFFFFFFFFFFFFFF DUP1 DUP3 GT ISZERO PUSH2 0x16CB JUMPI PUSH0 DUP1 REVERT JUMPDEST DUP2 DUP6 ADD SWAP2 POP DUP6 PUSH1 0x1F DUP4 ADD SLT PUSH2 0x16DE JUMPI PUSH0 DUP1 REVERT JUMPDEST DUP2 CALLDATALOAD DUP2 DUP2 GT ISZERO PUSH2 0x16EC JUMPI PUSH0 DUP1 REVERT JUMPDEST DUP7 PUSH1 0x20 PUSH1 0x60 DUP4 MUL DUP6 ADD ADD GT ISZERO PUSH2 0x1700 JUMPI PUSH0 DUP1 REVERT JUMPDEST PUSH1 0x20 SWAP3 SWAP1 SWAP3 ADD SWAP7 SWAP2 SWAP6 POP SWAP1 SWAP4 POP POP POP POP JUMP JUMPDEST PUSH0 DUP1 PUSH0 PUSH1 0x60 DUP5 DUP7 SUB SLT ISZERO PUSH2 0x1724 JUMPI PUSH0 DUP1 REVERT JUMPDEST PUSH2 0x172D DUP5 PUSH2 0x13B5 JUMP JUMPDEST SWAP3 POP PUSH2 0x173B PUSH1 0x20 DUP6 ADD PUSH2 0x13B5 JUMP JUMPDEST SWAP2 POP PUSH1 0x40 DUP5 ADD CALLDATALOAD SWAP1 POP SWAP3 POP SWAP3 POP SWAP3 JUMP JUMPDEST DUP6 DUP2 MSTORE PUSH1 0x20 DUP2 ADD DUP6 SWAP1 MSTORE PUSH1 0x1 PUSH1 0x1 PUSH1 0xA0 SHL SUB DUP5 AND PUSH1 0x40 DUP3 ADD MSTORE PUSH2 0x1771 PUSH1 0x60 DUP3 ADD DUP5 PUSH2 0x1628 JUMP JUMPDEST PUSH1 0xA0 PUSH1 0x80 DUP3 ADD MSTORE PUSH0 PUSH2 0x1786 PUSH1 0xA0 DUP4 ADD DUP5 PUSH2 0x136E JUMP JUMPDEST SWAP8 SWAP7 POP POP POP POP POP POP POP JUMP JUMPDEST PUSH0 PUSH1 0x20 DUP3 DUP5 SUB SLT ISZERO PUSH2 0x17A1 JUMPI PUSH0 DUP1 REVERT JUMPDEST PUSH2 0x13AE DUP3 PUSH2 0x13B5 JUMP JUMPDEST PUSH1 0x20 DUP1 DUP3 MSTORE DUP3 MLOAD DUP3 DUP3 ADD DUP2 SWAP1 MSTORE PUSH0 SWAP2 SWAP1 PUSH1 0x40 SWAP1 DUP2 DUP6 ADD SWAP1 DUP7 DUP5 ADD DUP6 JUMPDEST DUP3 DUP2 LT ISZERO PUSH2 0x17FE JUMPI DUP2 MLOAD DUP1 MLOAD DUP6 MSTORE DUP7 DUP2 ADD MLOAD PUSH1 0x1 PUSH1 0x1 PUSH1 0xA0 SHL SUB AND DUP8 DUP7 ADD MSTORE DUP6 ADD MLOAD DUP6 DUP6 ADD MSTORE PUSH1 0x60 SWAP1 SWAP4 ADD SWAP3 SWAP1 DUP6 ADD SWAP1 PUSH1 0x1 ADD PUSH2 0x17C6 JUMP JUMPDEST POP SWAP2 SWAP8 SWAP7 POP POP POP POP POP POP POP JUMP JUMPDEST PUSH0 DUP1 PUSH1 0x40 DUP4 DUP6 SUB SLT ISZERO PUSH2 0x181C JUMPI PUSH0 DUP1 REVERT JUMPDEST PUSH2 0x1825 DUP4 PUSH2 0x13B5 JUMP JUMPDEST SWAP2 POP PUSH2 0x1833 PUSH1 0x20 DUP5 ADD PUSH2 0x13B5 JUMP JUMPDEST SWAP1 POP SWAP3 POP SWAP3 SWAP1 POP JUMP JUMPDEST PUSH1 0x1 DUP2 DUP2 SHR SWAP1 DUP3 AND DUP1 PUSH2 0x1850 JUMPI PUSH1 0x7F DUP3 AND SWAP2 POP JUMPDEST PUSH1 0x20 DUP3 LT DUP2 SUB PUSH2 0x1060 JUMPI PUSH4 0x4E487B71 PUSH1 0xE0 SHL PUSH0 MSTORE PUSH1 0x22 PUSH1 0x4 MSTORE PUSH1 0x24 PUSH0 REVERT JUMPDEST PUSH0 PUSH1 0x20 DUP3 DUP5 SUB SLT ISZERO PUSH2 0x187E JUMPI PUSH0 DUP1 REVERT JUMPDEST DUP2 MLOAD DUP1 ISZERO ISZERO DUP2 EQ PUSH2 0x13AE JUMPI PUSH0 DUP1 REVERT JUMPDEST PUSH1 0x1F DUP3 GT ISZERO PUSH2 0x1020 JUMPI DUP1 PUSH0 MSTORE PUSH1 0x20 PUSH0 KECCAK256 PUSH1 0x1F DUP5 ADD PUSH1 0x5 SHR DUP2 ADD PUSH1 0x20 DUP6 LT ISZERO PUSH2 0x18B2 JUMPI POP DUP1 JUMPDEST PUSH1 0x1F DUP5 ADD PUSH1 0x5 SHR DUP3 ADD SWAP2 POP JUMPDEST DUP2 DUP2 LT ISZERO PUSH2 0x18D1 JUMPI PUSH0 DUP2 SSTORE PUSH1 0x1 ADD PUSH2 0x18BE JUMP JUMPDEST POP POP POP POP POP JUMP JUMPDEST DUP2 MLOAD PUSH8 0xFFFFFFFFFFFFFFFF DUP2 GT ISZERO PUSH2 0x18F2 JUMPI PUSH2 0x18F2 PUSH2 0x13F8 JUMP JUMPDEST PUSH2 0x1906 DUP2 PUSH2 0x1900 DUP5 SLOAD PUSH2 0x183C JUMP JUMPDEST DUP5 PUSH2 0x188D JUMP JUMPDEST PUSH1 0x20 DUP1 PUSH1 0x1F DUP4 GT PUSH1 0x1 DUP2 EQ PUSH2 0x1939 JUMPI PUSH0 DUP5 ISZERO PUSH2 0x1922 JUMPI POP DUP6 DUP4 ADD MLOAD JUMPDEST PUSH0 NOT PUSH1 0x3 DUP7 SWAP1 SHL SHR NOT AND PUSH1 0x1 DUP6 SWAP1 SHL OR DUP6 SSTORE PUSH2 0x1990 JUMP JUMPDEST PUSH0 DUP6 DUP2 MSTORE PUSH1 0x20 DUP2 KECCAK256 PUSH1 0x1F NOT DUP7 AND SWAP2 JUMPDEST DUP3 DUP2 LT ISZERO PUSH2 0x1967 JUMPI DUP9 DUP7 ADD MLOAD DUP3 SSTORE SWAP5 DUP5 ADD SWAP5 PUSH1 0x1 SWAP1 SWAP2 ADD SWAP1 DUP5 ADD PUSH2 0x1948 JUMP JUMPDEST POP DUP6 DUP3 LT ISZERO PUSH2 0x1984 JUMPI DUP8 DUP6 ADD MLOAD PUSH0 NOT PUSH1 0x3 DUP9 SWAP1 SHL PUSH1 0xF8 AND SHR NOT AND DUP2 SSTORE JUMPDEST POP POP PUSH1 0x1 DUP5 PUSH1 0x1 SHL ADD DUP6 SSTORE JUMPDEST POP POP POP POP POP POP JUMP JUMPDEST PUSH0 PUSH1 0x80 DUP3 ADD DUP7 DUP4 MSTORE PUSH1 0x20 DUP7 DUP2 DUP6 ADD MSTORE PUSH1 0x80 PUSH1 0x40 DUP6 ADD MSTORE DUP2 DUP7 MLOAD DUP1 DUP5 MSTORE PUSH1 0xA0 DUP7 ADD SWAP2 POP DUP3 DUP9 ADD SWAP4 POP PUSH0 JUMPDEST DUP2 DUP2 LT ISZERO PUSH2 0x19DD JUMPI DUP5 MLOAD DUP4 MSTORE SWAP4 DUP4 ADD SWAP4 SWAP2 DUP4 ADD SWAP2 PUSH1 0x1 ADD PUSH2 0x19C1 JUMP JUMPDEST POP POP DUP5 DUP2 SUB PUSH1 0x60 DUP7 ADD MSTORE DUP6 MLOAD DUP1 DUP3 MSTORE DUP3 DUP3 ADD SWAP4 POP PUSH1 0x5 DUP2 SWAP1 SHL DUP3 ADD DUP4 ADD DUP4 DUP9 ADD PUSH0 JUMPDEST DUP4 DUP2 LT ISZERO PUSH2 0x1A2D JUMPI PUSH1 0x1F NOT DUP6 DUP5 SUB ADD DUP8 MSTORE PUSH2 0x1A1B DUP4 DUP4 MLOAD PUSH2 0x136E JUMP JUMPDEST SWAP7 DUP7 ADD SWAP7 SWAP3 POP SWAP1 DUP6 ADD SWAP1 PUSH1 0x1 ADD PUSH2 0x19FF JUMP JUMPDEST POP SWAP1 SWAP12 SWAP11 POP POP POP POP POP POP POP POP POP POP POP JUMP JUMPDEST PUSH4 0x4E487B71 PUSH1 0xE0 SHL PUSH0 MSTORE PUSH1 0x32 PUSH1 0x4 MSTORE PUSH1 0x24 PUSH0 REVERT JUMPDEST DUP1 DUP3 ADD DUP1 DUP3 GT ISZERO PUSH2 0x5B8 JUMPI PUSH4 0x4E487B71 PUSH1 0xE0 SHL PUSH0 MSTORE PUSH1 0x11 PUSH1 0x4 MSTORE PUSH1 0x24 PUSH0 REVERT INVALID LOG2 PUSH5 0x6970667358 0x22 SLT KECCAK256 0xE7 0xDD CALLDATALOAD SWAP4 PUSH26 0xA196B24D9550C4C7EC2915B4DE216AB5B6BFF974B926019C9604 PUSH26 0x64736F6C63430008190033A26469706673582212205FDD5A3539 0xD0 PUSH10 0xEDA1F8E714D86A966BFB SSTORE PUSH11 0x5A296AFF934BB6146B18EF 0xFB 0x4F PUSH5 0x736F6C6343 STOP ADDMOD NOT STOP CALLER "
		},
		"gasEstimates": {
			"creation": {
				"codeDepositCost": "4093800",
				"executionCost": "infinite",
				"totalCost": "infinite"
			},
			"external": {
				"allowInitializePath((uint32,bytes32,uint64))": "infinite",
				"approvedSliceTokenCreators(address)": "2588",
				"axelarAdapter()": "2403",
				"canCreateSlice(address)": "2584",
				"chainInfo()": "2447",
				"changeApprovedSliceTokenCreator(address,bool)": "infinite",
				"changeSliceTokenCreationEnabled(bool)": "26751",
				"composeMsgSender()": "344",
				"createSlice(string,string,(uint256,address,uint256)[])": "infinite",
				"endpoint()": "infinite",
				"getRegisteredSliceToken(uint256)": "4747",
				"getRegisteredSliceTokens()": "infinite",
				"getRegisteredSliceTokensCount()": "2359",
				"isSliceTokenRegistered(address)": "2630",
				"isTokenCreationEnabled()": "2377",
				"lzEndpoint()": "infinite",
				"lzReceive((uint32,bytes32,uint64),bytes32,bytes,address,bytes)": "infinite",
				"lzSendOpts()": "infinite",
				"nextNonce(uint32,bytes32)": "527",
				"oAppVersion()": "274",
				"onPayloadReceive(bytes)": "infinite",
				"owner()": "2397",
				"partnerSliceCore()": "2381",
				"payloadGas()": "2340",
				"paymentToken()": "2426",
				"peers(uint32)": "2543",
				"purchaseUnderlyingAssets(bytes32,uint256,uint256[],bytes[])": "infinite",
				"rebalanceUnderlying(bytes32,(uint256,address,uint256)[])": "530",
				"redeemUnderlying(bytes32,(bytes32,uint256,address,uint8,bytes))": "infinite",
				"registeredSliceTokens(address)": "2610",
				"registeredSliceTokensArray(uint256)": "4744",
				"registeredSliceTokensCount()": "2384",
				"renounceOwnership()": "infinite",
				"setDelegate(address)": "infinite",
				"setLzSendOpts(bytes)": "infinite",
				"setPartner(address)": "26771",
				"setPayloadGas(uint256)": "24597",
				"setPeer(uint32,bytes32)": "26127",
				"stargateAdapter()": "2470",
				"sushiXSwap()": "2448",
				"transferOwnership(address)": "infinite"
			},
			"internal": {
				"_lzReceive(struct Origin calldata,bytes32,bytes calldata,address,bytes calldata)": "infinite",
				"checkPendingTransactionCompleteSignals(bytes32)": "infinite",
				"createAdapterData(struct Chain memory,uint256,uint256)": "infinite",
				"createPayloadDataEncoded(bytes32,address,uint256,bytes memory)": "infinite",
				"createRouteProcessorDataEncoded(struct Chain memory,address,uint256,bytes memory)": "infinite",
				"executeCrossChainSwap(bytes32,address,uint256,uint256,struct Position memory,struct SliceTransactionInfo memory,bytes memory)": "infinite",
				"executeLocalSwap(address,uint256,uint256,struct Position memory,bytes memory)": "infinite",
				"getGasNeeded(uint16,address,bytes memory,bytes memory)": "infinite",
				"isPositionLocal(struct Position memory)": "infinite"
			}
		},
		"methodIdentifiers": {
			"allowInitializePath((uint32,bytes32,uint64))": "ff7bd03d",
			"approvedSliceTokenCreators(address)": "ead4c477",
			"axelarAdapter()": "c06ac447",
			"canCreateSlice(address)": "dbf0b01a",
			"chainInfo()": "d1e90a7c",
			"changeApprovedSliceTokenCreator(address,bool)": "a7dbb845",
			"changeSliceTokenCreationEnabled(bool)": "6e3f5447",
			"composeMsgSender()": "b92d0eff",
			"createSlice(string,string,(uint256,address,uint256)[])": "290dfdb2",
			"endpoint()": "5e280f11",
			"getRegisteredSliceToken(uint256)": "f476b41a",
			"getRegisteredSliceTokens()": "982c26d4",
			"getRegisteredSliceTokensCount()": "3a3e8443",
			"isSliceTokenRegistered(address)": "8fb84f31",
			"isTokenCreationEnabled()": "2cdcd190",
			"lzEndpoint()": "b353aaa7",
			"lzReceive((uint32,bytes32,uint64),bytes32,bytes,address,bytes)": "13137d65",
			"lzSendOpts()": "272a58d2",
			"nextNonce(uint32,bytes32)": "7d25a05e",
			"oAppVersion()": "17442b70",
			"onPayloadReceive(bytes)": "a6ac3db6",
			"owner()": "8da5cb5b",
			"partnerSliceCore()": "65c3cd58",
			"payloadGas()": "29ef0dc7",
			"paymentToken()": "3013ce29",
			"peers(uint32)": "bb0b6a53",
			"purchaseUnderlyingAssets(bytes32,uint256,uint256[],bytes[])": "3a135554",
			"rebalanceUnderlying(bytes32,(uint256,address,uint256)[])": "0993035c",
			"redeemUnderlying(bytes32,(bytes32,uint256,address,uint8,bytes))": "82c325d2",
			"registeredSliceTokens(address)": "ecf7a79d",
			"registeredSliceTokensArray(uint256)": "d8078b8a",
			"registeredSliceTokensCount()": "5609b29d",
			"renounceOwnership()": "715018a6",
			"setDelegate(address)": "ca5eb5e1",
			"setLzSendOpts(bytes)": "7255f81b",
			"setPartner(address)": "a16d5960",
			"setPayloadGas(uint256)": "9231174e",
			"setPeer(uint32,bytes32)": "3400288b",
			"stargateAdapter()": "628cda6d",
			"sushiXSwap()": "31263ae1",
			"transferOwnership(address)": "f2fde38b"
		}
	},
	"abi": [
		{
			"inputs": [
				{
					"internalType": "address",
					"name": "_user",
					"type": "address"
				},
				{
					"internalType": "bool",
					"name": "_isApproved",
					"type": "bool"
				}
			],
			"name": "changeApprovedSliceTokenCreator",
			"outputs": [],
			"stateMutability": "nonpayable",
			"type": "function"
		},
		{
			"inputs": [
				{
					"internalType": "bool",
					"name": "_isEnabled",
					"type": "bool"
				}
			],
			"name": "changeSliceTokenCreationEnabled",
			"outputs": [],
			"stateMutability": "nonpayable",
			"type": "function"
		},
		{
			"inputs": [
				{
					"internalType": "string",
					"name": "_name",
					"type": "string"
				},
				{
					"internalType": "string",
					"name": "_symbol",
					"type": "string"
				},
				{
					"components": [
						{
							"internalType": "uint256",
							"name": "chainId",
							"type": "uint256"
						},
						{
							"internalType": "address",
							"name": "token",
							"type": "address"
						},
						{
							"internalType": "uint256",
							"name": "units",
							"type": "uint256"
						}
					],
					"internalType": "struct Position[]",
					"name": "_positions",
					"type": "tuple[]"
				}
			],
			"name": "createSlice",
			"outputs": [
				{
					"internalType": "address",
					"name": "",
					"type": "address"
				}
			],
			"stateMutability": "nonpayable",
			"type": "function"
		},
		{
			"inputs": [
				{
					"internalType": "address",
					"name": "_paymentToken",
					"type": "address"
				},
				{
					"internalType": "address",
					"name": "_sushiXSwap",
					"type": "address"
				},
				{
					"internalType": "address",
					"name": "_stargateAdapter",
					"type": "address"
				},
				{
					"internalType": "address",
					"name": "_axelarAdapter",
					"type": "address"
				},
				{
					"internalType": "address",
					"name": "_partner",
					"type": "address"
				},
				{
					"internalType": "address",
					"name": "_lzEndpoint",
					"type": "address"
				},
				{
					"internalType": "address",
					"name": "_chainInfo",
					"type": "address"
				}
			],
			"stateMutability": "nonpayable",
			"type": "constructor"
		},
		{
			"inputs": [],
			"name": "InvalidDelegate",
			"type": "error"
		},
		{
			"inputs": [],
			"name": "InvalidEndpointCall",
			"type": "error"
		},
		{
			"inputs": [
				{
					"components": [
						{
							"internalType": "uint32",
							"name": "srcEid",
							"type": "uint32"
						},
						{
							"internalType": "bytes32",
							"name": "sender",
							"type": "bytes32"
						},
						{
							"internalType": "uint64",
							"name": "nonce",
							"type": "uint64"
						}
					],
					"internalType": "struct Origin",
					"name": "_origin",
					"type": "tuple"
				},
				{
					"internalType": "bytes32",
					"name": "_guid",
					"type": "bytes32"
				},
				{
					"internalType": "bytes",
					"name": "_message",
					"type": "bytes"
				},
				{
					"internalType": "address",
					"name": "_executor",
					"type": "address"
				},
				{
					"internalType": "bytes",
					"name": "_extraData",
					"type": "bytes"
				}
			],
			"name": "lzReceive",
			"outputs": [],
			"stateMutability": "payable",
			"type": "function"
		},
		{
			"inputs": [],
			"name": "LzTokenUnavailable",
			"type": "error"
		},
		{
			"inputs": [
				{
					"internalType": "uint32",
					"name": "eid",
					"type": "uint32"
				}
			],
			"name": "NoPeer",
			"type": "error"
		},
		{
			"inputs": [
				{
					"internalType": "uint256",
					"name": "msgValue",
					"type": "uint256"
				}
			],
			"name": "NotEnoughNative",
			"type": "error"
		},
		{
			"inputs": [
				{
					"internalType": "address",
					"name": "addr",
					"type": "address"
				}
			],
			"name": "OnlyEndpoint",
			"type": "error"
		},
		{
			"inputs": [
				{
					"internalType": "uint32",
					"name": "eid",
					"type": "uint32"
				},
				{
					"internalType": "bytes32",
					"name": "sender",
					"type": "bytes32"
				}
			],
			"name": "OnlyPeer",
			"type": "error"
		},
		{
			"inputs": [
				{
					"internalType": "bytes",
					"name": "_data",
					"type": "bytes"
				}
			],
			"name": "onPayloadReceive",
			"outputs": [],
			"stateMutability": "payable",
			"type": "function"
		},
		{
			"inputs": [
				{
					"internalType": "address",
					"name": "owner",
					"type": "address"
				}
			],
			"name": "OwnableInvalidOwner",
			"type": "error"
		},
		{
			"inputs": [
				{
					"internalType": "address",
					"name": "account",
					"type": "address"
				}
			],
			"name": "OwnableUnauthorizedAccount",
			"type": "error"
		},
		{
			"anonymous": false,
			"inputs": [
				{
					"indexed": true,
					"internalType": "address",
					"name": "previousOwner",
					"type": "address"
				},
				{
					"indexed": true,
					"internalType": "address",
					"name": "newOwner",
					"type": "address"
				}
			],
			"name": "OwnershipTransferred",
			"type": "event"
		},
		{
			"anonymous": false,
			"inputs": [
				{
					"indexed": false,
					"internalType": "uint32",
					"name": "eid",
					"type": "uint32"
				},
				{
					"indexed": false,
					"internalType": "bytes32",
					"name": "peer",
					"type": "bytes32"
				}
			],
			"name": "PeerSet",
			"type": "event"
		},
		{
			"inputs": [
				{
					"internalType": "bytes32",
					"name": "_mintID",
					"type": "bytes32"
				},
				{
					"internalType": "uint256",
					"name": "_sliceTokenQuantity",
					"type": "uint256"
				},
				{
					"internalType": "uint256[]",
					"name": "_maxEstimatedPrices",
					"type": "uint256[]"
				},
				{
					"internalType": "bytes[]",
					"name": "_routes",
					"type": "bytes[]"
				}
			],
			"name": "purchaseUnderlyingAssets",
			"outputs": [],
			"stateMutability": "payable",
			"type": "function"
		},
		{
			"inputs": [
				{
					"internalType": "bytes32",
					"name": "_rebalanceID",
					"type": "bytes32"
				},
				{
					"components": [
						{
							"internalType": "uint256",
							"name": "chainId",
							"type": "uint256"
						},
						{
							"internalType": "address",
							"name": "token",
							"type": "address"
						},
						{
							"internalType": "uint256",
							"name": "units",
							"type": "uint256"
						}
					],
					"internalType": "struct Position[]",
					"name": "_positions",
					"type": "tuple[]"
				}
			],
			"name": "rebalanceUnderlying",
			"outputs": [],
			"stateMutability": "nonpayable",
			"type": "function"
		},
		{
			"inputs": [
				{
					"internalType": "bytes32",
					"name": "_redeemID",
					"type": "bytes32"
				},
				{
					"components": [
						{
							"internalType": "bytes32",
							"name": "id",
							"type": "bytes32"
						},
						{
							"internalType": "uint256",
							"name": "quantity",
							"type": "uint256"
						},
						{
							"internalType": "address",
							"name": "user",
							"type": "address"
						},
						{
							"internalType": "enum TransactionState",
							"name": "state",
							"type": "uint8"
						},
						{
							"internalType": "bytes",
							"name": "data",
							"type": "bytes"
						}
					],
					"internalType": "struct SliceTransactionInfo",
					"name": "_txInfo",
					"type": "tuple"
				}
			],
			"name": "redeemUnderlying",
			"outputs": [],
			"stateMutability": "nonpayable",
			"type": "function"
		},
		{
			"inputs": [],
			"name": "renounceOwnership",
			"outputs": [],
			"stateMutability": "nonpayable",
			"type": "function"
		},
		{
			"inputs": [
				{
					"internalType": "address",
					"name": "_delegate",
					"type": "address"
				}
			],
			"name": "setDelegate",
			"outputs": [],
			"stateMutability": "nonpayable",
			"type": "function"
		},
		{
			"inputs": [
				{
					"internalType": "bytes",
					"name": "_opts",
					"type": "bytes"
				}
			],
			"name": "setLzSendOpts",
			"outputs": [],
			"stateMutability": "nonpayable",
			"type": "function"
		},
		{
			"inputs": [
				{
					"internalType": "address",
					"name": "_partner",
					"type": "address"
				}
			],
			"name": "setPartner",
			"outputs": [],
			"stateMutability": "nonpayable",
			"type": "function"
		},
		{
			"inputs": [
				{
					"internalType": "uint256",
					"name": "_payloadGas",
					"type": "uint256"
				}
			],
			"name": "setPayloadGas",
			"outputs": [],
			"stateMutability": "nonpayable",
			"type": "function"
		},
		{
			"inputs": [
				{
					"internalType": "uint32",
					"name": "_eid",
					"type": "uint32"
				},
				{
					"internalType": "bytes32",
					"name": "_peer",
					"type": "bytes32"
				}
			],
			"name": "setPeer",
			"outputs": [],
			"stateMutability": "nonpayable",
			"type": "function"
		},
		{
			"anonymous": false,
			"inputs": [
				{
					"indexed": true,
					"internalType": "address",
					"name": "token",
					"type": "address"
				}
			],
			"name": "SliceTokenCreated",
			"type": "event"
		},
		{
			"inputs": [
				{
					"internalType": "address",
					"name": "newOwner",
					"type": "address"
				}
			],
			"name": "transferOwnership",
			"outputs": [],
			"stateMutability": "nonpayable",
			"type": "function"
		},
		{
			"anonymous": false,
			"inputs": [
				{
					"indexed": true,
					"internalType": "address",
					"name": "token",
					"type": "address"
				},
				{
					"indexed": true,
					"internalType": "uint256",
					"name": "sliceTokenQuantity",
					"type": "uint256"
				},
				{
					"indexed": true,
					"internalType": "address",
					"name": "owner",
					"type": "address"
				}
			],
			"name": "UnderlyingAssetsPurchased",
			"type": "event"
		},
		{
			"anonymous": false,
			"inputs": [
				{
					"indexed": true,
					"internalType": "address",
					"name": "token",
					"type": "address"
				}
			],
			"name": "UnderlyingAssetsRebalanced",
			"type": "event"
		},
		{
			"anonymous": false,
			"inputs": [
				{
					"indexed": true,
					"internalType": "address",
					"name": "token",
					"type": "address"
				},
				{
					"indexed": true,
					"internalType": "uint256",
					"name": "sliceTokenQuantity",
					"type": "uint256"
				},
				{
					"indexed": true,
					"internalType": "address",
					"name": "owner",
					"type": "address"
				}
			],
			"name": "UnderlyingAssetsRedeemed",
			"type": "event"
		},
		{
			"stateMutability": "payable",
			"type": "receive"
		},
		{
			"inputs": [
				{
					"components": [
						{
							"internalType": "uint32",
							"name": "srcEid",
							"type": "uint32"
						},
						{
							"internalType": "bytes32",
							"name": "sender",
							"type": "bytes32"
						},
						{
							"internalType": "uint64",
							"name": "nonce",
							"type": "uint64"
						}
					],
					"internalType": "struct Origin",
					"name": "origin",
					"type": "tuple"
				}
			],
			"name": "allowInitializePath",
			"outputs": [
				{
					"internalType": "bool",
					"name": "",
					"type": "bool"
				}
			],
			"stateMutability": "view",
			"type": "function"
		},
		{
			"inputs": [
				{
					"internalType": "address",
					"name": "",
					"type": "address"
				}
			],
			"name": "approvedSliceTokenCreators",
			"outputs": [
				{
					"internalType": "bool",
					"name": "",
					"type": "bool"
				}
			],
			"stateMutability": "view",
			"type": "function"
		},
		{
			"inputs": [],
			"name": "axelarAdapter",
			"outputs": [
				{
					"internalType": "address",
					"name": "",
					"type": "address"
				}
			],
			"stateMutability": "view",
			"type": "function"
		},
		{
			"inputs": [
				{
					"internalType": "address",
					"name": "_user",
					"type": "address"
				}
			],
			"name": "canCreateSlice",
			"outputs": [
				{
					"internalType": "bool",
					"name": "",
					"type": "bool"
				}
			],
			"stateMutability": "view",
			"type": "function"
		},
		{
			"inputs": [],
			"name": "chainInfo",
			"outputs": [
				{
					"internalType": "contract IChainInfo",
					"name": "",
					"type": "address"
				}
			],
			"stateMutability": "view",
			"type": "function"
		},
		{
			"inputs": [],
			"name": "composeMsgSender",
			"outputs": [
				{
					"internalType": "address",
					"name": "sender",
					"type": "address"
				}
			],
			"stateMutability": "view",
			"type": "function"
		},
		{
			"inputs": [],
			"name": "endpoint",
			"outputs": [
				{
					"internalType": "contract ILayerZeroEndpointV2",
					"name": "",
					"type": "address"
				}
			],
			"stateMutability": "view",
			"type": "function"
		},
		{
			"inputs": [
				{
					"internalType": "uint256",
					"name": "_idx",
					"type": "uint256"
				}
			],
			"name": "getRegisteredSliceToken",
			"outputs": [
				{
					"internalType": "address",
					"name": "",
					"type": "address"
				}
			],
			"stateMutability": "view",
			"type": "function"
		},
		{
			"inputs": [],
			"name": "getRegisteredSliceTokens",
			"outputs": [
				{
					"internalType": "address[]",
					"name": "",
					"type": "address[]"
				}
			],
			"stateMutability": "view",
			"type": "function"
		},
		{
			"inputs": [],
			"name": "getRegisteredSliceTokensCount",
			"outputs": [
				{
					"internalType": "uint256",
					"name": "",
					"type": "uint256"
				}
			],
			"stateMutability": "view",
			"type": "function"
		},
		{
			"inputs": [
				{
					"internalType": "address",
					"name": "_token",
					"type": "address"
				}
			],
			"name": "isSliceTokenRegistered",
			"outputs": [
				{
					"internalType": "bool",
					"name": "",
					"type": "bool"
				}
			],
			"stateMutability": "view",
			"type": "function"
		},
		{
			"inputs": [],
			"name": "isTokenCreationEnabled",
			"outputs": [
				{
					"internalType": "bool",
					"name": "",
					"type": "bool"
				}
			],
			"stateMutability": "view",
			"type": "function"
		},
		{
			"inputs": [],
			"name": "lzEndpoint",
			"outputs": [
				{
					"internalType": "address",
					"name": "",
					"type": "address"
				}
			],
			"stateMutability": "view",
			"type": "function"
		},
		{
			"inputs": [],
			"name": "lzSendOpts",
			"outputs": [
				{
					"internalType": "bytes",
					"name": "",
					"type": "bytes"
				}
			],
			"stateMutability": "view",
			"type": "function"
		},
		{
			"inputs": [
				{
					"internalType": "uint32",
					"name": "",
					"type": "uint32"
				},
				{
					"internalType": "bytes32",
					"name": "",
					"type": "bytes32"
				}
			],
			"name": "nextNonce",
			"outputs": [
				{
					"internalType": "uint64",
					"name": "nonce",
					"type": "uint64"
				}
			],
			"stateMutability": "view",
			"type": "function"
		},
		{
			"inputs": [],
			"name": "oAppVersion",
			"outputs": [
				{
					"internalType": "uint64",
					"name": "senderVersion",
					"type": "uint64"
				},
				{
					"internalType": "uint64",
					"name": "receiverVersion",
					"type": "uint64"
				}
			],
			"stateMutability": "pure",
			"type": "function"
		},
		{
			"inputs": [],
			"name": "owner",
			"outputs": [
				{
					"internalType": "address",
					"name": "",
					"type": "address"
				}
			],
			"stateMutability": "view",
			"type": "function"
		},
		{
			"inputs": [],
			"name": "partnerSliceCore",
			"outputs": [
				{
					"internalType": "address",
					"name": "",
					"type": "address"
				}
			],
			"stateMutability": "view",
			"type": "function"
		},
		{
			"inputs": [],
			"name": "payloadGas",
			"outputs": [
				{
					"internalType": "uint256",
					"name": "",
					"type": "uint256"
				}
			],
			"stateMutability": "view",
			"type": "function"
		},
		{
			"inputs": [],
			"name": "paymentToken",
			"outputs": [
				{
					"internalType": "address",
					"name": "",
					"type": "address"
				}
			],
			"stateMutability": "view",
			"type": "function"
		},
		{
			"inputs": [
				{
					"internalType": "uint32",
					"name": "eid",
					"type": "uint32"
				}
			],
			"name": "peers",
			"outputs": [
				{
					"internalType": "bytes32",
					"name": "peer",
					"type": "bytes32"
				}
			],
			"stateMutability": "view",
			"type": "function"
		},
		{
			"inputs": [
				{
					"internalType": "address",
					"name": "",
					"type": "address"
				}
			],
			"name": "registeredSliceTokens",
			"outputs": [
				{
					"internalType": "bool",
					"name": "",
					"type": "bool"
				}
			],
			"stateMutability": "view",
			"type": "function"
		},
		{
			"inputs": [
				{
					"internalType": "uint256",
					"name": "",
					"type": "uint256"
				}
			],
			"name": "registeredSliceTokensArray",
			"outputs": [
				{
					"internalType": "address",
					"name": "",
					"type": "address"
				}
			],
			"stateMutability": "view",
			"type": "function"
		},
		{
			"inputs": [],
			"name": "registeredSliceTokensCount",
			"outputs": [
				{
					"internalType": "uint256",
					"name": "",
					"type": "uint256"
				}
			],
			"stateMutability": "view",
			"type": "function"
		},
		{
			"inputs": [],
			"name": "stargateAdapter",
			"outputs": [
				{
					"internalType": "address",
					"name": "",
					"type": "address"
				}
			],
			"stateMutability": "view",
			"type": "function"
		},
		{
			"inputs": [],
			"name": "sushiXSwap",
			"outputs": [
				{
					"internalType": "contract ISushiXSwapV2",
					"name": "",
					"type": "address"
				}
			],
			"stateMutability": "view",
			"type": "function"
		}
	]
}