{
	"src/utils/ChainInfo.sol": {
		"ChainInfo": {
			"abi": [
				{
					"inputs": [],
					"stateMutability": "nonpayable",
					"type": "constructor"
				},
				{
					"inputs": [],
					"name": "InvalidStringLength",
					"type": "error"
				},
				{
					"inputs": [
						{
							"internalType": "address",
							"name": "owner",
							"type": "address"
						}
					],
					"name": "OwnableInvalidOwner",
					"type": "error"
				},
				{
					"inputs": [
						{
							"internalType": "address",
							"name": "account",
							"type": "address"
						}
					],
					"name": "OwnableUnauthorizedAccount",
					"type": "error"
				},
				{
					"anonymous": false,
					"inputs": [
						{
							"indexed": true,
							"internalType": "address",
							"name": "previousOwner",
							"type": "address"
						},
						{
							"indexed": true,
							"internalType": "address",
							"name": "newOwner",
							"type": "address"
						}
					],
					"name": "OwnershipTransferred",
					"type": "event"
				},
				{
					"inputs": [
						{
							"components": [
								{
									"internalType": "uint256",
									"name": "chainId",
									"type": "uint256"
								},
								{
									"internalType": "bytes32",
									"name": "axelarChainId",
									"type": "bytes32"
								},
								{
									"internalType": "uint16",
									"name": "stargateChainId",
									"type": "uint16"
								},
								{
									"internalType": "uint32",
									"name": "lzEndpointId",
									"type": "uint32"
								}
							],
							"internalType": "struct Chain",
							"name": "_chain",
							"type": "tuple"
						}
					],
					"name": "addChain",
					"outputs": [],
					"stateMutability": "nonpayable",
					"type": "function"
				},
				{
					"inputs": [
						{
							"internalType": "uint256",
							"name": "",
							"type": "uint256"
						}
					],
					"name": "chains",
					"outputs": [
						{
							"internalType": "uint256",
							"name": "chainId",
							"type": "uint256"
						},
						{
							"internalType": "bytes32",
							"name": "axelarChainId",
							"type": "bytes32"
						},
						{
							"internalType": "uint16",
							"name": "stargateChainId",
							"type": "uint16"
						},
						{
							"internalType": "uint32",
							"name": "lzEndpointId",
							"type": "uint32"
						}
					],
					"stateMutability": "view",
					"type": "function"
				},
				{
					"inputs": [
						{
							"internalType": "uint256",
							"name": "_chainId",
							"type": "uint256"
						}
					],
					"name": "getChainInfo",
					"outputs": [
						{
							"components": [
								{
									"internalType": "uint256",
									"name": "chainId",
									"type": "uint256"
								},
								{
									"internalType": "bytes32",
									"name": "axelarChainId",
									"type": "bytes32"
								},
								{
									"internalType": "uint16",
									"name": "stargateChainId",
									"type": "uint16"
								},
								{
									"internalType": "uint32",
									"name": "lzEndpointId",
									"type": "uint32"
								}
							],
							"internalType": "struct Chain",
							"name": "",
							"type": "tuple"
						}
					],
					"stateMutability": "view",
					"type": "function"
				},
				{
					"inputs": [],
					"name": "owner",
					"outputs": [
						{
							"internalType": "address",
							"name": "",
							"type": "address"
						}
					],
					"stateMutability": "view",
					"type": "function"
				},
				{
					"inputs": [],
					"name": "renounceOwnership",
					"outputs": [],
					"stateMutability": "nonpayable",
					"type": "function"
				},
				{
					"inputs": [
						{
							"internalType": "address",
							"name": "newOwner",
							"type": "address"
						}
					],
					"name": "transferOwnership",
					"outputs": [],
					"stateMutability": "nonpayable",
					"type": "function"
				}
			],
			"devdoc": {
				"errors": {
					"OwnableInvalidOwner(address)": [
						{
							"details": "The owner is not a valid owner account. (eg. `address(0)`)"
						}
					],
					"OwnableUnauthorizedAccount(address)": [
						{
							"details": "The caller account is not authorized to perform an operation."
						}
					]
				},
				"kind": "dev",
				"methods": {
					"owner()": {
						"details": "Returns the address of the current owner."
					},
					"renounceOwnership()": {
						"details": "Leaves the contract without owner. It will not be possible to call `onlyOwner` functions. Can only be called by the current owner. NOTE: Renouncing ownership will leave the contract without an owner, thereby disabling any functionality that is only available to the owner."
					},
					"transferOwnership(address)": {
						"details": "Transfers ownership of the contract to a new account (`newOwner`). Can only be called by the current owner."
					}
				},
				"version": 1
			},
			"evm": {
				"assembly": "    /* \"src/utils/ChainInfo.sol\":167:2367  contract ChainInfo is Ownable {... */\n  mstore(0x40, 0x80)\n    /* \"src/utils/ChainInfo.sol\":249:2039  constructor() Ownable(msg.sender) {... */\n  callvalue\n  dup1\n  iszero\n  tag_1\n  jumpi\n  0x00\n  dup1\n  revert\ntag_1:\n  pop\n    /* \"src/utils/ChainInfo.sol\":271:281  msg.sender */\n  caller\n  dup1\n    /* \"lib/openzeppelin-contracts/contracts/access/Ownable.sol\":1269:1364  if (initialOwner == address(0)) {... */\n  tag_5\n  jumpi\n    /* \"lib/openzeppelin-contracts/contracts/access/Ownable.sol\":1322:1353  OwnableInvalidOwner(address(0)) */\n  mload(0x40)\n  shl(0xe0, 0x1e4fbdf7)\n  dup2\n  mstore\n    /* \"lib/openzeppelin-contracts/contracts/access/Ownable.sol\":1350:1351  0 */\n  0x00\n    /* \"lib/openzeppelin-contracts/contracts/access/Ownable.sol\":1322:1353  OwnableInvalidOwner(address(0)) */\n  0x04\n  dup3\n  add\n    /* \"#utility.yul\":160:211   */\n  mstore\n    /* \"#utility.yul\":133:151   */\n  0x24\n  add\n    /* \"lib/openzeppelin-contracts/contracts/access/Ownable.sol\":1322:1353  OwnableInvalidOwner(address(0)) */\n  mload(0x40)\n  dup1\n  swap2\n  sub\n  swap1\n  revert\n    /* \"lib/openzeppelin-contracts/contracts/access/Ownable.sol\":1269:1364  if (initialOwner == address(0)) {... */\ntag_5:\n    /* \"lib/openzeppelin-contracts/contracts/access/Ownable.sol\":1373:1405  _transferOwnership(initialOwner) */\n  tag_8\n    /* \"lib/openzeppelin-contracts/contracts/access/Ownable.sol\":1392:1404  initialOwner */\n  dup2\n    /* \"lib/openzeppelin-contracts/contracts/access/Ownable.sol\":1373:1391  _transferOwnership */\n  tag_9\n    /* \"lib/openzeppelin-contracts/contracts/access/Ownable.sol\":1373:1405  _transferOwnership(initialOwner) */\n  jump\t// in\ntag_8:\n    /* \"lib/openzeppelin-contracts/contracts/access/Ownable.sol\":1225:1412  constructor(address initialOwner) {... */\n  pop\n    /* \"src/utils/ChainInfo.sol\":325:442  Chain(... */\n  mload(0x40)\n  dup1\n  0x80\n  add\n  0x40\n  mstore\n  dup1\n    /* \"src/utils/ChainInfo.sol\":344:345  1 */\n  0x01\n    /* \"src/utils/ChainInfo.sol\":325:442  Chain(... */\n  dup2\n  mstore\n  0x20\n  add\n    /* \"src/utils/ChainInfo.sol\":359:396  StringToBytes32.toBytes32(\"Ethereum\") */\n  tag_11\n  mload(0x40)\n  dup1\n  0x40\n  add\n  0x40\n  mstore\n  dup1\n  0x08\n  dup2\n  mstore\n  0x20\n  add\n  shl(0xc0, 0x457468657265756d)\n  dup2\n  mstore\n  pop\n    /* \"src/utils/ChainInfo.sol\":359:384  StringToBytes32.toBytes32 */\n  shl(0x20, tag_12)\n    /* \"src/utils/ChainInfo.sol\":359:396  StringToBytes32.toBytes32(\"Ethereum\") */\n  0x20\n  shr\n  jump\t// in\ntag_11:\n    /* \"src/utils/ChainInfo.sol\":325:442  Chain(... */\n  dup2\n  mstore\n    /* \"src/utils/ChainInfo.sol\":410:413  101 */\n  0x65\n    /* \"src/utils/ChainInfo.sol\":325:442  Chain(... */\n  0x20\n  dup1\n  dup4\n  add\n  swap2\n  swap1\n  swap2\n  mstore\n    /* \"src/utils/ChainInfo.sol\":427:432  30101 */\n  0x7595\n    /* \"src/utils/ChainInfo.sol\":325:442  Chain(... */\n  0x40\n  swap3\n  dup4\n  add\n  mstore\n    /* \"src/utils/ChainInfo.sol\":313:319  chains */\n  0x01\n  0x00\n    /* \"src/utils/ChainInfo.sol\":313:322  chains[1] */\n  dup2\n  swap1\n  mstore\n  dup2\n  mstore\n    /* \"src/utils/ChainInfo.sol\":313:442  chains[1] = Chain(... */\n  dup3\n  mload\n    /* \"src/utils/ChainInfo.sol\":313:322  chains[1] */\n  0xcc69885fda6bcc1a4ace058b4a62bf5e179ea78fd58a1ccd71c22cc9b688792f\n    /* \"src/utils/ChainInfo.sol\":313:442  chains[1] = Chain(... */\n  sstore\n  dup3\n  dup2\n  add\n  mload\n  0xcc69885fda6bcc1a4ace058b4a62bf5e179ea78fd58a1ccd71c22cc9b6887930\n  sstore\n  dup3\n  dup3\n  add\n  mload\n  0xcc69885fda6bcc1a4ace058b4a62bf5e179ea78fd58a1ccd71c22cc9b6887931\n  dup1\n  sload\n  0x60\n  swap1\n  swap6\n  add\n  mload\n    /* \"src/utils/ChainInfo.sol\":325:442  Chain(... */\n  0xffffffff\n    /* \"src/utils/ChainInfo.sol\":313:442  chains[1] = Chain(... */\n  and\n  0x010000\n  mul\n  not(0xffffffffffff)\n  swap1\n  swap6\n  and\n    /* \"src/utils/ChainInfo.sol\":325:442  Chain(... */\n  0xffff\n    /* \"src/utils/ChainInfo.sol\":313:442  chains[1] = Chain(... */\n  swap3\n  swap1\n  swap3\n  and\n  swap2\n  swap1\n  swap2\n  or\n  swap4\n  swap1\n  swap4\n  or\n  swap1\n  swap3\n  sstore\n    /* \"src/utils/ChainInfo.sol\":480:597  Chain(... */\n  dup1\n  mload\n  0x80\n  dup2\n  add\n  dup3\n  mstore\n    /* \"src/utils/ChainInfo.sol\":499:501  56 */\n  0x38\n    /* \"src/utils/ChainInfo.sol\":480:597  Chain(... */\n  dup2\n  mstore\n    /* \"src/utils/ChainInfo.sol\":515:551  StringToBytes32.toBytes32(\"binance\") */\n  dup2\n  mload\n  dup1\n  dup4\n  add\n  swap1\n  swap3\n  mstore\n  0x07\n  dup3\n  mstore\n  shl(0xc8, 0x62696e616e6365)\n  dup3\n  dup5\n  add\n  mstore\n    /* \"src/utils/ChainInfo.sol\":480:597  Chain(... */\n  swap2\n  dup3\n  add\n  swap1\n    /* \"src/utils/ChainInfo.sol\":515:551  StringToBytes32.toBytes32(\"binance\") */\n  tag_13\n  swap1\n    /* \"src/utils/ChainInfo.sol\":515:540  StringToBytes32.toBytes32 */\n  tag_12\n    /* \"src/utils/ChainInfo.sol\":515:551  StringToBytes32.toBytes32(\"binance\") */\n  jump\t// in\ntag_13:\n    /* \"src/utils/ChainInfo.sol\":480:597  Chain(... */\n  dup2\n  mstore\n    /* \"src/utils/ChainInfo.sol\":565:568  102 */\n  0x66\n    /* \"src/utils/ChainInfo.sol\":480:597  Chain(... */\n  0x20\n  dup1\n  dup4\n  add\n  swap2\n  swap1\n  swap2\n  mstore\n    /* \"src/utils/ChainInfo.sol\":582:587  30102 */\n  0x7596\n    /* \"src/utils/ChainInfo.sol\":480:597  Chain(... */\n  0x40\n  swap3\n  dup4\n  add\n  mstore\n    /* \"src/utils/ChainInfo.sol\":474:476  56 */\n  0x38\n  0x00\n    /* \"src/utils/ChainInfo.sol\":467:477  chains[56] */\n  mstore\n    /* \"src/utils/ChainInfo.sol\":467:473  chains */\n  0x01\n    /* \"src/utils/ChainInfo.sol\":467:477  chains[56] */\n  dup2\n  mstore\n    /* \"src/utils/ChainInfo.sol\":467:597  chains[56] = Chain(... */\n  dup3\n  mload\n    /* \"src/utils/ChainInfo.sol\":467:477  chains[56] */\n  0xb607cc36270bbbb376b98f602ec3a5ec6c4fe7cf0d42af35fd17a642242d24fd\n    /* \"src/utils/ChainInfo.sol\":467:597  chains[56] = Chain(... */\n  sstore\n  dup3\n  dup2\n  add\n  mload\n  0xb607cc36270bbbb376b98f602ec3a5ec6c4fe7cf0d42af35fd17a642242d24fe\n  sstore\n  dup3\n  dup3\n  add\n  mload\n  0xb607cc36270bbbb376b98f602ec3a5ec6c4fe7cf0d42af35fd17a642242d24ff\n  dup1\n  sload\n  0x60\n  swap1\n  swap6\n  add\n  mload\n    /* \"src/utils/ChainInfo.sol\":480:597  Chain(... */\n  0xffffffff\n    /* \"src/utils/ChainInfo.sol\":467:597  chains[56] = Chain(... */\n  and\n  0x010000\n  mul\n  not(0xffffffffffff)\n  swap1\n  swap6\n  and\n    /* \"src/utils/ChainInfo.sol\":480:597  Chain(... */\n  0xffff\n    /* \"src/utils/ChainInfo.sol\":467:597  chains[56] = Chain(... */\n  swap3\n  swap1\n  swap3\n  and\n  swap2\n  swap1\n  swap2\n  or\n  swap4\n  swap1\n  swap4\n  or\n  swap1\n  swap3\n  sstore\n    /* \"src/utils/ChainInfo.sol\":644:766  Chain(... */\n  dup1\n  mload\n  0x80\n  dup2\n  add\n  dup3\n  mstore\n    /* \"src/utils/ChainInfo.sol\":663:668  43114 */\n  0xa86a\n    /* \"src/utils/ChainInfo.sol\":644:766  Chain(... */\n  dup2\n  mstore\n    /* \"src/utils/ChainInfo.sol\":682:720  StringToBytes32.toBytes32(\"Avalanche\") */\n  dup2\n  mload\n  dup1\n  dup4\n  add\n  swap1\n  swap3\n  mstore\n  0x09\n  dup3\n  mstore\n  shl(0xb8, 0x4176616c616e636865)\n  dup3\n  dup5\n  add\n  mstore\n    /* \"src/utils/ChainInfo.sol\":644:766  Chain(... */\n  swap2\n  dup3\n  add\n  swap1\n    /* \"src/utils/ChainInfo.sol\":682:720  StringToBytes32.toBytes32(\"Avalanche\") */\n  tag_14\n  swap1\n    /* \"src/utils/ChainInfo.sol\":682:707  StringToBytes32.toBytes32 */\n  tag_12\n    /* \"src/utils/ChainInfo.sol\":682:720  StringToBytes32.toBytes32(\"Avalanche\") */\n  jump\t// in\ntag_14:\n    /* \"src/utils/ChainInfo.sol\":644:766  Chain(... */\n  dup2\n  mstore\n    /* \"src/utils/ChainInfo.sol\":734:737  106 */\n  0x6a\n    /* \"src/utils/ChainInfo.sol\":644:766  Chain(... */\n  0x20\n  dup1\n  dup4\n  add\n  swap2\n  swap1\n  swap2\n  mstore\n    /* \"src/utils/ChainInfo.sol\":751:756  30106 */\n  0x759a\n    /* \"src/utils/ChainInfo.sol\":644:766  Chain(... */\n  0x40\n  swap3\n  dup4\n  add\n  mstore\n    /* \"src/utils/ChainInfo.sol\":635:640  43114 */\n  0xa86a\n  0x00\n    /* \"src/utils/ChainInfo.sol\":628:641  chains[43114] */\n  mstore\n    /* \"src/utils/ChainInfo.sol\":628:634  chains */\n  0x01\n    /* \"src/utils/ChainInfo.sol\":628:641  chains[43114] */\n  dup2\n  mstore\n    /* \"src/utils/ChainInfo.sol\":628:766  chains[43114] = Chain(... */\n  dup3\n  mload\n    /* \"src/utils/ChainInfo.sol\":628:641  chains[43114] */\n  0x2ac81f2b713aaab96f9745f662118839b87e598b16aa16440b4be604c915e1aa\n    /* \"src/utils/ChainInfo.sol\":628:766  chains[43114] = Chain(... */\n  sstore\n  dup3\n  dup2\n  add\n  mload\n  0x2ac81f2b713aaab96f9745f662118839b87e598b16aa16440b4be604c915e1ab\n  sstore\n  dup3\n  dup3\n  add\n  mload\n  0x2ac81f2b713aaab96f9745f662118839b87e598b16aa16440b4be604c915e1ac\n  dup1\n  sload\n  0x60\n  swap1\n  swap6\n  add\n  mload\n    /* \"src/utils/ChainInfo.sol\":644:766  Chain(... */\n  0xffffffff\n    /* \"src/utils/ChainInfo.sol\":628:766  chains[43114] = Chain(... */\n  and\n  0x010000\n  mul\n  not(0xffffffffffff)\n  swap1\n  swap6\n  and\n    /* \"src/utils/ChainInfo.sol\":644:766  Chain(... */\n  0xffff\n    /* \"src/utils/ChainInfo.sol\":628:766  chains[43114] = Chain(... */\n  swap3\n  swap1\n  swap3\n  and\n  swap2\n  swap1\n  swap2\n  or\n  swap4\n  swap1\n  swap4\n  or\n  swap1\n  swap3\n  sstore\n    /* \"src/utils/ChainInfo.sol\":810:928  Chain(... */\n  dup1\n  mload\n  0x80\n  dup2\n  add\n  dup3\n  mstore\n    /* \"src/utils/ChainInfo.sol\":829:832  137 */\n  0x89\n    /* \"src/utils/ChainInfo.sol\":810:928  Chain(... */\n  dup2\n  mstore\n    /* \"src/utils/ChainInfo.sol\":846:882  StringToBytes32.toBytes32(\"Polygon\") */\n  dup2\n  mload\n  dup1\n  dup4\n  add\n  swap1\n  swap3\n  mstore\n  0x07\n  dup3\n  mstore\n  shl(0xc9, 0x2837b63cb3b7b7)\n  dup3\n  dup5\n  add\n  mstore\n    /* \"src/utils/ChainInfo.sol\":810:928  Chain(... */\n  swap2\n  dup3\n  add\n  swap1\n    /* \"src/utils/ChainInfo.sol\":846:882  StringToBytes32.toBytes32(\"Polygon\") */\n  tag_15\n  swap1\n    /* \"src/utils/ChainInfo.sol\":846:871  StringToBytes32.toBytes32 */\n  tag_12\n    /* \"src/utils/ChainInfo.sol\":846:882  StringToBytes32.toBytes32(\"Polygon\") */\n  jump\t// in\ntag_15:\n    /* \"src/utils/ChainInfo.sol\":810:928  Chain(... */\n  dup2\n  mstore\n    /* \"src/utils/ChainInfo.sol\":896:899  109 */\n  0x6d\n    /* \"src/utils/ChainInfo.sol\":810:928  Chain(... */\n  0x20\n  dup1\n  dup4\n  add\n  swap2\n  swap1\n  swap2\n  mstore\n    /* \"src/utils/ChainInfo.sol\":913:918  30109 */\n  0x759d\n    /* \"src/utils/ChainInfo.sol\":810:928  Chain(... */\n  0x40\n  swap3\n  dup4\n  add\n  mstore\n    /* \"src/utils/ChainInfo.sol\":803:806  137 */\n  0x89\n  0x00\n    /* \"src/utils/ChainInfo.sol\":796:807  chains[137] */\n  mstore\n    /* \"src/utils/ChainInfo.sol\":796:802  chains */\n  0x01\n    /* \"src/utils/ChainInfo.sol\":796:807  chains[137] */\n  dup2\n  mstore\n    /* \"src/utils/ChainInfo.sol\":796:928  chains[137] = Chain(... */\n  dup3\n  mload\n    /* \"src/utils/ChainInfo.sol\":796:807  chains[137] */\n  0x2bda5adf664a0c31bf9134cad8d937629fcee52b9cefd545e0c716efa1202a51\n    /* \"src/utils/ChainInfo.sol\":796:928  chains[137] = Chain(... */\n  sstore\n  dup3\n  dup2\n  add\n  mload\n  0x2bda5adf664a0c31bf9134cad8d937629fcee52b9cefd545e0c716efa1202a52\n  sstore\n  dup3\n  dup3\n  add\n  mload\n  0x2bda5adf664a0c31bf9134cad8d937629fcee52b9cefd545e0c716efa1202a53\n  dup1\n  sload\n  0x60\n  swap1\n  swap6\n  add\n  mload\n    /* \"src/utils/ChainInfo.sol\":810:928  Chain(... */\n  0xffffffff\n    /* \"src/utils/ChainInfo.sol\":796:928  chains[137] = Chain(... */\n  and\n  0x010000\n  mul\n  not(0xffffffffffff)\n  swap1\n  swap6\n  and\n    /* \"src/utils/ChainInfo.sol\":810:928  Chain(... */\n  0xffff\n    /* \"src/utils/ChainInfo.sol\":796:928  chains[137] = Chain(... */\n  swap3\n  swap1\n  swap3\n  and\n  swap2\n  swap1\n  swap2\n  or\n  swap4\n  swap1\n  swap4\n  or\n  swap1\n  swap3\n  sstore\n    /* \"src/utils/ChainInfo.sol\":975:1096  Chain(... */\n  dup1\n  mload\n  0x80\n  dup2\n  add\n  dup3\n  mstore\n    /* \"src/utils/ChainInfo.sol\":994:999  42161 */\n  0xa4b1\n    /* \"src/utils/ChainInfo.sol\":975:1096  Chain(... */\n  dup2\n  mstore\n    /* \"src/utils/ChainInfo.sol\":1013:1050  StringToBytes32.toBytes32(\"arbitrum\") */\n  dup2\n  mload\n  dup1\n  dup4\n  add\n  swap1\n  swap3\n  mstore\n  0x08\n  dup3\n  mstore\n  shl(0xc0, 0x617262697472756d)\n  dup3\n  dup5\n  add\n  mstore\n    /* \"src/utils/ChainInfo.sol\":975:1096  Chain(... */\n  swap2\n  dup3\n  add\n  swap1\n    /* \"src/utils/ChainInfo.sol\":1013:1050  StringToBytes32.toBytes32(\"arbitrum\") */\n  tag_16\n  swap1\n    /* \"src/utils/ChainInfo.sol\":1013:1038  StringToBytes32.toBytes32 */\n  tag_12\n    /* \"src/utils/ChainInfo.sol\":1013:1050  StringToBytes32.toBytes32(\"arbitrum\") */\n  jump\t// in\ntag_16:\n    /* \"src/utils/ChainInfo.sol\":975:1096  Chain(... */\n  dup2\n  mstore\n    /* \"src/utils/ChainInfo.sol\":1064:1067  110 */\n  0x6e\n    /* \"src/utils/ChainInfo.sol\":975:1096  Chain(... */\n  0x20\n  dup1\n  dup4\n  add\n  swap2\n  swap1\n  swap2\n  mstore\n    /* \"src/utils/ChainInfo.sol\":1081:1086  30110 */\n  0x759e\n    /* \"src/utils/ChainInfo.sol\":975:1096  Chain(... */\n  0x40\n  swap3\n  dup4\n  add\n  mstore\n    /* \"src/utils/ChainInfo.sol\":966:971  42161 */\n  0xa4b1\n  0x00\n    /* \"src/utils/ChainInfo.sol\":959:972  chains[42161] */\n  mstore\n    /* \"src/utils/ChainInfo.sol\":959:965  chains */\n  0x01\n    /* \"src/utils/ChainInfo.sol\":959:972  chains[42161] */\n  dup2\n  mstore\n    /* \"src/utils/ChainInfo.sol\":959:1096  chains[42161] = Chain(... */\n  dup3\n  mload\n    /* \"src/utils/ChainInfo.sol\":959:972  chains[42161] */\n  0x205bae445d323d41c2a70638ff83cb0c4359544903850978ded8943e052cf973\n    /* \"src/utils/ChainInfo.sol\":959:1096  chains[42161] = Chain(... */\n  sstore\n  dup3\n  dup2\n  add\n  mload\n  0x205bae445d323d41c2a70638ff83cb0c4359544903850978ded8943e052cf974\n  sstore\n  dup3\n  dup3\n  add\n  mload\n  0x205bae445d323d41c2a70638ff83cb0c4359544903850978ded8943e052cf975\n  dup1\n  sload\n  0x60\n  swap1\n  swap6\n  add\n  mload\n    /* \"src/utils/ChainInfo.sol\":975:1096  Chain(... */\n  0xffffffff\n    /* \"src/utils/ChainInfo.sol\":959:1096  chains[42161] = Chain(... */\n  and\n  0x010000\n  mul\n  not(0xffffffffffff)\n  swap1\n  swap6\n  and\n    /* \"src/utils/ChainInfo.sol\":975:1096  Chain(... */\n  0xffff\n    /* \"src/utils/ChainInfo.sol\":959:1096  chains[42161] = Chain(... */\n  swap3\n  swap1\n  swap3\n  and\n  swap2\n  swap1\n  swap2\n  or\n  swap4\n  swap1\n  swap4\n  or\n  swap1\n  swap3\n  sstore\n    /* \"src/utils/ChainInfo.sol\":1140:1258  Chain(... */\n  dup1\n  mload\n  0x80\n  dup2\n  add\n  dup3\n  mstore\n    /* \"src/utils/ChainInfo.sol\":1159:1161  10 */\n  0x0a\n    /* \"src/utils/ChainInfo.sol\":1140:1258  Chain(... */\n  dup2\n  mstore\n    /* \"src/utils/ChainInfo.sol\":1175:1212  StringToBytes32.toBytes32(\"optimism\") */\n  dup2\n  mload\n  dup1\n  dup4\n  add\n  swap1\n  swap3\n  mstore\n  0x08\n  dup3\n  mstore\n  shl(0xc0, 0x6f7074696d69736d)\n  dup3\n  dup5\n  add\n  mstore\n    /* \"src/utils/ChainInfo.sol\":1140:1258  Chain(... */\n  swap2\n  dup3\n  add\n  swap1\n    /* \"src/utils/ChainInfo.sol\":1175:1212  StringToBytes32.toBytes32(\"optimism\") */\n  tag_17\n  swap1\n    /* \"src/utils/ChainInfo.sol\":1175:1200  StringToBytes32.toBytes32 */\n  tag_12\n    /* \"src/utils/ChainInfo.sol\":1175:1212  StringToBytes32.toBytes32(\"optimism\") */\n  jump\t// in\ntag_17:\n    /* \"src/utils/ChainInfo.sol\":1140:1258  Chain(... */\n  dup2\n  mstore\n    /* \"src/utils/ChainInfo.sol\":1226:1229  111 */\n  0x6f\n    /* \"src/utils/ChainInfo.sol\":1140:1258  Chain(... */\n  0x20\n  dup1\n  dup4\n  add\n  swap2\n  swap1\n  swap2\n  mstore\n    /* \"src/utils/ChainInfo.sol\":1243:1248  30111 */\n  0x759f\n    /* \"src/utils/ChainInfo.sol\":1140:1258  Chain(... */\n  0x40\n  swap3\n  dup4\n  add\n  mstore\n    /* \"src/utils/ChainInfo.sol\":1134:1136  10 */\n  0x0a\n  0x00\n    /* \"src/utils/ChainInfo.sol\":1127:1137  chains[10] */\n  mstore\n    /* \"src/utils/ChainInfo.sol\":1127:1133  chains */\n  0x01\n    /* \"src/utils/ChainInfo.sol\":1127:1137  chains[10] */\n  dup2\n  mstore\n    /* \"src/utils/ChainInfo.sol\":1127:1258  chains[10] = Chain(... */\n  dup3\n  mload\n    /* \"src/utils/ChainInfo.sol\":1127:1137  chains[10] */\n  0x2a32391a76c35a36352b711f9152c0d0a340cd686850c8ef25fbb11c71b89e7b\n    /* \"src/utils/ChainInfo.sol\":1127:1258  chains[10] = Chain(... */\n  sstore\n  dup3\n  dup2\n  add\n  mload\n  0x2a32391a76c35a36352b711f9152c0d0a340cd686850c8ef25fbb11c71b89e7c\n  sstore\n  dup3\n  dup3\n  add\n  mload\n  0x2a32391a76c35a36352b711f9152c0d0a340cd686850c8ef25fbb11c71b89e7d\n  dup1\n  sload\n  0x60\n  swap1\n  swap6\n  add\n  mload\n    /* \"src/utils/ChainInfo.sol\":1140:1258  Chain(... */\n  0xffffffff\n    /* \"src/utils/ChainInfo.sol\":1127:1258  chains[10] = Chain(... */\n  and\n  0x010000\n  mul\n  not(0xffffffffffff)\n  swap1\n  swap6\n  and\n    /* \"src/utils/ChainInfo.sol\":1140:1258  Chain(... */\n  0xffff\n    /* \"src/utils/ChainInfo.sol\":1127:1258  chains[10] = Chain(... */\n  swap3\n  swap1\n  swap3\n  and\n  swap2\n  swap1\n  swap2\n  or\n  swap4\n  swap1\n  swap4\n  or\n  swap1\n  swap3\n  sstore\n    /* \"src/utils/ChainInfo.sol\":1300:1416  Chain(... */\n  dup1\n  mload\n  0x80\n  dup2\n  add\n  dup3\n  mstore\n    /* \"src/utils/ChainInfo.sol\":1319:1323  8453 */\n  0x2105\n    /* \"src/utils/ChainInfo.sol\":1300:1416  Chain(... */\n  dup2\n  mstore\n    /* \"src/utils/ChainInfo.sol\":1337:1370  StringToBytes32.toBytes32(\"base\") */\n  dup2\n  mload\n  dup1\n  dup4\n  add\n  swap1\n  swap3\n  mstore\n  0x04\n  dup3\n  mstore\n  shl(0xe0, 0x62617365)\n  dup3\n  dup5\n  add\n  mstore\n    /* \"src/utils/ChainInfo.sol\":1300:1416  Chain(... */\n  swap2\n  dup3\n  add\n  swap1\n    /* \"src/utils/ChainInfo.sol\":1337:1370  StringToBytes32.toBytes32(\"base\") */\n  tag_18\n  swap1\n    /* \"src/utils/ChainInfo.sol\":1337:1362  StringToBytes32.toBytes32 */\n  tag_12\n    /* \"src/utils/ChainInfo.sol\":1337:1370  StringToBytes32.toBytes32(\"base\") */\n  jump\t// in\ntag_18:\n    /* \"src/utils/ChainInfo.sol\":1300:1416  Chain(... */\n  dup2\n  mstore\n    /* \"src/utils/ChainInfo.sol\":1384:1387  184 */\n  0xb8\n    /* \"src/utils/ChainInfo.sol\":1300:1416  Chain(... */\n  0x20\n  dup1\n  dup4\n  add\n  swap2\n  swap1\n  swap2\n  mstore\n    /* \"src/utils/ChainInfo.sol\":1401:1406  30184 */\n  0x75e8\n    /* \"src/utils/ChainInfo.sol\":1300:1416  Chain(... */\n  0x40\n  swap3\n  dup4\n  add\n  mstore\n    /* \"src/utils/ChainInfo.sol\":1292:1296  8453 */\n  0x2105\n  0x00\n    /* \"src/utils/ChainInfo.sol\":1285:1297  chains[8453] */\n  mstore\n    /* \"src/utils/ChainInfo.sol\":1285:1291  chains */\n  0x01\n    /* \"src/utils/ChainInfo.sol\":1285:1297  chains[8453] */\n  dup2\n  mstore\n    /* \"src/utils/ChainInfo.sol\":1285:1416  chains[8453] = Chain(... */\n  dup3\n  mload\n    /* \"src/utils/ChainInfo.sol\":1285:1297  chains[8453] */\n  0xb60096399359af1e390f4ccad595eafc702d6489db902b1fd8607f3867d438e1\n    /* \"src/utils/ChainInfo.sol\":1285:1416  chains[8453] = Chain(... */\n  sstore\n  dup3\n  dup2\n  add\n  mload\n  0xb60096399359af1e390f4ccad595eafc702d6489db902b1fd8607f3867d438e2\n  sstore\n  dup3\n  dup3\n  add\n  mload\n  0xb60096399359af1e390f4ccad595eafc702d6489db902b1fd8607f3867d438e3\n  dup1\n  sload\n  0x60\n  swap1\n  swap6\n  add\n  mload\n    /* \"src/utils/ChainInfo.sol\":1300:1416  Chain(... */\n  0xffffffff\n    /* \"src/utils/ChainInfo.sol\":1285:1416  chains[8453] = Chain(... */\n  and\n  0x010000\n  mul\n  not(0xffffffffffff)\n  swap1\n  swap6\n  and\n    /* \"src/utils/ChainInfo.sol\":1300:1416  Chain(... */\n  0xffff\n    /* \"src/utils/ChainInfo.sol\":1285:1416  chains[8453] = Chain(... */\n  swap3\n  swap1\n  swap3\n  and\n  swap2\n  swap1\n  swap2\n  or\n  swap4\n  swap1\n  swap4\n  or\n  swap1\n  swap3\n  sstore\n    /* \"src/utils/ChainInfo.sol\":1459:1576  Chain(... */\n  dup1\n  mload\n  0x80\n  dup2\n  add\n  dup3\n  mstore\n    /* \"src/utils/ChainInfo.sol\":1478:1481  250 */\n  0xfa\n    /* \"src/utils/ChainInfo.sol\":1459:1576  Chain(... */\n  dup2\n  mstore\n    /* \"src/utils/ChainInfo.sol\":1495:1530  StringToBytes32.toBytes32(\"Fantom\") */\n  dup2\n  mload\n  dup1\n  dup4\n  add\n  swap1\n  swap3\n  mstore\n  0x06\n  dup3\n  mstore\n  shl(0xd0, 0x46616e746f6d)\n  dup3\n  dup5\n  add\n  mstore\n    /* \"src/utils/ChainInfo.sol\":1459:1576  Chain(... */\n  swap2\n  dup3\n  add\n  swap1\n    /* \"src/utils/ChainInfo.sol\":1495:1530  StringToBytes32.toBytes32(\"Fantom\") */\n  tag_19\n  swap1\n    /* \"src/utils/ChainInfo.sol\":1495:1520  StringToBytes32.toBytes32 */\n  tag_12\n    /* \"src/utils/ChainInfo.sol\":1495:1530  StringToBytes32.toBytes32(\"Fantom\") */\n  jump\t// in\ntag_19:\n    /* \"src/utils/ChainInfo.sol\":1459:1576  Chain(... */\n  dup2\n  mstore\n    /* \"src/utils/ChainInfo.sol\":1544:1547  112 */\n  0x70\n    /* \"src/utils/ChainInfo.sol\":1459:1576  Chain(... */\n  0x20\n  dup1\n  dup4\n  add\n  swap2\n  swap1\n  swap2\n  mstore\n    /* \"src/utils/ChainInfo.sol\":1561:1566  30112 */\n  0x75a0\n    /* \"src/utils/ChainInfo.sol\":1459:1576  Chain(... */\n  0x40\n  swap3\n  dup4\n  add\n  mstore\n    /* \"src/utils/ChainInfo.sol\":1452:1455  250 */\n  0xfa\n  0x00\n    /* \"src/utils/ChainInfo.sol\":1445:1456  chains[250] */\n  mstore\n    /* \"src/utils/ChainInfo.sol\":1445:1451  chains */\n  0x01\n    /* \"src/utils/ChainInfo.sol\":1445:1456  chains[250] */\n  dup2\n  mstore\n    /* \"src/utils/ChainInfo.sol\":1445:1576  chains[250] = Chain(... */\n  dup3\n  mload\n    /* \"src/utils/ChainInfo.sol\":1445:1456  chains[250] */\n  0xad014ecf9ca62e1a5436b1db3a59382cedbe7e40d58bf51cb87ccc098bbd86a4\n    /* \"src/utils/ChainInfo.sol\":1445:1576  chains[250] = Chain(... */\n  sstore\n  dup3\n  dup2\n  add\n  mload\n  0xad014ecf9ca62e1a5436b1db3a59382cedbe7e40d58bf51cb87ccc098bbd86a5\n  sstore\n  dup3\n  dup3\n  add\n  mload\n  0xad014ecf9ca62e1a5436b1db3a59382cedbe7e40d58bf51cb87ccc098bbd86a6\n  dup1\n  sload\n  0x60\n  swap1\n  swap6\n  add\n  mload\n    /* \"src/utils/ChainInfo.sol\":1459:1576  Chain(... */\n  0xffffffff\n    /* \"src/utils/ChainInfo.sol\":1445:1576  chains[250] = Chain(... */\n  and\n  0x010000\n  mul\n  not(0xffffffffffff)\n  swap1\n  swap6\n  and\n    /* \"src/utils/ChainInfo.sol\":1459:1576  Chain(... */\n  0xffff\n    /* \"src/utils/ChainInfo.sol\":1445:1576  chains[250] = Chain(... */\n  swap3\n  swap1\n  swap3\n  and\n  swap2\n  swap1\n  swap2\n  or\n  swap4\n  swap1\n  swap4\n  or\n  swap1\n  swap3\n  sstore\n    /* \"src/utils/ChainInfo.sol\":1620:1738  Chain(... */\n  dup1\n  mload\n  0x80\n  dup2\n  add\n  dup3\n  mstore\n    /* \"src/utils/ChainInfo.sol\":1639:1644  59144 */\n  0xe708\n    /* \"src/utils/ChainInfo.sol\":1620:1738  Chain(... */\n  dup2\n  mstore\n    /* \"src/utils/ChainInfo.sol\":1658:1692  StringToBytes32.toBytes32(\"linea\") */\n  dup2\n  mload\n  dup1\n  dup4\n  add\n  swap1\n  swap3\n  mstore\n  0x05\n  dup3\n  mstore\n  shl(0xd8, 0x6c696e6561)\n  dup3\n  dup5\n  add\n  mstore\n    /* \"src/utils/ChainInfo.sol\":1620:1738  Chain(... */\n  swap2\n  dup3\n  add\n  swap1\n    /* \"src/utils/ChainInfo.sol\":1658:1692  StringToBytes32.toBytes32(\"linea\") */\n  tag_20\n  swap1\n    /* \"src/utils/ChainInfo.sol\":1658:1683  StringToBytes32.toBytes32 */\n  tag_12\n    /* \"src/utils/ChainInfo.sol\":1658:1692  StringToBytes32.toBytes32(\"linea\") */\n  jump\t// in\ntag_20:\n    /* \"src/utils/ChainInfo.sol\":1620:1738  Chain(... */\n  dup2\n  mstore\n    /* \"src/utils/ChainInfo.sol\":1706:1709  183 */\n  0xb7\n    /* \"src/utils/ChainInfo.sol\":1620:1738  Chain(... */\n  0x20\n  dup1\n  dup4\n  add\n  swap2\n  swap1\n  swap2\n  mstore\n    /* \"src/utils/ChainInfo.sol\":1723:1728  30183 */\n  0x75e7\n    /* \"src/utils/ChainInfo.sol\":1620:1738  Chain(... */\n  0x40\n  swap3\n  dup4\n  add\n  mstore\n    /* \"src/utils/ChainInfo.sol\":1611:1616  59144 */\n  0xe708\n  0x00\n    /* \"src/utils/ChainInfo.sol\":1604:1617  chains[59144] */\n  mstore\n    /* \"src/utils/ChainInfo.sol\":1604:1610  chains */\n  0x01\n    /* \"src/utils/ChainInfo.sol\":1604:1617  chains[59144] */\n  dup2\n  mstore\n    /* \"src/utils/ChainInfo.sol\":1604:1738  chains[59144] = Chain(... */\n  dup3\n  mload\n    /* \"src/utils/ChainInfo.sol\":1604:1617  chains[59144] */\n  0xa2b372b1449eba5efee2cfe28e7beb7c3a128b92ca5f8a845f77bd7fdc4082ba\n    /* \"src/utils/ChainInfo.sol\":1604:1738  chains[59144] = Chain(... */\n  sstore\n  dup3\n  dup2\n  add\n  mload\n  0xa2b372b1449eba5efee2cfe28e7beb7c3a128b92ca5f8a845f77bd7fdc4082bb\n  sstore\n  dup3\n  dup3\n  add\n  mload\n  0xa2b372b1449eba5efee2cfe28e7beb7c3a128b92ca5f8a845f77bd7fdc4082bc\n  dup1\n  sload\n  0x60\n  swap1\n  swap6\n  add\n  mload\n    /* \"src/utils/ChainInfo.sol\":1620:1738  Chain(... */\n  0xffffffff\n    /* \"src/utils/ChainInfo.sol\":1604:1738  chains[59144] = Chain(... */\n  and\n  0x010000\n  mul\n  not(0xffffffffffff)\n  swap1\n  swap6\n  and\n    /* \"src/utils/ChainInfo.sol\":1620:1738  Chain(... */\n  0xffff\n    /* \"src/utils/ChainInfo.sol\":1604:1738  chains[59144] = Chain(... */\n  swap3\n  swap1\n  swap3\n  and\n  swap2\n  swap1\n  swap2\n  or\n  swap4\n  swap1\n  swap4\n  or\n  swap1\n  swap3\n  sstore\n    /* \"src/utils/ChainInfo.sol\":1780:1896  Chain(... */\n  dup1\n  mload\n  0x80\n  dup2\n  add\n  dup3\n  mstore\n    /* \"src/utils/ChainInfo.sol\":1799:1803  2222 */\n  0x08ae\n    /* \"src/utils/ChainInfo.sol\":1780:1896  Chain(... */\n  dup2\n  mstore\n    /* \"src/utils/ChainInfo.sol\":1817:1850  StringToBytes32.toBytes32(\"kava\") */\n  dup2\n  mload\n  dup1\n  dup4\n  add\n  swap1\n  swap3\n  mstore\n  0x04\n  dup3\n  mstore\n  shl(0xe0, 0x6b617661)\n  dup3\n  dup5\n  add\n  mstore\n    /* \"src/utils/ChainInfo.sol\":1780:1896  Chain(... */\n  swap2\n  dup3\n  add\n  swap1\n    /* \"src/utils/ChainInfo.sol\":1817:1850  StringToBytes32.toBytes32(\"kava\") */\n  tag_21\n  swap1\n    /* \"src/utils/ChainInfo.sol\":1817:1842  StringToBytes32.toBytes32 */\n  tag_12\n    /* \"src/utils/ChainInfo.sol\":1817:1850  StringToBytes32.toBytes32(\"kava\") */\n  jump\t// in\ntag_21:\n    /* \"src/utils/ChainInfo.sol\":1780:1896  Chain(... */\n  dup2\n  mstore\n    /* \"src/utils/ChainInfo.sol\":1864:1867  177 */\n  0xb1\n    /* \"src/utils/ChainInfo.sol\":1780:1896  Chain(... */\n  0x20\n  dup1\n  dup4\n  add\n  swap2\n  swap1\n  swap2\n  mstore\n    /* \"src/utils/ChainInfo.sol\":1881:1886  30177 */\n  0x75e1\n    /* \"src/utils/ChainInfo.sol\":1780:1896  Chain(... */\n  0x40\n  swap3\n  dup4\n  add\n  mstore\n    /* \"src/utils/ChainInfo.sol\":1772:1776  2222 */\n  0x08ae\n  0x00\n    /* \"src/utils/ChainInfo.sol\":1765:1777  chains[2222] */\n  swap1\n  dup2\n  mstore\n    /* \"src/utils/ChainInfo.sol\":1765:1771  chains */\n  0x01\n    /* \"src/utils/ChainInfo.sol\":1765:1777  chains[2222] */\n  dup1\n  dup4\n  mstore\n    /* \"src/utils/ChainInfo.sol\":1765:1896  chains[2222] = Chain(... */\n  dup5\n  mload\n    /* \"src/utils/ChainInfo.sol\":1765:1777  chains[2222] */\n  0x10b548591a6afba595076624b083c0ed2fafdb163b263c7cb677fb4b55827bdd\n    /* \"src/utils/ChainInfo.sol\":1765:1896  chains[2222] = Chain(... */\n  sstore\n  dup5\n  dup4\n  add\n  mload\n  0x10b548591a6afba595076624b083c0ed2fafdb163b263c7cb677fb4b55827bde\n  sstore\n  dup5\n  dup5\n  add\n  mload\n  0x10b548591a6afba595076624b083c0ed2fafdb163b263c7cb677fb4b55827bdf\n  dup1\n  sload\n  0x60\n  swap8\n  dup9\n  add\n  mload\n    /* \"src/utils/ChainInfo.sol\":1780:1896  Chain(... */\n  0xffffffff\n    /* \"src/utils/ChainInfo.sol\":1765:1896  chains[2222] = Chain(... */\n  swap1\n  dup2\n  and\n  0x010000\n  swap1\n  dup2\n  mul\n  not(0xffffffffffff)\n  swap4\n  dup5\n  and\n    /* \"src/utils/ChainInfo.sol\":1780:1896  Chain(... */\n  0xffff\n    /* \"src/utils/ChainInfo.sol\":1765:1896  chains[2222] = Chain(... */\n  swap7\n  dup8\n  and\n  or\n  or\n  swap1\n  swap4\n  sstore\n    /* \"src/utils/ChainInfo.sol\":1939:2032  Chain(... */\n  dup8\n  mload\n  0x80\n  dup2\n  add\n  dup10\n  mstore\n    /* \"src/utils/ChainInfo.sol\":1958:1962  1088 */\n  0x0440\n    /* \"src/utils/ChainInfo.sol\":1939:2032  Chain(... */\n  dup1\n  dup3\n  mstore\n  dup2\n  dup10\n  add\n  dup9\n  dup2\n  mstore\n    /* \"src/utils/ChainInfo.sol\":2000:2003  151 */\n  0x97\n    /* \"src/utils/ChainInfo.sol\":1939:2032  Chain(... */\n  swap11\n  dup4\n  add\n  swap11\n  dup12\n  mstore\n    /* \"src/utils/ChainInfo.sol\":2017:2022  30151 */\n  0x75c7\n    /* \"src/utils/ChainInfo.sol\":1939:2032  Chain(... */\n  swap12\n  dup4\n  add\n  swap12\n  dup13\n  mstore\n    /* \"src/utils/ChainInfo.sol\":1924:1936  chains[1088] */\n  swap8\n  mstore\n  swap5\n  swap1\n  swap7\n  mstore\n    /* \"src/utils/ChainInfo.sol\":1924:2032  chains[1088] = Chain(... */\n  swap3\n  mload\n    /* \"src/utils/ChainInfo.sol\":1924:1936  chains[1088] */\n  0x2b16a72b26571c9c5b2c4ff0f7b2d2c355a0d76b29784f2ed8e7cc9d463f6d\n    /* \"src/utils/ChainInfo.sol\":1924:2032  chains[1088] = Chain(... */\n  sstore\n  swap3\n  mload\n  0x2b16a72b26571c9c5b2c4ff0f7b2d2c355a0d76b29784f2ed8e7cc9d463f6e\n  sstore\n  swap4\n  mload\n  0x2b16a72b26571c9c5b2c4ff0f7b2d2c355a0d76b29784f2ed8e7cc9d463f6f\n  dup1\n  sload\n  swap7\n  mload\n  swap1\n  swap5\n  and\n  swap1\n  swap3\n  mul\n  swap5\n  and\n  swap3\n  and\n  swap2\n  swap1\n  swap2\n  or\n  swap2\n  swap1\n  swap2\n  or\n  swap1\n  sstore\n    /* \"src/utils/ChainInfo.sol\":167:2367  contract ChainInfo is Ownable {... */\n  jump(tag_29)\n    /* \"lib/openzeppelin-contracts/contracts/access/Ownable.sol\":2912:3099  function _transferOwnership(address newOwner) internal virtual {... */\ntag_9:\n    /* \"lib/openzeppelin-contracts/contracts/access/Ownable.sol\":2985:3001  address oldOwner */\n  0x00\n    /* \"lib/openzeppelin-contracts/contracts/access/Ownable.sol\":3004:3010  _owner */\n  dup1\n  sload\n  sub(shl(0xa0, 0x01), 0x01)\n    /* \"lib/openzeppelin-contracts/contracts/access/Ownable.sol\":3020:3037  _owner = newOwner */\n  dup4\n  dup2\n  and\n  not(sub(shl(0xa0, 0x01), 0x01))\n  dup4\n  and\n  dup2\n  or\n  dup5\n  sstore\n    /* \"lib/openzeppelin-contracts/contracts/access/Ownable.sol\":3052:3092  OwnershipTransferred(oldOwner, newOwner) */\n  mload(0x40)\n    /* \"lib/openzeppelin-contracts/contracts/access/Ownable.sol\":3004:3010  _owner */\n  swap2\n  swap1\n  swap3\n  and\n  swap3\n  dup4\n  swap2\n    /* \"lib/openzeppelin-contracts/contracts/access/Ownable.sol\":3052:3092  OwnershipTransferred(oldOwner, newOwner) */\n  0x8be0079c531659141344cd1fd0a4f28419497f9722a3daafe3b4186f6b6457e0\n  swap2\n    /* \"lib/openzeppelin-contracts/contracts/access/Ownable.sol\":2985:3001  address oldOwner */\n  swap1\n    /* \"lib/openzeppelin-contracts/contracts/access/Ownable.sol\":3052:3092  OwnershipTransferred(oldOwner, newOwner) */\n  log3\n    /* \"lib/openzeppelin-contracts/contracts/access/Ownable.sol\":2975:3099  {... */\n  pop\n    /* \"lib/openzeppelin-contracts/contracts/access/Ownable.sol\":2912:3099  function _transferOwnership(address newOwner) internal virtual {... */\n  pop\n  jump\t// out\n    /* \"src/utils/Bytes32String.sol\":122:700  function toBytes32(string memory str) internal pure returns (bytes32) {... */\ntag_12:\n    /* \"src/utils/Bytes32String.sol\":398:416  stringBytes.length */\n  dup1\n  mload\n    /* \"src/utils/Bytes32String.sol\":183:190  bytes32 */\n  0x00\n  swap1\n    /* \"src/utils/Bytes32String.sol\":299:302  str */\n  dup3\n  swap1\n    /* \"src/utils/Bytes32String.sol\":398:421  stringBytes.length == 0 */\n  iszero\n  dup1\n    /* \"src/utils/Bytes32String.sol\":398:448  stringBytes.length == 0 || stringBytes.length > 31 */\n  tag_25\n  jumpi\n  pop\n    /* \"src/utils/Bytes32String.sol\":446:448  31 */\n  0x1f\n    /* \"src/utils/Bytes32String.sol\":425:436  stringBytes */\n  dup2\n    /* \"src/utils/Bytes32String.sol\":425:443  stringBytes.length */\n  mload\n    /* \"src/utils/Bytes32String.sol\":425:448  stringBytes.length > 31 */\n  gt\n    /* \"src/utils/Bytes32String.sol\":398:448  stringBytes.length == 0 || stringBytes.length > 31 */\ntag_25:\n    /* \"src/utils/Bytes32String.sol\":394:478  if (stringBytes.length == 0 || stringBytes.length > 31) revert InvalidStringLength() */\n  iszero\n  tag_26\n  jumpi\n    /* \"src/utils/Bytes32String.sol\":457:478  InvalidStringLength() */\n  mload(0x40)\n  shl(0xe0, 0x8dc6ac01)\n  dup2\n  mstore\n  0x04\n  add\n  mload(0x40)\n  dup1\n  swap2\n  sub\n  swap1\n  revert\n    /* \"src/utils/Bytes32String.sol\":394:478  if (stringBytes.length == 0 || stringBytes.length > 31) revert InvalidStringLength() */\ntag_26:\n    /* \"src/utils/Bytes32String.sol\":489:509  uint256 stringNumber */\n  0x00\n    /* \"src/utils/Bytes32String.sol\":520:540  bytes32(stringBytes) */\n  tag_27\n    /* \"src/utils/Bytes32String.sol\":528:539  stringBytes */\n  dup3\n    /* \"src/utils/Bytes32String.sol\":520:540  bytes32(stringBytes) */\n  tag_28\n  jump\t// in\ntag_27:\n    /* \"src/utils/Bytes32String.sol\":637:655  stringBytes.length */\n  swap2\n  mload\n    /* \"src/utils/Bytes32String.sol\":630:634  0xff */\n  0xff\n    /* \"src/utils/Bytes32String.sol\":630:655  0xff & stringBytes.length */\n  and\n    /* \"src/utils/Bytes32String.sol\":614:655  stringNumber |= 0xff & stringBytes.length */\n  swap1\n  swap2\n  or\n  swap4\n    /* \"src/utils/Bytes32String.sol\":122:700  function toBytes32(string memory str) internal pure returns (bytes32) {... */\n  swap3\n  pop\n  pop\n  pop\n  jump\t// out\n    /* \"#utility.yul\":222:519   */\ntag_28:\n    /* \"#utility.yul\":340:352   */\n  dup1\n  mload\n    /* \"#utility.yul\":387:391   */\n  0x20\n    /* \"#utility.yul\":376:392   */\n  dup1\n  dup4\n  add\n    /* \"#utility.yul\":370:393   */\n  mload\n  swap2\n    /* \"#utility.yul\":340:352   */\n  swap1\n    /* \"#utility.yul\":405:421   */\n  dup2\n  lt\n    /* \"#utility.yul\":402:513   */\n  iszero\n  tag_32\n  jumpi\n    /* \"#utility.yul\":499:500   */\n  0x00\n    /* \"#utility.yul\":495:501   */\n  not\n    /* \"#utility.yul\":485:491   */\n  dup2\n    /* \"#utility.yul\":479:483   */\n  0x20\n    /* \"#utility.yul\":475:492   */\n  sub\n    /* \"#utility.yul\":472:473   */\n  0x03\n    /* \"#utility.yul\":468:493   */\n  shl\n    /* \"#utility.yul\":464:502   */\n  shl\n    /* \"#utility.yul\":457:462   */\n  dup3\n    /* \"#utility.yul\":453:503   */\n  and\n    /* \"#utility.yul\":444:503   */\n  swap2\n  pop\n    /* \"#utility.yul\":402:513   */\ntag_32:\n  pop\n    /* \"#utility.yul\":222:519   */\n  swap2\n  swap1\n  pop\n  jump\t// out\ntag_29:\n    /* \"src/utils/ChainInfo.sol\":167:2367  contract ChainInfo is Ownable {... */\n  dataSize(sub_0)\n  dup1\n  dataOffset(sub_0)\n  0x00\n  codecopy\n  0x00\n  return\nstop\n\nsub_0: assembly {\n        /* \"src/utils/ChainInfo.sol\":167:2367  contract ChainInfo is Ownable {... */\n      mstore(0x40, 0x80)\n      callvalue\n      dup1\n      iszero\n      tag_1\n      jumpi\n      0x00\n      dup1\n      revert\n    tag_1:\n      pop\n      jumpi(tag_2, lt(calldatasize, 0x04))\n      shr(0xe0, calldataload(0x00))\n      dup1\n      0x550325b5\n      eq\n      tag_3\n      jumpi\n      dup1\n      0x715018a6\n      eq\n      tag_4\n      jumpi\n      dup1\n      0x804ea334\n      eq\n      tag_5\n      jumpi\n      dup1\n      0x8da5cb5b\n      eq\n      tag_6\n      jumpi\n      dup1\n      0xdeaa66b0\n      eq\n      tag_7\n      jumpi\n      dup1\n      0xf2fde38b\n      eq\n      tag_8\n      jumpi\n    tag_2:\n      0x00\n      dup1\n      revert\n        /* \"src/utils/ChainInfo.sol\":203:242  mapping(uint256 => Chain) public chains */\n    tag_3:\n      tag_9\n      tag_10\n      calldatasize\n      0x04\n      tag_11\n      jump\t// in\n    tag_10:\n      0x01\n      0x20\n      dup2\n      swap1\n      mstore\n      0x00\n      swap2\n      dup3\n      mstore\n      0x40\n      swap1\n      swap2\n      keccak256\n      dup1\n      sload\n      swap2\n      dup2\n      add\n      sload\n      0x02\n      swap1\n      swap2\n      add\n      sload\n      0xffff\n      dup2\n      and\n      swap1\n      0x010000\n      swap1\n      div\n      0xffffffff\n      and\n      dup5\n      jump\n    tag_9:\n      mload(0x40)\n      tag_13\n      swap5\n      swap4\n      swap3\n      swap2\n      swap1\n        /* \"#utility.yul\":426:451   */\n      swap4\n      dup5\n      mstore\n        /* \"#utility.yul\":482:484   */\n      0x20\n        /* \"#utility.yul\":467:485   */\n      dup5\n      add\n        /* \"#utility.yul\":460:494   */\n      swap3\n      swap1\n      swap3\n      mstore\n        /* \"#utility.yul\":542:548   */\n      0xffff\n        /* \"#utility.yul\":530:549   */\n      and\n        /* \"#utility.yul\":525:527   */\n      0x40\n        /* \"#utility.yul\":510:528   */\n      dup4\n      add\n        /* \"#utility.yul\":503:550   */\n      mstore\n        /* \"#utility.yul\":598:608   */\n      0xffffffff\n        /* \"#utility.yul\":586:609   */\n      and\n        /* \"#utility.yul\":581:583   */\n      0x60\n        /* \"#utility.yul\":566:584   */\n      dup3\n      add\n        /* \"#utility.yul\":559:610   */\n      mstore\n        /* \"#utility.yul\":413:416   */\n      0x80\n        /* \"#utility.yul\":398:417   */\n      add\n      swap1\n        /* \"#utility.yul\":199:616   */\n      jump\n        /* \"src/utils/ChainInfo.sol\":203:242  mapping(uint256 => Chain) public chains */\n    tag_13:\n      mload(0x40)\n      dup1\n      swap2\n      sub\n      swap1\n      return\n        /* \"lib/openzeppelin-contracts/contracts/access/Ownable.sol\":2293:2394  function renounceOwnership() public virtual onlyOwner {... */\n    tag_4:\n      tag_15\n      tag_16\n      jump\t// in\n    tag_15:\n      stop\n        /* \"src/utils/ChainInfo.sol\":2250:2365  function getChainInfo(uint256 _chainId) public view returns (Chain memory) {... */\n    tag_5:\n      tag_17\n      tag_18\n      calldatasize\n      0x04\n      tag_11\n      jump\t// in\n    tag_18:\n      0x40\n      dup1\n      mload\n      0x80\n      dup2\n      add\n      dup3\n      mstore\n      0x00\n      dup1\n      dup3\n      mstore\n      0x20\n      dup3\n      add\n      dup2\n      swap1\n      mstore\n      swap2\n      dup2\n      add\n      dup3\n      swap1\n      mstore\n      0x60\n      dup2\n      add\n      swap2\n      swap1\n      swap2\n      mstore\n      pop\n        /* \"src/utils/ChainInfo.sol\":2342:2358  chains[_chainId] */\n      0x00\n      swap1\n      dup2\n      mstore\n        /* \"src/utils/ChainInfo.sol\":2342:2348  chains */\n      0x01\n        /* \"src/utils/ChainInfo.sol\":2342:2358  chains[_chainId] */\n      0x20\n      dup2\n      dup2\n      mstore\n      0x40\n      swap3\n      dup4\n      swap1\n      keccak256\n        /* \"src/utils/ChainInfo.sol\":2335:2358  return chains[_chainId] */\n      dup4\n      mload\n      0x80\n      dup2\n      add\n      dup6\n      mstore\n      dup2\n      sload\n      dup2\n      mstore\n      swap3\n      dup2\n      add\n      sload\n      swap2\n      dup4\n      add\n      swap2\n      swap1\n      swap2\n      mstore\n      0x02\n      add\n      sload\n      0xffff\n      dup2\n      and\n      swap3\n      dup3\n      add\n      swap3\n      swap1\n      swap3\n      mstore\n      0x010000\n      swap1\n      swap2\n      div\n      0xffffffff\n      and\n      0x60\n      dup3\n      add\n      mstore\n      swap1\n        /* \"src/utils/ChainInfo.sol\":2250:2365  function getChainInfo(uint256 _chainId) public view returns (Chain memory) {... */\n      jump\n    tag_17:\n      mload(0x40)\n      tag_13\n      swap2\n      swap1\n        /* \"#utility.yul\":830:843   */\n      dup2\n      mload\n        /* \"#utility.yul\":812:844   */\n      dup2\n      mstore\n        /* \"#utility.yul\":900:904   */\n      0x20\n        /* \"#utility.yul\":888:905   */\n      dup1\n      dup4\n      add\n        /* \"#utility.yul\":882:906   */\n      mload\n        /* \"#utility.yul\":860:880   */\n      swap1\n      dup3\n      add\n        /* \"#utility.yul\":853:907   */\n      mstore\n        /* \"#utility.yul\":967:971   */\n      0x40\n        /* \"#utility.yul\":955:972   */\n      dup1\n      dup4\n      add\n        /* \"#utility.yul\":949:973   */\n      mload\n        /* \"#utility.yul\":975:981   */\n      0xffff\n        /* \"#utility.yul\":945:982   */\n      and\n        /* \"#utility.yul\":923:943   */\n      swap1\n      dup3\n      add\n        /* \"#utility.yul\":916:983   */\n      mstore\n        /* \"#utility.yul\":1043:1047   */\n      0x60\n        /* \"#utility.yul\":1031:1048   */\n      swap2\n      dup3\n      add\n        /* \"#utility.yul\":1025:1049   */\n      mload\n        /* \"#utility.yul\":1051:1061   */\n      0xffffffff\n        /* \"#utility.yul\":1021:1062   */\n      and\n        /* \"#utility.yul\":999:1019   */\n      swap2\n      dup2\n      add\n        /* \"#utility.yul\":992:1063   */\n      swap2\n      swap1\n      swap2\n      mstore\n        /* \"#utility.yul\":799:802   */\n      0x80\n        /* \"#utility.yul\":784:803   */\n      add\n      swap1\n        /* \"#utility.yul\":621:1069   */\n      jump\n        /* \"lib/openzeppelin-contracts/contracts/access/Ownable.sol\":1638:1723  function owner() public view virtual returns (address) {... */\n    tag_6:\n        /* \"lib/openzeppelin-contracts/contracts/access/Ownable.sol\":1684:1691  address */\n      0x00\n        /* \"lib/openzeppelin-contracts/contracts/access/Ownable.sol\":1710:1716  _owner */\n      sload\n        /* \"lib/openzeppelin-contracts/contracts/access/Ownable.sol\":1638:1723  function owner() public view virtual returns (address) {... */\n      mload(0x40)\n      sub(shl(0xa0, 0x01), 0x01)\n        /* \"lib/openzeppelin-contracts/contracts/access/Ownable.sol\":1710:1716  _owner */\n      swap1\n      swap2\n      and\n        /* \"#utility.yul\":1220:1271   */\n      dup2\n      mstore\n        /* \"#utility.yul\":1208:1210   */\n      0x20\n        /* \"#utility.yul\":1193:1211   */\n      add\n        /* \"lib/openzeppelin-contracts/contracts/access/Ownable.sol\":1638:1723  function owner() public view virtual returns (address) {... */\n      tag_13\n        /* \"#utility.yul\":1074:1277   */\n      jump\n        /* \"src/utils/ChainInfo.sol\":2045:2244  function addChain(Chain memory _chain) external onlyOwner {... */\n    tag_7:\n      tag_15\n      tag_27\n      calldatasize\n      0x04\n      tag_28\n      jump\t// in\n    tag_27:\n      tag_29\n      jump\t// in\n        /* \"lib/openzeppelin-contracts/contracts/access/Ownable.sol\":2543:2758  function transferOwnership(address newOwner) public virtual onlyOwner {... */\n    tag_8:\n      tag_15\n      tag_31\n      calldatasize\n      0x04\n      tag_32\n      jump\t// in\n    tag_31:\n      tag_33\n      jump\t// in\n        /* \"lib/openzeppelin-contracts/contracts/access/Ownable.sol\":2293:2394  function renounceOwnership() public virtual onlyOwner {... */\n    tag_16:\n        /* \"lib/openzeppelin-contracts/contracts/access/Ownable.sol\":1531:1544  _checkOwner() */\n      tag_35\n        /* \"lib/openzeppelin-contracts/contracts/access/Ownable.sol\":1531:1542  _checkOwner */\n      tag_36\n        /* \"lib/openzeppelin-contracts/contracts/access/Ownable.sol\":1531:1544  _checkOwner() */\n      jump\t// in\n    tag_35:\n        /* \"lib/openzeppelin-contracts/contracts/access/Ownable.sol\":2357:2387  _transferOwnership(address(0)) */\n      tag_38\n        /* \"lib/openzeppelin-contracts/contracts/access/Ownable.sol\":2384:2385  0 */\n      0x00\n        /* \"lib/openzeppelin-contracts/contracts/access/Ownable.sol\":2357:2375  _transferOwnership */\n      tag_39\n        /* \"lib/openzeppelin-contracts/contracts/access/Ownable.sol\":2357:2387  _transferOwnership(address(0)) */\n      jump\t// in\n    tag_38:\n        /* \"lib/openzeppelin-contracts/contracts/access/Ownable.sol\":2293:2394  function renounceOwnership() public virtual onlyOwner {... */\n      jump\t// out\n        /* \"src/utils/ChainInfo.sol\":2045:2244  function addChain(Chain memory _chain) external onlyOwner {... */\n    tag_29:\n        /* \"lib/openzeppelin-contracts/contracts/access/Ownable.sol\":1531:1544  _checkOwner() */\n      tag_45\n        /* \"lib/openzeppelin-contracts/contracts/access/Ownable.sol\":1531:1542  _checkOwner */\n      tag_36\n        /* \"lib/openzeppelin-contracts/contracts/access/Ownable.sol\":1531:1544  _checkOwner() */\n      jump\t// in\n    tag_45:\n        /* \"src/utils/ChainInfo.sol\":2128:2142  _chain.chainId */\n      dup1\n      mload\n        /* \"src/utils/ChainInfo.sol\":2121:2143  chains[_chain.chainId] */\n      0x00\n      swap1\n      dup2\n      mstore\n        /* \"src/utils/ChainInfo.sol\":2121:2127  chains */\n      0x01\n        /* \"src/utils/ChainInfo.sol\":2121:2143  chains[_chain.chainId] */\n      0x20\n      mstore\n      0x40\n      swap1\n      keccak256\n        /* \"src/utils/ChainInfo.sol\":2121:2151  chains[_chain.chainId].chainId */\n      sload\n        /* \"src/utils/ChainInfo.sol\":2121:2156  chains[_chain.chainId].chainId == 0 */\n      iszero\n        /* \"src/utils/ChainInfo.sol\":2113:2196  require(chains[_chain.chainId].chainId == 0, \"ChainInfo: Chain already registered\") */\n      tag_47\n      jumpi\n      mload(0x40)\n      shl(0xe5, 0x461bcd)\n      dup2\n      mstore\n        /* \"#utility.yul\":2778:2780   */\n      0x20\n        /* \"src/utils/ChainInfo.sol\":2113:2196  require(chains[_chain.chainId].chainId == 0, \"ChainInfo: Chain already registered\") */\n      0x04\n      dup3\n      add\n        /* \"#utility.yul\":2760:2781   */\n      mstore\n        /* \"#utility.yul\":2817:2819   */\n      0x23\n        /* \"#utility.yul\":2797:2815   */\n      0x24\n      dup3\n      add\n        /* \"#utility.yul\":2790:2820   */\n      mstore\n        /* \"#utility.yul\":2856:2890   */\n      0x436861696e496e666f3a20436861696e20616c72656164792072656769737465\n        /* \"#utility.yul\":2836:2854   */\n      0x44\n      dup3\n      add\n        /* \"#utility.yul\":2829:2891   */\n      mstore\n      shl(0xea, 0x1c9959)\n        /* \"#utility.yul\":2907:2925   */\n      0x64\n      dup3\n      add\n        /* \"#utility.yul\":2900:2933   */\n      mstore\n        /* \"#utility.yul\":2950:2969   */\n      0x84\n      add\n        /* \"src/utils/ChainInfo.sol\":2113:2196  require(chains[_chain.chainId].chainId == 0, \"ChainInfo: Chain already registered\") */\n    tag_48:\n      mload(0x40)\n      dup1\n      swap2\n      sub\n      swap1\n      revert\n    tag_47:\n        /* \"src/utils/ChainInfo.sol\":2213:2227  _chain.chainId */\n      dup1\n      mload\n        /* \"src/utils/ChainInfo.sol\":2206:2228  chains[_chain.chainId] */\n      0x00\n      swap1\n      dup2\n      mstore\n        /* \"src/utils/ChainInfo.sol\":2206:2212  chains */\n      0x01\n        /* \"src/utils/ChainInfo.sol\":2206:2228  chains[_chain.chainId] */\n      0x20\n      dup2\n      dup2\n      mstore\n      0x40\n      swap3\n      dup4\n      swap1\n      keccak256\n        /* \"src/utils/ChainInfo.sol\":2206:2237  chains[_chain.chainId] = _chain */\n      dup5\n      mload\n      dup2\n      sstore\n      swap1\n      dup5\n      add\n      mload\n      swap2\n      dup2\n      add\n      swap2\n      swap1\n      swap2\n      sstore\n      swap1\n      dup3\n      add\n      mload\n      0x02\n      swap1\n      swap2\n      add\n      dup1\n      sload\n      0x60\n      swap1\n      swap4\n      add\n      mload\n      0xffffffff\n      and\n      0x010000\n      mul\n      not(0xffffffffffff)\n      swap1\n      swap4\n      and\n      0xffff\n      swap1\n      swap3\n      and\n      swap2\n      swap1\n      swap2\n      or\n      swap2\n      swap1\n      swap2\n      or\n      swap1\n      sstore\n        /* \"src/utils/ChainInfo.sol\":2045:2244  function addChain(Chain memory _chain) external onlyOwner {... */\n      jump\t// out\n        /* \"lib/openzeppelin-contracts/contracts/access/Ownable.sol\":2543:2758  function transferOwnership(address newOwner) public virtual onlyOwner {... */\n    tag_33:\n        /* \"lib/openzeppelin-contracts/contracts/access/Ownable.sol\":1531:1544  _checkOwner() */\n      tag_51\n        /* \"lib/openzeppelin-contracts/contracts/access/Ownable.sol\":1531:1542  _checkOwner */\n      tag_36\n        /* \"lib/openzeppelin-contracts/contracts/access/Ownable.sol\":1531:1544  _checkOwner() */\n      jump\t// in\n    tag_51:\n      sub(shl(0xa0, 0x01), 0x01)\n        /* \"lib/openzeppelin-contracts/contracts/access/Ownable.sol\":2627:2649  newOwner == address(0) */\n      dup2\n      and\n        /* \"lib/openzeppelin-contracts/contracts/access/Ownable.sol\":2623:2714  if (newOwner == address(0)) {... */\n      tag_53\n      jumpi\n        /* \"lib/openzeppelin-contracts/contracts/access/Ownable.sol\":2672:2703  OwnableInvalidOwner(address(0)) */\n      mload(0x40)\n      shl(0xe0, 0x1e4fbdf7)\n      dup2\n      mstore\n        /* \"lib/openzeppelin-contracts/contracts/access/Ownable.sol\":2700:2701  0 */\n      0x00\n        /* \"lib/openzeppelin-contracts/contracts/access/Ownable.sol\":2672:2703  OwnableInvalidOwner(address(0)) */\n      0x04\n      dup3\n      add\n        /* \"#utility.yul\":1220:1271   */\n      mstore\n        /* \"#utility.yul\":1193:1211   */\n      0x24\n      add\n        /* \"lib/openzeppelin-contracts/contracts/access/Ownable.sol\":2672:2703  OwnableInvalidOwner(address(0)) */\n      tag_48\n        /* \"#utility.yul\":1074:1277   */\n      jump\n        /* \"lib/openzeppelin-contracts/contracts/access/Ownable.sol\":2623:2714  if (newOwner == address(0)) {... */\n    tag_53:\n        /* \"lib/openzeppelin-contracts/contracts/access/Ownable.sol\":2723:2751  _transferOwnership(newOwner) */\n      tag_55\n        /* \"lib/openzeppelin-contracts/contracts/access/Ownable.sol\":2742:2750  newOwner */\n      dup2\n        /* \"lib/openzeppelin-contracts/contracts/access/Ownable.sol\":2723:2741  _transferOwnership */\n      tag_39\n        /* \"lib/openzeppelin-contracts/contracts/access/Ownable.sol\":2723:2751  _transferOwnership(newOwner) */\n      jump\t// in\n    tag_55:\n        /* \"lib/openzeppelin-contracts/contracts/access/Ownable.sol\":2543:2758  function transferOwnership(address newOwner) public virtual onlyOwner {... */\n      pop\n      jump\t// out\n        /* \"lib/openzeppelin-contracts/contracts/access/Ownable.sol\":1796:1958  function _checkOwner() internal view virtual {... */\n    tag_36:\n        /* \"lib/openzeppelin-contracts/contracts/access/Ownable.sol\":1684:1691  address */\n      0x00\n        /* \"lib/openzeppelin-contracts/contracts/access/Ownable.sol\":1710:1716  _owner */\n      sload\n      sub(shl(0xa0, 0x01), 0x01)\n      and\n        /* \"lib/openzeppelin-contracts/contracts/utils/Context.sol\":735:745  msg.sender */\n      caller\n        /* \"lib/openzeppelin-contracts/contracts/access/Ownable.sol\":1855:1878  owner() != _msgSender() */\n      eq\n        /* \"lib/openzeppelin-contracts/contracts/access/Ownable.sol\":1851:1952  if (owner() != _msgSender()) {... */\n      tag_38\n      jumpi\n        /* \"lib/openzeppelin-contracts/contracts/access/Ownable.sol\":1901:1941  OwnableUnauthorizedAccount(_msgSender()) */\n      mload(0x40)\n      shl(0xe0, 0x118cdaa7)\n      dup2\n      mstore\n        /* \"lib/openzeppelin-contracts/contracts/utils/Context.sol\":735:745  msg.sender */\n      caller\n        /* \"lib/openzeppelin-contracts/contracts/access/Ownable.sol\":1901:1941  OwnableUnauthorizedAccount(_msgSender()) */\n      0x04\n      dup3\n      add\n        /* \"#utility.yul\":1220:1271   */\n      mstore\n        /* \"#utility.yul\":1193:1211   */\n      0x24\n      add\n        /* \"lib/openzeppelin-contracts/contracts/access/Ownable.sol\":1901:1941  OwnableUnauthorizedAccount(_msgSender()) */\n      tag_48\n        /* \"#utility.yul\":1074:1277   */\n      jump\n        /* \"lib/openzeppelin-contracts/contracts/access/Ownable.sol\":2912:3099  function _transferOwnership(address newOwner) internal virtual {... */\n    tag_39:\n        /* \"lib/openzeppelin-contracts/contracts/access/Ownable.sol\":2985:3001  address oldOwner */\n      0x00\n        /* \"lib/openzeppelin-contracts/contracts/access/Ownable.sol\":3004:3010  _owner */\n      dup1\n      sload\n      sub(shl(0xa0, 0x01), 0x01)\n        /* \"lib/openzeppelin-contracts/contracts/access/Ownable.sol\":3020:3037  _owner = newOwner */\n      dup4\n      dup2\n      and\n      not(sub(shl(0xa0, 0x01), 0x01))\n      dup4\n      and\n      dup2\n      or\n      dup5\n      sstore\n        /* \"lib/openzeppelin-contracts/contracts/access/Ownable.sol\":3052:3092  OwnershipTransferred(oldOwner, newOwner) */\n      mload(0x40)\n        /* \"lib/openzeppelin-contracts/contracts/access/Ownable.sol\":3004:3010  _owner */\n      swap2\n      swap1\n      swap3\n      and\n      swap3\n      dup4\n      swap2\n        /* \"lib/openzeppelin-contracts/contracts/access/Ownable.sol\":3052:3092  OwnershipTransferred(oldOwner, newOwner) */\n      0x8be0079c531659141344cd1fd0a4f28419497f9722a3daafe3b4186f6b6457e0\n      swap2\n        /* \"lib/openzeppelin-contracts/contracts/access/Ownable.sol\":2985:3001  address oldOwner */\n      swap1\n        /* \"lib/openzeppelin-contracts/contracts/access/Ownable.sol\":3052:3092  OwnershipTransferred(oldOwner, newOwner) */\n      log3\n        /* \"lib/openzeppelin-contracts/contracts/access/Ownable.sol\":2975:3099  {... */\n      pop\n        /* \"lib/openzeppelin-contracts/contracts/access/Ownable.sol\":2912:3099  function _transferOwnership(address newOwner) internal virtual {... */\n      pop\n      jump\t// out\n        /* \"#utility.yul\":14:194   */\n    tag_11:\n        /* \"#utility.yul\":73:79   */\n      0x00\n        /* \"#utility.yul\":126:128   */\n      0x20\n        /* \"#utility.yul\":114:123   */\n      dup3\n        /* \"#utility.yul\":105:112   */\n      dup5\n        /* \"#utility.yul\":101:124   */\n      sub\n        /* \"#utility.yul\":97:129   */\n      slt\n        /* \"#utility.yul\":94:146   */\n      iszero\n      tag_68\n      jumpi\n        /* \"#utility.yul\":142:143   */\n      0x00\n        /* \"#utility.yul\":139:140   */\n      dup1\n        /* \"#utility.yul\":132:144   */\n      revert\n        /* \"#utility.yul\":94:146   */\n    tag_68:\n      pop\n        /* \"#utility.yul\":165:188   */\n      calldataload\n      swap2\n        /* \"#utility.yul\":14:194   */\n      swap1\n      pop\n      jump\t// out\n        /* \"#utility.yul\":1282:1445   */\n    tag_65:\n        /* \"#utility.yul\":1349:1369   */\n      dup1\n      calldataload\n        /* \"#utility.yul\":1409:1419   */\n      0xffffffff\n        /* \"#utility.yul\":1398:1420   */\n      dup2\n      and\n        /* \"#utility.yul\":1388:1421   */\n      dup2\n      eq\n        /* \"#utility.yul\":1378:1439   */\n      tag_73\n      jumpi\n        /* \"#utility.yul\":1435:1436   */\n      0x00\n        /* \"#utility.yul\":1432:1433   */\n      dup1\n        /* \"#utility.yul\":1425:1437   */\n      revert\n        /* \"#utility.yul\":1378:1439   */\n    tag_73:\n        /* \"#utility.yul\":1282:1445   */\n      swap2\n      swap1\n      pop\n      jump\t// out\n        /* \"#utility.yul\":1450:2280   */\n    tag_28:\n        /* \"#utility.yul\":1531:1537   */\n      0x00\n        /* \"#utility.yul\":1584:1587   */\n      0x80\n        /* \"#utility.yul\":1572:1581   */\n      dup3\n        /* \"#utility.yul\":1563:1570   */\n      dup5\n        /* \"#utility.yul\":1559:1582   */\n      sub\n        /* \"#utility.yul\":1555:1588   */\n      slt\n        /* \"#utility.yul\":1552:1605   */\n      iszero\n      tag_75\n      jumpi\n        /* \"#utility.yul\":1601:1602   */\n      0x00\n        /* \"#utility.yul\":1598:1599   */\n      dup1\n        /* \"#utility.yul\":1591:1603   */\n      revert\n        /* \"#utility.yul\":1552:1605   */\n    tag_75:\n        /* \"#utility.yul\":1634:1636   */\n      0x40\n        /* \"#utility.yul\":1628:1637   */\n      mload\n        /* \"#utility.yul\":1676:1679   */\n      0x80\n        /* \"#utility.yul\":1668:1674   */\n      dup2\n        /* \"#utility.yul\":1664:1680   */\n      add\n        /* \"#utility.yul\":1746:1752   */\n      dup2\n        /* \"#utility.yul\":1734:1744   */\n      dup2\n        /* \"#utility.yul\":1731:1753   */\n      lt\n        /* \"#utility.yul\":1710:1728   */\n      0xffffffffffffffff\n        /* \"#utility.yul\":1698:1708   */\n      dup3\n        /* \"#utility.yul\":1695:1729   */\n      gt\n        /* \"#utility.yul\":1692:1754   */\n      or\n        /* \"#utility.yul\":1689:1874   */\n      iszero\n      tag_76\n      jumpi\n        /* \"#utility.yul\":1796:1806   */\n      0x4e487b71\n        /* \"#utility.yul\":1791:1794   */\n      0xe0\n        /* \"#utility.yul\":1787:1807   */\n      shl\n        /* \"#utility.yul\":1784:1785   */\n      0x00\n        /* \"#utility.yul\":1777:1808   */\n      mstore\n        /* \"#utility.yul\":1831:1835   */\n      0x41\n        /* \"#utility.yul\":1828:1829   */\n      0x04\n        /* \"#utility.yul\":1821:1836   */\n      mstore\n        /* \"#utility.yul\":1859:1863   */\n      0x24\n        /* \"#utility.yul\":1856:1857   */\n      0x00\n        /* \"#utility.yul\":1849:1864   */\n      revert\n        /* \"#utility.yul\":1689:1874   */\n    tag_76:\n        /* \"#utility.yul\":1894:1904   */\n      dup1\n        /* \"#utility.yul\":1890:1892   */\n      0x40\n        /* \"#utility.yul\":1883:1905   */\n      mstore\n      pop\n        /* \"#utility.yul\":1942:1951   */\n      dup3\n        /* \"#utility.yul\":1929:1952   */\n      calldataload\n        /* \"#utility.yul\":1921:1927   */\n      dup2\n        /* \"#utility.yul\":1914:1953   */\n      mstore\n        /* \"#utility.yul\":2014:2016   */\n      0x20\n        /* \"#utility.yul\":2003:2012   */\n      dup4\n        /* \"#utility.yul\":1999:2017   */\n      add\n        /* \"#utility.yul\":1986:2018   */\n      calldataload\n        /* \"#utility.yul\":1981:1983   */\n      0x20\n        /* \"#utility.yul\":1973:1979   */\n      dup3\n        /* \"#utility.yul\":1969:1984   */\n      add\n        /* \"#utility.yul\":1962:2019   */\n      mstore\n        /* \"#utility.yul\":2069:2071   */\n      0x40\n        /* \"#utility.yul\":2058:2067   */\n      dup4\n        /* \"#utility.yul\":2054:2072   */\n      add\n        /* \"#utility.yul\":2041:2073   */\n      calldataload\n        /* \"#utility.yul\":2113:2119   */\n      0xffff\n        /* \"#utility.yul\":2106:2111   */\n      dup2\n        /* \"#utility.yul\":2102:2120   */\n      and\n        /* \"#utility.yul\":2095:2100   */\n      dup2\n        /* \"#utility.yul\":2092:2121   */\n      eq\n        /* \"#utility.yul\":2082:2139   */\n      tag_77\n      jumpi\n        /* \"#utility.yul\":2135:2136   */\n      0x00\n        /* \"#utility.yul\":2132:2133   */\n      dup1\n        /* \"#utility.yul\":2125:2137   */\n      revert\n        /* \"#utility.yul\":2082:2139   */\n    tag_77:\n        /* \"#utility.yul\":2167:2169   */\n      0x40\n        /* \"#utility.yul\":2155:2170   */\n      dup3\n      add\n        /* \"#utility.yul\":2148:2178   */\n      mstore\n        /* \"#utility.yul\":2211:2248   */\n      tag_78\n        /* \"#utility.yul\":2244:2246   */\n      0x60\n        /* \"#utility.yul\":2229:2247   */\n      dup5\n      add\n        /* \"#utility.yul\":2211:2248   */\n      tag_65\n      jump\t// in\n    tag_78:\n        /* \"#utility.yul\":2206:2208   */\n      0x60\n        /* \"#utility.yul\":2194:2209   */\n      dup3\n      add\n        /* \"#utility.yul\":2187:2249   */\n      mstore\n        /* \"#utility.yul\":2198:2204   */\n      swap4\n        /* \"#utility.yul\":1450:2280   */\n      swap3\n      pop\n      pop\n      pop\n      jump\t// out\n        /* \"#utility.yul\":2285:2571   */\n    tag_32:\n        /* \"#utility.yul\":2344:2350   */\n      0x00\n        /* \"#utility.yul\":2397:2399   */\n      0x20\n        /* \"#utility.yul\":2385:2394   */\n      dup3\n        /* \"#utility.yul\":2376:2383   */\n      dup5\n        /* \"#utility.yul\":2372:2395   */\n      sub\n        /* \"#utility.yul\":2368:2400   */\n      slt\n        /* \"#utility.yul\":2365:2417   */\n      iszero\n      tag_80\n      jumpi\n        /* \"#utility.yul\":2413:2414   */\n      0x00\n        /* \"#utility.yul\":2410:2411   */\n      dup1\n        /* \"#utility.yul\":2403:2415   */\n      revert\n        /* \"#utility.yul\":2365:2417   */\n    tag_80:\n        /* \"#utility.yul\":2439:2462   */\n      dup2\n      calldataload\n      sub(shl(0xa0, 0x01), 0x01)\n        /* \"#utility.yul\":2491:2522   */\n      dup2\n      and\n        /* \"#utility.yul\":2481:2523   */\n      dup2\n      eq\n        /* \"#utility.yul\":2471:2541   */\n      tag_81\n      jumpi\n        /* \"#utility.yul\":2537:2538   */\n      0x00\n        /* \"#utility.yul\":2534:2535   */\n      dup1\n        /* \"#utility.yul\":2527:2539   */\n      revert\n        /* \"#utility.yul\":2471:2541   */\n    tag_81:\n        /* \"#utility.yul\":2560:2565   */\n      swap4\n        /* \"#utility.yul\":2285:2571   */\n      swap3\n      pop\n      pop\n      pop\n      jump\t// out\n\n    auxdata: 0xa26469706673582212206465567be35747c3090e82f75d0bf4176557d34d2f06e47334ac76a7628b955164736f6c63430008190033\n}\n",
				"bytecode": {
					"linkReferences": {},
					"object": "608060405234801561000f575f80fd5b50338061003557604051631e4fbdf760e01b81525f600482015260240160405180910390fd5b61003e81610a6b565b5060405180608001604052806001815260200161008060405180604001604052806008815260200167457468657265756d60c01b815250610aba60201b60201c565b8152606560208083019190915261759560409283015260015f819052815282517fcc69885fda6bcc1a4ace058b4a62bf5e179ea78fd58a1ccd71c22cc9b688792f55828101517fcc69885fda6bcc1a4ace058b4a62bf5e179ea78fd58a1ccd71c22cc9b688793055828201517fcc69885fda6bcc1a4ace058b4a62bf5e179ea78fd58a1ccd71c22cc9b6887931805460609095015163ffffffff16620100000265ffffffffffff1990951661ffff9290921691909117939093179092558051608081018252603881528151808301909252600782526662696e616e636560c81b828401529182019061017190610aba565b8152606660208083019190915261759660409283015260385f526001815282517fb607cc36270bbbb376b98f602ec3a5ec6c4fe7cf0d42af35fd17a642242d24fd55828101517fb607cc36270bbbb376b98f602ec3a5ec6c4fe7cf0d42af35fd17a642242d24fe55828201517fb607cc36270bbbb376b98f602ec3a5ec6c4fe7cf0d42af35fd17a642242d24ff805460609095015163ffffffff16620100000265ffffffffffff1990951661ffff929092169190911793909317909255805160808101825261a86a8152815180830190925260098252684176616c616e63686560b81b828401529182019061026590610aba565b8152606a60208083019190915261759a60409283015261a86a5f526001815282517f2ac81f2b713aaab96f9745f662118839b87e598b16aa16440b4be604c915e1aa55828101517f2ac81f2b713aaab96f9745f662118839b87e598b16aa16440b4be604c915e1ab55828201517f2ac81f2b713aaab96f9745f662118839b87e598b16aa16440b4be604c915e1ac805460609095015163ffffffff16620100000265ffffffffffff1990951661ffff929092169190911793909317909255805160808101825260898152815180830190925260078252662837b63cb3b7b760c91b828401529182019061035790610aba565b8152606d60208083019190915261759d60409283015260895f526001815282517f2bda5adf664a0c31bf9134cad8d937629fcee52b9cefd545e0c716efa1202a5155828101517f2bda5adf664a0c31bf9134cad8d937629fcee52b9cefd545e0c716efa1202a5255828201517f2bda5adf664a0c31bf9134cad8d937629fcee52b9cefd545e0c716efa1202a53805460609095015163ffffffff16620100000265ffffffffffff1990951661ffff929092169190911793909317909255805160808101825261a4b1815281518083019092526008825267617262697472756d60c01b828401529182019061044a90610aba565b8152606e60208083019190915261759e60409283015261a4b15f526001815282517f205bae445d323d41c2a70638ff83cb0c4359544903850978ded8943e052cf97355828101517f205bae445d323d41c2a70638ff83cb0c4359544903850978ded8943e052cf97455828201517f205bae445d323d41c2a70638ff83cb0c4359544903850978ded8943e052cf975805460609095015163ffffffff16620100000265ffffffffffff1990951661ffff9290921691909117939093179092558051608081018252600a8152815180830190925260088252676f7074696d69736d60c01b828401529182019061053d90610aba565b8152606f60208083019190915261759f604092830152600a5f526001815282517f2a32391a76c35a36352b711f9152c0d0a340cd686850c8ef25fbb11c71b89e7b55828101517f2a32391a76c35a36352b711f9152c0d0a340cd686850c8ef25fbb11c71b89e7c55828201517f2a32391a76c35a36352b711f9152c0d0a340cd686850c8ef25fbb11c71b89e7d805460609095015163ffffffff16620100000265ffffffffffff1990951661ffff92909216919091179390931790925580516080810182526121058152815180830190925260048252636261736560e01b828401529182019061062c90610aba565b815260b86020808301919091526175e86040928301526121055f526001815282517fb60096399359af1e390f4ccad595eafc702d6489db902b1fd8607f3867d438e155828101517fb60096399359af1e390f4ccad595eafc702d6489db902b1fd8607f3867d438e255828201517fb60096399359af1e390f4ccad595eafc702d6489db902b1fd8607f3867d438e3805460609095015163ffffffff16620100000265ffffffffffff1990951661ffff929092169190911793909317909255805160808101825260fa81528151808301909252600682526546616e746f6d60d01b828401529182019061071d90610aba565b815260706020808301919091526175a060409283015260fa5f526001815282517fad014ecf9ca62e1a5436b1db3a59382cedbe7e40d58bf51cb87ccc098bbd86a455828101517fad014ecf9ca62e1a5436b1db3a59382cedbe7e40d58bf51cb87ccc098bbd86a555828201517fad014ecf9ca62e1a5436b1db3a59382cedbe7e40d58bf51cb87ccc098bbd86a6805460609095015163ffffffff16620100000265ffffffffffff1990951661ffff929092169190911793909317909255805160808101825261e7088152815180830190925260058252646c696e656160d81b828401529182019061080d90610aba565b815260b76020808301919091526175e760409283015261e7085f526001815282517fa2b372b1449eba5efee2cfe28e7beb7c3a128b92ca5f8a845f77bd7fdc4082ba55828101517fa2b372b1449eba5efee2cfe28e7beb7c3a128b92ca5f8a845f77bd7fdc4082bb55828201517fa2b372b1449eba5efee2cfe28e7beb7c3a128b92ca5f8a845f77bd7fdc4082bc805460609095015163ffffffff16620100000265ffffffffffff1990951661ffff92909216919091179390931790925580516080810182526108ae8152815180830190925260048252636b61766160e01b82840152918201906108fd90610aba565b815260b16020808301919091526175e16040928301526108ae5f908152600180835284517f10b548591a6afba595076624b083c0ed2fafdb163b263c7cb677fb4b55827bdd55848301517f10b548591a6afba595076624b083c0ed2fafdb163b263c7cb677fb4b55827bde55848401517f10b548591a6afba595076624b083c0ed2fafdb163b263c7cb677fb4b55827bdf805460609788015163ffffffff9081166201000090810265ffffffffffff1993841661ffff9687161717909355875160808101895261044080825281890188815260979a83019a8b526175c79b83019b8c5297529490965292517e2b16a72b26571c9c5b2c4ff0f7b2d2c355a0d76b29784f2ed8e7cc9d463f6d5592517e2b16a72b26571c9c5b2c4ff0f7b2d2c355a0d76b29784f2ed8e7cc9d463f6e5593517e2b16a72b26571c9c5b2c4ff0f7b2d2c355a0d76b29784f2ed8e7cc9d463f6f805496519094169092029416921691909117919091179055610b2a565b5f80546001600160a01b038381166001600160a01b0319831681178455604051919092169283917f8be0079c531659141344cd1fd0a4f28419497f9722a3daafe3b4186f6b6457e09190a35050565b80515f9082901580610acd5750601f8151115b15610aeb57604051638dc6ac0160e01b815260040160405180910390fd5b5f610af582610b04565b915160ff169091179392505050565b80516020808301519190811015610b24575f198160200360031b1b821691505b50919050565b61049380610b375f395ff3fe608060405234801561000f575f80fd5b5060043610610060575f3560e01c8063550325b514610064578063715018a6146100dc578063804ea334146100e65780638da5cb5b146101a2578063deaa66b0146101bc578063f2fde38b146101cf575b5f80fd5b6100a361007236600461037e565b600160208190525f918252604090912080549181015460029091015461ffff81169062010000900463ffffffff1684565b6040516100d39493929190938452602084019290925261ffff16604083015263ffffffff16606082015260800190565b60405180910390f35b6100e46101e2565b005b6101656100f436600461037e565b604080516080810182525f808252602082018190529181018290526060810191909152505f9081526001602081815260409283902083516080810185528154815292810154918301919091526002015461ffff8116928201929092526201000090910463ffffffff16606082015290565b6040516100d39190815181526020808301519082015260408083015161ffff169082015260609182015163ffffffff169181019190915260800190565b5f546040516001600160a01b0390911681526020016100d3565b6100e46101ca3660046103ad565b6101f5565b6100e46101dd366004610430565b6102c6565b6101ea610303565b6101f35f61032f565b565b6101fd610303565b80515f908152600160205260409020541561026b5760405162461bcd60e51b815260206004820152602360248201527f436861696e496e666f3a20436861696e20616c726561647920726567697374656044820152621c995960ea1b60648201526084015b60405180910390fd5b80515f90815260016020818152604092839020845181559084015191810191909155908201516002909101805460609093015163ffffffff16620100000265ffffffffffff1990931661ffff90921691909117919091179055565b6102ce610303565b6001600160a01b0381166102f757604051631e4fbdf760e01b81525f6004820152602401610262565b6103008161032f565b50565b5f546001600160a01b031633146101f35760405163118cdaa760e01b8152336004820152602401610262565b5f80546001600160a01b038381166001600160a01b0319831681178455604051919092169283917f8be0079c531659141344cd1fd0a4f28419497f9722a3daafe3b4186f6b6457e09190a35050565b5f6020828403121561038e575f80fd5b5035919050565b803563ffffffff811681146103a8575f80fd5b919050565b5f608082840312156103bd575f80fd5b6040516080810181811067ffffffffffffffff821117156103ec57634e487b7160e01b5f52604160045260245ffd5b80604052508235815260208301356020820152604083013561ffff81168114610413575f80fd5b604082015261042460608401610395565b60608201529392505050565b5f60208284031215610440575f80fd5b81356001600160a01b0381168114610456575f80fd5b939250505056fea26469706673582212206465567be35747c3090e82f75d0bf4176557d34d2f06e47334ac76a7628b955164736f6c63430008190033",
					"opcodes": "PUSH1 0x80 PUSH1 0x40 MSTORE CALLVALUE DUP1 ISZERO PUSH2 0xF JUMPI PUSH0 DUP1 REVERT JUMPDEST POP CALLER DUP1 PUSH2 0x35 JUMPI PUSH1 0x40 MLOAD PUSH4 0x1E4FBDF7 PUSH1 0xE0 SHL DUP2 MSTORE PUSH0 PUSH1 0x4 DUP3 ADD MSTORE PUSH1 0x24 ADD PUSH1 0x40 MLOAD DUP1 SWAP2 SUB SWAP1 REVERT JUMPDEST PUSH2 0x3E DUP2 PUSH2 0xA6B JUMP JUMPDEST POP PUSH1 0x40 MLOAD DUP1 PUSH1 0x80 ADD PUSH1 0x40 MSTORE DUP1 PUSH1 0x1 DUP2 MSTORE PUSH1 0x20 ADD PUSH2 0x80 PUSH1 0x40 MLOAD DUP1 PUSH1 0x40 ADD PUSH1 0x40 MSTORE DUP1 PUSH1 0x8 DUP2 MSTORE PUSH1 0x20 ADD PUSH8 0x457468657265756D PUSH1 0xC0 SHL DUP2 MSTORE POP PUSH2 0xABA PUSH1 0x20 SHL PUSH1 0x20 SHR JUMP JUMPDEST DUP2 MSTORE PUSH1 0x65 PUSH1 0x20 DUP1 DUP4 ADD SWAP2 SWAP1 SWAP2 MSTORE PUSH2 0x7595 PUSH1 0x40 SWAP3 DUP4 ADD MSTORE PUSH1 0x1 PUSH0 DUP2 SWAP1 MSTORE DUP2 MSTORE DUP3 MLOAD PUSH32 0xCC69885FDA6BCC1A4ACE058B4A62BF5E179EA78FD58A1CCD71C22CC9B688792F SSTORE DUP3 DUP2 ADD MLOAD PUSH32 0xCC69885FDA6BCC1A4ACE058B4A62BF5E179EA78FD58A1CCD71C22CC9B6887930 SSTORE DUP3 DUP3 ADD MLOAD PUSH32 0xCC69885FDA6BCC1A4ACE058B4A62BF5E179EA78FD58A1CCD71C22CC9B6887931 DUP1 SLOAD PUSH1 0x60 SWAP1 SWAP6 ADD MLOAD PUSH4 0xFFFFFFFF AND PUSH3 0x10000 MUL PUSH6 0xFFFFFFFFFFFF NOT SWAP1 SWAP6 AND PUSH2 0xFFFF SWAP3 SWAP1 SWAP3 AND SWAP2 SWAP1 SWAP2 OR SWAP4 SWAP1 SWAP4 OR SWAP1 SWAP3 SSTORE DUP1 MLOAD PUSH1 0x80 DUP2 ADD DUP3 MSTORE PUSH1 0x38 DUP2 MSTORE DUP2 MLOAD DUP1 DUP4 ADD SWAP1 SWAP3 MSTORE PUSH1 0x7 DUP3 MSTORE PUSH7 0x62696E616E6365 PUSH1 0xC8 SHL DUP3 DUP5 ADD MSTORE SWAP2 DUP3 ADD SWAP1 PUSH2 0x171 SWAP1 PUSH2 0xABA JUMP JUMPDEST DUP2 MSTORE PUSH1 0x66 PUSH1 0x20 DUP1 DUP4 ADD SWAP2 SWAP1 SWAP2 MSTORE PUSH2 0x7596 PUSH1 0x40 SWAP3 DUP4 ADD MSTORE PUSH1 0x38 PUSH0 MSTORE PUSH1 0x1 DUP2 MSTORE DUP3 MLOAD PUSH32 0xB607CC36270BBBB376B98F602EC3A5EC6C4FE7CF0D42AF35FD17A642242D24FD SSTORE DUP3 DUP2 ADD MLOAD PUSH32 0xB607CC36270BBBB376B98F602EC3A5EC6C4FE7CF0D42AF35FD17A642242D24FE SSTORE DUP3 DUP3 ADD MLOAD PUSH32 0xB607CC36270BBBB376B98F602EC3A5EC6C4FE7CF0D42AF35FD17A642242D24FF DUP1 SLOAD PUSH1 0x60 SWAP1 SWAP6 ADD MLOAD PUSH4 0xFFFFFFFF AND PUSH3 0x10000 MUL PUSH6 0xFFFFFFFFFFFF NOT SWAP1 SWAP6 AND PUSH2 0xFFFF SWAP3 SWAP1 SWAP3 AND SWAP2 SWAP1 SWAP2 OR SWAP4 SWAP1 SWAP4 OR SWAP1 SWAP3 SSTORE DUP1 MLOAD PUSH1 0x80 DUP2 ADD DUP3 MSTORE PUSH2 0xA86A DUP2 MSTORE DUP2 MLOAD DUP1 DUP4 ADD SWAP1 SWAP3 MSTORE PUSH1 0x9 DUP3 MSTORE PUSH9 0x4176616C616E636865 PUSH1 0xB8 SHL DUP3 DUP5 ADD MSTORE SWAP2 DUP3 ADD SWAP1 PUSH2 0x265 SWAP1 PUSH2 0xABA JUMP JUMPDEST DUP2 MSTORE PUSH1 0x6A PUSH1 0x20 DUP1 DUP4 ADD SWAP2 SWAP1 SWAP2 MSTORE PUSH2 0x759A PUSH1 0x40 SWAP3 DUP4 ADD MSTORE PUSH2 0xA86A PUSH0 MSTORE PUSH1 0x1 DUP2 MSTORE DUP3 MLOAD PUSH32 0x2AC81F2B713AAAB96F9745F662118839B87E598B16AA16440B4BE604C915E1AA SSTORE DUP3 DUP2 ADD MLOAD PUSH32 0x2AC81F2B713AAAB96F9745F662118839B87E598B16AA16440B4BE604C915E1AB SSTORE DUP3 DUP3 ADD MLOAD PUSH32 0x2AC81F2B713AAAB96F9745F662118839B87E598B16AA16440B4BE604C915E1AC DUP1 SLOAD PUSH1 0x60 SWAP1 SWAP6 ADD MLOAD PUSH4 0xFFFFFFFF AND PUSH3 0x10000 MUL PUSH6 0xFFFFFFFFFFFF NOT SWAP1 SWAP6 AND PUSH2 0xFFFF SWAP3 SWAP1 SWAP3 AND SWAP2 SWAP1 SWAP2 OR SWAP4 SWAP1 SWAP4 OR SWAP1 SWAP3 SSTORE DUP1 MLOAD PUSH1 0x80 DUP2 ADD DUP3 MSTORE PUSH1 0x89 DUP2 MSTORE DUP2 MLOAD DUP1 DUP4 ADD SWAP1 SWAP3 MSTORE PUSH1 0x7 DUP3 MSTORE PUSH7 0x2837B63CB3B7B7 PUSH1 0xC9 SHL DUP3 DUP5 ADD MSTORE SWAP2 DUP3 ADD SWAP1 PUSH2 0x357 SWAP1 PUSH2 0xABA JUMP JUMPDEST DUP2 MSTORE PUSH1 0x6D PUSH1 0x20 DUP1 DUP4 ADD SWAP2 SWAP1 SWAP2 MSTORE PUSH2 0x759D PUSH1 0x40 SWAP3 DUP4 ADD MSTORE PUSH1 0x89 PUSH0 MSTORE PUSH1 0x1 DUP2 MSTORE DUP3 MLOAD PUSH32 0x2BDA5ADF664A0C31BF9134CAD8D937629FCEE52B9CEFD545E0C716EFA1202A51 SSTORE DUP3 DUP2 ADD MLOAD PUSH32 0x2BDA5ADF664A0C31BF9134CAD8D937629FCEE52B9CEFD545E0C716EFA1202A52 SSTORE DUP3 DUP3 ADD MLOAD PUSH32 0x2BDA5ADF664A0C31BF9134CAD8D937629FCEE52B9CEFD545E0C716EFA1202A53 DUP1 SLOAD PUSH1 0x60 SWAP1 SWAP6 ADD MLOAD PUSH4 0xFFFFFFFF AND PUSH3 0x10000 MUL PUSH6 0xFFFFFFFFFFFF NOT SWAP1 SWAP6 AND PUSH2 0xFFFF SWAP3 SWAP1 SWAP3 AND SWAP2 SWAP1 SWAP2 OR SWAP4 SWAP1 SWAP4 OR SWAP1 SWAP3 SSTORE DUP1 MLOAD PUSH1 0x80 DUP2 ADD DUP3 MSTORE PUSH2 0xA4B1 DUP2 MSTORE DUP2 MLOAD DUP1 DUP4 ADD SWAP1 SWAP3 MSTORE PUSH1 0x8 DUP3 MSTORE PUSH8 0x617262697472756D PUSH1 0xC0 SHL DUP3 DUP5 ADD MSTORE SWAP2 DUP3 ADD SWAP1 PUSH2 0x44A SWAP1 PUSH2 0xABA JUMP JUMPDEST DUP2 MSTORE PUSH1 0x6E PUSH1 0x20 DUP1 DUP4 ADD SWAP2 SWAP1 SWAP2 MSTORE PUSH2 0x759E PUSH1 0x40 SWAP3 DUP4 ADD MSTORE PUSH2 0xA4B1 PUSH0 MSTORE PUSH1 0x1 DUP2 MSTORE DUP3 MLOAD PUSH32 0x205BAE445D323D41C2A70638FF83CB0C4359544903850978DED8943E052CF973 SSTORE DUP3 DUP2 ADD MLOAD PUSH32 0x205BAE445D323D41C2A70638FF83CB0C4359544903850978DED8943E052CF974 SSTORE DUP3 DUP3 ADD MLOAD PUSH32 0x205BAE445D323D41C2A70638FF83CB0C4359544903850978DED8943E052CF975 DUP1 SLOAD PUSH1 0x60 SWAP1 SWAP6 ADD MLOAD PUSH4 0xFFFFFFFF AND PUSH3 0x10000 MUL PUSH6 0xFFFFFFFFFFFF NOT SWAP1 SWAP6 AND PUSH2 0xFFFF SWAP3 SWAP1 SWAP3 AND SWAP2 SWAP1 SWAP2 OR SWAP4 SWAP1 SWAP4 OR SWAP1 SWAP3 SSTORE DUP1 MLOAD PUSH1 0x80 DUP2 ADD DUP3 MSTORE PUSH1 0xA DUP2 MSTORE DUP2 MLOAD DUP1 DUP4 ADD SWAP1 SWAP3 MSTORE PUSH1 0x8 DUP3 MSTORE PUSH8 0x6F7074696D69736D PUSH1 0xC0 SHL DUP3 DUP5 ADD MSTORE SWAP2 DUP3 ADD SWAP1 PUSH2 0x53D SWAP1 PUSH2 0xABA JUMP JUMPDEST DUP2 MSTORE PUSH1 0x6F PUSH1 0x20 DUP1 DUP4 ADD SWAP2 SWAP1 SWAP2 MSTORE PUSH2 0x759F PUSH1 0x40 SWAP3 DUP4 ADD MSTORE PUSH1 0xA PUSH0 MSTORE PUSH1 0x1 DUP2 MSTORE DUP3 MLOAD PUSH32 0x2A32391A76C35A36352B711F9152C0D0A340CD686850C8EF25FBB11C71B89E7B SSTORE DUP3 DUP2 ADD MLOAD PUSH32 0x2A32391A76C35A36352B711F9152C0D0A340CD686850C8EF25FBB11C71B89E7C SSTORE DUP3 DUP3 ADD MLOAD PUSH32 0x2A32391A76C35A36352B711F9152C0D0A340CD686850C8EF25FBB11C71B89E7D DUP1 SLOAD PUSH1 0x60 SWAP1 SWAP6 ADD MLOAD PUSH4 0xFFFFFFFF AND PUSH3 0x10000 MUL PUSH6 0xFFFFFFFFFFFF NOT SWAP1 SWAP6 AND PUSH2 0xFFFF SWAP3 SWAP1 SWAP3 AND SWAP2 SWAP1 SWAP2 OR SWAP4 SWAP1 SWAP4 OR SWAP1 SWAP3 SSTORE DUP1 MLOAD PUSH1 0x80 DUP2 ADD DUP3 MSTORE PUSH2 0x2105 DUP2 MSTORE DUP2 MLOAD DUP1 DUP4 ADD SWAP1 SWAP3 MSTORE PUSH1 0x4 DUP3 MSTORE PUSH4 0x62617365 PUSH1 0xE0 SHL DUP3 DUP5 ADD MSTORE SWAP2 DUP3 ADD SWAP1 PUSH2 0x62C SWAP1 PUSH2 0xABA JUMP JUMPDEST DUP2 MSTORE PUSH1 0xB8 PUSH1 0x20 DUP1 DUP4 ADD SWAP2 SWAP1 SWAP2 MSTORE PUSH2 0x75E8 PUSH1 0x40 SWAP3 DUP4 ADD MSTORE PUSH2 0x2105 PUSH0 MSTORE PUSH1 0x1 DUP2 MSTORE DUP3 MLOAD PUSH32 0xB60096399359AF1E390F4CCAD595EAFC702D6489DB902B1FD8607F3867D438E1 SSTORE DUP3 DUP2 ADD MLOAD PUSH32 0xB60096399359AF1E390F4CCAD595EAFC702D6489DB902B1FD8607F3867D438E2 SSTORE DUP3 DUP3 ADD MLOAD PUSH32 0xB60096399359AF1E390F4CCAD595EAFC702D6489DB902B1FD8607F3867D438E3 DUP1 SLOAD PUSH1 0x60 SWAP1 SWAP6 ADD MLOAD PUSH4 0xFFFFFFFF AND PUSH3 0x10000 MUL PUSH6 0xFFFFFFFFFFFF NOT SWAP1 SWAP6 AND PUSH2 0xFFFF SWAP3 SWAP1 SWAP3 AND SWAP2 SWAP1 SWAP2 OR SWAP4 SWAP1 SWAP4 OR SWAP1 SWAP3 SSTORE DUP1 MLOAD PUSH1 0x80 DUP2 ADD DUP3 MSTORE PUSH1 0xFA DUP2 MSTORE DUP2 MLOAD DUP1 DUP4 ADD SWAP1 SWAP3 MSTORE PUSH1 0x6 DUP3 MSTORE PUSH6 0x46616E746F6D PUSH1 0xD0 SHL DUP3 DUP5 ADD MSTORE SWAP2 DUP3 ADD SWAP1 PUSH2 0x71D SWAP1 PUSH2 0xABA JUMP JUMPDEST DUP2 MSTORE PUSH1 0x70 PUSH1 0x20 DUP1 DUP4 ADD SWAP2 SWAP1 SWAP2 MSTORE PUSH2 0x75A0 PUSH1 0x40 SWAP3 DUP4 ADD MSTORE PUSH1 0xFA PUSH0 MSTORE PUSH1 0x1 DUP2 MSTORE DUP3 MLOAD PUSH32 0xAD014ECF9CA62E1A5436B1DB3A59382CEDBE7E40D58BF51CB87CCC098BBD86A4 SSTORE DUP3 DUP2 ADD MLOAD PUSH32 0xAD014ECF9CA62E1A5436B1DB3A59382CEDBE7E40D58BF51CB87CCC098BBD86A5 SSTORE DUP3 DUP3 ADD MLOAD PUSH32 0xAD014ECF9CA62E1A5436B1DB3A59382CEDBE7E40D58BF51CB87CCC098BBD86A6 DUP1 SLOAD PUSH1 0x60 SWAP1 SWAP6 ADD MLOAD PUSH4 0xFFFFFFFF AND PUSH3 0x10000 MUL PUSH6 0xFFFFFFFFFFFF NOT SWAP1 SWAP6 AND PUSH2 0xFFFF SWAP3 SWAP1 SWAP3 AND SWAP2 SWAP1 SWAP2 OR SWAP4 SWAP1 SWAP4 OR SWAP1 SWAP3 SSTORE DUP1 MLOAD PUSH1 0x80 DUP2 ADD DUP3 MSTORE PUSH2 0xE708 DUP2 MSTORE DUP2 MLOAD DUP1 DUP4 ADD SWAP1 SWAP3 MSTORE PUSH1 0x5 DUP3 MSTORE PUSH5 0x6C696E6561 PUSH1 0xD8 SHL DUP3 DUP5 ADD MSTORE SWAP2 DUP3 ADD SWAP1 PUSH2 0x80D SWAP1 PUSH2 0xABA JUMP JUMPDEST DUP2 MSTORE PUSH1 0xB7 PUSH1 0x20 DUP1 DUP4 ADD SWAP2 SWAP1 SWAP2 MSTORE PUSH2 0x75E7 PUSH1 0x40 SWAP3 DUP4 ADD MSTORE PUSH2 0xE708 PUSH0 MSTORE PUSH1 0x1 DUP2 MSTORE DUP3 MLOAD PUSH32 0xA2B372B1449EBA5EFEE2CFE28E7BEB7C3A128B92CA5F8A845F77BD7FDC4082BA SSTORE DUP3 DUP2 ADD MLOAD PUSH32 0xA2B372B1449EBA5EFEE2CFE28E7BEB7C3A128B92CA5F8A845F77BD7FDC4082BB SSTORE DUP3 DUP3 ADD MLOAD PUSH32 0xA2B372B1449EBA5EFEE2CFE28E7BEB7C3A128B92CA5F8A845F77BD7FDC4082BC DUP1 SLOAD PUSH1 0x60 SWAP1 SWAP6 ADD MLOAD PUSH4 0xFFFFFFFF AND PUSH3 0x10000 MUL PUSH6 0xFFFFFFFFFFFF NOT SWAP1 SWAP6 AND PUSH2 0xFFFF SWAP3 SWAP1 SWAP3 AND SWAP2 SWAP1 SWAP2 OR SWAP4 SWAP1 SWAP4 OR SWAP1 SWAP3 SSTORE DUP1 MLOAD PUSH1 0x80 DUP2 ADD DUP3 MSTORE PUSH2 0x8AE DUP2 MSTORE DUP2 MLOAD DUP1 DUP4 ADD SWAP1 SWAP3 MSTORE PUSH1 0x4 DUP3 MSTORE PUSH4 0x6B617661 PUSH1 0xE0 SHL DUP3 DUP5 ADD MSTORE SWAP2 DUP3 ADD SWAP1 PUSH2 0x8FD SWAP1 PUSH2 0xABA JUMP JUMPDEST DUP2 MSTORE PUSH1 0xB1 PUSH1 0x20 DUP1 DUP4 ADD SWAP2 SWAP1 SWAP2 MSTORE PUSH2 0x75E1 PUSH1 0x40 SWAP3 DUP4 ADD MSTORE PUSH2 0x8AE PUSH0 SWAP1 DUP2 MSTORE PUSH1 0x1 DUP1 DUP4 MSTORE DUP5 MLOAD PUSH32 0x10B548591A6AFBA595076624B083C0ED2FAFDB163B263C7CB677FB4B55827BDD SSTORE DUP5 DUP4 ADD MLOAD PUSH32 0x10B548591A6AFBA595076624B083C0ED2FAFDB163B263C7CB677FB4B55827BDE SSTORE DUP5 DUP5 ADD MLOAD PUSH32 0x10B548591A6AFBA595076624B083C0ED2FAFDB163B263C7CB677FB4B55827BDF DUP1 SLOAD PUSH1 0x60 SWAP8 DUP9 ADD MLOAD PUSH4 0xFFFFFFFF SWAP1 DUP2 AND PUSH3 0x10000 SWAP1 DUP2 MUL PUSH6 0xFFFFFFFFFFFF NOT SWAP4 DUP5 AND PUSH2 0xFFFF SWAP7 DUP8 AND OR OR SWAP1 SWAP4 SSTORE DUP8 MLOAD PUSH1 0x80 DUP2 ADD DUP10 MSTORE PUSH2 0x440 DUP1 DUP3 MSTORE DUP2 DUP10 ADD DUP9 DUP2 MSTORE PUSH1 0x97 SWAP11 DUP4 ADD SWAP11 DUP12 MSTORE PUSH2 0x75C7 SWAP12 DUP4 ADD SWAP12 DUP13 MSTORE SWAP8 MSTORE SWAP5 SWAP1 SWAP7 MSTORE SWAP3 MLOAD PUSH31 0x2B16A72B26571C9C5B2C4FF0F7B2D2C355A0D76B29784F2ED8E7CC9D463F6D SSTORE SWAP3 MLOAD PUSH31 0x2B16A72B26571C9C5B2C4FF0F7B2D2C355A0D76B29784F2ED8E7CC9D463F6E SSTORE SWAP4 MLOAD PUSH31 0x2B16A72B26571C9C5B2C4FF0F7B2D2C355A0D76B29784F2ED8E7CC9D463F6F DUP1 SLOAD SWAP7 MLOAD SWAP1 SWAP5 AND SWAP1 SWAP3 MUL SWAP5 AND SWAP3 AND SWAP2 SWAP1 SWAP2 OR SWAP2 SWAP1 SWAP2 OR SWAP1 SSTORE PUSH2 0xB2A JUMP JUMPDEST PUSH0 DUP1 SLOAD PUSH1 0x1 PUSH1 0x1 PUSH1 0xA0 SHL SUB DUP4 DUP2 AND PUSH1 0x1 PUSH1 0x1 PUSH1 0xA0 SHL SUB NOT DUP4 AND DUP2 OR DUP5 SSTORE PUSH1 0x40 MLOAD SWAP2 SWAP1 SWAP3 AND SWAP3 DUP4 SWAP2 PUSH32 0x8BE0079C531659141344CD1FD0A4F28419497F9722A3DAAFE3B4186F6B6457E0 SWAP2 SWAP1 LOG3 POP POP JUMP JUMPDEST DUP1 MLOAD PUSH0 SWAP1 DUP3 SWAP1 ISZERO DUP1 PUSH2 0xACD JUMPI POP PUSH1 0x1F DUP2 MLOAD GT JUMPDEST ISZERO PUSH2 0xAEB JUMPI PUSH1 0x40 MLOAD PUSH4 0x8DC6AC01 PUSH1 0xE0 SHL DUP2 MSTORE PUSH1 0x4 ADD PUSH1 0x40 MLOAD DUP1 SWAP2 SUB SWAP1 REVERT JUMPDEST PUSH0 PUSH2 0xAF5 DUP3 PUSH2 0xB04 JUMP JUMPDEST SWAP2 MLOAD PUSH1 0xFF AND SWAP1 SWAP2 OR SWAP4 SWAP3 POP POP POP JUMP JUMPDEST DUP1 MLOAD PUSH1 0x20 DUP1 DUP4 ADD MLOAD SWAP2 SWAP1 DUP2 LT ISZERO PUSH2 0xB24 JUMPI PUSH0 NOT DUP2 PUSH1 0x20 SUB PUSH1 0x3 SHL SHL DUP3 AND SWAP2 POP JUMPDEST POP SWAP2 SWAP1 POP JUMP JUMPDEST PUSH2 0x493 DUP1 PUSH2 0xB37 PUSH0 CODECOPY PUSH0 RETURN INVALID PUSH1 0x80 PUSH1 0x40 MSTORE CALLVALUE DUP1 ISZERO PUSH2 0xF JUMPI PUSH0 DUP1 REVERT JUMPDEST POP PUSH1 0x4 CALLDATASIZE LT PUSH2 0x60 JUMPI PUSH0 CALLDATALOAD PUSH1 0xE0 SHR DUP1 PUSH4 0x550325B5 EQ PUSH2 0x64 JUMPI DUP1 PUSH4 0x715018A6 EQ PUSH2 0xDC JUMPI DUP1 PUSH4 0x804EA334 EQ PUSH2 0xE6 JUMPI DUP1 PUSH4 0x8DA5CB5B EQ PUSH2 0x1A2 JUMPI DUP1 PUSH4 0xDEAA66B0 EQ PUSH2 0x1BC JUMPI DUP1 PUSH4 0xF2FDE38B EQ PUSH2 0x1CF JUMPI JUMPDEST PUSH0 DUP1 REVERT JUMPDEST PUSH2 0xA3 PUSH2 0x72 CALLDATASIZE PUSH1 0x4 PUSH2 0x37E JUMP JUMPDEST PUSH1 0x1 PUSH1 0x20 DUP2 SWAP1 MSTORE PUSH0 SWAP2 DUP3 MSTORE PUSH1 0x40 SWAP1 SWAP2 KECCAK256 DUP1 SLOAD SWAP2 DUP2 ADD SLOAD PUSH1 0x2 SWAP1 SWAP2 ADD SLOAD PUSH2 0xFFFF DUP2 AND SWAP1 PUSH3 0x10000 SWAP1 DIV PUSH4 0xFFFFFFFF AND DUP5 JUMP JUMPDEST PUSH1 0x40 MLOAD PUSH2 0xD3 SWAP5 SWAP4 SWAP3 SWAP2 SWAP1 SWAP4 DUP5 MSTORE PUSH1 0x20 DUP5 ADD SWAP3 SWAP1 SWAP3 MSTORE PUSH2 0xFFFF AND PUSH1 0x40 DUP4 ADD MSTORE PUSH4 0xFFFFFFFF AND PUSH1 0x60 DUP3 ADD MSTORE PUSH1 0x80 ADD SWAP1 JUMP JUMPDEST PUSH1 0x40 MLOAD DUP1 SWAP2 SUB SWAP1 RETURN JUMPDEST PUSH2 0xE4 PUSH2 0x1E2 JUMP JUMPDEST STOP JUMPDEST PUSH2 0x165 PUSH2 0xF4 CALLDATASIZE PUSH1 0x4 PUSH2 0x37E JUMP JUMPDEST PUSH1 0x40 DUP1 MLOAD PUSH1 0x80 DUP2 ADD DUP3 MSTORE PUSH0 DUP1 DUP3 MSTORE PUSH1 0x20 DUP3 ADD DUP2 SWAP1 MSTORE SWAP2 DUP2 ADD DUP3 SWAP1 MSTORE PUSH1 0x60 DUP2 ADD SWAP2 SWAP1 SWAP2 MSTORE POP PUSH0 SWAP1 DUP2 MSTORE PUSH1 0x1 PUSH1 0x20 DUP2 DUP2 MSTORE PUSH1 0x40 SWAP3 DUP4 SWAP1 KECCAK256 DUP4 MLOAD PUSH1 0x80 DUP2 ADD DUP6 MSTORE DUP2 SLOAD DUP2 MSTORE SWAP3 DUP2 ADD SLOAD SWAP2 DUP4 ADD SWAP2 SWAP1 SWAP2 MSTORE PUSH1 0x2 ADD SLOAD PUSH2 0xFFFF DUP2 AND SWAP3 DUP3 ADD SWAP3 SWAP1 SWAP3 MSTORE PUSH3 0x10000 SWAP1 SWAP2 DIV PUSH4 0xFFFFFFFF AND PUSH1 0x60 DUP3 ADD MSTORE SWAP1 JUMP JUMPDEST PUSH1 0x40 MLOAD PUSH2 0xD3 SWAP2 SWAP1 DUP2 MLOAD DUP2 MSTORE PUSH1 0x20 DUP1 DUP4 ADD MLOAD SWAP1 DUP3 ADD MSTORE PUSH1 0x40 DUP1 DUP4 ADD MLOAD PUSH2 0xFFFF AND SWAP1 DUP3 ADD MSTORE PUSH1 0x60 SWAP2 DUP3 ADD MLOAD PUSH4 0xFFFFFFFF AND SWAP2 DUP2 ADD SWAP2 SWAP1 SWAP2 MSTORE PUSH1 0x80 ADD SWAP1 JUMP JUMPDEST PUSH0 SLOAD PUSH1 0x40 MLOAD PUSH1 0x1 PUSH1 0x1 PUSH1 0xA0 SHL SUB SWAP1 SWAP2 AND DUP2 MSTORE PUSH1 0x20 ADD PUSH2 0xD3 JUMP JUMPDEST PUSH2 0xE4 PUSH2 0x1CA CALLDATASIZE PUSH1 0x4 PUSH2 0x3AD JUMP JUMPDEST PUSH2 0x1F5 JUMP JUMPDEST PUSH2 0xE4 PUSH2 0x1DD CALLDATASIZE PUSH1 0x4 PUSH2 0x430 JUMP JUMPDEST PUSH2 0x2C6 JUMP JUMPDEST PUSH2 0x1EA PUSH2 0x303 JUMP JUMPDEST PUSH2 0x1F3 PUSH0 PUSH2 0x32F JUMP JUMPDEST JUMP JUMPDEST PUSH2 0x1FD PUSH2 0x303 JUMP JUMPDEST DUP1 MLOAD PUSH0 SWAP1 DUP2 MSTORE PUSH1 0x1 PUSH1 0x20 MSTORE PUSH1 0x40 SWAP1 KECCAK256 SLOAD ISZERO PUSH2 0x26B JUMPI PUSH1 0x40 MLOAD PUSH3 0x461BCD PUSH1 0xE5 SHL DUP2 MSTORE PUSH1 0x20 PUSH1 0x4 DUP3 ADD MSTORE PUSH1 0x23 PUSH1 0x24 DUP3 ADD MSTORE PUSH32 0x436861696E496E666F3A20436861696E20616C72656164792072656769737465 PUSH1 0x44 DUP3 ADD MSTORE PUSH3 0x1C9959 PUSH1 0xEA SHL PUSH1 0x64 DUP3 ADD MSTORE PUSH1 0x84 ADD JUMPDEST PUSH1 0x40 MLOAD DUP1 SWAP2 SUB SWAP1 REVERT JUMPDEST DUP1 MLOAD PUSH0 SWAP1 DUP2 MSTORE PUSH1 0x1 PUSH1 0x20 DUP2 DUP2 MSTORE PUSH1 0x40 SWAP3 DUP4 SWAP1 KECCAK256 DUP5 MLOAD DUP2 SSTORE SWAP1 DUP5 ADD MLOAD SWAP2 DUP2 ADD SWAP2 SWAP1 SWAP2 SSTORE SWAP1 DUP3 ADD MLOAD PUSH1 0x2 SWAP1 SWAP2 ADD DUP1 SLOAD PUSH1 0x60 SWAP1 SWAP4 ADD MLOAD PUSH4 0xFFFFFFFF AND PUSH3 0x10000 MUL PUSH6 0xFFFFFFFFFFFF NOT SWAP1 SWAP4 AND PUSH2 0xFFFF SWAP1 SWAP3 AND SWAP2 SWAP1 SWAP2 OR SWAP2 SWAP1 SWAP2 OR SWAP1 SSTORE JUMP JUMPDEST PUSH2 0x2CE PUSH2 0x303 JUMP JUMPDEST PUSH1 0x1 PUSH1 0x1 PUSH1 0xA0 SHL SUB DUP2 AND PUSH2 0x2F7 JUMPI PUSH1 0x40 MLOAD PUSH4 0x1E4FBDF7 PUSH1 0xE0 SHL DUP2 MSTORE PUSH0 PUSH1 0x4 DUP3 ADD MSTORE PUSH1 0x24 ADD PUSH2 0x262 JUMP JUMPDEST PUSH2 0x300 DUP2 PUSH2 0x32F JUMP JUMPDEST POP JUMP JUMPDEST PUSH0 SLOAD PUSH1 0x1 PUSH1 0x1 PUSH1 0xA0 SHL SUB AND CALLER EQ PUSH2 0x1F3 JUMPI PUSH1 0x40 MLOAD PUSH4 0x118CDAA7 PUSH1 0xE0 SHL DUP2 MSTORE CALLER PUSH1 0x4 DUP3 ADD MSTORE PUSH1 0x24 ADD PUSH2 0x262 JUMP JUMPDEST PUSH0 DUP1 SLOAD PUSH1 0x1 PUSH1 0x1 PUSH1 0xA0 SHL SUB DUP4 DUP2 AND PUSH1 0x1 PUSH1 0x1 PUSH1 0xA0 SHL SUB NOT DUP4 AND DUP2 OR DUP5 SSTORE PUSH1 0x40 MLOAD SWAP2 SWAP1 SWAP3 AND SWAP3 DUP4 SWAP2 PUSH32 0x8BE0079C531659141344CD1FD0A4F28419497F9722A3DAAFE3B4186F6B6457E0 SWAP2 SWAP1 LOG3 POP POP JUMP JUMPDEST PUSH0 PUSH1 0x20 DUP3 DUP5 SUB SLT ISZERO PUSH2 0x38E JUMPI PUSH0 DUP1 REVERT JUMPDEST POP CALLDATALOAD SWAP2 SWAP1 POP JUMP JUMPDEST DUP1 CALLDATALOAD PUSH4 0xFFFFFFFF DUP2 AND DUP2 EQ PUSH2 0x3A8 JUMPI PUSH0 DUP1 REVERT JUMPDEST SWAP2 SWAP1 POP JUMP JUMPDEST PUSH0 PUSH1 0x80 DUP3 DUP5 SUB SLT ISZERO PUSH2 0x3BD JUMPI PUSH0 DUP1 REVERT JUMPDEST PUSH1 0x40 MLOAD PUSH1 0x80 DUP2 ADD DUP2 DUP2 LT PUSH8 0xFFFFFFFFFFFFFFFF DUP3 GT OR ISZERO PUSH2 0x3EC JUMPI PUSH4 0x4E487B71 PUSH1 0xE0 SHL PUSH0 MSTORE PUSH1 0x41 PUSH1 0x4 MSTORE PUSH1 0x24 PUSH0 REVERT JUMPDEST DUP1 PUSH1 0x40 MSTORE POP DUP3 CALLDATALOAD DUP2 MSTORE PUSH1 0x20 DUP4 ADD CALLDATALOAD PUSH1 0x20 DUP3 ADD MSTORE PUSH1 0x40 DUP4 ADD CALLDATALOAD PUSH2 0xFFFF DUP2 AND DUP2 EQ PUSH2 0x413 JUMPI PUSH0 DUP1 REVERT JUMPDEST PUSH1 0x40 DUP3 ADD MSTORE PUSH2 0x424 PUSH1 0x60 DUP5 ADD PUSH2 0x395 JUMP JUMPDEST PUSH1 0x60 DUP3 ADD MSTORE SWAP4 SWAP3 POP POP POP JUMP JUMPDEST PUSH0 PUSH1 0x20 DUP3 DUP5 SUB SLT ISZERO PUSH2 0x440 JUMPI PUSH0 DUP1 REVERT JUMPDEST DUP2 CALLDATALOAD PUSH1 0x1 PUSH1 0x1 PUSH1 0xA0 SHL SUB DUP2 AND DUP2 EQ PUSH2 0x456 JUMPI PUSH0 DUP1 REVERT JUMPDEST SWAP4 SWAP3 POP POP POP JUMP INVALID LOG2 PUSH5 0x6970667358 0x22 SLT KECCAK256 PUSH5 0x65567BE357 SELFBALANCE 0xC3 MULMOD 0xE DUP3 0xF7 TSTORE SIGNEXTEND DELEGATECALL OR PUSH6 0x57D34D2F06E4 PUSH20 0x34AC76A7628B955164736F6C6343000819003300 "
				},
				"gasEstimates": {
					"creation": {
						"codeDepositCost": "234200",
						"executionCost": "infinite",
						"totalCost": "infinite"
					},
					"external": {
						"addChain((uint256,bytes32,uint16,uint32))": "73529",
						"chains(uint256)": "6759",
						"getChainInfo(uint256)": "7038",
						"owner()": "2343",
						"renounceOwnership()": "infinite",
						"transferOwnership(address)": "28382"
					}
				},
				"methodIdentifiers": {
					"addChain((uint256,bytes32,uint16,uint32))": "deaa66b0",
					"chains(uint256)": "550325b5",
					"getChainInfo(uint256)": "804ea334",
					"owner()": "8da5cb5b",
					"renounceOwnership()": "715018a6",
					"transferOwnership(address)": "f2fde38b"
				}
			},
			"storageLayout": {
				"storage": [
					{
						"astId": 8,
						"contract": "src/utils/ChainInfo.sol:ChainInfo",
						"label": "_owner",
						"offset": 0,
						"slot": "0",
						"type": "t_address"
					},
					{
						"astId": 318,
						"contract": "src/utils/ChainInfo.sol:ChainInfo",
						"label": "chains",
						"offset": 0,
						"slot": "1",
						"type": "t_mapping(t_uint256,t_struct(Chain)189_storage)"
					}
				],
				"types": {
					"t_address": {
						"encoding": "inplace",
						"label": "address",
						"numberOfBytes": "20"
					},
					"t_bytes32": {
						"encoding": "inplace",
						"label": "bytes32",
						"numberOfBytes": "32"
					},
					"t_mapping(t_uint256,t_struct(Chain)189_storage)": {
						"encoding": "mapping",
						"key": "t_uint256",
						"label": "mapping(uint256 => struct Chain)",
						"numberOfBytes": "32",
						"value": "t_struct(Chain)189_storage"
					},
					"t_struct(Chain)189_storage": {
						"encoding": "inplace",
						"label": "struct Chain",
						"members": [
							{
								"astId": 182,
								"contract": "src/utils/ChainInfo.sol:ChainInfo",
								"label": "chainId",
								"offset": 0,
								"slot": "0",
								"type": "t_uint256"
							},
							{
								"astId": 184,
								"contract": "src/utils/ChainInfo.sol:ChainInfo",
								"label": "axelarChainId",
								"offset": 0,
								"slot": "1",
								"type": "t_bytes32"
							},
							{
								"astId": 186,
								"contract": "src/utils/ChainInfo.sol:ChainInfo",
								"label": "stargateChainId",
								"offset": 0,
								"slot": "2",
								"type": "t_uint16"
							},
							{
								"astId": 188,
								"contract": "src/utils/ChainInfo.sol:ChainInfo",
								"label": "lzEndpointId",
								"offset": 2,
								"slot": "2",
								"type": "t_uint32"
							}
						],
						"numberOfBytes": "96"
					},
					"t_uint16": {
						"encoding": "inplace",
						"label": "uint16",
						"numberOfBytes": "2"
					},
					"t_uint256": {
						"encoding": "inplace",
						"label": "uint256",
						"numberOfBytes": "32"
					},
					"t_uint32": {
						"encoding": "inplace",
						"label": "uint32",
						"numberOfBytes": "4"
					}
				}
			},
			"userdoc": {
				"kind": "user",
				"methods": {},
				"version": 1
			}
		}
	}
}