{
	"data": {
		"bytecode": {
			"linkReferences": {},
			"object": "6080604052348015600e575f80fd5b50612acd8061001c5f395ff3fe608060405234801561000f575f80fd5b5060043610610029575f3560e01c806315e0bb381461002d575b5f80fd5b61004061003b366004610118565b61005c565b6040516001600160a01b03909116815260200160405180910390f35b5f808989898989898989604051610072906100ab565b610083989796959493929190610220565b604051809103905ff08015801561009c573d5f803e3d5ffd5b509a9950505050505050505050565b6127c2806102d683390190565b5f8083601f8401126100c8575f80fd5b50813567ffffffffffffffff8111156100df575f80fd5b6020830191508360208285010111156100f6575f80fd5b9250929050565b80356001600160a01b0381168114610113575f80fd5b919050565b5f805f805f805f8060a0898b03121561012f575f80fd5b883567ffffffffffffffff80821115610146575f80fd5b6101528c838d016100b8565b909a50985060208b013591508082111561016a575f80fd5b6101768c838d016100b8565b909850965060408b013591508082111561018e575f80fd5b818b0191508b601f8301126101a1575f80fd5b8135818111156101af575f80fd5b8c60206060830285010111156101c3575f80fd5b6020830196508095505050506101db60608a016100fd565b91506101e960808a016100fd565b90509295985092959890939650565b81835281816020850137505f828201602090810191909152601f909101601f19169091010190565b60a081525f61023360a083018a8c6101f8565b60208382036020850152610248828a8c6101f8565b848103604086810191909152888252899350906020015f5b8981101561029e57843582526001600160a01b0361027f8587016100fd565b1682850152848301358383015260609485019490910190600101610260565b506001600160a01b038816606087015293506102b992505050565b6001600160a01b0383166080830152999850505050505050505056fe608060405234801561000f575f80fd5b506040516127c23803806127c283398101604081905261002e916101f4565b8484600361003c83826103b0565b50600461004982826103b0565b5050600580546001600160a01b038086166001600160a01b0319928316179092556006805492851692909116919091179055505f5b83518110156100f757600784828151811061009b5761009b61046f565b6020908102919091018101518254600180820185555f9485529383902082516003909202019081559181015182840180546001600160a01b0319166001600160a01b03909216919091179055604001516002909101550161007e565b505050505050610483565b634e487b7160e01b5f52604160045260245ffd5b604051606081016001600160401b038111828210171561013857610138610102565b60405290565b604051601f8201601f191681016001600160401b038111828210171561016657610166610102565b604052919050565b5f82601f83011261017d575f80fd5b81516001600160401b0381111561019657610196610102565b6101a9601f8201601f191660200161013e565b8181528460208386010111156101bd575f80fd5b8160208501602083015e5f918101602001919091529392505050565b80516001600160a01b03811681146101ef575f80fd5b919050565b5f805f805f60a08688031215610208575f80fd5b85516001600160401b038082111561021e575f80fd5b61022a89838a0161016e565b9650602091508188015181811115610240575f80fd5b61024c8a828b0161016e565b96505060408089015182811115610261575f80fd5b8901601f81018b13610271575f80fd5b80518381111561028357610283610102565b610291858260051b0161013e565b8181528581019450606091820283018601918d8311156102af575f80fd5b928601925b828410156102fc5780848f0312156102ca575f80fd5b6102d2610116565b845181526102e18886016101d9565b818901528486015186820152865294860194928301926102b4565b50809850505050505050610312606087016101d9565b9150610320608087016101d9565b90509295509295909350565b600181811c9082168061034057607f821691505b60208210810361035e57634e487b7160e01b5f52602260045260245ffd5b50919050565b601f8211156103ab57805f5260205f20601f840160051c810160208510156103895750805b601f840160051c820191505b818110156103a8575f8155600101610395565b50505b505050565b81516001600160401b038111156103c9576103c9610102565b6103dd816103d7845461032c565b84610364565b602080601f831160018114610410575f84156103f95750858301515b5f19600386901b1c1916600185901b178555610467565b5f85815260208120601f198616915b8281101561043e5788860151825594840194600190910190840161041f565b508582101561045b57878501515f19600388901b60f8161c191681555b505060018460011b0185555b505050505050565b634e487b7160e01b5f52603260045260245ffd5b612332806104905f395ff3fe6080604052600436106101c5575f3560e01c806395d89b41116100f2578063db006a7511610092578063f01648f811610062578063f01648f81461056a578063f4c7636314610589578063fe206292146105a8578063fe74748e146105c7575f80fd5b8063db006a75146104eb578063dd62ed3e146104fe578063e02b79f914610542578063ef430aa614610556575f80fd5b8063a9059cbb116100cd578063a9059cbb14610463578063a9edf1f614610482578063ba906000146104a1578063cbf9fe5f146104c0575f80fd5b806395d89b41146103ee57806399fbab8814610402578063a2ce9c1f14610444575f80fd5b80633013ce291161016857806370a082311161013857806370a08231146103645780637284e4161461039857806380275860146103ac578063815ab005146103cd575f80fd5b80633013ce29146102c3578063313ce567146102fa57806356dc63cb146103155780636b9691a114610345575f80fd5b806318160ddd116101a357806318160ddd146102435780631ddc8f6d146102575780631fc5846b1461028357806323b872dd146102a4575f80fd5b806306fdde03146101c9578063095ea7b3146101f35780630b2b8e3514610222575b5f80fd5b3480156101d4575f80fd5b506101dd6105e4565b6040516101ea9190611a28565b60405180910390f35b3480156101fe575f80fd5b5061021261020d366004611a5c565b610674565b60405190151581526020016101ea565b610235610230366004611bcc565b61068d565b6040519081526020016101ea565b34801561024e575f80fd5b50600254610235565b348015610262575f80fd5b50610276610271366004611c89565b61098a565b6040516101ea9190611cd4565b34801561028e575f80fd5b5061023561029d366004611d27565b5f92915050565b3480156102af575f80fd5b506102126102be366004611d96565b610aca565b3480156102ce575f80fd5b506005546102e2906001600160a01b031681565b6040516001600160a01b0390911681526020016101ea565b348015610305575f80fd5b50604051601281526020016101ea565b348015610320575f80fd5b5061033461032f366004611c89565b610aed565b6040516101ea959493929190611dcf565b348015610350575f80fd5b5061033461035f366004611c89565b610bb3565b34801561036f575f80fd5b5061023561037e366004611e15565b6001600160a01b03165f9081526020819052604090205490565b3480156103a3575f80fd5b506101dd610bf8565b3480156103b7575f80fd5b506103c0610c84565b6040516101ea9190611e2e565b3480156103d8575f80fd5b506103ec6103e7366004611ed4565b610d04565b005b3480156103f9575f80fd5b506101dd610d26565b34801561040d575f80fd5b5061042161041c366004611c89565b610d35565b604080519384526001600160a01b039092166020840152908201526060016101ea565b34801561044f575f80fd5b5061027661045e366004611c89565b610d72565b34801561046e575f80fd5b5061021261047d366004611a5c565b610e06565b34801561048d575f80fd5b5061033461049c366004611c89565b610e85565b3480156104ac575f80fd5b506103ec6104bb366004611c89565b610eca565b3480156104cb575f80fd5b506102356104da366004611e15565b600d6020525f908152604090205481565b6102356104f9366004611c89565b6110fd565b348015610509575f80fd5b50610235610518366004611f3b565b6001600160a01b039182165f90815260016020908152604080832093909416825291909152205490565b34801561054d575f80fd5b50600754610235565b348015610561575f80fd5b506101dd611316565b348015610575575f80fd5b506103ec610584366004611c89565b611323565b348015610594575f80fd5b506006546102e2906001600160a01b031681565b3480156105b3575f80fd5b506102766105c2366004611c89565b611594565b3480156105d2575f80fd5b506103ec6105e1366004611c89565b50565b6060600380546105f390611f6c565b80601f016020809104026020016040519081016040528092919081815260200182805461061f90611f6c565b801561066a5780601f106106415761010080835404028352916020019161066a565b820191905f5260205f20905b81548152906001019060200180831161064d57829003601f168201915b5050505050905090565b5f33610681818585611628565b60019150505b92915050565b5f8084116106f95760405162461bcd60e51b815260206004820152602e60248201527f536c696365546f6b656e3a20536c69636520746f6b656e207175616e7469747960448201526d2063616e2774206265207a65726f60901b60648201526084015b60405180910390fd5b8151835114801561070c57506007548351145b6107725760405162461bcd60e51b815260206004820152603160248201527f536c696365546f6b656e3a20496e636f7272656374206c656e67746820666f7260448201527020707269636573206f7220726f7574657360781b60648201526084016106f0565b5f61077c8461163a565b6005546006546040516323b872dd60e01b81523360048201526001600160a01b0391821660248201526044810184905292935016906323b872dd906064016020604051808303815f875af11580156107d6573d5f803e3d5ffd5b505050506040513d601f19601f820116820180604052508101906107fa9190611f9e565b50604051630b2b8e3560e01b60208201526bffffffffffffffffffffffff1933606090811b8216602484015230901b166038820152604c8101869052606c810182905242608c8201525f9060ac0160408051808303601f19018152828252805160209182012060a0840183528084528184018a815233858501908152600160608701818152865180870188525f80825260808a0191909152858152600a90965295909420865181559151938201939093559151600280840180546001600160a01b031981166001600160a01b0390941693841782559551939750869590926001600160a81b03199091161790600160a01b9084908111156108fd576108fd611ca0565b0217905550608082015160038201906109169082612001565b5050600654604051630e84d55560e21b81526001600160a01b039091169150633a1355549034906109519086908c908c908c906004016120c1565b5f604051808303818588803b158015610968575f80fd5b505af115801561097a573d5f803e3d5ffd5b50949a9950505050505050505050565b6109bb6040805160a0810182525f808252602082018190529181018290529060608201908152602001606081525090565b5f828152600b6020908152604091829020825160a081018452815481526001820154928101929092526002808201546001600160a01b03811694840194909452919290916060840191600160a01b900460ff1690811115610a1e57610a1e611ca0565b6002811115610a2f57610a2f611ca0565b8152602001600382018054610a4390611f6c565b80601f0160208091040260200160405190810160405280929190818152602001828054610a6f90611f6c565b8015610aba5780601f10610a9157610100808354040283529160200191610aba565b820191905f5260205f20905b815481529060010190602001808311610a9d57829003601f168201915b5050505050815250509050919050565b5f33610ad785828561167b565b610ae28585856116f6565b506001949350505050565b600a6020525f90815260409020805460018201546002830154600384018054939492936001600160a01b03831693600160a01b90930460ff16929190610b3290611f6c565b80601f0160208091040260200160405190810160405280929190818152602001828054610b5e90611f6c565b8015610ba95780601f10610b8057610100808354040283529160200191610ba9565b820191905f5260205f20905b815481529060010190602001808311610b8c57829003601f168201915b5050505050905085565b600c6020525f90815260409020805460018201546002830154600384018054939492936001600160a01b03831693600160a01b90930460ff16929190610b3290611f6c565b60098054610c0590611f6c565b80601f0160208091040260200160405190810160405280929190818152602001828054610c3190611f6c565b8015610c7c5780601f10610c5357610100808354040283529160200191610c7c565b820191905f5260205f20905b815481529060010190602001808311610c5f57829003601f168201915b505050505081565b60606007805480602002602001604051908101604052809291908181526020015f905b82821015610cfb575f8481526020908190206040805160608101825260038602909201805483526001808201546001600160a01b031684860152600290910154918301919091529083529092019101610ca7565b50505050905090565b6008610d11848683612167565b506009610d1f828483612167565b5050505050565b6060600480546105f390611f6c565b60078181548110610d44575f80fd5b5f9182526020909120600390910201805460018201546002909201549092506001600160a01b039091169083565b610da36040805160a0810182525f808252602082018190529181018290529060608201908152602001606081525090565b5f828152600a6020908152604091829020825160a081018452815481526001820154928101929092526002808201546001600160a01b03811694840194909452919290916060840191600160a01b900460ff1690811115610a1e57610a1e611ca0565b5f610e113383611753565b610e725760405162461bcd60e51b815260206004820152602c60248201527f536c696365546f6b656e3a20547279696e6720746f207472616e73666572206c60448201526b1bd8dad95908185b5bdd5b9d60a21b60648201526084016106f0565b5f610e7d8484611789565b949350505050565b600b6020525f90815260409020805460018201546002830154600384018054939492936001600160a01b03831693600160a01b90930460ff16929190610b3290611f6c565b6006546001600160a01b03163314610ef45760405162461bcd60e51b81526004016106f090612221565b5f818152600a60209081526040808320815160a081018352815481526001820154938101939093526002808201546001600160a01b0381169385019390935290916060840191600160a01b90910460ff1690811115610f5557610f55611ca0565b6002811115610f6657610f66611ca0565b8152602001600382018054610f7a90611f6c565b80601f0160208091040260200160405190810160405280929190818152602001828054610fa690611f6c565b8015610ff15780601f10610fc857610100808354040283529160200191610ff1565b820191905f5260205f20905b815481529060010190602001808311610fd457829003601f168201915b505050919092525050815191925061104d90505760405162461bcd60e51b815260206004820152601b60248201527f536c696365546f6b656e3a20496e76616c6964206d696e74204944000000000060448201526064016106f0565b60018160600151600281111561106557611065611ca0565b146110825760405162461bcd60e51b81526004016106f090612265565b5f828152600a602052604090206002908101805460ff60a01b1916600160a01b8302179055506110ba81604001518260200151611796565b806020015181604001516001600160a01b03167fa61fdfb9f0c74c4b68b88685011450e9d2d293083bf9209c523a5e0b50ed7fe460405160405180910390a35050565b335f908152602081905260408120548211156111785760405162461bcd60e51b815260206004820152603460248201527f536c696365546f6b656e3a20547279696e6720746f2072656465656d206d6f7260448201527365207468616e20746f6b656e2062616c616e636560601b60648201526084016106f0565b335f908152600d6020526040812080548492906111969084906122c2565b909155505060405163db006a7560e01b60208201526bffffffffffffffffffffffff1933606090811b8216602484015230901b166038820152604c810183905242606c8201525f90608c0160408051808303601f19018152828252805160209182012060a08401835280845281840187815233858501908152600160608701818152865180870188525f80825260808a0191909152858152600c90965295909420865181559151938201939093559151600280840180546001600160a01b031981166001600160a01b0390941693841782559551939750869590926001600160a81b03199091161790600160a01b90849081111561129657611296611ca0565b0217905550608082015160038201906112af9082612001565b505060065460405163697a41f760e01b8152600481018590526001600160a01b03909116915063697a41f79034906024015f604051808303818588803b1580156112f7575f80fd5b505af1158015611309573d5f803e3d5ffd5b5094979650505050505050565b60088054610c0590611f6c565b6006546001600160a01b0316331461134d5760405162461bcd60e51b81526004016106f090612221565b5f818152600c60209081526040808320815160a081018352815481526001820154938101939093526002808201546001600160a01b0381169385019390935290916060840191600160a01b90910460ff16908111156113ae576113ae611ca0565b60028111156113bf576113bf611ca0565b81526020016003820180546113d390611f6c565b80601f01602080910402602001604051908101604052809291908181526020018280546113ff90611f6c565b801561144a5780601f106114215761010080835404028352916020019161144a565b820191905f5260205f20905b81548152906001019060200180831161142d57829003601f168201915b50505091909252505081519192506114a690505760405162461bcd60e51b815260206004820152601d60248201527f536c696365546f6b656e3a20496e76616c69642072656465656d20494400000060448201526064016106f0565b6001816060015160028111156114be576114be611ca0565b146114db5760405162461bcd60e51b81526004016106f090612265565b5f828152600c602052604090206002908101805460ff60a01b1916600160a01b830217905550611513816040015182602001516117ce565b8060200151600d5f83604001516001600160a01b03166001600160a01b031681526020019081526020015f205f82825461154d91906122d5565b9091555050602081015160408083015190516001600160a01b03909116907f7cb8583761a7935775076be427253c26130f2a9922e3b01f863ba82c38345a66905f90a35050565b6115c56040805160a0810182525f808252602082018190529181018290529060608201908152602001606081525090565b5f828152600c6020908152604091829020825160a081018452815481526001820154928101929092526002808201546001600160a01b03811694840194909452919290916060840191600160a01b900460ff1690811115610a1e57610a1e611ca0565b6116358383836001611802565b505050565b5f805b825181101561167557828181518110611658576116586122e8565b60200260200101518261166b91906122c2565b915060010161163d565b50919050565b6001600160a01b038381165f908152600160209081526040808320938616835292905220545f1981146116f057818110156116e257604051637dc7a0d960e11b81526001600160a01b038416600482015260248101829052604481018390526064016106f0565b6116f084848484035f611802565b50505050565b6001600160a01b03831661171f57604051634b637e8f60e11b81525f60048201526024016106f0565b6001600160a01b0382166117485760405163ec442f0560e01b81525f60048201526024016106f0565b6116358383836118d4565b6001600160a01b0382165f908152600d6020908152604080832054918390528220546117809084906122d5565b10159392505050565b5f336106818185856116f6565b6001600160a01b0382166117bf5760405163ec442f0560e01b81525f60048201526024016106f0565b6117ca5f83836118d4565b5050565b6001600160a01b0382166117f757604051634b637e8f60e11b81525f60048201526024016106f0565b6117ca825f836118d4565b6001600160a01b03841661182b5760405163e602df0560e01b81525f60048201526024016106f0565b6001600160a01b03831661185457604051634a1406b160e11b81525f60048201526024016106f0565b6001600160a01b038085165f90815260016020908152604080832093871683529290522082905580156116f057826001600160a01b0316846001600160a01b03167f8c5be1e5ebec7d5bd14f71427d1e84f3dd0314c0f7b2291e5b200ac8c7c3b925846040516118c691815260200190565b60405180910390a350505050565b6001600160a01b0383166118fe578060025f8282546118f391906122c2565b9091555061196e9050565b6001600160a01b0383165f90815260208190526040902054818110156119505760405163391434e360e21b81526001600160a01b038516600482015260248101829052604481018390526064016106f0565b6001600160a01b0384165f9081526020819052604090209082900390555b6001600160a01b03821661198a576002805482900390556119a8565b6001600160a01b0382165f9081526020819052604090208054820190555b816001600160a01b0316836001600160a01b03167fddf252ad1be2c89b69c2b068fc378daa952ba7f163c4a11628f55a4df523b3ef836040516119ed91815260200190565b60405180910390a3505050565b5f81518084528060208401602086015e5f602082860101526020601f19601f83011685010191505092915050565b602081525f611a3a60208301846119fa565b9392505050565b80356001600160a01b0381168114611a57575f80fd5b919050565b5f8060408385031215611a6d575f80fd5b611a7683611a41565b946020939093013593505050565b634e487b7160e01b5f52604160045260245ffd5b604051601f8201601f1916810167ffffffffffffffff81118282101715611ac157611ac1611a84565b604052919050565b5f67ffffffffffffffff821115611ae257611ae2611a84565b5060051b60200190565b5f601f83601f840112611afd575f80fd5b82356020611b12611b0d83611ac9565b611a98565b82815260059290921b85018101918181019087841115611b30575f80fd5b8287015b84811015611bc057803567ffffffffffffffff80821115611b53575f80fd5b818a0191508a603f830112611b66575f80fd5b85820135604082821115611b7c57611b7c611a84565b611b8d828b01601f19168901611a98565b92508183528c81838601011115611ba2575f80fd5b8181850189850137505f908201870152845250918301918301611b34565b50979650505050505050565b5f805f60608486031215611bde575f80fd5b8335925060208085013567ffffffffffffffff80821115611bfd575f80fd5b818701915087601f830112611c10575f80fd5b8135611c1e611b0d82611ac9565b81815260059190911b8301840190848101908a831115611c3c575f80fd5b938501935b82851015611c5a57843582529385019390850190611c41565b965050506040870135925080831115611c71575f80fd5b5050611c7f86828701611aec565b9150509250925092565b5f60208284031215611c99575f80fd5b5035919050565b634e487b7160e01b5f52602160045260245ffd5b60038110611cd057634e487b7160e01b5f52602160045260245ffd5b9052565b60208152815160208201526020820151604082015260018060a01b0360408301511660608201525f6060830151611d0e6080840182611cb4565b50608083015160a080840152610e7d60c08401826119fa565b5f8060208385031215611d38575f80fd5b823567ffffffffffffffff80821115611d4f575f80fd5b818501915085601f830112611d62575f80fd5b813581811115611d70575f80fd5b866020606083028501011115611d84575f80fd5b60209290920196919550909350505050565b5f805f60608486031215611da8575f80fd5b611db184611a41565b9250611dbf60208501611a41565b9150604084013590509250925092565b858152602081018590526001600160a01b0384166040820152611df56060820184611cb4565b60a060808201525f611e0a60a08301846119fa565b979650505050505050565b5f60208284031215611e25575f80fd5b611a3a82611a41565b602080825282518282018190525f919060409081850190868401855b82811015611e8257815180518552868101516001600160a01b0316878601528501518585015260609093019290850190600101611e4a565b5091979650505050505050565b5f8083601f840112611e9f575f80fd5b50813567ffffffffffffffff811115611eb6575f80fd5b602083019150836020828501011115611ecd575f80fd5b9250929050565b5f805f8060408587031215611ee7575f80fd5b843567ffffffffffffffff80821115611efe575f80fd5b611f0a88838901611e8f565b90965094506020870135915080821115611f22575f80fd5b50611f2f87828801611e8f565b95989497509550505050565b5f8060408385031215611f4c575f80fd5b611f5583611a41565b9150611f6360208401611a41565b90509250929050565b600181811c90821680611f8057607f821691505b60208210810361167557634e487b7160e01b5f52602260045260245ffd5b5f60208284031215611fae575f80fd5b81518015158114611a3a575f80fd5b601f82111561163557805f5260205f20601f840160051c81016020851015611fe25750805b601f840160051c820191505b81811015610d1f575f8155600101611fee565b815167ffffffffffffffff81111561201b5761201b611a84565b61202f816120298454611f6c565b84611fbd565b602080601f831160018114612062575f841561204b5750858301515b5f19600386901b1c1916600185901b1785556120b9565b5f85815260208120601f198616915b8281101561209057888601518255948401946001909101908401612071565b50858210156120ad57878501515f19600388901b60f8161c191681555b505060018460011b0185555b505050505050565b5f60808201868352602086818501526080604085015281865180845260a08601915082880193505f5b81811015612106578451835293830193918301916001016120ea565b5050848103606086015285518082528282019350600581901b820183018388015f5b8381101561215657601f198584030187526121448383516119fa565b96860196925090850190600101612128565b50909b9a5050505050505050505050565b67ffffffffffffffff83111561217f5761217f611a84565b6121938361218d8354611f6c565b83611fbd565b5f601f8411600181146121c4575f85156121ad5750838201355b5f19600387901b1c1916600186901b178355610d1f565b5f83815260208120601f198716915b828110156121f357868501358255602094850194600190920191016121d3565b508682101561220f575f1960f88860031b161c19848701351681555b505060018560011b0183555050505050565b60208082526024908201527f536c696365546f6b656e3a204f6e6c7920536c69636520436f72652063616e2060408201526318d85b1b60e21b606082015260800190565b60208082526029908201527f536c696365546f6b656e3a205472616e73616374696f6e207374617465206973604082015268103737ba1037b832b760b91b606082015260800190565b634e487b7160e01b5f52601160045260245ffd5b80820180821115610687576106876122ae565b81810381811115610687576106876122ae565b634e487b7160e01b5f52603260045260245ffdfea2646970667358221220f7544e0d7b1320e025a51b5c78c44b1e9f7e21f7199402fa7ae715b03f1d3daa64736f6c63430008190033a26469706673582212207e45891c33d00325abc02ebd30fe50ccbb64820da6e76ff09f39ca222ea2ab0d64736f6c63430008190033",
			"opcodes": "PUSH1 0x80 PUSH1 0x40 MSTORE CALLVALUE DUP1 ISZERO PUSH1 0xE JUMPI PUSH0 DUP1 REVERT JUMPDEST POP PUSH2 0x2ACD DUP1 PUSH2 0x1C PUSH0 CODECOPY PUSH0 RETURN INVALID PUSH1 0x80 PUSH1 0x40 MSTORE CALLVALUE DUP1 ISZERO PUSH2 0xF JUMPI PUSH0 DUP1 REVERT JUMPDEST POP PUSH1 0x4 CALLDATASIZE LT PUSH2 0x29 JUMPI PUSH0 CALLDATALOAD PUSH1 0xE0 SHR DUP1 PUSH4 0x15E0BB38 EQ PUSH2 0x2D JUMPI JUMPDEST PUSH0 DUP1 REVERT JUMPDEST PUSH2 0x40 PUSH2 0x3B CALLDATASIZE PUSH1 0x4 PUSH2 0x118 JUMP JUMPDEST PUSH2 0x5C JUMP JUMPDEST PUSH1 0x40 MLOAD PUSH1 0x1 PUSH1 0x1 PUSH1 0xA0 SHL SUB SWAP1 SWAP2 AND DUP2 MSTORE PUSH1 0x20 ADD PUSH1 0x40 MLOAD DUP1 SWAP2 SUB SWAP1 RETURN JUMPDEST PUSH0 DUP1 DUP10 DUP10 DUP10 DUP10 DUP10 DUP10 DUP10 DUP10 PUSH1 0x40 MLOAD PUSH2 0x72 SWAP1 PUSH2 0xAB JUMP JUMPDEST PUSH2 0x83 SWAP9 SWAP8 SWAP7 SWAP6 SWAP5 SWAP4 SWAP3 SWAP2 SWAP1 PUSH2 0x220 JUMP JUMPDEST PUSH1 0x40 MLOAD DUP1 SWAP2 SUB SWAP1 PUSH0 CREATE DUP1 ISZERO DUP1 ISZERO PUSH2 0x9C JUMPI RETURNDATASIZE PUSH0 DUP1 RETURNDATACOPY RETURNDATASIZE PUSH0 REVERT JUMPDEST POP SWAP11 SWAP10 POP POP POP POP POP POP POP POP POP POP JUMP JUMPDEST PUSH2 0x27C2 DUP1 PUSH2 0x2D6 DUP4 CODECOPY ADD SWAP1 JUMP JUMPDEST PUSH0 DUP1 DUP4 PUSH1 0x1F DUP5 ADD SLT PUSH2 0xC8 JUMPI PUSH0 DUP1 REVERT JUMPDEST POP DUP2 CALLDATALOAD PUSH8 0xFFFFFFFFFFFFFFFF DUP2 GT ISZERO PUSH2 0xDF JUMPI PUSH0 DUP1 REVERT JUMPDEST PUSH1 0x20 DUP4 ADD SWAP2 POP DUP4 PUSH1 0x20 DUP3 DUP6 ADD ADD GT ISZERO PUSH2 0xF6 JUMPI PUSH0 DUP1 REVERT JUMPDEST SWAP3 POP SWAP3 SWAP1 POP JUMP JUMPDEST DUP1 CALLDATALOAD PUSH1 0x1 PUSH1 0x1 PUSH1 0xA0 SHL SUB DUP2 AND DUP2 EQ PUSH2 0x113 JUMPI PUSH0 DUP1 REVERT JUMPDEST SWAP2 SWAP1 POP JUMP JUMPDEST PUSH0 DUP1 PUSH0 DUP1 PUSH0 DUP1 PUSH0 DUP1 PUSH1 0xA0 DUP10 DUP12 SUB SLT ISZERO PUSH2 0x12F JUMPI PUSH0 DUP1 REVERT JUMPDEST DUP9 CALLDATALOAD PUSH8 0xFFFFFFFFFFFFFFFF DUP1 DUP3 GT ISZERO PUSH2 0x146 JUMPI PUSH0 DUP1 REVERT JUMPDEST PUSH2 0x152 DUP13 DUP4 DUP14 ADD PUSH2 0xB8 JUMP JUMPDEST SWAP1 SWAP11 POP SWAP9 POP PUSH1 0x20 DUP12 ADD CALLDATALOAD SWAP2 POP DUP1 DUP3 GT ISZERO PUSH2 0x16A JUMPI PUSH0 DUP1 REVERT JUMPDEST PUSH2 0x176 DUP13 DUP4 DUP14 ADD PUSH2 0xB8 JUMP JUMPDEST SWAP1 SWAP9 POP SWAP7 POP PUSH1 0x40 DUP12 ADD CALLDATALOAD SWAP2 POP DUP1 DUP3 GT ISZERO PUSH2 0x18E JUMPI PUSH0 DUP1 REVERT JUMPDEST DUP2 DUP12 ADD SWAP2 POP DUP12 PUSH1 0x1F DUP4 ADD SLT PUSH2 0x1A1 JUMPI PUSH0 DUP1 REVERT JUMPDEST DUP2 CALLDATALOAD DUP2 DUP2 GT ISZERO PUSH2 0x1AF JUMPI PUSH0 DUP1 REVERT JUMPDEST DUP13 PUSH1 0x20 PUSH1 0x60 DUP4 MUL DUP6 ADD ADD GT ISZERO PUSH2 0x1C3 JUMPI PUSH0 DUP1 REVERT JUMPDEST PUSH1 0x20 DUP4 ADD SWAP7 POP DUP1 SWAP6 POP POP POP POP PUSH2 0x1DB PUSH1 0x60 DUP11 ADD PUSH2 0xFD JUMP JUMPDEST SWAP2 POP PUSH2 0x1E9 PUSH1 0x80 DUP11 ADD PUSH2 0xFD JUMP JUMPDEST SWAP1 POP SWAP3 SWAP6 SWAP9 POP SWAP3 SWAP6 SWAP9 SWAP1 SWAP4 SWAP7 POP JUMP JUMPDEST DUP2 DUP4 MSTORE DUP2 DUP2 PUSH1 0x20 DUP6 ADD CALLDATACOPY POP PUSH0 DUP3 DUP3 ADD PUSH1 0x20 SWAP1 DUP2 ADD SWAP2 SWAP1 SWAP2 MSTORE PUSH1 0x1F SWAP1 SWAP2 ADD PUSH1 0x1F NOT AND SWAP1 SWAP2 ADD ADD SWAP1 JUMP JUMPDEST PUSH1 0xA0 DUP2 MSTORE PUSH0 PUSH2 0x233 PUSH1 0xA0 DUP4 ADD DUP11 DUP13 PUSH2 0x1F8 JUMP JUMPDEST PUSH1 0x20 DUP4 DUP3 SUB PUSH1 0x20 DUP6 ADD MSTORE PUSH2 0x248 DUP3 DUP11 DUP13 PUSH2 0x1F8 JUMP JUMPDEST DUP5 DUP2 SUB PUSH1 0x40 DUP7 DUP2 ADD SWAP2 SWAP1 SWAP2 MSTORE DUP9 DUP3 MSTORE DUP10 SWAP4 POP SWAP1 PUSH1 0x20 ADD PUSH0 JUMPDEST DUP10 DUP2 LT ISZERO PUSH2 0x29E JUMPI DUP5 CALLDATALOAD DUP3 MSTORE PUSH1 0x1 PUSH1 0x1 PUSH1 0xA0 SHL SUB PUSH2 0x27F DUP6 DUP8 ADD PUSH2 0xFD JUMP JUMPDEST AND DUP3 DUP6 ADD MSTORE DUP5 DUP4 ADD CALLDATALOAD DUP4 DUP4 ADD MSTORE PUSH1 0x60 SWAP5 DUP6 ADD SWAP5 SWAP1 SWAP2 ADD SWAP1 PUSH1 0x1 ADD PUSH2 0x260 JUMP JUMPDEST POP PUSH1 0x1 PUSH1 0x1 PUSH1 0xA0 SHL SUB DUP9 AND PUSH1 0x60 DUP8 ADD MSTORE SWAP4 POP PUSH2 0x2B9 SWAP3 POP POP POP JUMP JUMPDEST PUSH1 0x1 PUSH1 0x1 PUSH1 0xA0 SHL SUB DUP4 AND PUSH1 0x80 DUP4 ADD MSTORE SWAP10 SWAP9 POP POP POP POP POP POP POP POP POP JUMP INVALID PUSH1 0x80 PUSH1 0x40 MSTORE CALLVALUE DUP1 ISZERO PUSH2 0xF JUMPI PUSH0 DUP1 REVERT JUMPDEST POP PUSH1 0x40 MLOAD PUSH2 0x27C2 CODESIZE SUB DUP1 PUSH2 0x27C2 DUP4 CODECOPY DUP2 ADD PUSH1 0x40 DUP2 SWAP1 MSTORE PUSH2 0x2E SWAP2 PUSH2 0x1F4 JUMP JUMPDEST DUP5 DUP5 PUSH1 0x3 PUSH2 0x3C DUP4 DUP3 PUSH2 0x3B0 JUMP JUMPDEST POP PUSH1 0x4 PUSH2 0x49 DUP3 DUP3 PUSH2 0x3B0 JUMP JUMPDEST POP POP PUSH1 0x5 DUP1 SLOAD PUSH1 0x1 PUSH1 0x1 PUSH1 0xA0 SHL SUB DUP1 DUP7 AND PUSH1 0x1 PUSH1 0x1 PUSH1 0xA0 SHL SUB NOT SWAP3 DUP4 AND OR SWAP1 SWAP3 SSTORE PUSH1 0x6 DUP1 SLOAD SWAP3 DUP6 AND SWAP3 SWAP1 SWAP2 AND SWAP2 SWAP1 SWAP2 OR SWAP1 SSTORE POP PUSH0 JUMPDEST DUP4 MLOAD DUP2 LT ISZERO PUSH2 0xF7 JUMPI PUSH1 0x7 DUP5 DUP3 DUP2 MLOAD DUP2 LT PUSH2 0x9B JUMPI PUSH2 0x9B PUSH2 0x46F JUMP JUMPDEST PUSH1 0x20 SWAP1 DUP2 MUL SWAP2 SWAP1 SWAP2 ADD DUP2 ADD MLOAD DUP3 SLOAD PUSH1 0x1 DUP1 DUP3 ADD DUP6 SSTORE PUSH0 SWAP5 DUP6 MSTORE SWAP4 DUP4 SWAP1 KECCAK256 DUP3 MLOAD PUSH1 0x3 SWAP1 SWAP3 MUL ADD SWAP1 DUP2 SSTORE SWAP2 DUP2 ADD MLOAD DUP3 DUP5 ADD DUP1 SLOAD PUSH1 0x1 PUSH1 0x1 PUSH1 0xA0 SHL SUB NOT AND PUSH1 0x1 PUSH1 0x1 PUSH1 0xA0 SHL SUB SWAP1 SWAP3 AND SWAP2 SWAP1 SWAP2 OR SWAP1 SSTORE PUSH1 0x40 ADD MLOAD PUSH1 0x2 SWAP1 SWAP2 ADD SSTORE ADD PUSH2 0x7E JUMP JUMPDEST POP POP POP POP POP POP PUSH2 0x483 JUMP JUMPDEST PUSH4 0x4E487B71 PUSH1 0xE0 SHL PUSH0 MSTORE PUSH1 0x41 PUSH1 0x4 MSTORE PUSH1 0x24 PUSH0 REVERT JUMPDEST PUSH1 0x40 MLOAD PUSH1 0x60 DUP2 ADD PUSH1 0x1 PUSH1 0x1 PUSH1 0x40 SHL SUB DUP2 GT DUP3 DUP3 LT OR ISZERO PUSH2 0x138 JUMPI PUSH2 0x138 PUSH2 0x102 JUMP JUMPDEST PUSH1 0x40 MSTORE SWAP1 JUMP JUMPDEST PUSH1 0x40 MLOAD PUSH1 0x1F DUP3 ADD PUSH1 0x1F NOT AND DUP2 ADD PUSH1 0x1 PUSH1 0x1 PUSH1 0x40 SHL SUB DUP2 GT DUP3 DUP3 LT OR ISZERO PUSH2 0x166 JUMPI PUSH2 0x166 PUSH2 0x102 JUMP JUMPDEST PUSH1 0x40 MSTORE SWAP2 SWAP1 POP JUMP JUMPDEST PUSH0 DUP3 PUSH1 0x1F DUP4 ADD SLT PUSH2 0x17D JUMPI PUSH0 DUP1 REVERT JUMPDEST DUP2 MLOAD PUSH1 0x1 PUSH1 0x1 PUSH1 0x40 SHL SUB DUP2 GT ISZERO PUSH2 0x196 JUMPI PUSH2 0x196 PUSH2 0x102 JUMP JUMPDEST PUSH2 0x1A9 PUSH1 0x1F DUP3 ADD PUSH1 0x1F NOT AND PUSH1 0x20 ADD PUSH2 0x13E JUMP JUMPDEST DUP2 DUP2 MSTORE DUP5 PUSH1 0x20 DUP4 DUP7 ADD ADD GT ISZERO PUSH2 0x1BD JUMPI PUSH0 DUP1 REVERT JUMPDEST DUP2 PUSH1 0x20 DUP6 ADD PUSH1 0x20 DUP4 ADD MCOPY PUSH0 SWAP2 DUP2 ADD PUSH1 0x20 ADD SWAP2 SWAP1 SWAP2 MSTORE SWAP4 SWAP3 POP POP POP JUMP JUMPDEST DUP1 MLOAD PUSH1 0x1 PUSH1 0x1 PUSH1 0xA0 SHL SUB DUP2 AND DUP2 EQ PUSH2 0x1EF JUMPI PUSH0 DUP1 REVERT JUMPDEST SWAP2 SWAP1 POP JUMP JUMPDEST PUSH0 DUP1 PUSH0 DUP1 PUSH0 PUSH1 0xA0 DUP7 DUP9 SUB SLT ISZERO PUSH2 0x208 JUMPI PUSH0 DUP1 REVERT JUMPDEST DUP6 MLOAD PUSH1 0x1 PUSH1 0x1 PUSH1 0x40 SHL SUB DUP1 DUP3 GT ISZERO PUSH2 0x21E JUMPI PUSH0 DUP1 REVERT JUMPDEST PUSH2 0x22A DUP10 DUP4 DUP11 ADD PUSH2 0x16E JUMP JUMPDEST SWAP7 POP PUSH1 0x20 SWAP2 POP DUP2 DUP9 ADD MLOAD DUP2 DUP2 GT ISZERO PUSH2 0x240 JUMPI PUSH0 DUP1 REVERT JUMPDEST PUSH2 0x24C DUP11 DUP3 DUP12 ADD PUSH2 0x16E JUMP JUMPDEST SWAP7 POP POP PUSH1 0x40 DUP1 DUP10 ADD MLOAD DUP3 DUP2 GT ISZERO PUSH2 0x261 JUMPI PUSH0 DUP1 REVERT JUMPDEST DUP10 ADD PUSH1 0x1F DUP2 ADD DUP12 SGT PUSH2 0x271 JUMPI PUSH0 DUP1 REVERT JUMPDEST DUP1 MLOAD DUP4 DUP2 GT ISZERO PUSH2 0x283 JUMPI PUSH2 0x283 PUSH2 0x102 JUMP JUMPDEST PUSH2 0x291 DUP6 DUP3 PUSH1 0x5 SHL ADD PUSH2 0x13E JUMP JUMPDEST DUP2 DUP2 MSTORE DUP6 DUP2 ADD SWAP5 POP PUSH1 0x60 SWAP2 DUP3 MUL DUP4 ADD DUP7 ADD SWAP2 DUP14 DUP4 GT ISZERO PUSH2 0x2AF JUMPI PUSH0 DUP1 REVERT JUMPDEST SWAP3 DUP7 ADD SWAP3 JUMPDEST DUP3 DUP5 LT ISZERO PUSH2 0x2FC JUMPI DUP1 DUP5 DUP16 SUB SLT ISZERO PUSH2 0x2CA JUMPI PUSH0 DUP1 REVERT JUMPDEST PUSH2 0x2D2 PUSH2 0x116 JUMP JUMPDEST DUP5 MLOAD DUP2 MSTORE PUSH2 0x2E1 DUP9 DUP7 ADD PUSH2 0x1D9 JUMP JUMPDEST DUP2 DUP10 ADD MSTORE DUP5 DUP7 ADD MLOAD DUP7 DUP3 ADD MSTORE DUP7 MSTORE SWAP5 DUP7 ADD SWAP5 SWAP3 DUP4 ADD SWAP3 PUSH2 0x2B4 JUMP JUMPDEST POP DUP1 SWAP9 POP POP POP POP POP POP POP PUSH2 0x312 PUSH1 0x60 DUP8 ADD PUSH2 0x1D9 JUMP JUMPDEST SWAP2 POP PUSH2 0x320 PUSH1 0x80 DUP8 ADD PUSH2 0x1D9 JUMP JUMPDEST SWAP1 POP SWAP3 SWAP6 POP SWAP3 SWAP6 SWAP1 SWAP4 POP JUMP JUMPDEST PUSH1 0x1 DUP2 DUP2 SHR SWAP1 DUP3 AND DUP1 PUSH2 0x340 JUMPI PUSH1 0x7F DUP3 AND SWAP2 POP JUMPDEST PUSH1 0x20 DUP3 LT DUP2 SUB PUSH2 0x35E JUMPI PUSH4 0x4E487B71 PUSH1 0xE0 SHL PUSH0 MSTORE PUSH1 0x22 PUSH1 0x4 MSTORE PUSH1 0x24 PUSH0 REVERT JUMPDEST POP SWAP2 SWAP1 POP JUMP JUMPDEST PUSH1 0x1F DUP3 GT ISZERO PUSH2 0x3AB JUMPI DUP1 PUSH0 MSTORE PUSH1 0x20 PUSH0 KECCAK256 PUSH1 0x1F DUP5 ADD PUSH1 0x5 SHR DUP2 ADD PUSH1 0x20 DUP6 LT ISZERO PUSH2 0x389 JUMPI POP DUP1 JUMPDEST PUSH1 0x1F DUP5 ADD PUSH1 0x5 SHR DUP3 ADD SWAP2 POP JUMPDEST DUP2 DUP2 LT ISZERO PUSH2 0x3A8 JUMPI PUSH0 DUP2 SSTORE PUSH1 0x1 ADD PUSH2 0x395 JUMP JUMPDEST POP POP JUMPDEST POP POP POP JUMP JUMPDEST DUP2 MLOAD PUSH1 0x1 PUSH1 0x1 PUSH1 0x40 SHL SUB DUP2 GT ISZERO PUSH2 0x3C9 JUMPI PUSH2 0x3C9 PUSH2 0x102 JUMP JUMPDEST PUSH2 0x3DD DUP2 PUSH2 0x3D7 DUP5 SLOAD PUSH2 0x32C JUMP JUMPDEST DUP5 PUSH2 0x364 JUMP JUMPDEST PUSH1 0x20 DUP1 PUSH1 0x1F DUP4 GT PUSH1 0x1 DUP2 EQ PUSH2 0x410 JUMPI PUSH0 DUP5 ISZERO PUSH2 0x3F9 JUMPI POP DUP6 DUP4 ADD MLOAD JUMPDEST PUSH0 NOT PUSH1 0x3 DUP7 SWAP1 SHL SHR NOT AND PUSH1 0x1 DUP6 SWAP1 SHL OR DUP6 SSTORE PUSH2 0x467 JUMP JUMPDEST PUSH0 DUP6 DUP2 MSTORE PUSH1 0x20 DUP2 KECCAK256 PUSH1 0x1F NOT DUP7 AND SWAP2 JUMPDEST DUP3 DUP2 LT ISZERO PUSH2 0x43E JUMPI DUP9 DUP7 ADD MLOAD DUP3 SSTORE SWAP5 DUP5 ADD SWAP5 PUSH1 0x1 SWAP1 SWAP2 ADD SWAP1 DUP5 ADD PUSH2 0x41F JUMP JUMPDEST POP DUP6 DUP3 LT ISZERO PUSH2 0x45B JUMPI DUP8 DUP6 ADD MLOAD PUSH0 NOT PUSH1 0x3 DUP9 SWAP1 SHL PUSH1 0xF8 AND SHR NOT AND DUP2 SSTORE JUMPDEST POP POP PUSH1 0x1 DUP5 PUSH1 0x1 SHL ADD DUP6 SSTORE JUMPDEST POP POP POP POP POP POP JUMP JUMPDEST PUSH4 0x4E487B71 PUSH1 0xE0 SHL PUSH0 MSTORE PUSH1 0x32 PUSH1 0x4 MSTORE PUSH1 0x24 PUSH0 REVERT JUMPDEST PUSH2 0x2332 DUP1 PUSH2 0x490 PUSH0 CODECOPY PUSH0 RETURN INVALID PUSH1 0x80 PUSH1 0x40 MSTORE PUSH1 0x4 CALLDATASIZE LT PUSH2 0x1C5 JUMPI PUSH0 CALLDATALOAD PUSH1 0xE0 SHR DUP1 PUSH4 0x95D89B41 GT PUSH2 0xF2 JUMPI DUP1 PUSH4 0xDB006A75 GT PUSH2 0x92 JUMPI DUP1 PUSH4 0xF01648F8 GT PUSH2 0x62 JUMPI DUP1 PUSH4 0xF01648F8 EQ PUSH2 0x56A JUMPI DUP1 PUSH4 0xF4C76363 EQ PUSH2 0x589 JUMPI DUP1 PUSH4 0xFE206292 EQ PUSH2 0x5A8 JUMPI DUP1 PUSH4 0xFE74748E EQ PUSH2 0x5C7 JUMPI PUSH0 DUP1 REVERT JUMPDEST DUP1 PUSH4 0xDB006A75 EQ PUSH2 0x4EB JUMPI DUP1 PUSH4 0xDD62ED3E EQ PUSH2 0x4FE JUMPI DUP1 PUSH4 0xE02B79F9 EQ PUSH2 0x542 JUMPI DUP1 PUSH4 0xEF430AA6 EQ PUSH2 0x556 JUMPI PUSH0 DUP1 REVERT JUMPDEST DUP1 PUSH4 0xA9059CBB GT PUSH2 0xCD JUMPI DUP1 PUSH4 0xA9059CBB EQ PUSH2 0x463 JUMPI DUP1 PUSH4 0xA9EDF1F6 EQ PUSH2 0x482 JUMPI DUP1 PUSH4 0xBA906000 EQ PUSH2 0x4A1 JUMPI DUP1 PUSH4 0xCBF9FE5F EQ PUSH2 0x4C0 JUMPI PUSH0 DUP1 REVERT JUMPDEST DUP1 PUSH4 0x95D89B41 EQ PUSH2 0x3EE JUMPI DUP1 PUSH4 0x99FBAB88 EQ PUSH2 0x402 JUMPI DUP1 PUSH4 0xA2CE9C1F EQ PUSH2 0x444 JUMPI PUSH0 DUP1 REVERT JUMPDEST DUP1 PUSH4 0x3013CE29 GT PUSH2 0x168 JUMPI DUP1 PUSH4 0x70A08231 GT PUSH2 0x138 JUMPI DUP1 PUSH4 0x70A08231 EQ PUSH2 0x364 JUMPI DUP1 PUSH4 0x7284E416 EQ PUSH2 0x398 JUMPI DUP1 PUSH4 0x80275860 EQ PUSH2 0x3AC JUMPI DUP1 PUSH4 0x815AB005 EQ PUSH2 0x3CD JUMPI PUSH0 DUP1 REVERT JUMPDEST DUP1 PUSH4 0x3013CE29 EQ PUSH2 0x2C3 JUMPI DUP1 PUSH4 0x313CE567 EQ PUSH2 0x2FA JUMPI DUP1 PUSH4 0x56DC63CB EQ PUSH2 0x315 JUMPI DUP1 PUSH4 0x6B9691A1 EQ PUSH2 0x345 JUMPI PUSH0 DUP1 REVERT JUMPDEST DUP1 PUSH4 0x18160DDD GT PUSH2 0x1A3 JUMPI DUP1 PUSH4 0x18160DDD EQ PUSH2 0x243 JUMPI DUP1 PUSH4 0x1DDC8F6D EQ PUSH2 0x257 JUMPI DUP1 PUSH4 0x1FC5846B EQ PUSH2 0x283 JUMPI DUP1 PUSH4 0x23B872DD EQ PUSH2 0x2A4 JUMPI PUSH0 DUP1 REVERT JUMPDEST DUP1 PUSH4 0x6FDDE03 EQ PUSH2 0x1C9 JUMPI DUP1 PUSH4 0x95EA7B3 EQ PUSH2 0x1F3 JUMPI DUP1 PUSH4 0xB2B8E35 EQ PUSH2 0x222 JUMPI JUMPDEST PUSH0 DUP1 REVERT JUMPDEST CALLVALUE DUP1 ISZERO PUSH2 0x1D4 JUMPI PUSH0 DUP1 REVERT JUMPDEST POP PUSH2 0x1DD PUSH2 0x5E4 JUMP JUMPDEST PUSH1 0x40 MLOAD PUSH2 0x1EA SWAP2 SWAP1 PUSH2 0x1A28 JUMP JUMPDEST PUSH1 0x40 MLOAD DUP1 SWAP2 SUB SWAP1 RETURN JUMPDEST CALLVALUE DUP1 ISZERO PUSH2 0x1FE JUMPI PUSH0 DUP1 REVERT JUMPDEST POP PUSH2 0x212 PUSH2 0x20D CALLDATASIZE PUSH1 0x4 PUSH2 0x1A5C JUMP JUMPDEST PUSH2 0x674 JUMP JUMPDEST PUSH1 0x40 MLOAD SWAP1 ISZERO ISZERO DUP2 MSTORE PUSH1 0x20 ADD PUSH2 0x1EA JUMP JUMPDEST PUSH2 0x235 PUSH2 0x230 CALLDATASIZE PUSH1 0x4 PUSH2 0x1BCC JUMP JUMPDEST PUSH2 0x68D JUMP JUMPDEST PUSH1 0x40 MLOAD SWAP1 DUP2 MSTORE PUSH1 0x20 ADD PUSH2 0x1EA JUMP JUMPDEST CALLVALUE DUP1 ISZERO PUSH2 0x24E JUMPI PUSH0 DUP1 REVERT JUMPDEST POP PUSH1 0x2 SLOAD PUSH2 0x235 JUMP JUMPDEST CALLVALUE DUP1 ISZERO PUSH2 0x262 JUMPI PUSH0 DUP1 REVERT JUMPDEST POP PUSH2 0x276 PUSH2 0x271 CALLDATASIZE PUSH1 0x4 PUSH2 0x1C89 JUMP JUMPDEST PUSH2 0x98A JUMP JUMPDEST PUSH1 0x40 MLOAD PUSH2 0x1EA SWAP2 SWAP1 PUSH2 0x1CD4 JUMP JUMPDEST CALLVALUE DUP1 ISZERO PUSH2 0x28E JUMPI PUSH0 DUP1 REVERT JUMPDEST POP PUSH2 0x235 PUSH2 0x29D CALLDATASIZE PUSH1 0x4 PUSH2 0x1D27 JUMP JUMPDEST PUSH0 SWAP3 SWAP2 POP POP JUMP JUMPDEST CALLVALUE DUP1 ISZERO PUSH2 0x2AF JUMPI PUSH0 DUP1 REVERT JUMPDEST POP PUSH2 0x212 PUSH2 0x2BE CALLDATASIZE PUSH1 0x4 PUSH2 0x1D96 JUMP JUMPDEST PUSH2 0xACA JUMP JUMPDEST CALLVALUE DUP1 ISZERO PUSH2 0x2CE JUMPI PUSH0 DUP1 REVERT JUMPDEST POP PUSH1 0x5 SLOAD PUSH2 0x2E2 SWAP1 PUSH1 0x1 PUSH1 0x1 PUSH1 0xA0 SHL SUB AND DUP2 JUMP JUMPDEST PUSH1 0x40 MLOAD PUSH1 0x1 PUSH1 0x1 PUSH1 0xA0 SHL SUB SWAP1 SWAP2 AND DUP2 MSTORE PUSH1 0x20 ADD PUSH2 0x1EA JUMP JUMPDEST CALLVALUE DUP1 ISZERO PUSH2 0x305 JUMPI PUSH0 DUP1 REVERT JUMPDEST POP PUSH1 0x40 MLOAD PUSH1 0x12 DUP2 MSTORE PUSH1 0x20 ADD PUSH2 0x1EA JUMP JUMPDEST CALLVALUE DUP1 ISZERO PUSH2 0x320 JUMPI PUSH0 DUP1 REVERT JUMPDEST POP PUSH2 0x334 PUSH2 0x32F CALLDATASIZE PUSH1 0x4 PUSH2 0x1C89 JUMP JUMPDEST PUSH2 0xAED JUMP JUMPDEST PUSH1 0x40 MLOAD PUSH2 0x1EA SWAP6 SWAP5 SWAP4 SWAP3 SWAP2 SWAP1 PUSH2 0x1DCF JUMP JUMPDEST CALLVALUE DUP1 ISZERO PUSH2 0x350 JUMPI PUSH0 DUP1 REVERT JUMPDEST POP PUSH2 0x334 PUSH2 0x35F CALLDATASIZE PUSH1 0x4 PUSH2 0x1C89 JUMP JUMPDEST PUSH2 0xBB3 JUMP JUMPDEST CALLVALUE DUP1 ISZERO PUSH2 0x36F JUMPI PUSH0 DUP1 REVERT JUMPDEST POP PUSH2 0x235 PUSH2 0x37E CALLDATASIZE PUSH1 0x4 PUSH2 0x1E15 JUMP JUMPDEST PUSH1 0x1 PUSH1 0x1 PUSH1 0xA0 SHL SUB AND PUSH0 SWAP1 DUP2 MSTORE PUSH1 0x20 DUP2 SWAP1 MSTORE PUSH1 0x40 SWAP1 KECCAK256 SLOAD SWAP1 JUMP JUMPDEST CALLVALUE DUP1 ISZERO PUSH2 0x3A3 JUMPI PUSH0 DUP1 REVERT JUMPDEST POP PUSH2 0x1DD PUSH2 0xBF8 JUMP JUMPDEST CALLVALUE DUP1 ISZERO PUSH2 0x3B7 JUMPI PUSH0 DUP1 REVERT JUMPDEST POP PUSH2 0x3C0 PUSH2 0xC84 JUMP JUMPDEST PUSH1 0x40 MLOAD PUSH2 0x1EA SWAP2 SWAP1 PUSH2 0x1E2E JUMP JUMPDEST CALLVALUE DUP1 ISZERO PUSH2 0x3D8 JUMPI PUSH0 DUP1 REVERT JUMPDEST POP PUSH2 0x3EC PUSH2 0x3E7 CALLDATASIZE PUSH1 0x4 PUSH2 0x1ED4 JUMP JUMPDEST PUSH2 0xD04 JUMP JUMPDEST STOP JUMPDEST CALLVALUE DUP1 ISZERO PUSH2 0x3F9 JUMPI PUSH0 DUP1 REVERT JUMPDEST POP PUSH2 0x1DD PUSH2 0xD26 JUMP JUMPDEST CALLVALUE DUP1 ISZERO PUSH2 0x40D JUMPI PUSH0 DUP1 REVERT JUMPDEST POP PUSH2 0x421 PUSH2 0x41C CALLDATASIZE PUSH1 0x4 PUSH2 0x1C89 JUMP JUMPDEST PUSH2 0xD35 JUMP JUMPDEST PUSH1 0x40 DUP1 MLOAD SWAP4 DUP5 MSTORE PUSH1 0x1 PUSH1 0x1 PUSH1 0xA0 SHL SUB SWAP1 SWAP3 AND PUSH1 0x20 DUP5 ADD MSTORE SWAP1 DUP3 ADD MSTORE PUSH1 0x60 ADD PUSH2 0x1EA JUMP JUMPDEST CALLVALUE DUP1 ISZERO PUSH2 0x44F JUMPI PUSH0 DUP1 REVERT JUMPDEST POP PUSH2 0x276 PUSH2 0x45E CALLDATASIZE PUSH1 0x4 PUSH2 0x1C89 JUMP JUMPDEST PUSH2 0xD72 JUMP JUMPDEST CALLVALUE DUP1 ISZERO PUSH2 0x46E JUMPI PUSH0 DUP1 REVERT JUMPDEST POP PUSH2 0x212 PUSH2 0x47D CALLDATASIZE PUSH1 0x4 PUSH2 0x1A5C JUMP JUMPDEST PUSH2 0xE06 JUMP JUMPDEST CALLVALUE DUP1 ISZERO PUSH2 0x48D JUMPI PUSH0 DUP1 REVERT JUMPDEST POP PUSH2 0x334 PUSH2 0x49C CALLDATASIZE PUSH1 0x4 PUSH2 0x1C89 JUMP JUMPDEST PUSH2 0xE85 JUMP JUMPDEST CALLVALUE DUP1 ISZERO PUSH2 0x4AC JUMPI PUSH0 DUP1 REVERT JUMPDEST POP PUSH2 0x3EC PUSH2 0x4BB CALLDATASIZE PUSH1 0x4 PUSH2 0x1C89 JUMP JUMPDEST PUSH2 0xECA JUMP JUMPDEST CALLVALUE DUP1 ISZERO PUSH2 0x4CB JUMPI PUSH0 DUP1 REVERT JUMPDEST POP PUSH2 0x235 PUSH2 0x4DA CALLDATASIZE PUSH1 0x4 PUSH2 0x1E15 JUMP JUMPDEST PUSH1 0xD PUSH1 0x20 MSTORE PUSH0 SWAP1 DUP2 MSTORE PUSH1 0x40 SWAP1 KECCAK256 SLOAD DUP2 JUMP JUMPDEST PUSH2 0x235 PUSH2 0x4F9 CALLDATASIZE PUSH1 0x4 PUSH2 0x1C89 JUMP JUMPDEST PUSH2 0x10FD JUMP JUMPDEST CALLVALUE DUP1 ISZERO PUSH2 0x509 JUMPI PUSH0 DUP1 REVERT JUMPDEST POP PUSH2 0x235 PUSH2 0x518 CALLDATASIZE PUSH1 0x4 PUSH2 0x1F3B JUMP JUMPDEST PUSH1 0x1 PUSH1 0x1 PUSH1 0xA0 SHL SUB SWAP2 DUP3 AND PUSH0 SWAP1 DUP2 MSTORE PUSH1 0x1 PUSH1 0x20 SWAP1 DUP2 MSTORE PUSH1 0x40 DUP1 DUP4 KECCAK256 SWAP4 SWAP1 SWAP5 AND DUP3 MSTORE SWAP2 SWAP1 SWAP2 MSTORE KECCAK256 SLOAD SWAP1 JUMP JUMPDEST CALLVALUE DUP1 ISZERO PUSH2 0x54D JUMPI PUSH0 DUP1 REVERT JUMPDEST POP PUSH1 0x7 SLOAD PUSH2 0x235 JUMP JUMPDEST CALLVALUE DUP1 ISZERO PUSH2 0x561 JUMPI PUSH0 DUP1 REVERT JUMPDEST POP PUSH2 0x1DD PUSH2 0x1316 JUMP JUMPDEST CALLVALUE DUP1 ISZERO PUSH2 0x575 JUMPI PUSH0 DUP1 REVERT JUMPDEST POP PUSH2 0x3EC PUSH2 0x584 CALLDATASIZE PUSH1 0x4 PUSH2 0x1C89 JUMP JUMPDEST PUSH2 0x1323 JUMP JUMPDEST CALLVALUE DUP1 ISZERO PUSH2 0x594 JUMPI PUSH0 DUP1 REVERT JUMPDEST POP PUSH1 0x6 SLOAD PUSH2 0x2E2 SWAP1 PUSH1 0x1 PUSH1 0x1 PUSH1 0xA0 SHL SUB AND DUP2 JUMP JUMPDEST CALLVALUE DUP1 ISZERO PUSH2 0x5B3 JUMPI PUSH0 DUP1 REVERT JUMPDEST POP PUSH2 0x276 PUSH2 0x5C2 CALLDATASIZE PUSH1 0x4 PUSH2 0x1C89 JUMP JUMPDEST PUSH2 0x1594 JUMP JUMPDEST CALLVALUE DUP1 ISZERO PUSH2 0x5D2 JUMPI PUSH0 DUP1 REVERT JUMPDEST POP PUSH2 0x3EC PUSH2 0x5E1 CALLDATASIZE PUSH1 0x4 PUSH2 0x1C89 JUMP JUMPDEST POP JUMP JUMPDEST PUSH1 0x60 PUSH1 0x3 DUP1 SLOAD PUSH2 0x5F3 SWAP1 PUSH2 0x1F6C JUMP JUMPDEST DUP1 PUSH1 0x1F ADD PUSH1 0x20 DUP1 SWAP2 DIV MUL PUSH1 0x20 ADD PUSH1 0x40 MLOAD SWAP1 DUP2 ADD PUSH1 0x40 MSTORE DUP1 SWAP3 SWAP2 SWAP1 DUP2 DUP2 MSTORE PUSH1 0x20 ADD DUP3 DUP1 SLOAD PUSH2 0x61F SWAP1 PUSH2 0x1F6C JUMP JUMPDEST DUP1 ISZERO PUSH2 0x66A JUMPI DUP1 PUSH1 0x1F LT PUSH2 0x641 JUMPI PUSH2 0x100 DUP1 DUP4 SLOAD DIV MUL DUP4 MSTORE SWAP2 PUSH1 0x20 ADD SWAP2 PUSH2 0x66A JUMP JUMPDEST DUP3 ADD SWAP2 SWAP1 PUSH0 MSTORE PUSH1 0x20 PUSH0 KECCAK256 SWAP1 JUMPDEST DUP2 SLOAD DUP2 MSTORE SWAP1 PUSH1 0x1 ADD SWAP1 PUSH1 0x20 ADD DUP1 DUP4 GT PUSH2 0x64D JUMPI DUP3 SWAP1 SUB PUSH1 0x1F AND DUP3 ADD SWAP2 JUMPDEST POP POP POP POP POP SWAP1 POP SWAP1 JUMP JUMPDEST PUSH0 CALLER PUSH2 0x681 DUP2 DUP6 DUP6 PUSH2 0x1628 JUMP JUMPDEST PUSH1 0x1 SWAP2 POP POP JUMPDEST SWAP3 SWAP2 POP POP JUMP JUMPDEST PUSH0 DUP1 DUP5 GT PUSH2 0x6F9 JUMPI PUSH1 0x40 MLOAD PUSH3 0x461BCD PUSH1 0xE5 SHL DUP2 MSTORE PUSH1 0x20 PUSH1 0x4 DUP3 ADD MSTORE PUSH1 0x2E PUSH1 0x24 DUP3 ADD MSTORE PUSH32 0x536C696365546F6B656E3A20536C69636520746F6B656E207175616E74697479 PUSH1 0x44 DUP3 ADD MSTORE PUSH14 0x2063616E2774206265207A65726F PUSH1 0x90 SHL PUSH1 0x64 DUP3 ADD MSTORE PUSH1 0x84 ADD JUMPDEST PUSH1 0x40 MLOAD DUP1 SWAP2 SUB SWAP1 REVERT JUMPDEST DUP2 MLOAD DUP4 MLOAD EQ DUP1 ISZERO PUSH2 0x70C JUMPI POP PUSH1 0x7 SLOAD DUP4 MLOAD EQ JUMPDEST PUSH2 0x772 JUMPI PUSH1 0x40 MLOAD PUSH3 0x461BCD PUSH1 0xE5 SHL DUP2 MSTORE PUSH1 0x20 PUSH1 0x4 DUP3 ADD MSTORE PUSH1 0x31 PUSH1 0x24 DUP3 ADD MSTORE PUSH32 0x536C696365546F6B656E3A20496E636F7272656374206C656E67746820666F72 PUSH1 0x44 DUP3 ADD MSTORE PUSH17 0x20707269636573206F7220726F75746573 PUSH1 0x78 SHL PUSH1 0x64 DUP3 ADD MSTORE PUSH1 0x84 ADD PUSH2 0x6F0 JUMP JUMPDEST PUSH0 PUSH2 0x77C DUP5 PUSH2 0x163A JUMP JUMPDEST PUSH1 0x5 SLOAD PUSH1 0x6 SLOAD PUSH1 0x40 MLOAD PUSH4 0x23B872DD PUSH1 0xE0 SHL DUP2 MSTORE CALLER PUSH1 0x4 DUP3 ADD MSTORE PUSH1 0x1 PUSH1 0x1 PUSH1 0xA0 SHL SUB SWAP2 DUP3 AND PUSH1 0x24 DUP3 ADD MSTORE PUSH1 0x44 DUP2 ADD DUP5 SWAP1 MSTORE SWAP3 SWAP4 POP AND SWAP1 PUSH4 0x23B872DD SWAP1 PUSH1 0x64 ADD PUSH1 0x20 PUSH1 0x40 MLOAD DUP1 DUP4 SUB DUP2 PUSH0 DUP8 GAS CALL ISZERO DUP1 ISZERO PUSH2 0x7D6 JUMPI RETURNDATASIZE PUSH0 DUP1 RETURNDATACOPY RETURNDATASIZE PUSH0 REVERT JUMPDEST POP POP POP POP PUSH1 0x40 MLOAD RETURNDATASIZE PUSH1 0x1F NOT PUSH1 0x1F DUP3 ADD AND DUP3 ADD DUP1 PUSH1 0x40 MSTORE POP DUP2 ADD SWAP1 PUSH2 0x7FA SWAP2 SWAP1 PUSH2 0x1F9E JUMP JUMPDEST POP PUSH1 0x40 MLOAD PUSH4 0xB2B8E35 PUSH1 0xE0 SHL PUSH1 0x20 DUP3 ADD MSTORE PUSH12 0xFFFFFFFFFFFFFFFFFFFFFFFF NOT CALLER PUSH1 0x60 SWAP1 DUP2 SHL DUP3 AND PUSH1 0x24 DUP5 ADD MSTORE ADDRESS SWAP1 SHL AND PUSH1 0x38 DUP3 ADD MSTORE PUSH1 0x4C DUP2 ADD DUP7 SWAP1 MSTORE PUSH1 0x6C DUP2 ADD DUP3 SWAP1 MSTORE TIMESTAMP PUSH1 0x8C DUP3 ADD MSTORE PUSH0 SWAP1 PUSH1 0xAC ADD PUSH1 0x40 DUP1 MLOAD DUP1 DUP4 SUB PUSH1 0x1F NOT ADD DUP2 MSTORE DUP3 DUP3 MSTORE DUP1 MLOAD PUSH1 0x20 SWAP2 DUP3 ADD KECCAK256 PUSH1 0xA0 DUP5 ADD DUP4 MSTORE DUP1 DUP5 MSTORE DUP2 DUP5 ADD DUP11 DUP2 MSTORE CALLER DUP6 DUP6 ADD SWAP1 DUP2 MSTORE PUSH1 0x1 PUSH1 0x60 DUP8 ADD DUP2 DUP2 MSTORE DUP7 MLOAD DUP1 DUP8 ADD DUP9 MSTORE PUSH0 DUP1 DUP3 MSTORE PUSH1 0x80 DUP11 ADD SWAP2 SWAP1 SWAP2 MSTORE DUP6 DUP2 MSTORE PUSH1 0xA SWAP1 SWAP7 MSTORE SWAP6 SWAP1 SWAP5 KECCAK256 DUP7 MLOAD DUP2 SSTORE SWAP2 MLOAD SWAP4 DUP3 ADD SWAP4 SWAP1 SWAP4 SSTORE SWAP2 MLOAD PUSH1 0x2 DUP1 DUP5 ADD DUP1 SLOAD PUSH1 0x1 PUSH1 0x1 PUSH1 0xA0 SHL SUB NOT DUP2 AND PUSH1 0x1 PUSH1 0x1 PUSH1 0xA0 SHL SUB SWAP1 SWAP5 AND SWAP4 DUP5 OR DUP3 SSTORE SWAP6 MLOAD SWAP4 SWAP8 POP DUP7 SWAP6 SWAP1 SWAP3 PUSH1 0x1 PUSH1 0x1 PUSH1 0xA8 SHL SUB NOT SWAP1 SWAP2 AND OR SWAP1 PUSH1 0x1 PUSH1 0xA0 SHL SWAP1 DUP5 SWAP1 DUP2 GT ISZERO PUSH2 0x8FD JUMPI PUSH2 0x8FD PUSH2 0x1CA0 JUMP JUMPDEST MUL OR SWAP1 SSTORE POP PUSH1 0x80 DUP3 ADD MLOAD PUSH1 0x3 DUP3 ADD SWAP1 PUSH2 0x916 SWAP1 DUP3 PUSH2 0x2001 JUMP JUMPDEST POP POP PUSH1 0x6 SLOAD PUSH1 0x40 MLOAD PUSH4 0xE84D555 PUSH1 0xE2 SHL DUP2 MSTORE PUSH1 0x1 PUSH1 0x1 PUSH1 0xA0 SHL SUB SWAP1 SWAP2 AND SWAP2 POP PUSH4 0x3A135554 SWAP1 CALLVALUE SWAP1 PUSH2 0x951 SWAP1 DUP7 SWAP1 DUP13 SWAP1 DUP13 SWAP1 DUP13 SWAP1 PUSH1 0x4 ADD PUSH2 0x20C1 JUMP JUMPDEST PUSH0 PUSH1 0x40 MLOAD DUP1 DUP4 SUB DUP2 DUP6 DUP9 DUP1 EXTCODESIZE ISZERO DUP1 ISZERO PUSH2 0x968 JUMPI PUSH0 DUP1 REVERT JUMPDEST POP GAS CALL ISZERO DUP1 ISZERO PUSH2 0x97A JUMPI RETURNDATASIZE PUSH0 DUP1 RETURNDATACOPY RETURNDATASIZE PUSH0 REVERT JUMPDEST POP SWAP5 SWAP11 SWAP10 POP POP POP POP POP POP POP POP POP POP JUMP JUMPDEST PUSH2 0x9BB PUSH1 0x40 DUP1 MLOAD PUSH1 0xA0 DUP2 ADD DUP3 MSTORE PUSH0 DUP1 DUP3 MSTORE PUSH1 0x20 DUP3 ADD DUP2 SWAP1 MSTORE SWAP2 DUP2 ADD DUP3 SWAP1 MSTORE SWAP1 PUSH1 0x60 DUP3 ADD SWAP1 DUP2 MSTORE PUSH1 0x20 ADD PUSH1 0x60 DUP2 MSTORE POP SWAP1 JUMP JUMPDEST PUSH0 DUP3 DUP2 MSTORE PUSH1 0xB PUSH1 0x20 SWAP1 DUP2 MSTORE PUSH1 0x40 SWAP2 DUP3 SWAP1 KECCAK256 DUP3 MLOAD PUSH1 0xA0 DUP2 ADD DUP5 MSTORE DUP2 SLOAD DUP2 MSTORE PUSH1 0x1 DUP3 ADD SLOAD SWAP3 DUP2 ADD SWAP3 SWAP1 SWAP3 MSTORE PUSH1 0x2 DUP1 DUP3 ADD SLOAD PUSH1 0x1 PUSH1 0x1 PUSH1 0xA0 SHL SUB DUP2 AND SWAP5 DUP5 ADD SWAP5 SWAP1 SWAP5 MSTORE SWAP2 SWAP3 SWAP1 SWAP2 PUSH1 0x60 DUP5 ADD SWAP2 PUSH1 0x1 PUSH1 0xA0 SHL SWAP1 DIV PUSH1 0xFF AND SWAP1 DUP2 GT ISZERO PUSH2 0xA1E JUMPI PUSH2 0xA1E PUSH2 0x1CA0 JUMP JUMPDEST PUSH1 0x2 DUP2 GT ISZERO PUSH2 0xA2F JUMPI PUSH2 0xA2F PUSH2 0x1CA0 JUMP JUMPDEST DUP2 MSTORE PUSH1 0x20 ADD PUSH1 0x3 DUP3 ADD DUP1 SLOAD PUSH2 0xA43 SWAP1 PUSH2 0x1F6C JUMP JUMPDEST DUP1 PUSH1 0x1F ADD PUSH1 0x20 DUP1 SWAP2 DIV MUL PUSH1 0x20 ADD PUSH1 0x40 MLOAD SWAP1 DUP2 ADD PUSH1 0x40 MSTORE DUP1 SWAP3 SWAP2 SWAP1 DUP2 DUP2 MSTORE PUSH1 0x20 ADD DUP3 DUP1 SLOAD PUSH2 0xA6F SWAP1 PUSH2 0x1F6C JUMP JUMPDEST DUP1 ISZERO PUSH2 0xABA JUMPI DUP1 PUSH1 0x1F LT PUSH2 0xA91 JUMPI PUSH2 0x100 DUP1 DUP4 SLOAD DIV MUL DUP4 MSTORE SWAP2 PUSH1 0x20 ADD SWAP2 PUSH2 0xABA JUMP JUMPDEST DUP3 ADD SWAP2 SWAP1 PUSH0 MSTORE PUSH1 0x20 PUSH0 KECCAK256 SWAP1 JUMPDEST DUP2 SLOAD DUP2 MSTORE SWAP1 PUSH1 0x1 ADD SWAP1 PUSH1 0x20 ADD DUP1 DUP4 GT PUSH2 0xA9D JUMPI DUP3 SWAP1 SUB PUSH1 0x1F AND DUP3 ADD SWAP2 JUMPDEST POP POP POP POP POP DUP2 MSTORE POP POP SWAP1 POP SWAP2 SWAP1 POP JUMP JUMPDEST PUSH0 CALLER PUSH2 0xAD7 DUP6 DUP3 DUP6 PUSH2 0x167B JUMP JUMPDEST PUSH2 0xAE2 DUP6 DUP6 DUP6 PUSH2 0x16F6 JUMP JUMPDEST POP PUSH1 0x1 SWAP5 SWAP4 POP POP POP POP JUMP JUMPDEST PUSH1 0xA PUSH1 0x20 MSTORE PUSH0 SWAP1 DUP2 MSTORE PUSH1 0x40 SWAP1 KECCAK256 DUP1 SLOAD PUSH1 0x1 DUP3 ADD SLOAD PUSH1 0x2 DUP4 ADD SLOAD PUSH1 0x3 DUP5 ADD DUP1 SLOAD SWAP4 SWAP5 SWAP3 SWAP4 PUSH1 0x1 PUSH1 0x1 PUSH1 0xA0 SHL SUB DUP4 AND SWAP4 PUSH1 0x1 PUSH1 0xA0 SHL SWAP1 SWAP4 DIV PUSH1 0xFF AND SWAP3 SWAP2 SWAP1 PUSH2 0xB32 SWAP1 PUSH2 0x1F6C JUMP JUMPDEST DUP1 PUSH1 0x1F ADD PUSH1 0x20 DUP1 SWAP2 DIV MUL PUSH1 0x20 ADD PUSH1 0x40 MLOAD SWAP1 DUP2 ADD PUSH1 0x40 MSTORE DUP1 SWAP3 SWAP2 SWAP1 DUP2 DUP2 MSTORE PUSH1 0x20 ADD DUP3 DUP1 SLOAD PUSH2 0xB5E SWAP1 PUSH2 0x1F6C JUMP JUMPDEST DUP1 ISZERO PUSH2 0xBA9 JUMPI DUP1 PUSH1 0x1F LT PUSH2 0xB80 JUMPI PUSH2 0x100 DUP1 DUP4 SLOAD DIV MUL DUP4 MSTORE SWAP2 PUSH1 0x20 ADD SWAP2 PUSH2 0xBA9 JUMP JUMPDEST DUP3 ADD SWAP2 SWAP1 PUSH0 MSTORE PUSH1 0x20 PUSH0 KECCAK256 SWAP1 JUMPDEST DUP2 SLOAD DUP2 MSTORE SWAP1 PUSH1 0x1 ADD SWAP1 PUSH1 0x20 ADD DUP1 DUP4 GT PUSH2 0xB8C JUMPI DUP3 SWAP1 SUB PUSH1 0x1F AND DUP3 ADD SWAP2 JUMPDEST POP POP POP POP POP SWAP1 POP DUP6 JUMP JUMPDEST PUSH1 0xC PUSH1 0x20 MSTORE PUSH0 SWAP1 DUP2 MSTORE PUSH1 0x40 SWAP1 KECCAK256 DUP1 SLOAD PUSH1 0x1 DUP3 ADD SLOAD PUSH1 0x2 DUP4 ADD SLOAD PUSH1 0x3 DUP5 ADD DUP1 SLOAD SWAP4 SWAP5 SWAP3 SWAP4 PUSH1 0x1 PUSH1 0x1 PUSH1 0xA0 SHL SUB DUP4 AND SWAP4 PUSH1 0x1 PUSH1 0xA0 SHL SWAP1 SWAP4 DIV PUSH1 0xFF AND SWAP3 SWAP2 SWAP1 PUSH2 0xB32 SWAP1 PUSH2 0x1F6C JUMP JUMPDEST PUSH1 0x9 DUP1 SLOAD PUSH2 0xC05 SWAP1 PUSH2 0x1F6C JUMP JUMPDEST DUP1 PUSH1 0x1F ADD PUSH1 0x20 DUP1 SWAP2 DIV MUL PUSH1 0x20 ADD PUSH1 0x40 MLOAD SWAP1 DUP2 ADD PUSH1 0x40 MSTORE DUP1 SWAP3 SWAP2 SWAP1 DUP2 DUP2 MSTORE PUSH1 0x20 ADD DUP3 DUP1 SLOAD PUSH2 0xC31 SWAP1 PUSH2 0x1F6C JUMP JUMPDEST DUP1 ISZERO PUSH2 0xC7C JUMPI DUP1 PUSH1 0x1F LT PUSH2 0xC53 JUMPI PUSH2 0x100 DUP1 DUP4 SLOAD DIV MUL DUP4 MSTORE SWAP2 PUSH1 0x20 ADD SWAP2 PUSH2 0xC7C JUMP JUMPDEST DUP3 ADD SWAP2 SWAP1 PUSH0 MSTORE PUSH1 0x20 PUSH0 KECCAK256 SWAP1 JUMPDEST DUP2 SLOAD DUP2 MSTORE SWAP1 PUSH1 0x1 ADD SWAP1 PUSH1 0x20 ADD DUP1 DUP4 GT PUSH2 0xC5F JUMPI DUP3 SWAP1 SUB PUSH1 0x1F AND DUP3 ADD SWAP2 JUMPDEST POP POP POP POP POP DUP2 JUMP JUMPDEST PUSH1 0x60 PUSH1 0x7 DUP1 SLOAD DUP1 PUSH1 0x20 MUL PUSH1 0x20 ADD PUSH1 0x40 MLOAD SWAP1 DUP2 ADD PUSH1 0x40 MSTORE DUP1 SWAP3 SWAP2 SWAP1 DUP2 DUP2 MSTORE PUSH1 0x20 ADD PUSH0 SWAP1 JUMPDEST DUP3 DUP3 LT ISZERO PUSH2 0xCFB JUMPI PUSH0 DUP5 DUP2 MSTORE PUSH1 0x20 SWAP1 DUP2 SWAP1 KECCAK256 PUSH1 0x40 DUP1 MLOAD PUSH1 0x60 DUP2 ADD DUP3 MSTORE PUSH1 0x3 DUP7 MUL SWAP1 SWAP3 ADD DUP1 SLOAD DUP4 MSTORE PUSH1 0x1 DUP1 DUP3 ADD SLOAD PUSH1 0x1 PUSH1 0x1 PUSH1 0xA0 SHL SUB AND DUP5 DUP7 ADD MSTORE PUSH1 0x2 SWAP1 SWAP2 ADD SLOAD SWAP2 DUP4 ADD SWAP2 SWAP1 SWAP2 MSTORE SWAP1 DUP4 MSTORE SWAP1 SWAP3 ADD SWAP2 ADD PUSH2 0xCA7 JUMP JUMPDEST POP POP POP POP SWAP1 POP SWAP1 JUMP JUMPDEST PUSH1 0x8 PUSH2 0xD11 DUP5 DUP7 DUP4 PUSH2 0x2167 JUMP JUMPDEST POP PUSH1 0x9 PUSH2 0xD1F DUP3 DUP5 DUP4 PUSH2 0x2167 JUMP JUMPDEST POP POP POP POP POP JUMP JUMPDEST PUSH1 0x60 PUSH1 0x4 DUP1 SLOAD PUSH2 0x5F3 SWAP1 PUSH2 0x1F6C JUMP JUMPDEST PUSH1 0x7 DUP2 DUP2 SLOAD DUP2 LT PUSH2 0xD44 JUMPI PUSH0 DUP1 REVERT JUMPDEST PUSH0 SWAP2 DUP3 MSTORE PUSH1 0x20 SWAP1 SWAP2 KECCAK256 PUSH1 0x3 SWAP1 SWAP2 MUL ADD DUP1 SLOAD PUSH1 0x1 DUP3 ADD SLOAD PUSH1 0x2 SWAP1 SWAP3 ADD SLOAD SWAP1 SWAP3 POP PUSH1 0x1 PUSH1 0x1 PUSH1 0xA0 SHL SUB SWAP1 SWAP2 AND SWAP1 DUP4 JUMP JUMPDEST PUSH2 0xDA3 PUSH1 0x40 DUP1 MLOAD PUSH1 0xA0 DUP2 ADD DUP3 MSTORE PUSH0 DUP1 DUP3 MSTORE PUSH1 0x20 DUP3 ADD DUP2 SWAP1 MSTORE SWAP2 DUP2 ADD DUP3 SWAP1 MSTORE SWAP1 PUSH1 0x60 DUP3 ADD SWAP1 DUP2 MSTORE PUSH1 0x20 ADD PUSH1 0x60 DUP2 MSTORE POP SWAP1 JUMP JUMPDEST PUSH0 DUP3 DUP2 MSTORE PUSH1 0xA PUSH1 0x20 SWAP1 DUP2 MSTORE PUSH1 0x40 SWAP2 DUP3 SWAP1 KECCAK256 DUP3 MLOAD PUSH1 0xA0 DUP2 ADD DUP5 MSTORE DUP2 SLOAD DUP2 MSTORE PUSH1 0x1 DUP3 ADD SLOAD SWAP3 DUP2 ADD SWAP3 SWAP1 SWAP3 MSTORE PUSH1 0x2 DUP1 DUP3 ADD SLOAD PUSH1 0x1 PUSH1 0x1 PUSH1 0xA0 SHL SUB DUP2 AND SWAP5 DUP5 ADD SWAP5 SWAP1 SWAP5 MSTORE SWAP2 SWAP3 SWAP1 SWAP2 PUSH1 0x60 DUP5 ADD SWAP2 PUSH1 0x1 PUSH1 0xA0 SHL SWAP1 DIV PUSH1 0xFF AND SWAP1 DUP2 GT ISZERO PUSH2 0xA1E JUMPI PUSH2 0xA1E PUSH2 0x1CA0 JUMP JUMPDEST PUSH0 PUSH2 0xE11 CALLER DUP4 PUSH2 0x1753 JUMP JUMPDEST PUSH2 0xE72 JUMPI PUSH1 0x40 MLOAD PUSH3 0x461BCD PUSH1 0xE5 SHL DUP2 MSTORE PUSH1 0x20 PUSH1 0x4 DUP3 ADD MSTORE PUSH1 0x2C PUSH1 0x24 DUP3 ADD MSTORE PUSH32 0x536C696365546F6B656E3A20547279696E6720746F207472616E73666572206C PUSH1 0x44 DUP3 ADD MSTORE PUSH12 0x1BD8DAD95908185B5BDD5B9D PUSH1 0xA2 SHL PUSH1 0x64 DUP3 ADD MSTORE PUSH1 0x84 ADD PUSH2 0x6F0 JUMP JUMPDEST PUSH0 PUSH2 0xE7D DUP5 DUP5 PUSH2 0x1789 JUMP JUMPDEST SWAP5 SWAP4 POP POP POP POP JUMP JUMPDEST PUSH1 0xB PUSH1 0x20 MSTORE PUSH0 SWAP1 DUP2 MSTORE PUSH1 0x40 SWAP1 KECCAK256 DUP1 SLOAD PUSH1 0x1 DUP3 ADD SLOAD PUSH1 0x2 DUP4 ADD SLOAD PUSH1 0x3 DUP5 ADD DUP1 SLOAD SWAP4 SWAP5 SWAP3 SWAP4 PUSH1 0x1 PUSH1 0x1 PUSH1 0xA0 SHL SUB DUP4 AND SWAP4 PUSH1 0x1 PUSH1 0xA0 SHL SWAP1 SWAP4 DIV PUSH1 0xFF AND SWAP3 SWAP2 SWAP1 PUSH2 0xB32 SWAP1 PUSH2 0x1F6C JUMP JUMPDEST PUSH1 0x6 SLOAD PUSH1 0x1 PUSH1 0x1 PUSH1 0xA0 SHL SUB AND CALLER EQ PUSH2 0xEF4 JUMPI PUSH1 0x40 MLOAD PUSH3 0x461BCD PUSH1 0xE5 SHL DUP2 MSTORE PUSH1 0x4 ADD PUSH2 0x6F0 SWAP1 PUSH2 0x2221 JUMP JUMPDEST PUSH0 DUP2 DUP2 MSTORE PUSH1 0xA PUSH1 0x20 SWAP1 DUP2 MSTORE PUSH1 0x40 DUP1 DUP4 KECCAK256 DUP2 MLOAD PUSH1 0xA0 DUP2 ADD DUP4 MSTORE DUP2 SLOAD DUP2 MSTORE PUSH1 0x1 DUP3 ADD SLOAD SWAP4 DUP2 ADD SWAP4 SWAP1 SWAP4 MSTORE PUSH1 0x2 DUP1 DUP3 ADD SLOAD PUSH1 0x1 PUSH1 0x1 PUSH1 0xA0 SHL SUB DUP2 AND SWAP4 DUP6 ADD SWAP4 SWAP1 SWAP4 MSTORE SWAP1 SWAP2 PUSH1 0x60 DUP5 ADD SWAP2 PUSH1 0x1 PUSH1 0xA0 SHL SWAP1 SWAP2 DIV PUSH1 0xFF AND SWAP1 DUP2 GT ISZERO PUSH2 0xF55 JUMPI PUSH2 0xF55 PUSH2 0x1CA0 JUMP JUMPDEST PUSH1 0x2 DUP2 GT ISZERO PUSH2 0xF66 JUMPI PUSH2 0xF66 PUSH2 0x1CA0 JUMP JUMPDEST DUP2 MSTORE PUSH1 0x20 ADD PUSH1 0x3 DUP3 ADD DUP1 SLOAD PUSH2 0xF7A SWAP1 PUSH2 0x1F6C JUMP JUMPDEST DUP1 PUSH1 0x1F ADD PUSH1 0x20 DUP1 SWAP2 DIV MUL PUSH1 0x20 ADD PUSH1 0x40 MLOAD SWAP1 DUP2 ADD PUSH1 0x40 MSTORE DUP1 SWAP3 SWAP2 SWAP1 DUP2 DUP2 MSTORE PUSH1 0x20 ADD DUP3 DUP1 SLOAD PUSH2 0xFA6 SWAP1 PUSH2 0x1F6C JUMP JUMPDEST DUP1 ISZERO PUSH2 0xFF1 JUMPI DUP1 PUSH1 0x1F LT PUSH2 0xFC8 JUMPI PUSH2 0x100 DUP1 DUP4 SLOAD DIV MUL DUP4 MSTORE SWAP2 PUSH1 0x20 ADD SWAP2 PUSH2 0xFF1 JUMP JUMPDEST DUP3 ADD SWAP2 SWAP1 PUSH0 MSTORE PUSH1 0x20 PUSH0 KECCAK256 SWAP1 JUMPDEST DUP2 SLOAD DUP2 MSTORE SWAP1 PUSH1 0x1 ADD SWAP1 PUSH1 0x20 ADD DUP1 DUP4 GT PUSH2 0xFD4 JUMPI DUP3 SWAP1 SUB PUSH1 0x1F AND DUP3 ADD SWAP2 JUMPDEST POP POP POP SWAP2 SWAP1 SWAP3 MSTORE POP POP DUP2 MLOAD SWAP2 SWAP3 POP PUSH2 0x104D SWAP1 POP JUMPI PUSH1 0x40 MLOAD PUSH3 0x461BCD PUSH1 0xE5 SHL DUP2 MSTORE PUSH1 0x20 PUSH1 0x4 DUP3 ADD MSTORE PUSH1 0x1B PUSH1 0x24 DUP3 ADD MSTORE PUSH32 0x536C696365546F6B656E3A20496E76616C6964206D696E742049440000000000 PUSH1 0x44 DUP3 ADD MSTORE PUSH1 0x64 ADD PUSH2 0x6F0 JUMP JUMPDEST PUSH1 0x1 DUP2 PUSH1 0x60 ADD MLOAD PUSH1 0x2 DUP2 GT ISZERO PUSH2 0x1065 JUMPI PUSH2 0x1065 PUSH2 0x1CA0 JUMP JUMPDEST EQ PUSH2 0x1082 JUMPI PUSH1 0x40 MLOAD PUSH3 0x461BCD PUSH1 0xE5 SHL DUP2 MSTORE PUSH1 0x4 ADD PUSH2 0x6F0 SWAP1 PUSH2 0x2265 JUMP JUMPDEST PUSH0 DUP3 DUP2 MSTORE PUSH1 0xA PUSH1 0x20 MSTORE PUSH1 0x40 SWAP1 KECCAK256 PUSH1 0x2 SWAP1 DUP2 ADD DUP1 SLOAD PUSH1 0xFF PUSH1 0xA0 SHL NOT AND PUSH1 0x1 PUSH1 0xA0 SHL DUP4 MUL OR SWAP1 SSTORE POP PUSH2 0x10BA DUP2 PUSH1 0x40 ADD MLOAD DUP3 PUSH1 0x20 ADD MLOAD PUSH2 0x1796 JUMP JUMPDEST DUP1 PUSH1 0x20 ADD MLOAD DUP2 PUSH1 0x40 ADD MLOAD PUSH1 0x1 PUSH1 0x1 PUSH1 0xA0 SHL SUB AND PUSH32 0xA61FDFB9F0C74C4B68B88685011450E9D2D293083BF9209C523A5E0B50ED7FE4 PUSH1 0x40 MLOAD PUSH1 0x40 MLOAD DUP1 SWAP2 SUB SWAP1 LOG3 POP POP JUMP JUMPDEST CALLER PUSH0 SWAP1 DUP2 MSTORE PUSH1 0x20 DUP2 SWAP1 MSTORE PUSH1 0x40 DUP2 KECCAK256 SLOAD DUP3 GT ISZERO PUSH2 0x1178 JUMPI PUSH1 0x40 MLOAD PUSH3 0x461BCD PUSH1 0xE5 SHL DUP2 MSTORE PUSH1 0x20 PUSH1 0x4 DUP3 ADD MSTORE PUSH1 0x34 PUSH1 0x24 DUP3 ADD MSTORE PUSH32 0x536C696365546F6B656E3A20547279696E6720746F2072656465656D206D6F72 PUSH1 0x44 DUP3 ADD MSTORE PUSH20 0x65207468616E20746F6B656E2062616C616E6365 PUSH1 0x60 SHL PUSH1 0x64 DUP3 ADD MSTORE PUSH1 0x84 ADD PUSH2 0x6F0 JUMP JUMPDEST CALLER PUSH0 SWAP1 DUP2 MSTORE PUSH1 0xD PUSH1 0x20 MSTORE PUSH1 0x40 DUP2 KECCAK256 DUP1 SLOAD DUP5 SWAP3 SWAP1 PUSH2 0x1196 SWAP1 DUP5 SWAP1 PUSH2 0x22C2 JUMP JUMPDEST SWAP1 SWAP2 SSTORE POP POP PUSH1 0x40 MLOAD PUSH4 0xDB006A75 PUSH1 0xE0 SHL PUSH1 0x20 DUP3 ADD MSTORE PUSH12 0xFFFFFFFFFFFFFFFFFFFFFFFF NOT CALLER PUSH1 0x60 SWAP1 DUP2 SHL DUP3 AND PUSH1 0x24 DUP5 ADD MSTORE ADDRESS SWAP1 SHL AND PUSH1 0x38 DUP3 ADD MSTORE PUSH1 0x4C DUP2 ADD DUP4 SWAP1 MSTORE TIMESTAMP PUSH1 0x6C DUP3 ADD MSTORE PUSH0 SWAP1 PUSH1 0x8C ADD PUSH1 0x40 DUP1 MLOAD DUP1 DUP4 SUB PUSH1 0x1F NOT ADD DUP2 MSTORE DUP3 DUP3 MSTORE DUP1 MLOAD PUSH1 0x20 SWAP2 DUP3 ADD KECCAK256 PUSH1 0xA0 DUP5 ADD DUP4 MSTORE DUP1 DUP5 MSTORE DUP2 DUP5 ADD DUP8 DUP2 MSTORE CALLER DUP6 DUP6 ADD SWAP1 DUP2 MSTORE PUSH1 0x1 PUSH1 0x60 DUP8 ADD DUP2 DUP2 MSTORE DUP7 MLOAD DUP1 DUP8 ADD DUP9 MSTORE PUSH0 DUP1 DUP3 MSTORE PUSH1 0x80 DUP11 ADD SWAP2 SWAP1 SWAP2 MSTORE DUP6 DUP2 MSTORE PUSH1 0xC SWAP1 SWAP7 MSTORE SWAP6 SWAP1 SWAP5 KECCAK256 DUP7 MLOAD DUP2 SSTORE SWAP2 MLOAD SWAP4 DUP3 ADD SWAP4 SWAP1 SWAP4 SSTORE SWAP2 MLOAD PUSH1 0x2 DUP1 DUP5 ADD DUP1 SLOAD PUSH1 0x1 PUSH1 0x1 PUSH1 0xA0 SHL SUB NOT DUP2 AND PUSH1 0x1 PUSH1 0x1 PUSH1 0xA0 SHL SUB SWAP1 SWAP5 AND SWAP4 DUP5 OR DUP3 SSTORE SWAP6 MLOAD SWAP4 SWAP8 POP DUP7 SWAP6 SWAP1 SWAP3 PUSH1 0x1 PUSH1 0x1 PUSH1 0xA8 SHL SUB NOT SWAP1 SWAP2 AND OR SWAP1 PUSH1 0x1 PUSH1 0xA0 SHL SWAP1 DUP5 SWAP1 DUP2 GT ISZERO PUSH2 0x1296 JUMPI PUSH2 0x1296 PUSH2 0x1CA0 JUMP JUMPDEST MUL OR SWAP1 SSTORE POP PUSH1 0x80 DUP3 ADD MLOAD PUSH1 0x3 DUP3 ADD SWAP1 PUSH2 0x12AF SWAP1 DUP3 PUSH2 0x2001 JUMP JUMPDEST POP POP PUSH1 0x6 SLOAD PUSH1 0x40 MLOAD PUSH4 0x697A41F7 PUSH1 0xE0 SHL DUP2 MSTORE PUSH1 0x4 DUP2 ADD DUP6 SWAP1 MSTORE PUSH1 0x1 PUSH1 0x1 PUSH1 0xA0 SHL SUB SWAP1 SWAP2 AND SWAP2 POP PUSH4 0x697A41F7 SWAP1 CALLVALUE SWAP1 PUSH1 0x24 ADD PUSH0 PUSH1 0x40 MLOAD DUP1 DUP4 SUB DUP2 DUP6 DUP9 DUP1 EXTCODESIZE ISZERO DUP1 ISZERO PUSH2 0x12F7 JUMPI PUSH0 DUP1 REVERT JUMPDEST POP GAS CALL ISZERO DUP1 ISZERO PUSH2 0x1309 JUMPI RETURNDATASIZE PUSH0 DUP1 RETURNDATACOPY RETURNDATASIZE PUSH0 REVERT JUMPDEST POP SWAP5 SWAP8 SWAP7 POP POP POP POP POP POP POP JUMP JUMPDEST PUSH1 0x8 DUP1 SLOAD PUSH2 0xC05 SWAP1 PUSH2 0x1F6C JUMP JUMPDEST PUSH1 0x6 SLOAD PUSH1 0x1 PUSH1 0x1 PUSH1 0xA0 SHL SUB AND CALLER EQ PUSH2 0x134D JUMPI PUSH1 0x40 MLOAD PUSH3 0x461BCD PUSH1 0xE5 SHL DUP2 MSTORE PUSH1 0x4 ADD PUSH2 0x6F0 SWAP1 PUSH2 0x2221 JUMP JUMPDEST PUSH0 DUP2 DUP2 MSTORE PUSH1 0xC PUSH1 0x20 SWAP1 DUP2 MSTORE PUSH1 0x40 DUP1 DUP4 KECCAK256 DUP2 MLOAD PUSH1 0xA0 DUP2 ADD DUP4 MSTORE DUP2 SLOAD DUP2 MSTORE PUSH1 0x1 DUP3 ADD SLOAD SWAP4 DUP2 ADD SWAP4 SWAP1 SWAP4 MSTORE PUSH1 0x2 DUP1 DUP3 ADD SLOAD PUSH1 0x1 PUSH1 0x1 PUSH1 0xA0 SHL SUB DUP2 AND SWAP4 DUP6 ADD SWAP4 SWAP1 SWAP4 MSTORE SWAP1 SWAP2 PUSH1 0x60 DUP5 ADD SWAP2 PUSH1 0x1 PUSH1 0xA0 SHL SWAP1 SWAP2 DIV PUSH1 0xFF AND SWAP1 DUP2 GT ISZERO PUSH2 0x13AE JUMPI PUSH2 0x13AE PUSH2 0x1CA0 JUMP JUMPDEST PUSH1 0x2 DUP2 GT ISZERO PUSH2 0x13BF JUMPI PUSH2 0x13BF PUSH2 0x1CA0 JUMP JUMPDEST DUP2 MSTORE PUSH1 0x20 ADD PUSH1 0x3 DUP3 ADD DUP1 SLOAD PUSH2 0x13D3 SWAP1 PUSH2 0x1F6C JUMP JUMPDEST DUP1 PUSH1 0x1F ADD PUSH1 0x20 DUP1 SWAP2 DIV MUL PUSH1 0x20 ADD PUSH1 0x40 MLOAD SWAP1 DUP2 ADD PUSH1 0x40 MSTORE DUP1 SWAP3 SWAP2 SWAP1 DUP2 DUP2 MSTORE PUSH1 0x20 ADD DUP3 DUP1 SLOAD PUSH2 0x13FF SWAP1 PUSH2 0x1F6C JUMP JUMPDEST DUP1 ISZERO PUSH2 0x144A JUMPI DUP1 PUSH1 0x1F LT PUSH2 0x1421 JUMPI PUSH2 0x100 DUP1 DUP4 SLOAD DIV MUL DUP4 MSTORE SWAP2 PUSH1 0x20 ADD SWAP2 PUSH2 0x144A JUMP JUMPDEST DUP3 ADD SWAP2 SWAP1 PUSH0 MSTORE PUSH1 0x20 PUSH0 KECCAK256 SWAP1 JUMPDEST DUP2 SLOAD DUP2 MSTORE SWAP1 PUSH1 0x1 ADD SWAP1 PUSH1 0x20 ADD DUP1 DUP4 GT PUSH2 0x142D JUMPI DUP3 SWAP1 SUB PUSH1 0x1F AND DUP3 ADD SWAP2 JUMPDEST POP POP POP SWAP2 SWAP1 SWAP3 MSTORE POP POP DUP2 MLOAD SWAP2 SWAP3 POP PUSH2 0x14A6 SWAP1 POP JUMPI PUSH1 0x40 MLOAD PUSH3 0x461BCD PUSH1 0xE5 SHL DUP2 MSTORE PUSH1 0x20 PUSH1 0x4 DUP3 ADD MSTORE PUSH1 0x1D PUSH1 0x24 DUP3 ADD MSTORE PUSH32 0x536C696365546F6B656E3A20496E76616C69642072656465656D204944000000 PUSH1 0x44 DUP3 ADD MSTORE PUSH1 0x64 ADD PUSH2 0x6F0 JUMP JUMPDEST PUSH1 0x1 DUP2 PUSH1 0x60 ADD MLOAD PUSH1 0x2 DUP2 GT ISZERO PUSH2 0x14BE JUMPI PUSH2 0x14BE PUSH2 0x1CA0 JUMP JUMPDEST EQ PUSH2 0x14DB JUMPI PUSH1 0x40 MLOAD PUSH3 0x461BCD PUSH1 0xE5 SHL DUP2 MSTORE PUSH1 0x4 ADD PUSH2 0x6F0 SWAP1 PUSH2 0x2265 JUMP JUMPDEST PUSH0 DUP3 DUP2 MSTORE PUSH1 0xC PUSH1 0x20 MSTORE PUSH1 0x40 SWAP1 KECCAK256 PUSH1 0x2 SWAP1 DUP2 ADD DUP1 SLOAD PUSH1 0xFF PUSH1 0xA0 SHL NOT AND PUSH1 0x1 PUSH1 0xA0 SHL DUP4 MUL OR SWAP1 SSTORE POP PUSH2 0x1513 DUP2 PUSH1 0x40 ADD MLOAD DUP3 PUSH1 0x20 ADD MLOAD PUSH2 0x17CE JUMP JUMPDEST DUP1 PUSH1 0x20 ADD MLOAD PUSH1 0xD PUSH0 DUP4 PUSH1 0x40 ADD MLOAD PUSH1 0x1 PUSH1 0x1 PUSH1 0xA0 SHL SUB AND PUSH1 0x1 PUSH1 0x1 PUSH1 0xA0 SHL SUB AND DUP2 MSTORE PUSH1 0x20 ADD SWAP1 DUP2 MSTORE PUSH1 0x20 ADD PUSH0 KECCAK256 PUSH0 DUP3 DUP3 SLOAD PUSH2 0x154D SWAP2 SWAP1 PUSH2 0x22D5 JUMP JUMPDEST SWAP1 SWAP2 SSTORE POP POP PUSH1 0x20 DUP2 ADD MLOAD PUSH1 0x40 DUP1 DUP4 ADD MLOAD SWAP1 MLOAD PUSH1 0x1 PUSH1 0x1 PUSH1 0xA0 SHL SUB SWAP1 SWAP2 AND SWAP1 PUSH32 0x7CB8583761A7935775076BE427253C26130F2A9922E3B01F863BA82C38345A66 SWAP1 PUSH0 SWAP1 LOG3 POP POP JUMP JUMPDEST PUSH2 0x15C5 PUSH1 0x40 DUP1 MLOAD PUSH1 0xA0 DUP2 ADD DUP3 MSTORE PUSH0 DUP1 DUP3 MSTORE PUSH1 0x20 DUP3 ADD DUP2 SWAP1 MSTORE SWAP2 DUP2 ADD DUP3 SWAP1 MSTORE SWAP1 PUSH1 0x60 DUP3 ADD SWAP1 DUP2 MSTORE PUSH1 0x20 ADD PUSH1 0x60 DUP2 MSTORE POP SWAP1 JUMP JUMPDEST PUSH0 DUP3 DUP2 MSTORE PUSH1 0xC PUSH1 0x20 SWAP1 DUP2 MSTORE PUSH1 0x40 SWAP2 DUP3 SWAP1 KECCAK256 DUP3 MLOAD PUSH1 0xA0 DUP2 ADD DUP5 MSTORE DUP2 SLOAD DUP2 MSTORE PUSH1 0x1 DUP3 ADD SLOAD SWAP3 DUP2 ADD SWAP3 SWAP1 SWAP3 MSTORE PUSH1 0x2 DUP1 DUP3 ADD SLOAD PUSH1 0x1 PUSH1 0x1 PUSH1 0xA0 SHL SUB DUP2 AND SWAP5 DUP5 ADD SWAP5 SWAP1 SWAP5 MSTORE SWAP2 SWAP3 SWAP1 SWAP2 PUSH1 0x60 DUP5 ADD SWAP2 PUSH1 0x1 PUSH1 0xA0 SHL SWAP1 DIV PUSH1 0xFF AND SWAP1 DUP2 GT ISZERO PUSH2 0xA1E JUMPI PUSH2 0xA1E PUSH2 0x1CA0 JUMP JUMPDEST PUSH2 0x1635 DUP4 DUP4 DUP4 PUSH1 0x1 PUSH2 0x1802 JUMP JUMPDEST POP POP POP JUMP JUMPDEST PUSH0 DUP1 JUMPDEST DUP3 MLOAD DUP2 LT ISZERO PUSH2 0x1675 JUMPI DUP3 DUP2 DUP2 MLOAD DUP2 LT PUSH2 0x1658 JUMPI PUSH2 0x1658 PUSH2 0x22E8 JUMP JUMPDEST PUSH1 0x20 MUL PUSH1 0x20 ADD ADD MLOAD DUP3 PUSH2 0x166B SWAP2 SWAP1 PUSH2 0x22C2 JUMP JUMPDEST SWAP2 POP PUSH1 0x1 ADD PUSH2 0x163D JUMP JUMPDEST POP SWAP2 SWAP1 POP JUMP JUMPDEST PUSH1 0x1 PUSH1 0x1 PUSH1 0xA0 SHL SUB DUP4 DUP2 AND PUSH0 SWAP1 DUP2 MSTORE PUSH1 0x1 PUSH1 0x20 SWAP1 DUP2 MSTORE PUSH1 0x40 DUP1 DUP4 KECCAK256 SWAP4 DUP7 AND DUP4 MSTORE SWAP3 SWAP1 MSTORE KECCAK256 SLOAD PUSH0 NOT DUP2 EQ PUSH2 0x16F0 JUMPI DUP2 DUP2 LT ISZERO PUSH2 0x16E2 JUMPI PUSH1 0x40 MLOAD PUSH4 0x7DC7A0D9 PUSH1 0xE1 SHL DUP2 MSTORE PUSH1 0x1 PUSH1 0x1 PUSH1 0xA0 SHL SUB DUP5 AND PUSH1 0x4 DUP3 ADD MSTORE PUSH1 0x24 DUP2 ADD DUP3 SWAP1 MSTORE PUSH1 0x44 DUP2 ADD DUP4 SWAP1 MSTORE PUSH1 0x64 ADD PUSH2 0x6F0 JUMP JUMPDEST PUSH2 0x16F0 DUP5 DUP5 DUP5 DUP5 SUB PUSH0 PUSH2 0x1802 JUMP JUMPDEST POP POP POP POP JUMP JUMPDEST PUSH1 0x1 PUSH1 0x1 PUSH1 0xA0 SHL SUB DUP4 AND PUSH2 0x171F JUMPI PUSH1 0x40 MLOAD PUSH4 0x4B637E8F PUSH1 0xE1 SHL DUP2 MSTORE PUSH0 PUSH1 0x4 DUP3 ADD MSTORE PUSH1 0x24 ADD PUSH2 0x6F0 JUMP JUMPDEST PUSH1 0x1 PUSH1 0x1 PUSH1 0xA0 SHL SUB DUP3 AND PUSH2 0x1748 JUMPI PUSH1 0x40 MLOAD PUSH4 0xEC442F05 PUSH1 0xE0 SHL DUP2 MSTORE PUSH0 PUSH1 0x4 DUP3 ADD MSTORE PUSH1 0x24 ADD PUSH2 0x6F0 JUMP JUMPDEST PUSH2 0x1635 DUP4 DUP4 DUP4 PUSH2 0x18D4 JUMP JUMPDEST PUSH1 0x1 PUSH1 0x1 PUSH1 0xA0 SHL SUB DUP3 AND PUSH0 SWAP1 DUP2 MSTORE PUSH1 0xD PUSH1 0x20 SWAP1 DUP2 MSTORE PUSH1 0x40 DUP1 DUP4 KECCAK256 SLOAD SWAP2 DUP4 SWAP1 MSTORE DUP3 KECCAK256 SLOAD PUSH2 0x1780 SWAP1 DUP5 SWAP1 PUSH2 0x22D5 JUMP JUMPDEST LT ISZERO SWAP4 SWAP3 POP POP POP JUMP JUMPDEST PUSH0 CALLER PUSH2 0x681 DUP2 DUP6 DUP6 PUSH2 0x16F6 JUMP JUMPDEST PUSH1 0x1 PUSH1 0x1 PUSH1 0xA0 SHL SUB DUP3 AND PUSH2 0x17BF JUMPI PUSH1 0x40 MLOAD PUSH4 0xEC442F05 PUSH1 0xE0 SHL DUP2 MSTORE PUSH0 PUSH1 0x4 DUP3 ADD MSTORE PUSH1 0x24 ADD PUSH2 0x6F0 JUMP JUMPDEST PUSH2 0x17CA PUSH0 DUP4 DUP4 PUSH2 0x18D4 JUMP JUMPDEST POP POP JUMP JUMPDEST PUSH1 0x1 PUSH1 0x1 PUSH1 0xA0 SHL SUB DUP3 AND PUSH2 0x17F7 JUMPI PUSH1 0x40 MLOAD PUSH4 0x4B637E8F PUSH1 0xE1 SHL DUP2 MSTORE PUSH0 PUSH1 0x4 DUP3 ADD MSTORE PUSH1 0x24 ADD PUSH2 0x6F0 JUMP JUMPDEST PUSH2 0x17CA DUP3 PUSH0 DUP4 PUSH2 0x18D4 JUMP JUMPDEST PUSH1 0x1 PUSH1 0x1 PUSH1 0xA0 SHL SUB DUP5 AND PUSH2 0x182B JUMPI PUSH1 0x40 MLOAD PUSH4 0xE602DF05 PUSH1 0xE0 SHL DUP2 MSTORE PUSH0 PUSH1 0x4 DUP3 ADD MSTORE PUSH1 0x24 ADD PUSH2 0x6F0 JUMP JUMPDEST PUSH1 0x1 PUSH1 0x1 PUSH1 0xA0 SHL SUB DUP4 AND PUSH2 0x1854 JUMPI PUSH1 0x40 MLOAD PUSH4 0x4A1406B1 PUSH1 0xE1 SHL DUP2 MSTORE PUSH0 PUSH1 0x4 DUP3 ADD MSTORE PUSH1 0x24 ADD PUSH2 0x6F0 JUMP JUMPDEST PUSH1 0x1 PUSH1 0x1 PUSH1 0xA0 SHL SUB DUP1 DUP6 AND PUSH0 SWAP1 DUP2 MSTORE PUSH1 0x1 PUSH1 0x20 SWAP1 DUP2 MSTORE PUSH1 0x40 DUP1 DUP4 KECCAK256 SWAP4 DUP8 AND DUP4 MSTORE SWAP3 SWAP1 MSTORE KECCAK256 DUP3 SWAP1 SSTORE DUP1 ISZERO PUSH2 0x16F0 JUMPI DUP3 PUSH1 0x1 PUSH1 0x1 PUSH1 0xA0 SHL SUB AND DUP5 PUSH1 0x1 PUSH1 0x1 PUSH1 0xA0 SHL SUB AND PUSH32 0x8C5BE1E5EBEC7D5BD14F71427D1E84F3DD0314C0F7B2291E5B200AC8C7C3B925 DUP5 PUSH1 0x40 MLOAD PUSH2 0x18C6 SWAP2 DUP2 MSTORE PUSH1 0x20 ADD SWAP1 JUMP JUMPDEST PUSH1 0x40 MLOAD DUP1 SWAP2 SUB SWAP1 LOG3 POP POP POP POP JUMP JUMPDEST PUSH1 0x1 PUSH1 0x1 PUSH1 0xA0 SHL SUB DUP4 AND PUSH2 0x18FE JUMPI DUP1 PUSH1 0x2 PUSH0 DUP3 DUP3 SLOAD PUSH2 0x18F3 SWAP2 SWAP1 PUSH2 0x22C2 JUMP JUMPDEST SWAP1 SWAP2 SSTORE POP PUSH2 0x196E SWAP1 POP JUMP JUMPDEST PUSH1 0x1 PUSH1 0x1 PUSH1 0xA0 SHL SUB DUP4 AND PUSH0 SWAP1 DUP2 MSTORE PUSH1 0x20 DUP2 SWAP1 MSTORE PUSH1 0x40 SWAP1 KECCAK256 SLOAD DUP2 DUP2 LT ISZERO PUSH2 0x1950 JUMPI PUSH1 0x40 MLOAD PUSH4 0x391434E3 PUSH1 0xE2 SHL DUP2 MSTORE PUSH1 0x1 PUSH1 0x1 PUSH1 0xA0 SHL SUB DUP6 AND PUSH1 0x4 DUP3 ADD MSTORE PUSH1 0x24 DUP2 ADD DUP3 SWAP1 MSTORE PUSH1 0x44 DUP2 ADD DUP4 SWAP1 MSTORE PUSH1 0x64 ADD PUSH2 0x6F0 JUMP JUMPDEST PUSH1 0x1 PUSH1 0x1 PUSH1 0xA0 SHL SUB DUP5 AND PUSH0 SWAP1 DUP2 MSTORE PUSH1 0x20 DUP2 SWAP1 MSTORE PUSH1 0x40 SWAP1 KECCAK256 SWAP1 DUP3 SWAP1 SUB SWAP1 SSTORE JUMPDEST PUSH1 0x1 PUSH1 0x1 PUSH1 0xA0 SHL SUB DUP3 AND PUSH2 0x198A JUMPI PUSH1 0x2 DUP1 SLOAD DUP3 SWAP1 SUB SWAP1 SSTORE PUSH2 0x19A8 JUMP JUMPDEST PUSH1 0x1 PUSH1 0x1 PUSH1 0xA0 SHL SUB DUP3 AND PUSH0 SWAP1 DUP2 MSTORE PUSH1 0x20 DUP2 SWAP1 MSTORE PUSH1 0x40 SWAP1 KECCAK256 DUP1 SLOAD DUP3 ADD SWAP1 SSTORE JUMPDEST DUP2 PUSH1 0x1 PUSH1 0x1 PUSH1 0xA0 SHL SUB AND DUP4 PUSH1 0x1 PUSH1 0x1 PUSH1 0xA0 SHL SUB AND PUSH32 0xDDF252AD1BE2C89B69C2B068FC378DAA952BA7F163C4A11628F55A4DF523B3EF DUP4 PUSH1 0x40 MLOAD PUSH2 0x19ED SWAP2 DUP2 MSTORE PUSH1 0x20 ADD SWAP1 JUMP JUMPDEST PUSH1 0x40 MLOAD DUP1 SWAP2 SUB SWAP1 LOG3 POP POP POP JUMP JUMPDEST PUSH0 DUP2 MLOAD DUP1 DUP5 MSTORE DUP1 PUSH1 0x20 DUP5 ADD PUSH1 0x20 DUP7 ADD MCOPY PUSH0 PUSH1 0x20 DUP3 DUP7 ADD ADD MSTORE PUSH1 0x20 PUSH1 0x1F NOT PUSH1 0x1F DUP4 ADD AND DUP6 ADD ADD SWAP2 POP POP SWAP3 SWAP2 POP POP JUMP JUMPDEST PUSH1 0x20 DUP2 MSTORE PUSH0 PUSH2 0x1A3A PUSH1 0x20 DUP4 ADD DUP5 PUSH2 0x19FA JUMP JUMPDEST SWAP4 SWAP3 POP POP POP JUMP JUMPDEST DUP1 CALLDATALOAD PUSH1 0x1 PUSH1 0x1 PUSH1 0xA0 SHL SUB DUP2 AND DUP2 EQ PUSH2 0x1A57 JUMPI PUSH0 DUP1 REVERT JUMPDEST SWAP2 SWAP1 POP JUMP JUMPDEST PUSH0 DUP1 PUSH1 0x40 DUP4 DUP6 SUB SLT ISZERO PUSH2 0x1A6D JUMPI PUSH0 DUP1 REVERT JUMPDEST PUSH2 0x1A76 DUP4 PUSH2 0x1A41 JUMP JUMPDEST SWAP5 PUSH1 0x20 SWAP4 SWAP1 SWAP4 ADD CALLDATALOAD SWAP4 POP POP POP JUMP JUMPDEST PUSH4 0x4E487B71 PUSH1 0xE0 SHL PUSH0 MSTORE PUSH1 0x41 PUSH1 0x4 MSTORE PUSH1 0x24 PUSH0 REVERT JUMPDEST PUSH1 0x40 MLOAD PUSH1 0x1F DUP3 ADD PUSH1 0x1F NOT AND DUP2 ADD PUSH8 0xFFFFFFFFFFFFFFFF DUP2 GT DUP3 DUP3 LT OR ISZERO PUSH2 0x1AC1 JUMPI PUSH2 0x1AC1 PUSH2 0x1A84 JUMP JUMPDEST PUSH1 0x40 MSTORE SWAP2 SWAP1 POP JUMP JUMPDEST PUSH0 PUSH8 0xFFFFFFFFFFFFFFFF DUP3 GT ISZERO PUSH2 0x1AE2 JUMPI PUSH2 0x1AE2 PUSH2 0x1A84 JUMP JUMPDEST POP PUSH1 0x5 SHL PUSH1 0x20 ADD SWAP1 JUMP JUMPDEST PUSH0 PUSH1 0x1F DUP4 PUSH1 0x1F DUP5 ADD SLT PUSH2 0x1AFD JUMPI PUSH0 DUP1 REVERT JUMPDEST DUP3 CALLDATALOAD PUSH1 0x20 PUSH2 0x1B12 PUSH2 0x1B0D DUP4 PUSH2 0x1AC9 JUMP JUMPDEST PUSH2 0x1A98 JUMP JUMPDEST DUP3 DUP2 MSTORE PUSH1 0x5 SWAP3 SWAP1 SWAP3 SHL DUP6 ADD DUP2 ADD SWAP2 DUP2 DUP2 ADD SWAP1 DUP8 DUP5 GT ISZERO PUSH2 0x1B30 JUMPI PUSH0 DUP1 REVERT JUMPDEST DUP3 DUP8 ADD JUMPDEST DUP5 DUP2 LT ISZERO PUSH2 0x1BC0 JUMPI DUP1 CALLDATALOAD PUSH8 0xFFFFFFFFFFFFFFFF DUP1 DUP3 GT ISZERO PUSH2 0x1B53 JUMPI PUSH0 DUP1 REVERT JUMPDEST DUP2 DUP11 ADD SWAP2 POP DUP11 PUSH1 0x3F DUP4 ADD SLT PUSH2 0x1B66 JUMPI PUSH0 DUP1 REVERT JUMPDEST DUP6 DUP3 ADD CALLDATALOAD PUSH1 0x40 DUP3 DUP3 GT ISZERO PUSH2 0x1B7C JUMPI PUSH2 0x1B7C PUSH2 0x1A84 JUMP JUMPDEST PUSH2 0x1B8D DUP3 DUP12 ADD PUSH1 0x1F NOT AND DUP10 ADD PUSH2 0x1A98 JUMP JUMPDEST SWAP3 POP DUP2 DUP4 MSTORE DUP13 DUP2 DUP4 DUP7 ADD ADD GT ISZERO PUSH2 0x1BA2 JUMPI PUSH0 DUP1 REVERT JUMPDEST DUP2 DUP2 DUP6 ADD DUP10 DUP6 ADD CALLDATACOPY POP PUSH0 SWAP1 DUP3 ADD DUP8 ADD MSTORE DUP5 MSTORE POP SWAP2 DUP4 ADD SWAP2 DUP4 ADD PUSH2 0x1B34 JUMP JUMPDEST POP SWAP8 SWAP7 POP POP POP POP POP POP POP JUMP JUMPDEST PUSH0 DUP1 PUSH0 PUSH1 0x60 DUP5 DUP7 SUB SLT ISZERO PUSH2 0x1BDE JUMPI PUSH0 DUP1 REVERT JUMPDEST DUP4 CALLDATALOAD SWAP3 POP PUSH1 0x20 DUP1 DUP6 ADD CALLDATALOAD PUSH8 0xFFFFFFFFFFFFFFFF DUP1 DUP3 GT ISZERO PUSH2 0x1BFD JUMPI PUSH0 DUP1 REVERT JUMPDEST DUP2 DUP8 ADD SWAP2 POP DUP8 PUSH1 0x1F DUP4 ADD SLT PUSH2 0x1C10 JUMPI PUSH0 DUP1 REVERT JUMPDEST DUP2 CALLDATALOAD PUSH2 0x1C1E PUSH2 0x1B0D DUP3 PUSH2 0x1AC9 JUMP JUMPDEST DUP2 DUP2 MSTORE PUSH1 0x5 SWAP2 SWAP1 SWAP2 SHL DUP4 ADD DUP5 ADD SWAP1 DUP5 DUP2 ADD SWAP1 DUP11 DUP4 GT ISZERO PUSH2 0x1C3C JUMPI PUSH0 DUP1 REVERT JUMPDEST SWAP4 DUP6 ADD SWAP4 JUMPDEST DUP3 DUP6 LT ISZERO PUSH2 0x1C5A JUMPI DUP5 CALLDATALOAD DUP3 MSTORE SWAP4 DUP6 ADD SWAP4 SWAP1 DUP6 ADD SWAP1 PUSH2 0x1C41 JUMP JUMPDEST SWAP7 POP POP POP PUSH1 0x40 DUP8 ADD CALLDATALOAD SWAP3 POP DUP1 DUP4 GT ISZERO PUSH2 0x1C71 JUMPI PUSH0 DUP1 REVERT JUMPDEST POP POP PUSH2 0x1C7F DUP7 DUP3 DUP8 ADD PUSH2 0x1AEC JUMP JUMPDEST SWAP2 POP POP SWAP3 POP SWAP3 POP SWAP3 JUMP JUMPDEST PUSH0 PUSH1 0x20 DUP3 DUP5 SUB SLT ISZERO PUSH2 0x1C99 JUMPI PUSH0 DUP1 REVERT JUMPDEST POP CALLDATALOAD SWAP2 SWAP1 POP JUMP JUMPDEST PUSH4 0x4E487B71 PUSH1 0xE0 SHL PUSH0 MSTORE PUSH1 0x21 PUSH1 0x4 MSTORE PUSH1 0x24 PUSH0 REVERT JUMPDEST PUSH1 0x3 DUP2 LT PUSH2 0x1CD0 JUMPI PUSH4 0x4E487B71 PUSH1 0xE0 SHL PUSH0 MSTORE PUSH1 0x21 PUSH1 0x4 MSTORE PUSH1 0x24 PUSH0 REVERT JUMPDEST SWAP1 MSTORE JUMP JUMPDEST PUSH1 0x20 DUP2 MSTORE DUP2 MLOAD PUSH1 0x20 DUP3 ADD MSTORE PUSH1 0x20 DUP3 ADD MLOAD PUSH1 0x40 DUP3 ADD MSTORE PUSH1 0x1 DUP1 PUSH1 0xA0 SHL SUB PUSH1 0x40 DUP4 ADD MLOAD AND PUSH1 0x60 DUP3 ADD MSTORE PUSH0 PUSH1 0x60 DUP4 ADD MLOAD PUSH2 0x1D0E PUSH1 0x80 DUP5 ADD DUP3 PUSH2 0x1CB4 JUMP JUMPDEST POP PUSH1 0x80 DUP4 ADD MLOAD PUSH1 0xA0 DUP1 DUP5 ADD MSTORE PUSH2 0xE7D PUSH1 0xC0 DUP5 ADD DUP3 PUSH2 0x19FA JUMP JUMPDEST PUSH0 DUP1 PUSH1 0x20 DUP4 DUP6 SUB SLT ISZERO PUSH2 0x1D38 JUMPI PUSH0 DUP1 REVERT JUMPDEST DUP3 CALLDATALOAD PUSH8 0xFFFFFFFFFFFFFFFF DUP1 DUP3 GT ISZERO PUSH2 0x1D4F JUMPI PUSH0 DUP1 REVERT JUMPDEST DUP2 DUP6 ADD SWAP2 POP DUP6 PUSH1 0x1F DUP4 ADD SLT PUSH2 0x1D62 JUMPI PUSH0 DUP1 REVERT JUMPDEST DUP2 CALLDATALOAD DUP2 DUP2 GT ISZERO PUSH2 0x1D70 JUMPI PUSH0 DUP1 REVERT JUMPDEST DUP7 PUSH1 0x20 PUSH1 0x60 DUP4 MUL DUP6 ADD ADD GT ISZERO PUSH2 0x1D84 JUMPI PUSH0 DUP1 REVERT JUMPDEST PUSH1 0x20 SWAP3 SWAP1 SWAP3 ADD SWAP7 SWAP2 SWAP6 POP SWAP1 SWAP4 POP POP POP POP JUMP JUMPDEST PUSH0 DUP1 PUSH0 PUSH1 0x60 DUP5 DUP7 SUB SLT ISZERO PUSH2 0x1DA8 JUMPI PUSH0 DUP1 REVERT JUMPDEST PUSH2 0x1DB1 DUP5 PUSH2 0x1A41 JUMP JUMPDEST SWAP3 POP PUSH2 0x1DBF PUSH1 0x20 DUP6 ADD PUSH2 0x1A41 JUMP JUMPDEST SWAP2 POP PUSH1 0x40 DUP5 ADD CALLDATALOAD SWAP1 POP SWAP3 POP SWAP3 POP SWAP3 JUMP JUMPDEST DUP6 DUP2 MSTORE PUSH1 0x20 DUP2 ADD DUP6 SWAP1 MSTORE PUSH1 0x1 PUSH1 0x1 PUSH1 0xA0 SHL SUB DUP5 AND PUSH1 0x40 DUP3 ADD MSTORE PUSH2 0x1DF5 PUSH1 0x60 DUP3 ADD DUP5 PUSH2 0x1CB4 JUMP JUMPDEST PUSH1 0xA0 PUSH1 0x80 DUP3 ADD MSTORE PUSH0 PUSH2 0x1E0A PUSH1 0xA0 DUP4 ADD DUP5 PUSH2 0x19FA JUMP JUMPDEST SWAP8 SWAP7 POP POP POP POP POP POP POP JUMP JUMPDEST PUSH0 PUSH1 0x20 DUP3 DUP5 SUB SLT ISZERO PUSH2 0x1E25 JUMPI PUSH0 DUP1 REVERT JUMPDEST PUSH2 0x1A3A DUP3 PUSH2 0x1A41 JUMP JUMPDEST PUSH1 0x20 DUP1 DUP3 MSTORE DUP3 MLOAD DUP3 DUP3 ADD DUP2 SWAP1 MSTORE PUSH0 SWAP2 SWAP1 PUSH1 0x40 SWAP1 DUP2 DUP6 ADD SWAP1 DUP7 DUP5 ADD DUP6 JUMPDEST DUP3 DUP2 LT ISZERO PUSH2 0x1E82 JUMPI DUP2 MLOAD DUP1 MLOAD DUP6 MSTORE DUP7 DUP2 ADD MLOAD PUSH1 0x1 PUSH1 0x1 PUSH1 0xA0 SHL SUB AND DUP8 DUP7 ADD MSTORE DUP6 ADD MLOAD DUP6 DUP6 ADD MSTORE PUSH1 0x60 SWAP1 SWAP4 ADD SWAP3 SWAP1 DUP6 ADD SWAP1 PUSH1 0x1 ADD PUSH2 0x1E4A JUMP JUMPDEST POP SWAP2 SWAP8 SWAP7 POP POP POP POP POP POP POP JUMP JUMPDEST PUSH0 DUP1 DUP4 PUSH1 0x1F DUP5 ADD SLT PUSH2 0x1E9F JUMPI PUSH0 DUP1 REVERT JUMPDEST POP DUP2 CALLDATALOAD PUSH8 0xFFFFFFFFFFFFFFFF DUP2 GT ISZERO PUSH2 0x1EB6 JUMPI PUSH0 DUP1 REVERT JUMPDEST PUSH1 0x20 DUP4 ADD SWAP2 POP DUP4 PUSH1 0x20 DUP3 DUP6 ADD ADD GT ISZERO PUSH2 0x1ECD JUMPI PUSH0 DUP1 REVERT JUMPDEST SWAP3 POP SWAP3 SWAP1 POP JUMP JUMPDEST PUSH0 DUP1 PUSH0 DUP1 PUSH1 0x40 DUP6 DUP8 SUB SLT ISZERO PUSH2 0x1EE7 JUMPI PUSH0 DUP1 REVERT JUMPDEST DUP5 CALLDATALOAD PUSH8 0xFFFFFFFFFFFFFFFF DUP1 DUP3 GT ISZERO PUSH2 0x1EFE JUMPI PUSH0 DUP1 REVERT JUMPDEST PUSH2 0x1F0A DUP9 DUP4 DUP10 ADD PUSH2 0x1E8F JUMP JUMPDEST SWAP1 SWAP7 POP SWAP5 POP PUSH1 0x20 DUP8 ADD CALLDATALOAD SWAP2 POP DUP1 DUP3 GT ISZERO PUSH2 0x1F22 JUMPI PUSH0 DUP1 REVERT JUMPDEST POP PUSH2 0x1F2F DUP8 DUP3 DUP9 ADD PUSH2 0x1E8F JUMP JUMPDEST SWAP6 SWAP9 SWAP5 SWAP8 POP SWAP6 POP POP POP POP JUMP JUMPDEST PUSH0 DUP1 PUSH1 0x40 DUP4 DUP6 SUB SLT ISZERO PUSH2 0x1F4C JUMPI PUSH0 DUP1 REVERT JUMPDEST PUSH2 0x1F55 DUP4 PUSH2 0x1A41 JUMP JUMPDEST SWAP2 POP PUSH2 0x1F63 PUSH1 0x20 DUP5 ADD PUSH2 0x1A41 JUMP JUMPDEST SWAP1 POP SWAP3 POP SWAP3 SWAP1 POP JUMP JUMPDEST PUSH1 0x1 DUP2 DUP2 SHR SWAP1 DUP3 AND DUP1 PUSH2 0x1F80 JUMPI PUSH1 0x7F DUP3 AND SWAP2 POP JUMPDEST PUSH1 0x20 DUP3 LT DUP2 SUB PUSH2 0x1675 JUMPI PUSH4 0x4E487B71 PUSH1 0xE0 SHL PUSH0 MSTORE PUSH1 0x22 PUSH1 0x4 MSTORE PUSH1 0x24 PUSH0 REVERT JUMPDEST PUSH0 PUSH1 0x20 DUP3 DUP5 SUB SLT ISZERO PUSH2 0x1FAE JUMPI PUSH0 DUP1 REVERT JUMPDEST DUP2 MLOAD DUP1 ISZERO ISZERO DUP2 EQ PUSH2 0x1A3A JUMPI PUSH0 DUP1 REVERT JUMPDEST PUSH1 0x1F DUP3 GT ISZERO PUSH2 0x1635 JUMPI DUP1 PUSH0 MSTORE PUSH1 0x20 PUSH0 KECCAK256 PUSH1 0x1F DUP5 ADD PUSH1 0x5 SHR DUP2 ADD PUSH1 0x20 DUP6 LT ISZERO PUSH2 0x1FE2 JUMPI POP DUP1 JUMPDEST PUSH1 0x1F DUP5 ADD PUSH1 0x5 SHR DUP3 ADD SWAP2 POP JUMPDEST DUP2 DUP2 LT ISZERO PUSH2 0xD1F JUMPI PUSH0 DUP2 SSTORE PUSH1 0x1 ADD PUSH2 0x1FEE JUMP JUMPDEST DUP2 MLOAD PUSH8 0xFFFFFFFFFFFFFFFF DUP2 GT ISZERO PUSH2 0x201B JUMPI PUSH2 0x201B PUSH2 0x1A84 JUMP JUMPDEST PUSH2 0x202F DUP2 PUSH2 0x2029 DUP5 SLOAD PUSH2 0x1F6C JUMP JUMPDEST DUP5 PUSH2 0x1FBD JUMP JUMPDEST PUSH1 0x20 DUP1 PUSH1 0x1F DUP4 GT PUSH1 0x1 DUP2 EQ PUSH2 0x2062 JUMPI PUSH0 DUP5 ISZERO PUSH2 0x204B JUMPI POP DUP6 DUP4 ADD MLOAD JUMPDEST PUSH0 NOT PUSH1 0x3 DUP7 SWAP1 SHL SHR NOT AND PUSH1 0x1 DUP6 SWAP1 SHL OR DUP6 SSTORE PUSH2 0x20B9 JUMP JUMPDEST PUSH0 DUP6 DUP2 MSTORE PUSH1 0x20 DUP2 KECCAK256 PUSH1 0x1F NOT DUP7 AND SWAP2 JUMPDEST DUP3 DUP2 LT ISZERO PUSH2 0x2090 JUMPI DUP9 DUP7 ADD MLOAD DUP3 SSTORE SWAP5 DUP5 ADD SWAP5 PUSH1 0x1 SWAP1 SWAP2 ADD SWAP1 DUP5 ADD PUSH2 0x2071 JUMP JUMPDEST POP DUP6 DUP3 LT ISZERO PUSH2 0x20AD JUMPI DUP8 DUP6 ADD MLOAD PUSH0 NOT PUSH1 0x3 DUP9 SWAP1 SHL PUSH1 0xF8 AND SHR NOT AND DUP2 SSTORE JUMPDEST POP POP PUSH1 0x1 DUP5 PUSH1 0x1 SHL ADD DUP6 SSTORE JUMPDEST POP POP POP POP POP POP JUMP JUMPDEST PUSH0 PUSH1 0x80 DUP3 ADD DUP7 DUP4 MSTORE PUSH1 0x20 DUP7 DUP2 DUP6 ADD MSTORE PUSH1 0x80 PUSH1 0x40 DUP6 ADD MSTORE DUP2 DUP7 MLOAD DUP1 DUP5 MSTORE PUSH1 0xA0 DUP7 ADD SWAP2 POP DUP3 DUP9 ADD SWAP4 POP PUSH0 JUMPDEST DUP2 DUP2 LT ISZERO PUSH2 0x2106 JUMPI DUP5 MLOAD DUP4 MSTORE SWAP4 DUP4 ADD SWAP4 SWAP2 DUP4 ADD SWAP2 PUSH1 0x1 ADD PUSH2 0x20EA JUMP JUMPDEST POP POP DUP5 DUP2 SUB PUSH1 0x60 DUP7 ADD MSTORE DUP6 MLOAD DUP1 DUP3 MSTORE DUP3 DUP3 ADD SWAP4 POP PUSH1 0x5 DUP2 SWAP1 SHL DUP3 ADD DUP4 ADD DUP4 DUP9 ADD PUSH0 JUMPDEST DUP4 DUP2 LT ISZERO PUSH2 0x2156 JUMPI PUSH1 0x1F NOT DUP6 DUP5 SUB ADD DUP8 MSTORE PUSH2 0x2144 DUP4 DUP4 MLOAD PUSH2 0x19FA JUMP JUMPDEST SWAP7 DUP7 ADD SWAP7 SWAP3 POP SWAP1 DUP6 ADD SWAP1 PUSH1 0x1 ADD PUSH2 0x2128 JUMP JUMPDEST POP SWAP1 SWAP12 SWAP11 POP POP POP POP POP POP POP POP POP POP POP JUMP JUMPDEST PUSH8 0xFFFFFFFFFFFFFFFF DUP4 GT ISZERO PUSH2 0x217F JUMPI PUSH2 0x217F PUSH2 0x1A84 JUMP JUMPDEST PUSH2 0x2193 DUP4 PUSH2 0x218D DUP4 SLOAD PUSH2 0x1F6C JUMP JUMPDEST DUP4 PUSH2 0x1FBD JUMP JUMPDEST PUSH0 PUSH1 0x1F DUP5 GT PUSH1 0x1 DUP2 EQ PUSH2 0x21C4 JUMPI PUSH0 DUP6 ISZERO PUSH2 0x21AD JUMPI POP DUP4 DUP3 ADD CALLDATALOAD JUMPDEST PUSH0 NOT PUSH1 0x3 DUP8 SWAP1 SHL SHR NOT AND PUSH1 0x1 DUP7 SWAP1 SHL OR DUP4 SSTORE PUSH2 0xD1F JUMP JUMPDEST PUSH0 DUP4 DUP2 MSTORE PUSH1 0x20 DUP2 KECCAK256 PUSH1 0x1F NOT DUP8 AND SWAP2 JUMPDEST DUP3 DUP2 LT ISZERO PUSH2 0x21F3 JUMPI DUP7 DUP6 ADD CALLDATALOAD DUP3 SSTORE PUSH1 0x20 SWAP5 DUP6 ADD SWAP5 PUSH1 0x1 SWAP1 SWAP3 ADD SWAP2 ADD PUSH2 0x21D3 JUMP JUMPDEST POP DUP7 DUP3 LT ISZERO PUSH2 0x220F JUMPI PUSH0 NOT PUSH1 0xF8 DUP9 PUSH1 0x3 SHL AND SHR NOT DUP5 DUP8 ADD CALLDATALOAD AND DUP2 SSTORE JUMPDEST POP POP PUSH1 0x1 DUP6 PUSH1 0x1 SHL ADD DUP4 SSTORE POP POP POP POP POP JUMP JUMPDEST PUSH1 0x20 DUP1 DUP3 MSTORE PUSH1 0x24 SWAP1 DUP3 ADD MSTORE PUSH32 0x536C696365546F6B656E3A204F6E6C7920536C69636520436F72652063616E20 PUSH1 0x40 DUP3 ADD MSTORE PUSH4 0x18D85B1B PUSH1 0xE2 SHL PUSH1 0x60 DUP3 ADD MSTORE PUSH1 0x80 ADD SWAP1 JUMP JUMPDEST PUSH1 0x20 DUP1 DUP3 MSTORE PUSH1 0x29 SWAP1 DUP3 ADD MSTORE PUSH32 0x536C696365546F6B656E3A205472616E73616374696F6E207374617465206973 PUSH1 0x40 DUP3 ADD MSTORE PUSH9 0x103737BA1037B832B7 PUSH1 0xB9 SHL PUSH1 0x60 DUP3 ADD MSTORE PUSH1 0x80 ADD SWAP1 JUMP JUMPDEST PUSH4 0x4E487B71 PUSH1 0xE0 SHL PUSH0 MSTORE PUSH1 0x11 PUSH1 0x4 MSTORE PUSH1 0x24 PUSH0 REVERT JUMPDEST DUP1 DUP3 ADD DUP1 DUP3 GT ISZERO PUSH2 0x687 JUMPI PUSH2 0x687 PUSH2 0x22AE JUMP JUMPDEST DUP2 DUP2 SUB DUP2 DUP2 GT ISZERO PUSH2 0x687 JUMPI PUSH2 0x687 PUSH2 0x22AE JUMP JUMPDEST PUSH4 0x4E487B71 PUSH1 0xE0 SHL PUSH0 MSTORE PUSH1 0x32 PUSH1 0x4 MSTORE PUSH1 0x24 PUSH0 REVERT INVALID LOG2 PUSH5 0x6970667358 0x22 SLT KECCAK256 0xF7 SLOAD 0x4E 0xD PUSH28 0x1320E025A51B5C78C44B1E9F7E21F7199402FA7AE715B03F1D3DAA64 PUSH20 0x6F6C63430008190033A26469706673582212207E GASLIMIT DUP10 SHR CALLER 0xD0 SUB 0x25 0xAB 0xC0 0x2E 0xBD ADDRESS INVALID POP 0xCC 0xBB PUSH5 0x820DA6E76F CREATE SWAP16 CODECOPY 0xCA 0x22 0x2E LOG2 0xAB 0xD PUSH5 0x736F6C6343 STOP ADDMOD NOT STOP CALLER "
		},
		"gasEstimates": {
			"creation": {
				"codeDepositCost": "2191400",
				"executionCost": "2336",
				"totalCost": "2193736"
			},
			"external": {
				"deploySliceToken(string,string,(uint256,address,uint256)[],address,address)": "infinite"
			}
		},
		"methodIdentifiers": {
			"deploySliceToken(string,string,(uint256,address,uint256)[],address,address)": "15e0bb38"
		}
	},
	"abi": [
		{
			"inputs": [
				{
					"internalType": "string",
					"name": "_name",
					"type": "string"
				},
				{
					"internalType": "string",
					"name": "_symbol",
					"type": "string"
				},
				{
					"components": [
						{
							"internalType": "uint256",
							"name": "chainId",
							"type": "uint256"
						},
						{
							"internalType": "address",
							"name": "token",
							"type": "address"
						},
						{
							"internalType": "uint256",
							"name": "units",
							"type": "uint256"
						}
					],
					"internalType": "struct Position[]",
					"name": "_positions",
					"type": "tuple[]"
				},
				{
					"internalType": "address",
					"name": "_paymentToken",
					"type": "address"
				},
				{
					"internalType": "address",
					"name": "_core",
					"type": "address"
				}
			],
			"name": "deploySliceToken",
			"outputs": [
				{
					"internalType": "address",
					"name": "",
					"type": "address"
				}
			],
			"stateMutability": "nonpayable",
			"type": "function"
		}
	]
}